{
  "address": "0x204EFCebEc7F95f89019F64521ee1413B22E5Efe",
  "abi": [
    {
      "inputs": [],
      "name": "UintUtils__InsufficientHexLength",
      "type": "error"
    },
    {
      "anonymous": false,
      "inputs": [
        {
          "indexed": true,
          "internalType": "bytes32",
          "name": "role",
          "type": "bytes32"
        },
        {
          "indexed": true,
          "internalType": "bytes32",
          "name": "previousAdminRole",
          "type": "bytes32"
        },
        {
          "indexed": true,
          "internalType": "bytes32",
          "name": "newAdminRole",
          "type": "bytes32"
        }
      ],
      "name": "RoleAdminChanged",
      "type": "event"
    },
    {
      "anonymous": false,
      "inputs": [
        {
          "indexed": true,
          "internalType": "bytes32",
          "name": "role",
          "type": "bytes32"
        },
        {
          "indexed": true,
          "internalType": "address",
          "name": "account",
          "type": "address"
        },
        {
          "indexed": true,
          "internalType": "address",
          "name": "sender",
          "type": "address"
        }
      ],
      "name": "RoleGranted",
      "type": "event"
    },
    {
      "anonymous": false,
      "inputs": [
        {
          "indexed": true,
          "internalType": "bytes32",
          "name": "role",
          "type": "bytes32"
        },
        {
          "indexed": true,
          "internalType": "address",
          "name": "account",
          "type": "address"
        },
        {
          "indexed": true,
          "internalType": "address",
          "name": "sender",
          "type": "address"
        }
      ],
      "name": "RoleRevoked",
      "type": "event"
    },
    {
      "inputs": [
        {
          "internalType": "bytes32",
          "name": "role",
          "type": "bytes32"
        }
      ],
      "name": "getRoleAdmin",
      "outputs": [
        {
          "internalType": "bytes32",
          "name": "",
          "type": "bytes32"
        }
      ],
      "stateMutability": "view",
      "type": "function"
    },
    {
      "inputs": [
        {
          "internalType": "bytes32",
          "name": "role",
          "type": "bytes32"
        },
        {
          "internalType": "address",
          "name": "account",
          "type": "address"
        }
      ],
      "name": "grantRole",
      "outputs": [],
      "stateMutability": "nonpayable",
      "type": "function"
    },
    {
      "inputs": [
        {
          "internalType": "bytes32",
          "name": "role",
          "type": "bytes32"
        },
        {
          "internalType": "address",
          "name": "account",
          "type": "address"
        }
      ],
      "name": "hasRole",
      "outputs": [
        {
          "internalType": "bool",
          "name": "",
          "type": "bool"
        }
      ],
      "stateMutability": "view",
      "type": "function"
    },
    {
      "inputs": [
        {
          "internalType": "bytes32",
          "name": "role",
          "type": "bytes32"
        }
      ],
      "name": "renounceRole",
      "outputs": [],
      "stateMutability": "nonpayable",
      "type": "function"
    },
    {
      "inputs": [
        {
          "internalType": "bytes32",
          "name": "role",
          "type": "bytes32"
        },
        {
          "internalType": "address",
          "name": "account",
          "type": "address"
        }
      ],
      "name": "revokeRole",
      "outputs": [],
      "stateMutability": "nonpayable",
      "type": "function"
    }
  ],
  "transactionHash": "0x83a582a4bfebe38075a4dacb4b375ab6882752047bc5bc282822e21344f0b75c",
  "args": [],
  "numDeployments": 1,
  "solcInputHash": "7c2f2883e0da9bf3e6298a712dbf5e36",
  "bytecode": "0x608060405234801561001057600080fd5b5061078d806100206000396000f3fe608060405234801561001057600080fd5b50600436106100575760003560e01c8063248a9ca31461005c5780632f2ff15d146100825780638bb9c5bf1461009757806391d14854146100aa578063d547741f146100cd575b600080fd5b61006f61006a366004610594565b6100e0565b6040519081526020015b60405180910390f35b6100956100903660046105ad565b6100f1565b005b6100956100a5366004610594565b610112565b6100bd6100b83660046105ad565b61011e565b6040519015158152602001610079565b6100956100db3660046105ad565b610131565b60006100eb8261014d565b92915050565b6100fa8261014d565b6101038161016f565b61010d8383610179565b505050565b61011b816101db565b50565b600061012a83836101e5565b9392505050565b61013a8261014d565b6101438161016f565b61010d838361020a565b6000908152600080516020610738833981519152602052604090206002015490565b61011b813361026c565b60008281526000805160206107388339815191526020526040902061019e90826102db565b5060405133906001600160a01b0383169084907f2f8788117e7eff1d82e926ec794901d17c78024a50270940304540a733656f0d90600090a45050565b61011b813361020a565b60008281526000805160206107388339815191526020526040812061012a90836102f0565b60008281526000805160206107388339815191526020526040902061022f9082610312565b5060405133906001600160a01b0383169084907ff6391f5c32d9c69d2a47ea670b442974b53935d1edc7fd64eb21e047a839171b90600090a45050565b61027682826101e5565b6102d75761028c816001600160a01b0316610327565b610297836020610339565b6040516020016102a892919061060d565b60408051601f198184030181529082905262461bcd60e51b82526102ce91600401610682565b60405180910390fd5b5050565b600061012a836001600160a01b03841661048c565b6001600160a01b0381166000908152600183016020526040812054151561012a565b600061012a836001600160a01b0384166104cf565b60606100eb6001600160a01b03831660145b606060006103488360026106cb565b6103539060026106e2565b67ffffffffffffffff81111561036b5761036b6106f5565b6040519080825280601f01601f191660200182016040528015610395576020820181803683370190505b509050600360fc1b816000815181106103b0576103b061070b565b60200101906001600160f81b031916908160001a905350600f60fb1b816001815181106103df576103df61070b565b60200101906001600160f81b031916908160001a905350600160028402015b600181111561046c576f181899199a1a9b1b9c1cb0b131b232b360811b85600f166010811061042f5761042f61070b565b1a60f81b8282815181106104455761044561070b565b60200101906001600160f81b031916908160001a90535060049490941c93600019016103fe565b50831561012a5760405163c913478560e01b815260040160405180910390fd5b60008181526001830160205260408120546100eb575081546001808201845560008481526020808220909301849055845493815293810190915260409092205590565b6000818152600183016020526040812054801561058d578354600090859060001981019081106105015761050161070b565b90600052602060002001549050808560000160018403815481106105275761052761070b565b600091825260208083209091019290925591825260018601905260409020819055835484908061055957610559610721565b6001900381819060005260206000200160009055905583600101600084815260200190815260200160002060009055600191505b5092915050565b6000602082840312156105a657600080fd5b5035919050565b600080604083850312156105c057600080fd5b8235915060208301356001600160a01b03811681146105de57600080fd5b809150509250929050565b60005b838110156106045781810151838201526020016105ec565b50506000910152565b7f416363657373436f6e74726f6c3a206163636f756e74200000000000000000008152600083516106458160178501602088016105e9565b7001034b99036b4b9b9b4b733903937b6329607d1b60179184019182015283516106768160288401602088016105e9565b01602801949350505050565b60208152600082518060208401526106a18160408501602087016105e9565b601f01601f19169190910160400192915050565b634e487b7160e01b600052601160045260246000fd5b80820281158282048414176100eb576100eb6106b5565b808201808211156100eb576100eb6106b5565b634e487b7160e01b600052604160045260246000fd5b634e487b7160e01b600052603260045260246000fd5b634e487b7160e01b600052603160045260246000fdfed3889cc5458b268d0544e5534672df1296288ca3f93cbd39bd6f497a5c622811a2646970667358221220c5d946255881c5ab47e090d6c3f856ff4e38da6f46836027e3bd480a8ecadc4b64736f6c63430008110033",
  "devdoc": {
    "kind": "dev",
    "methods": {
      "renounceRole(bytes32)": {
        "params": {
          "role": "role to relinquish"
        }
      }
    },
    "title": "AccessControlFacet",
    "version": 1
  },
  "userdoc": {
    "kind": "user",
    "methods": {
      "renounceRole(bytes32)": {
        "notice": "relinquish role"
      }
    },
    "version": 1
  },
  "storageLayout": {
    "storage": [],
    "types": null
  }
}