{
  "address": "0xbF67C77323ab9198ed3c5631Eb95086fb1F9585E",
  "abi": [
    {
      "inputs": [],
      "name": "ERC165Base__InvalidInterfaceId",
      "type": "error"
    },
    {
      "inputs": [],
      "name": "UintUtils__InsufficientHexLength",
      "type": "error"
    },
    {
      "anonymous": false,
      "inputs": [
        {
          "indexed": true,
          "internalType": "bool",
          "name": "_allowAny",
          "type": "bool"
        }
      ],
      "name": "AllowAnyUpdated",
      "type": "event"
    },
    {
      "anonymous": false,
      "inputs": [
        {
          "indexed": true,
          "internalType": "address",
          "name": "_address",
          "type": "address"
        }
      ],
      "name": "Allowlisted",
      "type": "event"
    },
    {
      "anonymous": false,
      "inputs": [
        {
          "indexed": false,
          "internalType": "address[]",
          "name": "_addresses",
          "type": "address[]"
        }
      ],
      "name": "BatchAllowlisted",
      "type": "event"
    },
    {
      "anonymous": false,
      "inputs": [
        {
          "indexed": false,
          "internalType": "address[]",
          "name": "_addresses",
          "type": "address[]"
        }
      ],
      "name": "BatchUnallowlisted",
      "type": "event"
    },
    {
      "anonymous": false,
      "inputs": [
        {
          "indexed": true,
          "internalType": "bytes32",
          "name": "role",
          "type": "bytes32"
        },
        {
          "indexed": true,
          "internalType": "bytes32",
          "name": "previousAdminRole",
          "type": "bytes32"
        },
        {
          "indexed": true,
          "internalType": "bytes32",
          "name": "newAdminRole",
          "type": "bytes32"
        }
      ],
      "name": "RoleAdminChanged",
      "type": "event"
    },
    {
      "anonymous": false,
      "inputs": [
        {
          "indexed": true,
          "internalType": "bytes32",
          "name": "role",
          "type": "bytes32"
        },
        {
          "indexed": true,
          "internalType": "address",
          "name": "account",
          "type": "address"
        },
        {
          "indexed": true,
          "internalType": "address",
          "name": "sender",
          "type": "address"
        }
      ],
      "name": "RoleGranted",
      "type": "event"
    },
    {
      "anonymous": false,
      "inputs": [
        {
          "indexed": true,
          "internalType": "bytes32",
          "name": "role",
          "type": "bytes32"
        },
        {
          "indexed": true,
          "internalType": "address",
          "name": "account",
          "type": "address"
        },
        {
          "indexed": true,
          "internalType": "address",
          "name": "sender",
          "type": "address"
        }
      ],
      "name": "RoleRevoked",
      "type": "event"
    },
    {
      "anonymous": false,
      "inputs": [
        {
          "indexed": true,
          "internalType": "address",
          "name": "_address",
          "type": "address"
        }
      ],
      "name": "Unallowlisted",
      "type": "event"
    },
    {
      "inputs": [
        {
          "internalType": "address",
          "name": "_address",
          "type": "address"
        }
      ],
      "name": "addToAllowlist",
      "outputs": [],
      "stateMutability": "nonpayable",
      "type": "function"
    },
    {
      "inputs": [
        {
          "internalType": "address[]",
          "name": "_addresses",
          "type": "address[]"
        }
      ],
      "name": "batchAddToAllowlist",
      "outputs": [],
      "stateMutability": "nonpayable",
      "type": "function"
    },
    {
      "inputs": [
        {
          "internalType": "address[]",
          "name": "_addresses",
          "type": "address[]"
        }
      ],
      "name": "batchRemoveFromAllowlist",
      "outputs": [],
      "stateMutability": "nonpayable",
      "type": "function"
    },
    {
      "inputs": [],
      "name": "getAllowlist",
      "outputs": [
        {
          "internalType": "address[]",
          "name": "",
          "type": "address[]"
        }
      ],
      "stateMutability": "view",
      "type": "function"
    },
    {
      "inputs": [
        {
          "internalType": "address",
          "name": "_owner",
          "type": "address"
        },
        {
          "internalType": "bool",
          "name": "allowAny",
          "type": "bool"
        },
        {
          "internalType": "address[]",
          "name": "_addresses",
          "type": "address[]"
        }
      ],
      "name": "initializeAllowlist",
      "outputs": [],
      "stateMutability": "nonpayable",
      "type": "function"
    },
    {
      "inputs": [
        {
          "internalType": "bool",
          "name": "allowAny",
          "type": "bool"
        },
        {
          "internalType": "address[]",
          "name": "_addresses",
          "type": "address[]"
        }
      ],
      "name": "initializeAllowlist",
      "outputs": [],
      "stateMutability": "nonpayable",
      "type": "function"
    },
    {
      "inputs": [
        {
          "internalType": "address",
          "name": "_address",
          "type": "address"
        }
      ],
      "name": "isAllowed",
      "outputs": [
        {
          "internalType": "bool",
          "name": "",
          "type": "bool"
        }
      ],
      "stateMutability": "view",
      "type": "function"
    },
    {
      "inputs": [
        {
          "internalType": "address",
          "name": "_address",
          "type": "address"
        }
      ],
      "name": "removeFromAllowlist",
      "outputs": [],
      "stateMutability": "nonpayable",
      "type": "function"
    },
    {
      "inputs": [
        {
          "internalType": "bool",
          "name": "_allowAny",
          "type": "bool"
        }
      ],
      "name": "setAllowAny",
      "outputs": [],
      "stateMutability": "nonpayable",
      "type": "function"
    }
  ],
  "transactionHash": "0x01275657eaf7842520bb0a4d0697871eba09b2a8ce449aa578cd5450be511259",
  "args": [],
  "numDeployments": 2,
  "solcInputHash": "927794098ed722c6dc37e5f585f9f4b5",
  "bytecode": "0x608060405234801561001057600080fd5b50610fb8806100206000396000f3fe608060405234801561001057600080fd5b50600436106100935760003560e01c80639371ff2d116100665780639371ff2d146100e6578063a1ecb276146100f9578063babcc5391461010c578063c5eff3d014610134578063f8e86ece1461014957600080fd5b806329953efa146100985780635da93d7e146100ad5780636d85c43c146100c05780638ac79791146100d3575b600080fd5b6100ab6100a6366004610b73565b61015c565b005b6100ab6100bb366004610ba5565b610181565b6100ab6100ce366004610c78565b6101a2565b6100ab6100e1366004610c78565b6101c3565b6100ab6100f4366004610cb5565b6101e4565b6100ab610107366004610d13565b610280565b61011f61011a366004610ba5565b6102cc565b60405190151581526020015b60405180910390f35b61013c6102dd565b60405161012b9190610d61565b6100ab610157366004610ba5565b6102ec565b600080516020610f438339815191526101748161030d565b61017d8261031a565b5050565b600080516020610f438339815191526101998161030d565b61017d8261036c565b600080516020610f438339815191526101ba8161030d565b61017d826103de565b600080516020610f438339815191526101db8161030d565b61017d82610477565b600080516020610f638339815191525460ff161561021d5760405162461bcd60e51b815260040161021490610dae565b60405180910390fd5b61022f63babcc53960e01b6001610504565b61024163466a36a560e11b6001610504565b610259600080516020610f438339815191528461057a565b610271600080516020610f43833981519152806105ee565b61027b8282610658565b505050565b600080516020610f638339815191525460ff16156102b05760405162461bcd60e51b815260040161021490610dae565b6102c263babcc53960e01b6001610504565b61017d8282610658565b60006102d7826106b5565b92915050565b60606102e76106f4565b905090565b600080516020610f438339815191526103048161030d565b61017d82610734565b61031781336107a6565b50565b600080516020610f63833981519152805461ff0019166101008315159081029190911782556040517f20a26f70c17ef9c9bac355de2d5319262bc14d5476e4e9a379fa663ef172486e90600090a25050565b600080516020610f638339815191526103a57f9fca1883cea1af9526093bc3a6f14a88fc5b5aaf6b6820bb26ccaa4c275327c583610808565b506040516001600160a01b038316907fe5058b95b8b6a8d48a6d241621ef523fab84db6043988a2f925baebedaa7883890600090a25050565b600080516020610f6383398151915260005b825181101561043b5761042883828151811061040e5761040e610df1565b60200260200101518360010161080890919063ffffffff16565b508061043381610e1d565b9150506103f0565b507f51c358fa6c3f60ee363b7ab42087f4213a5587a26894a20bd7834f6f05448d7b8260405161046b9190610d61565b60405180910390a15050565b600080516020610f6383398151915260005b82518110156104d4576104c18382815181106104a7576104a7610df1565b60200260200101518360010161081d90919063ffffffff16565b50806104cc81610e1d565b915050610489565b507fa35b66497e60321eb5acd99f32e26a2b40c0257bf1c3a9fa52173dfd719c46218260405161046b9190610d61565b6001600160e01b0319808316900361052f5760405163b0a19dd560e01b815260040160405180910390fd5b6001600160e01b03199190911660009081527ffc606c433378e3a7e0a6a531deac289b66caa1b4aa8554fd4ab2c6f1570f92d860205260409020805460ff1916911515919091179055565b60008281527fd3889cc5458b268d0544e5534672df1296288ca3f93cbd39bd6f497a5c622811602052604090206105b1908261081d565b5060405133906001600160a01b0383169084907f2f8788117e7eff1d82e926ec794901d17c78024a50270940304540a733656f0d90600090a45050565b60008281527fd3889cc5458b268d0544e5534672df1296288ca3f93cbd39bd6f497a5c6228116020526040808220600201805490849055905190918391839186917fbd79b86ffe0ab8e8776151514217cd7cacd52c909f66475c3af44e129f0b00ff9190a4505050565b600080516020610f63833981519152805460ff1916600117815561067b8361031a565b60005b82518110156106af5761069c8382815181106104a7576104a7610df1565b50806106a781610e1d565b91505061067e565b50505050565b600080516020610f63833981519152805460009190610100900460ff16156106e05750600192915050565b6106ed6001820184610832565b9392505050565b6060600080516020610f6383398151915261072e7f9fca1883cea1af9526093bc3a6f14a88fc5b5aaf6b6820bb26ccaa4c275327c5610854565b91505090565b600080516020610f6383398151915261076d7f9fca1883cea1af9526093bc3a6f14a88fc5b5aaf6b6820bb26ccaa4c275327c58361081d565b506040516001600160a01b038316907f7eb3c7851085a7c7e2aa1a622201d2fcd72a7edf43e9321c62367687b30bb76f90600090a25050565b6107b082826108ba565b61017d576107c6816001600160a01b03166108f1565b6107d1836020610903565b6040516020016107e2929190610e5a565b60408051601f198184030181529082905262461bcd60e51b825261021491600401610ecf565b60006106ed836001600160a01b038416610a56565b60006106ed836001600160a01b038416610b1b565b6001600160a01b038116600090815260018301602052604081205415156106ed565b805460408051602080840282018101909252828152606092849283929183918301828280156108ac57602002820191906000526020600020905b81546001600160a01b0316815260019091019060200180831161088e575b505050505092505050919050565b60008281527fd3889cc5458b268d0544e5534672df1296288ca3f93cbd39bd6f497a5c622811602052604081206106ed9083610832565b60606102d76001600160a01b03831660145b60606000610912836002610f02565b61091d906002610f19565b67ffffffffffffffff81111561093557610935610bc0565b6040519080825280601f01601f19166020018201604052801561095f576020820181803683370190505b509050600360fc1b8160008151811061097a5761097a610df1565b60200101906001600160f81b031916908160001a905350600f60fb1b816001815181106109a9576109a9610df1565b60200101906001600160f81b031916908160001a905350600160028402015b6001811115610a36576f181899199a1a9b1b9c1cb0b131b232b360811b85600f16601081106109f9576109f9610df1565b1a60f81b828281518110610a0f57610a0f610df1565b60200101906001600160f81b031916908160001a90535060049490941c93600019016109c8565b5083156106ed5760405163c913478560e01b815260040160405180910390fd5b60008181526001830160205260408120548015610b1457835460009085906000198101908110610a8857610a88610df1565b9060005260206000200154905080856000016001840381548110610aae57610aae610df1565b6000918252602080832090910192909255918252600186019052604090208190558354849080610ae057610ae0610f2c565b6001900381819060005260206000200160009055905583600101600084815260200190815260200160002060009055600191505b5092915050565b60008181526001830160205260408120546102d7575081546001808201845560008481526020808220909301849055845493815293810190915260409092205590565b80358015158114610b6e57600080fd5b919050565b600060208284031215610b8557600080fd5b6106ed82610b5e565b80356001600160a01b0381168114610b6e57600080fd5b600060208284031215610bb757600080fd5b6106ed82610b8e565b634e487b7160e01b600052604160045260246000fd5b600082601f830112610be757600080fd5b8135602067ffffffffffffffff80831115610c0457610c04610bc0565b8260051b604051601f19603f83011681018181108482111715610c2957610c29610bc0565b604052938452858101830193838101925087851115610c4757600080fd5b83870191505b84821015610c6d57610c5e82610b8e565b83529183019190830190610c4d565b979650505050505050565b600060208284031215610c8a57600080fd5b813567ffffffffffffffff811115610ca157600080fd5b610cad84828501610bd6565b949350505050565b600080600060608486031215610cca57600080fd5b610cd384610b8e565b9250610ce160208501610b5e565b9150604084013567ffffffffffffffff811115610cfd57600080fd5b610d0986828701610bd6565b9150509250925092565b60008060408385031215610d2657600080fd5b610d2f83610b5e565b9150602083013567ffffffffffffffff811115610d4b57600080fd5b610d5785828601610bd6565b9150509250929050565b6020808252825182820181905260009190848201906040850190845b81811015610da25783516001600160a01b031683529284019291840191600101610d7d565b50909695505050505050565b60208082526023908201527f416c6c6f776c69737446616365743a20616c726561647920696e697469616c696040820152621e995960ea1b606082015260800190565b634e487b7160e01b600052603260045260246000fd5b634e487b7160e01b600052601160045260246000fd5b600060018201610e2f57610e2f610e07565b5060010190565b60005b83811015610e51578181015183820152602001610e39565b50506000910152565b7f416363657373436f6e74726f6c3a206163636f756e7420000000000000000000815260008351610e92816017850160208801610e36565b7001034b99036b4b9b9b4b733903937b6329607d1b6017918401918201528351610ec3816028840160208801610e36565b01602801949350505050565b6020815260008251806020840152610eee816040850160208701610e36565b601f01601f19169190910160400192915050565b80820281158282048414176102d7576102d7610e07565b808201808211156102d7576102d7610e07565b634e487b7160e01b600052603160045260246000fdfe18442e22641370002622a608e197db432d3d4c113dab8ef4bf55fdc4eeed18699fca1883cea1af9526093bc3a6f14a88fc5b5aaf6b6820bb26ccaa4c275327c4a264697066735822122034941689d64def81c4b0037ac3d3f6473ac741387cfbd0e31eecab64f9b943c564736f6c63430008110033",
  "devdoc": {
    "details": "Allows owner to set an allowlist of addresses",
    "kind": "dev",
    "methods": {},
    "title": "AllowlistFacet",
    "version": 1
  },
  "userdoc": {
    "kind": "user",
    "methods": {
      "addToAllowlist(address)": {
        "notice": "Add to allowlist"
      },
      "batchAddToAllowlist(address[])": {
        "notice": "Batch add to allowlist"
      },
      "batchRemoveFromAllowlist(address[])": {
        "notice": "Batch remove from allowlist"
      },
      "getAllowlist()": {
        "notice": "Get allowlist as array"
      },
      "initializeAllowlist(address,bool,address[])": {
        "notice": "Initialize allowlist with owner"
      },
      "initializeAllowlist(bool,address[])": {
        "notice": "Initialize allowlist"
      },
      "isAllowed(address)": {
        "notice": "Check if address is allowed"
      },
      "removeFromAllowlist(address)": {
        "notice": "Remove from allowlist"
      },
      "setAllowAny(bool)": {
        "notice": "Set allow any"
      }
    },
    "version": 1
  },
  "storageLayout": {
    "storage": [],
    "types": null
  }
}