{
  "address": "0xD545fbA3f43EcA447CC7FBF41D4A8F0f575F2491",
  "abi": [
    {
      "inputs": [],
      "name": "ERC165Base__InvalidInterfaceId",
      "type": "error"
    },
    {
      "inputs": [],
      "name": "UintUtils__InsufficientHexLength",
      "type": "error"
    },
    {
      "anonymous": false,
      "inputs": [
        {
          "indexed": true,
          "internalType": "uint256",
          "name": "tokenId",
          "type": "uint256"
        },
        {
          "indexed": true,
          "internalType": "uint256",
          "name": "round",
          "type": "uint256"
        },
        {
          "indexed": true,
          "internalType": "address",
          "name": "winningBidder",
          "type": "address"
        },
        {
          "indexed": false,
          "internalType": "address",
          "name": "previousOwner",
          "type": "address"
        },
        {
          "indexed": false,
          "internalType": "uint256",
          "name": "bidAmount",
          "type": "uint256"
        }
      ],
      "name": "AuctionClosed",
      "type": "event"
    },
    {
      "anonymous": false,
      "inputs": [
        {
          "indexed": false,
          "internalType": "uint256",
          "name": "auctionLengthSeconds",
          "type": "uint256"
        }
      ],
      "name": "AuctionLengthSet",
      "type": "event"
    },
    {
      "anonymous": false,
      "inputs": [
        {
          "indexed": false,
          "internalType": "uint256",
          "name": "bidExtensionSeconds",
          "type": "uint256"
        }
      ],
      "name": "BidExtensionSet",
      "type": "event"
    },
    {
      "anonymous": false,
      "inputs": [
        {
          "indexed": false,
          "internalType": "uint256",
          "name": "bidExtensionWindowLengthSeconds",
          "type": "uint256"
        }
      ],
      "name": "BidExtensionWindowLengthSet",
      "type": "event"
    },
    {
      "anonymous": false,
      "inputs": [
        {
          "indexed": true,
          "internalType": "uint256",
          "name": "tokenId",
          "type": "uint256"
        },
        {
          "indexed": true,
          "internalType": "uint256",
          "name": "round",
          "type": "uint256"
        },
        {
          "indexed": true,
          "internalType": "address",
          "name": "bidder",
          "type": "address"
        },
        {
          "indexed": false,
          "internalType": "uint256",
          "name": "bidAmount",
          "type": "uint256"
        }
      ],
      "name": "BidPlaced",
      "type": "event"
    },
    {
      "anonymous": false,
      "inputs": [
        {
          "indexed": false,
          "internalType": "uint256",
          "name": "initialPeriodStartTime",
          "type": "uint256"
        }
      ],
      "name": "InitialPeriodStartTimeSet",
      "type": "event"
    },
    {
      "anonymous": false,
      "inputs": [
        {
          "indexed": false,
          "internalType": "uint256",
          "name": "minBidIncrement",
          "type": "uint256"
        }
      ],
      "name": "MinBidIncrementSet",
      "type": "event"
    },
    {
      "anonymous": false,
      "inputs": [
        {
          "indexed": false,
          "internalType": "address",
          "name": "repossessor",
          "type": "address"
        }
      ],
      "name": "RepossessorSet",
      "type": "event"
    },
    {
      "anonymous": false,
      "inputs": [
        {
          "indexed": true,
          "internalType": "bytes32",
          "name": "role",
          "type": "bytes32"
        },
        {
          "indexed": true,
          "internalType": "bytes32",
          "name": "previousAdminRole",
          "type": "bytes32"
        },
        {
          "indexed": true,
          "internalType": "bytes32",
          "name": "newAdminRole",
          "type": "bytes32"
        }
      ],
      "name": "RoleAdminChanged",
      "type": "event"
    },
    {
      "anonymous": false,
      "inputs": [
        {
          "indexed": true,
          "internalType": "bytes32",
          "name": "role",
          "type": "bytes32"
        },
        {
          "indexed": true,
          "internalType": "address",
          "name": "account",
          "type": "address"
        },
        {
          "indexed": true,
          "internalType": "address",
          "name": "sender",
          "type": "address"
        }
      ],
      "name": "RoleGranted",
      "type": "event"
    },
    {
      "anonymous": false,
      "inputs": [
        {
          "indexed": true,
          "internalType": "bytes32",
          "name": "role",
          "type": "bytes32"
        },
        {
          "indexed": true,
          "internalType": "address",
          "name": "account",
          "type": "address"
        },
        {
          "indexed": true,
          "internalType": "address",
          "name": "sender",
          "type": "address"
        }
      ],
      "name": "RoleRevoked",
      "type": "event"
    },
    {
      "anonymous": false,
      "inputs": [
        {
          "indexed": false,
          "internalType": "uint256",
          "name": "startingBid",
          "type": "uint256"
        }
      ],
      "name": "StartingBidSet",
      "type": "event"
    },
    {
      "inputs": [
        {
          "internalType": "uint256",
          "name": "tokenId",
          "type": "uint256"
        }
      ],
      "name": "auctionEndTime",
      "outputs": [
        {
          "internalType": "uint256",
          "name": "",
          "type": "uint256"
        }
      ],
      "stateMutability": "view",
      "type": "function"
    },
    {
      "inputs": [],
      "name": "auctionLengthSeconds",
      "outputs": [
        {
          "internalType": "uint256",
          "name": "",
          "type": "uint256"
        }
      ],
      "stateMutability": "view",
      "type": "function"
    },
    {
      "inputs": [
        {
          "internalType": "uint256",
          "name": "tokenId",
          "type": "uint256"
        }
      ],
      "name": "auctionStartTime",
      "outputs": [
        {
          "internalType": "uint256",
          "name": "",
          "type": "uint256"
        }
      ],
      "stateMutability": "view",
      "type": "function"
    },
    {
      "inputs": [
        {
          "internalType": "address",
          "name": "bidder",
          "type": "address"
        }
      ],
      "name": "availableCollateral",
      "outputs": [
        {
          "internalType": "uint256",
          "name": "",
          "type": "uint256"
        }
      ],
      "stateMutability": "view",
      "type": "function"
    },
    {
      "inputs": [],
      "name": "bidExtensionSeconds",
      "outputs": [
        {
          "internalType": "uint256",
          "name": "",
          "type": "uint256"
        }
      ],
      "stateMutability": "view",
      "type": "function"
    },
    {
      "inputs": [],
      "name": "bidExtensionWindowLengthSeconds",
      "outputs": [
        {
          "internalType": "uint256",
          "name": "",
          "type": "uint256"
        }
      ],
      "stateMutability": "view",
      "type": "function"
    },
    {
      "inputs": [
        {
          "internalType": "uint256",
          "name": "tokenId",
          "type": "uint256"
        },
        {
          "internalType": "address",
          "name": "bidder",
          "type": "address"
        }
      ],
      "name": "bidOf",
      "outputs": [
        {
          "components": [
            {
              "internalType": "address",
              "name": "bidder",
              "type": "address"
            },
            {
              "internalType": "uint256",
              "name": "bidAmount",
              "type": "uint256"
            },
            {
              "internalType": "uint256",
              "name": "feeAmount",
              "type": "uint256"
            },
            {
              "internalType": "uint256",
              "name": "collateralAmount",
              "type": "uint256"
            }
          ],
          "internalType": "struct IEnglishPeriodicAuctionInternal.Bid",
          "name": "",
          "type": "tuple"
        }
      ],
      "stateMutability": "view",
      "type": "function"
    },
    {
      "inputs": [
        {
          "internalType": "uint256",
          "name": "tokenId",
          "type": "uint256"
        },
        {
          "internalType": "uint256",
          "name": "round",
          "type": "uint256"
        },
        {
          "internalType": "address",
          "name": "bidder",
          "type": "address"
        }
      ],
      "name": "bidOf",
      "outputs": [
        {
          "components": [
            {
              "internalType": "address",
              "name": "bidder",
              "type": "address"
            },
            {
              "internalType": "uint256",
              "name": "bidAmount",
              "type": "uint256"
            },
            {
              "internalType": "uint256",
              "name": "feeAmount",
              "type": "uint256"
            },
            {
              "internalType": "uint256",
              "name": "collateralAmount",
              "type": "uint256"
            }
          ],
          "internalType": "struct IEnglishPeriodicAuctionInternal.Bid",
          "name": "",
          "type": "tuple"
        }
      ],
      "stateMutability": "view",
      "type": "function"
    },
    {
      "inputs": [
        {
          "internalType": "uint256",
          "name": "bidAmount",
          "type": "uint256"
        }
      ],
      "name": "calculateFeeFromBid",
      "outputs": [
        {
          "internalType": "uint256",
          "name": "",
          "type": "uint256"
        }
      ],
      "stateMutability": "view",
      "type": "function"
    },
    {
      "inputs": [
        {
          "internalType": "uint256",
          "name": "tokenId",
          "type": "uint256"
        }
      ],
      "name": "cancelAllBidsAndWithdrawCollateral",
      "outputs": [],
      "stateMutability": "nonpayable",
      "type": "function"
    },
    {
      "inputs": [
        {
          "internalType": "uint256",
          "name": "tokenId",
          "type": "uint256"
        },
        {
          "internalType": "uint256",
          "name": "round",
          "type": "uint256"
        }
      ],
      "name": "cancelBid",
      "outputs": [],
      "stateMutability": "nonpayable",
      "type": "function"
    },
    {
      "inputs": [
        {
          "internalType": "uint256",
          "name": "tokenId",
          "type": "uint256"
        },
        {
          "internalType": "uint256",
          "name": "round",
          "type": "uint256"
        }
      ],
      "name": "cancelBidAndWithdrawCollateral",
      "outputs": [],
      "stateMutability": "nonpayable",
      "type": "function"
    },
    {
      "inputs": [
        {
          "internalType": "uint256",
          "name": "tokenId",
          "type": "uint256"
        }
      ],
      "name": "closeAuction",
      "outputs": [],
      "stateMutability": "nonpayable",
      "type": "function"
    },
    {
      "inputs": [
        {
          "internalType": "uint256",
          "name": "tokenId",
          "type": "uint256"
        }
      ],
      "name": "currentAuctionRound",
      "outputs": [
        {
          "internalType": "uint256",
          "name": "",
          "type": "uint256"
        }
      ],
      "stateMutability": "view",
      "type": "function"
    },
    {
      "inputs": [
        {
          "internalType": "uint256",
          "name": "tokenId",
          "type": "uint256"
        },
        {
          "internalType": "uint256",
          "name": "round",
          "type": "uint256"
        }
      ],
      "name": "highestBid",
      "outputs": [
        {
          "components": [
            {
              "internalType": "address",
              "name": "bidder",
              "type": "address"
            },
            {
              "internalType": "uint256",
              "name": "bidAmount",
              "type": "uint256"
            },
            {
              "internalType": "uint256",
              "name": "feeAmount",
              "type": "uint256"
            },
            {
              "internalType": "uint256",
              "name": "collateralAmount",
              "type": "uint256"
            }
          ],
          "internalType": "struct IEnglishPeriodicAuctionInternal.Bid",
          "name": "",
          "type": "tuple"
        }
      ],
      "stateMutability": "view",
      "type": "function"
    },
    {
      "inputs": [
        {
          "internalType": "uint256",
          "name": "tokenId",
          "type": "uint256"
        }
      ],
      "name": "highestBid",
      "outputs": [
        {
          "components": [
            {
              "internalType": "address",
              "name": "bidder",
              "type": "address"
            },
            {
              "internalType": "uint256",
              "name": "bidAmount",
              "type": "uint256"
            },
            {
              "internalType": "uint256",
              "name": "feeAmount",
              "type": "uint256"
            },
            {
              "internalType": "uint256",
              "name": "collateralAmount",
              "type": "uint256"
            }
          ],
          "internalType": "struct IEnglishPeriodicAuctionInternal.Bid",
          "name": "",
          "type": "tuple"
        }
      ],
      "stateMutability": "view",
      "type": "function"
    },
    {
      "inputs": [],
      "name": "initialBidder",
      "outputs": [
        {
          "internalType": "address",
          "name": "",
          "type": "address"
        }
      ],
      "stateMutability": "view",
      "type": "function"
    },
    {
      "inputs": [],
      "name": "initialPeriodStartTime",
      "outputs": [
        {
          "internalType": "uint256",
          "name": "",
          "type": "uint256"
        }
      ],
      "stateMutability": "view",
      "type": "function"
    },
    {
      "inputs": [
        {
          "internalType": "address",
          "name": "_repossessor",
          "type": "address"
        },
        {
          "internalType": "address",
          "name": "_initialBidder",
          "type": "address"
        },
        {
          "internalType": "uint256",
          "name": "_initialPeriodStartTime",
          "type": "uint256"
        },
        {
          "internalType": "uint256",
          "name": "_initialPeriodStartTimeOffset",
          "type": "uint256"
        },
        {
          "internalType": "uint256",
          "name": "_startingBid",
          "type": "uint256"
        },
        {
          "internalType": "uint256",
          "name": "_auctionLengthSeconds",
          "type": "uint256"
        },
        {
          "internalType": "uint256",
          "name": "_minBidIncrement",
          "type": "uint256"
        },
        {
          "internalType": "uint256",
          "name": "_bidExtensionWindowLengthSeconds",
          "type": "uint256"
        },
        {
          "internalType": "uint256",
          "name": "_bidExtensionSeconds",
          "type": "uint256"
        }
      ],
      "name": "initializeAuction",
      "outputs": [],
      "stateMutability": "nonpayable",
      "type": "function"
    },
    {
      "inputs": [
        {
          "internalType": "address",
          "name": "_owner",
          "type": "address"
        },
        {
          "internalType": "address",
          "name": "_repossessor",
          "type": "address"
        },
        {
          "internalType": "address",
          "name": "_initialBidder",
          "type": "address"
        },
        {
          "internalType": "uint256",
          "name": "_initialPeriodStartTime",
          "type": "uint256"
        },
        {
          "internalType": "uint256",
          "name": "_initialPeriodStartTimeOffset",
          "type": "uint256"
        },
        {
          "internalType": "uint256",
          "name": "_startingBid",
          "type": "uint256"
        },
        {
          "internalType": "uint256",
          "name": "_auctionLengthSeconds",
          "type": "uint256"
        },
        {
          "internalType": "uint256",
          "name": "_minBidIncrement",
          "type": "uint256"
        },
        {
          "internalType": "uint256",
          "name": "_bidExtensionWindowLengthSeconds",
          "type": "uint256"
        },
        {
          "internalType": "uint256",
          "name": "_bidExtensionSeconds",
          "type": "uint256"
        }
      ],
      "name": "initializeAuction",
      "outputs": [],
      "stateMutability": "nonpayable",
      "type": "function"
    },
    {
      "inputs": [
        {
          "internalType": "uint256",
          "name": "tokenId",
          "type": "uint256"
        }
      ],
      "name": "isAuctionPeriod",
      "outputs": [
        {
          "internalType": "bool",
          "name": "",
          "type": "bool"
        }
      ],
      "stateMutability": "view",
      "type": "function"
    },
    {
      "inputs": [
        {
          "internalType": "uint256",
          "name": "tokenId",
          "type": "uint256"
        }
      ],
      "name": "isReadyForTransfer",
      "outputs": [
        {
          "internalType": "bool",
          "name": "",
          "type": "bool"
        }
      ],
      "stateMutability": "view",
      "type": "function"
    },
    {
      "inputs": [
        {
          "internalType": "uint256",
          "name": "tokenId",
          "type": "uint256"
        },
        {
          "internalType": "address",
          "name": "bidder",
          "type": "address"
        }
      ],
      "name": "lockedCollateral",
      "outputs": [
        {
          "internalType": "uint256",
          "name": "",
          "type": "uint256"
        }
      ],
      "stateMutability": "view",
      "type": "function"
    },
    {
      "inputs": [],
      "name": "minBidIncrement",
      "outputs": [
        {
          "internalType": "uint256",
          "name": "",
          "type": "uint256"
        }
      ],
      "stateMutability": "view",
      "type": "function"
    },
    {
      "inputs": [
        {
          "internalType": "uint256",
          "name": "tokenId",
          "type": "uint256"
        },
        {
          "internalType": "uint256",
          "name": "bidAmount",
          "type": "uint256"
        }
      ],
      "name": "placeBid",
      "outputs": [],
      "stateMutability": "payable",
      "type": "function"
    },
    {
      "inputs": [],
      "name": "repossessor",
      "outputs": [
        {
          "internalType": "address",
          "name": "",
          "type": "address"
        }
      ],
      "stateMutability": "view",
      "type": "function"
    },
    {
      "inputs": [
        {
          "internalType": "uint256",
          "name": "_auctionLengthSeconds",
          "type": "uint256"
        }
      ],
      "name": "setAuctionLengthSeconds",
      "outputs": [],
      "stateMutability": "nonpayable",
      "type": "function"
    },
    {
      "inputs": [
        {
          "internalType": "address",
          "name": "_repossessor",
          "type": "address"
        },
        {
          "internalType": "uint256",
          "name": "_auctionLengthSeconds",
          "type": "uint256"
        },
        {
          "internalType": "uint256",
          "name": "_minBidIncrement",
          "type": "uint256"
        },
        {
          "internalType": "uint256",
          "name": "_bidExtensionWindowLengthSeconds",
          "type": "uint256"
        },
        {
          "internalType": "uint256",
          "name": "_bidExtensionSeconds",
          "type": "uint256"
        },
        {
          "internalType": "uint256",
          "name": "_startingBid",
          "type": "uint256"
        }
      ],
      "name": "setAuctionParameters",
      "outputs": [],
      "stateMutability": "nonpayable",
      "type": "function"
    },
    {
      "inputs": [
        {
          "internalType": "uint256",
          "name": "_bidExtensionSeconds",
          "type": "uint256"
        }
      ],
      "name": "setBidExtensionSeconds",
      "outputs": [],
      "stateMutability": "nonpayable",
      "type": "function"
    },
    {
      "inputs": [
        {
          "internalType": "uint256",
          "name": "_bidExtensionWindowLengthSeconds",
          "type": "uint256"
        }
      ],
      "name": "setBidExtensionWindowLengthSeconds",
      "outputs": [],
      "stateMutability": "nonpayable",
      "type": "function"
    },
    {
      "inputs": [
        {
          "internalType": "uint256",
          "name": "_minBidIncrement",
          "type": "uint256"
        }
      ],
      "name": "setMinBidIncrement",
      "outputs": [],
      "stateMutability": "nonpayable",
      "type": "function"
    },
    {
      "inputs": [
        {
          "internalType": "address",
          "name": "_repossessor",
          "type": "address"
        }
      ],
      "name": "setRepossessor",
      "outputs": [],
      "stateMutability": "nonpayable",
      "type": "function"
    },
    {
      "inputs": [
        {
          "internalType": "uint256",
          "name": "_startingBid",
          "type": "uint256"
        }
      ],
      "name": "setStartingBid",
      "outputs": [],
      "stateMutability": "nonpayable",
      "type": "function"
    },
    {
      "inputs": [],
      "name": "startingBid",
      "outputs": [
        {
          "internalType": "uint256",
          "name": "",
          "type": "uint256"
        }
      ],
      "stateMutability": "view",
      "type": "function"
    },
    {
      "inputs": [],
      "name": "withdrawCollateral",
      "outputs": [],
      "stateMutability": "nonpayable",
      "type": "function"
    }
  ],
  "transactionHash": "0xd737c7fcd1d1d2a3c446135603bd68373c900bc73b490cfd68b881d49e51ccc1",
  "args": [],
  "numDeployments": 1,
  "solcInputHash": "7c2f2883e0da9bf3e6298a712dbf5e36",
  "bytecode": "0x608060405234801561001057600080fd5b50612af7806100206000396000f3fe6080604052600436106102045760003560e01c806359c153be11610118578063b14c63c5116100a0578063c3bab6461161006f578063c3bab646146105e1578063d529acd6146105f6578063dba85ccb14610616578063df1a65d514610636578063df6ba5c61461065657600080fd5b8063b14c63c514610582578063b9fdd569146105a2578063be6a2a6d146105b7578063bff82198146105cc57600080fd5b80636bf78d0d116100e75780636bf78d0d146104dd57806371c65bde146104fd578063777de70414610512578063868c546614610532578063a7c12c111461055257600080fd5b806359c153be146104685780635cacd7fa1461047d578063609e46fb1461049d57806361a7a226146104bd57600080fd5b8063335b115e1161019b5780633882ce8e1161016a5780633882ce8e146103d35780634b3936051461040057806355cc19ea1461042057806355ee09d71461043557806357c90de51461045557600080fd5b8063335b115e1461035e5780633553374414610373578063358498a314610393578063376a0698146103b357600080fd5b8063236ed8f3116101d7578063236ed8f3146102d057806324db4190146102f057806328e05bf11461031057806333465c5f1461033057600080fd5b80630556e9b914610209578063077bbc6d1461022b5780630842a0b21461024b57806317a6836a146102b0575b600080fd5b34801561021557600080fd5b50610229610224366004612652565b610676565b005b34801561023757600080fd5b50610229610246366004612680565b61069b565b34801561025757600080fd5b5061026b6102663660046126f5565b6106f7565b6040516102a7919081516001600160a01b0316815260208083015190820152604080830151908201526060918201519181019190915260800190565b60405180910390f35b3480156102bc57600080fd5b506102296102cb366004612717565b61074a565b3480156102dc57600080fd5b506102296102eb366004612652565b610779565b3480156102fc57600080fd5b5061022961030b366004612763565b6107ee565b34801561031c57600080fd5b5061026b61032b366004612780565b61080f565b34801561033c57600080fd5b5061035061034b366004612652565b61082a565b6040519081526020016102a7565b34801561036a57600080fd5b50610350610835565b34801561037f57600080fd5b5061035061038e366004612652565b610844565b34801561039f57600080fd5b506102296103ae3660046127b0565b61084f565b3480156103bf57600080fd5b5061026b6103ce36600461283a565b6108e5565b3480156103df57600080fd5b506103e8610938565b6040516001600160a01b0390911681526020016102a7565b34801561040c57600080fd5b5061022961041b3660046126f5565b610942565b34801561042c57600080fd5b5061035061094d565b34801561044157600080fd5b50610229610450366004612652565b610957565b6102296104633660046126f5565b610978565b34801561047457600080fd5b50610229610b4c565b34801561048957600080fd5b50610350610498366004612780565b610b57565b3480156104a957600080fd5b506102296104b8366004612652565b610b6a565b3480156104c957600080fd5b506102296104d8366004612652565b610b8b565b3480156104e957600080fd5b506102296104f8366004612652565b610bac565b34801561050957600080fd5b506103e8610bbf565b34801561051e57600080fd5b5061035061052d366004612652565b610bc9565b34801561053e57600080fd5b5061035061054d366004612652565b610bd4565b34801561055e57600080fd5b5061057261056d366004612652565b610bdf565b60405190151581526020016102a7565b34801561058e57600080fd5b5061026b61059d366004612652565b610bea565b3480156105ae57600080fd5b50610350610c42565b3480156105c357600080fd5b50610350610c4c565b3480156105d857600080fd5b50610350610c56565b3480156105ed57600080fd5b50610350610c60565b34801561060257600080fd5b50610350610611366004612763565b610c6a565b34801561062257600080fd5b50610229610631366004612652565b610c75565b34801561064257600080fd5b506102296106513660046126f5565b610c96565b34801561066257600080fd5b50610572610671366004612652565b610caa565b600080516020612aa283398151915261068e81610cb5565b61069782610cbf565b5050565b6106a3610d03565b156106c95760405162461bcd60e51b81526004016106c090612873565b60405180910390fd5b6106db631094e47960e11b6001610d16565b6106ec898989898989898989610d8c565b505050505050505050565b6106ff612621565b6107098383610dfe565b6040805160808101825282546001600160a01b0316815260018301546020820152600283015491810191909152600390910154606082015290505b92915050565b600080516020612aa283398151915261076281610cb5565b610770878787878787610e26565b50505050505050565b61078281610e64565b6107e25760405162461bcd60e51b815260206004820152602b60248201527f456e676c697368506572696f64696341756374696f6e3a2061756374696f6e2060448201526a34b9903737ba1037bb32b960a91b60648201526084016106c0565b6107eb81610ee8565b50565b600080516020612aa283398151915261080681610cb5565b610697826112ee565b610817612621565b6107098361082485611346565b84611364565b6000610744826113a1565b600061083f61147c565b905090565b600061074482611346565b610857610d03565b156108745760405162461bcd60e51b81526004016106c090612873565b610886631094e47960e11b6001610d16565b61089863aba4f05160e01b6001610d16565b6108b0600080516020612aa28339815191528b61148f565b6108c8600080516020612aa283398151915280611503565b6108d9898989898989898989610d8c565b50505050505050505050565b6108ed612621565b6108f8848484611364565b6040805160808101825282546001600160a01b03168152600183015460208201526002830154918101919091526003909101546060820152949350505050565b600061083f61156d565b61069782823361158b565b600061083f6117ee565b600080516020612aa283398151915261096f81610cb5565b61069782611801565b6109818261183e565b6109f35760405162461bcd60e51b815260206004820152603c60248201527f456e676c697368506572696f64696341756374696f6e3a2063616e206f6e6c7960448201527f20706c6163652062696420696e2061756374696f6e20706572696f640000000060648201526084016106c0565b6109fc82610e64565b15610a6f5760405162461bcd60e51b815260206004820152603d60248201527f456e676c697368506572696f64696341756374696f6e3a2061756374696f6e2060448201527f6973206f76657220616e64206177616974696e67207472616e7366657200000060648201526084016106c0565b60405163babcc53960e01b8152336004820152309063babcc53990602401602060405180830381865afa158015610aaa573d6000803e3d6000fd5b505050506040513d601f19601f82011682018060405250810190610ace91906128c3565b610b405760405162461bcd60e51b815260206004820152603a60248201527f456e676c697368506572696f64696341756374696f6e3a2073656e646572206960448201527f73206e6f7420616c6c6f77656420746f20706c6163652062696400000000000060648201526084016106c0565b610697823383346118b9565b610b5533611e4b565b565b6000610b638383611faa565b9392505050565b600080516020612aa2833981519152610b8281610cb5565b6106978261202d565b600080516020612aa2833981519152610ba381610cb5565b6106978261206a565b610bb681336120a7565b6107eb33611e4b565b600061083f612160565b60006107448261217c565b6000610744826121d8565b60006107448261183e565b610bf2612621565b610c0482610bff84611346565b610dfe565b6040805160808101825282546001600160a01b0316815260018301546020820152600283015491810191909152600390910154606082015292915050565b600061083f6122ba565b600061083f6122cd565b600061083f6122e0565b600061083f6122f3565b600061074482612306565b600080516020612aa2833981519152610c8d81610cb5565b61069782612332565b610ca182823361158b565b61069733611e4b565b600061074482610e64565b6107eb813361236f565b80610cc86123d1565b600101556040518181527f1063dc5e6f2d1c9d1cdcddf0f8ce9f8984ff1afd2df93f864e28056f5da6b01c906020015b60405180910390a150565b6000610d0d6123d1565b5460ff16919050565b6001600160e01b03198083169003610d415760405163b0a19dd560e01b815260040160405180910390fd5b6001600160e01b03199190911660009081527ffc606c433378e3a7e0a6a531deac289b66caa1b4aa8554fd4ab2c6f1570f92d860205260409020805460ff1916911515919091179055565b6000610d966123d1565b80546001600160a01b038b16610100026001600160a81b031990911617600117815560048101889055600381018990559050610dd186610cbf565b610dda8a6112ee565b610de38561206a565b610dec84611801565b610df583612332565b6108d98261202d565b6000610e086123d1565b6000938452600d016020908152604080852093855292905250902090565b610e2f866112ee565b610e388561206a565b610e4184611801565b610e4a83612332565b610e538261202d565b610e5c81610cbf565b505050505050565b6000306001600160a01b031663c4e627c26040518163ffffffff1660e01b8152600401602060405180830381865afa158015610ea4573d6000803e3d6000fd5b505050506040513d601f19601f82011682018060405250810190610ec891906128e5565b8210610ed657506000919050565b610edf8261217c565b42101592915050565b6000610ef26123d1565b6000838152600a82016020526040808220549051634f558e7960e01b815260048101869052929350913090634f558e7990602401602060405180830381865afa158015610f43573d6000803e3d6000fd5b505050506040513d601f19601f82011682018060405250810190610f6791906128c3565b15610fd3576040516331a9108f60e11b8152600481018590523090636352211e90602401602060405180830381865afa158015610fa8573d6000803e3d6000fd5b505050506040513d601f19601f82011682018060405250810190610fcc91906128fe565b9050610fe5565b50815461010090046001600160a01b03165b60008481526009840160209081526040808320429055600d860182528083208584529091529020546001600160a01b03166110b8576000848152600c8401602090815260408083208584528252808320600280880180546001600160a01b039081168752928552838620600180820188815582850189815560038085018b81559554855498166001600160a01b031998891681179095558e8b52600d8e018a52888b208d8c5290995296909820805490951690911784559554958301959095559154918101919091559154910155611131565b6000848152600d8401602090815260408083208584529091529020546001600160a01b03828116911614611131576000848152600d8401602090815260408083208584528252808320600101546001600160a01b0385168452600e8701909252822080549192909161112b908490612931565b90915550505b6000848152600d840160209081526040808320858452825291829020805460019091015483516001600160a01b03868116825293810191909152911691849187917fdae3b66c823bbdbd53155f9bb3e7693f818e957f816fe910b303fdbe7fa37dab910160405180910390a460058301546000858152600b85016020908152604080832093909355600a8601905220546111cc906001612931565b6000858152600a85016020908152604080832093909355600d86018152828220858352905281902054905163e31a7c0160e01b81526001600160a01b038084166004830152909116602482015260448101859052309063e31a7c0190606401600060405180830381600087803b15801561124557600080fd5b505af1158015611259573d6000803e3d6000fd5b5050506000858152600d8501602090815260408083208684529091529020600201541590506112e8576000848152600d84016020908152604080832085845290915280822060020154815163e4fc6b6d60e01b81529151309363e4fc6b6d936004808201939182900301818588803b1580156112d457600080fd5b505af11580156106ec573d6000803e3d6000fd5b50505050565b806112f76123d1565b60020180546001600160a01b0319166001600160a01b0392831617905560405190821681527f03bb52851d1b668acbe31ec6258d6de44a14c1dc0d9db84ab95e8071f5aa989d90602001610cf8565b60006113506123d1565b6000928352600a0160205250604090205490565b600061136e6123d1565b6000948552600c01602090815260408086209486529381528385206001600160a01b039390931685529190915250902090565b6000806113ac6123d1565b90506000306001600160a01b031663fd8e6f286040518163ffffffff1660e01b8152600401602060405180830381865afa1580156113ee573d6000803e3d6000fd5b505050506040513d601f19601f8201168201806040525081019061141291906128e5565b60038301546000868152600985016020526040902054919250101561145457600084815260098301602052604090205461144d908290612931565b9250611475565b60048201546114639085612944565b82600301546114729190612931565b92505b5050919050565b60006114866123d1565b60060154905090565b60008281527fd3889cc5458b268d0544e5534672df1296288ca3f93cbd39bd6f497a5c622811602052604090206114c690826123f5565b5060405133906001600160a01b0383169084907f2f8788117e7eff1d82e926ec794901d17c78024a50270940304540a733656f0d90600090a45050565b60008281527fd3889cc5458b268d0544e5534672df1296288ca3f93cbd39bd6f497a5c6228116020526040808220600201805490849055905190918391839186917fbd79b86ffe0ab8e8776151514217cd7cacd52c909f66475c3af44e129f0b00ff9190a4505050565b60006115776123d1565b5461010090046001600160a01b0316919050565b60006115956123d1565b604051634f558e7960e01b8152600481018690529091506000903090634f558e7990602401602060405180830381865afa1580156115d7573d6000803e3d6000fd5b505050506040513d601f19601f820116820180604052508101906115fb91906128c3565b15611667576040516331a9108f60e11b8152600481018690523090636352211e90602401602060405180830381865afa15801561163c573d6000803e3d6000fd5b505050506040513d601f19601f8201168201806040525081019061166091906128fe565b9050611679565b50805461010090046001600160a01b03165b6000858152600d8301602090815260408083208784529091529020546001600160a01b03908116908416036117165760405162461bcd60e51b815260206004820152603b60248201527f456e676c697368506572696f64696341756374696f6e3a2043616e6e6f74206360448201527f616e63656c20626964206966206869676865737420626964646572000000000060648201526084016106c0565b6000858152600c83016020908152604080832087845282528083206001600160a01b0387168452909152902060038101546117a45760405162461bcd60e51b815260206004820152602860248201527f456e676c697368506572696f64696341756374696f6e3a204e6f2062696420746044820152671bc818d85b98d95b60c21b60648201526084016106c0565b60038101546001600160a01b0385166000908152600e85016020526040812080549091906117d3908490612931565b90915550506000600382018190556001909101555050505050565b60006117f86123d1565b60070154905090565b8061180a6123d1565b600601556040518181527f8092df692524f6b78c4746150cae83effcfd6b470cc0038f09a603d42a32388e90602001610cf8565b6000306001600160a01b031663c4e627c26040518163ffffffff1660e01b8152600401602060405180830381865afa15801561187e573d6000803e3d6000fd5b505050506040513d601f19601f820116820180604052508101906118a291906128e5565b82106118b057506000919050565b610edf826113a1565b60006118c36123d1565b6000868152600a82016020908152604080832054600c8501835281842081855283528184206001600160a01b038a168552909252909120600183015492935090918510156119925760405162461bcd60e51b815260206004820152605060248201527f456e676c697368506572696f64696341756374696f6e3a2042696420616d6f7560448201527f6e74206d7573742062652067726561746572207468616e206f7220657175616c60648201526f081d1bc81cdd185c9d1a5b99c8189a5960821b608482015260a4016106c0565b6000878152600d84016020908152604080832085845290915290206001015415611a715760068301546000888152600d8501602090815260408083208684529091529020600101546119e49190612931565b851015611a715760405162461bcd60e51b815260206004820152604f60248201527f456e676c697368506572696f64696341756374696f6e3a2042696420616d6f7560448201527f6e74206d7573742062652067726561746572207468616e20686967686573742060648201526e1bdd5d1cdd185b991a5b99c8189a59608a1b608482015260a4016106c0565b6000848260030154611a839190612931565b604051634f558e7960e01b8152600481018a905290915060009081903090634f558e7990602401602060405180830381865afa158015611ac7573d6000803e3d6000fd5b505050506040513d601f19601f82011682018060405250810190611aeb91906128c3565b15611b57576040516331a9108f60e11b8152600481018b90523090636352211e90602401602060405180830381865afa158015611b2c573d6000803e3d6000fd5b505050506040513d601f19601f82011682018060405250810190611b5091906128fe565b9050611b69565b50845461010090046001600160a01b03165b806001600160a01b0316896001600160a01b031603611b8a57829150611c18565b878311611c0b5760405162461bcd60e51b815260206004820152604360248201527f456e676c697368506572696f64696341756374696f6e3a20436f6c6c6174657260448201527f616c206d7573742062652067726561746572207468616e2063757272656e7420606482015262189a5960ea1b608482015260a4016106c0565b611c15888461295b565b91505b611c22888361240a565b611c835760405162461bcd60e51b815260206004820152602c60248201527f456e676c697368506572696f64696341756374696f6e3a20496e636f7272656360448201526b1d08189a5908185b5bdd5b9d60a21b60648201526084016106c0565b888460000160006101000a8154816001600160a01b0302191690836001600160a01b031602179055508784600101819055508184600201819055508284600301819055508386600d0160008c815260200190815260200160002060008781526020019081526020016000206000820160009054906101000a90046001600160a01b03168160000160006101000a8154816001600160a01b0302191690836001600160a01b031602179055506001820154816001015560028201548160020155600382015481600301559050508360000160009054906101000a90046001600160a01b03166001600160a01b0316858b7f6f7e354ea3ab5c288aea37fce29c603f9a98a3b040f6d8f32f10e192ec47ff6a8760010154604051611da791815260200190565b60405180910390a46000611dba8b61217c565b9050428110158015611ddb5750611dcf6117ee565b611dd9428361295b565b105b15611e3e5760008b8152600b880160205260408120548103611e0657611dff6122f3565b9050611e19565b5060008b8152600b880160205260409020545b611e216122e0565b611e2b9082612931565b60008d8152600b8a016020526040902055505b5050505050505050505050565b6000611e556123d1565b6001600160a01b0383166000908152600e8201602052604090205490915080611eda5760405162461bcd60e51b815260206004820152603160248201527f456e676c697368506572696f64696341756374696f6e3a204e6f20636f6c6c61604482015270746572616c20746f20776974686472617760781b60648201526084016106c0565b6001600160a01b0383166000818152600e840160205260408082208290555190919083908381818185875af1925050503d8060008114611f36576040519150601f19603f3d011682016040523d82523d6000602084013e611f3b565b606091505b50509050806112e85760405162461bcd60e51b815260206004820152603560248201527f456e676c697368506572696f64696341756374696f6e3a204661696c656420746044820152741bc81dda5d1a191c985dc818dbdb1b185d195c985b605a1b60648201526084016106c0565b600080611fb56123d1565b6000858152600a82016020526040812054919250805b828111612023576000878152600c85016020908152604080832084845282528083206001600160a01b038a1684529091529020600381015461200d9084612931565b925050808061201b9061296e565b915050611fcb565b5095945050505050565b806120366123d1565b600801556040518181527f33178f49ae33ce72b1c9e38d72f4ae326b490e4e7c9e02b8735a9ceacf770dee90602001610cf8565b806120736123d1565b600501556040518181527f99578d7fe3e20e279feceaa076eb8032d475ca1a49391ec0a740445152a5971390602001610cf8565b60006120b16123d1565b6000848152600a820160205260408120549192505b818111612159576000858152600c84016020908152604080832084845282528083206001600160a01b038816845290915290206003810154156121465760038101546001600160a01b0386166000908152600e8601602052604081208054909190612132908490612931565b909155505060006003820181905560018201555b50806121518161296e565b9150506120c6565b5050505050565b600061216a6123d1565b600201546001600160a01b0316919050565b6000806121876123d1565b6000848152600b820160205260408120549192509081036121b1576121aa6122f3565b90506121c4565b506000838152600b820160205260409020545b806121ce856113a1565b6114729190612931565b600080306001600160a01b031663e86dea4a6040518163ffffffff1660e01b8152600401602060405180830381865afa158015612219573d6000803e3d6000fd5b505050506040513d601f19601f8201168201806040525081019061223d91906128e5565b90506000306001600160a01b031663180b0d7e6040518163ffffffff1660e01b8152600401602060405180830381865afa15801561227f573d6000803e3d6000fd5b505050506040513d601f19601f820116820180604052508101906122a391906128e5565b9050806122b08386612944565b6114729190612987565b60006122c46123d1565b60010154905090565b60006122d76123d1565b60030154905090565b60006122ea6123d1565b60080154905090565b60006122fd6123d1565b60050154905090565b60006123106123d1565b6001600160a01b039092166000908152600e9290920160205250604090205490565b8061233b6123d1565b600701556040518181527f19ba737fa8db769049b6dafc98d3391bdead47e7f6617113c775efbed1efc6f990602001610cf8565b6123798282612420565b6106975761238f816001600160a01b0316612479565b61239a83602061248b565b6040516020016123ab9291906129cd565b60408051601f198184030181529082905262461bcd60e51b82526106c091600401612a42565b7fc7ed1b841b2d3c7f16d15642e7b013e89732e44006608d59c7547b8e331a7ce090565b6000610b63836001600160a01b0384166125de565b600080612416846121d8565b9092149392505050565b6000610b63827fd3889cc5458b268d0544e5534672df1296288ca3f93cbd39bd6f497a5c622811600086815260209190915260409020906001600160a01b03811660009081526001830160205260408120541515610b63565b60606107446001600160a01b03831660145b6060600061249a836002612944565b6124a5906002612931565b67ffffffffffffffff8111156124bd576124bd612a75565b6040519080825280601f01601f1916602001820160405280156124e7576020820181803683370190505b509050600360fc1b8160008151811061250257612502612a8b565b60200101906001600160f81b031916908160001a905350600f60fb1b8160018151811061253157612531612a8b565b60200101906001600160f81b031916908160001a905350600160028402015b60018111156125be576f181899199a1a9b1b9c1cb0b131b232b360811b85600f166010811061258157612581612a8b565b1a60f81b82828151811061259757612597612a8b565b60200101906001600160f81b031916908160001a90535060049490941c9360001901612550565b508315610b635760405163c913478560e01b815260040160405180910390fd5b6000818152600183016020526040812054610744575081546001808201845560008481526020808220909301849055845493815293810190915260409092205590565b604051806080016040528060006001600160a01b031681526020016000815260200160008152602001600081525090565b60006020828403121561266457600080fd5b5035919050565b6001600160a01b03811681146107eb57600080fd5b60008060008060008060008060006101208a8c03121561269f57600080fd5b89356126aa8161266b565b985060208a01356126ba8161266b565b989b989a505050506040870135966060810135966080820135965060a0820135955060c0820135945060e08201359350610100909101359150565b6000806040838503121561270857600080fd5b50508035926020909101359150565b60008060008060008060c0878903121561273057600080fd5b863561273b8161266b565b9860208801359850604088013597606081013597506080810135965060a00135945092505050565b60006020828403121561277557600080fd5b8135610b638161266b565b6000806040838503121561279357600080fd5b8235915060208301356127a58161266b565b809150509250929050565b6000806000806000806000806000806101408b8d0312156127d057600080fd5b8a356127db8161266b565b995060208b01356127eb8161266b565b985060408b01356127fb8161266b565b999c989b5098996060810135995060808101359860a0820135985060c0820135975060e082013596506101008201359550610120909101359350915050565b60008060006060848603121561284f57600080fd5b833592506020840135915060408401356128688161266b565b809150509250925092565b60208082526030908201527f456e676c697368506572696f64696341756374696f6e46616365743a20616c7260408201526f1958591e481a5b9a5d1a585b1a5e995960821b606082015260800190565b6000602082840312156128d557600080fd5b81518015158114610b6357600080fd5b6000602082840312156128f757600080fd5b5051919050565b60006020828403121561291057600080fd5b8151610b638161266b565b634e487b7160e01b600052601160045260246000fd5b808201808211156107445761074461291b565b80820281158282048414176107445761074461291b565b818103818111156107445761074461291b565b6000600182016129805761298061291b565b5060010190565b6000826129a457634e487b7160e01b600052601260045260246000fd5b500490565b60005b838110156129c45781810151838201526020016129ac565b50506000910152565b7f416363657373436f6e74726f6c3a206163636f756e7420000000000000000000815260008351612a058160178501602088016129a9565b7001034b99036b4b9b9b4b733903937b6329607d1b6017918401918201528351612a368160288401602088016129a9565b01602801949350505050565b6020815260008251806020840152612a618160408501602087016129a9565b601f01601f19169190910160400192915050565b634e487b7160e01b600052604160045260246000fd5b634e487b7160e01b600052603260045260246000fdfe27d47e2aa570d0f5aa1d72abbe4d60032a12e3514b8c2bc8a49a9968779054c2a264697066735822122087893b0f1423fbaebc9384f86087e98ed366c81f869a88805b5261274e9aeb1c64736f6c63430008110033",
  "devdoc": {
    "kind": "dev",
    "methods": {},
    "title": "EnglishPeriodicAuctionFacet",
    "version": 1
  },
  "userdoc": {
    "kind": "user",
    "methods": {
      "auctionEndTime(uint256)": {
        "notice": "Get auction end time"
      },
      "auctionLengthSeconds()": {
        "notice": "Get auction length"
      },
      "auctionStartTime(uint256)": {
        "notice": "Get auction start time"
      },
      "availableCollateral(address)": {
        "notice": "Get available collateral"
      },
      "bidExtensionSeconds()": {
        "notice": "Get bid extension seconds"
      },
      "bidExtensionWindowLengthSeconds()": {
        "notice": "Get bid extension window length"
      },
      "bidOf(uint256,address)": {
        "notice": "Get bid for address"
      },
      "bidOf(uint256,uint256,address)": {
        "notice": "Get bid for address for particular round"
      },
      "calculateFeeFromBid(uint256)": {
        "notice": "Calculate fee from bid"
      },
      "cancelAllBidsAndWithdrawCollateral(uint256)": {
        "notice": "Cancel all bids and withdraw collateral"
      },
      "cancelBid(uint256,uint256)": {
        "notice": "Cancel bid for current round"
      },
      "cancelBidAndWithdrawCollateral(uint256,uint256)": {
        "notice": "Cancel bid for current round and withdraw collateral"
      },
      "closeAuction(uint256)": {
        "notice": "Close auction and trigger a transfer to the highest bidder"
      },
      "currentAuctionRound(uint256)": {
        "notice": "Get current auction round"
      },
      "highestBid(uint256)": {
        "notice": "Get highest outstanding bid"
      },
      "highestBid(uint256,uint256)": {
        "notice": "Get highest outstanding bid for a particular round"
      },
      "initialBidder()": {
        "notice": "Get initial bidder"
      },
      "initialPeriodStartTime()": {
        "notice": "Get initial period start time"
      },
      "initializeAuction(address,address,address,uint256,uint256,uint256,uint256,uint256,uint256,uint256)": {
        "notice": "Initialize auction parameters with owner"
      },
      "initializeAuction(address,address,uint256,uint256,uint256,uint256,uint256,uint256,uint256)": {
        "notice": "Initialize auction parameters"
      },
      "isAuctionPeriod(uint256)": {
        "notice": "Get is auction period"
      },
      "isReadyForTransfer(uint256)": {
        "notice": "Is token ready for transfer"
      },
      "lockedCollateral(uint256,address)": {
        "notice": "Get locked collateral from all bids"
      },
      "minBidIncrement()": {
        "notice": "Get minimum bid increment"
      },
      "placeBid(uint256,uint256)": {
        "notice": "Place a bid"
      },
      "repossessor()": {
        "notice": "Get repossessor"
      },
      "setAuctionLengthSeconds(uint256)": {
        "notice": "Set auction length"
      },
      "setAuctionParameters(address,uint256,uint256,uint256,uint256,uint256)": {
        "notice": "Set auction parameters"
      },
      "setBidExtensionSeconds(uint256)": {
        "notice": "Set bid extension seconds"
      },
      "setBidExtensionWindowLengthSeconds(uint256)": {
        "notice": "Set bid extension window length"
      },
      "setMinBidIncrement(uint256)": {
        "notice": "Set minimum bid increment"
      },
      "setRepossessor(address)": {
        "notice": "Set repossessor"
      },
      "setStartingBid(uint256)": {
        "notice": "Set starting bid"
      },
      "startingBid()": {
        "notice": "Get starting bid"
      },
      "withdrawCollateral()": {
        "notice": "Withdraw collateral"
      }
    },
    "version": 1
  },
  "storageLayout": {
    "storage": [],
    "types": null
  }
}