{
  "address": "0x083B29783A15c1207428D9A382Eaa7557D0E6A82",
  "abi": [
    {
      "inputs": [],
      "name": "AddressUtils__NotContract",
      "type": "error"
    },
    {
      "inputs": [],
      "name": "ERC165Base__InvalidInterfaceId",
      "type": "error"
    },
    {
      "inputs": [],
      "name": "ERC721Base__BalanceQueryZeroAddress",
      "type": "error"
    },
    {
      "inputs": [],
      "name": "ERC721Base__ERC721ReceiverNotImplemented",
      "type": "error"
    },
    {
      "inputs": [],
      "name": "ERC721Base__InvalidOwner",
      "type": "error"
    },
    {
      "inputs": [],
      "name": "ERC721Base__MintToZeroAddress",
      "type": "error"
    },
    {
      "inputs": [],
      "name": "ERC721Base__NonExistentToken",
      "type": "error"
    },
    {
      "inputs": [],
      "name": "ERC721Base__NotOwnerOrApproved",
      "type": "error"
    },
    {
      "inputs": [],
      "name": "ERC721Base__NotTokenOwner",
      "type": "error"
    },
    {
      "inputs": [],
      "name": "ERC721Base__SelfApproval",
      "type": "error"
    },
    {
      "inputs": [],
      "name": "ERC721Base__TokenAlreadyMinted",
      "type": "error"
    },
    {
      "inputs": [],
      "name": "ERC721Base__TransferToZeroAddress",
      "type": "error"
    },
    {
      "inputs": [],
      "name": "ERC721Metadata__NonExistentToken",
      "type": "error"
    },
    {
      "inputs": [],
      "name": "EnumerableMap__IndexOutOfBounds",
      "type": "error"
    },
    {
      "inputs": [],
      "name": "EnumerableMap__NonExistentKey",
      "type": "error"
    },
    {
      "inputs": [],
      "name": "EnumerableSet__IndexOutOfBounds",
      "type": "error"
    },
    {
      "inputs": [],
      "name": "UintUtils__InsufficientHexLength",
      "type": "error"
    },
    {
      "anonymous": false,
      "inputs": [
        {
          "indexed": true,
          "internalType": "address",
          "name": "owner",
          "type": "address"
        },
        {
          "indexed": true,
          "internalType": "address",
          "name": "operator",
          "type": "address"
        },
        {
          "indexed": true,
          "internalType": "uint256",
          "name": "tokenId",
          "type": "uint256"
        }
      ],
      "name": "Approval",
      "type": "event"
    },
    {
      "anonymous": false,
      "inputs": [
        {
          "indexed": true,
          "internalType": "address",
          "name": "owner",
          "type": "address"
        },
        {
          "indexed": true,
          "internalType": "address",
          "name": "operator",
          "type": "address"
        },
        {
          "indexed": false,
          "internalType": "bool",
          "name": "approved",
          "type": "bool"
        }
      ],
      "name": "ApprovalForAll",
      "type": "event"
    },
    {
      "anonymous": false,
      "inputs": [
        {
          "indexed": true,
          "internalType": "bytes32",
          "name": "role",
          "type": "bytes32"
        },
        {
          "indexed": true,
          "internalType": "bytes32",
          "name": "previousAdminRole",
          "type": "bytes32"
        },
        {
          "indexed": true,
          "internalType": "bytes32",
          "name": "newAdminRole",
          "type": "bytes32"
        }
      ],
      "name": "RoleAdminChanged",
      "type": "event"
    },
    {
      "anonymous": false,
      "inputs": [
        {
          "indexed": true,
          "internalType": "bytes32",
          "name": "role",
          "type": "bytes32"
        },
        {
          "indexed": true,
          "internalType": "address",
          "name": "account",
          "type": "address"
        },
        {
          "indexed": true,
          "internalType": "address",
          "name": "sender",
          "type": "address"
        }
      ],
      "name": "RoleGranted",
      "type": "event"
    },
    {
      "anonymous": false,
      "inputs": [
        {
          "indexed": true,
          "internalType": "bytes32",
          "name": "role",
          "type": "bytes32"
        },
        {
          "indexed": true,
          "internalType": "address",
          "name": "account",
          "type": "address"
        },
        {
          "indexed": true,
          "internalType": "address",
          "name": "sender",
          "type": "address"
        }
      ],
      "name": "RoleRevoked",
      "type": "event"
    },
    {
      "anonymous": false,
      "inputs": [
        {
          "indexed": true,
          "internalType": "address",
          "name": "from",
          "type": "address"
        },
        {
          "indexed": true,
          "internalType": "address",
          "name": "to",
          "type": "address"
        },
        {
          "indexed": true,
          "internalType": "uint256",
          "name": "tokenId",
          "type": "uint256"
        }
      ],
      "name": "Transfer",
      "type": "event"
    },
    {
      "inputs": [
        {
          "internalType": "address",
          "name": "to",
          "type": "address"
        },
        {
          "internalType": "string",
          "name": "tokenURI",
          "type": "string"
        }
      ],
      "name": "addTokenToCollection",
      "outputs": [],
      "stateMutability": "nonpayable",
      "type": "function"
    },
    {
      "inputs": [
        {
          "internalType": "string[]",
          "name": "tokenURIs",
          "type": "string[]"
        },
        {
          "internalType": "bool",
          "name": "shouldMint",
          "type": "bool"
        }
      ],
      "name": "addTokensToCollection",
      "outputs": [],
      "stateMutability": "nonpayable",
      "type": "function"
    },
    {
      "inputs": [
        {
          "internalType": "address[]",
          "name": "to",
          "type": "address[]"
        },
        {
          "internalType": "string[]",
          "name": "tokenURIs",
          "type": "string[]"
        }
      ],
      "name": "addTokensToCollection",
      "outputs": [],
      "stateMutability": "nonpayable",
      "type": "function"
    },
    {
      "inputs": [
        {
          "internalType": "uint32",
          "name": "amount",
          "type": "uint32"
        },
        {
          "internalType": "string",
          "name": "baseURI",
          "type": "string"
        },
        {
          "internalType": "bool",
          "name": "shouldMint",
          "type": "bool"
        }
      ],
      "name": "addTokensWithBaseURIToCollection",
      "outputs": [],
      "stateMutability": "nonpayable",
      "type": "function"
    },
    {
      "inputs": [
        {
          "internalType": "address",
          "name": "operator",
          "type": "address"
        },
        {
          "internalType": "uint256",
          "name": "tokenId",
          "type": "uint256"
        }
      ],
      "name": "approve",
      "outputs": [],
      "stateMutability": "payable",
      "type": "function"
    },
    {
      "inputs": [
        {
          "internalType": "address",
          "name": "account",
          "type": "address"
        }
      ],
      "name": "balanceOf",
      "outputs": [
        {
          "internalType": "uint256",
          "name": "",
          "type": "uint256"
        }
      ],
      "stateMutability": "view",
      "type": "function"
    },
    {
      "inputs": [
        {
          "internalType": "uint256",
          "name": "tokenId",
          "type": "uint256"
        }
      ],
      "name": "exists",
      "outputs": [
        {
          "internalType": "bool",
          "name": "",
          "type": "bool"
        }
      ],
      "stateMutability": "view",
      "type": "function"
    },
    {
      "inputs": [
        {
          "internalType": "uint256",
          "name": "tokenId",
          "type": "uint256"
        }
      ],
      "name": "getApproved",
      "outputs": [
        {
          "internalType": "address",
          "name": "",
          "type": "address"
        }
      ],
      "stateMutability": "view",
      "type": "function"
    },
    {
      "inputs": [
        {
          "internalType": "address",
          "name": "_minter",
          "type": "address"
        },
        {
          "internalType": "address",
          "name": "_addToCollectionMinter",
          "type": "address"
        },
        {
          "internalType": "address",
          "name": "_steward",
          "type": "address"
        },
        {
          "internalType": "uint256",
          "name": "_maxTokenCount",
          "type": "uint256"
        },
        {
          "internalType": "bool",
          "name": "shouldMint",
          "type": "bool"
        },
        {
          "internalType": "string",
          "name": "name",
          "type": "string"
        },
        {
          "internalType": "string",
          "name": "symbol",
          "type": "string"
        },
        {
          "internalType": "string",
          "name": "baseURI",
          "type": "string"
        }
      ],
      "name": "initializeStewardLicense",
      "outputs": [],
      "stateMutability": "nonpayable",
      "type": "function"
    },
    {
      "inputs": [
        {
          "internalType": "address",
          "name": "account",
          "type": "address"
        },
        {
          "internalType": "address",
          "name": "operator",
          "type": "address"
        }
      ],
      "name": "isApprovedForAll",
      "outputs": [
        {
          "internalType": "bool",
          "name": "",
          "type": "bool"
        }
      ],
      "stateMutability": "view",
      "type": "function"
    },
    {
      "inputs": [],
      "name": "maxTokenCount",
      "outputs": [
        {
          "internalType": "uint256",
          "name": "",
          "type": "uint256"
        }
      ],
      "stateMutability": "view",
      "type": "function"
    },
    {
      "inputs": [
        {
          "internalType": "address",
          "name": "to",
          "type": "address"
        },
        {
          "internalType": "uint256",
          "name": "tokenId",
          "type": "uint256"
        }
      ],
      "name": "mintToken",
      "outputs": [],
      "stateMutability": "nonpayable",
      "type": "function"
    },
    {
      "inputs": [],
      "name": "minter",
      "outputs": [
        {
          "internalType": "address",
          "name": "",
          "type": "address"
        }
      ],
      "stateMutability": "view",
      "type": "function"
    },
    {
      "inputs": [],
      "name": "name",
      "outputs": [
        {
          "internalType": "string",
          "name": "",
          "type": "string"
        }
      ],
      "stateMutability": "view",
      "type": "function"
    },
    {
      "inputs": [
        {
          "internalType": "uint256",
          "name": "tokenId",
          "type": "uint256"
        }
      ],
      "name": "ownerOf",
      "outputs": [
        {
          "internalType": "address",
          "name": "",
          "type": "address"
        }
      ],
      "stateMutability": "view",
      "type": "function"
    },
    {
      "inputs": [
        {
          "internalType": "address",
          "name": "from",
          "type": "address"
        },
        {
          "internalType": "address",
          "name": "to",
          "type": "address"
        },
        {
          "internalType": "uint256",
          "name": "tokenId",
          "type": "uint256"
        }
      ],
      "name": "safeTransferFrom",
      "outputs": [],
      "stateMutability": "payable",
      "type": "function"
    },
    {
      "inputs": [
        {
          "internalType": "address",
          "name": "from",
          "type": "address"
        },
        {
          "internalType": "address",
          "name": "to",
          "type": "address"
        },
        {
          "internalType": "uint256",
          "name": "tokenId",
          "type": "uint256"
        },
        {
          "internalType": "bytes",
          "name": "data",
          "type": "bytes"
        }
      ],
      "name": "safeTransferFrom",
      "outputs": [],
      "stateMutability": "payable",
      "type": "function"
    },
    {
      "inputs": [
        {
          "internalType": "address",
          "name": "operator",
          "type": "address"
        },
        {
          "internalType": "bool",
          "name": "status",
          "type": "bool"
        }
      ],
      "name": "setApprovalForAll",
      "outputs": [],
      "stateMutability": "nonpayable",
      "type": "function"
    },
    {
      "inputs": [
        {
          "internalType": "bytes4",
          "name": "interfaceId",
          "type": "bytes4"
        }
      ],
      "name": "supportsInterface",
      "outputs": [
        {
          "internalType": "bool",
          "name": "",
          "type": "bool"
        }
      ],
      "stateMutability": "view",
      "type": "function"
    },
    {
      "inputs": [],
      "name": "symbol",
      "outputs": [
        {
          "internalType": "string",
          "name": "",
          "type": "string"
        }
      ],
      "stateMutability": "view",
      "type": "function"
    },
    {
      "inputs": [
        {
          "internalType": "uint256",
          "name": "index",
          "type": "uint256"
        }
      ],
      "name": "tokenByIndex",
      "outputs": [
        {
          "internalType": "uint256",
          "name": "",
          "type": "uint256"
        }
      ],
      "stateMutability": "view",
      "type": "function"
    },
    {
      "inputs": [
        {
          "internalType": "address",
          "name": "owner",
          "type": "address"
        },
        {
          "internalType": "uint256",
          "name": "index",
          "type": "uint256"
        }
      ],
      "name": "tokenOfOwnerByIndex",
      "outputs": [
        {
          "internalType": "uint256",
          "name": "",
          "type": "uint256"
        }
      ],
      "stateMutability": "view",
      "type": "function"
    },
    {
      "inputs": [
        {
          "internalType": "uint256",
          "name": "tokenId",
          "type": "uint256"
        }
      ],
      "name": "tokenURI",
      "outputs": [
        {
          "internalType": "string",
          "name": "",
          "type": "string"
        }
      ],
      "stateMutability": "view",
      "type": "function"
    },
    {
      "inputs": [],
      "name": "totalSupply",
      "outputs": [
        {
          "internalType": "uint256",
          "name": "",
          "type": "uint256"
        }
      ],
      "stateMutability": "view",
      "type": "function"
    },
    {
      "inputs": [
        {
          "internalType": "address",
          "name": "from",
          "type": "address"
        },
        {
          "internalType": "address",
          "name": "to",
          "type": "address"
        },
        {
          "internalType": "uint256",
          "name": "tokenId",
          "type": "uint256"
        }
      ],
      "name": "transferFrom",
      "outputs": [],
      "stateMutability": "payable",
      "type": "function"
    },
    {
      "inputs": [
        {
          "internalType": "address",
          "name": "from",
          "type": "address"
        },
        {
          "internalType": "address",
          "name": "to",
          "type": "address"
        },
        {
          "internalType": "uint256",
          "name": "tokenId",
          "type": "uint256"
        }
      ],
      "name": "triggerTransfer",
      "outputs": [],
      "stateMutability": "nonpayable",
      "type": "function"
    }
  ],
  "transactionHash": "0xbd57733d4d3a91a4e5f185124c25e2b4d61baa7b89afc7473de251f7903ad9c0",
  "args": [],
  "numDeployments": 1,
  "solcInputHash": "7c2f2883e0da9bf3e6298a712dbf5e36",
  "bytecode": "0x608060405234801561001057600080fd5b50612d3a806100206000396000f3fe6080604052600436106101815760003560e01c80634f6ccce7116100d1578063a22cb4651161008a578063c87b56dd11610064578063c87b56dd14610425578063d111122f14610445578063e31a7c0114610465578063e985e9c51461048557600080fd5b8063a22cb465146103dd578063b88d4fde146103fd578063c4e627c21461041057600080fd5b80634f6ccce7146103285780636352211e146103485780636a2e019f1461036857806370a082311461038857806379c65068146103a857806395d89b41146103c857600080fd5b80632107ddfe1161013e57806342842e0e1161011857806342842e0e146102b557806347e1cc25146102c85780634a7c554f146102e85780634f558e791461030857600080fd5b80632107ddfe1461026257806323b872dd146102825780632f745c591461029557600080fd5b806301ffc9a71461018657806306fdde03146101bb57806307546172146101dd578063081812fc1461020a578063095ea7b31461022a57806318160ddd1461023f575b600080fd5b34801561019257600080fd5b506101a66101a1366004612223565b6104a5565b60405190151581526020015b60405180910390f35b3480156101c757600080fd5b506101d06104e8565b6040516101b29190612290565b3480156101e957600080fd5b506101f26104f7565b6040516001600160a01b0390911681526020016101b2565b34801561021657600080fd5b506101f26102253660046122a3565b61052a565b61023d6102383660046122e1565b610535565b005b34801561024b57600080fd5b506102546105c1565b6040519081526020016101b2565b34801561026e57600080fd5b5061023d61027d366004612495565b6105cb565b61023d6102903660046124e6565b61065c565b3480156102a157600080fd5b506102546102b03660046122e1565b61068e565b61023d6102c33660046124e6565b6106a1565b3480156102d457600080fd5b5061023d6102e3366004612527565b6106bc565b3480156102f457600080fd5b5061023d6103033660046125fb565b61074c565b34801561031457600080fd5b506101a66103233660046122a3565b610820565b34801561033457600080fd5b506102546103433660046122a3565b61082b565b34801561035457600080fd5b506101f26103633660046122a3565b610836565b34801561037457600080fd5b5061023d6103833660046126bc565b610841565b34801561039457600080fd5b506102546103a3366004612701565b610863565b3480156103b457600080fd5b5061023d6103c33660046122e1565b61086e565b3480156103d457600080fd5b506101d0610aa6565b3480156103e957600080fd5b5061023d6103f836600461271e565b610ab0565b61023d61040b36600461274c565b610b64565b34801561041c57600080fd5b50610254610b97565b34801561043157600080fd5b506101d06104403660046122a3565b610baf565b34801561045157600080fd5b5061023d6104603660046127cb565b610bba565b34801561047157600080fd5b5061023d6104803660046124e6565b610c0c565b34801561049157600080fd5b506101a66104a0366004612837565b610ca1565b6001600160e01b0319811660009081527ffc606c433378e3a7e0a6a531deac289b66caa1b4aa8554fd4ab2c6f1570f92d8602052604081205460ff165b92915050565b60606104f2610cad565b905090565b60006104f27f79ec1734da2430052e9d78936f451aad707e5bed12ef4806b06dc3d0c38f0e31546001600160a01b031690565b60006104e282610d4c565b600061054082610836565b9050806001600160a01b0316836001600160a01b0316036105745760405163424a22cb60e01b815260040160405180910390fd5b336001600160a01b0382161480159061059457506105928133610ca1565b155b156105b257604051632f5de44f60e01b815260040160405180910390fd5b6105bc8383610daf565b505050565b60006104f2610e3c565b600080516020612ce58339815191526105e381610e55565b60005b8351811015610656576000831561061c57600080516020612c658339815191525461010090046001600160a01b03169050610620565b5060005b6106438186848151811061063657610636612865565b6020026020010151610e62565b508061064e81612891565b9150506105e6565b50505050565b6106663382610ee8565b61068357604051632f5de44f60e01b815260040160405180910390fd5b6105bc838383610f6e565b600061069a838361109d565b9392505050565b6105bc83838360405180602001604052806000815250610b64565b600080516020612c658339815191525460ff16156107325760405162461bcd60e51b815260206004820152602860248201527f537465776172644c6963656e736546616365743a20616c726561647920696e696044820152671d1a585b1a5e995960c21b60648201526084015b60405180910390fd5b61074288888888888888886110cc565b5050505050505050565b600080516020612ce583398151915261076481610e55565b81518351146107d35760405162461bcd60e51b815260206004820152603560248201527f537465776172644c6963656e736546616365743a20746f20616e6420746f6b656044820152740dcaaa492e640d8cadccee8d040dad2e6dac2e8c6d605b1b6064820152608401610729565b60005b82518110156106565761080e8482815181106107f4576107f4612865565b602002602001015184838151811061063657610636612865565b8061081881612891565b9150506107d6565b60006104e282611217565b60006104e282611231565b60006104e282611252565b600080516020612ce583398151915261085981610e55565b6105bc8383610e62565b60006104e282611296565b306001600160a01b0316633882ce8e6040518163ffffffff1660e01b8152600401602060405180830381865afa1580156108ac573d6000803e3d6000fd5b505050506040513d601f19601f820116820180604052508101906108d091906128aa565b6001600160a01b0316336001600160a01b0316146109565760405162461bcd60e51b815260206004820152603760248201527f537465776172644c6963656e736546616365743a206f6e6c7920696e6974696160448201527f6c206269646465722063616e206d696e7420746f6b656e0000000000000000006064820152608401610729565b306001600160a01b031663be6a2a6d6040518163ffffffff1660e01b8152600401602060405180830381865afa158015610994573d6000803e3d6000fd5b505050506040513d601f19601f820116820180604052508101906109b891906128c7565b4210610a2e576040805162461bcd60e51b81526020600482015260248101919091527f537465776172644c6963656e736546616365743a2063616e6e6f74206d696e7460448201527f20616674657220696e697469616c20706572696f642073746172742074696d656064820152608401610729565b610a3781611217565b15610a965760405162461bcd60e51b815260206004820152602960248201527f537465776172644c6963656e736546616365743a20546f6b656e20616c72656160448201526864792065786973747360b81b6064820152608401610729565b610aa2600083836112ed565b5050565b60606104f2611309565b336001600160a01b03831603610ad95760405163424a22cb60e01b815260040160405180910390fd5b3360008181527f3c7bf052874fa81625121783266a03507bd2cd48b16e571c01a04e8dd3fb07aa602090815260408083206001600160a01b03871680855290835292819020805460ff191686151590811790915590519081529192917f17307eab39ab6107e8899845ad3d59bd9653f200f220920489ca2b5937696c31910160405180910390a35050565b610b6e3383610ee8565b610b8b57604051632f5de44f60e01b815260040160405180910390fd5b61065684848484611328565b60006104f2600080516020612ca58339815191525490565b60606104e28261135c565b600080516020612ce5833981519152610bd281610e55565b60005b8463ffffffff168163ffffffff161015610c0557610bf38484611540565b80610bfd816128e0565b915050610bd5565b5050505050565b333014610c965760405162461bcd60e51b815260206004820152604c60248201527f4e6174697665537465776172644c6963656e73653a205472696767657220747260448201527f616e736665722063616e206f6e6c792062652063616c6c65642066726f6d206160648201526b1b9bdd1a195c88199858d95d60a21b608482015260a401610729565b6105bc8383836112ed565b600061069a83836115f3565b6060600080516020612cc58339815191528054610cc990612903565b80601f0160208091040260200160405190810160405280929190818152602001828054610cf590612903565b8015610d425780601f10610d1757610100808354040283529160200191610d42565b820191906000526020600020905b815481529060010190602001808311610d2557829003601f168201915b5050505050905090565b6000610d5782611217565b610d745760405163c1b843ef60e01b815260040160405180910390fd5b5060009081527f3c7bf052874fa81625121783266a03507bd2cd48b16e571c01a04e8dd3fb07a960205260409020546001600160a01b031690565b60008181527f3c7bf052874fa81625121783266a03507bd2cd48b16e571c01a04e8dd3fb07a96020526040902080546001600160a01b0319166001600160a01b0384169081179091558190610e0382611252565b6001600160a01b03167f8c5be1e5ebec7d5bd14f71427d1e84f3dd0314c0f7b2291e5b200ac8c7c3b92560405160405180910390a45050565b60006104f2600080516020612c85833981519152611640565b610e5f813361164a565b50565b600080516020612ca58339815191528054600080516020612c65833981519152916001906000610e92838561293d565b909155505060008181527f99574a7094154bb123ae6ae102096f0bf9679b85a5cd1e727aaa0ae5f132e6b460205260409020610ece848261299e565b506001600160a01b038416156106565761065684826116ac565b6000610ef382611217565b610f105760405163c1b843ef60e01b815260040160405180910390fd5b6000610f1b83611252565b9050806001600160a01b0316846001600160a01b03161480610f565750836001600160a01b0316610f4b84610d4c565b6001600160a01b0316145b80610f665750610f6681856115f3565b949350505050565b826001600160a01b0316610f8182611252565b6001600160a01b031614610fa857604051630f2db4ad60e01b815260040160405180910390fd5b6001600160a01b038216610fcf576040516340311a0960e01b815260040160405180910390fd5b610fda83838361178f565b610fe5600082610daf565b6001600160a01b0383166000908152600080516020612c4583398151915260205260409020600080516020612c85833981519152906110249083611884565b506001600160a01b038316600090815260028201602052604090206110499083611890565b5061105581838561189c565b5081836001600160a01b0316856001600160a01b03167fddf252ad1be2c89b69c2b068fc378daa952ba7f163c4a11628f55a4df523b3ef60405160405180910390a450505050565b6001600160a01b0382166000908152600080516020612c458339815191526020526040812061069a90836118b2565b600080516020612c6583398151915280546001600160a01b03888116610100026001600160a81b03199092169190911760011782557f79ec1734da2430052e9d78936f451aad707e5bed12ef4806b06dc3d0c38f0e318054918b166001600160a01b0319909216919091179055600080516020612ca58339815191528690556000600080516020612cc5833981519152905080611169868261299e565b5060018101611178858261299e565b5060028101611187848261299e565b5061119a6301ffc9a760e01b60016118be565b6111ac6380ac58cd60e01b60016118be565b6111c4600080516020612ce58339815191528a611934565b6111dc600080516020612ce5833981519152806119a8565b851561120b5760005b87811015611209576111f789826116ac565b8061120181612891565b9150506111e5565b505b50505050505050505050565b60006104e2600080516020612c8583398151915283611a12565b600061124b600080516020612c8583398151915283611a2a565b5092915050565b60008061126d600080516020612c8583398151915284611a46565b90506001600160a01b0381166104e257604051637e1a7d8b60e01b815260040160405180910390fd5b60006001600160a01b0382166112bf57604051630810ff9760e41b815260040160405180910390fd5b6001600160a01b0382166000908152600080516020612c45833981519152602052604090206104e290611640565b6112f681611217565b1515600003610683576105bc82826116ac565b6060600080516020612cc58339815191526001018054610cc990612903565b611333848484610f6e565b61133f84848484611a52565b61065657604051639ff10cdd60e01b815260040160405180910390fd5b600080516020612ca583398151915254606090600080516020612c6583398151915290831061139d57604051624705a760e71b815260040160405180910390fd5b60008381527f99574a7094154bb123ae6ae102096f0bf9679b85a5cd1e727aaa0ae5f132e6b4602052604081208054600080516020612cc58339815191529291906113e790612903565b80601f016020809104026020016040519081016040528092919081815260200182805461141390612903565b80156114605780601f1061143557610100808354040283529160200191611460565b820191906000526020600020905b81548152906001019060200180831161144357829003601f168201915b50505050509050600082600201805461147890612903565b80601f01602080910402602001604051908101604052809291908181526020018280546114a490612903565b80156114f15780601f106114c6576101008083540402835291602001916114f1565b820191906000526020600020905b8154815290600101906020018083116114d457829003601f168201915b5050505050905060008251111561150b5750949350505050565b8061151587611b23565b604051602001611526929190612a5d565b604051602081830303815290604052945050505050919050565b600080516020612ca58339815191528054600080516020612c65833981519152916001906000611570838561293d565b9091555084905061158082611b23565b604051602001611591929190612a5d565b6040516020818303038152906040526115b5600080516020612cc583398151915290565b600083815260039190910160205260409020906115d2908261299e565b5082156106565781546106569061010090046001600160a01b0316826116ac565b6001600160a01b0391821660009081527f3c7bf052874fa81625121783266a03507bd2cd48b16e571c01a04e8dd3fb07aa6020908152604080832093909416825291909152205460ff1690565b60006104e2825490565b6116548282611c23565b610aa25761166a816001600160a01b0316611c5a565b611675836020611c6c565b604051602001611686929190612a8c565b60408051601f198184030181529082905262461bcd60e51b825261072991600401612290565b6001600160a01b0382166116d3576040516311f2988d60e11b815260040160405180910390fd5b6116dc81611217565b156116fa57604051630d86bb7b60e31b815260040160405180910390fd5b6117066000838361178f565b6001600160a01b0382166000908152600080516020612c4583398151915260205260409020600080516020612c85833981519152906117459083611890565b5061175181838561189c565b5060405182906001600160a01b038516906000907fddf252ad1be2c89b69c2b068fc378daa952ba7f163c4a11628f55a4df523b3ef908290a4505050565b6001600160a01b038316156118795760405163a7c12c1160e01b815260048101829052600090309063a7c12c1190602401602060405180830381865afa1580156117dd573d6000803e3d6000fd5b505050506040513d601f19601f820116820180604052508101906118019190612b01565b905080156118775760405162461bcd60e51b815260206004820152603a60248201527f537465776172644c6963656e736546616365743a2043616e6e6f74207472616e60448201527f7366657220647572696e672061756374696f6e20706572696f640000000000006064820152608401610729565b505b6105bc838383611dbe565b600061069a8383611dc9565b600061069a8383611e83565b6000610f6684846001600160a01b038516611ec6565b600061069a8383611f65565b6001600160e01b031980831690036118e95760405163b0a19dd560e01b815260040160405180910390fd5b6001600160e01b03199190911660009081527ffc606c433378e3a7e0a6a531deac289b66caa1b4aa8554fd4ab2c6f1570f92d860205260409020805460ff1916911515919091179055565b60008281527fd3889cc5458b268d0544e5534672df1296288ca3f93cbd39bd6f497a5c6228116020526040902061196b9082611fb1565b5060405133906001600160a01b0383169084907f2f8788117e7eff1d82e926ec794901d17c78024a50270940304540a733656f0d90600090a45050565b60008281527fd3889cc5458b268d0544e5534672df1296288ca3f93cbd39bd6f497a5c6228116020526040808220600201805490849055905190918391839186917fbd79b86ffe0ab8e8776151514217cd7cacd52c909f66475c3af44e129f0b00ff9190a4505050565b6000818152600183016020526040812054151561069a565b6000808080611a398686611fc6565b9097909650945050505050565b600061069a8383612029565b60006001600160a01b0384163b611a6b57506001610f66565b6000611aec63150b7a0260e01b33888787604051602401611a8f9493929190612b1e565b604051602081830303815290604052906001600160e01b0319166020820180516001600160e01b038381831617835250505050604051806060016040528060328152602001612c13603291396001600160a01b038816919061208d565b9050600081806020019051810190611b049190612b5b565b6001600160e01b031916630a85bd0160e11b1492505050949350505050565b606081600003611b4a5750506040805180820190915260018152600360fc1b602082015290565b8160005b8115611b745780611b5e81612891565b9150611b6d9050600a83612b8e565b9150611b4e565b6000816001600160401b03811115611b8e57611b8e61230d565b6040519080825280601f01601f191660200182016040528015611bb8576020820181803683370190505b5090505b8415610f6657611bcd600183612ba2565b9150611bda600a86612bb5565b611be590603061293d565b60f81b818381518110611bfa57611bfa612865565b60200101906001600160f81b031916908160001a905350611c1c600a86612b8e565b9450611bbc565b60008281527fd3889cc5458b268d0544e5534672df1296288ca3f93cbd39bd6f497a5c6228116020526040812061069a908361209c565b60606104e26001600160a01b03831660145b60606000611c7b836002612bc9565b611c8690600261293d565b6001600160401b03811115611c9d57611c9d61230d565b6040519080825280601f01601f191660200182016040528015611cc7576020820181803683370190505b509050600360fc1b81600081518110611ce257611ce2612865565b60200101906001600160f81b031916908160001a905350600f60fb1b81600181518110611d1157611d11612865565b60200101906001600160f81b031916908160001a905350600160028402015b6001811115611d9e576f181899199a1a9b1b9c1cb0b131b232b360811b85600f1660108110611d6157611d61612865565b1a60f81b828281518110611d7757611d77612865565b60200101906001600160f81b031916908160001a90535060049490941c9360001901611d30565b50831561069a5760405163c913478560e01b815260040160405180910390fd5b6105bc8383836120be565b6000818152600183016020526040812054801561124b57835460009085906000198101908110611dfb57611dfb612865565b9060005260206000200154905080856000016001840381548110611e2157611e21612865565b6000918252602080832090910192909255918252600186019052604090208190558354849080611e5357611e53612be0565b60008281526020808220830160001990810183905590920190925593815260019485019093525050604081205590565b60008181526001830160205260408120546104e2575081546001808201845560008481526020808220909301849055845493815293810190915260409092205590565b6000828152600184016020526040812054808203611f2d57505060408051808201825283815260208082018481528654600181810189556000898152848120955160029093029095019182559151908201558654868452818801909252929091205561069a565b82856000016001830381548110611f4657611f46612865565b906000526020600020906002020160010181905550600091505061069a565b81546000908210611f895760405163e637bf3b60e01b815260040160405180910390fd5b826000018281548110611f9e57611f9e612865565b9060005260206000200154905092915050565b600061069a836001600160a01b038416611e83565b815460009081908310611fec5760405163022fd82760e31b815260040160405180910390fd5b600084600001848154811061200357612003612865565b906000526020600020906002020190508060000154816001015492509250509250929050565b600081815260018301602052604081205480820361205a57604051633d547ec560e21b815260040160405180910390fd5b83600001600182038154811061207257612072612865565b90600052602060002090600202016001015491505092915050565b6060610f668484600085612102565b6001600160a01b0381166000908152600183016020526040812054151561069a565b6001600160a01b0382166105bc5760008181527f99574a7094154bb123ae6ae102096f0bf9679b85a5cd1e727aaa0ae5f132e6b4602052604081206105bc916121bf565b6060843b61212357604051632270d6bf60e21b815260040160405180910390fd5b600080866001600160a01b0316858760405161213f9190612bf6565b60006040518083038185875af1925050503d806000811461217c576040519150601f19603f3d011682016040523d82523d6000602084013e612181565b606091505b50915091508115612195579150610f669050565b8051156121a55780518082602001fd5b8360405162461bcd60e51b81526004016107299190612290565b5080546121cb90612903565b6000825580601f106121db575050565b601f016020900490600052602060002090810190610e5f91905b8082111561220957600081556001016121f5565b5090565b6001600160e01b031981168114610e5f57600080fd5b60006020828403121561223557600080fd5b813561069a8161220d565b60005b8381101561225b578181015183820152602001612243565b50506000910152565b6000815180845261227c816020860160208601612240565b601f01601f19169290920160200192915050565b60208152600061069a6020830184612264565b6000602082840312156122b557600080fd5b5035919050565b6001600160a01b0381168114610e5f57600080fd5b80356122dc816122bc565b919050565b600080604083850312156122f457600080fd5b82356122ff816122bc565b946020939093013593505050565b634e487b7160e01b600052604160045260246000fd5b604051601f8201601f191681016001600160401b038111828210171561234b5761234b61230d565b604052919050565b60006001600160401b0382111561236c5761236c61230d565b5060051b60200190565b60006001600160401b0383111561238f5761238f61230d565b6123a2601f8401601f1916602001612323565b90508281528383830111156123b657600080fd5b828260208301376000602084830101529392505050565b600082601f8301126123de57600080fd5b61069a83833560208501612376565b600082601f8301126123fe57600080fd5b8135602061241361240e83612353565b612323565b82815260059290921b8401810191818101908684111561243257600080fd5b8286015b848110156124715780356001600160401b038111156124555760008081fd5b6124638986838b01016123cd565b845250918301918301612436565b509695505050505050565b8015158114610e5f57600080fd5b80356122dc8161247c565b600080604083850312156124a857600080fd5b82356001600160401b038111156124be57600080fd5b6124ca858286016123ed565b92505060208301356124db8161247c565b809150509250929050565b6000806000606084860312156124fb57600080fd5b8335612506816122bc565b92506020840135612516816122bc565b929592945050506040919091013590565b600080600080600080600080610100898b03121561254457600080fd5b61254d896122d1565b975061255b60208a016122d1565b965061256960408a016122d1565b95506060890135945061257e60808a0161248a565b935060a08901356001600160401b038082111561259a57600080fd5b6125a68c838d016123cd565b945060c08b01359150808211156125bc57600080fd5b6125c88c838d016123cd565b935060e08b01359150808211156125de57600080fd5b506125eb8b828c016123cd565b9150509295985092959890939650565b6000806040838503121561260e57600080fd5b82356001600160401b038082111561262557600080fd5b818501915085601f83011261263957600080fd5b8135602061264961240e83612353565b82815260059290921b8401810191818101908984111561266857600080fd5b948201945b8386101561268f578535612680816122bc565b8252948201949082019061266d565b965050860135925050808211156126a557600080fd5b506126b2858286016123ed565b9150509250929050565b600080604083850312156126cf57600080fd5b82356126da816122bc565b915060208301356001600160401b038111156126f557600080fd5b6126b2858286016123cd565b60006020828403121561271357600080fd5b813561069a816122bc565b6000806040838503121561273157600080fd5b823561273c816122bc565b915060208301356124db8161247c565b6000806000806080858703121561276257600080fd5b843561276d816122bc565b9350602085013561277d816122bc565b92506040850135915060608501356001600160401b0381111561279f57600080fd5b8501601f810187136127b057600080fd5b6127bf87823560208401612376565b91505092959194509250565b6000806000606084860312156127e057600080fd5b833563ffffffff811681146127f457600080fd5b925060208401356001600160401b0381111561280f57600080fd5b61281b868287016123cd565b925050604084013561282c8161247c565b809150509250925092565b6000806040838503121561284a57600080fd5b8235612855816122bc565b915060208301356124db816122bc565b634e487b7160e01b600052603260045260246000fd5b634e487b7160e01b600052601160045260246000fd5b6000600182016128a3576128a361287b565b5060010190565b6000602082840312156128bc57600080fd5b815161069a816122bc565b6000602082840312156128d957600080fd5b5051919050565b600063ffffffff8083168181036128f9576128f961287b565b6001019392505050565b600181811c9082168061291757607f821691505b60208210810361293757634e487b7160e01b600052602260045260246000fd5b50919050565b808201808211156104e2576104e261287b565b601f8211156105bc57600081815260208120601f850160051c810160208610156129775750805b601f850160051c820191505b8181101561299657828155600101612983565b505050505050565b81516001600160401b038111156129b7576129b761230d565b6129cb816129c58454612903565b84612950565b602080601f831160018114612a0057600084156129e85750858301515b600019600386901b1c1916600185901b178555612996565b600085815260208120601f198616915b82811015612a2f57888601518255948401946001909101908401612a10565b5085821015612a4d5787850151600019600388901b60f8161c191681555b5050505050600190811b01905550565b60008351612a6f818460208801612240565b835190830190612a83818360208801612240565b01949350505050565b7f416363657373436f6e74726f6c3a206163636f756e7420000000000000000000815260008351612ac4816017850160208801612240565b7001034b99036b4b9b9b4b733903937b6329607d1b6017918401918201528351612af5816028840160208801612240565b01602801949350505050565b600060208284031215612b1357600080fd5b815161069a8161247c565b6001600160a01b0385811682528416602082015260408101839052608060608201819052600090612b5190830184612264565b9695505050505050565b600060208284031215612b6d57600080fd5b815161069a8161220d565b634e487b7160e01b600052601260045260246000fd5b600082612b9d57612b9d612b78565b500490565b818103818111156104e2576104e261287b565b600082612bc457612bc4612b78565b500690565b80820281158282048414176104e2576104e261287b565b634e487b7160e01b600052603160045260246000fd5b60008251612c08818460208701612240565b919091019291505056fe4552433732313a207472616e7366657220746f206e6f6e20455243373231526563656976657220696d706c656d656e7465723c7bf052874fa81625121783266a03507bd2cd48b16e571c01a04e8dd3fb07a879ec1734da2430052e9d78936f451aad707e5bed12ef4806b06dc3d0c38f0e303c7bf052874fa81625121783266a03507bd2cd48b16e571c01a04e8dd3fb07a679ec1734da2430052e9d78936f451aad707e5bed12ef4806b06dc3d0c38f0e3299574a7094154bb123ae6ae102096f0bf9679b85a5cd1e727aaa0ae5f132e6b17b62b800d8c954aa32a34a9249066e0f8761d6c1614c95cbc05c04ab0583a14ca26469706673582212200940ecafcf0c4bc93ba06dd1ca26359735a42c25a695233511dfdea196f979f364736f6c63430008110033",
  "devdoc": {
    "details": "ERC-1155 token license for Steward. Transfers are disabled during an auction",
    "kind": "dev",
    "methods": {
      "approve(address,uint256)": {
        "params": {
          "operator": "address to be approved",
          "tokenId": "token to approve"
        }
      },
      "balanceOf(address)": {
        "returns": {
          "_0": "quantity of tokens held"
        }
      },
      "getApproved(uint256)": {
        "params": {
          "tokenId": "token to query"
        },
        "returns": {
          "_0": "address approved to spend token"
        }
      },
      "isApprovedForAll(address,address)": {
        "params": {
          "account": "address to query for approval granted",
          "operator": "address to query for approval received"
        },
        "returns": {
          "_0": "whether operator is approved to spend tokens held by account"
        }
      },
      "ownerOf(uint256)": {
        "params": {
          "tokenId": "token to query"
        },
        "returns": {
          "_0": "token owner"
        }
      },
      "safeTransferFrom(address,address,uint256)": {
        "params": {
          "from": "sender of token",
          "to": "receiver of token",
          "tokenId": "token id"
        }
      },
      "safeTransferFrom(address,address,uint256,bytes)": {
        "params": {
          "data": "data payload",
          "from": "sender of token",
          "to": "receiver of token",
          "tokenId": "token id"
        }
      },
      "setApprovalForAll(address,bool)": {
        "params": {
          "operator": "address to be approved",
          "status": "approval status"
        }
      },
      "supportsInterface(bytes4)": {
        "params": {
          "interfaceId": "interface id"
        },
        "returns": {
          "_0": "bool whether interface is supported"
        }
      },
      "tokenByIndex(uint256)": {
        "params": {
          "index": "position in global token list to query"
        },
        "returns": {
          "_0": "id of retrieved token"
        }
      },
      "tokenOfOwnerByIndex(address,uint256)": {
        "params": {
          "index": "position in owner's token list to query",
          "owner": "token holder to query"
        },
        "returns": {
          "_0": "id of retrieved token"
        }
      },
      "totalSupply()": {
        "returns": {
          "_0": "total supply"
        }
      },
      "transferFrom(address,address,uint256)": {
        "params": {
          "from": "sender of token",
          "to": "receiver of token",
          "tokenId": "token id"
        }
      }
    },
    "title": "NativeStewardLicenseFacet",
    "version": 1
  },
  "userdoc": {
    "kind": "user",
    "methods": {
      "addTokenToCollection(address,string)": {
        "notice": "Add token to collection"
      },
      "addTokensToCollection(address[],string[])": {
        "notice": "Add tokens to collection with to"
      },
      "addTokensToCollection(string[],bool)": {
        "notice": "Add tokens to collection"
      },
      "addTokensWithBaseURIToCollection(uint32,string,bool)": {
        "notice": "Add tokens to collection with baseURI"
      },
      "approve(address,uint256)": {
        "notice": "grant approval to given account to spend token"
      },
      "balanceOf(address)": {
        "notice": "query the balance of given address"
      },
      "exists(uint256)": {
        "notice": "Check if token exists"
      },
      "getApproved(uint256)": {
        "notice": "get approval status for given token"
      },
      "initializeStewardLicense(address,address,address,uint256,bool,string,string,string)": {
        "notice": "Initialize license"
      },
      "isApprovedForAll(address,address)": {
        "notice": "query approval status of given operator with respect to given address"
      },
      "maxTokenCount()": {
        "notice": "Get max token count"
      },
      "mintToken(address,uint256)": {
        "notice": "Initial bidder can mint token if it doesn't exist"
      },
      "minter()": {
        "notice": "Get minter"
      },
      "name()": {
        "notice": "inheritdoc IERC721Metadata"
      },
      "ownerOf(uint256)": {
        "notice": "query the owner of given token"
      },
      "safeTransferFrom(address,address,uint256)": {
        "notice": "transfer token between given addresses, checking for ERC721Receiver implementation if applicable"
      },
      "safeTransferFrom(address,address,uint256,bytes)": {
        "notice": "transfer token between given addresses, checking for ERC721Receiver implementation if applicable"
      },
      "setApprovalForAll(address,bool)": {
        "notice": "grant approval to or revoke approval from given account to spend all tokens held by sender"
      },
      "supportsInterface(bytes4)": {
        "notice": "query whether contract has registered support for given interface"
      },
      "symbol()": {
        "notice": "inheritdoc IERC721Metadata"
      },
      "tokenByIndex(uint256)": {
        "notice": "get token at given internal storage index"
      },
      "tokenOfOwnerByIndex(address,uint256)": {
        "notice": "get token of given owner at given internal storage index"
      },
      "tokenURI(uint256)": {
        "notice": "inheritdoc IERC721Metadata"
      },
      "totalSupply()": {
        "notice": "get total token supply"
      },
      "transferFrom(address,address,uint256)": {
        "notice": "transfer token between given addresses, without checking for ERC721Receiver implementation if applicable"
      },
      "triggerTransfer(address,address,uint256)": {
        "notice": "Trigger transfer of license"
      }
    },
    "version": 1
  },
  "storageLayout": {
    "storage": [],
    "types": null
  }
}