{
  "address": "0x235d1DeaFd6097066c75Da0147E026daA1bD6166",
  "abi": [
    {
      "inputs": [],
      "name": "ERC165Base__InvalidInterfaceId",
      "type": "error"
    },
    {
      "inputs": [],
      "name": "UintUtils__InsufficientHexLength",
      "type": "error"
    },
    {
      "anonymous": false,
      "inputs": [
        {
          "indexed": false,
          "internalType": "uint256",
          "name": "feeDenominator",
          "type": "uint256"
        }
      ],
      "name": "FeeDenominatorSet",
      "type": "event"
    },
    {
      "anonymous": false,
      "inputs": [
        {
          "indexed": false,
          "internalType": "uint256",
          "name": "feeNumerator",
          "type": "uint256"
        }
      ],
      "name": "FeeNumeratorSet",
      "type": "event"
    },
    {
      "anonymous": false,
      "inputs": [
        {
          "indexed": false,
          "internalType": "uint256",
          "name": "licensePeriod",
          "type": "uint256"
        }
      ],
      "name": "LicensePeriodSet",
      "type": "event"
    },
    {
      "anonymous": false,
      "inputs": [
        {
          "indexed": true,
          "internalType": "bytes32",
          "name": "role",
          "type": "bytes32"
        },
        {
          "indexed": true,
          "internalType": "bytes32",
          "name": "previousAdminRole",
          "type": "bytes32"
        },
        {
          "indexed": true,
          "internalType": "bytes32",
          "name": "newAdminRole",
          "type": "bytes32"
        }
      ],
      "name": "RoleAdminChanged",
      "type": "event"
    },
    {
      "anonymous": false,
      "inputs": [
        {
          "indexed": true,
          "internalType": "bytes32",
          "name": "role",
          "type": "bytes32"
        },
        {
          "indexed": true,
          "internalType": "address",
          "name": "account",
          "type": "address"
        },
        {
          "indexed": true,
          "internalType": "address",
          "name": "sender",
          "type": "address"
        }
      ],
      "name": "RoleGranted",
      "type": "event"
    },
    {
      "anonymous": false,
      "inputs": [
        {
          "indexed": true,
          "internalType": "bytes32",
          "name": "role",
          "type": "bytes32"
        },
        {
          "indexed": true,
          "internalType": "address",
          "name": "account",
          "type": "address"
        },
        {
          "indexed": true,
          "internalType": "address",
          "name": "sender",
          "type": "address"
        }
      ],
      "name": "RoleRevoked",
      "type": "event"
    },
    {
      "inputs": [],
      "name": "feeDenominator",
      "outputs": [
        {
          "internalType": "uint256",
          "name": "",
          "type": "uint256"
        }
      ],
      "stateMutability": "view",
      "type": "function"
    },
    {
      "inputs": [],
      "name": "feeNumerator",
      "outputs": [
        {
          "internalType": "uint256",
          "name": "",
          "type": "uint256"
        }
      ],
      "stateMutability": "view",
      "type": "function"
    },
    {
      "inputs": [
        {
          "internalType": "address",
          "name": "_owner",
          "type": "address"
        },
        {
          "internalType": "uint256",
          "name": "_licensePeriod",
          "type": "uint256"
        },
        {
          "internalType": "uint256",
          "name": "_feeNumerator",
          "type": "uint256"
        },
        {
          "internalType": "uint256",
          "name": "_feeDenominator",
          "type": "uint256"
        }
      ],
      "name": "initializePCOParams",
      "outputs": [],
      "stateMutability": "nonpayable",
      "type": "function"
    },
    {
      "inputs": [
        {
          "internalType": "uint256",
          "name": "_licensePeriod",
          "type": "uint256"
        },
        {
          "internalType": "uint256",
          "name": "_feeNumerator",
          "type": "uint256"
        },
        {
          "internalType": "uint256",
          "name": "_feeDenominator",
          "type": "uint256"
        }
      ],
      "name": "initializePCOParams",
      "outputs": [],
      "stateMutability": "nonpayable",
      "type": "function"
    },
    {
      "inputs": [],
      "name": "licensePeriod",
      "outputs": [
        {
          "internalType": "uint256",
          "name": "",
          "type": "uint256"
        }
      ],
      "stateMutability": "view",
      "type": "function"
    },
    {
      "inputs": [
        {
          "internalType": "uint256",
          "name": "_feeDenominator",
          "type": "uint256"
        }
      ],
      "name": "setFeeDenominator",
      "outputs": [],
      "stateMutability": "nonpayable",
      "type": "function"
    },
    {
      "inputs": [
        {
          "internalType": "uint256",
          "name": "_feeNumerator",
          "type": "uint256"
        }
      ],
      "name": "setFeeNumerator",
      "outputs": [],
      "stateMutability": "nonpayable",
      "type": "function"
    },
    {
      "inputs": [
        {
          "internalType": "uint256",
          "name": "_licensePeriod",
          "type": "uint256"
        }
      ],
      "name": "setLicensePeriod",
      "outputs": [],
      "stateMutability": "nonpayable",
      "type": "function"
    },
    {
      "inputs": [
        {
          "internalType": "uint256",
          "name": "_licensePeriod",
          "type": "uint256"
        },
        {
          "internalType": "uint256",
          "name": "_feeNumerator",
          "type": "uint256"
        },
        {
          "internalType": "uint256",
          "name": "_feeDenominator",
          "type": "uint256"
        }
      ],
      "name": "setPCOParameters",
      "outputs": [],
      "stateMutability": "nonpayable",
      "type": "function"
    }
  ],
  "transactionHash": "0xb623ed6d836036cbec78084df21561644b5898ae31db24e1d1551ffb13cbeada",
  "args": [],
  "numDeployments": 1,
  "solcInputHash": "7c2f2883e0da9bf3e6298a712dbf5e36",
  "bytecode": "0x608060405234801561001057600080fd5b50610b1e806100206000396000f3fe608060405234801561001057600080fd5b50600436106100935760003560e01c8063a45db91111610066578063a45db911146100ed578063d8462a0814610100578063de7d90c314610113578063e86dea4a14610126578063fd8e6f281461012e57600080fd5b8063180b0d7e1461009857806343ff3a91146100b25780634a4f9cc5146100c75780638a30104a146100da575b600080fd5b6100a0610136565b60405190815260200160405180910390f35b6100c56100c0366004610899565b610165565b005b6100c56100d53660046108e0565b610203565b6100c56100e836600461090c565b610255565b6100c56100fb36600461090c565b61027a565b6100c561010e36600461090c565b61029b565b6100c56101213660046108e0565b6102bc565b6100a06102df565b6100a0610309565b60006101607f47e38df96560ed74ceeb040528c687d6746edaa830d5a94a1d86a43df37c56115490565b905090565b600080516020610ac98339815191525460ff161561019e5760405162461bcd60e51b815260040161019590610925565b60405180910390fd5b6101b063037a220760e21b6001610333565b6101c263f62b835360e01b6001610333565b6101da600080516020610aa9833981519152856103a9565b6101f2600080516020610aa98339815191528061041d565b6101fd838383610487565b50505050565b600080516020610ac98339815191525460ff16156102335760405162461bcd60e51b815260040161019590610925565b61024563037a220760e21b6001610333565b610250838383610487565b505050565b600080516020610aa983398151915261026d816104bc565b610276826104c9565b5050565b600080516020610aa9833981519152610292816104bc565b61027682610535565b600080516020610aa98339815191526102b3816104bc565b61027682610599565b600080516020610aa98339815191526102d4816104bc565b6101fd8484846105fd565b60006101607f47e38df96560ed74ceeb040528c687d6746edaa830d5a94a1d86a43df37c56105490565b60006101607f47e38df96560ed74ceeb040528c687d6746edaa830d5a94a1d86a43df37c560f5490565b6001600160e01b0319808316900361035e5760405163b0a19dd560e01b815260040160405180910390fd5b6001600160e01b03199190911660009081527ffc606c433378e3a7e0a6a531deac289b66caa1b4aa8554fd4ab2c6f1570f92d860205260409020805460ff1916911515919091179055565b60008281527fd3889cc5458b268d0544e5534672df1296288ca3f93cbd39bd6f497a5c622811602052604090206103e09082610618565b5060405133906001600160a01b0383169084907f2f8788117e7eff1d82e926ec794901d17c78024a50270940304540a733656f0d90600090a45050565b60008281527fd3889cc5458b268d0544e5534672df1296288ca3f93cbd39bd6f497a5c6228116020526040808220600201805490849055905190918391839186917fbd79b86ffe0ab8e8776151514217cd7cacd52c909f66475c3af44e129f0b00ff9190a4505050565b600080516020610ac9833981519152805460ff191660011781556104aa84610599565b6104b383610535565b6101fd826104c9565b6104c68133610636565b50565b7f47e38df96560ed74ceeb040528c687d6746edaa830d5a94a1d86a43df37c5611819055604051818152600080516020610ac9833981519152907ffa3114c334d40847f472349ebcfe2a85e5e985c4b19b19271b95fb8a2f883f25906020015b60405180910390a15050565b7f47e38df96560ed74ceeb040528c687d6746edaa830d5a94a1d86a43df37c5610819055604051818152600080516020610ac9833981519152907fc1bcceddd77fdc95a8da9bec5802d2e0bb564dd02c0730222d8e12030bd9104390602001610529565b7f47e38df96560ed74ceeb040528c687d6746edaa830d5a94a1d86a43df37c560f819055604051818152600080516020610ac9833981519152907f0ce2592931633fe4bc7c7c6895d95c6fb449347b2efcd517494867fc97cde97a90602001610529565b61060683610599565b61060f82610535565b610250816104c9565b600061062d836001600160a01b038416610698565b90505b92915050565b61064082826106db565b61027657610656816001600160a01b0316610712565b610661836020610724565b604051602001610672929190610994565b60408051601f198184030181529082905262461bcd60e51b825261019591600401610a09565b6000818152600183016020526040812054610630575081546001808201845560008481526020808220909301849055845493815293810190915260409092205590565b60008281527fd3889cc5458b268d0544e5534672df1296288ca3f93cbd39bd6f497a5c6228116020526040812061062d9083610877565b60606106306001600160a01b03831660145b60606000610733836002610a52565b61073e906002610a69565b67ffffffffffffffff81111561075657610756610a7c565b6040519080825280601f01601f191660200182016040528015610780576020820181803683370190505b509050600360fc1b8160008151811061079b5761079b610a92565b60200101906001600160f81b031916908160001a905350600f60fb1b816001815181106107ca576107ca610a92565b60200101906001600160f81b031916908160001a905350600160028402015b6001811115610857576f181899199a1a9b1b9c1cb0b131b232b360811b85600f166010811061081a5761081a610a92565b1a60f81b82828151811061083057610830610a92565b60200101906001600160f81b031916908160001a90535060049490941c93600019016107e9565b50831561062d5760405163c913478560e01b815260040160405180910390fd5b6001600160a01b0381166000908152600183016020526040812054151561062d565b600080600080608085870312156108af57600080fd5b84356001600160a01b03811681146108c657600080fd5b966020860135965060408601359560600135945092505050565b6000806000606084860312156108f557600080fd5b505081359360208301359350604090920135919050565b60006020828403121561091e57600080fd5b5035919050565b6020808252602b908201527f506572696f64696350434f506172616d7346616365743a20616c72656164792060408201526a1a5b9a5d1a585b1a5e995960aa1b606082015260800190565b60005b8381101561098b578181015183820152602001610973565b50506000910152565b7f416363657373436f6e74726f6c3a206163636f756e74200000000000000000008152600083516109cc816017850160208801610970565b7001034b99036b4b9b9b4b733903937b6329607d1b60179184019182015283516109fd816028840160208801610970565b01602801949350505050565b6020815260008251806020840152610a28816040850160208701610970565b601f01601f19169190910160400192915050565b634e487b7160e01b600052601160045260246000fd5b808202811582820484141761063057610630610a3c565b8082018082111561063057610630610a3c565b634e487b7160e01b600052604160045260246000fd5b634e487b7160e01b600052603260045260246000fdfe88fc2152b07410bc90f2d48e8a618d99441277e94c993622cc9da79b67bc6f4d47e38df96560ed74ceeb040528c687d6746edaa830d5a94a1d86a43df37c560ea2646970667358221220d263584ab955eafa0999208559e825cd8d2339446ef757047e993c72c9b3a03f64736f6c63430008110033",
  "devdoc": {
    "details": "Params store for periodic PCO",
    "kind": "dev",
    "methods": {},
    "title": "PeriodicPCOParamsFacet",
    "version": 1
  },
  "userdoc": {
    "kind": "user",
    "methods": {
      "feeDenominator()": {
        "notice": "Get fee denominator"
      },
      "feeNumerator()": {
        "notice": "Get fee numerator"
      },
      "initializePCOParams(address,uint256,uint256,uint256)": {
        "notice": "Initialize params with owner"
      },
      "initializePCOParams(uint256,uint256,uint256)": {
        "notice": "Initialize params"
      },
      "licensePeriod()": {
        "notice": "Get license period"
      },
      "setFeeDenominator(uint256)": {
        "notice": "Set fee denominator"
      },
      "setFeeNumerator(uint256)": {
        "notice": "Set fee numerator"
      },
      "setLicensePeriod(uint256)": {
        "notice": "Set license period"
      },
      "setPCOParameters(uint256,uint256,uint256)": {
        "notice": "Set PCO parameters"
      }
    },
    "version": 1
  },
  "storageLayout": {
    "storage": [],
    "types": null
  }
}