{
  "address": "0xaDD2eFb7f87Db4003c50d4aE60Bcc82b255F9222",
  "abi": [
    {
      "anonymous": false,
      "inputs": [
        {
          "indexed": true,
          "internalType": "address",
          "name": "diamondAddress",
          "type": "address"
        }
      ],
      "name": "DiamondCreated",
      "type": "event"
    },
    {
      "inputs": [
        {
          "components": [
            {
              "internalType": "address",
              "name": "target",
              "type": "address"
            },
            {
              "internalType": "address",
              "name": "initTarget",
              "type": "address"
            },
            {
              "internalType": "bytes",
              "name": "initData",
              "type": "bytes"
            },
            {
              "internalType": "bytes4[]",
              "name": "selectors",
              "type": "bytes4[]"
            }
          ],
          "internalType": "struct IDiamond.FacetInit[]",
          "name": "facetInits",
          "type": "tuple[]"
        }
      ],
      "name": "createDiamond",
      "outputs": [
        {
          "internalType": "address",
          "name": "",
          "type": "address"
        }
      ],
      "stateMutability": "nonpayable",
      "type": "function"
    }
  ],
  "transactionHash": "0x4830198ae3e8ff784f23ee8f26ba3afe187200a5b5fb3a99b685a50a8ad3871d",
  "args": [],
  "numDeployments": 1,
  "solcInputHash": "7c2f2883e0da9bf3e6298a712dbf5e36",
  "bytecode": "0x608060405234801561001057600080fd5b506121cf806100206000396000f3fe60806040523480156200001157600080fd5b50600436106200002e5760003560e01c8063e394a02b1462000033575b600080fd5b6200004a6200004436600462000232565b62000066565b6040516001600160a01b03909116815260200160405180910390f35b600080826040516200007890620000df565b62000084919062000416565b604051809103906000f080158015620000a1573d6000803e3d6000fd5b506040519091506001600160a01b038216907f644ca5b0a8b0418e9faf3880659eeb84eaad45ad838b0173808e5ca72f5efc4990600090a292915050565b611c9a806200050083390190565b634e487b7160e01b600052604160045260246000fd5b6040516080810167ffffffffffffffff81118282101715620001295762000129620000ed565b60405290565b604051601f8201601f1916810167ffffffffffffffff811182821017156200015b576200015b620000ed565b604052919050565b600067ffffffffffffffff821115620001805762000180620000ed565b5060051b60200190565b80356001600160a01b0381168114620001a257600080fd5b919050565b600082601f830112620001b957600080fd5b81356020620001d2620001cc8362000163565b6200012f565b82815260059290921b84018101918181019086841115620001f257600080fd5b8286015b84811015620002275780356001600160e01b031981168114620002195760008081fd5b8352918301918301620001f6565b509695505050505050565b600060208083850312156200024657600080fd5b823567ffffffffffffffff808211156200025f57600080fd5b818501915085601f8301126200027457600080fd5b813562000285620001cc8262000163565b81815260059190911b83018401908481019088831115620002a557600080fd5b8585015b83811015620003c257803585811115620002c257600080fd5b8601601f196080828d0382011215620002da57600080fd5b620002e462000103565b620002f18a84016200018a565b81526040620003028185016200018a565b8b8301526060840135898111156200031a5760008081fd5b8401603f81018f136200032d5760008081fd5b8b8101358a811115620003445762000344620000ed565b620003568d86601f840116016200012f565b94508085528f838284010111156200036e5760008081fd5b808383018e87013760009150818d828701015250838284015260808501359350898411156200039b578081fd5b5050620003ad8d8b84860101620001a7565b606082015285525050918601918601620002a9565b5098975050505050505050565b600081518084526020808501945080840160005b838110156200040b5781516001600160e01b03191687529582019590820190600101620003e3565b509495945050505050565b60006020808301818452808551808352604092508286019150828160051b8701018488016000805b84811015620004f057898403603f19018652825180516001600160a01b03908116865289820151168986015287810151608089870181905281519087018190528491905b80831015620004a2578183018c015188840160a00152918b019162000482565b60a092508583828a010152601f19601f8201168801915050606080840151935082888303018189015250620004da82820184620003cf565b988b01989650505092880192506001016200043e565b5091999850505050505050505056fe60806040523480156200001157600080fd5b5060405162001c9a38038062001c9a833981016040819052620000349162000d9a565b60408051600580825260c082019092526000916020820160a0803683370190505090506000637a0ed62760e01b82826200006e8162000f35565b93508151811062000083576200008362000f5d565b6001600160e01b0319909216602092830291909101909101526356fe50af60e11b8282620000b18162000f35565b935081518110620000c657620000c662000f5d565b6001600160e01b0319909216602092830291909101909101526314bbdacb60e21b8282620000f48162000f35565b93508151811062000109576200010962000f5d565b6001600160e01b0319909216602092830291909101909101526366ffd66360e11b8282620001378162000f35565b9350815181106200014c576200014c62000f5d565b6001600160e01b031990921660209283029190910190910152620001796348e2b09360e01b6001620003a4565b6301ffc9a760e01b82826200018e8162000f35565b935081518110620001a357620001a362000f5d565b6001600160e01b031990921660209283029190910190910152620001d06301ffc9a760e01b6001620003a4565b604080516001808252818301909252600091816020015b60408051606080820183526000808352602083015291810191909152815260200190600190039081620001e7579050506040805160608101909152308152909150602081016000815260200184815250816000815181106200024d576200024d62000f5d565b60200260200101819052506200027b816000604051806020016040528060008152506200041660201b60201c565b60005b8451811015620003995760008582815181106200029f576200029f62000f5d565b60200260200101519050600060016001600160401b03811115620002c757620002c762000c32565b6040519080825280602002602001820160405280156200031657816020015b60408051606080820183526000808352602083015291810191909152815260200190600190039081620002e65790505b50604080516060810190915283516001600160a01b0316815290915060208101600081526020018360600151815250816000815181106200035b576200035b62000f5d565b60200260200101819052506200038181836020015184604001516200041660201b60201c565b50508080620003909062000f35565b9150506200027e565b5050505050620010dc565b6001600160e01b03198083169003620003d05760405163b0a19dd560e01b815260040160405180910390fd5b80620003e6620005f260201b6200090d1760201c565b6001600160e01b03199390931660009081526020939093526040909220805460ff19169215159290921790915550565b60006200042d6200061660201b620009311760201c565b600181015490915061ffff811690819060009060071615620004615750600381901c60009081526002840160205260409020545b60005b87518110156200056057600088828151811062000485576200048562000f5d565b60200260200101519050600081602001519050816040015151600003620004bf5760405163eb6c3aeb60e01b815260040160405180910390fd5b6000816002811115620004d657620004d662000f73565b03620004f557620004ea878686856200063a565b909550935062000555565b60018160028111156200050c576200050c62000f73565b0362000524576200051e878362000799565b62000555565b60028160028111156200053b576200053b62000f73565b0362000555576200054f87868685620008ff565b90955093505b505060010162000464565b508282146200057d5760018401805461ffff191661ffff84161790555b6007821615620005a057600382901c600090815260028501602052604090208190555b7f8faa70878671ccd212d20771b795c50af8fd3ff6cf27f4bde57e5d4de0aeb673878787604051620005d59392919062000fb7565b60405180910390a1620005e9868662000b2b565b50505050505050565b7ffc606c433378e3a7e0a6a531deac289b66caa1b4aa8554fd4ab2c6f1570f92d890565b7f177481ac65e4292921c69f62d1cc7f57541261e5d61c8175cf4e36a01c9bfc9390565b805160009081906001600160a01b031630148015906200067a57506200067883600001516001600160a01b031662000c2c60201b620001b21760201c565b155b156200069957604051633ddc5cab60e21b815260040160405180910390fd5b60005b8360400151518110156200078c57600084604001518281518110620006c557620006c562000f5d565b6020908102919091018101516001600160e01b031981166000908152918a9052604090912054909150606081901c156200071257604051634923a77160e11b815260040160405180910390fd5b85516001600160e01b0319838116600081815260208d90526040902060609390931b6001600160601b0319168b1790925560058a901b60e090811692831c91831c199990991617978190036200077c57600389901c600090815260028b0160205260408120989098555b505050600195860195016200069c565b5093959294509192505050565b620007bc81600001516001600160a01b031662000c2c60201b620001b21760201c565b620007da57604051633ddc5cab60e21b815260040160405180910390fd5b60005b816040015151811015620008fa5760008260400151828151811062000806576200080662000f5d565b6020908102919091018101516001600160e01b03198116600090815291869052604090912054909150606081901c8062000853576040516337e25a9760e11b815260040160405180910390fd5b306001600160a01b038216036200087d5760405163e983573160e01b815260040160405180910390fd5b84600001516001600160a01b0316816001600160a01b031603620008b4576040516330baabf360e11b815260040160405180910390fd5b5083516001600160e01b031992909216600090815260208690526040902060609290921b6001600160601b0319166001600160601b0391909116179055600101620007dd565b505050565b805160009081906001600160a01b0316156200092e57604051633ab3490960e21b815260040160405180910390fd5b600385901c6007861660005b85604001515181101562000b175760008660400151828151811062000963576200096362000f5d565b6020908102919091018101516001600160e01b031981166000908152918c9052604090912054909150606081901c620009af576040516337e25a9760e11b815260040160405180910390fd5b30606082901c03620009d45760405163e983573160e01b815260040160405180910390fd5b600089900362000a0257600019909401600081815260028c0160205260409020549850936007935062000a0a565b600019909301925b600584901b89901b6000806001600160e01b03198084169086161462000a5d576001600160e01b03198316600090815260208f90526040902080546001600160601b0319166001600160601b0386161790555b50506001600160e01b03198316600090815260208d90526040812055611fff600383901c1660e0600584901b1687821462000ac257600082815260028f016020526040902080546001600160e01b031980841c19909116908516831c17905562000ae6565b80836001600160e01b031916901c816001600160e01b031960001b901c198d16179b505b8660000362000b0557600088815260028f01602052604081208190559b505b5050600190930192506200093a915050565b5060039190911b1796939550929350505050565b8051156001600160a01b038316151462000b58576040516326df4ccd60e01b815260040160405180910390fd5b6001600160a01b0382161562000c28576001600160a01b038216301462000bb65762000b98826001600160a01b031662000c2c60201b620001b21760201c565b62000bb657604051633ddc5cab60e21b815260040160405180910390fd5b6000826001600160a01b03168260405162000bd29190620010be565b600060405180830381855af49150503d806000811462000c0f576040519150601f19603f3d011682016040523d82523d6000602084013e62000c14565b606091505b5050905080620008fa573d6000803e3d6000fd5b5050565b3b151590565b634e487b7160e01b600052604160045260246000fd5b604051608081016001600160401b038111828210171562000c6d5762000c6d62000c32565b60405290565b604051601f8201601f191681016001600160401b038111828210171562000c9e5762000c9e62000c32565b604052919050565b60006001600160401b0382111562000cc25762000cc262000c32565b5060051b60200190565b80516001600160a01b038116811462000ce457600080fd5b919050565b60005b8381101562000d0657818101518382015260200162000cec565b50506000910152565b600082601f83011262000d2157600080fd5b8151602062000d3a62000d348362000ca6565b62000c73565b82815260059290921b8401810191818101908684111562000d5a57600080fd5b8286015b8481101562000d8f5780516001600160e01b03198116811462000d815760008081fd5b835291830191830162000d5e565b509695505050505050565b6000602080838503121562000dae57600080fd5b82516001600160401b038082111562000dc657600080fd5b818501915085601f83011262000ddb57600080fd5b815162000dec62000d348262000ca6565b81815260059190911b8301840190848101908883111562000e0c57600080fd5b8585015b8381101562000f285780518581111562000e2957600080fd5b8601601f196080828d038201121562000e4157600080fd5b62000e4b62000c48565b62000e588a840162000ccc565b8152604062000e6981850162000ccc565b8b83015260608401518981111562000e815760008081fd5b8401603f81018f1362000e945760008081fd5b8b8101518a81111562000eab5762000eab62000c32565b62000ebd8d86601f8401160162000c73565b94508085528f8382840101111562000ed55760008081fd5b62000ee6818e870185850162000ce9565b50508101919091526080820151908782111562000f035760008081fd5b62000f138d8b8486010162000d0f565b60608201528552505091860191860162000e10565b5098975050505050505050565b60006001820162000f5657634e487b7160e01b600052601160045260246000fd5b5060010190565b634e487b7160e01b600052603260045260246000fd5b634e487b7160e01b600052602160045260246000fd5b6000815180845262000fa381602086016020860162000ce9565b601f01601f19169290920160200192915050565b60006060808301818452808751808352608092508286019150828160051b8701016020808b0160005b848110156200108c57898403607f19018652815180516001600160a01b031685528381015189860190600381106200102857634e487b7160e01b600052602160045260246000fd5b868601526040918201519186018a905281519081905290840190600090898701905b80831015620010765783516001600160e01b03191682529286019260019290920191908601906200104a565b5097850197955050509082019060010162000fe0565b50506001600160a01b038a16908801528681036040880152620010b0818962000f89565b9a9950505050505050505050565b60008251620010d281846020870162000ce9565b9190910192915050565b610bae80620010ec6000396000f3fe60806040526004361061004e5760003560e01c806301ffc9a7146100d457806352ef6b2c146101095780637a0ed6271461012b578063adfca15e1461014d578063cdffacc61461017a57610055565b3661005557005b600080356001600160e01b03191681527f177481ac65e4292921c69f62d1cc7f57541261e5d61c8175cf4e36a01c9bfc93602052604090205460601c803b6100b0576040516321f27f0d60e21b815260040160405180910390fd5b3660008037600080366000845af43d6000803e8080156100cf573d6000f35b3d6000fd5b3480156100e057600080fd5b506100f46100ef366004610982565b6101b8565b60405190151581526020015b60405180910390f35b34801561011557600080fd5b5061011e6101c9565b60405161010091906109b3565b34801561013757600080fd5b5061014061036c565b6040516101009190610a45565b34801561015957600080fd5b5061016d610168366004610ac2565b610794565b6040516101009190610aeb565b34801561018657600080fd5b5061019a610195366004610982565b6108e0565b6040516001600160a01b039091168152602001610100565b3b151590565b60006101c382610955565b92915050565b606060006101d5610931565b600181015490915061ffff1667ffffffffffffffff8111156101f9576101f9610afe565b604051908082528060200260200182016040528015610222578160200160208202803683370190505b50915060008060005b600184015461ffff16821015610364576000818152600285016020526040812054905b600881101561034f578361026181610b2a565b600188015490955061ffff168511905061034f57600581901b82901b6001600160e01b0319811660009081526020889052604081205460601c90805b888110156102f2578a81815181106102b7576102b7610b43565b60200260200101516001600160a01b0316836001600160a01b0316036102e057600191506102f2565b806102ea81610b2a565b91505061029d565b5080156103015750505061033d565b818a898151811061031457610314610b43565b6001600160a01b03909216602092830291909101909101528761033681610b2a565b9850505050505b8061034781610b2a565b91505061024e565b5050808061035c90610b2a565b91505061022b565b505082525090565b60606000610378610931565b600181015490915061ffff1667ffffffffffffffff81111561039c5761039c610afe565b6040519080825280602002602001820160405280156103e257816020015b6040805180820190915260008152606060208201528152602001906001900390816103ba5790505b50600182015490925060009061ffff1667ffffffffffffffff81111561040a5761040a610afe565b604051908082528060200260200182016040528015610433578160200160208202803683370190505b50905060008060005b600185015461ffff16821015610722576000818152600286016020526040812054905b600881101561070d578361047281610b2a565b600189015490955061ffff168511905061070d57600581901b82901b6001600160e01b0319811660009081526020899052604081205460601c90805b888110156105cb57826001600160a01b03168c82815181106104d2576104d2610b43565b6020026020010151600001516001600160a01b0316036105b957838c82815181106104ff576104ff610b43565b6020026020010151602001518b838151811061051d5761051d610b43565b602002602001015160ff168151811061053857610538610b43565b60200260200101906001600160e01b03191690816001600160e01b0319168152505060ff8a828151811061056e5761056e610b43565b602002602001015160ff161061058357600080fd5b89818151811061059557610595610b43565b6020026020010180518091906105aa90610b59565b60ff16905250600191506105cb565b806105c381610b2a565b9150506104ae565b5080156105da575050506106fb565b818b89815181106105ed576105ed610b43565b60209081029190910101516001600160a01b03909116905260018a015461ffff1667ffffffffffffffff81111561062657610626610afe565b60405190808252806020026020018201604052801561064f578160200160208202803683370190505b508b898151811061066257610662610b43565b602002602001015160200181905250828b898151811061068457610684610b43565b6020026020010151602001516000815181106106a2576106a2610b43565b60200260200101906001600160e01b03191690816001600160e01b0319168152505060018989815181106106d8576106d8610b43565b60ff90921660209283029190910190910152876106f481610b2a565b9850505050505b8061070581610b2a565b91505061045f565b5050808061071a90610b2a565b91505061043c565b5060005b8281101561078957600084828151811061074257610742610b43565b602002602001015160ff169050600087838151811061076357610763610b43565b60200260200101516020015190508181525050808061078190610b2a565b915050610726565b508185525050505090565b606060006107a0610931565b600181015490915061ffff1667ffffffffffffffff8111156107c4576107c4610afe565b6040519080825280602002602001820160405280156107ed578160200160208202803683370190505b50915060008060005b600184015461ffff168210156108d6576000818152600285016020526040812054905b60088110156108c1578361082c81610b2a565b600188015490955061ffff16851190506108c157600581901b82901b6001600160e01b0319811660009081526020889052604090205460601c6001600160a01b038a16036108ae578088878151811061088757610887610b43565b6001600160e01b031990921660209283029190910190910152856108aa81610b2a565b9650505b50806108b981610b2a565b915050610819565b505080806108ce90610b2a565b9150506107f6565b5050825250919050565b60006108ea610931565b6001600160e01b0319909216600090815260209290925250604090205460601c90565b7ffc606c433378e3a7e0a6a531deac289b66caa1b4aa8554fd4ab2c6f1570f92d890565b7f177481ac65e4292921c69f62d1cc7f57541261e5d61c8175cf4e36a01c9bfc9390565b600061095f61090d565b6001600160e01b0319909216600090815260209290925250604090205460ff1690565b60006020828403121561099457600080fd5b81356001600160e01b0319811681146109ac57600080fd5b9392505050565b6020808252825182820181905260009190848201906040850190845b818110156109f45783516001600160a01b0316835292840192918401916001016109cf565b50909695505050505050565b600081518084526020808501945080840160005b83811015610a3a5781516001600160e01b03191687529582019590820190600101610a14565b509495945050505050565b60006020808301818452808551808352604092508286019150828160051b87010184880160005b83811015610ab457888303603f19018552815180516001600160a01b03168452870151878401879052610aa187850182610a00565b9588019593505090860190600101610a6c565b509098975050505050505050565b600060208284031215610ad457600080fd5b81356001600160a01b03811681146109ac57600080fd5b6020815260006109ac6020830184610a00565b634e487b7160e01b600052604160045260246000fd5b634e487b7160e01b600052601160045260246000fd5b600060018201610b3c57610b3c610b14565b5060010190565b634e487b7160e01b600052603260045260246000fd5b600060ff821660ff8103610b6f57610b6f610b14565b6001019291505056fea26469706673582212205a9cf23720bac5df7221f3ba3484bd230ef637150fc5e233df87fe15b58ef8dc64736f6c63430008110033a264697066735822122044490ceaf5cf6289e178fc6f05a779a302785119bed64f98b171e68d2fac7ea164736f6c63430008110033",
  "devdoc": {
    "kind": "dev",
    "methods": {},
    "version": 1
  },
  "userdoc": {
    "kind": "user",
    "methods": {},
    "version": 1
  },
  "storageLayout": {
    "storage": [],
    "types": null
  }
}