{
  "address": "0xD865a309A3B3f646C21426DF127EBa272410D8b9",
  "abi": [
    {
      "inputs": [],
      "name": "AddressUtils__NotContract",
      "type": "error"
    },
    {
      "inputs": [],
      "name": "ERC165Base__InvalidInterfaceId",
      "type": "error"
    },
    {
      "inputs": [],
      "name": "ERC721Base__BalanceQueryZeroAddress",
      "type": "error"
    },
    {
      "inputs": [],
      "name": "ERC721Base__ERC721ReceiverNotImplemented",
      "type": "error"
    },
    {
      "inputs": [],
      "name": "ERC721Base__InvalidOwner",
      "type": "error"
    },
    {
      "inputs": [],
      "name": "ERC721Base__MintToZeroAddress",
      "type": "error"
    },
    {
      "inputs": [],
      "name": "ERC721Base__NonExistentToken",
      "type": "error"
    },
    {
      "inputs": [],
      "name": "ERC721Base__NotOwnerOrApproved",
      "type": "error"
    },
    {
      "inputs": [],
      "name": "ERC721Base__NotTokenOwner",
      "type": "error"
    },
    {
      "inputs": [],
      "name": "ERC721Base__SelfApproval",
      "type": "error"
    },
    {
      "inputs": [],
      "name": "ERC721Base__TokenAlreadyMinted",
      "type": "error"
    },
    {
      "inputs": [],
      "name": "ERC721Base__TransferToZeroAddress",
      "type": "error"
    },
    {
      "inputs": [],
      "name": "ERC721Metadata__NonExistentToken",
      "type": "error"
    },
    {
      "inputs": [],
      "name": "EnumerableMap__IndexOutOfBounds",
      "type": "error"
    },
    {
      "inputs": [],
      "name": "EnumerableMap__NonExistentKey",
      "type": "error"
    },
    {
      "inputs": [],
      "name": "EnumerableSet__IndexOutOfBounds",
      "type": "error"
    },
    {
      "inputs": [],
      "name": "UintUtils__InsufficientHexLength",
      "type": "error"
    },
    {
      "anonymous": false,
      "inputs": [
        {
          "indexed": true,
          "internalType": "address",
          "name": "owner",
          "type": "address"
        },
        {
          "indexed": true,
          "internalType": "address",
          "name": "operator",
          "type": "address"
        },
        {
          "indexed": true,
          "internalType": "uint256",
          "name": "tokenId",
          "type": "uint256"
        }
      ],
      "name": "Approval",
      "type": "event"
    },
    {
      "anonymous": false,
      "inputs": [
        {
          "indexed": true,
          "internalType": "address",
          "name": "owner",
          "type": "address"
        },
        {
          "indexed": true,
          "internalType": "address",
          "name": "operator",
          "type": "address"
        },
        {
          "indexed": false,
          "internalType": "bool",
          "name": "approved",
          "type": "bool"
        }
      ],
      "name": "ApprovalForAll",
      "type": "event"
    },
    {
      "anonymous": false,
      "inputs": [
        {
          "indexed": true,
          "internalType": "bytes32",
          "name": "role",
          "type": "bytes32"
        },
        {
          "indexed": true,
          "internalType": "bytes32",
          "name": "previousAdminRole",
          "type": "bytes32"
        },
        {
          "indexed": true,
          "internalType": "bytes32",
          "name": "newAdminRole",
          "type": "bytes32"
        }
      ],
      "name": "RoleAdminChanged",
      "type": "event"
    },
    {
      "anonymous": false,
      "inputs": [
        {
          "indexed": true,
          "internalType": "bytes32",
          "name": "role",
          "type": "bytes32"
        },
        {
          "indexed": true,
          "internalType": "address",
          "name": "account",
          "type": "address"
        },
        {
          "indexed": true,
          "internalType": "address",
          "name": "sender",
          "type": "address"
        }
      ],
      "name": "RoleGranted",
      "type": "event"
    },
    {
      "anonymous": false,
      "inputs": [
        {
          "indexed": true,
          "internalType": "bytes32",
          "name": "role",
          "type": "bytes32"
        },
        {
          "indexed": true,
          "internalType": "address",
          "name": "account",
          "type": "address"
        },
        {
          "indexed": true,
          "internalType": "address",
          "name": "sender",
          "type": "address"
        }
      ],
      "name": "RoleRevoked",
      "type": "event"
    },
    {
      "anonymous": false,
      "inputs": [
        {
          "indexed": true,
          "internalType": "address",
          "name": "from",
          "type": "address"
        },
        {
          "indexed": true,
          "internalType": "address",
          "name": "to",
          "type": "address"
        },
        {
          "indexed": true,
          "internalType": "uint256",
          "name": "tokenId",
          "type": "uint256"
        }
      ],
      "name": "Transfer",
      "type": "event"
    },
    {
      "inputs": [
        {
          "internalType": "address",
          "name": "to",
          "type": "address"
        },
        {
          "internalType": "string",
          "name": "tokenURI",
          "type": "string"
        }
      ],
      "name": "addTokenToCollection",
      "outputs": [],
      "stateMutability": "nonpayable",
      "type": "function"
    },
    {
      "inputs": [
        {
          "internalType": "string[]",
          "name": "tokenURIs",
          "type": "string[]"
        },
        {
          "internalType": "bool",
          "name": "shouldMint",
          "type": "bool"
        }
      ],
      "name": "addTokensToCollection",
      "outputs": [],
      "stateMutability": "nonpayable",
      "type": "function"
    },
    {
      "inputs": [
        {
          "internalType": "address[]",
          "name": "to",
          "type": "address[]"
        },
        {
          "internalType": "string[]",
          "name": "tokenURIs",
          "type": "string[]"
        }
      ],
      "name": "addTokensToCollection",
      "outputs": [],
      "stateMutability": "nonpayable",
      "type": "function"
    },
    {
      "inputs": [
        {
          "internalType": "uint32",
          "name": "amount",
          "type": "uint32"
        },
        {
          "internalType": "string",
          "name": "baseURI",
          "type": "string"
        },
        {
          "internalType": "bool",
          "name": "shouldMint",
          "type": "bool"
        }
      ],
      "name": "addTokensWithBaseURIToCollection",
      "outputs": [],
      "stateMutability": "nonpayable",
      "type": "function"
    },
    {
      "inputs": [
        {
          "internalType": "address",
          "name": "operator",
          "type": "address"
        },
        {
          "internalType": "uint256",
          "name": "tokenId",
          "type": "uint256"
        }
      ],
      "name": "approve",
      "outputs": [],
      "stateMutability": "payable",
      "type": "function"
    },
    {
      "inputs": [
        {
          "internalType": "address",
          "name": "account",
          "type": "address"
        }
      ],
      "name": "balanceOf",
      "outputs": [
        {
          "internalType": "uint256",
          "name": "",
          "type": "uint256"
        }
      ],
      "stateMutability": "view",
      "type": "function"
    },
    {
      "inputs": [
        {
          "internalType": "uint256",
          "name": "tokenId",
          "type": "uint256"
        }
      ],
      "name": "exists",
      "outputs": [
        {
          "internalType": "bool",
          "name": "",
          "type": "bool"
        }
      ],
      "stateMutability": "view",
      "type": "function"
    },
    {
      "inputs": [
        {
          "internalType": "uint256",
          "name": "tokenId",
          "type": "uint256"
        }
      ],
      "name": "getApproved",
      "outputs": [
        {
          "internalType": "address",
          "name": "",
          "type": "address"
        }
      ],
      "stateMutability": "view",
      "type": "function"
    },
    {
      "inputs": [
        {
          "internalType": "address",
          "name": "tokenAddress",
          "type": "address"
        },
        {
          "internalType": "uint256",
          "name": "tokenId",
          "type": "uint256"
        },
        {
          "internalType": "address",
          "name": "_minter",
          "type": "address"
        },
        {
          "internalType": "address",
          "name": "_addToCollectionMinter",
          "type": "address"
        },
        {
          "internalType": "address",
          "name": "_steward",
          "type": "address"
        },
        {
          "internalType": "uint256",
          "name": "_maxTokenCount",
          "type": "uint256"
        },
        {
          "internalType": "bool",
          "name": "shouldMint",
          "type": "bool"
        },
        {
          "internalType": "string",
          "name": "name",
          "type": "string"
        },
        {
          "internalType": "string",
          "name": "symbol",
          "type": "string"
        },
        {
          "internalType": "string",
          "name": "tokenURI",
          "type": "string"
        }
      ],
      "name": "initializeWrappedStewardLicense",
      "outputs": [],
      "stateMutability": "nonpayable",
      "type": "function"
    },
    {
      "inputs": [
        {
          "internalType": "address",
          "name": "account",
          "type": "address"
        },
        {
          "internalType": "address",
          "name": "operator",
          "type": "address"
        }
      ],
      "name": "isApprovedForAll",
      "outputs": [
        {
          "internalType": "bool",
          "name": "",
          "type": "bool"
        }
      ],
      "stateMutability": "view",
      "type": "function"
    },
    {
      "inputs": [],
      "name": "maxTokenCount",
      "outputs": [
        {
          "internalType": "uint256",
          "name": "",
          "type": "uint256"
        }
      ],
      "stateMutability": "view",
      "type": "function"
    },
    {
      "inputs": [
        {
          "internalType": "address",
          "name": "to",
          "type": "address"
        },
        {
          "internalType": "uint256",
          "name": "tokenId",
          "type": "uint256"
        }
      ],
      "name": "mintToken",
      "outputs": [],
      "stateMutability": "nonpayable",
      "type": "function"
    },
    {
      "inputs": [],
      "name": "minter",
      "outputs": [
        {
          "internalType": "address",
          "name": "",
          "type": "address"
        }
      ],
      "stateMutability": "view",
      "type": "function"
    },
    {
      "inputs": [],
      "name": "name",
      "outputs": [
        {
          "internalType": "string",
          "name": "",
          "type": "string"
        }
      ],
      "stateMutability": "view",
      "type": "function"
    },
    {
      "inputs": [
        {
          "internalType": "address",
          "name": "",
          "type": "address"
        },
        {
          "internalType": "address",
          "name": "",
          "type": "address"
        },
        {
          "internalType": "uint256[]",
          "name": "ids",
          "type": "uint256[]"
        },
        {
          "internalType": "uint256[]",
          "name": "values",
          "type": "uint256[]"
        },
        {
          "internalType": "bytes",
          "name": "",
          "type": "bytes"
        }
      ],
      "name": "onERC1155BatchReceived",
      "outputs": [
        {
          "internalType": "bytes4",
          "name": "",
          "type": "bytes4"
        }
      ],
      "stateMutability": "view",
      "type": "function"
    },
    {
      "inputs": [
        {
          "internalType": "address",
          "name": "",
          "type": "address"
        },
        {
          "internalType": "address",
          "name": "",
          "type": "address"
        },
        {
          "internalType": "uint256",
          "name": "id",
          "type": "uint256"
        },
        {
          "internalType": "uint256",
          "name": "value",
          "type": "uint256"
        },
        {
          "internalType": "bytes",
          "name": "",
          "type": "bytes"
        }
      ],
      "name": "onERC1155Received",
      "outputs": [
        {
          "internalType": "bytes4",
          "name": "",
          "type": "bytes4"
        }
      ],
      "stateMutability": "view",
      "type": "function"
    },
    {
      "inputs": [
        {
          "internalType": "uint256",
          "name": "tokenId",
          "type": "uint256"
        }
      ],
      "name": "ownerOf",
      "outputs": [
        {
          "internalType": "address",
          "name": "",
          "type": "address"
        }
      ],
      "stateMutability": "view",
      "type": "function"
    },
    {
      "inputs": [
        {
          "internalType": "address",
          "name": "from",
          "type": "address"
        },
        {
          "internalType": "address",
          "name": "to",
          "type": "address"
        },
        {
          "internalType": "uint256",
          "name": "tokenId",
          "type": "uint256"
        }
      ],
      "name": "safeTransferFrom",
      "outputs": [],
      "stateMutability": "payable",
      "type": "function"
    },
    {
      "inputs": [
        {
          "internalType": "address",
          "name": "from",
          "type": "address"
        },
        {
          "internalType": "address",
          "name": "to",
          "type": "address"
        },
        {
          "internalType": "uint256",
          "name": "tokenId",
          "type": "uint256"
        },
        {
          "internalType": "bytes",
          "name": "data",
          "type": "bytes"
        }
      ],
      "name": "safeTransferFrom",
      "outputs": [],
      "stateMutability": "payable",
      "type": "function"
    },
    {
      "inputs": [
        {
          "internalType": "address",
          "name": "operator",
          "type": "address"
        },
        {
          "internalType": "bool",
          "name": "status",
          "type": "bool"
        }
      ],
      "name": "setApprovalForAll",
      "outputs": [],
      "stateMutability": "nonpayable",
      "type": "function"
    },
    {
      "inputs": [
        {
          "internalType": "bytes4",
          "name": "interfaceId",
          "type": "bytes4"
        }
      ],
      "name": "supportsInterface",
      "outputs": [
        {
          "internalType": "bool",
          "name": "",
          "type": "bool"
        }
      ],
      "stateMutability": "view",
      "type": "function"
    },
    {
      "inputs": [],
      "name": "symbol",
      "outputs": [
        {
          "internalType": "string",
          "name": "",
          "type": "string"
        }
      ],
      "stateMutability": "view",
      "type": "function"
    },
    {
      "inputs": [
        {
          "internalType": "uint256",
          "name": "index",
          "type": "uint256"
        }
      ],
      "name": "tokenByIndex",
      "outputs": [
        {
          "internalType": "uint256",
          "name": "",
          "type": "uint256"
        }
      ],
      "stateMutability": "view",
      "type": "function"
    },
    {
      "inputs": [
        {
          "internalType": "address",
          "name": "owner",
          "type": "address"
        },
        {
          "internalType": "uint256",
          "name": "index",
          "type": "uint256"
        }
      ],
      "name": "tokenOfOwnerByIndex",
      "outputs": [
        {
          "internalType": "uint256",
          "name": "",
          "type": "uint256"
        }
      ],
      "stateMutability": "view",
      "type": "function"
    },
    {
      "inputs": [
        {
          "internalType": "uint256",
          "name": "tokenId",
          "type": "uint256"
        }
      ],
      "name": "tokenURI",
      "outputs": [
        {
          "internalType": "string",
          "name": "",
          "type": "string"
        }
      ],
      "stateMutability": "view",
      "type": "function"
    },
    {
      "inputs": [],
      "name": "totalSupply",
      "outputs": [
        {
          "internalType": "uint256",
          "name": "",
          "type": "uint256"
        }
      ],
      "stateMutability": "view",
      "type": "function"
    },
    {
      "inputs": [
        {
          "internalType": "address",
          "name": "from",
          "type": "address"
        },
        {
          "internalType": "address",
          "name": "to",
          "type": "address"
        },
        {
          "internalType": "uint256",
          "name": "tokenId",
          "type": "uint256"
        }
      ],
      "name": "transferFrom",
      "outputs": [],
      "stateMutability": "payable",
      "type": "function"
    },
    {
      "inputs": [
        {
          "internalType": "address",
          "name": "from",
          "type": "address"
        },
        {
          "internalType": "address",
          "name": "to",
          "type": "address"
        },
        {
          "internalType": "uint256",
          "name": "tokenId",
          "type": "uint256"
        }
      ],
      "name": "triggerTransfer",
      "outputs": [],
      "stateMutability": "nonpayable",
      "type": "function"
    }
  ],
  "transactionHash": "0x8c24db97515c8808d74172d3123bf208ae29757ee5ba383deb410b498502feab",
  "args": [],
  "numDeployments": 1,
  "solcInputHash": "7c2f2883e0da9bf3e6298a712dbf5e36",
  "bytecode": "0x608060405234801561001057600080fd5b50613381806100206000396000f3fe6080604052600436106101b75760003560e01c80636352211e116100ec578063bc197c811161008a578063d111122f11610064578063d111122f146104b4578063e31a7c01146104d4578063e985e9c5146104f4578063f23a6e611461051457600080fd5b8063bc197c8114610446578063c4e627c21461047f578063c87b56dd1461049457600080fd5b806379c65068116100c657806379c65068146103de57806395d89b41146103fe578063a22cb46514610413578063b88d4fde1461043357600080fd5b80636352211e1461037e5780636a2e019f1461039e57806370a08231146103be57600080fd5b80632107ddfe1161015957806342842e0e1161013357806342842e0e1461030b5780634a7c554f1461031e5780634f558e791461033e5780634f6ccce71461035e57600080fd5b80632107ddfe146102b857806323b872dd146102d85780632f745c59146102eb57600080fd5b806307546172116101955780630754617214610235578063081812fc14610262578063095ea7b31461028257806318160ddd1461029557600080fd5b806301ffc9a7146101bc57806303e8224e146101f157806306fdde0314610213575b600080fd5b3480156101c857600080fd5b506101dc6101d736600461253f565b610534565b60405190151581526020015b60405180910390f35b3480156101fd57600080fd5b5061021161020c366004612657565b610577565b005b34801561021f57600080fd5b50610228610663565b6040516101e89190612797565b34801561024157600080fd5b5061024a610672565b6040516001600160a01b0390911681526020016101e8565b34801561026e57600080fd5b5061024a61027d3660046127aa565b6106a5565b6102116102903660046127c3565b6106b0565b3480156102a157600080fd5b506102aa61073c565b6040519081526020016101e8565b3480156102c457600080fd5b506102116102d33660046128a1565b610746565b6102116102e63660046128f2565b6107d7565b3480156102f757600080fd5b506102aa6103063660046127c3565b610809565b6102116103193660046128f2565b61081c565b34801561032a57600080fd5b50610211610339366004612933565b610837565b34801561034a57600080fd5b506101dc6103593660046127aa565b61090b565b34801561036a57600080fd5b506102aa6103793660046127aa565b610916565b34801561038a57600080fd5b5061024a6103993660046127aa565b610921565b3480156103aa57600080fd5b506102116103b93660046129f4565b61092c565b3480156103ca57600080fd5b506102aa6103d9366004612a39565b61094e565b3480156103ea57600080fd5b506102116103f93660046127c3565b610959565b34801561040a57600080fd5b50610228610b91565b34801561041f57600080fd5b5061021161042e366004612a56565b610b9b565b610211610441366004612a84565b610c4f565b34801561045257600080fd5b50610466610461366004612b88565b610c82565b6040516001600160e01b031990911681526020016101e8565b34801561048b57600080fd5b506102aa610dc0565b3480156104a057600080fd5b506102286104af3660046127aa565b610dd8565b3480156104c057600080fd5b506102116104cf366004612c46565b610de3565b3480156104e057600080fd5b506102116104ef3660046128f2565b610e35565b34801561050057600080fd5b506101dc61050f366004612cb2565b610eca565b34801561052057600080fd5b5061046661052f366004612ce0565b610ed6565b6001600160e01b0319811660009081527ffc606c433378e3a7e0a6a531deac289b66caa1b4aa8554fd4ab2c6f1570f92d8602052604081205460ff165b92915050565b60008051602061328c8339815191525460ff16156105e95760405162461bcd60e51b8152602060048201526036602482015260008051602061330c8339815191526044820152751d0e88185b1c9958591e481a5b9a5d1a585b1a5e995960521b60648201526084015b60405180910390fd5b7f4f3bc7155d2db681e29af52d1119e27d8b92f937da5bb676ae6155a2e77a3c6d80546001600160a01b0319166001600160a01b038c161790557f4f3bc7155d2db681e29af52d1119e27d8b92f937da5bb676ae6155a2e77a3c6e8990556106578888888888888888610fc8565b50505050505050505050565b606061066d611112565b905090565b600061066d7f79ec1734da2430052e9d78936f451aad707e5bed12ef4806b06dc3d0c38f0e31546001600160a01b031690565b6000610571826111b1565b60006106bb82610921565b9050806001600160a01b0316836001600160a01b0316036106ef5760405163424a22cb60e01b815260040160405180910390fd5b336001600160a01b0382161480159061070f575061070d8133610eca565b155b1561072d57604051632f5de44f60e01b815260040160405180910390fd5b6107378383611214565b505050565b600061066d6112a1565b60008051602061332c83398151915261075e816112ba565b60005b83518110156107d157600083156107975760008051602061328c8339815191525461010090046001600160a01b0316905061079b565b5060005b6107be818684815181106107b1576107b1612d5b565b60200260200101516112c7565b50806107c981612d87565b915050610761565b50505050565b6107e1338261134d565b6107fe57604051632f5de44f60e01b815260040160405180910390fd5b6107378383836113d3565b60006108158383611502565b9392505050565b61073783838360405180602001604052806000815250610c4f565b60008051602061332c83398151915261084f816112ba565b81518351146108be5760405162461bcd60e51b815260206004820152603560248201527f537465776172644c6963656e736546616365743a20746f20616e6420746f6b656044820152740dcaaa492e640d8cadccee8d040dad2e6dac2e8c6d605b1b60648201526084016105e0565b60005b82518110156107d1576108f98482815181106108df576108df612d5b565b60200260200101518483815181106107b1576107b1612d5b565b8061090381612d87565b9150506108c1565b600061057182611531565b60006105718261154b565b60006105718261156c565b60008051602061332c833981519152610944816112ba565b61073783836112c7565b6000610571826115b0565b306001600160a01b0316633882ce8e6040518163ffffffff1660e01b8152600401602060405180830381865afa158015610997573d6000803e3d6000fd5b505050506040513d601f19601f820116820180604052508101906109bb9190612da0565b6001600160a01b0316336001600160a01b031614610a415760405162461bcd60e51b815260206004820152603760248201527f537465776172644c6963656e736546616365743a206f6e6c7920696e6974696160448201527f6c206269646465722063616e206d696e7420746f6b656e00000000000000000060648201526084016105e0565b306001600160a01b031663be6a2a6d6040518163ffffffff1660e01b8152600401602060405180830381865afa158015610a7f573d6000803e3d6000fd5b505050506040513d601f19601f82011682018060405250810190610aa39190612dbd565b4210610b19576040805162461bcd60e51b81526020600482015260248101919091527f537465776172644c6963656e736546616365743a2063616e6e6f74206d696e7460448201527f20616674657220696e697469616c20706572696f642073746172742074696d6560648201526084016105e0565b610b2281611531565b15610b815760405162461bcd60e51b815260206004820152602960248201527f537465776172644c6963656e736546616365743a20546f6b656e20616c72656160448201526864792065786973747360b81b60648201526084016105e0565b610b8d60008383611607565b5050565b606061066d611623565b336001600160a01b03831603610bc45760405163424a22cb60e01b815260040160405180910390fd5b3360008181527f3c7bf052874fa81625121783266a03507bd2cd48b16e571c01a04e8dd3fb07aa602090815260408083206001600160a01b03871680855290835292819020805460ff191686151590811790915590519081529192917f17307eab39ab6107e8899845ad3d59bd9653f200f220920489ca2b5937696c31910160405180910390a35050565b610c59338361134d565b610c7657604051632f5de44f60e01b815260040160405180910390fd5b6107d184848484611642565b6000600186148015610c945750600184145b8015610cb9575084846000818110610cae57610cae612d5b565b905060200201356001145b610cd55760405162461bcd60e51b81526004016105e090612dd6565b60008051602061328c8339815191525460ff161515600114610d095760405162461bcd60e51b81526004016105e090612e21565b7f4f3bc7155d2db681e29af52d1119e27d8b92f937da5bb676ae6155a2e77a3c6d546001600160a01b03163314610d525760405162461bcd60e51b81526004016105e090612e65565b7f4f3bc7155d2db681e29af52d1119e27d8b92f937da5bb676ae6155a2e77a3c6e5487876000818110610d8757610d87612d5b565b9050602002013514610dab5760405162461bcd60e51b81526004016105e090612ebc565b5063bc197c8160e01b98975050505050505050565b600061066d6000805160206132cc8339815191525490565b606061057182611676565b60008051602061332c833981519152610dfb816112ba565b60005b8463ffffffff168163ffffffff161015610e2e57610e1c848461185a565b80610e2681612f07565b915050610dfe565b5050505050565b333014610ebf5760405162461bcd60e51b815260206004820152604c60248201527f4e6174697665537465776172644c6963656e73653a205472696767657220747260448201527f616e736665722063616e206f6e6c792062652063616c6c65642066726f6d206160648201526b1b9bdd1a195c88199858d95d60a21b608482015260a4016105e0565b610737838383611607565b6000610815838361190d565b600083600114610ef85760405162461bcd60e51b81526004016105e090612dd6565b60008051602061328c8339815191525460ff161515600114610f2c5760405162461bcd60e51b81526004016105e090612e21565b7f4f3bc7155d2db681e29af52d1119e27d8b92f937da5bb676ae6155a2e77a3c6d546001600160a01b03163314610f755760405162461bcd60e51b81526004016105e090612e65565b7f4f3bc7155d2db681e29af52d1119e27d8b92f937da5bb676ae6155a2e77a3c6e548514610fb55760405162461bcd60e51b81526004016105e090612ebc565b5063f23a6e6160e01b9695505050505050565b60008051602061328c83398151915280546001600160a01b03888116610100026001600160a81b03199092169190911760011782557f79ec1734da2430052e9d78936f451aad707e5bed12ef4806b06dc3d0c38f0e318054918b166001600160a01b03199092169190911790556000805160206132cc83398151915286905560006000805160206132ec8339815191529050806110658682612fb2565b50600181016110748582612fb2565b50600281016110838482612fb2565b506110966301ffc9a760e01b600161195a565b6110a86380ac58cd60e01b600161195a565b6110c060008051602061332c8339815191528a6119d0565b6110d860008051602061332c83398151915280611a44565b85156106575760005b87811015611105576110f38982611aae565b806110fd81612d87565b9150506110e1565b5050505050505050505050565b60606000805160206132ec833981519152805461112e90612f2a565b80601f016020809104026020016040519081016040528092919081815260200182805461115a90612f2a565b80156111a75780601f1061117c576101008083540402835291602001916111a7565b820191906000526020600020905b81548152906001019060200180831161118a57829003601f168201915b5050505050905090565b60006111bc82611531565b6111d95760405163c1b843ef60e01b815260040160405180910390fd5b5060009081527f3c7bf052874fa81625121783266a03507bd2cd48b16e571c01a04e8dd3fb07a960205260409020546001600160a01b031690565b60008181527f3c7bf052874fa81625121783266a03507bd2cd48b16e571c01a04e8dd3fb07a96020526040902080546001600160a01b0319166001600160a01b03841690811790915581906112688261156c565b6001600160a01b03167f8c5be1e5ebec7d5bd14f71427d1e84f3dd0314c0f7b2291e5b200ac8c7c3b92560405160405180910390a45050565b600061066d6000805160206132ac833981519152611b91565b6112c48133611b9b565b50565b6000805160206132cc833981519152805460008051602061328c8339815191529160019060006112f78385613071565b909155505060008181527f99574a7094154bb123ae6ae102096f0bf9679b85a5cd1e727aaa0ae5f132e6b4602052604090206113338482612fb2565b506001600160a01b038416156107d1576107d18482611aae565b600061135882611531565b6113755760405163c1b843ef60e01b815260040160405180910390fd5b60006113808361156c565b9050806001600160a01b0316846001600160a01b031614806113bb5750836001600160a01b03166113b0846111b1565b6001600160a01b0316145b806113cb57506113cb818561190d565b949350505050565b826001600160a01b03166113e68261156c565b6001600160a01b03161461140d57604051630f2db4ad60e01b815260040160405180910390fd5b6001600160a01b038216611434576040516340311a0960e01b815260040160405180910390fd5b61143f838383611bfd565b61144a600082611214565b6001600160a01b038316600090815260008051602061326c833981519152602052604090206000805160206132ac833981519152906114899083611cf2565b506001600160a01b038316600090815260028201602052604090206114ae9083611cfe565b506114ba818385611d0a565b5081836001600160a01b0316856001600160a01b03167fddf252ad1be2c89b69c2b068fc378daa952ba7f163c4a11628f55a4df523b3ef60405160405180910390a450505050565b6001600160a01b038216600090815260008051602061326c833981519152602052604081206108159083611d20565b60006105716000805160206132ac83398151915283611d2c565b60006115656000805160206132ac83398151915283611d44565b5092915050565b6000806115876000805160206132ac83398151915284611d62565b90506001600160a01b03811661057157604051637e1a7d8b60e01b815260040160405180910390fd5b60006001600160a01b0382166115d957604051630810ff9760e41b815260040160405180910390fd5b6001600160a01b038216600090815260008051602061326c8339815191526020526040902061057190611b91565b61161081611531565b15156000036107fe576107378282611aae565b60606000805160206132ec833981519152600101805461112e90612f2a565b61164d8484846113d3565b61165984848484611d6e565b6107d157604051639ff10cdd60e01b815260040160405180910390fd5b6000805160206132cc8339815191525460609060008051602061328c8339815191529083106116b757604051624705a760e71b815260040160405180910390fd5b60008381527f99574a7094154bb123ae6ae102096f0bf9679b85a5cd1e727aaa0ae5f132e6b46020526040812080546000805160206132ec83398151915292919061170190612f2a565b80601f016020809104026020016040519081016040528092919081815260200182805461172d90612f2a565b801561177a5780601f1061174f5761010080835404028352916020019161177a565b820191906000526020600020905b81548152906001019060200180831161175d57829003601f168201915b50505050509050600082600201805461179290612f2a565b80601f01602080910402602001604051908101604052809291908181526020018280546117be90612f2a565b801561180b5780601f106117e05761010080835404028352916020019161180b565b820191906000526020600020905b8154815290600101906020018083116117ee57829003601f168201915b505050505090506000825111156118255750949350505050565b8061182f87611e3f565b604051602001611840929190613084565b604051602081830303815290604052945050505050919050565b6000805160206132cc833981519152805460008051602061328c83398151915291600190600061188a8385613071565b9091555084905061189a82611e3f565b6040516020016118ab929190613084565b6040516020818303038152906040526118cf6000805160206132ec83398151915290565b600083815260039190910160205260409020906118ec9082612fb2565b5082156107d15781546107d19061010090046001600160a01b031682611aae565b6001600160a01b0391821660009081527f3c7bf052874fa81625121783266a03507bd2cd48b16e571c01a04e8dd3fb07aa6020908152604080832093909416825291909152205460ff1690565b6001600160e01b031980831690036119855760405163b0a19dd560e01b815260040160405180910390fd5b6001600160e01b03199190911660009081527ffc606c433378e3a7e0a6a531deac289b66caa1b4aa8554fd4ab2c6f1570f92d860205260409020805460ff1916911515919091179055565b60008281527fd3889cc5458b268d0544e5534672df1296288ca3f93cbd39bd6f497a5c62281160205260409020611a079082611f3f565b5060405133906001600160a01b0383169084907f2f8788117e7eff1d82e926ec794901d17c78024a50270940304540a733656f0d90600090a45050565b60008281527fd3889cc5458b268d0544e5534672df1296288ca3f93cbd39bd6f497a5c6228116020526040808220600201805490849055905190918391839186917fbd79b86ffe0ab8e8776151514217cd7cacd52c909f66475c3af44e129f0b00ff9190a4505050565b6001600160a01b038216611ad5576040516311f2988d60e11b815260040160405180910390fd5b611ade81611531565b15611afc57604051630d86bb7b60e31b815260040160405180910390fd5b611b0860008383611bfd565b6001600160a01b038216600090815260008051602061326c833981519152602052604090206000805160206132ac83398151915290611b479083611cfe565b50611b53818385611d0a565b5060405182906001600160a01b038516906000907fddf252ad1be2c89b69c2b068fc378daa952ba7f163c4a11628f55a4df523b3ef908290a4505050565b6000610571825490565b611ba58282611f54565b610b8d57611bbb816001600160a01b0316611f8b565b611bc6836020611f9d565b604051602001611bd79291906130b3565b60408051601f198184030181529082905262461bcd60e51b82526105e091600401612797565b6001600160a01b03831615611ce75760405163a7c12c1160e01b815260048101829052600090309063a7c12c1190602401602060405180830381865afa158015611c4b573d6000803e3d6000fd5b505050506040513d601f19601f82011682018060405250810190611c6f9190613128565b90508015611ce55760405162461bcd60e51b815260206004820152603a60248201527f537465776172644c6963656e736546616365743a2043616e6e6f74207472616e60448201527f7366657220647572696e672061756374696f6e20706572696f6400000000000060648201526084016105e0565b505b6107378383836120ef565b600061081583836120fa565b600061081583836121b4565b60006113cb84846001600160a01b0385166121f7565b60006108158383612296565b60008181526001830160205260408120541515610815565b6000808080611d5386866122e2565b909450925050505b9250929050565b60006108158383612345565b60006001600160a01b0384163b611d87575060016113cb565b6000611e0863150b7a0260e01b33888787604051602401611dab9493929190613145565b604051602081830303815290604052906001600160e01b0319166020820180516001600160e01b03838183161783525050505060405180606001604052806032815260200161323a603291396001600160a01b03881691906123a9565b9050600081806020019051810190611e209190613182565b6001600160e01b031916630a85bd0160e11b1492505050949350505050565b606081600003611e665750506040805180820190915260018152600360fc1b602082015290565b8160005b8115611e905780611e7a81612d87565b9150611e899050600a836131b5565b9150611e6a565b6000816001600160401b03811115611eaa57611eaa61259a565b6040519080825280601f01601f191660200182016040528015611ed4576020820181803683370190505b5090505b84156113cb57611ee96001836131c9565b9150611ef6600a866131dc565b611f01906030613071565b60f81b818381518110611f1657611f16612d5b565b60200101906001600160f81b031916908160001a905350611f38600a866131b5565b9450611ed8565b6000610815836001600160a01b0384166121b4565b60008281527fd3889cc5458b268d0544e5534672df1296288ca3f93cbd39bd6f497a5c6228116020526040812061081590836123b8565b60606105716001600160a01b03831660145b60606000611fac8360026131f0565b611fb7906002613071565b6001600160401b03811115611fce57611fce61259a565b6040519080825280601f01601f191660200182016040528015611ff8576020820181803683370190505b509050600360fc1b8160008151811061201357612013612d5b565b60200101906001600160f81b031916908160001a905350600f60fb1b8160018151811061204257612042612d5b565b60200101906001600160f81b031916908160001a905350600160028402015b60018111156120cf576f181899199a1a9b1b9c1cb0b131b232b360811b85600f166010811061209257612092612d5b565b1a60f81b8282815181106120a8576120a8612d5b565b60200101906001600160f81b031916908160001a90535060049490941c9360001901612061565b5083156108155760405163c913478560e01b815260040160405180910390fd5b6107378383836123da565b600081815260018301602052604081205480156115655783546000908590600019810190811061212c5761212c612d5b565b906000526020600020015490508085600001600184038154811061215257612152612d5b565b600091825260208083209091019290925591825260018601905260409020819055835484908061218457612184613207565b60008281526020808220830160001990810183905590920190925593815260019485019093525050604081205590565b6000818152600183016020526040812054610571575081546001808201845560008481526020808220909301849055845493815293810190915260409092205590565b600082815260018401602052604081205480820361225e575050604080518082018252838152602080820184815286546001818101895560008981528481209551600290930290950191825591519082015586548684528188019092529290912055610815565b8285600001600183038154811061227757612277612d5b565b9060005260206000209060020201600101819055506000915050610815565b815460009082106122ba5760405163e637bf3b60e01b815260040160405180910390fd5b8260000182815481106122cf576122cf612d5b565b9060005260206000200154905092915050565b8154600090819083106123085760405163022fd82760e31b815260040160405180910390fd5b600084600001848154811061231f5761231f612d5b565b906000526020600020906002020190508060000154816001015492509250509250929050565b600081815260018301602052604081205480820361237657604051633d547ec560e21b815260040160405180910390fd5b83600001600182038154811061238e5761238e612d5b565b90600052602060002090600202016001015491505092915050565b60606113cb848460008561241e565b6001600160a01b03811660009081526001830160205260408120541515610815565b6001600160a01b0382166107375760008181527f99574a7094154bb123ae6ae102096f0bf9679b85a5cd1e727aaa0ae5f132e6b460205260408120610737916124db565b6060843b61243f57604051632270d6bf60e21b815260040160405180910390fd5b600080866001600160a01b0316858760405161245b919061321d565b60006040518083038185875af1925050503d8060008114612498576040519150601f19603f3d011682016040523d82523d6000602084013e61249d565b606091505b509150915081156124b15791506113cb9050565b8051156124c15780518082602001fd5b8360405162461bcd60e51b81526004016105e09190612797565b5080546124e790612f2a565b6000825580601f106124f7575050565b601f0160209004906000526020600020908101906112c491905b808211156125255760008155600101612511565b5090565b6001600160e01b0319811681146112c457600080fd5b60006020828403121561255157600080fd5b813561081581612529565b6001600160a01b03811681146112c457600080fd5b803561257c8161255c565b919050565b80151581146112c457600080fd5b803561257c81612581565b634e487b7160e01b600052604160045260246000fd5b604051601f8201601f191681016001600160401b03811182821017156125d8576125d861259a565b604052919050565b60006001600160401b038311156125f9576125f961259a565b61260c601f8401601f19166020016125b0565b905082815283838301111561262057600080fd5b828260208301376000602084830101529392505050565b600082601f83011261264857600080fd5b610815838335602085016125e0565b6000806000806000806000806000806101408b8d03121561267757600080fd5b6126808b612571565b995060208b0135985061269560408c01612571565b97506126a360608c01612571565b96506126b160808c01612571565b955060a08b013594506126c660c08c0161258f565b935060e08b01356001600160401b03808211156126e257600080fd5b6126ee8e838f01612637565b94506101008d013591508082111561270557600080fd5b6127118e838f01612637565b93506101208d013591508082111561272857600080fd5b506127358d828e01612637565b9150509295989b9194979a5092959850565b60005b8381101561276257818101518382015260200161274a565b50506000910152565b60008151808452612783816020860160208601612747565b601f01601f19169290920160200192915050565b602081526000610815602083018461276b565b6000602082840312156127bc57600080fd5b5035919050565b600080604083850312156127d657600080fd5b82356127e18161255c565b946020939093013593505050565b60006001600160401b038211156128085761280861259a565b5060051b60200190565b600082601f83011261282357600080fd5b81356020612838612833836127ef565b6125b0565b82815260059290921b8401810191818101908684111561285757600080fd5b8286015b848110156128965780356001600160401b0381111561287a5760008081fd5b6128888986838b0101612637565b84525091830191830161285b565b509695505050505050565b600080604083850312156128b457600080fd5b82356001600160401b038111156128ca57600080fd5b6128d685828601612812565b92505060208301356128e781612581565b809150509250929050565b60008060006060848603121561290757600080fd5b83356129128161255c565b925060208401356129228161255c565b929592945050506040919091013590565b6000806040838503121561294657600080fd5b82356001600160401b038082111561295d57600080fd5b818501915085601f83011261297157600080fd5b81356020612981612833836127ef565b82815260059290921b840181019181810190898411156129a057600080fd5b948201945b838610156129c75785356129b88161255c565b825294820194908201906129a5565b965050860135925050808211156129dd57600080fd5b506129ea85828601612812565b9150509250929050565b60008060408385031215612a0757600080fd5b8235612a128161255c565b915060208301356001600160401b03811115612a2d57600080fd5b6129ea85828601612637565b600060208284031215612a4b57600080fd5b81356108158161255c565b60008060408385031215612a6957600080fd5b8235612a748161255c565b915060208301356128e781612581565b60008060008060808587031215612a9a57600080fd5b8435612aa58161255c565b93506020850135612ab58161255c565b92506040850135915060608501356001600160401b03811115612ad757600080fd5b8501601f81018713612ae857600080fd5b612af7878235602084016125e0565b91505092959194509250565b60008083601f840112612b1557600080fd5b5081356001600160401b03811115612b2c57600080fd5b6020830191508360208260051b8501011115611d5b57600080fd5b60008083601f840112612b5957600080fd5b5081356001600160401b03811115612b7057600080fd5b602083019150836020828501011115611d5b57600080fd5b60008060008060008060008060a0898b031215612ba457600080fd5b8835612baf8161255c565b97506020890135612bbf8161255c565b965060408901356001600160401b0380821115612bdb57600080fd5b612be78c838d01612b03565b909850965060608b0135915080821115612c0057600080fd5b612c0c8c838d01612b03565b909650945060808b0135915080821115612c2557600080fd5b50612c328b828c01612b47565b999c989b5096995094979396929594505050565b600080600060608486031215612c5b57600080fd5b833563ffffffff81168114612c6f57600080fd5b925060208401356001600160401b03811115612c8a57600080fd5b612c9686828701612637565b9250506040840135612ca781612581565b809150509250925092565b60008060408385031215612cc557600080fd5b8235612cd08161255c565b915060208301356128e78161255c565b60008060008060008060a08789031215612cf957600080fd5b8635612d048161255c565b95506020870135612d148161255c565b9450604087013593506060870135925060808701356001600160401b03811115612d3d57600080fd5b612d4989828a01612b47565b979a9699509497509295939492505050565b634e487b7160e01b600052603260045260246000fd5b634e487b7160e01b600052601160045260246000fd5b600060018201612d9957612d99612d71565b5060010190565b600060208284031215612db257600080fd5b81516108158161255c565b600060208284031215612dcf57600080fd5b5051919050565b6020808252603d9082015260008051602061330c83398151915260408201527f743a2063616e206f6e6c792072656365697665206f6e6520746f6b656e000000606082015260800190565b602080825260369082015260008051602061330c8339815191526040820152751d0e881b5d5cdd081899481a5b9a5d1a585b1a5e995960521b606082015260800190565b602080825260439082015260008051602061330c83398151915260408201527f743a2063616e6e6f7420616363657074207468697320746f6b656e206164647260608201526265737360e81b608082015260a00190565b6020808252603e9082015260008051602061330c83398151915260408201527f743a2063616e6e6f7420616363657074207468697320746f6b656e2049440000606082015260800190565b600063ffffffff808316818103612f2057612f20612d71565b6001019392505050565b600181811c90821680612f3e57607f821691505b602082108103612f5e57634e487b7160e01b600052602260045260246000fd5b50919050565b601f82111561073757600081815260208120601f850160051c81016020861015612f8b5750805b601f850160051c820191505b81811015612faa57828155600101612f97565b505050505050565b81516001600160401b03811115612fcb57612fcb61259a565b612fdf81612fd98454612f2a565b84612f64565b602080601f8311600181146130145760008415612ffc5750858301515b600019600386901b1c1916600185901b178555612faa565b600085815260208120601f198616915b8281101561304357888601518255948401946001909101908401613024565b50858210156130615787850151600019600388901b60f8161c191681555b5050505050600190811b01905550565b8082018082111561057157610571612d71565b60008351613096818460208801612747565b8351908301906130aa818360208801612747565b01949350505050565b7f416363657373436f6e74726f6c3a206163636f756e74200000000000000000008152600083516130eb816017850160208801612747565b7001034b99036b4b9b9b4b733903937b6329607d1b601791840191820152835161311c816028840160208801612747565b01602801949350505050565b60006020828403121561313a57600080fd5b815161081581612581565b6001600160a01b03858116825284166020820152604081018390526080606082018190526000906131789083018461276b565b9695505050505050565b60006020828403121561319457600080fd5b815161081581612529565b634e487b7160e01b600052601260045260246000fd5b6000826131c4576131c461319f565b500490565b8181038181111561057157610571612d71565b6000826131eb576131eb61319f565b500690565b808202811582820484141761057157610571612d71565b634e487b7160e01b600052603160045260246000fd5b6000825161322f818460208701612747565b919091019291505056fe4552433732313a207472616e7366657220746f206e6f6e20455243373231526563656976657220696d706c656d656e7465723c7bf052874fa81625121783266a03507bd2cd48b16e571c01a04e8dd3fb07a879ec1734da2430052e9d78936f451aad707e5bed12ef4806b06dc3d0c38f0e303c7bf052874fa81625121783266a03507bd2cd48b16e571c01a04e8dd3fb07a679ec1734da2430052e9d78936f451aad707e5bed12ef4806b06dc3d0c38f0e3299574a7094154bb123ae6ae102096f0bf9679b85a5cd1e727aaa0ae5f132e6b15772617070656445524331313535537465776172644c6963656e7365466163657b62b800d8c954aa32a34a9249066e0f8761d6c1614c95cbc05c04ab0583a14ca26469706673582212202667fccace85894bf4af2ad9c4126a01ea4c094e7e1132b195e9a16847deb2e164736f6c63430008110033",
  "devdoc": {
    "details": "ERC-721 token license for Steward that wraps existing ERC-1155. Transfers are disabled during an auction.",
    "kind": "dev",
    "methods": {
      "approve(address,uint256)": {
        "params": {
          "operator": "address to be approved",
          "tokenId": "token to approve"
        }
      },
      "balanceOf(address)": {
        "returns": {
          "_0": "quantity of tokens held"
        }
      },
      "getApproved(uint256)": {
        "params": {
          "tokenId": "token to query"
        },
        "returns": {
          "_0": "address approved to spend token"
        }
      },
      "isApprovedForAll(address,address)": {
        "params": {
          "account": "address to query for approval granted",
          "operator": "address to query for approval received"
        },
        "returns": {
          "_0": "whether operator is approved to spend tokens held by account"
        }
      },
      "ownerOf(uint256)": {
        "params": {
          "tokenId": "token to query"
        },
        "returns": {
          "_0": "token owner"
        }
      },
      "safeTransferFrom(address,address,uint256)": {
        "params": {
          "from": "sender of token",
          "to": "receiver of token",
          "tokenId": "token id"
        }
      },
      "safeTransferFrom(address,address,uint256,bytes)": {
        "params": {
          "data": "data payload",
          "from": "sender of token",
          "to": "receiver of token",
          "tokenId": "token id"
        }
      },
      "setApprovalForAll(address,bool)": {
        "params": {
          "operator": "address to be approved",
          "status": "approval status"
        }
      },
      "supportsInterface(bytes4)": {
        "params": {
          "interfaceId": "interface id"
        },
        "returns": {
          "_0": "bool whether interface is supported"
        }
      },
      "tokenByIndex(uint256)": {
        "params": {
          "index": "position in global token list to query"
        },
        "returns": {
          "_0": "id of retrieved token"
        }
      },
      "tokenOfOwnerByIndex(address,uint256)": {
        "params": {
          "index": "position in owner's token list to query",
          "owner": "token holder to query"
        },
        "returns": {
          "_0": "id of retrieved token"
        }
      },
      "totalSupply()": {
        "returns": {
          "_0": "total supply"
        }
      },
      "transferFrom(address,address,uint256)": {
        "params": {
          "from": "sender of token",
          "to": "receiver of token",
          "tokenId": "token id"
        }
      }
    },
    "title": "WrappedERC1155StewardLicenseFacet",
    "version": 1
  },
  "userdoc": {
    "kind": "user",
    "methods": {
      "addTokenToCollection(address,string)": {
        "notice": "Add token to collection"
      },
      "addTokensToCollection(address[],string[])": {
        "notice": "Add tokens to collection with to"
      },
      "addTokensToCollection(string[],bool)": {
        "notice": "Add tokens to collection"
      },
      "addTokensWithBaseURIToCollection(uint32,string,bool)": {
        "notice": "Add tokens to collection with baseURI"
      },
      "approve(address,uint256)": {
        "notice": "grant approval to given account to spend token"
      },
      "balanceOf(address)": {
        "notice": "query the balance of given address"
      },
      "exists(uint256)": {
        "notice": "Check if token exists"
      },
      "getApproved(uint256)": {
        "notice": "get approval status for given token"
      },
      "initializeWrappedStewardLicense(address,uint256,address,address,address,uint256,bool,string,string,string)": {
        "notice": "Initialize license"
      },
      "isApprovedForAll(address,address)": {
        "notice": "query approval status of given operator with respect to given address"
      },
      "maxTokenCount()": {
        "notice": "Get max token count"
      },
      "mintToken(address,uint256)": {
        "notice": "Initial bidder can mint token if it doesn't exist"
      },
      "minter()": {
        "notice": "Get minter"
      },
      "name()": {
        "notice": "inheritdoc IERC721Metadata"
      },
      "ownerOf(uint256)": {
        "notice": "query the owner of given token"
      },
      "safeTransferFrom(address,address,uint256)": {
        "notice": "transfer token between given addresses, checking for ERC721Receiver implementation if applicable"
      },
      "safeTransferFrom(address,address,uint256,bytes)": {
        "notice": "transfer token between given addresses, checking for ERC721Receiver implementation if applicable"
      },
      "setApprovalForAll(address,bool)": {
        "notice": "grant approval to or revoke approval from given account to spend all tokens held by sender"
      },
      "supportsInterface(bytes4)": {
        "notice": "query whether contract has registered support for given interface"
      },
      "symbol()": {
        "notice": "inheritdoc IERC721Metadata"
      },
      "tokenByIndex(uint256)": {
        "notice": "get token at given internal storage index"
      },
      "tokenOfOwnerByIndex(address,uint256)": {
        "notice": "get token of given owner at given internal storage index"
      },
      "tokenURI(uint256)": {
        "notice": "inheritdoc IERC721Metadata"
      },
      "totalSupply()": {
        "notice": "get total token supply"
      },
      "transferFrom(address,address,uint256)": {
        "notice": "transfer token between given addresses, without checking for ERC721Receiver implementation if applicable"
      },
      "triggerTransfer(address,address,uint256)": {
        "notice": "Trigger transfer of license"
      }
    },
    "version": 1
  },
  "storageLayout": {
    "storage": [],
    "types": null
  }
}