{
  "address": "0xAa23A59F83de01dD06D7E125cd2acB911147A06F",
  "abi": [
    {
      "inputs": [],
      "name": "AddressUtils__NotContract",
      "type": "error"
    },
    {
      "inputs": [],
      "name": "ERC165Base__InvalidInterfaceId",
      "type": "error"
    },
    {
      "inputs": [],
      "name": "ERC721Base__BalanceQueryZeroAddress",
      "type": "error"
    },
    {
      "inputs": [],
      "name": "ERC721Base__ERC721ReceiverNotImplemented",
      "type": "error"
    },
    {
      "inputs": [],
      "name": "ERC721Base__InvalidOwner",
      "type": "error"
    },
    {
      "inputs": [],
      "name": "ERC721Base__MintToZeroAddress",
      "type": "error"
    },
    {
      "inputs": [],
      "name": "ERC721Base__NonExistentToken",
      "type": "error"
    },
    {
      "inputs": [],
      "name": "ERC721Base__NotOwnerOrApproved",
      "type": "error"
    },
    {
      "inputs": [],
      "name": "ERC721Base__NotTokenOwner",
      "type": "error"
    },
    {
      "inputs": [],
      "name": "ERC721Base__SelfApproval",
      "type": "error"
    },
    {
      "inputs": [],
      "name": "ERC721Base__TokenAlreadyMinted",
      "type": "error"
    },
    {
      "inputs": [],
      "name": "ERC721Base__TransferToZeroAddress",
      "type": "error"
    },
    {
      "inputs": [],
      "name": "ERC721Metadata__NonExistentToken",
      "type": "error"
    },
    {
      "inputs": [],
      "name": "EnumerableMap__IndexOutOfBounds",
      "type": "error"
    },
    {
      "inputs": [],
      "name": "EnumerableMap__NonExistentKey",
      "type": "error"
    },
    {
      "inputs": [],
      "name": "EnumerableSet__IndexOutOfBounds",
      "type": "error"
    },
    {
      "inputs": [],
      "name": "UintUtils__InsufficientHexLength",
      "type": "error"
    },
    {
      "anonymous": false,
      "inputs": [
        {
          "indexed": true,
          "internalType": "address",
          "name": "owner",
          "type": "address"
        },
        {
          "indexed": true,
          "internalType": "address",
          "name": "operator",
          "type": "address"
        },
        {
          "indexed": true,
          "internalType": "uint256",
          "name": "tokenId",
          "type": "uint256"
        }
      ],
      "name": "Approval",
      "type": "event"
    },
    {
      "anonymous": false,
      "inputs": [
        {
          "indexed": true,
          "internalType": "address",
          "name": "owner",
          "type": "address"
        },
        {
          "indexed": true,
          "internalType": "address",
          "name": "operator",
          "type": "address"
        },
        {
          "indexed": false,
          "internalType": "bool",
          "name": "approved",
          "type": "bool"
        }
      ],
      "name": "ApprovalForAll",
      "type": "event"
    },
    {
      "anonymous": false,
      "inputs": [
        {
          "indexed": true,
          "internalType": "bytes32",
          "name": "role",
          "type": "bytes32"
        },
        {
          "indexed": true,
          "internalType": "bytes32",
          "name": "previousAdminRole",
          "type": "bytes32"
        },
        {
          "indexed": true,
          "internalType": "bytes32",
          "name": "newAdminRole",
          "type": "bytes32"
        }
      ],
      "name": "RoleAdminChanged",
      "type": "event"
    },
    {
      "anonymous": false,
      "inputs": [
        {
          "indexed": true,
          "internalType": "bytes32",
          "name": "role",
          "type": "bytes32"
        },
        {
          "indexed": true,
          "internalType": "address",
          "name": "account",
          "type": "address"
        },
        {
          "indexed": true,
          "internalType": "address",
          "name": "sender",
          "type": "address"
        }
      ],
      "name": "RoleGranted",
      "type": "event"
    },
    {
      "anonymous": false,
      "inputs": [
        {
          "indexed": true,
          "internalType": "bytes32",
          "name": "role",
          "type": "bytes32"
        },
        {
          "indexed": true,
          "internalType": "address",
          "name": "account",
          "type": "address"
        },
        {
          "indexed": true,
          "internalType": "address",
          "name": "sender",
          "type": "address"
        }
      ],
      "name": "RoleRevoked",
      "type": "event"
    },
    {
      "anonymous": false,
      "inputs": [
        {
          "indexed": true,
          "internalType": "address",
          "name": "from",
          "type": "address"
        },
        {
          "indexed": true,
          "internalType": "address",
          "name": "to",
          "type": "address"
        },
        {
          "indexed": true,
          "internalType": "uint256",
          "name": "tokenId",
          "type": "uint256"
        }
      ],
      "name": "Transfer",
      "type": "event"
    },
    {
      "inputs": [
        {
          "internalType": "address",
          "name": "to",
          "type": "address"
        },
        {
          "internalType": "string",
          "name": "tokenURI",
          "type": "string"
        }
      ],
      "name": "addTokenToCollection",
      "outputs": [],
      "stateMutability": "nonpayable",
      "type": "function"
    },
    {
      "inputs": [
        {
          "internalType": "string[]",
          "name": "tokenURIs",
          "type": "string[]"
        },
        {
          "internalType": "bool",
          "name": "shouldMint",
          "type": "bool"
        }
      ],
      "name": "addTokensToCollection",
      "outputs": [],
      "stateMutability": "nonpayable",
      "type": "function"
    },
    {
      "inputs": [
        {
          "internalType": "address[]",
          "name": "to",
          "type": "address[]"
        },
        {
          "internalType": "string[]",
          "name": "tokenURIs",
          "type": "string[]"
        }
      ],
      "name": "addTokensToCollection",
      "outputs": [],
      "stateMutability": "nonpayable",
      "type": "function"
    },
    {
      "inputs": [
        {
          "internalType": "uint32",
          "name": "amount",
          "type": "uint32"
        },
        {
          "internalType": "string",
          "name": "baseURI",
          "type": "string"
        },
        {
          "internalType": "bool",
          "name": "shouldMint",
          "type": "bool"
        }
      ],
      "name": "addTokensWithBaseURIToCollection",
      "outputs": [],
      "stateMutability": "nonpayable",
      "type": "function"
    },
    {
      "inputs": [
        {
          "internalType": "address",
          "name": "operator",
          "type": "address"
        },
        {
          "internalType": "uint256",
          "name": "tokenId",
          "type": "uint256"
        }
      ],
      "name": "approve",
      "outputs": [],
      "stateMutability": "payable",
      "type": "function"
    },
    {
      "inputs": [
        {
          "internalType": "address",
          "name": "account",
          "type": "address"
        }
      ],
      "name": "balanceOf",
      "outputs": [
        {
          "internalType": "uint256",
          "name": "",
          "type": "uint256"
        }
      ],
      "stateMutability": "view",
      "type": "function"
    },
    {
      "inputs": [
        {
          "internalType": "uint256",
          "name": "tokenId",
          "type": "uint256"
        }
      ],
      "name": "exists",
      "outputs": [
        {
          "internalType": "bool",
          "name": "",
          "type": "bool"
        }
      ],
      "stateMutability": "view",
      "type": "function"
    },
    {
      "inputs": [
        {
          "internalType": "uint256",
          "name": "tokenId",
          "type": "uint256"
        }
      ],
      "name": "getApproved",
      "outputs": [
        {
          "internalType": "address",
          "name": "",
          "type": "address"
        }
      ],
      "stateMutability": "view",
      "type": "function"
    },
    {
      "inputs": [
        {
          "internalType": "address",
          "name": "tokenAddress",
          "type": "address"
        },
        {
          "internalType": "uint256",
          "name": "tokenId",
          "type": "uint256"
        },
        {
          "internalType": "address",
          "name": "_minter",
          "type": "address"
        },
        {
          "internalType": "address",
          "name": "_addToCollectionMinter",
          "type": "address"
        },
        {
          "internalType": "address",
          "name": "_steward",
          "type": "address"
        },
        {
          "internalType": "uint256",
          "name": "_maxTokenCount",
          "type": "uint256"
        },
        {
          "internalType": "bool",
          "name": "shouldMint",
          "type": "bool"
        },
        {
          "internalType": "string",
          "name": "name",
          "type": "string"
        },
        {
          "internalType": "string",
          "name": "symbol",
          "type": "string"
        },
        {
          "internalType": "string",
          "name": "tokenURI",
          "type": "string"
        }
      ],
      "name": "initializeWrappedStewardLicense",
      "outputs": [],
      "stateMutability": "nonpayable",
      "type": "function"
    },
    {
      "inputs": [
        {
          "internalType": "address",
          "name": "account",
          "type": "address"
        },
        {
          "internalType": "address",
          "name": "operator",
          "type": "address"
        }
      ],
      "name": "isApprovedForAll",
      "outputs": [
        {
          "internalType": "bool",
          "name": "",
          "type": "bool"
        }
      ],
      "stateMutability": "view",
      "type": "function"
    },
    {
      "inputs": [],
      "name": "maxTokenCount",
      "outputs": [
        {
          "internalType": "uint256",
          "name": "",
          "type": "uint256"
        }
      ],
      "stateMutability": "view",
      "type": "function"
    },
    {
      "inputs": [
        {
          "internalType": "address",
          "name": "to",
          "type": "address"
        },
        {
          "internalType": "uint256",
          "name": "tokenId",
          "type": "uint256"
        }
      ],
      "name": "mintToken",
      "outputs": [],
      "stateMutability": "nonpayable",
      "type": "function"
    },
    {
      "inputs": [],
      "name": "minter",
      "outputs": [
        {
          "internalType": "address",
          "name": "",
          "type": "address"
        }
      ],
      "stateMutability": "view",
      "type": "function"
    },
    {
      "inputs": [],
      "name": "name",
      "outputs": [
        {
          "internalType": "string",
          "name": "",
          "type": "string"
        }
      ],
      "stateMutability": "view",
      "type": "function"
    },
    {
      "inputs": [
        {
          "internalType": "address",
          "name": "",
          "type": "address"
        },
        {
          "internalType": "address",
          "name": "",
          "type": "address"
        },
        {
          "internalType": "uint256",
          "name": "tokenId",
          "type": "uint256"
        },
        {
          "internalType": "bytes",
          "name": "",
          "type": "bytes"
        }
      ],
      "name": "onERC721Received",
      "outputs": [
        {
          "internalType": "bytes4",
          "name": "",
          "type": "bytes4"
        }
      ],
      "stateMutability": "view",
      "type": "function"
    },
    {
      "inputs": [
        {
          "internalType": "uint256",
          "name": "tokenId",
          "type": "uint256"
        }
      ],
      "name": "ownerOf",
      "outputs": [
        {
          "internalType": "address",
          "name": "",
          "type": "address"
        }
      ],
      "stateMutability": "view",
      "type": "function"
    },
    {
      "inputs": [
        {
          "internalType": "address",
          "name": "from",
          "type": "address"
        },
        {
          "internalType": "address",
          "name": "to",
          "type": "address"
        },
        {
          "internalType": "uint256",
          "name": "tokenId",
          "type": "uint256"
        }
      ],
      "name": "safeTransferFrom",
      "outputs": [],
      "stateMutability": "payable",
      "type": "function"
    },
    {
      "inputs": [
        {
          "internalType": "address",
          "name": "from",
          "type": "address"
        },
        {
          "internalType": "address",
          "name": "to",
          "type": "address"
        },
        {
          "internalType": "uint256",
          "name": "tokenId",
          "type": "uint256"
        },
        {
          "internalType": "bytes",
          "name": "data",
          "type": "bytes"
        }
      ],
      "name": "safeTransferFrom",
      "outputs": [],
      "stateMutability": "payable",
      "type": "function"
    },
    {
      "inputs": [
        {
          "internalType": "address",
          "name": "operator",
          "type": "address"
        },
        {
          "internalType": "bool",
          "name": "status",
          "type": "bool"
        }
      ],
      "name": "setApprovalForAll",
      "outputs": [],
      "stateMutability": "nonpayable",
      "type": "function"
    },
    {
      "inputs": [
        {
          "internalType": "bytes4",
          "name": "interfaceId",
          "type": "bytes4"
        }
      ],
      "name": "supportsInterface",
      "outputs": [
        {
          "internalType": "bool",
          "name": "",
          "type": "bool"
        }
      ],
      "stateMutability": "view",
      "type": "function"
    },
    {
      "inputs": [],
      "name": "symbol",
      "outputs": [
        {
          "internalType": "string",
          "name": "",
          "type": "string"
        }
      ],
      "stateMutability": "view",
      "type": "function"
    },
    {
      "inputs": [
        {
          "internalType": "uint256",
          "name": "index",
          "type": "uint256"
        }
      ],
      "name": "tokenByIndex",
      "outputs": [
        {
          "internalType": "uint256",
          "name": "",
          "type": "uint256"
        }
      ],
      "stateMutability": "view",
      "type": "function"
    },
    {
      "inputs": [
        {
          "internalType": "address",
          "name": "owner",
          "type": "address"
        },
        {
          "internalType": "uint256",
          "name": "index",
          "type": "uint256"
        }
      ],
      "name": "tokenOfOwnerByIndex",
      "outputs": [
        {
          "internalType": "uint256",
          "name": "",
          "type": "uint256"
        }
      ],
      "stateMutability": "view",
      "type": "function"
    },
    {
      "inputs": [
        {
          "internalType": "uint256",
          "name": "tokenId",
          "type": "uint256"
        }
      ],
      "name": "tokenURI",
      "outputs": [
        {
          "internalType": "string",
          "name": "",
          "type": "string"
        }
      ],
      "stateMutability": "view",
      "type": "function"
    },
    {
      "inputs": [],
      "name": "totalSupply",
      "outputs": [
        {
          "internalType": "uint256",
          "name": "",
          "type": "uint256"
        }
      ],
      "stateMutability": "view",
      "type": "function"
    },
    {
      "inputs": [
        {
          "internalType": "address",
          "name": "from",
          "type": "address"
        },
        {
          "internalType": "address",
          "name": "to",
          "type": "address"
        },
        {
          "internalType": "uint256",
          "name": "tokenId",
          "type": "uint256"
        }
      ],
      "name": "transferFrom",
      "outputs": [],
      "stateMutability": "payable",
      "type": "function"
    },
    {
      "inputs": [
        {
          "internalType": "address",
          "name": "from",
          "type": "address"
        },
        {
          "internalType": "address",
          "name": "to",
          "type": "address"
        },
        {
          "internalType": "uint256",
          "name": "tokenId",
          "type": "uint256"
        }
      ],
      "name": "triggerTransfer",
      "outputs": [],
      "stateMutability": "nonpayable",
      "type": "function"
    }
  ],
  "transactionHash": "0x47c647540e651487d95a41e681ebb0b70033996a378db42c8253adbc6798d4a8",
  "args": [],
  "numDeployments": 1,
  "solcInputHash": "7c2f2883e0da9bf3e6298a712dbf5e36",
  "bytecode": "0x608060405234801561001057600080fd5b50613068806100206000396000f3fe60806040526004361061019c5760003560e01c80634f558e79116100ec578063a22cb4651161008a578063c87b56dd11610064578063c87b56dd14610479578063d111122f14610499578063e31a7c01146104b9578063e985e9c5146104d957600080fd5b8063a22cb46514610431578063b88d4fde14610451578063c4e627c21461046457600080fd5b80636a2e019f116100c65780636a2e019f146103bc57806370a08231146103dc57806379c65068146103fc57806395d89b411461041c57600080fd5b80634f558e791461035c5780634f6ccce71461037c5780636352211e1461039c57600080fd5b8063150b7a021161015957806323b872dd1161013357806323b872dd146102f65780632f745c591461030957806342842e0e146103295780634a7c554f1461033c57600080fd5b8063150b7a021461027a57806318160ddd146102b35780632107ddfe146102d657600080fd5b806301ffc9a7146101a157806303e8224e146101d657806306fdde03146101f8578063075461721461021a578063081812fc14610247578063095ea7b314610267575b600080fd5b3480156101ad57600080fd5b506101c16101bc366004612477565b6104f9565b60405190151581526020015b60405180910390f35b3480156101e257600080fd5b506101f66101f136600461258f565b61053c565b005b34801561020457600080fd5b5061020d610627565b6040516101cd91906126cf565b34801561022657600080fd5b5061022f610636565b6040516001600160a01b0390911681526020016101cd565b34801561025357600080fd5b5061022f6102623660046126e2565b610669565b6101f66102753660046126fb565b610674565b34801561028657600080fd5b5061029a610295366004612727565b610700565b6040516001600160e01b031990911681526020016101cd565b3480156102bf57600080fd5b506102c86108a6565b6040519081526020016101cd565b3480156102e257600080fd5b506101f66102f1366004612877565b6108b0565b6101f66103043660046128c8565b610941565b34801561031557600080fd5b506102c86103243660046126fb565b610973565b6101f66103373660046128c8565b610986565b34801561034857600080fd5b506101f6610357366004612909565b6109a1565b34801561036857600080fd5b506101c16103773660046126e2565b610a75565b34801561038857600080fd5b506102c86103973660046126e2565b610a80565b3480156103a857600080fd5b5061022f6103b73660046126e2565b610a8b565b3480156103c857600080fd5b506101f66103d73660046129ca565b610a96565b3480156103e857600080fd5b506102c86103f7366004612a0f565b610ab8565b34801561040857600080fd5b506101f66104173660046126fb565b610ac3565b34801561042857600080fd5b5061020d610cfb565b34801561043d57600080fd5b506101f661044c366004612a2c565b610d05565b6101f661045f366004612a5a565b610db9565b34801561047057600080fd5b506102c8610dec565b34801561048557600080fd5b5061020d6104943660046126e2565b610e04565b3480156104a557600080fd5b506101f66104b4366004612ad9565b610e0f565b3480156104c557600080fd5b506101f66104d43660046128c8565b610e61565b3480156104e557600080fd5b506101c16104f4366004612b45565b610ef6565b6001600160e01b0319811660009081527ffc606c433378e3a7e0a6a531deac289b66caa1b4aa8554fd4ab2c6f1570f92d8602052604081205460ff165b92915050565b600080516020612f938339815191525460ff16156105ad5760405162461bcd60e51b81526020600482015260356024820152600080516020612f538339815191526044820152740e88185b1c9958591e481a5b9a5d1a585b1a5e9959605a1b60648201526084015b60405180910390fd5b7f4f3bc7155d2db681e29af52d1119e27d8b92f937da5bb676ae6155a2e77a3c6d80546001600160a01b0319166001600160a01b038c161790557f4f3bc7155d2db681e29af52d1119e27d8b92f937da5bb676ae6155a2e77a3c6e89905561061b8888888888888888610f02565b50505050505050505050565b606061063161104c565b905090565b60006106317f79ec1734da2430052e9d78936f451aad707e5bed12ef4806b06dc3d0c38f0e31546001600160a01b031690565b6000610536826110eb565b600061067f82610a8b565b9050806001600160a01b0316836001600160a01b0316036106b35760405163424a22cb60e01b815260040160405180910390fd5b336001600160a01b038216148015906106d357506106d18133610ef6565b155b156106f157604051632f5de44f60e01b815260040160405180910390fd5b6106fb838361114e565b505050565b600061071b600080516020612f938339815191525460ff1690565b15156001146107785760405162461bcd60e51b81526020600482015260356024820152600080516020612f538339815191526044820152740e881b5d5cdd081899481a5b9a5d1a585b1a5e9959605a1b60648201526084016105a4565b7f4f3bc7155d2db681e29af52d1119e27d8b92f937da5bb676ae6155a2e77a3c6d546001600160a01b031633146108105760405162461bcd60e51b81526020600482015260426024820152600080516020612f5383398151915260448201527f3a2063616e6e6f7420616363657074207468697320746f6b656e206164647265606482015261737360f01b608482015260a4016105a4565b7f4f3bc7155d2db681e29af52d1119e27d8b92f937da5bb676ae6155a2e77a3c6e5484146108945760405162461bcd60e51b815260206004820152603d6024820152600080516020612f5383398151915260448201527f3a2063616e6e6f7420616363657074207468697320746f6b656e20494400000060648201526084016105a4565b50630a85bd0160e11b95945050505050565b60006106316111db565b6000805160206130138339815191526108c8816111f4565b60005b835181101561093b576000831561090157600080516020612f938339815191525461010090046001600160a01b03169050610905565b5060005b6109288186848151811061091b5761091b612b73565b6020026020010151611201565b508061093381612b9f565b9150506108cb565b50505050565b61094b3382611287565b61096857604051632f5de44f60e01b815260040160405180910390fd5b6106fb83838361130d565b600061097f838361143c565b9392505050565b6106fb83838360405180602001604052806000815250610db9565b6000805160206130138339815191526109b9816111f4565b8151835114610a285760405162461bcd60e51b815260206004820152603560248201527f537465776172644c6963656e736546616365743a20746f20616e6420746f6b656044820152740dcaaa492e640d8cadccee8d040dad2e6dac2e8c6d605b1b60648201526084016105a4565b60005b825181101561093b57610a63848281518110610a4957610a49612b73565b602002602001015184838151811061091b5761091b612b73565b80610a6d81612b9f565b915050610a2b565b60006105368261146b565b600061053682611485565b6000610536826114a6565b600080516020613013833981519152610aae816111f4565b6106fb8383611201565b6000610536826114ea565b306001600160a01b0316633882ce8e6040518163ffffffff1660e01b8152600401602060405180830381865afa158015610b01573d6000803e3d6000fd5b505050506040513d601f19601f82011682018060405250810190610b259190612bb8565b6001600160a01b0316336001600160a01b031614610bab5760405162461bcd60e51b815260206004820152603760248201527f537465776172644c6963656e736546616365743a206f6e6c7920696e6974696160448201527f6c206269646465722063616e206d696e7420746f6b656e00000000000000000060648201526084016105a4565b306001600160a01b031663be6a2a6d6040518163ffffffff1660e01b8152600401602060405180830381865afa158015610be9573d6000803e3d6000fd5b505050506040513d601f19601f82011682018060405250810190610c0d9190612bd5565b4210610c83576040805162461bcd60e51b81526020600482015260248101919091527f537465776172644c6963656e736546616365743a2063616e6e6f74206d696e7460448201527f20616674657220696e697469616c20706572696f642073746172742074696d6560648201526084016105a4565b610c8c8161146b565b15610ceb5760405162461bcd60e51b815260206004820152602960248201527f537465776172644c6963656e736546616365743a20546f6b656e20616c72656160448201526864792065786973747360b81b60648201526084016105a4565b610cf760008383611541565b5050565b606061063161155d565b336001600160a01b03831603610d2e5760405163424a22cb60e01b815260040160405180910390fd5b3360008181527f3c7bf052874fa81625121783266a03507bd2cd48b16e571c01a04e8dd3fb07aa602090815260408083206001600160a01b03871680855290835292819020805460ff191686151590811790915590519081529192917f17307eab39ab6107e8899845ad3d59bd9653f200f220920489ca2b5937696c31910160405180910390a35050565b610dc33383611287565b610de057604051632f5de44f60e01b815260040160405180910390fd5b61093b8484848461157c565b6000610631600080516020612fd38339815191525490565b6060610536826115b0565b600080516020613013833981519152610e27816111f4565b60005b8463ffffffff168163ffffffff161015610e5a57610e488484611794565b80610e5281612bee565b915050610e2a565b5050505050565b333014610eeb5760405162461bcd60e51b815260206004820152604c60248201527f4e6174697665537465776172644c6963656e73653a205472696767657220747260448201527f616e736665722063616e206f6e6c792062652063616c6c65642066726f6d206160648201526b1b9bdd1a195c88199858d95d60a21b608482015260a4016105a4565b6106fb838383611541565b600061097f8383611847565b600080516020612f9383398151915280546001600160a01b03888116610100026001600160a81b03199092169190911760011782557f79ec1734da2430052e9d78936f451aad707e5bed12ef4806b06dc3d0c38f0e318054918b166001600160a01b0319909216919091179055600080516020612fd38339815191528690556000600080516020612ff3833981519152905080610f9f8682612c99565b5060018101610fae8582612c99565b5060028101610fbd8482612c99565b50610fd06301ffc9a760e01b6001611894565b610fe26380ac58cd60e01b6001611894565b610ffa6000805160206130138339815191528a61190a565b6110126000805160206130138339815191528061197e565b851561061b5760005b8781101561103f5761102d89826119e8565b8061103781612b9f565b91505061101b565b5050505050505050505050565b6060600080516020612ff3833981519152805461106890612c11565b80601f016020809104026020016040519081016040528092919081815260200182805461109490612c11565b80156110e15780601f106110b6576101008083540402835291602001916110e1565b820191906000526020600020905b8154815290600101906020018083116110c457829003601f168201915b5050505050905090565b60006110f68261146b565b6111135760405163c1b843ef60e01b815260040160405180910390fd5b5060009081527f3c7bf052874fa81625121783266a03507bd2cd48b16e571c01a04e8dd3fb07a960205260409020546001600160a01b031690565b60008181527f3c7bf052874fa81625121783266a03507bd2cd48b16e571c01a04e8dd3fb07a96020526040902080546001600160a01b0319166001600160a01b03841690811790915581906111a2826114a6565b6001600160a01b03167f8c5be1e5ebec7d5bd14f71427d1e84f3dd0314c0f7b2291e5b200ac8c7c3b92560405160405180910390a45050565b6000610631600080516020612fb3833981519152611acb565b6111fe8133611ad5565b50565b600080516020612fd38339815191528054600080516020612f938339815191529160019060006112318385612d58565b909155505060008181527f99574a7094154bb123ae6ae102096f0bf9679b85a5cd1e727aaa0ae5f132e6b46020526040902061126d8482612c99565b506001600160a01b0384161561093b5761093b84826119e8565b60006112928261146b565b6112af5760405163c1b843ef60e01b815260040160405180910390fd5b60006112ba836114a6565b9050806001600160a01b0316846001600160a01b031614806112f55750836001600160a01b03166112ea846110eb565b6001600160a01b0316145b8061130557506113058185611847565b949350505050565b826001600160a01b0316611320826114a6565b6001600160a01b03161461134757604051630f2db4ad60e01b815260040160405180910390fd5b6001600160a01b03821661136e576040516340311a0960e01b815260040160405180910390fd5b611379838383611b37565b61138460008261114e565b6001600160a01b0383166000908152600080516020612f7383398151915260205260409020600080516020612fb3833981519152906113c39083611c2c565b506001600160a01b038316600090815260028201602052604090206113e89083611c38565b506113f4818385611c44565b5081836001600160a01b0316856001600160a01b03167fddf252ad1be2c89b69c2b068fc378daa952ba7f163c4a11628f55a4df523b3ef60405160405180910390a450505050565b6001600160a01b0382166000908152600080516020612f738339815191526020526040812061097f9083611c5a565b6000610536600080516020612fb383398151915283611c66565b600061149f600080516020612fb383398151915283611c7e565b5092915050565b6000806114c1600080516020612fb383398151915284611c9a565b90506001600160a01b03811661053657604051637e1a7d8b60e01b815260040160405180910390fd5b60006001600160a01b03821661151357604051630810ff9760e41b815260040160405180910390fd5b6001600160a01b0382166000908152600080516020612f738339815191526020526040902061053690611acb565b61154a8161146b565b1515600003610968576106fb82826119e8565b6060600080516020612ff3833981519152600101805461106890612c11565b61158784848461130d565b61159384848484611ca6565b61093b57604051639ff10cdd60e01b815260040160405180910390fd5b600080516020612fd383398151915254606090600080516020612f938339815191529083106115f157604051624705a760e71b815260040160405180910390fd5b60008381527f99574a7094154bb123ae6ae102096f0bf9679b85a5cd1e727aaa0ae5f132e6b4602052604081208054600080516020612ff383398151915292919061163b90612c11565b80601f016020809104026020016040519081016040528092919081815260200182805461166790612c11565b80156116b45780601f10611689576101008083540402835291602001916116b4565b820191906000526020600020905b81548152906001019060200180831161169757829003601f168201915b5050505050905060008260020180546116cc90612c11565b80601f01602080910402602001604051908101604052809291908181526020018280546116f890612c11565b80156117455780601f1061171a57610100808354040283529160200191611745565b820191906000526020600020905b81548152906001019060200180831161172857829003601f168201915b5050505050905060008251111561175f5750949350505050565b8061176987611d77565b60405160200161177a929190612d6b565b604051602081830303815290604052945050505050919050565b600080516020612fd38339815191528054600080516020612f938339815191529160019060006117c48385612d58565b909155508490506117d482611d77565b6040516020016117e5929190612d6b565b604051602081830303815290604052611809600080516020612ff383398151915290565b600083815260039190910160205260409020906118269082612c99565b50821561093b57815461093b9061010090046001600160a01b0316826119e8565b6001600160a01b0391821660009081527f3c7bf052874fa81625121783266a03507bd2cd48b16e571c01a04e8dd3fb07aa6020908152604080832093909416825291909152205460ff1690565b6001600160e01b031980831690036118bf5760405163b0a19dd560e01b815260040160405180910390fd5b6001600160e01b03199190911660009081527ffc606c433378e3a7e0a6a531deac289b66caa1b4aa8554fd4ab2c6f1570f92d860205260409020805460ff1916911515919091179055565b60008281527fd3889cc5458b268d0544e5534672df1296288ca3f93cbd39bd6f497a5c622811602052604090206119419082611e77565b5060405133906001600160a01b0383169084907f2f8788117e7eff1d82e926ec794901d17c78024a50270940304540a733656f0d90600090a45050565b60008281527fd3889cc5458b268d0544e5534672df1296288ca3f93cbd39bd6f497a5c6228116020526040808220600201805490849055905190918391839186917fbd79b86ffe0ab8e8776151514217cd7cacd52c909f66475c3af44e129f0b00ff9190a4505050565b6001600160a01b038216611a0f576040516311f2988d60e11b815260040160405180910390fd5b611a188161146b565b15611a3657604051630d86bb7b60e31b815260040160405180910390fd5b611a4260008383611b37565b6001600160a01b0382166000908152600080516020612f7383398151915260205260409020600080516020612fb383398151915290611a819083611c38565b50611a8d818385611c44565b5060405182906001600160a01b038516906000907fddf252ad1be2c89b69c2b068fc378daa952ba7f163c4a11628f55a4df523b3ef908290a4505050565b6000610536825490565b611adf8282611e8c565b610cf757611af5816001600160a01b0316611ec3565b611b00836020611ed5565b604051602001611b11929190612d9a565b60408051601f198184030181529082905262461bcd60e51b82526105a4916004016126cf565b6001600160a01b03831615611c215760405163a7c12c1160e01b815260048101829052600090309063a7c12c1190602401602060405180830381865afa158015611b85573d6000803e3d6000fd5b505050506040513d601f19601f82011682018060405250810190611ba99190612e0f565b90508015611c1f5760405162461bcd60e51b815260206004820152603a60248201527f537465776172644c6963656e736546616365743a2043616e6e6f74207472616e60448201527f7366657220647572696e672061756374696f6e20706572696f6400000000000060648201526084016105a4565b505b6106fb838383612027565b600061097f8383612032565b600061097f83836120ec565b600061130584846001600160a01b03851661212f565b600061097f83836121ce565b6000818152600183016020526040812054151561097f565b6000808080611c8d868661221a565b9097909650945050505050565b600061097f838361227d565b60006001600160a01b0384163b611cbf57506001611305565b6000611d4063150b7a0260e01b33888787604051602401611ce39493929190612e2c565b604051602081830303815290604052906001600160e01b0319166020820180516001600160e01b038381831617835250505050604051806060016040528060328152602001612f21603291396001600160a01b03881691906122e1565b9050600081806020019051810190611d589190612e69565b6001600160e01b031916630a85bd0160e11b1492505050949350505050565b606081600003611d9e5750506040805180820190915260018152600360fc1b602082015290565b8160005b8115611dc85780611db281612b9f565b9150611dc19050600a83612e9c565b9150611da2565b6000816001600160401b03811115611de257611de26124d2565b6040519080825280601f01601f191660200182016040528015611e0c576020820181803683370190505b5090505b841561130557611e21600183612eb0565b9150611e2e600a86612ec3565b611e39906030612d58565b60f81b818381518110611e4e57611e4e612b73565b60200101906001600160f81b031916908160001a905350611e70600a86612e9c565b9450611e10565b600061097f836001600160a01b0384166120ec565b60008281527fd3889cc5458b268d0544e5534672df1296288ca3f93cbd39bd6f497a5c6228116020526040812061097f90836122f0565b60606105366001600160a01b03831660145b60606000611ee4836002612ed7565b611eef906002612d58565b6001600160401b03811115611f0657611f066124d2565b6040519080825280601f01601f191660200182016040528015611f30576020820181803683370190505b509050600360fc1b81600081518110611f4b57611f4b612b73565b60200101906001600160f81b031916908160001a905350600f60fb1b81600181518110611f7a57611f7a612b73565b60200101906001600160f81b031916908160001a905350600160028402015b6001811115612007576f181899199a1a9b1b9c1cb0b131b232b360811b85600f1660108110611fca57611fca612b73565b1a60f81b828281518110611fe057611fe0612b73565b60200101906001600160f81b031916908160001a90535060049490941c9360001901611f99565b50831561097f5760405163c913478560e01b815260040160405180910390fd5b6106fb838383612312565b6000818152600183016020526040812054801561149f5783546000908590600019810190811061206457612064612b73565b906000526020600020015490508085600001600184038154811061208a5761208a612b73565b60009182526020808320909101929092559182526001860190526040902081905583548490806120bc576120bc612eee565b60008281526020808220830160001990810183905590920190925593815260019485019093525050604081205590565b6000818152600183016020526040812054610536575081546001808201845560008481526020808220909301849055845493815293810190915260409092205590565b600082815260018401602052604081205480820361219657505060408051808201825283815260208082018481528654600181810189556000898152848120955160029093029095019182559151908201558654868452818801909252929091205561097f565b828560000160018303815481106121af576121af612b73565b906000526020600020906002020160010181905550600091505061097f565b815460009082106121f25760405163e637bf3b60e01b815260040160405180910390fd5b82600001828154811061220757612207612b73565b9060005260206000200154905092915050565b8154600090819083106122405760405163022fd82760e31b815260040160405180910390fd5b600084600001848154811061225757612257612b73565b906000526020600020906002020190508060000154816001015492509250509250929050565b60008181526001830160205260408120548082036122ae57604051633d547ec560e21b815260040160405180910390fd5b8360000160018203815481106122c6576122c6612b73565b90600052602060002090600202016001015491505092915050565b60606113058484600085612356565b6001600160a01b0381166000908152600183016020526040812054151561097f565b6001600160a01b0382166106fb5760008181527f99574a7094154bb123ae6ae102096f0bf9679b85a5cd1e727aaa0ae5f132e6b4602052604081206106fb91612413565b6060843b61237757604051632270d6bf60e21b815260040160405180910390fd5b600080866001600160a01b031685876040516123939190612f04565b60006040518083038185875af1925050503d80600081146123d0576040519150601f19603f3d011682016040523d82523d6000602084013e6123d5565b606091505b509150915081156123e95791506113059050565b8051156123f95780518082602001fd5b8360405162461bcd60e51b81526004016105a491906126cf565b50805461241f90612c11565b6000825580601f1061242f575050565b601f0160209004906000526020600020908101906111fe91905b8082111561245d5760008155600101612449565b5090565b6001600160e01b0319811681146111fe57600080fd5b60006020828403121561248957600080fd5b813561097f81612461565b6001600160a01b03811681146111fe57600080fd5b80356124b481612494565b919050565b80151581146111fe57600080fd5b80356124b4816124b9565b634e487b7160e01b600052604160045260246000fd5b604051601f8201601f191681016001600160401b0381118282101715612510576125106124d2565b604052919050565b60006001600160401b03831115612531576125316124d2565b612544601f8401601f19166020016124e8565b905082815283838301111561255857600080fd5b828260208301376000602084830101529392505050565b600082601f83011261258057600080fd5b61097f83833560208501612518565b6000806000806000806000806000806101408b8d0312156125af57600080fd5b6125b88b6124a9565b995060208b013598506125cd60408c016124a9565b97506125db60608c016124a9565b96506125e960808c016124a9565b955060a08b013594506125fe60c08c016124c7565b935060e08b01356001600160401b038082111561261a57600080fd5b6126268e838f0161256f565b94506101008d013591508082111561263d57600080fd5b6126498e838f0161256f565b93506101208d013591508082111561266057600080fd5b5061266d8d828e0161256f565b9150509295989b9194979a5092959850565b60005b8381101561269a578181015183820152602001612682565b50506000910152565b600081518084526126bb81602086016020860161267f565b601f01601f19169290920160200192915050565b60208152600061097f60208301846126a3565b6000602082840312156126f457600080fd5b5035919050565b6000806040838503121561270e57600080fd5b823561271981612494565b946020939093013593505050565b60008060008060006080868803121561273f57600080fd5b853561274a81612494565b9450602086013561275a81612494565b93506040860135925060608601356001600160401b038082111561277d57600080fd5b818801915088601f83011261279157600080fd5b8135818111156127a057600080fd5b8960208285010111156127b257600080fd5b9699959850939650602001949392505050565b60006001600160401b038211156127de576127de6124d2565b5060051b60200190565b600082601f8301126127f957600080fd5b8135602061280e612809836127c5565b6124e8565b82815260059290921b8401810191818101908684111561282d57600080fd5b8286015b8481101561286c5780356001600160401b038111156128505760008081fd5b61285e8986838b010161256f565b845250918301918301612831565b509695505050505050565b6000806040838503121561288a57600080fd5b82356001600160401b038111156128a057600080fd5b6128ac858286016127e8565b92505060208301356128bd816124b9565b809150509250929050565b6000806000606084860312156128dd57600080fd5b83356128e881612494565b925060208401356128f881612494565b929592945050506040919091013590565b6000806040838503121561291c57600080fd5b82356001600160401b038082111561293357600080fd5b818501915085601f83011261294757600080fd5b81356020612957612809836127c5565b82815260059290921b8401810191818101908984111561297657600080fd5b948201945b8386101561299d57853561298e81612494565b8252948201949082019061297b565b965050860135925050808211156129b357600080fd5b506129c0858286016127e8565b9150509250929050565b600080604083850312156129dd57600080fd5b82356129e881612494565b915060208301356001600160401b03811115612a0357600080fd5b6129c08582860161256f565b600060208284031215612a2157600080fd5b813561097f81612494565b60008060408385031215612a3f57600080fd5b8235612a4a81612494565b915060208301356128bd816124b9565b60008060008060808587031215612a7057600080fd5b8435612a7b81612494565b93506020850135612a8b81612494565b92506040850135915060608501356001600160401b03811115612aad57600080fd5b8501601f81018713612abe57600080fd5b612acd87823560208401612518565b91505092959194509250565b600080600060608486031215612aee57600080fd5b833563ffffffff81168114612b0257600080fd5b925060208401356001600160401b03811115612b1d57600080fd5b612b298682870161256f565b9250506040840135612b3a816124b9565b809150509250925092565b60008060408385031215612b5857600080fd5b8235612b6381612494565b915060208301356128bd81612494565b634e487b7160e01b600052603260045260246000fd5b634e487b7160e01b600052601160045260246000fd5b600060018201612bb157612bb1612b89565b5060010190565b600060208284031215612bca57600080fd5b815161097f81612494565b600060208284031215612be757600080fd5b5051919050565b600063ffffffff808316818103612c0757612c07612b89565b6001019392505050565b600181811c90821680612c2557607f821691505b602082108103612c4557634e487b7160e01b600052602260045260246000fd5b50919050565b601f8211156106fb57600081815260208120601f850160051c81016020861015612c725750805b601f850160051c820191505b81811015612c9157828155600101612c7e565b505050505050565b81516001600160401b03811115612cb257612cb26124d2565b612cc681612cc08454612c11565b84612c4b565b602080601f831160018114612cfb5760008415612ce35750858301515b600019600386901b1c1916600185901b178555612c91565b600085815260208120601f198616915b82811015612d2a57888601518255948401946001909101908401612d0b565b5085821015612d485787850151600019600388901b60f8161c191681555b5050505050600190811b01905550565b8082018082111561053657610536612b89565b60008351612d7d81846020880161267f565b835190830190612d9181836020880161267f565b01949350505050565b7f416363657373436f6e74726f6c3a206163636f756e7420000000000000000000815260008351612dd281601785016020880161267f565b7001034b99036b4b9b9b4b733903937b6329607d1b6017918401918201528351612e0381602884016020880161267f565b01602801949350505050565b600060208284031215612e2157600080fd5b815161097f816124b9565b6001600160a01b0385811682528416602082015260408101839052608060608201819052600090612e5f908301846126a3565b9695505050505050565b600060208284031215612e7b57600080fd5b815161097f81612461565b634e487b7160e01b600052601260045260246000fd5b600082612eab57612eab612e86565b500490565b8181038181111561053657610536612b89565b600082612ed257612ed2612e86565b500690565b808202811582820484141761053657610536612b89565b634e487b7160e01b600052603160045260246000fd5b60008251612f1681846020870161267f565b919091019291505056fe4552433732313a207472616e7366657220746f206e6f6e20455243373231526563656976657220696d706c656d656e74657257726170706564455243373231537465776172644c6963656e736546616365743c7bf052874fa81625121783266a03507bd2cd48b16e571c01a04e8dd3fb07a879ec1734da2430052e9d78936f451aad707e5bed12ef4806b06dc3d0c38f0e303c7bf052874fa81625121783266a03507bd2cd48b16e571c01a04e8dd3fb07a679ec1734da2430052e9d78936f451aad707e5bed12ef4806b06dc3d0c38f0e3299574a7094154bb123ae6ae102096f0bf9679b85a5cd1e727aaa0ae5f132e6b17b62b800d8c954aa32a34a9249066e0f8761d6c1614c95cbc05c04ab0583a14ca26469706673582212202210856b3f632d654e6cfa5354554bbda77b04c99412a391da446a18c5cb3fce64736f6c63430008110033",
  "devdoc": {
    "details": "ERC-721 token license for Steward that wraps existing ERC-721. Only a particular ERC721 transfer is accepted.",
    "kind": "dev",
    "methods": {
      "approve(address,uint256)": {
        "params": {
          "operator": "address to be approved",
          "tokenId": "token to approve"
        }
      },
      "balanceOf(address)": {
        "returns": {
          "_0": "quantity of tokens held"
        }
      },
      "getApproved(uint256)": {
        "params": {
          "tokenId": "token to query"
        },
        "returns": {
          "_0": "address approved to spend token"
        }
      },
      "isApprovedForAll(address,address)": {
        "params": {
          "account": "address to query for approval granted",
          "operator": "address to query for approval received"
        },
        "returns": {
          "_0": "whether operator is approved to spend tokens held by account"
        }
      },
      "ownerOf(uint256)": {
        "params": {
          "tokenId": "token to query"
        },
        "returns": {
          "_0": "token owner"
        }
      },
      "safeTransferFrom(address,address,uint256)": {
        "params": {
          "from": "sender of token",
          "to": "receiver of token",
          "tokenId": "token id"
        }
      },
      "safeTransferFrom(address,address,uint256,bytes)": {
        "params": {
          "data": "data payload",
          "from": "sender of token",
          "to": "receiver of token",
          "tokenId": "token id"
        }
      },
      "setApprovalForAll(address,bool)": {
        "params": {
          "operator": "address to be approved",
          "status": "approval status"
        }
      },
      "supportsInterface(bytes4)": {
        "params": {
          "interfaceId": "interface id"
        },
        "returns": {
          "_0": "bool whether interface is supported"
        }
      },
      "tokenByIndex(uint256)": {
        "params": {
          "index": "position in global token list to query"
        },
        "returns": {
          "_0": "id of retrieved token"
        }
      },
      "tokenOfOwnerByIndex(address,uint256)": {
        "params": {
          "index": "position in owner's token list to query",
          "owner": "token holder to query"
        },
        "returns": {
          "_0": "id of retrieved token"
        }
      },
      "totalSupply()": {
        "returns": {
          "_0": "total supply"
        }
      },
      "transferFrom(address,address,uint256)": {
        "params": {
          "from": "sender of token",
          "to": "receiver of token",
          "tokenId": "token id"
        }
      }
    },
    "title": "WrappedERC721StewardLicenseFacet",
    "version": 1
  },
  "userdoc": {
    "kind": "user",
    "methods": {
      "addTokenToCollection(address,string)": {
        "notice": "Add token to collection"
      },
      "addTokensToCollection(address[],string[])": {
        "notice": "Add tokens to collection with to"
      },
      "addTokensToCollection(string[],bool)": {
        "notice": "Add tokens to collection"
      },
      "addTokensWithBaseURIToCollection(uint32,string,bool)": {
        "notice": "Add tokens to collection with baseURI"
      },
      "approve(address,uint256)": {
        "notice": "grant approval to given account to spend token"
      },
      "balanceOf(address)": {
        "notice": "query the balance of given address"
      },
      "exists(uint256)": {
        "notice": "Check if token exists"
      },
      "getApproved(uint256)": {
        "notice": "get approval status for given token"
      },
      "initializeWrappedStewardLicense(address,uint256,address,address,address,uint256,bool,string,string,string)": {
        "notice": "Initialize license"
      },
      "isApprovedForAll(address,address)": {
        "notice": "query approval status of given operator with respect to given address"
      },
      "maxTokenCount()": {
        "notice": "Get max token count"
      },
      "mintToken(address,uint256)": {
        "notice": "Initial bidder can mint token if it doesn't exist"
      },
      "minter()": {
        "notice": "Get minter"
      },
      "name()": {
        "notice": "inheritdoc IERC721Metadata"
      },
      "ownerOf(uint256)": {
        "notice": "query the owner of given token"
      },
      "safeTransferFrom(address,address,uint256)": {
        "notice": "transfer token between given addresses, checking for ERC721Receiver implementation if applicable"
      },
      "safeTransferFrom(address,address,uint256,bytes)": {
        "notice": "transfer token between given addresses, checking for ERC721Receiver implementation if applicable"
      },
      "setApprovalForAll(address,bool)": {
        "notice": "grant approval to or revoke approval from given account to spend all tokens held by sender"
      },
      "supportsInterface(bytes4)": {
        "notice": "query whether contract has registered support for given interface"
      },
      "symbol()": {
        "notice": "inheritdoc IERC721Metadata"
      },
      "tokenByIndex(uint256)": {
        "notice": "get token at given internal storage index"
      },
      "tokenOfOwnerByIndex(address,uint256)": {
        "notice": "get token of given owner at given internal storage index"
      },
      "tokenURI(uint256)": {
        "notice": "inheritdoc IERC721Metadata"
      },
      "totalSupply()": {
        "notice": "get total token supply"
      },
      "transferFrom(address,address,uint256)": {
        "notice": "transfer token between given addresses, without checking for ERC721Receiver implementation if applicable"
      },
      "triggerTransfer(address,address,uint256)": {
        "notice": "Trigger transfer of license"
      }
    },
    "version": 1
  },
  "storageLayout": {
    "storage": [],
    "types": null
  }
}