{
  "address": "0xc90eDF9848f8dcf557e83Bc2020B6F7d286321B5",
  "abi": [
    {
      "inputs": [],
      "name": "EnumerableSet__IndexOutOfBounds",
      "type": "error"
    },
    {
      "inputs": [],
      "name": "UintUtils__InsufficientHexLength",
      "type": "error"
    },
    {
      "anonymous": false,
      "inputs": [
        {
          "indexed": true,
          "internalType": "bytes32",
          "name": "role",
          "type": "bytes32"
        },
        {
          "indexed": true,
          "internalType": "bytes32",
          "name": "previousAdminRole",
          "type": "bytes32"
        },
        {
          "indexed": true,
          "internalType": "bytes32",
          "name": "newAdminRole",
          "type": "bytes32"
        }
      ],
      "name": "RoleAdminChanged",
      "type": "event"
    },
    {
      "anonymous": false,
      "inputs": [
        {
          "indexed": true,
          "internalType": "bytes32",
          "name": "role",
          "type": "bytes32"
        },
        {
          "indexed": true,
          "internalType": "address",
          "name": "account",
          "type": "address"
        },
        {
          "indexed": true,
          "internalType": "address",
          "name": "sender",
          "type": "address"
        }
      ],
      "name": "RoleGranted",
      "type": "event"
    },
    {
      "anonymous": false,
      "inputs": [
        {
          "indexed": true,
          "internalType": "bytes32",
          "name": "role",
          "type": "bytes32"
        },
        {
          "indexed": true,
          "internalType": "address",
          "name": "account",
          "type": "address"
        },
        {
          "indexed": true,
          "internalType": "address",
          "name": "sender",
          "type": "address"
        }
      ],
      "name": "RoleRevoked",
      "type": "event"
    },
    {
      "inputs": [
        {
          "internalType": "bytes32",
          "name": "role",
          "type": "bytes32"
        }
      ],
      "name": "getRoleAdmin",
      "outputs": [
        {
          "internalType": "bytes32",
          "name": "",
          "type": "bytes32"
        }
      ],
      "stateMutability": "view",
      "type": "function"
    },
    {
      "inputs": [
        {
          "internalType": "bytes32",
          "name": "role",
          "type": "bytes32"
        },
        {
          "internalType": "uint256",
          "name": "index",
          "type": "uint256"
        }
      ],
      "name": "getRoleMember",
      "outputs": [
        {
          "internalType": "address",
          "name": "",
          "type": "address"
        }
      ],
      "stateMutability": "view",
      "type": "function"
    },
    {
      "inputs": [
        {
          "internalType": "bytes32",
          "name": "role",
          "type": "bytes32"
        }
      ],
      "name": "getRoleMemberCount",
      "outputs": [
        {
          "internalType": "uint256",
          "name": "",
          "type": "uint256"
        }
      ],
      "stateMutability": "view",
      "type": "function"
    },
    {
      "inputs": [
        {
          "internalType": "bytes32",
          "name": "role",
          "type": "bytes32"
        },
        {
          "internalType": "address",
          "name": "account",
          "type": "address"
        }
      ],
      "name": "grantRole",
      "outputs": [],
      "stateMutability": "nonpayable",
      "type": "function"
    },
    {
      "inputs": [
        {
          "internalType": "bytes32",
          "name": "role",
          "type": "bytes32"
        },
        {
          "internalType": "address",
          "name": "account",
          "type": "address"
        }
      ],
      "name": "hasRole",
      "outputs": [
        {
          "internalType": "bool",
          "name": "",
          "type": "bool"
        }
      ],
      "stateMutability": "view",
      "type": "function"
    },
    {
      "inputs": [
        {
          "internalType": "address",
          "name": "admin",
          "type": "address"
        }
      ],
      "name": "initializeAccessControl",
      "outputs": [],
      "stateMutability": "nonpayable",
      "type": "function"
    },
    {
      "inputs": [
        {
          "internalType": "bytes32",
          "name": "role",
          "type": "bytes32"
        }
      ],
      "name": "renounceRole",
      "outputs": [],
      "stateMutability": "nonpayable",
      "type": "function"
    },
    {
      "inputs": [
        {
          "internalType": "bytes32",
          "name": "role",
          "type": "bytes32"
        },
        {
          "internalType": "address",
          "name": "account",
          "type": "address"
        }
      ],
      "name": "revokeRole",
      "outputs": [],
      "stateMutability": "nonpayable",
      "type": "function"
    }
  ],
  "transactionHash": "0x77a1a9515b2bac549bae3ae86242e8f50dab9e3ffdcdf62283f1a3c13c3d54af",
  "args": [],
  "numDeployments": 3,
  "solcInputHash": "c548b1a12c4a5b4508c1d2fe38e3b576",
  "bytecode": "0x608060405234801561001057600080fd5b50610997806100206000396000f3fe608060405234801561001057600080fd5b50600436106100885760003560e01c806391d148541161005b57806391d14854146101065780639fff43bb14610129578063ca15c8731461013c578063d547741f1461014f57600080fd5b8063248a9ca31461008d5780632f2ff15d146100b35780638bb9c5bf146100c85780639010d07c146100db575b600080fd5b6100a061009b36600461074d565b610162565b6040519081526020015b60405180910390f35b6100c66100c1366004610782565b610173565b005b6100c66100d636600461074d565b610194565b6100ee6100e93660046107ae565b6101a0565b6040516001600160a01b0390911681526020016100aa565b610119610114366004610782565b6101b3565b60405190151581526020016100aa565b6100c66101373660046107d0565b6101bf565b6100a061014a36600461074d565b61023d565b6100c661015d366004610782565b610248565b600061016d82610264565b92915050565b61017c82610264565b61018581610286565b61018f8383610290565b505050565b61019d816102f2565b50565b60006101ac83836102fc565b9392505050565b60006101ac8383610321565b6101c96000610346565b156102325760405162461bcd60e51b815260206004820152602e60248201527f416363657373436f6e74726f6c46616365743a2061646d696e20726f6c65206160448201526d1b1c9958591e4819dc985b9d195960921b60648201526084015b60405180910390fd5b61019d600082610290565b600061016d82610346565b61025182610264565b61025a81610286565b61018f838361036a565b6000908152600080516020610942833981519152602052604090206002015490565b61019d81336103cc565b6000828152600080516020610942833981519152602052604090206102b59082610432565b5060405133906001600160a01b0383169084907f2f8788117e7eff1d82e926ec794901d17c78024a50270940304540a733656f0d90600090a45050565b61019d813361036a565b6000828152600080516020610942833981519152602052604081206101ac9083610447565b6000828152600080516020610942833981519152602052604081206101ac9083610453565b60008181526000805160206109428339815191526020526040812061016d90610475565b60008281526000805160206109428339815191526020526040902061038f908261047f565b5060405133906001600160a01b0383169084907ff6391f5c32d9c69d2a47ea670b442974b53935d1edc7fd64eb21e047a839171b90600090a45050565b6103d68282610321565b61042e576103ec816001600160a01b0316610494565b6103f78360206104a6565b60405160200161040892919061080f565b60408051601f198184030181529082905262461bcd60e51b825261022991600401610884565b5050565b60006101ac836001600160a01b0384166105f9565b60006101ac838361063c565b6001600160a01b038116600090815260018301602052604081205415156101ac565b600061016d825490565b60006101ac836001600160a01b038416610688565b606061016d6001600160a01b03831660145b606060006104b58360026108cd565b6104c09060026108ec565b67ffffffffffffffff8111156104d8576104d86108ff565b6040519080825280601f01601f191660200182016040528015610502576020820181803683370190505b509050600360fc1b8160008151811061051d5761051d610915565b60200101906001600160f81b031916908160001a905350600f60fb1b8160018151811061054c5761054c610915565b60200101906001600160f81b031916908160001a905350600160028402015b60018111156105d9576f181899199a1a9b1b9c1cb0b131b232b360811b85600f166010811061059c5761059c610915565b1a60f81b8282815181106105b2576105b2610915565b60200101906001600160f81b031916908160001a90535060049490941c936000190161056b565b5083156101ac5760405163c913478560e01b815260040160405180910390fd5b600081815260018301602052604081205461016d575081546001808201845560008481526020808220909301849055845493815293810190915260409092205590565b815460009082106106605760405163e637bf3b60e01b815260040160405180910390fd5b82600001828154811061067557610675610915565b9060005260206000200154905092915050565b60008181526001830160205260408120548015610746578354600090859060001981019081106106ba576106ba610915565b90600052602060002001549050808560000160018403815481106106e0576106e0610915565b60009182526020808320909101929092559182526001860190526040902081905583548490806107125761071261092b565b6001900381819060005260206000200160009055905583600101600084815260200190815260200160002060009055600191505b5092915050565b60006020828403121561075f57600080fd5b5035919050565b80356001600160a01b038116811461077d57600080fd5b919050565b6000806040838503121561079557600080fd5b823591506107a560208401610766565b90509250929050565b600080604083850312156107c157600080fd5b50508035926020909101359150565b6000602082840312156107e257600080fd5b6101ac82610766565b60005b838110156108065781810151838201526020016107ee565b50506000910152565b7f416363657373436f6e74726f6c3a206163636f756e74200000000000000000008152600083516108478160178501602088016107eb565b7001034b99036b4b9b9b4b733903937b6329607d1b60179184019182015283516108788160288401602088016107eb565b01602801949350505050565b60208152600082518060208401526108a38160408501602087016107eb565b601f01601f19169190910160400192915050565b634e487b7160e01b600052601160045260246000fd5b60008160001904831182151516156108e7576108e76108b7565b500290565b8082018082111561016d5761016d6108b7565b634e487b7160e01b600052604160045260246000fd5b634e487b7160e01b600052603260045260246000fd5b634e487b7160e01b600052603160045260246000fdfed3889cc5458b268d0544e5534672df1296288ca3f93cbd39bd6f497a5c622811a2646970667358221220c22f01fd7c9285843d007af9a9eb1fe52fa182a1ee2b205c3099eaa40750823d64736f6c63430008100033",
  "devdoc": {
    "kind": "dev",
    "methods": {
      "renounceRole(bytes32)": {
        "params": {
          "role": "role to relinquish"
        }
      }
    },
    "title": "AccessControlFacet",
    "version": 1
  },
  "userdoc": {
    "kind": "user",
    "methods": {
      "getRoleMember(bytes32,uint256)": {
        "notice": "Returns one of the accounts that have `role`. `index` must be a value between 0 and {getRoleMemberCount}, non-inclusive. Role bearers are not sorted in any particular way, and their ordering may change at any point. WARNING: When using {getRoleMember} and {getRoleMemberCount}, make sure you perform all queries on the same block. See the following https://forum.openzeppelin.com/t/iterating-over-elements-on-enumerableset-in-openzeppelin-contracts/2296[forum post] for more information."
      },
      "getRoleMemberCount(bytes32)": {
        "notice": "Returns the number of accounts that have `role`. Can be used together with {getRoleMember} to enumerate all bearers of a role."
      },
      "initializeAccessControl(address)": {
        "notice": "Initialize access control with admin"
      },
      "renounceRole(bytes32)": {
        "notice": "relinquish role"
      }
    },
    "version": 1
  },
  "storageLayout": {
    "storage": [],
    "types": null
  }
}