{
  "address": "0x6E938c7cF485E4a0Db02c63139551bb06ee3B4a0",
  "abi": [
    {
      "inputs": [],
      "name": "EnumerableSet__IndexOutOfBounds",
      "type": "error"
    },
    {
      "inputs": [],
      "name": "UintUtils__InsufficientHexLength",
      "type": "error"
    },
    {
      "anonymous": false,
      "inputs": [
        {
          "indexed": true,
          "internalType": "bytes32",
          "name": "role",
          "type": "bytes32"
        },
        {
          "indexed": true,
          "internalType": "bytes32",
          "name": "previousAdminRole",
          "type": "bytes32"
        },
        {
          "indexed": true,
          "internalType": "bytes32",
          "name": "newAdminRole",
          "type": "bytes32"
        }
      ],
      "name": "RoleAdminChanged",
      "type": "event"
    },
    {
      "anonymous": false,
      "inputs": [
        {
          "indexed": true,
          "internalType": "bytes32",
          "name": "role",
          "type": "bytes32"
        },
        {
          "indexed": true,
          "internalType": "address",
          "name": "account",
          "type": "address"
        },
        {
          "indexed": true,
          "internalType": "address",
          "name": "sender",
          "type": "address"
        }
      ],
      "name": "RoleGranted",
      "type": "event"
    },
    {
      "anonymous": false,
      "inputs": [
        {
          "indexed": true,
          "internalType": "bytes32",
          "name": "role",
          "type": "bytes32"
        },
        {
          "indexed": true,
          "internalType": "address",
          "name": "account",
          "type": "address"
        },
        {
          "indexed": true,
          "internalType": "address",
          "name": "sender",
          "type": "address"
        }
      ],
      "name": "RoleRevoked",
      "type": "event"
    },
    {
      "inputs": [
        {
          "internalType": "bytes32",
          "name": "role",
          "type": "bytes32"
        }
      ],
      "name": "getRoleAdmin",
      "outputs": [
        {
          "internalType": "bytes32",
          "name": "",
          "type": "bytes32"
        }
      ],
      "stateMutability": "view",
      "type": "function"
    },
    {
      "inputs": [
        {
          "internalType": "bytes32",
          "name": "role",
          "type": "bytes32"
        },
        {
          "internalType": "uint256",
          "name": "index",
          "type": "uint256"
        }
      ],
      "name": "getRoleMember",
      "outputs": [
        {
          "internalType": "address",
          "name": "",
          "type": "address"
        }
      ],
      "stateMutability": "view",
      "type": "function"
    },
    {
      "inputs": [
        {
          "internalType": "bytes32",
          "name": "role",
          "type": "bytes32"
        }
      ],
      "name": "getRoleMemberCount",
      "outputs": [
        {
          "internalType": "uint256",
          "name": "",
          "type": "uint256"
        }
      ],
      "stateMutability": "view",
      "type": "function"
    },
    {
      "inputs": [
        {
          "internalType": "bytes32",
          "name": "role",
          "type": "bytes32"
        },
        {
          "internalType": "address",
          "name": "account",
          "type": "address"
        }
      ],
      "name": "grantRole",
      "outputs": [],
      "stateMutability": "nonpayable",
      "type": "function"
    },
    {
      "inputs": [
        {
          "internalType": "bytes32",
          "name": "role",
          "type": "bytes32"
        },
        {
          "internalType": "address",
          "name": "account",
          "type": "address"
        }
      ],
      "name": "hasRole",
      "outputs": [
        {
          "internalType": "bool",
          "name": "",
          "type": "bool"
        }
      ],
      "stateMutability": "view",
      "type": "function"
    },
    {
      "inputs": [
        {
          "internalType": "bytes32",
          "name": "role",
          "type": "bytes32"
        }
      ],
      "name": "renounceRole",
      "outputs": [],
      "stateMutability": "nonpayable",
      "type": "function"
    },
    {
      "inputs": [
        {
          "internalType": "bytes32",
          "name": "role",
          "type": "bytes32"
        },
        {
          "internalType": "address",
          "name": "account",
          "type": "address"
        }
      ],
      "name": "revokeRole",
      "outputs": [],
      "stateMutability": "nonpayable",
      "type": "function"
    }
  ],
  "transactionHash": "0xd6e3c921bf4766586aac02a09c9554701dc32092c8accfdca8ce194b8af62c9a",
  "args": [],
  "numDeployments": 2,
  "solcInputHash": "fa6ec49a0468ff0dbeeee6eeb252eafd",
  "bytecode": "0x608060405234801561001057600080fd5b506108dd806100206000396000f3fe608060405234801561001057600080fd5b506004361061007d5760003560e01c80639010d07c1161005b5780639010d07c146100d057806391d14854146100fb578063ca15c8731461011e578063d547741f1461013157600080fd5b8063248a9ca3146100825780632f2ff15d146100a85780638bb9c5bf146100bd575b600080fd5b6100956100903660046106ba565b610144565b6040519081526020015b60405180910390f35b6100bb6100b63660046106d3565b610155565b005b6100bb6100cb3660046106ba565b610176565b6100e36100de36600461070f565b610182565b6040516001600160a01b03909116815260200161009f565b61010e6101093660046106d3565b610195565b604051901515815260200161009f565b61009561012c3660046106ba565b6101a1565b6100bb61013f3660046106d3565b6101ac565b600061014f826101c8565b92915050565b61015e826101c8565b610167816101ea565b61017183836101f4565b505050565b61017f81610256565b50565b600061018e8383610260565b9392505050565b600061018e8383610285565b600061014f826102aa565b6101b5826101c8565b6101be816101ea565b61017183836102ce565b6000908152600080516020610888833981519152602052604090206002015490565b61017f8133610330565b600082815260008051602061088883398151915260205260409020610219908261039f565b5060405133906001600160a01b0383169084907f2f8788117e7eff1d82e926ec794901d17c78024a50270940304540a733656f0d90600090a45050565b61017f81336102ce565b60008281526000805160206108888339815191526020526040812061018e90836103b4565b60008281526000805160206108888339815191526020526040812061018e90836103c0565b60008181526000805160206108888339815191526020526040812061014f906103e2565b6000828152600080516020610888833981519152602052604090206102f390826103ec565b5060405133906001600160a01b0383169084907ff6391f5c32d9c69d2a47ea670b442974b53935d1edc7fd64eb21e047a839171b90600090a45050565b61033a8282610285565b61039b57610350816001600160a01b0316610401565b61035b836020610413565b60405160200161036c929190610755565b60408051601f198184030181529082905262461bcd60e51b8252610392916004016107ca565b60405180910390fd5b5050565b600061018e836001600160a01b038416610566565b600061018e83836105a9565b6001600160a01b0381166000908152600183016020526040812054151561018e565b600061014f825490565b600061018e836001600160a01b0384166105f5565b606061014f6001600160a01b03831660145b60606000610422836002610813565b61042d906002610832565b67ffffffffffffffff81111561044557610445610845565b6040519080825280601f01601f19166020018201604052801561046f576020820181803683370190505b509050600360fc1b8160008151811061048a5761048a61085b565b60200101906001600160f81b031916908160001a905350600f60fb1b816001815181106104b9576104b961085b565b60200101906001600160f81b031916908160001a905350600160028402015b6001811115610546576f181899199a1a9b1b9c1cb0b131b232b360811b85600f16601081106105095761050961085b565b1a60f81b82828151811061051f5761051f61085b565b60200101906001600160f81b031916908160001a90535060049490941c93600019016104d8565b50831561018e5760405163c913478560e01b815260040160405180910390fd5b600081815260018301602052604081205461014f575081546001808201845560008481526020808220909301849055845493815293810190915260409092205590565b815460009082106105cd5760405163e637bf3b60e01b815260040160405180910390fd5b8260000182815481106105e2576105e261085b565b9060005260206000200154905092915050565b600081815260018301602052604081205480156106b3578354600090859060001981019081106106275761062761085b565b906000526020600020015490508085600001600184038154811061064d5761064d61085b565b600091825260208083209091019290925591825260018601905260409020819055835484908061067f5761067f610871565b6001900381819060005260206000200160009055905583600101600084815260200190815260200160002060009055600191505b5092915050565b6000602082840312156106cc57600080fd5b5035919050565b600080604083850312156106e657600080fd5b8235915060208301356001600160a01b038116811461070457600080fd5b809150509250929050565b6000806040838503121561072257600080fd5b50508035926020909101359150565b60005b8381101561074c578181015183820152602001610734565b50506000910152565b7f416363657373436f6e74726f6c3a206163636f756e742000000000000000000081526000835161078d816017850160208801610731565b7001034b99036b4b9b9b4b733903937b6329607d1b60179184019182015283516107be816028840160208801610731565b01602801949350505050565b60208152600082518060208401526107e9816040850160208701610731565b601f01601f19169190910160400192915050565b634e487b7160e01b600052601160045260246000fd5b600081600019048311821515161561082d5761082d6107fd565b500290565b8082018082111561014f5761014f6107fd565b634e487b7160e01b600052604160045260246000fd5b634e487b7160e01b600052603260045260246000fd5b634e487b7160e01b600052603160045260246000fdfed3889cc5458b268d0544e5534672df1296288ca3f93cbd39bd6f497a5c622811a26469706673582212202d0fb866cbb4b7c79956c1bace676a5f3d22ec009c0a68bf62e25b52797c11bb64736f6c63430008100033",
  "devdoc": {
    "kind": "dev",
    "methods": {
      "renounceRole(bytes32)": {
        "params": {
          "role": "role to relinquish"
        }
      }
    },
    "title": "AccessControlFacet",
    "version": 1
  },
  "userdoc": {
    "kind": "user",
    "methods": {
      "getRoleMember(bytes32,uint256)": {
        "notice": "Returns one of the accounts that have `role`. `index` must be a value between 0 and {getRoleMemberCount}, non-inclusive. Role bearers are not sorted in any particular way, and their ordering may change at any point. WARNING: When using {getRoleMember} and {getRoleMemberCount}, make sure you perform all queries on the same block. See the following https://forum.openzeppelin.com/t/iterating-over-elements-on-enumerableset-in-openzeppelin-contracts/2296[forum post] for more information."
      },
      "getRoleMemberCount(bytes32)": {
        "notice": "Returns the number of accounts that have `role`. Can be used together with {getRoleMember} to enumerate all bearers of a role."
      },
      "renounceRole(bytes32)": {
        "notice": "relinquish role"
      }
    },
    "version": 1
  },
  "storageLayout": {
    "storage": [],
    "types": null
  }
}