{
  "address": "0xF3B0195284a84577C5d5216Da45E81Dc1BE3502B",
  "abi": [
    {
      "inputs": [],
      "name": "ERC165Base__InvalidInterfaceId",
      "type": "error"
    },
    {
      "inputs": [],
      "name": "UintUtils__InsufficientHexLength",
      "type": "error"
    },
    {
      "anonymous": false,
      "inputs": [
        {
          "indexed": true,
          "internalType": "bool",
          "name": "_allowAny",
          "type": "bool"
        }
      ],
      "name": "AllowAnyUpdated",
      "type": "event"
    },
    {
      "anonymous": false,
      "inputs": [
        {
          "indexed": true,
          "internalType": "address",
          "name": "_address",
          "type": "address"
        }
      ],
      "name": "Allowlisted",
      "type": "event"
    },
    {
      "anonymous": false,
      "inputs": [
        {
          "indexed": false,
          "internalType": "address[]",
          "name": "_addresses",
          "type": "address[]"
        }
      ],
      "name": "BatchAllowlisted",
      "type": "event"
    },
    {
      "anonymous": false,
      "inputs": [
        {
          "indexed": false,
          "internalType": "address[]",
          "name": "_addresses",
          "type": "address[]"
        }
      ],
      "name": "BatchUnallowlisted",
      "type": "event"
    },
    {
      "anonymous": false,
      "inputs": [
        {
          "indexed": true,
          "internalType": "bytes32",
          "name": "role",
          "type": "bytes32"
        },
        {
          "indexed": true,
          "internalType": "bytes32",
          "name": "previousAdminRole",
          "type": "bytes32"
        },
        {
          "indexed": true,
          "internalType": "bytes32",
          "name": "newAdminRole",
          "type": "bytes32"
        }
      ],
      "name": "RoleAdminChanged",
      "type": "event"
    },
    {
      "anonymous": false,
      "inputs": [
        {
          "indexed": true,
          "internalType": "bytes32",
          "name": "role",
          "type": "bytes32"
        },
        {
          "indexed": true,
          "internalType": "address",
          "name": "account",
          "type": "address"
        },
        {
          "indexed": true,
          "internalType": "address",
          "name": "sender",
          "type": "address"
        }
      ],
      "name": "RoleGranted",
      "type": "event"
    },
    {
      "anonymous": false,
      "inputs": [
        {
          "indexed": true,
          "internalType": "bytes32",
          "name": "role",
          "type": "bytes32"
        },
        {
          "indexed": true,
          "internalType": "address",
          "name": "account",
          "type": "address"
        },
        {
          "indexed": true,
          "internalType": "address",
          "name": "sender",
          "type": "address"
        }
      ],
      "name": "RoleRevoked",
      "type": "event"
    },
    {
      "anonymous": false,
      "inputs": [
        {
          "indexed": true,
          "internalType": "address",
          "name": "_address",
          "type": "address"
        }
      ],
      "name": "Unallowlisted",
      "type": "event"
    },
    {
      "inputs": [
        {
          "internalType": "address",
          "name": "_address",
          "type": "address"
        },
        {
          "internalType": "bool",
          "name": "_allowAny",
          "type": "bool"
        }
      ],
      "name": "addToAllowlist",
      "outputs": [],
      "stateMutability": "nonpayable",
      "type": "function"
    },
    {
      "inputs": [
        {
          "internalType": "address",
          "name": "_address",
          "type": "address"
        }
      ],
      "name": "addToAllowlist",
      "outputs": [],
      "stateMutability": "nonpayable",
      "type": "function"
    },
    {
      "inputs": [
        {
          "internalType": "address[]",
          "name": "_addresses",
          "type": "address[]"
        }
      ],
      "name": "batchAddToAllowlist",
      "outputs": [],
      "stateMutability": "nonpayable",
      "type": "function"
    },
    {
      "inputs": [
        {
          "internalType": "address[]",
          "name": "_addresses",
          "type": "address[]"
        },
        {
          "internalType": "bool",
          "name": "_allowAny",
          "type": "bool"
        }
      ],
      "name": "batchAddToAllowlist",
      "outputs": [],
      "stateMutability": "nonpayable",
      "type": "function"
    },
    {
      "inputs": [
        {
          "internalType": "address[]",
          "name": "_addresses",
          "type": "address[]"
        }
      ],
      "name": "batchRemoveFromAllowlist",
      "outputs": [],
      "stateMutability": "nonpayable",
      "type": "function"
    },
    {
      "inputs": [
        {
          "internalType": "address[]",
          "name": "_addresses",
          "type": "address[]"
        },
        {
          "internalType": "bool",
          "name": "_allowAny",
          "type": "bool"
        }
      ],
      "name": "batchRemoveFromAllowlist",
      "outputs": [],
      "stateMutability": "nonpayable",
      "type": "function"
    },
    {
      "inputs": [
        {
          "internalType": "address[]",
          "name": "_removeAddresses",
          "type": "address[]"
        },
        {
          "internalType": "address[]",
          "name": "_addAddresses",
          "type": "address[]"
        }
      ],
      "name": "batchUpdateAllowlist",
      "outputs": [],
      "stateMutability": "nonpayable",
      "type": "function"
    },
    {
      "inputs": [
        {
          "internalType": "address[]",
          "name": "_removeAddresses",
          "type": "address[]"
        },
        {
          "internalType": "address[]",
          "name": "_addAddresses",
          "type": "address[]"
        },
        {
          "internalType": "bool",
          "name": "_allowAny",
          "type": "bool"
        }
      ],
      "name": "batchUpdateAllowlist",
      "outputs": [],
      "stateMutability": "nonpayable",
      "type": "function"
    },
    {
      "inputs": [],
      "name": "getAllowAny",
      "outputs": [
        {
          "internalType": "bool",
          "name": "",
          "type": "bool"
        }
      ],
      "stateMutability": "view",
      "type": "function"
    },
    {
      "inputs": [],
      "name": "getAllowlist",
      "outputs": [
        {
          "internalType": "address[]",
          "name": "",
          "type": "address[]"
        }
      ],
      "stateMutability": "view",
      "type": "function"
    },
    {
      "inputs": [
        {
          "internalType": "address",
          "name": "_owner",
          "type": "address"
        },
        {
          "internalType": "bool",
          "name": "allowAny",
          "type": "bool"
        },
        {
          "internalType": "address[]",
          "name": "_addresses",
          "type": "address[]"
        }
      ],
      "name": "initializeAllowlist",
      "outputs": [],
      "stateMutability": "nonpayable",
      "type": "function"
    },
    {
      "inputs": [
        {
          "internalType": "bool",
          "name": "allowAny",
          "type": "bool"
        },
        {
          "internalType": "address[]",
          "name": "_addresses",
          "type": "address[]"
        }
      ],
      "name": "initializeAllowlist",
      "outputs": [],
      "stateMutability": "nonpayable",
      "type": "function"
    },
    {
      "inputs": [
        {
          "internalType": "address",
          "name": "_address",
          "type": "address"
        }
      ],
      "name": "isAllowed",
      "outputs": [
        {
          "internalType": "bool",
          "name": "",
          "type": "bool"
        }
      ],
      "stateMutability": "view",
      "type": "function"
    },
    {
      "inputs": [
        {
          "internalType": "address",
          "name": "_address",
          "type": "address"
        }
      ],
      "name": "removeFromAllowlist",
      "outputs": [],
      "stateMutability": "nonpayable",
      "type": "function"
    },
    {
      "inputs": [
        {
          "internalType": "address",
          "name": "_address",
          "type": "address"
        },
        {
          "internalType": "bool",
          "name": "_allowAny",
          "type": "bool"
        }
      ],
      "name": "removeFromAllowlist",
      "outputs": [],
      "stateMutability": "nonpayable",
      "type": "function"
    },
    {
      "inputs": [
        {
          "internalType": "bool",
          "name": "_allowAny",
          "type": "bool"
        }
      ],
      "name": "setAllowAny",
      "outputs": [],
      "stateMutability": "nonpayable",
      "type": "function"
    }
  ],
  "transactionHash": "0xaa02a60c11829fe9598a29de25edd92400825b3556eaa3e17da03d0741216b9b",
  "args": [],
  "numDeployments": 5,
  "solcInputHash": "330ef4db030cb639f1c6b9c849f07115",
  "bytecode": "0x608060405234801561001057600080fd5b506112e0806100206000396000f3fe608060405234801561001057600080fd5b50600436106101005760003560e01c8063ac3a8c1111610097578063ec7ce71111610066578063ec7ce71114610208578063ed455af61461021b578063efa0a33f1461022e578063f8e86ece1461024157600080fd5b8063ac3a8c11146101ba578063babcc539146101cd578063c5eff3d0146101e0578063ce38b84a146101f557600080fd5b80639371ff2d116100d35780639371ff2d14610153578063939c2673146101665780639edcd94014610194578063a1ecb276146101a757600080fd5b806329953efa146101055780635da93d7e1461011a5780636d85c43c1461012d5780638ac7979114610140575b600080fd5b610118610113366004610d55565b610254565b005b610118610128366004610d87565b610279565b61011861013b366004610e5a565b61029a565b61011861014e366004610e5a565b6102bb565b610118610161366004610e97565b6102dc565b60008051602061128b83398151915254610100900460ff165b60405190151581526020015b60405180910390f35b6101186101a2366004610ef5565b61037d565b6101186101b5366004610f43565b6103a7565b6101186101c8366004610f91565b6103f3565b61017f6101db366004610d87565b61041d565b6101e861042e565b60405161018b9190610feb565b610118610203366004611038565b610438565b6101186102163660046110ac565b610471565b6101186102293660046110ac565b610492565b61011861023c366004610ef5565b6104b3565b61011861024f366004610d87565b6104d4565b60008051602061126b83398151915261026c816104f5565b61027582610502565b5050565b60008051602061126b833981519152610291816104f5565b61027582610554565b60008051602061126b8339815191526102b2816104f5565b610275826105c6565b60008051602061126b8339815191526102d3816104f5565b6102758261065f565b60008051602061128b8339815191525460ff16156103155760405162461bcd60e51b815260040161030c906110d6565b60405180910390fd5b61032763babcc53960e01b60016106ec565b61033963466a36a560e11b60016106ec565b61035160008051602061126b83398151915284610762565b61036960008051602061126b833981519152806107d6565b6103738282610840565b505050565b905090565b60008051602061126b833981519152610395816104f5565b61039e836105c6565b61037382610502565b60008051602061128b8339815191525460ff16156103d75760405162461bcd60e51b815260040161030c906110d6565b6103e963babcc53960e01b60016106ec565b6102758282610840565b60008051602061126b83398151915261040b816104f5565b610414836105c6565b6103738261065f565b600061042882610897565b92915050565b60606103786108d6565b60008051602061126b833981519152610450816104f5565b610459846105c6565b6104628361065f565b61046b82610502565b50505050565b60008051602061126b833981519152610489816104f5565b61039e83610554565b60008051602061126b8339815191526104aa816104f5565b61039e83610916565b60008051602061126b8339815191526104cb816104f5565b61039e8361065f565b60008051602061126b8339815191526104ec816104f5565b61027582610916565b6104ff8133610988565b50565b60008051602061128b833981519152805461ff0019166101008315159081029190911782556040517f20a26f70c17ef9c9bac355de2d5319262bc14d5476e4e9a379fa663ef172486e90600090a25050565b60008051602061128b83398151915261058d7f9fca1883cea1af9526093bc3a6f14a88fc5b5aaf6b6820bb26ccaa4c275327c5836109ea565b506040516001600160a01b038316907fe5058b95b8b6a8d48a6d241621ef523fab84db6043988a2f925baebedaa7883890600090a25050565b60008051602061128b83398151915260005b8251811015610623576106108382815181106105f6576105f6611119565b6020026020010151836001016109ea90919063ffffffff16565b508061061b81611145565b9150506105d8565b507f51c358fa6c3f60ee363b7ab42087f4213a5587a26894a20bd7834f6f05448d7b826040516106539190610feb565b60405180910390a15050565b60008051602061128b83398151915260005b82518110156106bc576106a983828151811061068f5761068f611119565b6020026020010151836001016109ff90919063ffffffff16565b50806106b481611145565b915050610671565b507fa35b66497e60321eb5acd99f32e26a2b40c0257bf1c3a9fa52173dfd719c4621826040516106539190610feb565b6001600160e01b031980831690036107175760405163b0a19dd560e01b815260040160405180910390fd5b6001600160e01b03199190911660009081527ffc606c433378e3a7e0a6a531deac289b66caa1b4aa8554fd4ab2c6f1570f92d860205260409020805460ff1916911515919091179055565b60008281527fd3889cc5458b268d0544e5534672df1296288ca3f93cbd39bd6f497a5c6228116020526040902061079990826109ff565b5060405133906001600160a01b0383169084907f2f8788117e7eff1d82e926ec794901d17c78024a50270940304540a733656f0d90600090a45050565b60008281527fd3889cc5458b268d0544e5534672df1296288ca3f93cbd39bd6f497a5c6228116020526040808220600201805490849055905190918391839186917fbd79b86ffe0ab8e8776151514217cd7cacd52c909f66475c3af44e129f0b00ff9190a4505050565b60008051602061128b833981519152805460ff1916600117815561086383610502565b60005b825181101561046b5761088483828151811061068f5761068f611119565b508061088f81611145565b915050610866565b60008051602061128b833981519152805460009190610100900460ff16156108c25750600192915050565b6108cf6001820184610a14565b9392505050565b606060008051602061128b8339815191526109107f9fca1883cea1af9526093bc3a6f14a88fc5b5aaf6b6820bb26ccaa4c275327c5610a36565b91505090565b60008051602061128b83398151915261094f7f9fca1883cea1af9526093bc3a6f14a88fc5b5aaf6b6820bb26ccaa4c275327c5836109ff565b506040516001600160a01b038316907f7eb3c7851085a7c7e2aa1a622201d2fcd72a7edf43e9321c62367687b30bb76f90600090a25050565b6109928282610a9c565b610275576109a8816001600160a01b0316610ad3565b6109b3836020610ae5565b6040516020016109c4929190611182565b60408051601f198184030181529082905262461bcd60e51b825261030c916004016111f7565b60006108cf836001600160a01b038416610c38565b60006108cf836001600160a01b038416610cfd565b6001600160a01b038116600090815260018301602052604081205415156108cf565b80546040805160208084028201810190925282815260609284928392918391830182828015610a8e57602002820191906000526020600020905b81546001600160a01b03168152600190910190602001808311610a70575b505050505092505050919050565b60008281527fd3889cc5458b268d0544e5534672df1296288ca3f93cbd39bd6f497a5c622811602052604081206108cf9083610a14565b60606104286001600160a01b03831660145b60606000610af483600261122a565b610aff906002611241565b67ffffffffffffffff811115610b1757610b17610da2565b6040519080825280601f01601f191660200182016040528015610b41576020820181803683370190505b509050600360fc1b81600081518110610b5c57610b5c611119565b60200101906001600160f81b031916908160001a905350600f60fb1b81600181518110610b8b57610b8b611119565b60200101906001600160f81b031916908160001a905350600160028402015b6001811115610c18576f181899199a1a9b1b9c1cb0b131b232b360811b85600f1660108110610bdb57610bdb611119565b1a60f81b828281518110610bf157610bf1611119565b60200101906001600160f81b031916908160001a90535060049490941c9360001901610baa565b5083156108cf5760405163c913478560e01b815260040160405180910390fd5b60008181526001830160205260408120548015610cf657835460009085906000198101908110610c6a57610c6a611119565b9060005260206000200154905080856000016001840381548110610c9057610c90611119565b6000918252602080832090910192909255918252600186019052604090208190558354849080610cc257610cc2611254565b6001900381819060005260206000200160009055905583600101600084815260200190815260200160002060009055600191505b5092915050565b6000818152600183016020526040812054610428575081546001808201845560008481526020808220909301849055845493815293810190915260409092205590565b80358015158114610d5057600080fd5b919050565b600060208284031215610d6757600080fd5b6108cf82610d40565b80356001600160a01b0381168114610d5057600080fd5b600060208284031215610d9957600080fd5b6108cf82610d70565b634e487b7160e01b600052604160045260246000fd5b600082601f830112610dc957600080fd5b8135602067ffffffffffffffff80831115610de657610de6610da2565b8260051b604051601f19603f83011681018181108482111715610e0b57610e0b610da2565b604052938452858101830193838101925087851115610e2957600080fd5b83870191505b84821015610e4f57610e4082610d70565b83529183019190830190610e2f565b979650505050505050565b600060208284031215610e6c57600080fd5b813567ffffffffffffffff811115610e8357600080fd5b610e8f84828501610db8565b949350505050565b600080600060608486031215610eac57600080fd5b610eb584610d70565b9250610ec360208501610d40565b9150604084013567ffffffffffffffff811115610edf57600080fd5b610eeb86828701610db8565b9150509250925092565b60008060408385031215610f0857600080fd5b823567ffffffffffffffff811115610f1f57600080fd5b610f2b85828601610db8565b925050610f3a60208401610d40565b90509250929050565b60008060408385031215610f5657600080fd5b610f5f83610d40565b9150602083013567ffffffffffffffff811115610f7b57600080fd5b610f8785828601610db8565b9150509250929050565b60008060408385031215610fa457600080fd5b823567ffffffffffffffff80821115610fbc57600080fd5b610fc886838701610db8565b93506020850135915080821115610fde57600080fd5b50610f8785828601610db8565b6020808252825182820181905260009190848201906040850190845b8181101561102c5783516001600160a01b031683529284019291840191600101611007565b50909695505050505050565b60008060006060848603121561104d57600080fd5b833567ffffffffffffffff8082111561106557600080fd5b61107187838801610db8565b9450602086013591508082111561108757600080fd5b5061109486828701610db8565b9250506110a360408501610d40565b90509250925092565b600080604083850312156110bf57600080fd5b6110c883610d70565b9150610f3a60208401610d40565b60208082526023908201527f416c6c6f776c69737446616365743a20616c726561647920696e697469616c696040820152621e995960ea1b606082015260800190565b634e487b7160e01b600052603260045260246000fd5b634e487b7160e01b600052601160045260246000fd5b6000600182016111575761115761112f565b5060010190565b60005b83811015611179578181015183820152602001611161565b50506000910152565b7f416363657373436f6e74726f6c3a206163636f756e74200000000000000000008152600083516111ba81601785016020880161115e565b7001034b99036b4b9b9b4b733903937b6329607d1b60179184019182015283516111eb81602884016020880161115e565b01602801949350505050565b602081526000825180602084015261121681604085016020870161115e565b601f01601f19169190910160400192915050565b80820281158282048414176104285761042861112f565b808201808211156104285761042861112f565b634e487b7160e01b600052603160045260246000fdfe18442e22641370002622a608e197db432d3d4c113dab8ef4bf55fdc4eeed18699fca1883cea1af9526093bc3a6f14a88fc5b5aaf6b6820bb26ccaa4c275327c4a264697066735822122064450cdc4836bbbaf108619755b0c3b7e5c683ed753319e18aeaafa4dde19ccd64736f6c63430008110033",
  "devdoc": {
    "details": "Allows owner to set an allowlist of addresses",
    "kind": "dev",
    "methods": {},
    "title": "AllowlistFacet",
    "version": 1
  },
  "userdoc": {
    "kind": "user",
    "methods": {
      "addToAllowlist(address)": {
        "notice": "Add to allowlist"
      },
      "addToAllowlist(address,bool)": {
        "notice": "Add to allowlist with allow any"
      },
      "batchAddToAllowlist(address[])": {
        "notice": "Batch add to allowlist"
      },
      "batchAddToAllowlist(address[],bool)": {
        "notice": "Batch add to allowlist with allow any"
      },
      "batchRemoveFromAllowlist(address[])": {
        "notice": "Batch remove from allowlist"
      },
      "batchRemoveFromAllowlist(address[],bool)": {
        "notice": "Batch remove from allowlist with allow any"
      },
      "batchUpdateAllowlist(address[],address[])": {
        "notice": "Batch update allowlist"
      },
      "batchUpdateAllowlist(address[],address[],bool)": {
        "notice": "Batch update allowlist with allow any"
      },
      "getAllowAny()": {
        "notice": "Get allow any"
      },
      "getAllowlist()": {
        "notice": "Get allowlist as array"
      },
      "initializeAllowlist(address,bool,address[])": {
        "notice": "Initialize allowlist with owner"
      },
      "initializeAllowlist(bool,address[])": {
        "notice": "Initialize allowlist"
      },
      "isAllowed(address)": {
        "notice": "Check if address is allowed"
      },
      "removeFromAllowlist(address)": {
        "notice": "Remove from allowlist"
      },
      "removeFromAllowlist(address,bool)": {
        "notice": "Remove from allowlist with allow any"
      },
      "setAllowAny(bool)": {
        "notice": "Set allow any"
      }
    },
    "version": 1
  },
  "storageLayout": {
    "storage": [],
    "types": null
  }
}