{
  "address": "0x38eAe7350fC8198E0924356C4Cd61d0AA6A19d7c",
  "abi": [
    {
      "inputs": [],
      "name": "ERC165Base__InvalidInterfaceId",
      "type": "error"
    },
    {
      "inputs": [],
      "name": "UintUtils__InsufficientHexLength",
      "type": "error"
    },
    {
      "anonymous": false,
      "inputs": [
        {
          "indexed": true,
          "internalType": "bool",
          "name": "_allowAny",
          "type": "bool"
        }
      ],
      "name": "AllowAnyUpdated",
      "type": "event"
    },
    {
      "anonymous": false,
      "inputs": [
        {
          "indexed": true,
          "internalType": "address",
          "name": "_address",
          "type": "address"
        }
      ],
      "name": "Allowlisted",
      "type": "event"
    },
    {
      "anonymous": false,
      "inputs": [
        {
          "indexed": false,
          "internalType": "address[]",
          "name": "_addresses",
          "type": "address[]"
        }
      ],
      "name": "BatchAllowlisted",
      "type": "event"
    },
    {
      "anonymous": false,
      "inputs": [
        {
          "indexed": false,
          "internalType": "address[]",
          "name": "_addresses",
          "type": "address[]"
        }
      ],
      "name": "BatchUnallowlisted",
      "type": "event"
    },
    {
      "anonymous": false,
      "inputs": [
        {
          "indexed": true,
          "internalType": "bytes32",
          "name": "role",
          "type": "bytes32"
        },
        {
          "indexed": true,
          "internalType": "bytes32",
          "name": "previousAdminRole",
          "type": "bytes32"
        },
        {
          "indexed": true,
          "internalType": "bytes32",
          "name": "newAdminRole",
          "type": "bytes32"
        }
      ],
      "name": "RoleAdminChanged",
      "type": "event"
    },
    {
      "anonymous": false,
      "inputs": [
        {
          "indexed": true,
          "internalType": "bytes32",
          "name": "role",
          "type": "bytes32"
        },
        {
          "indexed": true,
          "internalType": "address",
          "name": "account",
          "type": "address"
        },
        {
          "indexed": true,
          "internalType": "address",
          "name": "sender",
          "type": "address"
        }
      ],
      "name": "RoleGranted",
      "type": "event"
    },
    {
      "anonymous": false,
      "inputs": [
        {
          "indexed": true,
          "internalType": "bytes32",
          "name": "role",
          "type": "bytes32"
        },
        {
          "indexed": true,
          "internalType": "address",
          "name": "account",
          "type": "address"
        },
        {
          "indexed": true,
          "internalType": "address",
          "name": "sender",
          "type": "address"
        }
      ],
      "name": "RoleRevoked",
      "type": "event"
    },
    {
      "anonymous": false,
      "inputs": [
        {
          "indexed": true,
          "internalType": "address",
          "name": "_address",
          "type": "address"
        }
      ],
      "name": "Unallowlisted",
      "type": "event"
    },
    {
      "inputs": [
        {
          "internalType": "address",
          "name": "_address",
          "type": "address"
        }
      ],
      "name": "addToAllowlist",
      "outputs": [],
      "stateMutability": "nonpayable",
      "type": "function"
    },
    {
      "inputs": [
        {
          "internalType": "address[]",
          "name": "_addresses",
          "type": "address[]"
        }
      ],
      "name": "batchAddToAllowlist",
      "outputs": [],
      "stateMutability": "nonpayable",
      "type": "function"
    },
    {
      "inputs": [
        {
          "internalType": "address[]",
          "name": "_addresses",
          "type": "address[]"
        }
      ],
      "name": "batchRemoveFromAllowlist",
      "outputs": [],
      "stateMutability": "nonpayable",
      "type": "function"
    },
    {
      "inputs": [
        {
          "internalType": "address",
          "name": "_owner",
          "type": "address"
        },
        {
          "internalType": "bool",
          "name": "allowAny",
          "type": "bool"
        },
        {
          "internalType": "address[]",
          "name": "_addresses",
          "type": "address[]"
        }
      ],
      "name": "initializeAllowlist",
      "outputs": [],
      "stateMutability": "nonpayable",
      "type": "function"
    },
    {
      "inputs": [
        {
          "internalType": "bool",
          "name": "allowAny",
          "type": "bool"
        },
        {
          "internalType": "address[]",
          "name": "_addresses",
          "type": "address[]"
        }
      ],
      "name": "initializeAllowlist",
      "outputs": [],
      "stateMutability": "nonpayable",
      "type": "function"
    },
    {
      "inputs": [
        {
          "internalType": "address",
          "name": "_address",
          "type": "address"
        }
      ],
      "name": "isAllowed",
      "outputs": [
        {
          "internalType": "bool",
          "name": "",
          "type": "bool"
        }
      ],
      "stateMutability": "view",
      "type": "function"
    },
    {
      "inputs": [
        {
          "internalType": "address",
          "name": "_address",
          "type": "address"
        }
      ],
      "name": "removeFromAllowlist",
      "outputs": [],
      "stateMutability": "nonpayable",
      "type": "function"
    },
    {
      "inputs": [
        {
          "internalType": "bool",
          "name": "_allowAny",
          "type": "bool"
        }
      ],
      "name": "setAllowAny",
      "outputs": [],
      "stateMutability": "nonpayable",
      "type": "function"
    }
  ],
  "transactionHash": "0x4c2478a916a135d268756275bb4618bc2a289c4c26ba3b5a376d44cdaa534d4d",
  "args": [],
  "numDeployments": 3,
  "solcInputHash": "6c888aa10e35a22f249b25a5efb27637",
  "bytecode": "0x608060405234801561001057600080fd5b50610ee2806100206000396000f3fe608060405234801561001057600080fd5b50600436106100885760003560e01c80639371ff2d1161005b5780639371ff2d146100db578063a1ecb276146100ee578063babcc53914610101578063f8e86ece1461012857600080fd5b806329953efa1461008d5780635da93d7e146100a25780636d85c43c146100b55780638ac79791146100c8575b600080fd5b6100a061009b366004610a9d565b61013b565b005b6100a06100b0366004610acf565b610160565b6100a06100c3366004610ba2565b610181565b6100a06100d6366004610ba2565b6101a2565b6100a06100e9366004610bdf565b6101c3565b6100a06100fc366004610c3d565b61025f565b61011461010f366004610acf565b6102ab565b604051901515815260200160405180910390f35b6100a0610136366004610acf565b6102bc565b600080516020610e6d833981519152610153816102dd565b61015c826102ea565b5050565b600080516020610e6d833981519152610178816102dd565b61015c8261033c565b600080516020610e6d833981519152610199816102dd565b61015c826103ae565b600080516020610e6d8339815191526101ba816102dd565b61015c82610447565b600080516020610e8d8339815191525460ff16156101fc5760405162461bcd60e51b81526004016101f390610c8b565b60405180910390fd5b61020e63babcc53960e01b60016104d4565b61022063466a36a560e11b60016104d4565b610238600080516020610e6d8339815191528461054a565b610250600080516020610e6d833981519152806105be565b61025a8282610628565b505050565b600080516020610e8d8339815191525460ff161561028f5760405162461bcd60e51b81526004016101f390610c8b565b6102a163babcc53960e01b60016104d4565b61015c8282610628565b60006102b682610685565b92915050565b600080516020610e6d8339815191526102d4816102dd565b61015c826106c4565b6102e78133610736565b50565b600080516020610e8d833981519152805461ff0019166101008315159081029190911782556040517f20a26f70c17ef9c9bac355de2d5319262bc14d5476e4e9a379fa663ef172486e90600090a25050565b600080516020610e8d8339815191526103757f9fca1883cea1af9526093bc3a6f14a88fc5b5aaf6b6820bb26ccaa4c275327c583610798565b506040516001600160a01b038316907fe5058b95b8b6a8d48a6d241621ef523fab84db6043988a2f925baebedaa7883890600090a25050565b600080516020610e8d83398151915260005b825181101561040b576103f88382815181106103de576103de610cce565b60200260200101518360010161079890919063ffffffff16565b508061040381610cfa565b9150506103c0565b507f51c358fa6c3f60ee363b7ab42087f4213a5587a26894a20bd7834f6f05448d7b8260405161043b9190610d13565b60405180910390a15050565b600080516020610e8d83398151915260005b82518110156104a45761049183828151811061047757610477610cce565b6020026020010151836001016107ad90919063ffffffff16565b508061049c81610cfa565b915050610459565b507fa35b66497e60321eb5acd99f32e26a2b40c0257bf1c3a9fa52173dfd719c46218260405161043b9190610d13565b6001600160e01b031980831690036104ff5760405163b0a19dd560e01b815260040160405180910390fd5b6001600160e01b03199190911660009081527ffc606c433378e3a7e0a6a531deac289b66caa1b4aa8554fd4ab2c6f1570f92d860205260409020805460ff1916911515919091179055565b60008281527fd3889cc5458b268d0544e5534672df1296288ca3f93cbd39bd6f497a5c6228116020526040902061058190826107ad565b5060405133906001600160a01b0383169084907f2f8788117e7eff1d82e926ec794901d17c78024a50270940304540a733656f0d90600090a45050565b60008281527fd3889cc5458b268d0544e5534672df1296288ca3f93cbd39bd6f497a5c6228116020526040808220600201805490849055905190918391839186917fbd79b86ffe0ab8e8776151514217cd7cacd52c909f66475c3af44e129f0b00ff9190a4505050565b600080516020610e8d833981519152805460ff1916600117815561064b836102ea565b60005b825181101561067f5761066c83828151811061047757610477610cce565b508061067781610cfa565b91505061064e565b50505050565b600080516020610e8d833981519152805460009190610100900460ff16156106b05750600192915050565b6106bd60018201846107c2565b9392505050565b600080516020610e8d8339815191526106fd7f9fca1883cea1af9526093bc3a6f14a88fc5b5aaf6b6820bb26ccaa4c275327c5836107ad565b506040516001600160a01b038316907f7eb3c7851085a7c7e2aa1a622201d2fcd72a7edf43e9321c62367687b30bb76f90600090a25050565b61074082826107e4565b61015c57610756816001600160a01b031661081b565b61076183602061082d565b604051602001610772929190610d84565b60408051601f198184030181529082905262461bcd60e51b82526101f391600401610df9565b60006106bd836001600160a01b038416610980565b60006106bd836001600160a01b038416610a45565b6001600160a01b038116600090815260018301602052604081205415156106bd565b60008281527fd3889cc5458b268d0544e5534672df1296288ca3f93cbd39bd6f497a5c622811602052604081206106bd90836107c2565b60606102b66001600160a01b03831660145b6060600061083c836002610e2c565b610847906002610e43565b67ffffffffffffffff81111561085f5761085f610aea565b6040519080825280601f01601f191660200182016040528015610889576020820181803683370190505b509050600360fc1b816000815181106108a4576108a4610cce565b60200101906001600160f81b031916908160001a905350600f60fb1b816001815181106108d3576108d3610cce565b60200101906001600160f81b031916908160001a905350600160028402015b6001811115610960576f181899199a1a9b1b9c1cb0b131b232b360811b85600f166010811061092357610923610cce565b1a60f81b82828151811061093957610939610cce565b60200101906001600160f81b031916908160001a90535060049490941c93600019016108f2565b5083156106bd5760405163c913478560e01b815260040160405180910390fd5b60008181526001830160205260408120548015610a3e578354600090859060001981019081106109b2576109b2610cce565b90600052602060002001549050808560000160018403815481106109d8576109d8610cce565b6000918252602080832090910192909255918252600186019052604090208190558354849080610a0a57610a0a610e56565b6001900381819060005260206000200160009055905583600101600084815260200190815260200160002060009055600191505b5092915050565b60008181526001830160205260408120546102b6575081546001808201845560008481526020808220909301849055845493815293810190915260409092205590565b80358015158114610a9857600080fd5b919050565b600060208284031215610aaf57600080fd5b6106bd82610a88565b80356001600160a01b0381168114610a9857600080fd5b600060208284031215610ae157600080fd5b6106bd82610ab8565b634e487b7160e01b600052604160045260246000fd5b600082601f830112610b1157600080fd5b8135602067ffffffffffffffff80831115610b2e57610b2e610aea565b8260051b604051601f19603f83011681018181108482111715610b5357610b53610aea565b604052938452858101830193838101925087851115610b7157600080fd5b83870191505b84821015610b9757610b8882610ab8565b83529183019190830190610b77565b979650505050505050565b600060208284031215610bb457600080fd5b813567ffffffffffffffff811115610bcb57600080fd5b610bd784828501610b00565b949350505050565b600080600060608486031215610bf457600080fd5b610bfd84610ab8565b9250610c0b60208501610a88565b9150604084013567ffffffffffffffff811115610c2757600080fd5b610c3386828701610b00565b9150509250925092565b60008060408385031215610c5057600080fd5b610c5983610a88565b9150602083013567ffffffffffffffff811115610c7557600080fd5b610c8185828601610b00565b9150509250929050565b60208082526023908201527f416c6c6f776c69737446616365743a20616c726561647920696e697469616c696040820152621e995960ea1b606082015260800190565b634e487b7160e01b600052603260045260246000fd5b634e487b7160e01b600052601160045260246000fd5b600060018201610d0c57610d0c610ce4565b5060010190565b6020808252825182820181905260009190848201906040850190845b81811015610d545783516001600160a01b031683529284019291840191600101610d2f565b50909695505050505050565b60005b83811015610d7b578181015183820152602001610d63565b50506000910152565b7f416363657373436f6e74726f6c3a206163636f756e7420000000000000000000815260008351610dbc816017850160208801610d60565b7001034b99036b4b9b9b4b733903937b6329607d1b6017918401918201528351610ded816028840160208801610d60565b01602801949350505050565b6020815260008251806020840152610e18816040850160208701610d60565b601f01601f19169190910160400192915050565b80820281158282048414176102b6576102b6610ce4565b808201808211156102b6576102b6610ce4565b634e487b7160e01b600052603160045260246000fdfe18442e22641370002622a608e197db432d3d4c113dab8ef4bf55fdc4eeed18699fca1883cea1af9526093bc3a6f14a88fc5b5aaf6b6820bb26ccaa4c275327c4a2646970667358221220d5c7404b0be5e36ffd55a29b39ff7bb159a5e32e16f8d16dd13655433dbd1d1064736f6c63430008110033",
  "devdoc": {
    "details": "Allows owner to set an allowlist of addresses",
    "kind": "dev",
    "methods": {},
    "title": "AllowlistFacet",
    "version": 1
  },
  "userdoc": {
    "kind": "user",
    "methods": {
      "addToAllowlist(address)": {
        "notice": "Add to allowlist"
      },
      "batchAddToAllowlist(address[])": {
        "notice": "Batch add to allowlist"
      },
      "batchRemoveFromAllowlist(address[])": {
        "notice": "Batch remove from allowlist"
      },
      "initializeAllowlist(address,bool,address[])": {
        "notice": "Initialize allowlist with owner"
      },
      "initializeAllowlist(bool,address[])": {
        "notice": "Initialize allowlist"
      },
      "isAllowed(address)": {
        "notice": "Check if address is allowed"
      },
      "removeFromAllowlist(address)": {
        "notice": "Remove from allowlist"
      },
      "setAllowAny(bool)": {
        "notice": "Set allow any"
      }
    },
    "version": 1
  },
  "storageLayout": {
    "storage": [],
    "types": null
  }
}