{
  "address": "0xbd48DFf5a94C16987e6BED5F9c70C3664DAA92FC",
  "abi": [
    {
      "inputs": [],
      "name": "ERC165Base__InvalidInterfaceId",
      "type": "error"
    },
    {
      "inputs": [],
      "name": "UintUtils__InsufficientHexLength",
      "type": "error"
    },
    {
      "anonymous": false,
      "inputs": [
        {
          "indexed": true,
          "internalType": "bool",
          "name": "_allowAny",
          "type": "bool"
        }
      ],
      "name": "AllowAnyUpdated",
      "type": "event"
    },
    {
      "anonymous": false,
      "inputs": [
        {
          "indexed": true,
          "internalType": "address",
          "name": "_address",
          "type": "address"
        }
      ],
      "name": "Allowlisted",
      "type": "event"
    },
    {
      "anonymous": false,
      "inputs": [
        {
          "indexed": false,
          "internalType": "address[]",
          "name": "_addresses",
          "type": "address[]"
        }
      ],
      "name": "BatchAllowlisted",
      "type": "event"
    },
    {
      "anonymous": false,
      "inputs": [
        {
          "indexed": false,
          "internalType": "address[]",
          "name": "_addresses",
          "type": "address[]"
        }
      ],
      "name": "BatchUnallowlisted",
      "type": "event"
    },
    {
      "anonymous": false,
      "inputs": [
        {
          "indexed": true,
          "internalType": "bytes32",
          "name": "role",
          "type": "bytes32"
        },
        {
          "indexed": true,
          "internalType": "bytes32",
          "name": "previousAdminRole",
          "type": "bytes32"
        },
        {
          "indexed": true,
          "internalType": "bytes32",
          "name": "newAdminRole",
          "type": "bytes32"
        }
      ],
      "name": "RoleAdminChanged",
      "type": "event"
    },
    {
      "anonymous": false,
      "inputs": [
        {
          "indexed": true,
          "internalType": "bytes32",
          "name": "role",
          "type": "bytes32"
        },
        {
          "indexed": true,
          "internalType": "address",
          "name": "account",
          "type": "address"
        },
        {
          "indexed": true,
          "internalType": "address",
          "name": "sender",
          "type": "address"
        }
      ],
      "name": "RoleGranted",
      "type": "event"
    },
    {
      "anonymous": false,
      "inputs": [
        {
          "indexed": true,
          "internalType": "bytes32",
          "name": "role",
          "type": "bytes32"
        },
        {
          "indexed": true,
          "internalType": "address",
          "name": "account",
          "type": "address"
        },
        {
          "indexed": true,
          "internalType": "address",
          "name": "sender",
          "type": "address"
        }
      ],
      "name": "RoleRevoked",
      "type": "event"
    },
    {
      "anonymous": false,
      "inputs": [
        {
          "indexed": true,
          "internalType": "address",
          "name": "_address",
          "type": "address"
        }
      ],
      "name": "Unallowlisted",
      "type": "event"
    },
    {
      "inputs": [
        {
          "internalType": "address",
          "name": "_address",
          "type": "address"
        }
      ],
      "name": "addToAllowlist",
      "outputs": [],
      "stateMutability": "nonpayable",
      "type": "function"
    },
    {
      "inputs": [
        {
          "internalType": "address[]",
          "name": "_addresses",
          "type": "address[]"
        }
      ],
      "name": "batchAddToAllowlist",
      "outputs": [],
      "stateMutability": "nonpayable",
      "type": "function"
    },
    {
      "inputs": [
        {
          "internalType": "address[]",
          "name": "_addresses",
          "type": "address[]"
        }
      ],
      "name": "batchRemoveFromAllowlist",
      "outputs": [],
      "stateMutability": "nonpayable",
      "type": "function"
    },
    {
      "inputs": [
        {
          "internalType": "address",
          "name": "_owner",
          "type": "address"
        },
        {
          "internalType": "bool",
          "name": "allowAny",
          "type": "bool"
        },
        {
          "internalType": "address[]",
          "name": "_addresses",
          "type": "address[]"
        }
      ],
      "name": "initializeAllowlist",
      "outputs": [],
      "stateMutability": "nonpayable",
      "type": "function"
    },
    {
      "inputs": [
        {
          "internalType": "bool",
          "name": "allowAny",
          "type": "bool"
        },
        {
          "internalType": "address[]",
          "name": "_addresses",
          "type": "address[]"
        }
      ],
      "name": "initializeAllowlist",
      "outputs": [],
      "stateMutability": "nonpayable",
      "type": "function"
    },
    {
      "inputs": [
        {
          "internalType": "address",
          "name": "_address",
          "type": "address"
        }
      ],
      "name": "isAllowed",
      "outputs": [
        {
          "internalType": "bool",
          "name": "",
          "type": "bool"
        }
      ],
      "stateMutability": "view",
      "type": "function"
    },
    {
      "inputs": [
        {
          "internalType": "address",
          "name": "_address",
          "type": "address"
        }
      ],
      "name": "removeFromAllowlist",
      "outputs": [],
      "stateMutability": "nonpayable",
      "type": "function"
    },
    {
      "inputs": [
        {
          "internalType": "bool",
          "name": "_allowAny",
          "type": "bool"
        }
      ],
      "name": "setAllowAny",
      "outputs": [],
      "stateMutability": "nonpayable",
      "type": "function"
    }
  ],
  "transactionHash": "0xd6bff928dd844831ac69dc08b7e6548e87d9d47acec0402c2df552b83bb7dfd0",
  "args": [],
  "numDeployments": 2,
  "solcInputHash": "5e0881d851e4a7568a40837869c96659",
  "bytecode": "0x608060405234801561001057600080fd5b50610e60806100206000396000f3fe608060405234801561001057600080fd5b50600436106100885760003560e01c80639371ff2d1161005b5780639371ff2d146100db578063a1ecb276146100ee578063babcc53914610101578063f8e86ece1461012857600080fd5b806329953efa1461008d5780635da93d7e146100a25780636d85c43c146100b55780638ac79791146100c8575b600080fd5b6100a061009b366004610a1b565b61013b565b005b6100a06100b0366004610a4d565b610160565b6100a06100c3366004610b20565b610181565b6100a06100d6366004610b20565b6101a2565b6100a06100e9366004610b5d565b6101c3565b6100a06100fc366004610bbb565b610247565b61011461010f366004610a4d565b610293565b604051901515815260200160405180910390f35b6100a0610136366004610a4d565b6102a4565b600080516020610deb833981519152610153816102c5565b61015c826102d2565b5050565b600080516020610deb833981519152610178816102c5565b61015c82610324565b600080516020610deb833981519152610199816102c5565b61015c82610396565b600080516020610deb8339815191526101ba816102c5565b61015c8261042f565b600080516020610e0b8339815191525460ff16156101fc5760405162461bcd60e51b81526004016101f390610c09565b60405180910390fd5b61020e63babcc53960e01b60016104bc565b61022063466a36a560e11b60016104bc565b610238600080516020610deb83398151915284610532565b61024282826105a6565b505050565b600080516020610e0b8339815191525460ff16156102775760405162461bcd60e51b81526004016101f390610c09565b61028963babcc53960e01b60016104bc565b61015c82826105a6565b600061029e82610603565b92915050565b600080516020610deb8339815191526102bc816102c5565b61015c82610642565b6102cf81336106b4565b50565b600080516020610e0b833981519152805461ff0019166101008315159081029190911782556040517f20a26f70c17ef9c9bac355de2d5319262bc14d5476e4e9a379fa663ef172486e90600090a25050565b600080516020610e0b83398151915261035d7f9fca1883cea1af9526093bc3a6f14a88fc5b5aaf6b6820bb26ccaa4c275327c583610716565b506040516001600160a01b038316907fe5058b95b8b6a8d48a6d241621ef523fab84db6043988a2f925baebedaa7883890600090a25050565b600080516020610e0b83398151915260005b82518110156103f3576103e08382815181106103c6576103c6610c4c565b60200260200101518360010161071690919063ffffffff16565b50806103eb81610c78565b9150506103a8565b507f51c358fa6c3f60ee363b7ab42087f4213a5587a26894a20bd7834f6f05448d7b826040516104239190610c91565b60405180910390a15050565b600080516020610e0b83398151915260005b825181101561048c5761047983828151811061045f5761045f610c4c565b60200260200101518360010161072b90919063ffffffff16565b508061048481610c78565b915050610441565b507fa35b66497e60321eb5acd99f32e26a2b40c0257bf1c3a9fa52173dfd719c4621826040516104239190610c91565b6001600160e01b031980831690036104e75760405163b0a19dd560e01b815260040160405180910390fd5b6001600160e01b03199190911660009081527ffc606c433378e3a7e0a6a531deac289b66caa1b4aa8554fd4ab2c6f1570f92d860205260409020805460ff1916911515919091179055565b60008281527fd3889cc5458b268d0544e5534672df1296288ca3f93cbd39bd6f497a5c62281160205260409020610569908261072b565b5060405133906001600160a01b0383169084907f2f8788117e7eff1d82e926ec794901d17c78024a50270940304540a733656f0d90600090a45050565b600080516020610e0b833981519152805460ff191660011781556105c9836102d2565b60005b82518110156105fd576105ea83828151811061045f5761045f610c4c565b50806105f581610c78565b9150506105cc565b50505050565b600080516020610e0b833981519152805460009190610100900460ff161561062e5750600192915050565b61063b6001820184610740565b9392505050565b600080516020610e0b83398151915261067b7f9fca1883cea1af9526093bc3a6f14a88fc5b5aaf6b6820bb26ccaa4c275327c58361072b565b506040516001600160a01b038316907f7eb3c7851085a7c7e2aa1a622201d2fcd72a7edf43e9321c62367687b30bb76f90600090a25050565b6106be8282610762565b61015c576106d4816001600160a01b0316610799565b6106df8360206107ab565b6040516020016106f0929190610d02565b60408051601f198184030181529082905262461bcd60e51b82526101f391600401610d77565b600061063b836001600160a01b0384166108fe565b600061063b836001600160a01b0384166109c3565b6001600160a01b0381166000908152600183016020526040812054151561063b565b60008281527fd3889cc5458b268d0544e5534672df1296288ca3f93cbd39bd6f497a5c6228116020526040812061063b9083610740565b606061029e6001600160a01b03831660145b606060006107ba836002610daa565b6107c5906002610dc1565b67ffffffffffffffff8111156107dd576107dd610a68565b6040519080825280601f01601f191660200182016040528015610807576020820181803683370190505b509050600360fc1b8160008151811061082257610822610c4c565b60200101906001600160f81b031916908160001a905350600f60fb1b8160018151811061085157610851610c4c565b60200101906001600160f81b031916908160001a905350600160028402015b60018111156108de576f181899199a1a9b1b9c1cb0b131b232b360811b85600f16601081106108a1576108a1610c4c565b1a60f81b8282815181106108b7576108b7610c4c565b60200101906001600160f81b031916908160001a90535060049490941c9360001901610870565b50831561063b5760405163c913478560e01b815260040160405180910390fd5b600081815260018301602052604081205480156109bc5783546000908590600019810190811061093057610930610c4c565b906000526020600020015490508085600001600184038154811061095657610956610c4c565b600091825260208083209091019290925591825260018601905260409020819055835484908061098857610988610dd4565b6001900381819060005260206000200160009055905583600101600084815260200190815260200160002060009055600191505b5092915050565b600081815260018301602052604081205461029e575081546001808201845560008481526020808220909301849055845493815293810190915260409092205590565b80358015158114610a1657600080fd5b919050565b600060208284031215610a2d57600080fd5b61063b82610a06565b80356001600160a01b0381168114610a1657600080fd5b600060208284031215610a5f57600080fd5b61063b82610a36565b634e487b7160e01b600052604160045260246000fd5b600082601f830112610a8f57600080fd5b8135602067ffffffffffffffff80831115610aac57610aac610a68565b8260051b604051601f19603f83011681018181108482111715610ad157610ad1610a68565b604052938452858101830193838101925087851115610aef57600080fd5b83870191505b84821015610b1557610b0682610a36565b83529183019190830190610af5565b979650505050505050565b600060208284031215610b3257600080fd5b813567ffffffffffffffff811115610b4957600080fd5b610b5584828501610a7e565b949350505050565b600080600060608486031215610b7257600080fd5b610b7b84610a36565b9250610b8960208501610a06565b9150604084013567ffffffffffffffff811115610ba557600080fd5b610bb186828701610a7e565b9150509250925092565b60008060408385031215610bce57600080fd5b610bd783610a06565b9150602083013567ffffffffffffffff811115610bf357600080fd5b610bff85828601610a7e565b9150509250929050565b60208082526023908201527f416c6c6f776c69737446616365743a20616c726561647920696e697469616c696040820152621e995960ea1b606082015260800190565b634e487b7160e01b600052603260045260246000fd5b634e487b7160e01b600052601160045260246000fd5b600060018201610c8a57610c8a610c62565b5060010190565b6020808252825182820181905260009190848201906040850190845b81811015610cd25783516001600160a01b031683529284019291840191600101610cad565b50909695505050505050565b60005b83811015610cf9578181015183820152602001610ce1565b50506000910152565b7f416363657373436f6e74726f6c3a206163636f756e7420000000000000000000815260008351610d3a816017850160208801610cde565b7001034b99036b4b9b9b4b733903937b6329607d1b6017918401918201528351610d6b816028840160208801610cde565b01602801949350505050565b6020815260008251806020840152610d96816040850160208701610cde565b601f01601f19169190910160400192915050565b808202811582820484141761029e5761029e610c62565b8082018082111561029e5761029e610c62565b634e487b7160e01b600052603160045260246000fdfe18442e22641370002622a608e197db432d3d4c113dab8ef4bf55fdc4eeed18699fca1883cea1af9526093bc3a6f14a88fc5b5aaf6b6820bb26ccaa4c275327c4a26469706673582212208227266e45ae95f1300ab52c242549c52198e80ce8f5f88852f75a3e1dfd9b9264736f6c63430008110033",
  "devdoc": {
    "details": "Allows owner to set an allowlist of addresses",
    "kind": "dev",
    "methods": {},
    "title": "AllowlistFacet",
    "version": 1
  },
  "userdoc": {
    "kind": "user",
    "methods": {
      "addToAllowlist(address)": {
        "notice": "Add to allowlist"
      },
      "batchAddToAllowlist(address[])": {
        "notice": "Batch add to allowlist"
      },
      "batchRemoveFromAllowlist(address[])": {
        "notice": "Batch remove from allowlist"
      },
      "initializeAllowlist(address,bool,address[])": {
        "notice": "Initialize allowlist with owner"
      },
      "initializeAllowlist(bool,address[])": {
        "notice": "Initialize allowlist"
      },
      "isAllowed(address)": {
        "notice": "Check if address is allowed"
      },
      "removeFromAllowlist(address)": {
        "notice": "Remove from allowlist"
      },
      "setAllowAny(bool)": {
        "notice": "Set allow any"
      }
    },
    "version": 1
  },
  "storageLayout": {
    "storage": [],
    "types": null
  }
}