{
  "address": "0xe8393C4ea1Bd9D5fB81E17dA4D035D3Db714Ef96",
  "abi": [
    {
      "inputs": [],
      "name": "ERC165Base__InvalidInterfaceId",
      "type": "error"
    },
    {
      "inputs": [],
      "name": "UintUtils__InsufficientHexLength",
      "type": "error"
    },
    {
      "anonymous": false,
      "inputs": [
        {
          "indexed": true,
          "internalType": "bool",
          "name": "_allowAny",
          "type": "bool"
        }
      ],
      "name": "AllowAnyUpdated",
      "type": "event"
    },
    {
      "anonymous": false,
      "inputs": [
        {
          "indexed": true,
          "internalType": "address",
          "name": "_address",
          "type": "address"
        }
      ],
      "name": "Allowlisted",
      "type": "event"
    },
    {
      "anonymous": false,
      "inputs": [
        {
          "indexed": false,
          "internalType": "address[]",
          "name": "_addresses",
          "type": "address[]"
        }
      ],
      "name": "BatchAllowlisted",
      "type": "event"
    },
    {
      "anonymous": false,
      "inputs": [
        {
          "indexed": false,
          "internalType": "address[]",
          "name": "_addresses",
          "type": "address[]"
        }
      ],
      "name": "BatchUnallowlisted",
      "type": "event"
    },
    {
      "anonymous": false,
      "inputs": [
        {
          "indexed": true,
          "internalType": "bytes32",
          "name": "role",
          "type": "bytes32"
        },
        {
          "indexed": true,
          "internalType": "bytes32",
          "name": "previousAdminRole",
          "type": "bytes32"
        },
        {
          "indexed": true,
          "internalType": "bytes32",
          "name": "newAdminRole",
          "type": "bytes32"
        }
      ],
      "name": "RoleAdminChanged",
      "type": "event"
    },
    {
      "anonymous": false,
      "inputs": [
        {
          "indexed": true,
          "internalType": "bytes32",
          "name": "role",
          "type": "bytes32"
        },
        {
          "indexed": true,
          "internalType": "address",
          "name": "account",
          "type": "address"
        },
        {
          "indexed": true,
          "internalType": "address",
          "name": "sender",
          "type": "address"
        }
      ],
      "name": "RoleGranted",
      "type": "event"
    },
    {
      "anonymous": false,
      "inputs": [
        {
          "indexed": true,
          "internalType": "bytes32",
          "name": "role",
          "type": "bytes32"
        },
        {
          "indexed": true,
          "internalType": "address",
          "name": "account",
          "type": "address"
        },
        {
          "indexed": true,
          "internalType": "address",
          "name": "sender",
          "type": "address"
        }
      ],
      "name": "RoleRevoked",
      "type": "event"
    },
    {
      "anonymous": false,
      "inputs": [
        {
          "indexed": true,
          "internalType": "address",
          "name": "_address",
          "type": "address"
        }
      ],
      "name": "Unallowlisted",
      "type": "event"
    },
    {
      "inputs": [
        {
          "internalType": "address",
          "name": "_address",
          "type": "address"
        },
        {
          "internalType": "bool",
          "name": "_allowAny",
          "type": "bool"
        }
      ],
      "name": "addToAllowlist",
      "outputs": [],
      "stateMutability": "nonpayable",
      "type": "function"
    },
    {
      "inputs": [
        {
          "internalType": "address",
          "name": "_address",
          "type": "address"
        }
      ],
      "name": "addToAllowlist",
      "outputs": [],
      "stateMutability": "nonpayable",
      "type": "function"
    },
    {
      "inputs": [
        {
          "internalType": "address[]",
          "name": "_addresses",
          "type": "address[]"
        }
      ],
      "name": "batchAddToAllowlist",
      "outputs": [],
      "stateMutability": "nonpayable",
      "type": "function"
    },
    {
      "inputs": [
        {
          "internalType": "address[]",
          "name": "_addresses",
          "type": "address[]"
        },
        {
          "internalType": "bool",
          "name": "_allowAny",
          "type": "bool"
        }
      ],
      "name": "batchAddToAllowlist",
      "outputs": [],
      "stateMutability": "nonpayable",
      "type": "function"
    },
    {
      "inputs": [
        {
          "internalType": "address[]",
          "name": "_addresses",
          "type": "address[]"
        }
      ],
      "name": "batchRemoveFromAllowlist",
      "outputs": [],
      "stateMutability": "nonpayable",
      "type": "function"
    },
    {
      "inputs": [
        {
          "internalType": "address[]",
          "name": "_addresses",
          "type": "address[]"
        },
        {
          "internalType": "bool",
          "name": "_allowAny",
          "type": "bool"
        }
      ],
      "name": "batchRemoveFromAllowlist",
      "outputs": [],
      "stateMutability": "nonpayable",
      "type": "function"
    },
    {
      "inputs": [
        {
          "internalType": "address[]",
          "name": "_removeAddresses",
          "type": "address[]"
        },
        {
          "internalType": "address[]",
          "name": "_addAddresses",
          "type": "address[]"
        }
      ],
      "name": "batchUpdateAllowlist",
      "outputs": [],
      "stateMutability": "nonpayable",
      "type": "function"
    },
    {
      "inputs": [
        {
          "internalType": "address[]",
          "name": "_removeAddresses",
          "type": "address[]"
        },
        {
          "internalType": "address[]",
          "name": "_addAddresses",
          "type": "address[]"
        },
        {
          "internalType": "bool",
          "name": "_allowAny",
          "type": "bool"
        }
      ],
      "name": "batchUpdateAllowlist",
      "outputs": [],
      "stateMutability": "nonpayable",
      "type": "function"
    },
    {
      "inputs": [],
      "name": "getAllowAny",
      "outputs": [
        {
          "internalType": "bool",
          "name": "",
          "type": "bool"
        }
      ],
      "stateMutability": "view",
      "type": "function"
    },
    {
      "inputs": [],
      "name": "getAllowlist",
      "outputs": [
        {
          "internalType": "address[]",
          "name": "",
          "type": "address[]"
        }
      ],
      "stateMutability": "view",
      "type": "function"
    },
    {
      "inputs": [
        {
          "internalType": "address",
          "name": "_owner",
          "type": "address"
        },
        {
          "internalType": "bool",
          "name": "allowAny",
          "type": "bool"
        },
        {
          "internalType": "address[]",
          "name": "_addresses",
          "type": "address[]"
        }
      ],
      "name": "initializeAllowlist",
      "outputs": [],
      "stateMutability": "nonpayable",
      "type": "function"
    },
    {
      "inputs": [
        {
          "internalType": "bool",
          "name": "allowAny",
          "type": "bool"
        },
        {
          "internalType": "address[]",
          "name": "_addresses",
          "type": "address[]"
        }
      ],
      "name": "initializeAllowlist",
      "outputs": [],
      "stateMutability": "nonpayable",
      "type": "function"
    },
    {
      "inputs": [
        {
          "internalType": "address",
          "name": "_address",
          "type": "address"
        }
      ],
      "name": "isAllowed",
      "outputs": [
        {
          "internalType": "bool",
          "name": "",
          "type": "bool"
        }
      ],
      "stateMutability": "view",
      "type": "function"
    },
    {
      "inputs": [
        {
          "internalType": "address",
          "name": "_address",
          "type": "address"
        }
      ],
      "name": "removeFromAllowlist",
      "outputs": [],
      "stateMutability": "nonpayable",
      "type": "function"
    },
    {
      "inputs": [
        {
          "internalType": "address",
          "name": "_address",
          "type": "address"
        },
        {
          "internalType": "bool",
          "name": "_allowAny",
          "type": "bool"
        }
      ],
      "name": "removeFromAllowlist",
      "outputs": [],
      "stateMutability": "nonpayable",
      "type": "function"
    },
    {
      "inputs": [
        {
          "internalType": "bool",
          "name": "_allowAny",
          "type": "bool"
        }
      ],
      "name": "setAllowAny",
      "outputs": [],
      "stateMutability": "nonpayable",
      "type": "function"
    }
  ],
  "transactionHash": "0x2bc13484d1119c7e23ec089ef83a910a8d3c8d80cb72b32962a1c26b0307d0ac",
  "args": [],
  "numDeployments": 8,
  "solcInputHash": "c548b1a12c4a5b4508c1d2fe38e3b576",
  "bytecode": "0x608060405234801561001057600080fd5b50611266806100206000396000f3fe608060405234801561001057600080fd5b50600436106101005760003560e01c8063ac3a8c1111610097578063ec7ce71111610066578063ec7ce71114610208578063ed455af61461021b578063efa0a33f1461022e578063f8e86ece1461024157600080fd5b8063ac3a8c11146101ba578063babcc539146101cd578063c5eff3d0146101e0578063ce38b84a146101f557600080fd5b80639371ff2d116100d35780639371ff2d14610153578063939c2673146101665780639edcd94014610194578063a1ecb276146101a757600080fd5b806329953efa146101055780635da93d7e1461011a5780636d85c43c1461012d5780638ac7979114610140575b600080fd5b610118610113366004610cd3565b610254565b005b610118610128366004610d05565b610279565b61011861013b366004610dd8565b61029a565b61011861014e366004610dd8565b6102bb565b610118610161366004610e15565b6102dc565b60008051602061121183398151915254610100900460ff165b60405190151581526020015b60405180910390f35b6101186101a2366004610e73565b610365565b6101186101b5366004610ec1565b61038f565b6101186101c8366004610f0f565b6103db565b61017f6101db366004610d05565b610405565b6101e8610416565b60405161018b9190610f69565b610118610203366004610fb6565b610420565b61011861021636600461102a565b610459565b61011861022936600461102a565b61047a565b61011861023c366004610e73565b61049b565b61011861024f366004610d05565b6104bc565b6000805160206111f183398151915261026c816104dd565b610275826104ea565b5050565b6000805160206111f1833981519152610291816104dd565b6102758261053c565b6000805160206111f18339815191526102b2816104dd565b610275826105ae565b6000805160206111f18339815191526102d3816104dd565b61027582610647565b6000805160206112118339815191525460ff16156103155760405162461bcd60e51b815260040161030c90611054565b60405180910390fd5b61032763babcc53960e01b60016106d4565b61033963466a36a560e11b60016106d4565b6103516000805160206111f18339815191528461074a565b61035b82826107be565b505050565b905090565b6000805160206111f183398151915261037d816104dd565b610386836105ae565b61035b826104ea565b6000805160206112118339815191525460ff16156103bf5760405162461bcd60e51b815260040161030c90611054565b6103d163babcc53960e01b60016106d4565b61027582826107be565b6000805160206111f18339815191526103f3816104dd565b6103fc836105ae565b61035b82610647565b600061041082610815565b92915050565b6060610360610854565b6000805160206111f1833981519152610438816104dd565b610441846105ae565b61044a83610647565b610453826104ea565b50505050565b6000805160206111f1833981519152610471816104dd565b6103868361053c565b6000805160206111f1833981519152610492816104dd565b61038683610894565b6000805160206111f18339815191526104b3816104dd565b61038683610647565b6000805160206111f18339815191526104d4816104dd565b61027582610894565b6104e78133610906565b50565b600080516020611211833981519152805461ff0019166101008315159081029190911782556040517f20a26f70c17ef9c9bac355de2d5319262bc14d5476e4e9a379fa663ef172486e90600090a25050565b6000805160206112118339815191526105757f9fca1883cea1af9526093bc3a6f14a88fc5b5aaf6b6820bb26ccaa4c275327c583610968565b506040516001600160a01b038316907fe5058b95b8b6a8d48a6d241621ef523fab84db6043988a2f925baebedaa7883890600090a25050565b60008051602061121183398151915260005b825181101561060b576105f88382815181106105de576105de611097565b60200260200101518360010161096890919063ffffffff16565b5080610603816110c3565b9150506105c0565b507f51c358fa6c3f60ee363b7ab42087f4213a5587a26894a20bd7834f6f05448d7b8260405161063b9190610f69565b60405180910390a15050565b60008051602061121183398151915260005b82518110156106a45761069183828151811061067757610677611097565b60200260200101518360010161097d90919063ffffffff16565b508061069c816110c3565b915050610659565b507fa35b66497e60321eb5acd99f32e26a2b40c0257bf1c3a9fa52173dfd719c46218260405161063b9190610f69565b6001600160e01b031980831690036106ff5760405163b0a19dd560e01b815260040160405180910390fd5b6001600160e01b03199190911660009081527ffc606c433378e3a7e0a6a531deac289b66caa1b4aa8554fd4ab2c6f1570f92d860205260409020805460ff1916911515919091179055565b60008281527fd3889cc5458b268d0544e5534672df1296288ca3f93cbd39bd6f497a5c62281160205260409020610781908261097d565b5060405133906001600160a01b0383169084907f2f8788117e7eff1d82e926ec794901d17c78024a50270940304540a733656f0d90600090a45050565b600080516020611211833981519152805460ff191660011781556107e1836104ea565b60005b82518110156104535761080283828151811061067757610677611097565b508061080d816110c3565b9150506107e4565b600080516020611211833981519152805460009190610100900460ff16156108405750600192915050565b61084d6001820184610992565b9392505050565b606060008051602061121183398151915261088e7f9fca1883cea1af9526093bc3a6f14a88fc5b5aaf6b6820bb26ccaa4c275327c56109b4565b91505090565b6000805160206112118339815191526108cd7f9fca1883cea1af9526093bc3a6f14a88fc5b5aaf6b6820bb26ccaa4c275327c58361097d565b506040516001600160a01b038316907f7eb3c7851085a7c7e2aa1a622201d2fcd72a7edf43e9321c62367687b30bb76f90600090a25050565b6109108282610a1a565b61027557610926816001600160a01b0316610a51565b610931836020610a63565b604051602001610942929190611100565b60408051601f198184030181529082905262461bcd60e51b825261030c91600401611175565b600061084d836001600160a01b038416610bb6565b600061084d836001600160a01b038416610c7b565b6001600160a01b0381166000908152600183016020526040812054151561084d565b80546040805160208084028201810190925282815260609284928392918391830182828015610a0c57602002820191906000526020600020905b81546001600160a01b031681526001909101906020018083116109ee575b505050505092505050919050565b60008281527fd3889cc5458b268d0544e5534672df1296288ca3f93cbd39bd6f497a5c6228116020526040812061084d9083610992565b60606104106001600160a01b03831660145b60606000610a728360026111a8565b610a7d9060026111c7565b67ffffffffffffffff811115610a9557610a95610d20565b6040519080825280601f01601f191660200182016040528015610abf576020820181803683370190505b509050600360fc1b81600081518110610ada57610ada611097565b60200101906001600160f81b031916908160001a905350600f60fb1b81600181518110610b0957610b09611097565b60200101906001600160f81b031916908160001a905350600160028402015b6001811115610b96576f181899199a1a9b1b9c1cb0b131b232b360811b85600f1660108110610b5957610b59611097565b1a60f81b828281518110610b6f57610b6f611097565b60200101906001600160f81b031916908160001a90535060049490941c9360001901610b28565b50831561084d5760405163c913478560e01b815260040160405180910390fd5b60008181526001830160205260408120548015610c7457835460009085906000198101908110610be857610be8611097565b9060005260206000200154905080856000016001840381548110610c0e57610c0e611097565b6000918252602080832090910192909255918252600186019052604090208190558354849080610c4057610c406111da565b6001900381819060005260206000200160009055905583600101600084815260200190815260200160002060009055600191505b5092915050565b6000818152600183016020526040812054610410575081546001808201845560008481526020808220909301849055845493815293810190915260409092205590565b80358015158114610cce57600080fd5b919050565b600060208284031215610ce557600080fd5b61084d82610cbe565b80356001600160a01b0381168114610cce57600080fd5b600060208284031215610d1757600080fd5b61084d82610cee565b634e487b7160e01b600052604160045260246000fd5b600082601f830112610d4757600080fd5b8135602067ffffffffffffffff80831115610d6457610d64610d20565b8260051b604051601f19603f83011681018181108482111715610d8957610d89610d20565b604052938452858101830193838101925087851115610da757600080fd5b83870191505b84821015610dcd57610dbe82610cee565b83529183019190830190610dad565b979650505050505050565b600060208284031215610dea57600080fd5b813567ffffffffffffffff811115610e0157600080fd5b610e0d84828501610d36565b949350505050565b600080600060608486031215610e2a57600080fd5b610e3384610cee565b9250610e4160208501610cbe565b9150604084013567ffffffffffffffff811115610e5d57600080fd5b610e6986828701610d36565b9150509250925092565b60008060408385031215610e8657600080fd5b823567ffffffffffffffff811115610e9d57600080fd5b610ea985828601610d36565b925050610eb860208401610cbe565b90509250929050565b60008060408385031215610ed457600080fd5b610edd83610cbe565b9150602083013567ffffffffffffffff811115610ef957600080fd5b610f0585828601610d36565b9150509250929050565b60008060408385031215610f2257600080fd5b823567ffffffffffffffff80821115610f3a57600080fd5b610f4686838701610d36565b93506020850135915080821115610f5c57600080fd5b50610f0585828601610d36565b6020808252825182820181905260009190848201906040850190845b81811015610faa5783516001600160a01b031683529284019291840191600101610f85565b50909695505050505050565b600080600060608486031215610fcb57600080fd5b833567ffffffffffffffff80821115610fe357600080fd5b610fef87838801610d36565b9450602086013591508082111561100557600080fd5b5061101286828701610d36565b92505061102160408501610cbe565b90509250925092565b6000806040838503121561103d57600080fd5b61104683610cee565b9150610eb860208401610cbe565b60208082526023908201527f416c6c6f776c69737446616365743a20616c726561647920696e697469616c696040820152621e995960ea1b606082015260800190565b634e487b7160e01b600052603260045260246000fd5b634e487b7160e01b600052601160045260246000fd5b6000600182016110d5576110d56110ad565b5060010190565b60005b838110156110f75781810151838201526020016110df565b50506000910152565b7f416363657373436f6e74726f6c3a206163636f756e74200000000000000000008152600083516111388160178501602088016110dc565b7001034b99036b4b9b9b4b733903937b6329607d1b60179184019182015283516111698160288401602088016110dc565b01602801949350505050565b60208152600082518060208401526111948160408501602087016110dc565b601f01601f19169190910160400192915050565b60008160001904831182151516156111c2576111c26110ad565b500290565b80820180821115610410576104106110ad565b634e487b7160e01b600052603160045260246000fdfe18442e22641370002622a608e197db432d3d4c113dab8ef4bf55fdc4eeed18699fca1883cea1af9526093bc3a6f14a88fc5b5aaf6b6820bb26ccaa4c275327c4a2646970667358221220d63a09347165f1f9089c0aee136c8f7f9ec6d92f85671d26728614cb8a9805aa64736f6c63430008100033",
  "devdoc": {
    "details": "Allows owner to set an allowlist of addresses",
    "kind": "dev",
    "methods": {},
    "title": "AllowlistFacet",
    "version": 1
  },
  "userdoc": {
    "kind": "user",
    "methods": {
      "addToAllowlist(address)": {
        "notice": "Add to allowlist"
      },
      "addToAllowlist(address,bool)": {
        "notice": "Add to allowlist with allow any"
      },
      "batchAddToAllowlist(address[])": {
        "notice": "Batch add to allowlist"
      },
      "batchAddToAllowlist(address[],bool)": {
        "notice": "Batch add to allowlist with allow any"
      },
      "batchRemoveFromAllowlist(address[])": {
        "notice": "Batch remove from allowlist"
      },
      "batchRemoveFromAllowlist(address[],bool)": {
        "notice": "Batch remove from allowlist with allow any"
      },
      "batchUpdateAllowlist(address[],address[])": {
        "notice": "Batch update allowlist"
      },
      "batchUpdateAllowlist(address[],address[],bool)": {
        "notice": "Batch update allowlist with allow any"
      },
      "getAllowAny()": {
        "notice": "Get allow any"
      },
      "getAllowlist()": {
        "notice": "Get allowlist as array"
      },
      "initializeAllowlist(address,bool,address[])": {
        "notice": "Initialize allowlist with owner"
      },
      "initializeAllowlist(bool,address[])": {
        "notice": "Initialize allowlist"
      },
      "isAllowed(address)": {
        "notice": "Check if address is allowed"
      },
      "removeFromAllowlist(address)": {
        "notice": "Remove from allowlist"
      },
      "removeFromAllowlist(address,bool)": {
        "notice": "Remove from allowlist with allow any"
      },
      "setAllowAny(bool)": {
        "notice": "Set allow any"
      }
    },
    "version": 1
  },
  "storageLayout": {
    "storage": [],
    "types": null
  }
}