{
  "address": "0xF4088860C03763B9b0B6e5C80D07530dE225D66f",
  "abi": [
    {
      "inputs": [],
      "name": "ERC165Base__InvalidInterfaceId",
      "type": "error"
    },
    {
      "inputs": [],
      "name": "UintUtils__InsufficientHexLength",
      "type": "error"
    },
    {
      "anonymous": false,
      "inputs": [
        {
          "indexed": true,
          "internalType": "uint256",
          "name": "tokenId",
          "type": "uint256"
        },
        {
          "indexed": true,
          "internalType": "uint256",
          "name": "round",
          "type": "uint256"
        },
        {
          "indexed": true,
          "internalType": "address",
          "name": "winningBidder",
          "type": "address"
        },
        {
          "indexed": false,
          "internalType": "address",
          "name": "previousOwner",
          "type": "address"
        },
        {
          "indexed": false,
          "internalType": "uint256",
          "name": "bidAmount",
          "type": "uint256"
        }
      ],
      "name": "AuctionClosed",
      "type": "event"
    },
    {
      "anonymous": false,
      "inputs": [
        {
          "indexed": false,
          "internalType": "uint256",
          "name": "auctionLengthSeconds",
          "type": "uint256"
        }
      ],
      "name": "AuctionLengthSet",
      "type": "event"
    },
    {
      "anonymous": false,
      "inputs": [
        {
          "indexed": false,
          "internalType": "uint256",
          "name": "bidExtensionSeconds",
          "type": "uint256"
        }
      ],
      "name": "BidExtensionSet",
      "type": "event"
    },
    {
      "anonymous": false,
      "inputs": [
        {
          "indexed": false,
          "internalType": "uint256",
          "name": "bidExtensionWindowLengthSeconds",
          "type": "uint256"
        }
      ],
      "name": "BidExtensionWindowLengthSet",
      "type": "event"
    },
    {
      "anonymous": false,
      "inputs": [
        {
          "indexed": true,
          "internalType": "uint256",
          "name": "tokenId",
          "type": "uint256"
        },
        {
          "indexed": true,
          "internalType": "uint256",
          "name": "round",
          "type": "uint256"
        },
        {
          "indexed": true,
          "internalType": "address",
          "name": "bidder",
          "type": "address"
        },
        {
          "indexed": false,
          "internalType": "uint256",
          "name": "bidAmount",
          "type": "uint256"
        }
      ],
      "name": "BidPlaced",
      "type": "event"
    },
    {
      "anonymous": false,
      "inputs": [
        {
          "indexed": false,
          "internalType": "uint256",
          "name": "initialPeriodStartTime",
          "type": "uint256"
        }
      ],
      "name": "InitialPeriodStartTimeSet",
      "type": "event"
    },
    {
      "anonymous": false,
      "inputs": [
        {
          "indexed": false,
          "internalType": "uint256",
          "name": "minBidIncrement",
          "type": "uint256"
        }
      ],
      "name": "MinBidIncrementSet",
      "type": "event"
    },
    {
      "anonymous": false,
      "inputs": [
        {
          "indexed": false,
          "internalType": "address",
          "name": "repossessor",
          "type": "address"
        }
      ],
      "name": "RepossessorSet",
      "type": "event"
    },
    {
      "anonymous": false,
      "inputs": [
        {
          "indexed": true,
          "internalType": "bytes32",
          "name": "role",
          "type": "bytes32"
        },
        {
          "indexed": true,
          "internalType": "bytes32",
          "name": "previousAdminRole",
          "type": "bytes32"
        },
        {
          "indexed": true,
          "internalType": "bytes32",
          "name": "newAdminRole",
          "type": "bytes32"
        }
      ],
      "name": "RoleAdminChanged",
      "type": "event"
    },
    {
      "anonymous": false,
      "inputs": [
        {
          "indexed": true,
          "internalType": "bytes32",
          "name": "role",
          "type": "bytes32"
        },
        {
          "indexed": true,
          "internalType": "address",
          "name": "account",
          "type": "address"
        },
        {
          "indexed": true,
          "internalType": "address",
          "name": "sender",
          "type": "address"
        }
      ],
      "name": "RoleGranted",
      "type": "event"
    },
    {
      "anonymous": false,
      "inputs": [
        {
          "indexed": true,
          "internalType": "bytes32",
          "name": "role",
          "type": "bytes32"
        },
        {
          "indexed": true,
          "internalType": "address",
          "name": "account",
          "type": "address"
        },
        {
          "indexed": true,
          "internalType": "address",
          "name": "sender",
          "type": "address"
        }
      ],
      "name": "RoleRevoked",
      "type": "event"
    },
    {
      "inputs": [
        {
          "internalType": "uint256",
          "name": "tokenId",
          "type": "uint256"
        }
      ],
      "name": "auctionEndTime",
      "outputs": [
        {
          "internalType": "uint256",
          "name": "",
          "type": "uint256"
        }
      ],
      "stateMutability": "view",
      "type": "function"
    },
    {
      "inputs": [],
      "name": "auctionLengthSeconds",
      "outputs": [
        {
          "internalType": "uint256",
          "name": "",
          "type": "uint256"
        }
      ],
      "stateMutability": "view",
      "type": "function"
    },
    {
      "inputs": [
        {
          "internalType": "uint256",
          "name": "tokenId",
          "type": "uint256"
        }
      ],
      "name": "auctionStartTime",
      "outputs": [
        {
          "internalType": "uint256",
          "name": "",
          "type": "uint256"
        }
      ],
      "stateMutability": "view",
      "type": "function"
    },
    {
      "inputs": [],
      "name": "bidExtensionSeconds",
      "outputs": [
        {
          "internalType": "uint256",
          "name": "",
          "type": "uint256"
        }
      ],
      "stateMutability": "view",
      "type": "function"
    },
    {
      "inputs": [],
      "name": "bidExtensionWindowLengthSeconds",
      "outputs": [
        {
          "internalType": "uint256",
          "name": "",
          "type": "uint256"
        }
      ],
      "stateMutability": "view",
      "type": "function"
    },
    {
      "inputs": [
        {
          "internalType": "uint256",
          "name": "tokenId",
          "type": "uint256"
        },
        {
          "internalType": "address",
          "name": "bidder",
          "type": "address"
        }
      ],
      "name": "bidOf",
      "outputs": [
        {
          "components": [
            {
              "internalType": "uint256",
              "name": "round",
              "type": "uint256"
            },
            {
              "internalType": "address",
              "name": "bidder",
              "type": "address"
            },
            {
              "internalType": "uint256",
              "name": "bidAmount",
              "type": "uint256"
            },
            {
              "internalType": "uint256",
              "name": "feeAmount",
              "type": "uint256"
            },
            {
              "internalType": "uint256",
              "name": "collateralAmount",
              "type": "uint256"
            }
          ],
          "internalType": "struct IEnglishPeriodicAuctionInternal.Bid",
          "name": "",
          "type": "tuple"
        }
      ],
      "stateMutability": "view",
      "type": "function"
    },
    {
      "inputs": [
        {
          "internalType": "uint256",
          "name": "bidAmount",
          "type": "uint256"
        }
      ],
      "name": "calculateFeeFromBid",
      "outputs": [
        {
          "internalType": "uint256",
          "name": "",
          "type": "uint256"
        }
      ],
      "stateMutability": "view",
      "type": "function"
    },
    {
      "inputs": [
        {
          "internalType": "uint256",
          "name": "tokenId",
          "type": "uint256"
        }
      ],
      "name": "closeAuction",
      "outputs": [],
      "stateMutability": "nonpayable",
      "type": "function"
    },
    {
      "inputs": [
        {
          "internalType": "uint256",
          "name": "tokenId",
          "type": "uint256"
        }
      ],
      "name": "currentBid",
      "outputs": [
        {
          "components": [
            {
              "internalType": "uint256",
              "name": "round",
              "type": "uint256"
            },
            {
              "internalType": "address",
              "name": "bidder",
              "type": "address"
            },
            {
              "internalType": "uint256",
              "name": "bidAmount",
              "type": "uint256"
            },
            {
              "internalType": "uint256",
              "name": "feeAmount",
              "type": "uint256"
            },
            {
              "internalType": "uint256",
              "name": "collateralAmount",
              "type": "uint256"
            }
          ],
          "internalType": "struct IEnglishPeriodicAuctionInternal.Bid",
          "name": "",
          "type": "tuple"
        }
      ],
      "stateMutability": "view",
      "type": "function"
    },
    {
      "inputs": [
        {
          "internalType": "uint256",
          "name": "tokenId",
          "type": "uint256"
        }
      ],
      "name": "highestBid",
      "outputs": [
        {
          "components": [
            {
              "internalType": "uint256",
              "name": "round",
              "type": "uint256"
            },
            {
              "internalType": "address",
              "name": "bidder",
              "type": "address"
            },
            {
              "internalType": "uint256",
              "name": "bidAmount",
              "type": "uint256"
            },
            {
              "internalType": "uint256",
              "name": "feeAmount",
              "type": "uint256"
            },
            {
              "internalType": "uint256",
              "name": "collateralAmount",
              "type": "uint256"
            }
          ],
          "internalType": "struct IEnglishPeriodicAuctionInternal.Bid",
          "name": "",
          "type": "tuple"
        }
      ],
      "stateMutability": "view",
      "type": "function"
    },
    {
      "inputs": [],
      "name": "initialPeriodStartTime",
      "outputs": [
        {
          "internalType": "uint256",
          "name": "",
          "type": "uint256"
        }
      ],
      "stateMutability": "view",
      "type": "function"
    },
    {
      "inputs": [
        {
          "internalType": "address",
          "name": "_repossessor",
          "type": "address"
        },
        {
          "internalType": "address",
          "name": "initialBidder",
          "type": "address"
        },
        {
          "internalType": "uint256",
          "name": "_initialPeriodStartTime",
          "type": "uint256"
        },
        {
          "internalType": "uint256",
          "name": "_initialPeriodStartTimeOffset",
          "type": "uint256"
        },
        {
          "internalType": "uint256",
          "name": "startingBid",
          "type": "uint256"
        },
        {
          "internalType": "uint256",
          "name": "_auctionLengthSeconds",
          "type": "uint256"
        },
        {
          "internalType": "uint256",
          "name": "_minBidIncrement",
          "type": "uint256"
        },
        {
          "internalType": "uint256",
          "name": "_bidExtensionWindowLengthSeconds",
          "type": "uint256"
        },
        {
          "internalType": "uint256",
          "name": "_bidExtensionSeconds",
          "type": "uint256"
        },
        {
          "internalType": "uint256",
          "name": "_maxTokenCount",
          "type": "uint256"
        }
      ],
      "name": "initializeAuction",
      "outputs": [],
      "stateMutability": "nonpayable",
      "type": "function"
    },
    {
      "inputs": [
        {
          "internalType": "address",
          "name": "_owner",
          "type": "address"
        },
        {
          "internalType": "address",
          "name": "_repossessor",
          "type": "address"
        },
        {
          "internalType": "address",
          "name": "initialBidder",
          "type": "address"
        },
        {
          "internalType": "uint256",
          "name": "_initialPeriodStartTime",
          "type": "uint256"
        },
        {
          "internalType": "uint256",
          "name": "_initialPeriodStartTimeOffset",
          "type": "uint256"
        },
        {
          "internalType": "uint256",
          "name": "startingBid",
          "type": "uint256"
        },
        {
          "internalType": "uint256",
          "name": "_auctionLengthSeconds",
          "type": "uint256"
        },
        {
          "internalType": "uint256",
          "name": "_minBidIncrement",
          "type": "uint256"
        },
        {
          "internalType": "uint256",
          "name": "_bidExtensionWindowLengthSeconds",
          "type": "uint256"
        },
        {
          "internalType": "uint256",
          "name": "_bidExtensionSeconds",
          "type": "uint256"
        },
        {
          "internalType": "uint256",
          "name": "_maxTokenCount",
          "type": "uint256"
        }
      ],
      "name": "initializeAuction",
      "outputs": [],
      "stateMutability": "nonpayable",
      "type": "function"
    },
    {
      "inputs": [
        {
          "internalType": "uint256",
          "name": "tokenId",
          "type": "uint256"
        }
      ],
      "name": "isAuctionPeriod",
      "outputs": [
        {
          "internalType": "bool",
          "name": "",
          "type": "bool"
        }
      ],
      "stateMutability": "view",
      "type": "function"
    },
    {
      "inputs": [
        {
          "internalType": "uint256",
          "name": "tokenId",
          "type": "uint256"
        }
      ],
      "name": "isReadyForTransfer",
      "outputs": [
        {
          "internalType": "bool",
          "name": "",
          "type": "bool"
        }
      ],
      "stateMutability": "view",
      "type": "function"
    },
    {
      "inputs": [],
      "name": "maxTokenCount",
      "outputs": [
        {
          "internalType": "uint256",
          "name": "",
          "type": "uint256"
        }
      ],
      "stateMutability": "view",
      "type": "function"
    },
    {
      "inputs": [],
      "name": "minBidIncrement",
      "outputs": [
        {
          "internalType": "uint256",
          "name": "",
          "type": "uint256"
        }
      ],
      "stateMutability": "view",
      "type": "function"
    },
    {
      "inputs": [
        {
          "internalType": "address",
          "name": "to",
          "type": "address"
        },
        {
          "internalType": "uint256",
          "name": "tokenId",
          "type": "uint256"
        }
      ],
      "name": "mintToken",
      "outputs": [],
      "stateMutability": "nonpayable",
      "type": "function"
    },
    {
      "inputs": [
        {
          "internalType": "uint256",
          "name": "tokenId",
          "type": "uint256"
        },
        {
          "internalType": "uint256",
          "name": "bidAmount",
          "type": "uint256"
        }
      ],
      "name": "placeBid",
      "outputs": [],
      "stateMutability": "payable",
      "type": "function"
    },
    {
      "inputs": [],
      "name": "repossessor",
      "outputs": [
        {
          "internalType": "address",
          "name": "",
          "type": "address"
        }
      ],
      "stateMutability": "view",
      "type": "function"
    },
    {
      "inputs": [
        {
          "internalType": "uint256",
          "name": "_auctionLengthSeconds",
          "type": "uint256"
        }
      ],
      "name": "setAuctionLengthSeconds",
      "outputs": [],
      "stateMutability": "nonpayable",
      "type": "function"
    },
    {
      "inputs": [
        {
          "internalType": "address",
          "name": "_repossessor",
          "type": "address"
        },
        {
          "internalType": "uint256",
          "name": "_auctionLengthSeconds",
          "type": "uint256"
        },
        {
          "internalType": "uint256",
          "name": "_minBidIncrement",
          "type": "uint256"
        },
        {
          "internalType": "uint256",
          "name": "_bidExtensionWindowLengthSeconds",
          "type": "uint256"
        },
        {
          "internalType": "uint256",
          "name": "_bidExtensionSeconds",
          "type": "uint256"
        }
      ],
      "name": "setAuctionParameters",
      "outputs": [],
      "stateMutability": "nonpayable",
      "type": "function"
    },
    {
      "inputs": [
        {
          "internalType": "uint256",
          "name": "_bidExtensionSeconds",
          "type": "uint256"
        }
      ],
      "name": "setBidExtensionSeconds",
      "outputs": [],
      "stateMutability": "nonpayable",
      "type": "function"
    },
    {
      "inputs": [
        {
          "internalType": "uint256",
          "name": "_bidExtensionWindowLengthSeconds",
          "type": "uint256"
        }
      ],
      "name": "setBidExtensionWindowLengthSeconds",
      "outputs": [],
      "stateMutability": "nonpayable",
      "type": "function"
    },
    {
      "inputs": [
        {
          "internalType": "uint256",
          "name": "_minBidIncrement",
          "type": "uint256"
        }
      ],
      "name": "setMinBidIncrement",
      "outputs": [],
      "stateMutability": "nonpayable",
      "type": "function"
    },
    {
      "inputs": [
        {
          "internalType": "address",
          "name": "_repossessor",
          "type": "address"
        }
      ],
      "name": "setRepossessor",
      "outputs": [],
      "stateMutability": "nonpayable",
      "type": "function"
    },
    {
      "inputs": [
        {
          "internalType": "uint256",
          "name": "tokenId",
          "type": "uint256"
        }
      ],
      "name": "withdrawBid",
      "outputs": [],
      "stateMutability": "nonpayable",
      "type": "function"
    }
  ],
  "transactionHash": "0xf1d9cd73d5789192f2aad007098e4c010077d7fc2d8f4c7a031592bb41b8d9ee",
  "args": [],
  "numDeployments": 4,
  "solcInputHash": "af64c17cfc77993eb6c0348792079092",
  "bytecode": "0x608060405234801561001057600080fd5b506127dd806100206000396000f3fe60806040526004361061019c5760003560e01c806361a7a226116100ec578063b14c63c51161008a578063c3bab64611610064578063c3bab646146104c4578063c4e627c2146104d9578063dba85ccb146104ee578063df6ba5c61461050e57600080fd5b8063b14c63c51461047a578063be6a2a6d1461049a578063bff82198146104af57600080fd5b806379c65068116100c657806379c65068146103ea578063868c54661461040a578063a7c12c111461042a578063aa084ada1461045a57600080fd5b806361a7a2261461037d57806371c65bde1461039d578063777de704146103ca57600080fd5b80633c7cfe341161015957806355ee09d71161013357806355ee09d71461030a57806357c90de51461032a5780635d01f2131461033d578063609e46fb1461035d57600080fd5b80633c7cfe34146102b55780634cc31cbc146102d557806355cc19ea146102f557600080fd5b80630eaaf4c8146101a1578063236ed8f3146101c357806324db4190146101e357806328e05bf11461020357806333465c5f14610272578063335b115e146102a0575b600080fd5b3480156101ad57600080fd5b506101c16101bc366004612353565b61052e565b005b3480156101cf57600080fd5b506101c16101de366004612353565b61053b565b3480156101ef57600080fd5b506101c16101fe366004612381565b6105b2565b34801561020f57600080fd5b5061022361021e36600461239e565b6105d7565b6040516102699190815181526020808301516001600160a01b03169082015260408083015190820152606080830151908201526080918201519181019190915260a00190565b60405180910390f35b34801561027e57600080fd5b5061029261028d366004612353565b610634565b604051908152602001610269565b3480156102ac57600080fd5b5061029261063f565b3480156102c157600080fd5b506102236102d0366004612353565b61064e565b3480156102e157600080fd5b506101c16102f03660046123ce565b6106a7565b34801561030157600080fd5b506102926106d4565b34801561031657600080fd5b506101c1610325366004612353565b6106de565b6101c1610338366004612412565b6106ff565b34801561034957600080fd5b506101c1610358366004612434565b6108d3565b34801561036957600080fd5b506101c1610378366004612353565b610928565b34801561038957600080fd5b506101c1610398366004612353565b610949565b3480156103a957600080fd5b506103b261096a565b6040516001600160a01b039091168152602001610269565b3480156103d657600080fd5b506102926103e5366004612353565b610974565b3480156103f657600080fd5b506101c16104053660046124b2565b61097f565b34801561041657600080fd5b50610292610425366004612353565b610a9f565b34801561043657600080fd5b5061044a610445366004612353565b610aaa565b6040519015158152602001610269565b34801561046657600080fd5b506101c16104753660046124de565b610ab5565b34801561048657600080fd5b50610223610495366004612353565b610b35565b3480156104a657600080fd5b50610292610b46565b3480156104bb57600080fd5b50610292610b50565b3480156104d057600080fd5b50610292610b5a565b3480156104e557600080fd5b50610292610b64565b3480156104fa57600080fd5b506101c1610509366004612353565b610b6e565b34801561051a57600080fd5b5061044a610529366004612353565b610b8f565b6105388133610b9a565b50565b61054481610f0e565b6105a95760405162461bcd60e51b815260206004820152602b60248201527f456e676c697368506572696f64696341756374696f6e3a2061756374696f6e2060448201526a34b9903737ba1037bb32b960a91b60648201526084015b60405180910390fd5b61053881610f22565b6000805160206127888339815191526105ca816113f1565b6105d3826113fb565b5050565b6105df61231b565b6105e9838361145a565b6040805160a0810182528254815260018301546001600160a01b0316602082015260028301549181019190915260038201546060820152600490910154608082015290505b92915050565b600061062e8261148d565b6000610649611568565b905090565b61065661231b565b61065f8261157b565b6040805160a0810182528254815260018301546001600160a01b0316602082015260028301549181019190915260038201546060820152600490910154608082015292915050565b6000805160206127888339815191526106bf816113f1565b6106cc8686868686611598565b505050505050565b60006106496115cc565b6000805160206127888339815191526106f6816113f1565b6105d3826115df565b6107088261161c565b61077a5760405162461bcd60e51b815260206004820152603c60248201527f456e676c697368506572696f64696341756374696f6e3a2063616e206f6e6c7960448201527f20706c6163652062696420696e2061756374696f6e20706572696f640000000060648201526084016105a0565b61078382610f0e565b156107f65760405162461bcd60e51b815260206004820152603d60248201527f456e676c697368506572696f64696341756374696f6e3a2061756374696f6e2060448201527f6973206f76657220616e64206177616974696e67207472616e7366657200000060648201526084016105a0565b60405163babcc53960e01b8152336004820152309063babcc53990602401602060405180830381865afa158015610831573d6000803e3d6000fd5b505050506040513d601f19601f820116820180604052508101906108559190612572565b6108c75760405162461bcd60e51b815260206004820152603a60248201527f456e676c697368506572696f64696341756374696f6e3a2073656e646572206960448201527f73206e6f7420616c6c6f77656420746f20706c6163652062696400000000000060648201526084016105a0565b6105d382338334611627565b6108db611b36565b156108f85760405162461bcd60e51b81526004016105a090612594565b61090a63a7c12c1160e01b6001611b49565b61091c8a8a8a8a8a8a8a8a8a8a611bbf565b50505050505050505050565b600080516020612788833981519152610940816113f1565b6105d382611c31565b600080516020612788833981519152610961816113f1565b6105d382611c6e565b6000610649611cab565b600061062e82611cc7565b610987611d23565b6001600160a01b0316336001600160a01b031614610a0d5760405162461bcd60e51b815260206004820152603a60248201527f456e676c697368506572696f64696341756374696f6e3a206f6e6c7920696e6960448201527f7469616c206269646465722063616e206d696e7420746f6b656e00000000000060648201526084016105a0565b610a15611d41565b4210610a955760405162461bcd60e51b815260206004820152604360248201527f456e676c697368506572696f64696341756374696f6e3a2063616e6e6f74206d60448201527f696e7420616674657220696e697469616c20706572696f642073746172742074606482015262696d6560e81b608482015260a4016105a0565b6105d38282611d54565b600061062e82611e79565b600061062e8261161c565b610abd611b36565b15610ada5760405162461bcd60e51b81526004016105a090612594565b610aec63a7c12c1160e01b6001611b49565b610afe63aba4f05160e01b6001611b49565b610b166000805160206127888339815191528c611f5b565b610b288a8a8a8a8a8a8a8a8a8a611bbf565b5050505050505050505050565b610b3d61231b565b61065f82611fcf565b6000610649611d41565b6000610649611fec565b6000610649611fff565b6000610649612012565b600080516020612788833981519152610b86816113f1565b6105d382612025565b600061062e82610f0e565b6000610ba4612062565b604051634f558e7960e01b8152600481018590529091506000903090634f558e7990602401602060405180830381865afa158015610be6573d6000803e3d6000fd5b505050506040513d601f19601f82011682018060405250810190610c0a9190612572565b15610c76576040516331a9108f60e11b8152600481018590523090636352211e90602401602060405180830381865afa158015610c4b573d6000803e3d6000fd5b505050506040513d601f19601f82011682018060405250810190610c6f91906125e4565b9050610c88565b50805461010090046001600160a01b03165b806001600160a01b0316836001600160a01b031603610d0f5760405162461bcd60e51b815260206004820152603d60248201527f456e676c697368506572696f64696341756374696f6e3a2043616e6e6f74207760448201527f69746864726177206269642069662063757272656e742062696464657200000060648201526084016105a0565b6000848152600f830160205260409020600101546001600160a01b0390811690841603610da45760405162461bcd60e51b815260206004820152603d60248201527f456e676c697368506572696f64696341756374696f6e3a2043616e6e6f74207760448201527f697468647261772062696420696620686967686573742062696464657200000060648201526084016105a0565b6000848152600d8301602090815260408083206001600160a01b038716845290915290206004810154610e335760405162461bcd60e51b815260206004820152603160248201527f456e676c697368506572696f64696341756374696f6e3a204e6f20636f6c6c61604482015270746572616c20746f20776974686472617760781b60648201526084016105a0565b600481018054600091829055600283018290556040519091906001600160a01b0387169083908381818185875af1925050503d8060008114610e91576040519150601f19603f3d011682016040523d82523d6000602084013e610e96565b606091505b5050905080610f055760405162461bcd60e51b815260206004820152603560248201527f456e676c697368506572696f64696341756374696f6e3a204661696c656420746044820152741bc81dda5d1a191c985dc818dbdb1b185d195c985b605a1b60648201526084016105a0565b50505050505050565b6000610f1982611cc7565b42101592915050565b6000610f2c612062565b604051634f558e7960e01b8152600481018490529091506000903090634f558e7990602401602060405180830381865afa158015610f6e573d6000803e3d6000fd5b505050506040513d601f19601f82011682018060405250810190610f929190612572565b15610ffe576040516331a9108f60e11b8152600481018490523090636352211e90602401602060405180830381865afa158015610fd3573d6000803e3d6000fd5b505050506040513d601f19601f82011682018060405250810190610ff791906125e4565b9050611010565b50805461010090046001600160a01b03165b6000838152600a830160209081526040808320429055600f85019091529020600101546001600160a01b031661119657600082600d01600085815260200190815260200160002060008460020160009054906101000a90046001600160a01b03166001600160a01b03166001600160a01b03168152602001908152602001600020905082600b0160008581526020019081526020016000205481600001819055506000816002018190555060008160040181905550600081600301819055508260020160009054906101000a90046001600160a01b03168160010160006101000a8154816001600160a01b0302191690836001600160a01b031602179055508083600f016000868152602001908152602001600020600082015481600001556001820160009054906101000a90046001600160a01b03168160010160006101000a8154816001600160a01b0302191690836001600160a01b03160217905550600282015481600201556003820154816003015560048201548160040155905050506111cd565b6000838152600f83016020908152604080832060020154600d860183528184206001600160a01b0386168552909252909120600401555b6000838152600f8301602081815260408084206001810154600b8801845294829020549383526002015481516001600160a01b03878116825293810191909152919093169286917fdae3b66c823bbdbd53155f9bb3e7693f818e957f816fe910b303fdbe7fa37dab910160405180910390a46000838152600f830160209081526040808320600e86018352818420815481556001808301805482840180546001600160a01b0319166001600160a01b039283161790556002808601549085015560038086015490850155600494850154938501938455600d8a018752858820915416875285528386209092018590558785528490556005860154600c8701845282852055600b8601909252909120546112e591612617565b6000848152600b84016020908152604080832093909355600f8501905281902060010154905163e31a7c0160e01b81526001600160a01b038084166004830152909116602482015260448101849052309063e31a7c0190606401600060405180830381600087803b15801561135957600080fd5b505af115801561136d573d6000803e3d6000fd5b5050506000848152600f840160205260409020600301541590506113ec576000838152600f8301602052604080822060030154815163e4fc6b6d60e01b81529151309363e4fc6b6d936004808201939182900301818588803b1580156113d257600080fd5b505af11580156113e6573d6000803e3d6000fd5b50505050505b505050565b6105388133612086565b80611404612062565b60020180546001600160a01b0319166001600160a01b0392831617905560405190821681527f03bb52851d1b668acbe31ec6258d6de44a14c1dc0d9db84ab95e8071f5aa989d906020015b60405180910390a150565b6000611464612062565b6000938452600d01602090815260408085206001600160a01b0394909416855292905250902090565b600080611498612062565b90506000306001600160a01b031663fd8e6f286040518163ffffffff1660e01b8152600401602060405180830381865afa1580156114da573d6000803e3d6000fd5b505050506040513d601f19601f820116820180604052508101906114fe919061262a565b60038301546000868152600a850160205260409020549192501015611540576000848152600a83016020526040902054611539908290612617565b9250611561565b600482015461154f9085612643565b826003015461155e9190612617565b92505b5050919050565b6000611572612062565b60060154905090565b6000611585612062565b6000928352600e01602052506040902090565b6115a1856113fb565b6115aa84611c6e565b6115b3836115df565b6115bc82612025565b6115c581611c31565b5050505050565b60006115d6612062565b60070154905090565b806115e8612062565b600601556040518181527f8092df692524f6b78c4746150cae83effcfd6b470cc0038f09a603d42a32388e9060200161144f565b6000610f198261148d565b6000611631612062565b6000868152600d8201602090815260408083206001600160a01b03891684528252808320898452600b8501835281842054600f86019093529220549293509091036117265760068201546000878152600f840160205260409020600201546116999190612617565b8410156117265760405162461bcd60e51b815260206004820152604f60248201527f456e676c697368506572696f64696341756374696f6e3a2042696420616d6f7560448201527f6e74206d7573742062652067726561746572207468616e20686967686573742060648201526e1bdd5d1cdd185b991a5b99c8189a59608a1b608482015260a4016105a0565b6000868152600b830160205260408120548254036117555783826004015461174e9190612617565b9050611758565b50825b604051634f558e7960e01b81526004810188905260009081903090634f558e7990602401602060405180830381865afa158015611799573d6000803e3d6000fd5b505050506040513d601f19601f820116820180604052508101906117bd9190612572565b15611829576040516331a9108f60e11b8152600481018a90523090636352211e90602401602060405180830381865afa1580156117fe573d6000803e3d6000fd5b505050506040513d601f19601f8201168201806040525081019061182291906125e4565b905061183b565b50835461010090046001600160a01b03165b806001600160a01b0316886001600160a01b03160361185c578291506118ea565b8683116118dd5760405162461bcd60e51b815260206004820152604360248201527f456e676c697368506572696f64696341756374696f6e3a20436f6c6c6174657260448201527f616c206d7573742062652067726561746572207468616e2063757272656e7420606482015262189a5960ea1b608482015260a4016105a0565b6118e7878461265a565b91505b6118f487836120e8565b6119555760405162461bcd60e51b815260206004820152602c60248201527f456e676c697368506572696f64696341756374696f6e3a20496e636f7272656360448201526b1d08189a5908185b5bdd5b9d60a21b60648201526084016105a0565b878460010160006101000a8154816001600160a01b0302191690836001600160a01b0316021790555086846002018190555084600b0160008a81526020019081526020016000205484600001819055508184600301819055508284600401819055508385600f0160008b8152602001908152602001600020600082015481600001556001820160009054906101000a90046001600160a01b03168160010160006101000a8154816001600160a01b0302191690836001600160a01b031602179055506002820154816002015560038201548160030155600482015481600401559050508360010160009054906101000a90046001600160a01b03166001600160a01b031684600001548a7f6f7e354ea3ab5c288aea37fce29c603f9a98a3b040f6d8f32f10e192ec47ff6a8760020154604051611a9491815260200190565b60405180910390a46000611aa78a611cc7565b9050428110158015611ac85750611abc6115cc565b611ac6428361265a565b105b1561091c5760008a8152600c870160205260408120548103611af357611aec611fff565b9050611b06565b5060008a8152600c870160205260409020545b611b0e611fec565b611b189082612617565b60008c8152600c890160205260409020555050505050505050505050565b6000611b40612062565b5460ff16919050565b6001600160e01b03198083169003611b745760405163b0a19dd560e01b815260040160405180910390fd5b6001600160e01b03199190911660009081527ffc606c433378e3a7e0a6a531deac289b66caa1b4aa8554fd4ab2c6f1570f92d860205260409020805460ff1916911515919091179055565b6000611bc9612062565b80546009820184905560016001600160a81b03199091166101006001600160a01b038e16021781178255810188905560048101899055600381018a90559050611c118b6113fb565b611c1a86611c6e565b611c23856115df565b611c2c84612025565b610b28835b80611c3a612062565b600801556040518181527f33178f49ae33ce72b1c9e38d72f4ae326b490e4e7c9e02b8735a9ceacf770dee9060200161144f565b80611c77612062565b600501556040518181527f99578d7fe3e20e279feceaa076eb8032d475ca1a49391ec0a740445152a597139060200161144f565b6000611cb5612062565b600201546001600160a01b0316919050565b600080611cd2612062565b6000848152600c82016020526040812054919250908103611cfc57611cf5611fff565b9050611d0f565b506000838152600c820160205260409020545b80611d198561148d565b61155e9190612617565b6000611d2d612062565b5461010090046001600160a01b0316919050565b6000611d4b612062565b60030154905090565b604051634f558e7960e01b8152600481018290523090634f558e7990602401602060405180830381865afa158015611d90573d6000803e3d6000fd5b505050506040513d601f19601f82011682018060405250810190611db49190612572565b15611e165760405162461bcd60e51b815260206004820152602c60248201527f456e676c697368506572696f64696341756374696f6e3a20546f6b656e20616c60448201526b72656164792065786973747360a01b60648201526084016105a0565b60405163e31a7c0160e01b8152600060048201526001600160a01b038316602482015260448101829052309063e31a7c0190606401600060405180830381600087803b158015611e6557600080fd5b505af11580156106cc573d6000803e3d6000fd5b600080306001600160a01b031663e86dea4a6040518163ffffffff1660e01b8152600401602060405180830381865afa158015611eba573d6000803e3d6000fd5b505050506040513d601f19601f82011682018060405250810190611ede919061262a565b90506000306001600160a01b031663180b0d7e6040518163ffffffff1660e01b8152600401602060405180830381865afa158015611f20573d6000803e3d6000fd5b505050506040513d601f19601f82011682018060405250810190611f44919061262a565b905080611f518386612643565b61155e919061266d565b60008281527fd3889cc5458b268d0544e5534672df1296288ca3f93cbd39bd6f497a5c62281160205260409020611f9290826120fe565b5060405133906001600160a01b0383169084907f2f8788117e7eff1d82e926ec794901d17c78024a50270940304540a733656f0d90600090a45050565b6000611fd9612062565b6000928352600f01602052506040902090565b6000611ff6612062565b60080154905090565b6000612009612062565b60050154905090565b600061201c612062565b60090154905090565b8061202e612062565b600701556040518181527f19ba737fa8db769049b6dafc98d3391bdead47e7f6617113c775efbed1efc6f99060200161144f565b7fc7ed1b841b2d3c7f16d15642e7b013e89732e44006608d59c7547b8e331a7ce090565b612090828261211a565b6105d3576120a6816001600160a01b0316612173565b6120b1836020612185565b6040516020016120c29291906126b3565b60408051601f198184030181529082905262461bcd60e51b82526105a091600401612728565b6000806120f484611e79565b9092149392505050565b6000612113836001600160a01b0384166122d8565b9392505050565b6000612113827fd3889cc5458b268d0544e5534672df1296288ca3f93cbd39bd6f497a5c622811600086815260209190915260409020906001600160a01b03811660009081526001830160205260408120541515612113565b606061062e6001600160a01b03831660145b60606000612194836002612643565b61219f906002612617565b67ffffffffffffffff8111156121b7576121b761275b565b6040519080825280601f01601f1916602001820160405280156121e1576020820181803683370190505b509050600360fc1b816000815181106121fc576121fc612771565b60200101906001600160f81b031916908160001a905350600f60fb1b8160018151811061222b5761222b612771565b60200101906001600160f81b031916908160001a905350600160028402015b60018111156122b8576f181899199a1a9b1b9c1cb0b131b232b360811b85600f166010811061227b5761227b612771565b1a60f81b82828151811061229157612291612771565b60200101906001600160f81b031916908160001a90535060049490941c936000190161224a565b5083156121135760405163c913478560e01b815260040160405180910390fd5b600081815260018301602052604081205461062e575081546001808201845560008481526020808220909301849055845493815293810190915260409092205590565b6040518060a001604052806000815260200160006001600160a01b031681526020016000815260200160008152602001600081525090565b60006020828403121561236557600080fd5b5035919050565b6001600160a01b038116811461053857600080fd5b60006020828403121561239357600080fd5b81356121138161236c565b600080604083850312156123b157600080fd5b8235915060208301356123c38161236c565b809150509250929050565b600080600080600060a086880312156123e657600080fd5b85356123f18161236c565b97602087013597506040870135966060810135965060800135945092505050565b6000806040838503121561242557600080fd5b50508035926020909101359150565b6000806000806000806000806000806101408b8d03121561245457600080fd5b8a3561245f8161236c565b995060208b013561246f8161236c565b999c999b505050506040880135976060810135976080820135975060a0820135965060c0820135955060e082013594506101008201359350610120909101359150565b600080604083850312156124c557600080fd5b82356124d08161236c565b946020939093013593505050565b60008060008060008060008060008060006101608c8e03121561250057600080fd5b8b3561250b8161236c565b9a5060208c013561251b8161236c565b995060408c013561252b8161236c565b9a9d999c50999a60608101359a5060808101359960a0820135995060c0820135985060e0820135975061010082013596506101208201359550610140909101359350915050565b60006020828403121561258457600080fd5b8151801515811461211357600080fd5b60208082526030908201527f456e676c697368506572696f64696341756374696f6e46616365743a20616c7260408201526f1958591e481a5b9a5d1a585b1a5e995960821b606082015260800190565b6000602082840312156125f657600080fd5b81516121138161236c565b634e487b7160e01b600052601160045260246000fd5b8082018082111561062e5761062e612601565b60006020828403121561263c57600080fd5b5051919050565b808202811582820484141761062e5761062e612601565b8181038181111561062e5761062e612601565b60008261268a57634e487b7160e01b600052601260045260246000fd5b500490565b60005b838110156126aa578181015183820152602001612692565b50506000910152565b7f416363657373436f6e74726f6c3a206163636f756e74200000000000000000008152600083516126eb81601785016020880161268f565b7001034b99036b4b9b9b4b733903937b6329607d1b601791840191820152835161271c81602884016020880161268f565b01602801949350505050565b602081526000825180602084015261274781604085016020870161268f565b601f01601f19169190910160400192915050565b634e487b7160e01b600052604160045260246000fd5b634e487b7160e01b600052603260045260246000fdfe27d47e2aa570d0f5aa1d72abbe4d60032a12e3514b8c2bc8a49a9968779054c2a2646970667358221220ad10329bde82ddafa5174dc5abdde2b5dc286d9abfbfa46786c9b9c0a0bddc2764736f6c63430008110033",
  "devdoc": {
    "kind": "dev",
    "methods": {},
    "title": "EnglishPeriodicAuctionFacet",
    "version": 1
  },
  "userdoc": {
    "kind": "user",
    "methods": {
      "auctionEndTime(uint256)": {
        "notice": "Get auction end time"
      },
      "auctionLengthSeconds()": {
        "notice": "Get auction length"
      },
      "auctionStartTime(uint256)": {
        "notice": "Get auction start time"
      },
      "bidExtensionSeconds()": {
        "notice": "Get bid extension seconds"
      },
      "bidExtensionWindowLengthSeconds()": {
        "notice": "Get bid extension window length"
      },
      "bidOf(uint256,address)": {
        "notice": "Get bid for address"
      },
      "calculateFeeFromBid(uint256)": {
        "notice": "Calculate fee from bid"
      },
      "closeAuction(uint256)": {
        "notice": "Close auction and trigger a transfer to the highest bidder"
      },
      "currentBid(uint256)": {
        "notice": "Get current bid"
      },
      "highestBid(uint256)": {
        "notice": "Get highest outstanding bid"
      },
      "initialPeriodStartTime()": {
        "notice": "Get initial period start time"
      },
      "initializeAuction(address,address,address,uint256,uint256,uint256,uint256,uint256,uint256,uint256,uint256)": {
        "notice": "Initialize auction parameters with owner"
      },
      "initializeAuction(address,address,uint256,uint256,uint256,uint256,uint256,uint256,uint256,uint256)": {
        "notice": "Initialize auction parameters"
      },
      "isAuctionPeriod(uint256)": {
        "notice": "Get is auction period"
      },
      "isReadyForTransfer(uint256)": {
        "notice": "Is token ready for transfer"
      },
      "maxTokenCount()": {
        "notice": "Get max token count"
      },
      "minBidIncrement()": {
        "notice": "Get minimum bid increment"
      },
      "mintToken(address,uint256)": {
        "notice": "Initial bidder can mint token if it doesn't exist"
      },
      "placeBid(uint256,uint256)": {
        "notice": "Place a bid"
      },
      "repossessor()": {
        "notice": "Get repossessor"
      },
      "setAuctionLengthSeconds(uint256)": {
        "notice": "Set auction length"
      },
      "setAuctionParameters(address,uint256,uint256,uint256,uint256)": {
        "notice": "Set auction parameters"
      },
      "setBidExtensionSeconds(uint256)": {
        "notice": "Set bid extension seconds"
      },
      "setBidExtensionWindowLengthSeconds(uint256)": {
        "notice": "Set bid extension window length"
      },
      "setMinBidIncrement(uint256)": {
        "notice": "Set minimum bid increment"
      },
      "setRepossessor(address)": {
        "notice": "Set repossessor"
      },
      "withdrawBid(uint256)": {
        "notice": "Withdraw bid collateral"
      }
    },
    "version": 1
  },
  "storageLayout": {
    "storage": [],
    "types": null
  }
}