{
  "address": "0x9C23671952DF4299c69384996BeD36013bbe7722",
  "abi": [
    {
      "inputs": [],
      "name": "ERC165Base__InvalidInterfaceId",
      "type": "error"
    },
    {
      "inputs": [],
      "name": "UintUtils__InsufficientHexLength",
      "type": "error"
    },
    {
      "anonymous": false,
      "inputs": [
        {
          "indexed": true,
          "internalType": "uint256",
          "name": "tokenId",
          "type": "uint256"
        },
        {
          "indexed": true,
          "internalType": "uint256",
          "name": "round",
          "type": "uint256"
        },
        {
          "indexed": true,
          "internalType": "address",
          "name": "winningBidder",
          "type": "address"
        },
        {
          "indexed": false,
          "internalType": "address",
          "name": "previousOwner",
          "type": "address"
        },
        {
          "indexed": false,
          "internalType": "uint256",
          "name": "bidAmount",
          "type": "uint256"
        }
      ],
      "name": "AuctionClosed",
      "type": "event"
    },
    {
      "anonymous": false,
      "inputs": [
        {
          "indexed": false,
          "internalType": "uint256",
          "name": "auctionLengthSeconds",
          "type": "uint256"
        }
      ],
      "name": "AuctionLengthSet",
      "type": "event"
    },
    {
      "anonymous": false,
      "inputs": [
        {
          "indexed": false,
          "internalType": "uint256",
          "name": "bidExtensionSeconds",
          "type": "uint256"
        }
      ],
      "name": "BidExtensionSet",
      "type": "event"
    },
    {
      "anonymous": false,
      "inputs": [
        {
          "indexed": false,
          "internalType": "uint256",
          "name": "bidExtensionWindowLengthSeconds",
          "type": "uint256"
        }
      ],
      "name": "BidExtensionWindowLengthSet",
      "type": "event"
    },
    {
      "anonymous": false,
      "inputs": [
        {
          "indexed": true,
          "internalType": "uint256",
          "name": "tokenId",
          "type": "uint256"
        },
        {
          "indexed": true,
          "internalType": "uint256",
          "name": "round",
          "type": "uint256"
        },
        {
          "indexed": true,
          "internalType": "address",
          "name": "bidder",
          "type": "address"
        },
        {
          "indexed": false,
          "internalType": "uint256",
          "name": "bidAmount",
          "type": "uint256"
        }
      ],
      "name": "BidPlaced",
      "type": "event"
    },
    {
      "anonymous": false,
      "inputs": [
        {
          "indexed": false,
          "internalType": "uint256",
          "name": "initialPeriodStartTime",
          "type": "uint256"
        }
      ],
      "name": "InitialPeriodStartTimeSet",
      "type": "event"
    },
    {
      "anonymous": false,
      "inputs": [
        {
          "indexed": false,
          "internalType": "uint256",
          "name": "minBidIncrement",
          "type": "uint256"
        }
      ],
      "name": "MinBidIncrementSet",
      "type": "event"
    },
    {
      "anonymous": false,
      "inputs": [
        {
          "indexed": false,
          "internalType": "address",
          "name": "repossessor",
          "type": "address"
        }
      ],
      "name": "RepossessorSet",
      "type": "event"
    },
    {
      "anonymous": false,
      "inputs": [
        {
          "indexed": true,
          "internalType": "bytes32",
          "name": "role",
          "type": "bytes32"
        },
        {
          "indexed": true,
          "internalType": "bytes32",
          "name": "previousAdminRole",
          "type": "bytes32"
        },
        {
          "indexed": true,
          "internalType": "bytes32",
          "name": "newAdminRole",
          "type": "bytes32"
        }
      ],
      "name": "RoleAdminChanged",
      "type": "event"
    },
    {
      "anonymous": false,
      "inputs": [
        {
          "indexed": true,
          "internalType": "bytes32",
          "name": "role",
          "type": "bytes32"
        },
        {
          "indexed": true,
          "internalType": "address",
          "name": "account",
          "type": "address"
        },
        {
          "indexed": true,
          "internalType": "address",
          "name": "sender",
          "type": "address"
        }
      ],
      "name": "RoleGranted",
      "type": "event"
    },
    {
      "anonymous": false,
      "inputs": [
        {
          "indexed": true,
          "internalType": "bytes32",
          "name": "role",
          "type": "bytes32"
        },
        {
          "indexed": true,
          "internalType": "address",
          "name": "account",
          "type": "address"
        },
        {
          "indexed": true,
          "internalType": "address",
          "name": "sender",
          "type": "address"
        }
      ],
      "name": "RoleRevoked",
      "type": "event"
    },
    {
      "anonymous": false,
      "inputs": [
        {
          "indexed": false,
          "internalType": "uint256",
          "name": "startingBid",
          "type": "uint256"
        }
      ],
      "name": "StartingBidSet",
      "type": "event"
    },
    {
      "inputs": [
        {
          "internalType": "uint256",
          "name": "tokenId",
          "type": "uint256"
        }
      ],
      "name": "auctionEndTime",
      "outputs": [
        {
          "internalType": "uint256",
          "name": "",
          "type": "uint256"
        }
      ],
      "stateMutability": "view",
      "type": "function"
    },
    {
      "inputs": [],
      "name": "auctionLengthSeconds",
      "outputs": [
        {
          "internalType": "uint256",
          "name": "",
          "type": "uint256"
        }
      ],
      "stateMutability": "view",
      "type": "function"
    },
    {
      "inputs": [
        {
          "internalType": "uint256",
          "name": "tokenId",
          "type": "uint256"
        }
      ],
      "name": "auctionStartTime",
      "outputs": [
        {
          "internalType": "uint256",
          "name": "",
          "type": "uint256"
        }
      ],
      "stateMutability": "view",
      "type": "function"
    },
    {
      "inputs": [],
      "name": "bidExtensionSeconds",
      "outputs": [
        {
          "internalType": "uint256",
          "name": "",
          "type": "uint256"
        }
      ],
      "stateMutability": "view",
      "type": "function"
    },
    {
      "inputs": [],
      "name": "bidExtensionWindowLengthSeconds",
      "outputs": [
        {
          "internalType": "uint256",
          "name": "",
          "type": "uint256"
        }
      ],
      "stateMutability": "view",
      "type": "function"
    },
    {
      "inputs": [
        {
          "internalType": "uint256",
          "name": "tokenId",
          "type": "uint256"
        },
        {
          "internalType": "address",
          "name": "bidder",
          "type": "address"
        }
      ],
      "name": "bidOf",
      "outputs": [
        {
          "components": [
            {
              "internalType": "uint256",
              "name": "round",
              "type": "uint256"
            },
            {
              "internalType": "address",
              "name": "bidder",
              "type": "address"
            },
            {
              "internalType": "uint256",
              "name": "bidAmount",
              "type": "uint256"
            },
            {
              "internalType": "uint256",
              "name": "feeAmount",
              "type": "uint256"
            },
            {
              "internalType": "uint256",
              "name": "collateralAmount",
              "type": "uint256"
            }
          ],
          "internalType": "struct IEnglishPeriodicAuctionInternal.Bid",
          "name": "",
          "type": "tuple"
        }
      ],
      "stateMutability": "view",
      "type": "function"
    },
    {
      "inputs": [
        {
          "internalType": "uint256",
          "name": "bidAmount",
          "type": "uint256"
        }
      ],
      "name": "calculateFeeFromBid",
      "outputs": [
        {
          "internalType": "uint256",
          "name": "",
          "type": "uint256"
        }
      ],
      "stateMutability": "view",
      "type": "function"
    },
    {
      "inputs": [
        {
          "internalType": "uint256",
          "name": "tokenId",
          "type": "uint256"
        }
      ],
      "name": "closeAuction",
      "outputs": [],
      "stateMutability": "nonpayable",
      "type": "function"
    },
    {
      "inputs": [
        {
          "internalType": "uint256",
          "name": "tokenId",
          "type": "uint256"
        }
      ],
      "name": "currentAuctionRound",
      "outputs": [
        {
          "internalType": "uint256",
          "name": "",
          "type": "uint256"
        }
      ],
      "stateMutability": "view",
      "type": "function"
    },
    {
      "inputs": [
        {
          "internalType": "uint256",
          "name": "tokenId",
          "type": "uint256"
        }
      ],
      "name": "currentBid",
      "outputs": [
        {
          "components": [
            {
              "internalType": "uint256",
              "name": "round",
              "type": "uint256"
            },
            {
              "internalType": "address",
              "name": "bidder",
              "type": "address"
            },
            {
              "internalType": "uint256",
              "name": "bidAmount",
              "type": "uint256"
            },
            {
              "internalType": "uint256",
              "name": "feeAmount",
              "type": "uint256"
            },
            {
              "internalType": "uint256",
              "name": "collateralAmount",
              "type": "uint256"
            }
          ],
          "internalType": "struct IEnglishPeriodicAuctionInternal.Bid",
          "name": "",
          "type": "tuple"
        }
      ],
      "stateMutability": "view",
      "type": "function"
    },
    {
      "inputs": [
        {
          "internalType": "uint256",
          "name": "tokenId",
          "type": "uint256"
        }
      ],
      "name": "highestBid",
      "outputs": [
        {
          "components": [
            {
              "internalType": "uint256",
              "name": "round",
              "type": "uint256"
            },
            {
              "internalType": "address",
              "name": "bidder",
              "type": "address"
            },
            {
              "internalType": "uint256",
              "name": "bidAmount",
              "type": "uint256"
            },
            {
              "internalType": "uint256",
              "name": "feeAmount",
              "type": "uint256"
            },
            {
              "internalType": "uint256",
              "name": "collateralAmount",
              "type": "uint256"
            }
          ],
          "internalType": "struct IEnglishPeriodicAuctionInternal.Bid",
          "name": "",
          "type": "tuple"
        }
      ],
      "stateMutability": "view",
      "type": "function"
    },
    {
      "inputs": [],
      "name": "initialBidder",
      "outputs": [
        {
          "internalType": "address",
          "name": "",
          "type": "address"
        }
      ],
      "stateMutability": "view",
      "type": "function"
    },
    {
      "inputs": [],
      "name": "initialPeriodStartTime",
      "outputs": [
        {
          "internalType": "uint256",
          "name": "",
          "type": "uint256"
        }
      ],
      "stateMutability": "view",
      "type": "function"
    },
    {
      "inputs": [
        {
          "internalType": "address",
          "name": "_repossessor",
          "type": "address"
        },
        {
          "internalType": "address",
          "name": "_initialBidder",
          "type": "address"
        },
        {
          "internalType": "uint256",
          "name": "_initialPeriodStartTime",
          "type": "uint256"
        },
        {
          "internalType": "uint256",
          "name": "_initialPeriodStartTimeOffset",
          "type": "uint256"
        },
        {
          "internalType": "uint256",
          "name": "_startingBid",
          "type": "uint256"
        },
        {
          "internalType": "uint256",
          "name": "_auctionLengthSeconds",
          "type": "uint256"
        },
        {
          "internalType": "uint256",
          "name": "_minBidIncrement",
          "type": "uint256"
        },
        {
          "internalType": "uint256",
          "name": "_bidExtensionWindowLengthSeconds",
          "type": "uint256"
        },
        {
          "internalType": "uint256",
          "name": "_bidExtensionSeconds",
          "type": "uint256"
        }
      ],
      "name": "initializeAuction",
      "outputs": [],
      "stateMutability": "nonpayable",
      "type": "function"
    },
    {
      "inputs": [
        {
          "internalType": "address",
          "name": "_owner",
          "type": "address"
        },
        {
          "internalType": "address",
          "name": "_repossessor",
          "type": "address"
        },
        {
          "internalType": "address",
          "name": "_initialBidder",
          "type": "address"
        },
        {
          "internalType": "uint256",
          "name": "_initialPeriodStartTime",
          "type": "uint256"
        },
        {
          "internalType": "uint256",
          "name": "_initialPeriodStartTimeOffset",
          "type": "uint256"
        },
        {
          "internalType": "uint256",
          "name": "_startingBid",
          "type": "uint256"
        },
        {
          "internalType": "uint256",
          "name": "_auctionLengthSeconds",
          "type": "uint256"
        },
        {
          "internalType": "uint256",
          "name": "_minBidIncrement",
          "type": "uint256"
        },
        {
          "internalType": "uint256",
          "name": "_bidExtensionWindowLengthSeconds",
          "type": "uint256"
        },
        {
          "internalType": "uint256",
          "name": "_bidExtensionSeconds",
          "type": "uint256"
        }
      ],
      "name": "initializeAuction",
      "outputs": [],
      "stateMutability": "nonpayable",
      "type": "function"
    },
    {
      "inputs": [
        {
          "internalType": "uint256",
          "name": "tokenId",
          "type": "uint256"
        }
      ],
      "name": "isAuctionPeriod",
      "outputs": [
        {
          "internalType": "bool",
          "name": "",
          "type": "bool"
        }
      ],
      "stateMutability": "view",
      "type": "function"
    },
    {
      "inputs": [
        {
          "internalType": "uint256",
          "name": "tokenId",
          "type": "uint256"
        }
      ],
      "name": "isReadyForTransfer",
      "outputs": [
        {
          "internalType": "bool",
          "name": "",
          "type": "bool"
        }
      ],
      "stateMutability": "view",
      "type": "function"
    },
    {
      "inputs": [],
      "name": "minBidIncrement",
      "outputs": [
        {
          "internalType": "uint256",
          "name": "",
          "type": "uint256"
        }
      ],
      "stateMutability": "view",
      "type": "function"
    },
    {
      "inputs": [
        {
          "internalType": "uint256",
          "name": "tokenId",
          "type": "uint256"
        },
        {
          "internalType": "uint256",
          "name": "bidAmount",
          "type": "uint256"
        }
      ],
      "name": "placeBid",
      "outputs": [],
      "stateMutability": "payable",
      "type": "function"
    },
    {
      "inputs": [],
      "name": "repossessor",
      "outputs": [
        {
          "internalType": "address",
          "name": "",
          "type": "address"
        }
      ],
      "stateMutability": "view",
      "type": "function"
    },
    {
      "inputs": [
        {
          "internalType": "uint256",
          "name": "_auctionLengthSeconds",
          "type": "uint256"
        }
      ],
      "name": "setAuctionLengthSeconds",
      "outputs": [],
      "stateMutability": "nonpayable",
      "type": "function"
    },
    {
      "inputs": [
        {
          "internalType": "address",
          "name": "_repossessor",
          "type": "address"
        },
        {
          "internalType": "uint256",
          "name": "_auctionLengthSeconds",
          "type": "uint256"
        },
        {
          "internalType": "uint256",
          "name": "_minBidIncrement",
          "type": "uint256"
        },
        {
          "internalType": "uint256",
          "name": "_bidExtensionWindowLengthSeconds",
          "type": "uint256"
        },
        {
          "internalType": "uint256",
          "name": "_bidExtensionSeconds",
          "type": "uint256"
        },
        {
          "internalType": "uint256",
          "name": "_startingBid",
          "type": "uint256"
        }
      ],
      "name": "setAuctionParameters",
      "outputs": [],
      "stateMutability": "nonpayable",
      "type": "function"
    },
    {
      "inputs": [
        {
          "internalType": "uint256",
          "name": "_bidExtensionSeconds",
          "type": "uint256"
        }
      ],
      "name": "setBidExtensionSeconds",
      "outputs": [],
      "stateMutability": "nonpayable",
      "type": "function"
    },
    {
      "inputs": [
        {
          "internalType": "uint256",
          "name": "_bidExtensionWindowLengthSeconds",
          "type": "uint256"
        }
      ],
      "name": "setBidExtensionWindowLengthSeconds",
      "outputs": [],
      "stateMutability": "nonpayable",
      "type": "function"
    },
    {
      "inputs": [
        {
          "internalType": "uint256",
          "name": "_minBidIncrement",
          "type": "uint256"
        }
      ],
      "name": "setMinBidIncrement",
      "outputs": [],
      "stateMutability": "nonpayable",
      "type": "function"
    },
    {
      "inputs": [
        {
          "internalType": "address",
          "name": "_repossessor",
          "type": "address"
        }
      ],
      "name": "setRepossessor",
      "outputs": [],
      "stateMutability": "nonpayable",
      "type": "function"
    },
    {
      "inputs": [
        {
          "internalType": "uint256",
          "name": "_startingBid",
          "type": "uint256"
        }
      ],
      "name": "setStartingBid",
      "outputs": [],
      "stateMutability": "nonpayable",
      "type": "function"
    },
    {
      "inputs": [],
      "name": "startingBid",
      "outputs": [
        {
          "internalType": "uint256",
          "name": "",
          "type": "uint256"
        }
      ],
      "stateMutability": "view",
      "type": "function"
    },
    {
      "inputs": [
        {
          "internalType": "uint256",
          "name": "tokenId",
          "type": "uint256"
        }
      ],
      "name": "withdrawBid",
      "outputs": [],
      "stateMutability": "nonpayable",
      "type": "function"
    }
  ],
  "transactionHash": "0x19e7dcfc256dd4b9ffaf68ff2f50d6aa168c7d73b34957dbcca98504a03c6380",
  "args": [],
  "numDeployments": 13,
  "solcInputHash": "952b4d69b32dbd3017d2b1d113405122",
  "bytecode": "0x608060405234801561001057600080fd5b5061289f806100206000396000f3fe6080604052600436106101c25760003560e01c806355ee09d7116100f7578063a7c12c1111610095578063bff8219811610064578063bff821981461051f578063c3bab64614610534578063dba85ccb14610549578063df6ba5c61461056957600080fd5b8063a7c12c11146104a5578063b14c63c5146104d5578063b9fdd569146104f5578063be6a2a6d1461050a57600080fd5b806361a7a226116100d157806361a7a2261461043057806371c65bde14610450578063777de70414610465578063868c54661461048557600080fd5b806355ee09d7146103dd57806357c90de5146103fd578063609e46fb1461041057600080fd5b806333465c5f11610164578063358498a31161013e578063358498a31461035b5780633882ce8e1461037b5780633c7cfe34146103a857806355cc19ea146103c857600080fd5b806333465c5f146102f8578063335b115e14610326578063355337441461033b57600080fd5b806317a6836a116101a057806317a6836a14610229578063236ed8f31461024957806324db41901461026957806328e05bf11461028957600080fd5b80630556e9b9146101c7578063077bbc6d146101e95780630eaaf4c814610209575b600080fd5b3480156101d357600080fd5b506101e76101e236600461244c565b610589565b005b3480156101f557600080fd5b506101e761020436600461247a565b6105ae565b34801561021557600080fd5b506101e761022436600461244c565b61060a565b34801561023557600080fd5b506101e76102443660046124ef565b610617565b34801561025557600080fd5b506101e761026436600461244c565b610646565b34801561027557600080fd5b506101e761028436600461253b565b6106b8565b34801561029557600080fd5b506102a96102a4366004612558565b6106d9565b6040516102ef9190815181526020808301516001600160a01b03169082015260408083015190820152606080830151908201526080918201519181019190915260a00190565b60405180910390f35b34801561030457600080fd5b5061031861031336600461244c565b610736565b6040519081526020016102ef565b34801561033257600080fd5b50610318610741565b34801561034757600080fd5b5061031861035636600461244c565b610750565b34801561036757600080fd5b506101e7610376366004612588565b61075b565b34801561038757600080fd5b506103906107f1565b6040516001600160a01b0390911681526020016102ef565b3480156103b457600080fd5b506102a96103c336600461244c565b6107fb565b3480156103d457600080fd5b50610318610854565b3480156103e957600080fd5b506101e76103f836600461244c565b61085e565b6101e761040b366004612612565b61087f565b34801561041c57600080fd5b506101e761042b36600461244c565b610a53565b34801561043c57600080fd5b506101e761044b36600461244c565b610a74565b34801561045c57600080fd5b50610390610a95565b34801561047157600080fd5b5061031861048036600461244c565b610a9f565b34801561049157600080fd5b506103186104a036600461244c565b610aaa565b3480156104b157600080fd5b506104c56104c036600461244c565b610ab5565b60405190151581526020016102ef565b3480156104e157600080fd5b506102a96104f036600461244c565b610ac0565b34801561050157600080fd5b50610318610ad1565b34801561051657600080fd5b50610318610adb565b34801561052b57600080fd5b50610318610ae5565b34801561054057600080fd5b50610318610aef565b34801561055557600080fd5b506101e761056436600461244c565b610af9565b34801561057557600080fd5b506104c561058436600461244c565b610b1a565b60008051602061284a8339815191526105a181610b25565b6105aa82610b2f565b5050565b6105b6610b73565b156105dc5760405162461bcd60e51b81526004016105d390612634565b60405180910390fd5b6105ee631094e47960e11b6001610b86565b6105ff898989898989898989610bfc565b505050505050505050565b6106148133610c6e565b50565b60008051602061284a83398151915261062f81610b25565b61063d878787878787610f52565b50505050505050565b61064f81610f90565b6106af5760405162461bcd60e51b815260206004820152602b60248201527f456e676c697368506572696f64696341756374696f6e3a2061756374696f6e2060448201526a34b9903737ba1037bb32b960a91b60648201526084016105d3565b61061481611014565b60008051602061284a8339815191526106d081610b25565b6105aa8261151d565b6106e1612414565b6106eb8383611575565b6040805160a0810182528254815260018301546001600160a01b0316602082015260028301549181019190915260038201546060820152600490910154608082015290505b92915050565b6000610730826115a8565b600061074b611683565b905090565b600061073082611696565b610763610b73565b156107805760405162461bcd60e51b81526004016105d390612634565b610792631094e47960e11b6001610b86565b6107a463aba4f05160e01b6001610b86565b6107bc60008051602061284a8339815191528b6116b4565b6107d460008051602061284a83398151915280611728565b6107e5898989898989898989610bfc565b50505050505050505050565b600061074b611792565b610803612414565b61080c826117b0565b6040805160a0810182528254815260018301546001600160a01b0316602082015260028301549181019190915260038201546060820152600490910154608082015292915050565b600061074b6117cd565b60008051602061284a83398151915261087681610b25565b6105aa826117e0565b6108888261181d565b6108fa5760405162461bcd60e51b815260206004820152603c60248201527f456e676c697368506572696f64696341756374696f6e3a2063616e206f6e6c7960448201527f20706c6163652062696420696e2061756374696f6e20706572696f640000000060648201526084016105d3565b61090382610f90565b156109765760405162461bcd60e51b815260206004820152603d60248201527f456e676c697368506572696f64696341756374696f6e3a2061756374696f6e2060448201527f6973206f76657220616e64206177616974696e67207472616e7366657200000060648201526084016105d3565b60405163babcc53960e01b8152336004820152309063babcc53990602401602060405180830381865afa1580156109b1573d6000803e3d6000fd5b505050506040513d601f19601f820116820180604052508101906109d59190612684565b610a475760405162461bcd60e51b815260206004820152603a60248201527f456e676c697368506572696f64696341756374696f6e3a2073656e646572206960448201527f73206e6f7420616c6c6f77656420746f20706c6163652062696400000000000060648201526084016105d3565b6105aa82338334611898565b60008051602061284a833981519152610a6b81610b25565b6105aa82611ee1565b60008051602061284a833981519152610a8c81610b25565b6105aa82611f1e565b600061074b611f5b565b600061073082611f77565b600061073082611fd3565b60006107308261181d565b610ac8612414565b61080c826120b5565b600061074b6120d2565b600061074b6120e5565b600061074b6120f8565b600061074b61210b565b60008051602061284a833981519152610b1181610b25565b6105aa8261211e565b600061073082610f90565b610614813361215b565b80610b386121bd565b600101556040518181527f1063dc5e6f2d1c9d1cdcddf0f8ce9f8984ff1afd2df93f864e28056f5da6b01c906020015b60405180910390a150565b6000610b7d6121bd565b5460ff16919050565b6001600160e01b03198083169003610bb15760405163b0a19dd560e01b815260040160405180910390fd5b6001600160e01b03199190911660009081527ffc606c433378e3a7e0a6a531deac289b66caa1b4aa8554fd4ab2c6f1570f92d860205260409020805460ff1916911515919091179055565b6000610c066121bd565b80546001600160a01b038b16610100026001600160a81b031990911617600117815560048101889055600381018990559050610c4186610b2f565b610c4a8a61151d565b610c5385611f1e565b610c5c846117e0565b610c658361211e565b6107e582611ee1565b6000610c786121bd565b604051634f558e7960e01b8152600481018590529091506000903090634f558e7990602401602060405180830381865afa158015610cba573d6000803e3d6000fd5b505050506040513d601f19601f82011682018060405250810190610cde9190612684565b15610d4a576040516331a9108f60e11b8152600481018590523090636352211e90602401602060405180830381865afa158015610d1f573d6000803e3d6000fd5b505050506040513d601f19601f82011682018060405250810190610d4391906126a6565b9050610d5c565b50805461010090046001600160a01b03165b6000848152600e830160205260409020600101546001600160a01b0390811690841603610df15760405162461bcd60e51b815260206004820152603d60248201527f456e676c697368506572696f64696341756374696f6e3a2043616e6e6f74207760448201527f697468647261772062696420696620686967686573742062696464657200000060648201526084016105d3565b6000848152600c8301602090815260408083206001600160a01b038716845290915290206004810154610e805760405162461bcd60e51b815260206004820152603160248201527f456e676c697368506572696f64696341756374696f6e3a204e6f20636f6c6c61604482015270746572616c20746f20776974686472617760781b60648201526084016105d3565b600481018054600091829055600283018290556040519091906001600160a01b0387169083908381818185875af1925050503d8060008114610ede576040519150601f19603f3d011682016040523d82523d6000602084013e610ee3565b606091505b505090508061063d5760405162461bcd60e51b815260206004820152603560248201527f456e676c697368506572696f64696341756374696f6e3a204661696c656420746044820152741bc81dda5d1a191c985dc818dbdb1b185d195c985b605a1b60648201526084016105d3565b610f5b8661151d565b610f6485611f1e565b610f6d846117e0565b610f768361211e565b610f7f82611ee1565b610f8881610b2f565b505050505050565b6000306001600160a01b031663c4e627c26040518163ffffffff1660e01b8152600401602060405180830381865afa158015610fd0573d6000803e3d6000fd5b505050506040513d601f19601f82011682018060405250810190610ff491906126c3565b821061100257506000919050565b61100b82611f77565b42101592915050565b600061101e6121bd565b604051634f558e7960e01b8152600481018490529091506000903090634f558e7990602401602060405180830381865afa158015611060573d6000803e3d6000fd5b505050506040513d601f19601f820116820180604052508101906110849190612684565b156110f0576040516331a9108f60e11b8152600481018490523090636352211e90602401602060405180830381865afa1580156110c5573d6000803e3d6000fd5b505050506040513d601f19601f820116820180604052508101906110e991906126a6565b9050611102565b50805461010090046001600160a01b03165b60008381526009830160209081526040808320429055600a8501825280832054600e860190925290912054108061115357506000838152600e830160205260409020600101546001600160a01b0316155b156112ae57600082600c01600085815260200190815260200160002060008460020160009054906101000a90046001600160a01b03166001600160a01b03166001600160a01b03168152602001908152602001600020905082600a0160008581526020019081526020016000205481600001819055506000816002018190555060008160040181905550600081600301819055508260020160009054906101000a90046001600160a01b03168160010160006101000a8154816001600160a01b0302191690836001600160a01b031602179055508083600e016000868152602001908152602001600020600082015481600001556001820160009054906101000a90046001600160a01b03168160010160006101000a8154816001600160a01b0302191690836001600160a01b03160217905550600282015481600201556003820154816003015560048201548160040155905050506112f9565b6000838152600e83016020908152604080832060020154600c860183528184206001600160a01b038616855290925282206004018054919290916112f39084906126f2565b90915550505b6000838152600e8301602081815260408084206001810154600a8801845294829020549383526002015481516001600160a01b03878116825293810191909152919093169286917fdae3b66c823bbdbd53155f9bb3e7693f818e957f816fe910b303fdbe7fa37dab910160405180910390a46000838152600e830160209081526040808320600d86018352818420815481556001808301805482840180546001600160a01b0319166001600160a01b039283161790556002808601549085015560038086015490850155600494850154938501938455600c8a018752858820915416875285528386209092018590558785528490556005860154600b8701845282852055600a860190925290912054611411916126f2565b6000848152600a84016020908152604080832093909355600e8501905281902060010154905163e31a7c0160e01b81526001600160a01b038084166004830152909116602482015260448101849052309063e31a7c0190606401600060405180830381600087803b15801561148557600080fd5b505af1158015611499573d6000803e3d6000fd5b5050506000848152600e84016020526040902060030154159050611518576000838152600e8301602052604080822060030154815163e4fc6b6d60e01b81529151309363e4fc6b6d936004808201939182900301818588803b1580156114fe57600080fd5b505af1158015611512573d6000803e3d6000fd5b50505050505b505050565b806115266121bd565b60020180546001600160a01b0319166001600160a01b0392831617905560405190821681527f03bb52851d1b668acbe31ec6258d6de44a14c1dc0d9db84ab95e8071f5aa989d90602001610b68565b600061157f6121bd565b6000938452600c01602090815260408085206001600160a01b0394909416855292905250902090565b6000806115b36121bd565b90506000306001600160a01b031663fd8e6f286040518163ffffffff1660e01b8152600401602060405180830381865afa1580156115f5573d6000803e3d6000fd5b505050506040513d601f19601f8201168201806040525081019061161991906126c3565b60038301546000868152600985016020526040902054919250101561165b5760008481526009830160205260409020546116549082906126f2565b925061167c565b600482015461166a9085612705565b826003015461167991906126f2565b92505b5050919050565b600061168d6121bd565b60060154905090565b60006116a06121bd565b6000928352600a0160205250604090205490565b60008281527fd3889cc5458b268d0544e5534672df1296288ca3f93cbd39bd6f497a5c622811602052604090206116eb90826121e1565b5060405133906001600160a01b0383169084907f2f8788117e7eff1d82e926ec794901d17c78024a50270940304540a733656f0d90600090a45050565b60008281527fd3889cc5458b268d0544e5534672df1296288ca3f93cbd39bd6f497a5c6228116020526040808220600201805490849055905190918391839186917fbd79b86ffe0ab8e8776151514217cd7cacd52c909f66475c3af44e129f0b00ff9190a4505050565b600061179c6121bd565b5461010090046001600160a01b0316919050565b60006117ba6121bd565b6000928352600d01602052506040902090565b60006117d76121bd565b60070154905090565b806117e96121bd565b600601556040518181527f8092df692524f6b78c4746150cae83effcfd6b470cc0038f09a603d42a32388e90602001610b68565b6000306001600160a01b031663c4e627c26040518163ffffffff1660e01b8152600401602060405180830381865afa15801561185d573d6000803e3d6000fd5b505050506040513d601f19601f8201168201806040525081019061188191906126c3565b821061188f57506000919050565b61100b826115a8565b60006118a26121bd565b6000868152600c8201602090815260408083206001600160a01b03891684528252808320898452600a85019092529091205481549293509091101561196a5760048101541561196a5760405162461bcd60e51b815260206004820152604860248201527f456e676c697368506572696f64696341756374696f6e3a20436f6c6c6174657260448201527f616c2066726f6d2070726576696f757320726f756e64206d757374206265207760648201526734ba34323930bbb760c11b608482015260a4016105d3565b81600101548410156119fd5760405162461bcd60e51b815260206004820152605060248201527f456e676c697368506572696f64696341756374696f6e3a2042696420616d6f7560448201527f6e74206d7573742062652067726561746572207468616e206f7220657175616c60648201526f081d1bc81cdd185c9d1a5b99c8189a5960821b608482015260a4016105d3565b6000868152600a83016020908152604080832054600e86019092529091205403611ad15760068201546000878152600e84016020526040902060020154611a4491906126f2565b841015611ad15760405162461bcd60e51b815260206004820152604f60248201527f456e676c697368506572696f64696341756374696f6e3a2042696420616d6f7560448201527f6e74206d7573742062652067726561746572207468616e20686967686573742060648201526e1bdd5d1cdd185b991a5b99c8189a59608a1b608482015260a4016105d3565b6000868152600a83016020526040812054825403611b0057838260040154611af991906126f2565b9050611b03565b50825b604051634f558e7960e01b81526004810188905260009081903090634f558e7990602401602060405180830381865afa158015611b44573d6000803e3d6000fd5b505050506040513d601f19601f82011682018060405250810190611b689190612684565b15611bd4576040516331a9108f60e11b8152600481018a90523090636352211e90602401602060405180830381865afa158015611ba9573d6000803e3d6000fd5b505050506040513d601f19601f82011682018060405250810190611bcd91906126a6565b9050611be6565b50835461010090046001600160a01b03165b806001600160a01b0316886001600160a01b031603611c0757829150611c95565b868311611c885760405162461bcd60e51b815260206004820152604360248201527f456e676c697368506572696f64696341756374696f6e3a20436f6c6c6174657260448201527f616c206d7573742062652067726561746572207468616e2063757272656e7420606482015262189a5960ea1b608482015260a4016105d3565b611c92878461271c565b91505b611c9f87836121fd565b611d005760405162461bcd60e51b815260206004820152602c60248201527f456e676c697368506572696f64696341756374696f6e3a20496e636f7272656360448201526b1d08189a5908185b5bdd5b9d60a21b60648201526084016105d3565b878460010160006101000a8154816001600160a01b0302191690836001600160a01b0316021790555086846002018190555084600a0160008a81526020019081526020016000205484600001819055508184600301819055508284600401819055508385600e0160008b8152602001908152602001600020600082015481600001556001820160009054906101000a90046001600160a01b03168160010160006101000a8154816001600160a01b0302191690836001600160a01b031602179055506002820154816002015560038201548160030155600482015481600401559050508360010160009054906101000a90046001600160a01b03166001600160a01b031684600001548a7f6f7e354ea3ab5c288aea37fce29c603f9a98a3b040f6d8f32f10e192ec47ff6a8760020154604051611e3f91815260200190565b60405180910390a46000611e528a611f77565b9050428110158015611e735750611e676117cd565b611e71428361271c565b105b156107e55760008a8152600b870160205260408120548103611e9e57611e9761210b565b9050611eb1565b5060008a8152600b870160205260409020545b611eb96120f8565b611ec390826126f2565b60008c8152600b890160205260409020555050505050505050505050565b80611eea6121bd565b600801556040518181527f33178f49ae33ce72b1c9e38d72f4ae326b490e4e7c9e02b8735a9ceacf770dee90602001610b68565b80611f276121bd565b600501556040518181527f99578d7fe3e20e279feceaa076eb8032d475ca1a49391ec0a740445152a5971390602001610b68565b6000611f656121bd565b600201546001600160a01b0316919050565b600080611f826121bd565b6000848152600b82016020526040812054919250908103611fac57611fa561210b565b9050611fbf565b506000838152600b820160205260409020545b80611fc9856115a8565b61167991906126f2565b600080306001600160a01b031663e86dea4a6040518163ffffffff1660e01b8152600401602060405180830381865afa158015612014573d6000803e3d6000fd5b505050506040513d601f19601f8201168201806040525081019061203891906126c3565b90506000306001600160a01b031663180b0d7e6040518163ffffffff1660e01b8152600401602060405180830381865afa15801561207a573d6000803e3d6000fd5b505050506040513d601f19601f8201168201806040525081019061209e91906126c3565b9050806120ab8386612705565b611679919061272f565b60006120bf6121bd565b6000928352600e01602052506040902090565b60006120dc6121bd565b60010154905090565b60006120ef6121bd565b60030154905090565b60006121026121bd565b60080154905090565b60006121156121bd565b60050154905090565b806121276121bd565b600701556040518181527f19ba737fa8db769049b6dafc98d3391bdead47e7f6617113c775efbed1efc6f990602001610b68565b6121658282612213565b6105aa5761217b816001600160a01b031661226c565b61218683602061227e565b604051602001612197929190612775565b60408051601f198184030181529082905262461bcd60e51b82526105d3916004016127ea565b7fc7ed1b841b2d3c7f16d15642e7b013e89732e44006608d59c7547b8e331a7ce090565b60006121f6836001600160a01b0384166123d1565b9392505050565b60008061220984611fd3565b9092149392505050565b60006121f6827fd3889cc5458b268d0544e5534672df1296288ca3f93cbd39bd6f497a5c622811600086815260209190915260409020906001600160a01b038116600090815260018301602052604081205415156121f6565b60606107306001600160a01b03831660145b6060600061228d836002612705565b6122989060026126f2565b67ffffffffffffffff8111156122b0576122b061281d565b6040519080825280601f01601f1916602001820160405280156122da576020820181803683370190505b509050600360fc1b816000815181106122f5576122f5612833565b60200101906001600160f81b031916908160001a905350600f60fb1b8160018151811061232457612324612833565b60200101906001600160f81b031916908160001a905350600160028402015b60018111156123b1576f181899199a1a9b1b9c1cb0b131b232b360811b85600f166010811061237457612374612833565b1a60f81b82828151811061238a5761238a612833565b60200101906001600160f81b031916908160001a90535060049490941c9360001901612343565b5083156121f65760405163c913478560e01b815260040160405180910390fd5b6000818152600183016020526040812054610730575081546001808201845560008481526020808220909301849055845493815293810190915260409092205590565b6040518060a001604052806000815260200160006001600160a01b031681526020016000815260200160008152602001600081525090565b60006020828403121561245e57600080fd5b5035919050565b6001600160a01b038116811461061457600080fd5b60008060008060008060008060006101208a8c03121561249957600080fd5b89356124a481612465565b985060208a01356124b481612465565b989b989a505050506040870135966060810135966080820135965060a0820135955060c0820135945060e08201359350610100909101359150565b60008060008060008060c0878903121561250857600080fd5b863561251381612465565b9860208801359850604088013597606081013597506080810135965060a00135945092505050565b60006020828403121561254d57600080fd5b81356121f681612465565b6000806040838503121561256b57600080fd5b82359150602083013561257d81612465565b809150509250929050565b6000806000806000806000806000806101408b8d0312156125a857600080fd5b8a356125b381612465565b995060208b01356125c381612465565b985060408b01356125d381612465565b999c989b5098996060810135995060808101359860a0820135985060c0820135975060e082013596506101008201359550610120909101359350915050565b6000806040838503121561262557600080fd5b50508035926020909101359150565b60208082526030908201527f456e676c697368506572696f64696341756374696f6e46616365743a20616c7260408201526f1958591e481a5b9a5d1a585b1a5e995960821b606082015260800190565b60006020828403121561269657600080fd5b815180151581146121f657600080fd5b6000602082840312156126b857600080fd5b81516121f681612465565b6000602082840312156126d557600080fd5b5051919050565b634e487b7160e01b600052601160045260246000fd5b80820180821115610730576107306126dc565b8082028115828204841417610730576107306126dc565b81810381811115610730576107306126dc565b60008261274c57634e487b7160e01b600052601260045260246000fd5b500490565b60005b8381101561276c578181015183820152602001612754565b50506000910152565b7f416363657373436f6e74726f6c3a206163636f756e74200000000000000000008152600083516127ad816017850160208801612751565b7001034b99036b4b9b9b4b733903937b6329607d1b60179184019182015283516127de816028840160208801612751565b01602801949350505050565b6020815260008251806020840152612809816040850160208701612751565b601f01601f19169190910160400192915050565b634e487b7160e01b600052604160045260246000fd5b634e487b7160e01b600052603260045260246000fdfe27d47e2aa570d0f5aa1d72abbe4d60032a12e3514b8c2bc8a49a9968779054c2a264697066735822122066eb253f026263a6625fc0a8cfa8cbf9d68267a4892b00e2334d1b78e66da3b164736f6c63430008110033",
  "devdoc": {
    "kind": "dev",
    "methods": {},
    "title": "EnglishPeriodicAuctionFacet",
    "version": 1
  },
  "userdoc": {
    "kind": "user",
    "methods": {
      "auctionEndTime(uint256)": {
        "notice": "Get auction end time"
      },
      "auctionLengthSeconds()": {
        "notice": "Get auction length"
      },
      "auctionStartTime(uint256)": {
        "notice": "Get auction start time"
      },
      "bidExtensionSeconds()": {
        "notice": "Get bid extension seconds"
      },
      "bidExtensionWindowLengthSeconds()": {
        "notice": "Get bid extension window length"
      },
      "bidOf(uint256,address)": {
        "notice": "Get bid for address"
      },
      "calculateFeeFromBid(uint256)": {
        "notice": "Calculate fee from bid"
      },
      "closeAuction(uint256)": {
        "notice": "Close auction and trigger a transfer to the highest bidder"
      },
      "currentAuctionRound(uint256)": {
        "notice": "Get current auction round"
      },
      "currentBid(uint256)": {
        "notice": "Get current bid"
      },
      "highestBid(uint256)": {
        "notice": "Get highest outstanding bid"
      },
      "initialBidder()": {
        "notice": "Get initial bidder"
      },
      "initialPeriodStartTime()": {
        "notice": "Get initial period start time"
      },
      "initializeAuction(address,address,address,uint256,uint256,uint256,uint256,uint256,uint256,uint256)": {
        "notice": "Initialize auction parameters with owner"
      },
      "initializeAuction(address,address,uint256,uint256,uint256,uint256,uint256,uint256,uint256)": {
        "notice": "Initialize auction parameters"
      },
      "isAuctionPeriod(uint256)": {
        "notice": "Get is auction period"
      },
      "isReadyForTransfer(uint256)": {
        "notice": "Is token ready for transfer"
      },
      "minBidIncrement()": {
        "notice": "Get minimum bid increment"
      },
      "placeBid(uint256,uint256)": {
        "notice": "Place a bid"
      },
      "repossessor()": {
        "notice": "Get repossessor"
      },
      "setAuctionLengthSeconds(uint256)": {
        "notice": "Set auction length"
      },
      "setAuctionParameters(address,uint256,uint256,uint256,uint256,uint256)": {
        "notice": "Set auction parameters"
      },
      "setBidExtensionSeconds(uint256)": {
        "notice": "Set bid extension seconds"
      },
      "setBidExtensionWindowLengthSeconds(uint256)": {
        "notice": "Set bid extension window length"
      },
      "setMinBidIncrement(uint256)": {
        "notice": "Set minimum bid increment"
      },
      "setRepossessor(address)": {
        "notice": "Set repossessor"
      },
      "setStartingBid(uint256)": {
        "notice": "Set starting bid"
      },
      "startingBid()": {
        "notice": "Get starting bid"
      },
      "withdrawBid(uint256)": {
        "notice": "Withdraw bid collateral"
      }
    },
    "version": 1
  },
  "storageLayout": {
    "storage": [],
    "types": null
  }
}