{
  "address": "0x893b7b1A7D74a61826F0D655151f0525628f357c",
  "abi": [
    {
      "inputs": [],
      "name": "ERC165Base__InvalidInterfaceId",
      "type": "error"
    },
    {
      "inputs": [],
      "name": "UintUtils__InsufficientHexLength",
      "type": "error"
    },
    {
      "anonymous": false,
      "inputs": [
        {
          "indexed": true,
          "internalType": "uint256",
          "name": "tokenId",
          "type": "uint256"
        },
        {
          "indexed": true,
          "internalType": "uint256",
          "name": "round",
          "type": "uint256"
        },
        {
          "indexed": true,
          "internalType": "address",
          "name": "winningBidder",
          "type": "address"
        },
        {
          "indexed": false,
          "internalType": "address",
          "name": "previousOwner",
          "type": "address"
        },
        {
          "indexed": false,
          "internalType": "uint256",
          "name": "bidAmount",
          "type": "uint256"
        }
      ],
      "name": "AuctionClosed",
      "type": "event"
    },
    {
      "anonymous": false,
      "inputs": [
        {
          "indexed": false,
          "internalType": "uint256",
          "name": "auctionLengthSeconds",
          "type": "uint256"
        }
      ],
      "name": "AuctionLengthSet",
      "type": "event"
    },
    {
      "anonymous": false,
      "inputs": [
        {
          "indexed": false,
          "internalType": "uint256",
          "name": "bidExtensionSeconds",
          "type": "uint256"
        }
      ],
      "name": "BidExtensionSet",
      "type": "event"
    },
    {
      "anonymous": false,
      "inputs": [
        {
          "indexed": false,
          "internalType": "uint256",
          "name": "bidExtensionWindowLengthSeconds",
          "type": "uint256"
        }
      ],
      "name": "BidExtensionWindowLengthSet",
      "type": "event"
    },
    {
      "anonymous": false,
      "inputs": [
        {
          "indexed": true,
          "internalType": "uint256",
          "name": "tokenId",
          "type": "uint256"
        },
        {
          "indexed": true,
          "internalType": "uint256",
          "name": "round",
          "type": "uint256"
        },
        {
          "indexed": true,
          "internalType": "address",
          "name": "bidder",
          "type": "address"
        },
        {
          "indexed": false,
          "internalType": "uint256",
          "name": "bidAmount",
          "type": "uint256"
        }
      ],
      "name": "BidPlaced",
      "type": "event"
    },
    {
      "anonymous": false,
      "inputs": [
        {
          "indexed": false,
          "internalType": "uint256",
          "name": "initialPeriodStartTime",
          "type": "uint256"
        }
      ],
      "name": "InitialPeriodStartTimeSet",
      "type": "event"
    },
    {
      "anonymous": false,
      "inputs": [
        {
          "indexed": false,
          "internalType": "uint256",
          "name": "minBidIncrement",
          "type": "uint256"
        }
      ],
      "name": "MinBidIncrementSet",
      "type": "event"
    },
    {
      "anonymous": false,
      "inputs": [
        {
          "indexed": false,
          "internalType": "address",
          "name": "repossessor",
          "type": "address"
        }
      ],
      "name": "RepossessorSet",
      "type": "event"
    },
    {
      "anonymous": false,
      "inputs": [
        {
          "indexed": true,
          "internalType": "bytes32",
          "name": "role",
          "type": "bytes32"
        },
        {
          "indexed": true,
          "internalType": "bytes32",
          "name": "previousAdminRole",
          "type": "bytes32"
        },
        {
          "indexed": true,
          "internalType": "bytes32",
          "name": "newAdminRole",
          "type": "bytes32"
        }
      ],
      "name": "RoleAdminChanged",
      "type": "event"
    },
    {
      "anonymous": false,
      "inputs": [
        {
          "indexed": true,
          "internalType": "bytes32",
          "name": "role",
          "type": "bytes32"
        },
        {
          "indexed": true,
          "internalType": "address",
          "name": "account",
          "type": "address"
        },
        {
          "indexed": true,
          "internalType": "address",
          "name": "sender",
          "type": "address"
        }
      ],
      "name": "RoleGranted",
      "type": "event"
    },
    {
      "anonymous": false,
      "inputs": [
        {
          "indexed": true,
          "internalType": "bytes32",
          "name": "role",
          "type": "bytes32"
        },
        {
          "indexed": true,
          "internalType": "address",
          "name": "account",
          "type": "address"
        },
        {
          "indexed": true,
          "internalType": "address",
          "name": "sender",
          "type": "address"
        }
      ],
      "name": "RoleRevoked",
      "type": "event"
    },
    {
      "anonymous": false,
      "inputs": [
        {
          "indexed": false,
          "internalType": "uint256",
          "name": "startingBid",
          "type": "uint256"
        }
      ],
      "name": "StartingBidSet",
      "type": "event"
    },
    {
      "inputs": [
        {
          "internalType": "uint256",
          "name": "tokenId",
          "type": "uint256"
        }
      ],
      "name": "auctionEndTime",
      "outputs": [
        {
          "internalType": "uint256",
          "name": "",
          "type": "uint256"
        }
      ],
      "stateMutability": "view",
      "type": "function"
    },
    {
      "inputs": [],
      "name": "auctionLengthSeconds",
      "outputs": [
        {
          "internalType": "uint256",
          "name": "",
          "type": "uint256"
        }
      ],
      "stateMutability": "view",
      "type": "function"
    },
    {
      "inputs": [
        {
          "internalType": "uint256",
          "name": "tokenId",
          "type": "uint256"
        }
      ],
      "name": "auctionStartTime",
      "outputs": [
        {
          "internalType": "uint256",
          "name": "",
          "type": "uint256"
        }
      ],
      "stateMutability": "view",
      "type": "function"
    },
    {
      "inputs": [],
      "name": "bidExtensionSeconds",
      "outputs": [
        {
          "internalType": "uint256",
          "name": "",
          "type": "uint256"
        }
      ],
      "stateMutability": "view",
      "type": "function"
    },
    {
      "inputs": [],
      "name": "bidExtensionWindowLengthSeconds",
      "outputs": [
        {
          "internalType": "uint256",
          "name": "",
          "type": "uint256"
        }
      ],
      "stateMutability": "view",
      "type": "function"
    },
    {
      "inputs": [
        {
          "internalType": "uint256",
          "name": "tokenId",
          "type": "uint256"
        },
        {
          "internalType": "address",
          "name": "bidder",
          "type": "address"
        }
      ],
      "name": "bidOf",
      "outputs": [
        {
          "components": [
            {
              "internalType": "uint256",
              "name": "round",
              "type": "uint256"
            },
            {
              "internalType": "address",
              "name": "bidder",
              "type": "address"
            },
            {
              "internalType": "uint256",
              "name": "bidAmount",
              "type": "uint256"
            },
            {
              "internalType": "uint256",
              "name": "feeAmount",
              "type": "uint256"
            },
            {
              "internalType": "uint256",
              "name": "collateralAmount",
              "type": "uint256"
            }
          ],
          "internalType": "struct IEnglishPeriodicAuctionInternal.Bid",
          "name": "",
          "type": "tuple"
        }
      ],
      "stateMutability": "view",
      "type": "function"
    },
    {
      "inputs": [
        {
          "internalType": "uint256",
          "name": "bidAmount",
          "type": "uint256"
        }
      ],
      "name": "calculateFeeFromBid",
      "outputs": [
        {
          "internalType": "uint256",
          "name": "",
          "type": "uint256"
        }
      ],
      "stateMutability": "view",
      "type": "function"
    },
    {
      "inputs": [
        {
          "internalType": "uint256",
          "name": "tokenId",
          "type": "uint256"
        }
      ],
      "name": "closeAuction",
      "outputs": [],
      "stateMutability": "nonpayable",
      "type": "function"
    },
    {
      "inputs": [
        {
          "internalType": "uint256",
          "name": "tokenId",
          "type": "uint256"
        }
      ],
      "name": "currentBid",
      "outputs": [
        {
          "components": [
            {
              "internalType": "uint256",
              "name": "round",
              "type": "uint256"
            },
            {
              "internalType": "address",
              "name": "bidder",
              "type": "address"
            },
            {
              "internalType": "uint256",
              "name": "bidAmount",
              "type": "uint256"
            },
            {
              "internalType": "uint256",
              "name": "feeAmount",
              "type": "uint256"
            },
            {
              "internalType": "uint256",
              "name": "collateralAmount",
              "type": "uint256"
            }
          ],
          "internalType": "struct IEnglishPeriodicAuctionInternal.Bid",
          "name": "",
          "type": "tuple"
        }
      ],
      "stateMutability": "view",
      "type": "function"
    },
    {
      "inputs": [
        {
          "internalType": "uint256",
          "name": "tokenId",
          "type": "uint256"
        }
      ],
      "name": "highestBid",
      "outputs": [
        {
          "components": [
            {
              "internalType": "uint256",
              "name": "round",
              "type": "uint256"
            },
            {
              "internalType": "address",
              "name": "bidder",
              "type": "address"
            },
            {
              "internalType": "uint256",
              "name": "bidAmount",
              "type": "uint256"
            },
            {
              "internalType": "uint256",
              "name": "feeAmount",
              "type": "uint256"
            },
            {
              "internalType": "uint256",
              "name": "collateralAmount",
              "type": "uint256"
            }
          ],
          "internalType": "struct IEnglishPeriodicAuctionInternal.Bid",
          "name": "",
          "type": "tuple"
        }
      ],
      "stateMutability": "view",
      "type": "function"
    },
    {
      "inputs": [],
      "name": "initialBidder",
      "outputs": [
        {
          "internalType": "address",
          "name": "",
          "type": "address"
        }
      ],
      "stateMutability": "view",
      "type": "function"
    },
    {
      "inputs": [],
      "name": "initialPeriodStartTime",
      "outputs": [
        {
          "internalType": "uint256",
          "name": "",
          "type": "uint256"
        }
      ],
      "stateMutability": "view",
      "type": "function"
    },
    {
      "inputs": [
        {
          "internalType": "address",
          "name": "_repossessor",
          "type": "address"
        },
        {
          "internalType": "address",
          "name": "_initialBidder",
          "type": "address"
        },
        {
          "internalType": "uint256",
          "name": "_initialPeriodStartTime",
          "type": "uint256"
        },
        {
          "internalType": "uint256",
          "name": "_initialPeriodStartTimeOffset",
          "type": "uint256"
        },
        {
          "internalType": "uint256",
          "name": "_startingBid",
          "type": "uint256"
        },
        {
          "internalType": "uint256",
          "name": "_auctionLengthSeconds",
          "type": "uint256"
        },
        {
          "internalType": "uint256",
          "name": "_minBidIncrement",
          "type": "uint256"
        },
        {
          "internalType": "uint256",
          "name": "_bidExtensionWindowLengthSeconds",
          "type": "uint256"
        },
        {
          "internalType": "uint256",
          "name": "_bidExtensionSeconds",
          "type": "uint256"
        }
      ],
      "name": "initializeAuction",
      "outputs": [],
      "stateMutability": "nonpayable",
      "type": "function"
    },
    {
      "inputs": [
        {
          "internalType": "address",
          "name": "_owner",
          "type": "address"
        },
        {
          "internalType": "address",
          "name": "_repossessor",
          "type": "address"
        },
        {
          "internalType": "address",
          "name": "_initialBidder",
          "type": "address"
        },
        {
          "internalType": "uint256",
          "name": "_initialPeriodStartTime",
          "type": "uint256"
        },
        {
          "internalType": "uint256",
          "name": "_initialPeriodStartTimeOffset",
          "type": "uint256"
        },
        {
          "internalType": "uint256",
          "name": "_startingBid",
          "type": "uint256"
        },
        {
          "internalType": "uint256",
          "name": "_auctionLengthSeconds",
          "type": "uint256"
        },
        {
          "internalType": "uint256",
          "name": "_minBidIncrement",
          "type": "uint256"
        },
        {
          "internalType": "uint256",
          "name": "_bidExtensionWindowLengthSeconds",
          "type": "uint256"
        },
        {
          "internalType": "uint256",
          "name": "_bidExtensionSeconds",
          "type": "uint256"
        }
      ],
      "name": "initializeAuction",
      "outputs": [],
      "stateMutability": "nonpayable",
      "type": "function"
    },
    {
      "inputs": [
        {
          "internalType": "uint256",
          "name": "tokenId",
          "type": "uint256"
        }
      ],
      "name": "isAuctionPeriod",
      "outputs": [
        {
          "internalType": "bool",
          "name": "",
          "type": "bool"
        }
      ],
      "stateMutability": "view",
      "type": "function"
    },
    {
      "inputs": [
        {
          "internalType": "uint256",
          "name": "tokenId",
          "type": "uint256"
        }
      ],
      "name": "isReadyForTransfer",
      "outputs": [
        {
          "internalType": "bool",
          "name": "",
          "type": "bool"
        }
      ],
      "stateMutability": "view",
      "type": "function"
    },
    {
      "inputs": [],
      "name": "minBidIncrement",
      "outputs": [
        {
          "internalType": "uint256",
          "name": "",
          "type": "uint256"
        }
      ],
      "stateMutability": "view",
      "type": "function"
    },
    {
      "inputs": [
        {
          "internalType": "uint256",
          "name": "tokenId",
          "type": "uint256"
        },
        {
          "internalType": "uint256",
          "name": "bidAmount",
          "type": "uint256"
        }
      ],
      "name": "placeBid",
      "outputs": [],
      "stateMutability": "payable",
      "type": "function"
    },
    {
      "inputs": [],
      "name": "repossessor",
      "outputs": [
        {
          "internalType": "address",
          "name": "",
          "type": "address"
        }
      ],
      "stateMutability": "view",
      "type": "function"
    },
    {
      "inputs": [
        {
          "internalType": "uint256",
          "name": "_auctionLengthSeconds",
          "type": "uint256"
        }
      ],
      "name": "setAuctionLengthSeconds",
      "outputs": [],
      "stateMutability": "nonpayable",
      "type": "function"
    },
    {
      "inputs": [
        {
          "internalType": "address",
          "name": "_repossessor",
          "type": "address"
        },
        {
          "internalType": "uint256",
          "name": "_auctionLengthSeconds",
          "type": "uint256"
        },
        {
          "internalType": "uint256",
          "name": "_minBidIncrement",
          "type": "uint256"
        },
        {
          "internalType": "uint256",
          "name": "_bidExtensionWindowLengthSeconds",
          "type": "uint256"
        },
        {
          "internalType": "uint256",
          "name": "_bidExtensionSeconds",
          "type": "uint256"
        },
        {
          "internalType": "uint256",
          "name": "_startingBid",
          "type": "uint256"
        }
      ],
      "name": "setAuctionParameters",
      "outputs": [],
      "stateMutability": "nonpayable",
      "type": "function"
    },
    {
      "inputs": [
        {
          "internalType": "uint256",
          "name": "_bidExtensionSeconds",
          "type": "uint256"
        }
      ],
      "name": "setBidExtensionSeconds",
      "outputs": [],
      "stateMutability": "nonpayable",
      "type": "function"
    },
    {
      "inputs": [
        {
          "internalType": "uint256",
          "name": "_bidExtensionWindowLengthSeconds",
          "type": "uint256"
        }
      ],
      "name": "setBidExtensionWindowLengthSeconds",
      "outputs": [],
      "stateMutability": "nonpayable",
      "type": "function"
    },
    {
      "inputs": [
        {
          "internalType": "uint256",
          "name": "_minBidIncrement",
          "type": "uint256"
        }
      ],
      "name": "setMinBidIncrement",
      "outputs": [],
      "stateMutability": "nonpayable",
      "type": "function"
    },
    {
      "inputs": [
        {
          "internalType": "address",
          "name": "_repossessor",
          "type": "address"
        }
      ],
      "name": "setRepossessor",
      "outputs": [],
      "stateMutability": "nonpayable",
      "type": "function"
    },
    {
      "inputs": [],
      "name": "startingBid",
      "outputs": [
        {
          "internalType": "uint256",
          "name": "",
          "type": "uint256"
        }
      ],
      "stateMutability": "view",
      "type": "function"
    },
    {
      "inputs": [
        {
          "internalType": "uint256",
          "name": "tokenId",
          "type": "uint256"
        }
      ],
      "name": "withdrawBid",
      "outputs": [],
      "stateMutability": "nonpayable",
      "type": "function"
    }
  ],
  "transactionHash": "0x019f475e601cf0b47ec781e90085804472604ac4a098cc8cb2c2d789d371ff15",
  "args": [],
  "numDeployments": 10,
  "solcInputHash": "6c888aa10e35a22f249b25a5efb27637",
  "bytecode": "0x608060405234801561001057600080fd5b5061274f806100206000396000f3fe60806040526004361061019c5760003560e01c806357c90de5116100ec578063b14c63c51161008a578063bff8219811610064578063bff82198146104b9578063c3bab646146104ce578063dba85ccb146104e3578063df6ba5c61461050357600080fd5b8063b14c63c51461046f578063b9fdd5691461048f578063be6a2a6d146104a457600080fd5b806371c65bde116100c657806371c65bde146103ea578063777de704146103ff578063868c54661461041f578063a7c12c111461043f57600080fd5b806357c90de514610397578063609e46fb146103aa57806361a7a226146103ca57600080fd5b806333465c5f116101595780633882ce8e116101335780633882ce8e146103155780633c7cfe341461034257806355cc19ea1461036257806355ee09d71461037757600080fd5b806333465c5f146102b2578063335b115e146102e0578063358498a3146102f557600080fd5b8063077bbc6d146101a15780630eaaf4c8146101c357806317a6836a146101e3578063236ed8f31461020357806324db41901461022357806328e05bf114610243575b600080fd5b3480156101ad57600080fd5b506101c16101bc366004612311565b610523565b005b3480156101cf57600080fd5b506101c16101de366004612386565b61057f565b3480156101ef57600080fd5b506101c16101fe36600461239f565b61058c565b34801561020f57600080fd5b506101c161021e366004612386565b6105bb565b34801561022f57600080fd5b506101c161023e3660046123eb565b61062d565b34801561024f57600080fd5b5061026361025e366004612408565b610652565b6040516102a99190815181526020808301516001600160a01b03169082015260408083015190820152606080830151908201526080918201519181019190915260a00190565b60405180910390f35b3480156102be57600080fd5b506102d26102cd366004612386565b6106af565b6040519081526020016102a9565b3480156102ec57600080fd5b506102d26106ba565b34801561030157600080fd5b506101c1610310366004612438565b6106c9565b34801561032157600080fd5b5061032a61075f565b6040516001600160a01b0390911681526020016102a9565b34801561034e57600080fd5b5061026361035d366004612386565b610769565b34801561036e57600080fd5b506102d26107c2565b34801561038357600080fd5b506101c1610392366004612386565b6107cc565b6101c16103a53660046124c2565b6107ed565b3480156103b657600080fd5b506101c16103c5366004612386565b6109c1565b3480156103d657600080fd5b506101c16103e5366004612386565b6109e2565b3480156103f657600080fd5b5061032a610a03565b34801561040b57600080fd5b506102d261041a366004612386565b610a0d565b34801561042b57600080fd5b506102d261043a366004612386565b610a18565b34801561044b57600080fd5b5061045f61045a366004612386565b610a23565b60405190151581526020016102a9565b34801561047b57600080fd5b5061026361048a366004612386565b610a2e565b34801561049b57600080fd5b506102d2610a3f565b3480156104b057600080fd5b506102d2610a49565b3480156104c557600080fd5b506102d2610a53565b3480156104da57600080fd5b506102d2610a5d565b3480156104ef57600080fd5b506101c16104fe366004612386565b610a67565b34801561050f57600080fd5b5061045f61051e366004612386565b610a88565b61052b610a93565b156105515760405162461bcd60e51b8152600401610548906124e4565b60405180910390fd5b610563631094e47960e11b6001610aa6565b610574898989898989898989610b1c565b505050505050505050565b6105898133610b8e565b50565b6000805160206126fa8339815191526105a481610e72565b6105b2878787878787610e7c565b50505050505050565b6105c481610eba565b6106245760405162461bcd60e51b815260206004820152602b60248201527f456e676c697368506572696f64696341756374696f6e3a2061756374696f6e2060448201526a34b9903737ba1037bb32b960a91b6064820152608401610548565b61058981610f3e565b6000805160206126fa83398151915261064581610e72565b61064e82611447565b5050565b61065a6122c4565b61066483836114a6565b6040805160a0810182528254815260018301546001600160a01b0316602082015260028301549181019190915260038201546060820152600490910154608082015290505b92915050565b60006106a9826114d9565b60006106c46115b4565b905090565b6106d1610a93565b156106ee5760405162461bcd60e51b8152600401610548906124e4565b610700631094e47960e11b6001610aa6565b61071263aba4f05160e01b6001610aa6565b61072a6000805160206126fa8339815191528b6115c7565b6107426000805160206126fa8339815191528061163b565b610753898989898989898989610b1c565b50505050505050505050565b60006106c46116a5565b6107716122c4565b61077a826116c3565b6040805160a0810182528254815260018301546001600160a01b0316602082015260028301549181019190915260038201546060820152600490910154608082015292915050565b60006106c46116e0565b6000805160206126fa8339815191526107e481610e72565b61064e826116f3565b6107f682611730565b6108685760405162461bcd60e51b815260206004820152603c60248201527f456e676c697368506572696f64696341756374696f6e3a2063616e206f6e6c7960448201527f20706c6163652062696420696e2061756374696f6e20706572696f64000000006064820152608401610548565b61087182610eba565b156108e45760405162461bcd60e51b815260206004820152603d60248201527f456e676c697368506572696f64696341756374696f6e3a2061756374696f6e2060448201527f6973206f76657220616e64206177616974696e67207472616e736665720000006064820152608401610548565b60405163babcc53960e01b8152336004820152309063babcc53990602401602060405180830381865afa15801561091f573d6000803e3d6000fd5b505050506040513d601f19601f820116820180604052508101906109439190612534565b6109b55760405162461bcd60e51b815260206004820152603a60248201527f456e676c697368506572696f64696341756374696f6e3a2073656e646572206960448201527f73206e6f7420616c6c6f77656420746f20706c616365206269640000000000006064820152608401610548565b61064e823383346117ab565b6000805160206126fa8339815191526109d981610e72565b61064e82611d54565b6000805160206126fa8339815191526109fa81610e72565b61064e82611d91565b60006106c4611dce565b60006106a982611dea565b60006106a982611e46565b60006106a982611730565b610a366122c4565b61077a82611f28565b60006106c4611f45565b60006106c4611f58565b60006106c4611f6b565b60006106c4611f7e565b6000805160206126fa833981519152610a7f81610e72565b61064e82611f91565b60006106a982610eba565b6000610a9d611fce565b5460ff16919050565b6001600160e01b03198083169003610ad15760405163b0a19dd560e01b815260040160405180910390fd5b6001600160e01b03199190911660009081527ffc606c433378e3a7e0a6a531deac289b66caa1b4aa8554fd4ab2c6f1570f92d860205260409020805460ff1916911515919091179055565b6000610b26611fce565b80546001600160a01b038b16610100026001600160a81b031990911617600117815560048101889055600381018990559050610b6186611ff2565b610b6a8a611447565b610b7385611d91565b610b7c846116f3565b610b8583611f91565b61075382611d54565b6000610b98611fce565b604051634f558e7960e01b8152600481018590529091506000903090634f558e7990602401602060405180830381865afa158015610bda573d6000803e3d6000fd5b505050506040513d601f19601f82011682018060405250810190610bfe9190612534565b15610c6a576040516331a9108f60e11b8152600481018590523090636352211e90602401602060405180830381865afa158015610c3f573d6000803e3d6000fd5b505050506040513d601f19601f82011682018060405250810190610c639190612556565b9050610c7c565b50805461010090046001600160a01b03165b6000848152600e830160205260409020600101546001600160a01b0390811690841603610d115760405162461bcd60e51b815260206004820152603d60248201527f456e676c697368506572696f64696341756374696f6e3a2043616e6e6f74207760448201527f69746864726177206269642069662068696768657374206269646465720000006064820152608401610548565b6000848152600c8301602090815260408083206001600160a01b038716845290915290206004810154610da05760405162461bcd60e51b815260206004820152603160248201527f456e676c697368506572696f64696341756374696f6e3a204e6f20636f6c6c61604482015270746572616c20746f20776974686472617760781b6064820152608401610548565b600481018054600091829055600283018290556040519091906001600160a01b0387169083908381818185875af1925050503d8060008114610dfe576040519150601f19603f3d011682016040523d82523d6000602084013e610e03565b606091505b50509050806105b25760405162461bcd60e51b815260206004820152603560248201527f456e676c697368506572696f64696341756374696f6e3a204661696c656420746044820152741bc81dda5d1a191c985dc818dbdb1b185d195c985b605a1b6064820152608401610548565b610589813361202f565b610e8586611447565b610e8e85611d91565b610e97846116f3565b610ea083611f91565b610ea982611d54565b610eb281611ff2565b505050505050565b6000306001600160a01b031663c4e627c26040518163ffffffff1660e01b8152600401602060405180830381865afa158015610efa573d6000803e3d6000fd5b505050506040513d601f19601f82011682018060405250810190610f1e9190612573565b8210610f2c57506000919050565b610f3582611dea565b42101592915050565b6000610f48611fce565b604051634f558e7960e01b8152600481018490529091506000903090634f558e7990602401602060405180830381865afa158015610f8a573d6000803e3d6000fd5b505050506040513d601f19601f82011682018060405250810190610fae9190612534565b1561101a576040516331a9108f60e11b8152600481018490523090636352211e90602401602060405180830381865afa158015610fef573d6000803e3d6000fd5b505050506040513d601f19601f820116820180604052508101906110139190612556565b905061102c565b50805461010090046001600160a01b03165b60008381526009830160209081526040808320429055600a8501825280832054600e860190925290912054108061107d57506000838152600e830160205260409020600101546001600160a01b0316155b156111d857600082600c01600085815260200190815260200160002060008460020160009054906101000a90046001600160a01b03166001600160a01b03166001600160a01b03168152602001908152602001600020905082600a0160008581526020019081526020016000205481600001819055506000816002018190555060008160040181905550600081600301819055508260020160009054906101000a90046001600160a01b03168160010160006101000a8154816001600160a01b0302191690836001600160a01b031602179055508083600e016000868152602001908152602001600020600082015481600001556001820160009054906101000a90046001600160a01b03168160010160006101000a8154816001600160a01b0302191690836001600160a01b0316021790555060028201548160020155600382015481600301556004820154816004015590505050611223565b6000838152600e83016020908152604080832060020154600c860183528184206001600160a01b0386168552909252822060040180549192909161121d9084906125a2565b90915550505b6000838152600e8301602081815260408084206001810154600a8801845294829020549383526002015481516001600160a01b03878116825293810191909152919093169286917fdae3b66c823bbdbd53155f9bb3e7693f818e957f816fe910b303fdbe7fa37dab910160405180910390a46000838152600e830160209081526040808320600d86018352818420815481556001808301805482840180546001600160a01b0319166001600160a01b039283161790556002808601549085015560038086015490850155600494850154938501938455600c8a018752858820915416875285528386209092018590558785528490556005860154600b8701845282852055600a86019092529091205461133b916125a2565b6000848152600a84016020908152604080832093909355600e8501905281902060010154905163e31a7c0160e01b81526001600160a01b038084166004830152909116602482015260448101849052309063e31a7c0190606401600060405180830381600087803b1580156113af57600080fd5b505af11580156113c3573d6000803e3d6000fd5b5050506000848152600e84016020526040902060030154159050611442576000838152600e8301602052604080822060030154815163e4fc6b6d60e01b81529151309363e4fc6b6d936004808201939182900301818588803b15801561142857600080fd5b505af115801561143c573d6000803e3d6000fd5b50505050505b505050565b80611450611fce565b60020180546001600160a01b0319166001600160a01b0392831617905560405190821681527f03bb52851d1b668acbe31ec6258d6de44a14c1dc0d9db84ab95e8071f5aa989d906020015b60405180910390a150565b60006114b0611fce565b6000938452600c01602090815260408085206001600160a01b0394909416855292905250902090565b6000806114e4611fce565b90506000306001600160a01b031663fd8e6f286040518163ffffffff1660e01b8152600401602060405180830381865afa158015611526573d6000803e3d6000fd5b505050506040513d601f19601f8201168201806040525081019061154a9190612573565b60038301546000868152600985016020526040902054919250101561158c5760008481526009830160205260409020546115859082906125a2565b92506115ad565b600482015461159b90856125b5565b82600301546115aa91906125a2565b92505b5050919050565b60006115be611fce565b60060154905090565b60008281527fd3889cc5458b268d0544e5534672df1296288ca3f93cbd39bd6f497a5c622811602052604090206115fe9082612091565b5060405133906001600160a01b0383169084907f2f8788117e7eff1d82e926ec794901d17c78024a50270940304540a733656f0d90600090a45050565b60008281527fd3889cc5458b268d0544e5534672df1296288ca3f93cbd39bd6f497a5c6228116020526040808220600201805490849055905190918391839186917fbd79b86ffe0ab8e8776151514217cd7cacd52c909f66475c3af44e129f0b00ff9190a4505050565b60006116af611fce565b5461010090046001600160a01b0316919050565b60006116cd611fce565b6000928352600d01602052506040902090565b60006116ea611fce565b60070154905090565b806116fc611fce565b600601556040518181527f8092df692524f6b78c4746150cae83effcfd6b470cc0038f09a603d42a32388e9060200161149b565b6000306001600160a01b031663c4e627c26040518163ffffffff1660e01b8152600401602060405180830381865afa158015611770573d6000803e3d6000fd5b505050506040513d601f19601f820116820180604052508101906117949190612573565b82106117a257506000919050565b610f35826114d9565b60006117b5611fce565b6000868152600c8201602090815260408083206001600160a01b038916845290915290206001820154919250908410156118705760405162461bcd60e51b815260206004820152605060248201527f456e676c697368506572696f64696341756374696f6e3a2042696420616d6f7560448201527f6e74206d7573742062652067726561746572207468616e206f7220657175616c60648201526f081d1bc81cdd185c9d1a5b99c8189a5960821b608482015260a401610548565b6000868152600a83016020908152604080832054600e860190925290912054036119445760068201546000878152600e840160205260409020600201546118b791906125a2565b8410156119445760405162461bcd60e51b815260206004820152604f60248201527f456e676c697368506572696f64696341756374696f6e3a2042696420616d6f7560448201527f6e74206d7573742062652067726561746572207468616e20686967686573742060648201526e1bdd5d1cdd185b991a5b99c8189a59608a1b608482015260a401610548565b6000868152600a830160205260408120548254036119735783826004015461196c91906125a2565b9050611976565b50825b604051634f558e7960e01b81526004810188905260009081903090634f558e7990602401602060405180830381865afa1580156119b7573d6000803e3d6000fd5b505050506040513d601f19601f820116820180604052508101906119db9190612534565b15611a47576040516331a9108f60e11b8152600481018a90523090636352211e90602401602060405180830381865afa158015611a1c573d6000803e3d6000fd5b505050506040513d601f19601f82011682018060405250810190611a409190612556565b9050611a59565b50835461010090046001600160a01b03165b806001600160a01b0316886001600160a01b031603611a7a57829150611b08565b868311611afb5760405162461bcd60e51b815260206004820152604360248201527f456e676c697368506572696f64696341756374696f6e3a20436f6c6c6174657260448201527f616c206d7573742062652067726561746572207468616e2063757272656e7420606482015262189a5960ea1b608482015260a401610548565b611b0587846125cc565b91505b611b1287836120ad565b611b735760405162461bcd60e51b815260206004820152602c60248201527f456e676c697368506572696f64696341756374696f6e3a20496e636f7272656360448201526b1d08189a5908185b5bdd5b9d60a21b6064820152608401610548565b878460010160006101000a8154816001600160a01b0302191690836001600160a01b0316021790555086846002018190555084600a0160008a81526020019081526020016000205484600001819055508184600301819055508284600401819055508385600e0160008b8152602001908152602001600020600082015481600001556001820160009054906101000a90046001600160a01b03168160010160006101000a8154816001600160a01b0302191690836001600160a01b031602179055506002820154816002015560038201548160030155600482015481600401559050508360010160009054906101000a90046001600160a01b03166001600160a01b031684600001548a7f6f7e354ea3ab5c288aea37fce29c603f9a98a3b040f6d8f32f10e192ec47ff6a8760020154604051611cb291815260200190565b60405180910390a46000611cc58a611dea565b9050428110158015611ce65750611cda6116e0565b611ce442836125cc565b105b156107535760008a8152600b870160205260408120548103611d1157611d0a611f7e565b9050611d24565b5060008a8152600b870160205260409020545b611d2c611f6b565b611d3690826125a2565b60008c8152600b890160205260409020555050505050505050505050565b80611d5d611fce565b600801556040518181527f33178f49ae33ce72b1c9e38d72f4ae326b490e4e7c9e02b8735a9ceacf770dee9060200161149b565b80611d9a611fce565b600501556040518181527f99578d7fe3e20e279feceaa076eb8032d475ca1a49391ec0a740445152a597139060200161149b565b6000611dd8611fce565b600201546001600160a01b0316919050565b600080611df5611fce565b6000848152600b82016020526040812054919250908103611e1f57611e18611f7e565b9050611e32565b506000838152600b820160205260409020545b80611e3c856114d9565b6115aa91906125a2565b600080306001600160a01b031663e86dea4a6040518163ffffffff1660e01b8152600401602060405180830381865afa158015611e87573d6000803e3d6000fd5b505050506040513d601f19601f82011682018060405250810190611eab9190612573565b90506000306001600160a01b031663180b0d7e6040518163ffffffff1660e01b8152600401602060405180830381865afa158015611eed573d6000803e3d6000fd5b505050506040513d601f19601f82011682018060405250810190611f119190612573565b905080611f1e83866125b5565b6115aa91906125df565b6000611f32611fce565b6000928352600e01602052506040902090565b6000611f4f611fce565b60010154905090565b6000611f62611fce565b60030154905090565b6000611f75611fce565b60080154905090565b6000611f88611fce565b60050154905090565b80611f9a611fce565b600701556040518181527f19ba737fa8db769049b6dafc98d3391bdead47e7f6617113c775efbed1efc6f99060200161149b565b7fc7ed1b841b2d3c7f16d15642e7b013e89732e44006608d59c7547b8e331a7ce090565b80611ffb611fce565b600101556040518181527f1063dc5e6f2d1c9d1cdcddf0f8ce9f8984ff1afd2df93f864e28056f5da6b01c9060200161149b565b61203982826120c3565b61064e5761204f816001600160a01b031661211c565b61205a83602061212e565b60405160200161206b929190612625565b60408051601f198184030181529082905262461bcd60e51b82526105489160040161269a565b60006120a6836001600160a01b038416612281565b9392505050565b6000806120b984611e46565b9092149392505050565b60006120a6827fd3889cc5458b268d0544e5534672df1296288ca3f93cbd39bd6f497a5c622811600086815260209190915260409020906001600160a01b038116600090815260018301602052604081205415156120a6565b60606106a96001600160a01b03831660145b6060600061213d8360026125b5565b6121489060026125a2565b67ffffffffffffffff811115612160576121606126cd565b6040519080825280601f01601f19166020018201604052801561218a576020820181803683370190505b509050600360fc1b816000815181106121a5576121a56126e3565b60200101906001600160f81b031916908160001a905350600f60fb1b816001815181106121d4576121d46126e3565b60200101906001600160f81b031916908160001a905350600160028402015b6001811115612261576f181899199a1a9b1b9c1cb0b131b232b360811b85600f1660108110612224576122246126e3565b1a60f81b82828151811061223a5761223a6126e3565b60200101906001600160f81b031916908160001a90535060049490941c93600019016121f3565b5083156120a65760405163c913478560e01b815260040160405180910390fd5b60008181526001830160205260408120546106a9575081546001808201845560008481526020808220909301849055845493815293810190915260409092205590565b6040518060a001604052806000815260200160006001600160a01b031681526020016000815260200160008152602001600081525090565b6001600160a01b038116811461058957600080fd5b60008060008060008060008060006101208a8c03121561233057600080fd5b893561233b816122fc565b985060208a013561234b816122fc565b989b989a505050506040870135966060810135966080820135965060a0820135955060c0820135945060e08201359350610100909101359150565b60006020828403121561239857600080fd5b5035919050565b60008060008060008060c087890312156123b857600080fd5b86356123c3816122fc565b9860208801359850604088013597606081013597506080810135965060a00135945092505050565b6000602082840312156123fd57600080fd5b81356120a6816122fc565b6000806040838503121561241b57600080fd5b82359150602083013561242d816122fc565b809150509250929050565b6000806000806000806000806000806101408b8d03121561245857600080fd5b8a35612463816122fc565b995060208b0135612473816122fc565b985060408b0135612483816122fc565b999c989b5098996060810135995060808101359860a0820135985060c0820135975060e082013596506101008201359550610120909101359350915050565b600080604083850312156124d557600080fd5b50508035926020909101359150565b60208082526030908201527f456e676c697368506572696f64696341756374696f6e46616365743a20616c7260408201526f1958591e481a5b9a5d1a585b1a5e995960821b606082015260800190565b60006020828403121561254657600080fd5b815180151581146120a657600080fd5b60006020828403121561256857600080fd5b81516120a6816122fc565b60006020828403121561258557600080fd5b5051919050565b634e487b7160e01b600052601160045260246000fd5b808201808211156106a9576106a961258c565b80820281158282048414176106a9576106a961258c565b818103818111156106a9576106a961258c565b6000826125fc57634e487b7160e01b600052601260045260246000fd5b500490565b60005b8381101561261c578181015183820152602001612604565b50506000910152565b7f416363657373436f6e74726f6c3a206163636f756e742000000000000000000081526000835161265d816017850160208801612601565b7001034b99036b4b9b9b4b733903937b6329607d1b601791840191820152835161268e816028840160208801612601565b01602801949350505050565b60208152600082518060208401526126b9816040850160208701612601565b601f01601f19169190910160400192915050565b634e487b7160e01b600052604160045260246000fd5b634e487b7160e01b600052603260045260246000fdfe27d47e2aa570d0f5aa1d72abbe4d60032a12e3514b8c2bc8a49a9968779054c2a2646970667358221220a925c7da99327713facd638b42f65f2258278f70d7665a236d9e7447036590ae64736f6c63430008110033",
  "devdoc": {
    "kind": "dev",
    "methods": {},
    "title": "EnglishPeriodicAuctionFacet",
    "version": 1
  },
  "userdoc": {
    "kind": "user",
    "methods": {
      "auctionEndTime(uint256)": {
        "notice": "Get auction end time"
      },
      "auctionLengthSeconds()": {
        "notice": "Get auction length"
      },
      "auctionStartTime(uint256)": {
        "notice": "Get auction start time"
      },
      "bidExtensionSeconds()": {
        "notice": "Get bid extension seconds"
      },
      "bidExtensionWindowLengthSeconds()": {
        "notice": "Get bid extension window length"
      },
      "bidOf(uint256,address)": {
        "notice": "Get bid for address"
      },
      "calculateFeeFromBid(uint256)": {
        "notice": "Calculate fee from bid"
      },
      "closeAuction(uint256)": {
        "notice": "Close auction and trigger a transfer to the highest bidder"
      },
      "currentBid(uint256)": {
        "notice": "Get current bid"
      },
      "highestBid(uint256)": {
        "notice": "Get highest outstanding bid"
      },
      "initialBidder()": {
        "notice": "Get initial bidder"
      },
      "initialPeriodStartTime()": {
        "notice": "Get initial period start time"
      },
      "initializeAuction(address,address,address,uint256,uint256,uint256,uint256,uint256,uint256,uint256)": {
        "notice": "Initialize auction parameters with owner"
      },
      "initializeAuction(address,address,uint256,uint256,uint256,uint256,uint256,uint256,uint256)": {
        "notice": "Initialize auction parameters"
      },
      "isAuctionPeriod(uint256)": {
        "notice": "Get is auction period"
      },
      "isReadyForTransfer(uint256)": {
        "notice": "Is token ready for transfer"
      },
      "minBidIncrement()": {
        "notice": "Get minimum bid increment"
      },
      "placeBid(uint256,uint256)": {
        "notice": "Place a bid"
      },
      "repossessor()": {
        "notice": "Get repossessor"
      },
      "setAuctionLengthSeconds(uint256)": {
        "notice": "Set auction length"
      },
      "setAuctionParameters(address,uint256,uint256,uint256,uint256,uint256)": {
        "notice": "Set auction parameters"
      },
      "setBidExtensionSeconds(uint256)": {
        "notice": "Set bid extension seconds"
      },
      "setBidExtensionWindowLengthSeconds(uint256)": {
        "notice": "Set bid extension window length"
      },
      "setMinBidIncrement(uint256)": {
        "notice": "Set minimum bid increment"
      },
      "setRepossessor(address)": {
        "notice": "Set repossessor"
      },
      "startingBid()": {
        "notice": "Get starting bid"
      },
      "withdrawBid(uint256)": {
        "notice": "Withdraw bid collateral"
      }
    },
    "version": 1
  },
  "storageLayout": {
    "storage": [],
    "types": null
  }
}