{
  "address": "0xeA45b8aE461c840c1B2965ffeDA5C2a11594E1c1",
  "abi": [
    {
      "inputs": [],
      "name": "ERC165Base__InvalidInterfaceId",
      "type": "error"
    },
    {
      "inputs": [],
      "name": "UintUtils__InsufficientHexLength",
      "type": "error"
    },
    {
      "anonymous": false,
      "inputs": [
        {
          "indexed": true,
          "internalType": "uint256",
          "name": "tokenId",
          "type": "uint256"
        },
        {
          "indexed": true,
          "internalType": "uint256",
          "name": "round",
          "type": "uint256"
        },
        {
          "indexed": true,
          "internalType": "address",
          "name": "winningBidder",
          "type": "address"
        },
        {
          "indexed": false,
          "internalType": "address",
          "name": "previousOwner",
          "type": "address"
        },
        {
          "indexed": false,
          "internalType": "uint256",
          "name": "bidAmount",
          "type": "uint256"
        }
      ],
      "name": "AuctionClosed",
      "type": "event"
    },
    {
      "anonymous": false,
      "inputs": [
        {
          "indexed": false,
          "internalType": "uint256",
          "name": "auctionLengthSeconds",
          "type": "uint256"
        }
      ],
      "name": "AuctionLengthSet",
      "type": "event"
    },
    {
      "anonymous": false,
      "inputs": [
        {
          "indexed": false,
          "internalType": "uint256",
          "name": "bidExtensionSeconds",
          "type": "uint256"
        }
      ],
      "name": "BidExtensionSet",
      "type": "event"
    },
    {
      "anonymous": false,
      "inputs": [
        {
          "indexed": false,
          "internalType": "uint256",
          "name": "bidExtensionWindowLengthSeconds",
          "type": "uint256"
        }
      ],
      "name": "BidExtensionWindowLengthSet",
      "type": "event"
    },
    {
      "anonymous": false,
      "inputs": [
        {
          "indexed": true,
          "internalType": "uint256",
          "name": "tokenId",
          "type": "uint256"
        },
        {
          "indexed": true,
          "internalType": "uint256",
          "name": "round",
          "type": "uint256"
        },
        {
          "indexed": true,
          "internalType": "address",
          "name": "bidder",
          "type": "address"
        },
        {
          "indexed": false,
          "internalType": "uint256",
          "name": "bidAmount",
          "type": "uint256"
        }
      ],
      "name": "BidPlaced",
      "type": "event"
    },
    {
      "anonymous": false,
      "inputs": [
        {
          "indexed": false,
          "internalType": "uint256",
          "name": "initialPeriodStartTime",
          "type": "uint256"
        }
      ],
      "name": "InitialPeriodStartTimeSet",
      "type": "event"
    },
    {
      "anonymous": false,
      "inputs": [
        {
          "indexed": false,
          "internalType": "uint256",
          "name": "minBidIncrement",
          "type": "uint256"
        }
      ],
      "name": "MinBidIncrementSet",
      "type": "event"
    },
    {
      "anonymous": false,
      "inputs": [
        {
          "indexed": false,
          "internalType": "address",
          "name": "repossessor",
          "type": "address"
        }
      ],
      "name": "RepossessorSet",
      "type": "event"
    },
    {
      "anonymous": false,
      "inputs": [
        {
          "indexed": true,
          "internalType": "bytes32",
          "name": "role",
          "type": "bytes32"
        },
        {
          "indexed": true,
          "internalType": "bytes32",
          "name": "previousAdminRole",
          "type": "bytes32"
        },
        {
          "indexed": true,
          "internalType": "bytes32",
          "name": "newAdminRole",
          "type": "bytes32"
        }
      ],
      "name": "RoleAdminChanged",
      "type": "event"
    },
    {
      "anonymous": false,
      "inputs": [
        {
          "indexed": true,
          "internalType": "bytes32",
          "name": "role",
          "type": "bytes32"
        },
        {
          "indexed": true,
          "internalType": "address",
          "name": "account",
          "type": "address"
        },
        {
          "indexed": true,
          "internalType": "address",
          "name": "sender",
          "type": "address"
        }
      ],
      "name": "RoleGranted",
      "type": "event"
    },
    {
      "anonymous": false,
      "inputs": [
        {
          "indexed": true,
          "internalType": "bytes32",
          "name": "role",
          "type": "bytes32"
        },
        {
          "indexed": true,
          "internalType": "address",
          "name": "account",
          "type": "address"
        },
        {
          "indexed": true,
          "internalType": "address",
          "name": "sender",
          "type": "address"
        }
      ],
      "name": "RoleRevoked",
      "type": "event"
    },
    {
      "anonymous": false,
      "inputs": [
        {
          "indexed": false,
          "internalType": "uint256",
          "name": "startingBid",
          "type": "uint256"
        }
      ],
      "name": "StartingBidSet",
      "type": "event"
    },
    {
      "inputs": [
        {
          "internalType": "uint256",
          "name": "tokenId",
          "type": "uint256"
        }
      ],
      "name": "auctionEndTime",
      "outputs": [
        {
          "internalType": "uint256",
          "name": "",
          "type": "uint256"
        }
      ],
      "stateMutability": "view",
      "type": "function"
    },
    {
      "inputs": [],
      "name": "auctionLengthSeconds",
      "outputs": [
        {
          "internalType": "uint256",
          "name": "",
          "type": "uint256"
        }
      ],
      "stateMutability": "view",
      "type": "function"
    },
    {
      "inputs": [
        {
          "internalType": "uint256",
          "name": "tokenId",
          "type": "uint256"
        }
      ],
      "name": "auctionStartTime",
      "outputs": [
        {
          "internalType": "uint256",
          "name": "",
          "type": "uint256"
        }
      ],
      "stateMutability": "view",
      "type": "function"
    },
    {
      "inputs": [
        {
          "internalType": "address",
          "name": "bidder",
          "type": "address"
        }
      ],
      "name": "availableCollateral",
      "outputs": [
        {
          "internalType": "uint256",
          "name": "",
          "type": "uint256"
        }
      ],
      "stateMutability": "view",
      "type": "function"
    },
    {
      "inputs": [],
      "name": "bidExtensionSeconds",
      "outputs": [
        {
          "internalType": "uint256",
          "name": "",
          "type": "uint256"
        }
      ],
      "stateMutability": "view",
      "type": "function"
    },
    {
      "inputs": [],
      "name": "bidExtensionWindowLengthSeconds",
      "outputs": [
        {
          "internalType": "uint256",
          "name": "",
          "type": "uint256"
        }
      ],
      "stateMutability": "view",
      "type": "function"
    },
    {
      "inputs": [
        {
          "internalType": "uint256",
          "name": "tokenId",
          "type": "uint256"
        },
        {
          "internalType": "address",
          "name": "bidder",
          "type": "address"
        }
      ],
      "name": "bidOf",
      "outputs": [
        {
          "components": [
            {
              "internalType": "address",
              "name": "bidder",
              "type": "address"
            },
            {
              "internalType": "uint256",
              "name": "bidAmount",
              "type": "uint256"
            },
            {
              "internalType": "uint256",
              "name": "feeAmount",
              "type": "uint256"
            },
            {
              "internalType": "uint256",
              "name": "collateralAmount",
              "type": "uint256"
            }
          ],
          "internalType": "struct IEnglishPeriodicAuctionInternal.Bid",
          "name": "",
          "type": "tuple"
        }
      ],
      "stateMutability": "view",
      "type": "function"
    },
    {
      "inputs": [
        {
          "internalType": "uint256",
          "name": "tokenId",
          "type": "uint256"
        },
        {
          "internalType": "uint256",
          "name": "round",
          "type": "uint256"
        },
        {
          "internalType": "address",
          "name": "bidder",
          "type": "address"
        }
      ],
      "name": "bidOf",
      "outputs": [
        {
          "components": [
            {
              "internalType": "address",
              "name": "bidder",
              "type": "address"
            },
            {
              "internalType": "uint256",
              "name": "bidAmount",
              "type": "uint256"
            },
            {
              "internalType": "uint256",
              "name": "feeAmount",
              "type": "uint256"
            },
            {
              "internalType": "uint256",
              "name": "collateralAmount",
              "type": "uint256"
            }
          ],
          "internalType": "struct IEnglishPeriodicAuctionInternal.Bid",
          "name": "",
          "type": "tuple"
        }
      ],
      "stateMutability": "view",
      "type": "function"
    },
    {
      "inputs": [
        {
          "internalType": "uint256",
          "name": "bidAmount",
          "type": "uint256"
        }
      ],
      "name": "calculateFeeFromBid",
      "outputs": [
        {
          "internalType": "uint256",
          "name": "",
          "type": "uint256"
        }
      ],
      "stateMutability": "view",
      "type": "function"
    },
    {
      "inputs": [
        {
          "internalType": "uint256",
          "name": "tokenId",
          "type": "uint256"
        }
      ],
      "name": "cancelAllBidsAndWithdrawCollateral",
      "outputs": [],
      "stateMutability": "nonpayable",
      "type": "function"
    },
    {
      "inputs": [
        {
          "internalType": "uint256",
          "name": "tokenId",
          "type": "uint256"
        },
        {
          "internalType": "uint256",
          "name": "round",
          "type": "uint256"
        }
      ],
      "name": "cancelBid",
      "outputs": [],
      "stateMutability": "nonpayable",
      "type": "function"
    },
    {
      "inputs": [
        {
          "internalType": "uint256",
          "name": "tokenId",
          "type": "uint256"
        },
        {
          "internalType": "uint256",
          "name": "round",
          "type": "uint256"
        }
      ],
      "name": "cancelBidAndWithdrawCollateral",
      "outputs": [],
      "stateMutability": "nonpayable",
      "type": "function"
    },
    {
      "inputs": [
        {
          "internalType": "uint256",
          "name": "tokenId",
          "type": "uint256"
        }
      ],
      "name": "closeAuction",
      "outputs": [],
      "stateMutability": "nonpayable",
      "type": "function"
    },
    {
      "inputs": [
        {
          "internalType": "uint256",
          "name": "tokenId",
          "type": "uint256"
        }
      ],
      "name": "currentAuctionRound",
      "outputs": [
        {
          "internalType": "uint256",
          "name": "",
          "type": "uint256"
        }
      ],
      "stateMutability": "view",
      "type": "function"
    },
    {
      "inputs": [
        {
          "internalType": "uint256",
          "name": "tokenId",
          "type": "uint256"
        },
        {
          "internalType": "uint256",
          "name": "round",
          "type": "uint256"
        }
      ],
      "name": "highestBid",
      "outputs": [
        {
          "components": [
            {
              "internalType": "address",
              "name": "bidder",
              "type": "address"
            },
            {
              "internalType": "uint256",
              "name": "bidAmount",
              "type": "uint256"
            },
            {
              "internalType": "uint256",
              "name": "feeAmount",
              "type": "uint256"
            },
            {
              "internalType": "uint256",
              "name": "collateralAmount",
              "type": "uint256"
            }
          ],
          "internalType": "struct IEnglishPeriodicAuctionInternal.Bid",
          "name": "",
          "type": "tuple"
        }
      ],
      "stateMutability": "view",
      "type": "function"
    },
    {
      "inputs": [
        {
          "internalType": "uint256",
          "name": "tokenId",
          "type": "uint256"
        }
      ],
      "name": "highestBid",
      "outputs": [
        {
          "components": [
            {
              "internalType": "address",
              "name": "bidder",
              "type": "address"
            },
            {
              "internalType": "uint256",
              "name": "bidAmount",
              "type": "uint256"
            },
            {
              "internalType": "uint256",
              "name": "feeAmount",
              "type": "uint256"
            },
            {
              "internalType": "uint256",
              "name": "collateralAmount",
              "type": "uint256"
            }
          ],
          "internalType": "struct IEnglishPeriodicAuctionInternal.Bid",
          "name": "",
          "type": "tuple"
        }
      ],
      "stateMutability": "view",
      "type": "function"
    },
    {
      "inputs": [],
      "name": "initialBidder",
      "outputs": [
        {
          "internalType": "address",
          "name": "",
          "type": "address"
        }
      ],
      "stateMutability": "view",
      "type": "function"
    },
    {
      "inputs": [],
      "name": "initialPeriodStartTime",
      "outputs": [
        {
          "internalType": "uint256",
          "name": "",
          "type": "uint256"
        }
      ],
      "stateMutability": "view",
      "type": "function"
    },
    {
      "inputs": [
        {
          "internalType": "address",
          "name": "repossessor_",
          "type": "address"
        },
        {
          "internalType": "address",
          "name": "initialBidder_",
          "type": "address"
        },
        {
          "internalType": "uint256",
          "name": "initialPeriodStartTime_",
          "type": "uint256"
        },
        {
          "internalType": "uint256",
          "name": "initialPeriodStartTimeOffset_",
          "type": "uint256"
        },
        {
          "internalType": "uint256",
          "name": "startingBid_",
          "type": "uint256"
        },
        {
          "internalType": "uint256",
          "name": "auctionLengthSeconds_",
          "type": "uint256"
        },
        {
          "internalType": "uint256",
          "name": "minBidIncrement_",
          "type": "uint256"
        },
        {
          "internalType": "uint256",
          "name": "bidExtensionWindowLengthSeconds_",
          "type": "uint256"
        },
        {
          "internalType": "uint256",
          "name": "bidExtensionSeconds_",
          "type": "uint256"
        }
      ],
      "name": "initializeAuction",
      "outputs": [],
      "stateMutability": "nonpayable",
      "type": "function"
    },
    {
      "inputs": [
        {
          "internalType": "address",
          "name": "owner_",
          "type": "address"
        },
        {
          "internalType": "address",
          "name": "repossessor_",
          "type": "address"
        },
        {
          "internalType": "address",
          "name": "initialBidder_",
          "type": "address"
        },
        {
          "internalType": "uint256",
          "name": "initialPeriodStartTime_",
          "type": "uint256"
        },
        {
          "internalType": "uint256",
          "name": "initialPeriodStartTimeOffset_",
          "type": "uint256"
        },
        {
          "internalType": "uint256",
          "name": "startingBid_",
          "type": "uint256"
        },
        {
          "internalType": "uint256",
          "name": "auctionLengthSeconds_",
          "type": "uint256"
        },
        {
          "internalType": "uint256",
          "name": "minBidIncrement_",
          "type": "uint256"
        },
        {
          "internalType": "uint256",
          "name": "bidExtensionWindowLengthSeconds_",
          "type": "uint256"
        },
        {
          "internalType": "uint256",
          "name": "bidExtensionSeconds_",
          "type": "uint256"
        }
      ],
      "name": "initializeAuction",
      "outputs": [],
      "stateMutability": "nonpayable",
      "type": "function"
    },
    {
      "inputs": [
        {
          "internalType": "uint256",
          "name": "tokenId",
          "type": "uint256"
        }
      ],
      "name": "isAuctionPeriod",
      "outputs": [
        {
          "internalType": "bool",
          "name": "",
          "type": "bool"
        }
      ],
      "stateMutability": "view",
      "type": "function"
    },
    {
      "inputs": [
        {
          "internalType": "uint256",
          "name": "tokenId",
          "type": "uint256"
        }
      ],
      "name": "isReadyForTransfer",
      "outputs": [
        {
          "internalType": "bool",
          "name": "",
          "type": "bool"
        }
      ],
      "stateMutability": "view",
      "type": "function"
    },
    {
      "inputs": [
        {
          "internalType": "uint256",
          "name": "tokenId",
          "type": "uint256"
        },
        {
          "internalType": "address",
          "name": "bidder",
          "type": "address"
        }
      ],
      "name": "lockedCollateral",
      "outputs": [
        {
          "internalType": "uint256",
          "name": "",
          "type": "uint256"
        }
      ],
      "stateMutability": "view",
      "type": "function"
    },
    {
      "inputs": [],
      "name": "minBidIncrement",
      "outputs": [
        {
          "internalType": "uint256",
          "name": "",
          "type": "uint256"
        }
      ],
      "stateMutability": "view",
      "type": "function"
    },
    {
      "inputs": [
        {
          "internalType": "uint256",
          "name": "tokenId",
          "type": "uint256"
        },
        {
          "internalType": "uint256",
          "name": "bidAmount",
          "type": "uint256"
        }
      ],
      "name": "placeBid",
      "outputs": [],
      "stateMutability": "payable",
      "type": "function"
    },
    {
      "inputs": [],
      "name": "repossessor",
      "outputs": [
        {
          "internalType": "address",
          "name": "",
          "type": "address"
        }
      ],
      "stateMutability": "view",
      "type": "function"
    },
    {
      "inputs": [
        {
          "internalType": "uint256",
          "name": "auctionLengthSeconds_",
          "type": "uint256"
        }
      ],
      "name": "setAuctionLengthSeconds",
      "outputs": [],
      "stateMutability": "nonpayable",
      "type": "function"
    },
    {
      "inputs": [
        {
          "internalType": "address",
          "name": "repossessor_",
          "type": "address"
        },
        {
          "internalType": "uint256",
          "name": "auctionLengthSeconds_",
          "type": "uint256"
        },
        {
          "internalType": "uint256",
          "name": "minBidIncrement_",
          "type": "uint256"
        },
        {
          "internalType": "uint256",
          "name": "bidExtensionWindowLengthSeconds_",
          "type": "uint256"
        },
        {
          "internalType": "uint256",
          "name": "bidExtensionSeconds_",
          "type": "uint256"
        },
        {
          "internalType": "uint256",
          "name": "startingBid_",
          "type": "uint256"
        }
      ],
      "name": "setAuctionParameters",
      "outputs": [],
      "stateMutability": "nonpayable",
      "type": "function"
    },
    {
      "inputs": [
        {
          "internalType": "uint256",
          "name": "bidExtensionSeconds_",
          "type": "uint256"
        }
      ],
      "name": "setBidExtensionSeconds",
      "outputs": [],
      "stateMutability": "nonpayable",
      "type": "function"
    },
    {
      "inputs": [
        {
          "internalType": "uint256",
          "name": "bidExtensionWindowLengthSeconds_",
          "type": "uint256"
        }
      ],
      "name": "setBidExtensionWindowLengthSeconds",
      "outputs": [],
      "stateMutability": "nonpayable",
      "type": "function"
    },
    {
      "inputs": [
        {
          "internalType": "uint256",
          "name": "minBidIncrement_",
          "type": "uint256"
        }
      ],
      "name": "setMinBidIncrement",
      "outputs": [],
      "stateMutability": "nonpayable",
      "type": "function"
    },
    {
      "inputs": [
        {
          "internalType": "address",
          "name": "repossessor_",
          "type": "address"
        }
      ],
      "name": "setRepossessor",
      "outputs": [],
      "stateMutability": "nonpayable",
      "type": "function"
    },
    {
      "inputs": [
        {
          "internalType": "uint256",
          "name": "startingBid_",
          "type": "uint256"
        }
      ],
      "name": "setStartingBid",
      "outputs": [],
      "stateMutability": "nonpayable",
      "type": "function"
    },
    {
      "inputs": [],
      "name": "startingBid",
      "outputs": [
        {
          "internalType": "uint256",
          "name": "",
          "type": "uint256"
        }
      ],
      "stateMutability": "view",
      "type": "function"
    },
    {
      "inputs": [],
      "name": "withdrawCollateral",
      "outputs": [],
      "stateMutability": "nonpayable",
      "type": "function"
    }
  ],
  "transactionHash": "0x72e421cc9ae7c24b6991db377b6b945345d4d4bd67624592bf0a9a6df8c9dab2",
  "args": [],
  "numDeployments": 21,
  "solcInputHash": "4d1a131ade7d531f20f9db4f4cb05ba8",
  "bytecode": "0x608060405234801561001057600080fd5b50612b66806100206000396000f3fe6080604052600436106102045760003560e01c806359c153be11610118578063b14c63c5116100a0578063c3bab6461161006f578063c3bab646146105e1578063d529acd6146105f6578063dba85ccb14610616578063df1a65d514610636578063df6ba5c61461065657600080fd5b8063b14c63c514610582578063b9fdd569146105a2578063be6a2a6d146105b7578063bff82198146105cc57600080fd5b80636bf78d0d116100e75780636bf78d0d146104dd57806371c65bde146104fd578063777de70414610512578063868c546614610532578063a7c12c111461055257600080fd5b806359c153be146104685780635cacd7fa1461047d578063609e46fb1461049d57806361a7a226146104bd57600080fd5b8063335b115e1161019b5780633882ce8e1161016a5780633882ce8e146103d35780634b3936051461040057806355cc19ea1461042057806355ee09d71461043557806357c90de51461045557600080fd5b8063335b115e1461035e5780633553374414610373578063358498a314610393578063376a0698146103b357600080fd5b8063236ed8f3116101d7578063236ed8f3146102d057806324db4190146102f057806328e05bf11461031057806333465c5f1461033057600080fd5b80630556e9b914610209578063077bbc6d1461022b5780630842a0b21461024b57806317a6836a146102b0575b600080fd5b34801561021557600080fd5b506102296102243660046126b9565b610676565b005b34801561023757600080fd5b506102296102463660046126e7565b61069b565b34801561025757600080fd5b5061026b61026636600461275c565b6106f7565b6040516102a7919081516001600160a01b0316815260208083015190820152604080830151908201526060918201519181019190915260800190565b60405180910390f35b3480156102bc57600080fd5b506102296102cb36600461277e565b61074a565b3480156102dc57600080fd5b506102296102eb3660046126b9565b610779565b3480156102fc57600080fd5b5061022961030b3660046127ca565b6107ee565b34801561031c57600080fd5b5061026b61032b3660046127e7565b61080f565b34801561033c57600080fd5b5061035061034b3660046126b9565b61082a565b6040519081526020016102a7565b34801561036a57600080fd5b50610350610835565b34801561037f57600080fd5b5061035061038e3660046126b9565b610844565b34801561039f57600080fd5b506102296103ae366004612817565b61084f565b3480156103bf57600080fd5b5061026b6103ce3660046128a1565b6108cd565b3480156103df57600080fd5b506103e8610920565b6040516001600160a01b0390911681526020016102a7565b34801561040c57600080fd5b5061022961041b36600461275c565b61092a565b34801561042c57600080fd5b50610350610935565b34801561044157600080fd5b506102296104503660046126b9565b61093f565b61022961046336600461275c565b610960565b34801561047457600080fd5b50610229610b34565b34801561048957600080fd5b506103506104983660046127e7565b610b3f565b3480156104a957600080fd5b506102296104b83660046126b9565b610b52565b3480156104c957600080fd5b506102296104d83660046126b9565b610b73565b3480156104e957600080fd5b506102296104f83660046126b9565b610b94565b34801561050957600080fd5b506103e8610ba7565b34801561051e57600080fd5b5061035061052d3660046126b9565b610bb1565b34801561053e57600080fd5b5061035061054d3660046126b9565b610bbc565b34801561055e57600080fd5b5061057261056d3660046126b9565b610bc7565b60405190151581526020016102a7565b34801561058e57600080fd5b5061026b61059d3660046126b9565b610bd2565b3480156105ae57600080fd5b50610350610c2a565b3480156105c357600080fd5b50610350610c34565b3480156105d857600080fd5b50610350610c3e565b3480156105ed57600080fd5b50610350610c48565b34801561060257600080fd5b506103506106113660046127ca565b610c52565b34801561062257600080fd5b506102296106313660046126b9565b610c5d565b34801561064257600080fd5b5061022961065136600461275c565b610c7e565b34801561066257600080fd5b506105726106713660046126b9565b610c92565b600080516020612b1183398151915261068e81610c9d565b61069782610ca7565b5050565b6106a3610ceb565b156106c95760405162461bcd60e51b81526004016106c0906128da565b60405180910390fd5b6106db631094e47960e11b6001610cfe565b6106ec898989898989898989610d74565b505050505050505050565b6106ff612688565b6107098383610de6565b6040805160808101825282546001600160a01b0316815260018301546020820152600283015491810191909152600390910154606082015290505b92915050565b600080516020612b1183398151915261076281610c9d565b610770878787878787610e0e565b50505050505050565b61078281610e4c565b6107e25760405162461bcd60e51b815260206004820152602b60248201527f456e676c697368506572696f64696341756374696f6e3a2061756374696f6e2060448201526a34b9903737ba1037bb32b960a91b60648201526084016106c0565b6107eb81610ed0565b50565b600080516020612b1183398151915261080681610c9d565b610697826113df565b610817612688565b6107098361082485611437565b84611455565b600061074482611492565b600061083f611546565b905090565b600061074482611437565b610857610ceb565b156108745760405162461bcd60e51b81526004016106c0906128da565b610886631094e47960e11b6001610cfe565b61089863aba4f05160e01b6001610cfe565b6108b0600080516020612b118339815191528b611559565b6108c1898989898989898989610d74565b50505050505050505050565b6108d5612688565b6108e0848484611455565b6040805160808101825282546001600160a01b03168152600183015460208201526002830154918101919091526003909101546060820152949350505050565b600061083f6115cd565b6106978282336115eb565b600061083f61184e565b600080516020612b1183398151915261095781610c9d565b61069782611861565b6109698261189e565b6109db5760405162461bcd60e51b815260206004820152603c60248201527f456e676c697368506572696f64696341756374696f6e3a2063616e206f6e6c7960448201527f20706c6163652062696420696e2061756374696f6e20706572696f640000000060648201526084016106c0565b6109e482610e4c565b15610a575760405162461bcd60e51b815260206004820152603d60248201527f456e676c697368506572696f64696341756374696f6e3a2061756374696f6e2060448201527f6973206f76657220616e64206177616974696e67207472616e7366657200000060648201526084016106c0565b60405163babcc53960e01b8152336004820152309063babcc53990602401602060405180830381865afa158015610a92573d6000803e3d6000fd5b505050506040513d601f19601f82011682018060405250810190610ab6919061292a565b610b285760405162461bcd60e51b815260206004820152603a60248201527f456e676c697368506572696f64696341756374696f6e3a2073656e646572206960448201527f73206e6f7420616c6c6f77656420746f20706c6163652062696400000000000060648201526084016106c0565b61069782338334611919565b610b3d33611eab565b565b6000610b4b8383612010565b9392505050565b600080516020612b11833981519152610b6a81610c9d565b61069782612093565b600080516020612b11833981519152610b8b81610c9d565b610697826120d0565b610b9e813361210d565b6107eb33611eab565b600061083f6121bf565b6000610744826121db565b60006107448261223f565b60006107448261189e565b610bda612688565b610bec82610be784611437565b610de6565b6040805160808101825282546001600160a01b0316815260018301546020820152600283015491810191909152600390910154606082015292915050565b600061083f612321565b600061083f612334565b600061083f612347565b600061083f61235a565b60006107448261236d565b600080516020612b11833981519152610c7581610c9d565b61069782612399565b610c898282336115eb565b61069733611eab565b600061074482610e4c565b6107eb81336123d6565b80610cb0612438565b600101556040518181527f1063dc5e6f2d1c9d1cdcddf0f8ce9f8984ff1afd2df93f864e28056f5da6b01c906020015b60405180910390a150565b6000610cf5612438565b5460ff16919050565b6001600160e01b03198083169003610d295760405163b0a19dd560e01b815260040160405180910390fd5b6001600160e01b03199190911660009081527ffc606c433378e3a7e0a6a531deac289b66caa1b4aa8554fd4ab2c6f1570f92d860205260409020805460ff1916911515919091179055565b6000610d7e612438565b80546001600160a01b038b16610100026001600160a81b031990911617600117815560048101889055600381018990559050610db986610ca7565b610dc28a6113df565b610dcb856120d0565b610dd484611861565b610ddd83612399565b6108c182612093565b6000610df0612438565b6000938452600f016020908152604080852093855292905250902090565b610e17866113df565b610e20856120d0565b610e2984611861565b610e3283612399565b610e3b82612093565b610e4481610ca7565b505050505050565b6000306001600160a01b031663c4e627c26040518163ffffffff1660e01b8152600401602060405180830381865afa158015610e8c573d6000803e3d6000fd5b505050506040513d601f19601f82011682018060405250810190610eb0919061294c565b8210610ebe57506000919050565b610ec7826121db565b42101592915050565b6000610eda612438565b6000838152600c82016020526040808220549051634f558e7960e01b815260048101869052929350913090634f558e7990602401602060405180830381865afa158015610f2b573d6000803e3d6000fd5b505050506040513d601f19601f82011682018060405250810190610f4f919061292a565b15610fbb576040516331a9108f60e11b8152600481018590523090636352211e90602401602060405180830381865afa158015610f90573d6000803e3d6000fd5b505050506040513d601f19601f82011682018060405250810190610fb49190612965565b9050610fcd565b50815461010090046001600160a01b03165b6000306001600160a01b031663fd8e6f286040518163ffffffff1660e01b8152600401602060405180830381865afa15801561100d573d6000803e3d6000fd5b505050506040513d601f19601f82011682018060405250810190611031919061294c565b6000868152600a860160209081526040808320429055600b88018252808320849055600f880182528083208784529091529020549091506001600160a01b0316611113576000858152600e8501602090815260408083208684528252808320600280890180546001600160a01b039081168752928552838620600180820188815582850189815560038085018b81559554855498166001600160a01b031998891681179095558f8b52600f8f018a52888b208e8c5290995296909820805490951690911784559554958301959095559154918101919091559154910155611225565b6000858152600f8501602090815260408083208684529091529020546001600160a01b038381169116146111da576000858152600f8501602090815260408083208684528252808320600101546001600160a01b0386168452601088019092528220805491929091611186908490612998565b90915550506000858152600f85016020908152604080832086845282528083206003808201859055898552600e89018452828520888652845282852091546001600160a01b03168552925282200155611225565b6000858152600f85016020908152604080832086845282528083206003908101849055888452600e8801835281842087855283528184206001600160a01b0387168552909252822001555b6000858152600f850160209081526040808320868452825291829020805460019091015483516001600160a01b03878116825293810191909152911691859188917fdae3b66c823bbdbd53155f9bb3e7693f818e957f816fe910b303fdbe7fa37dab910160405180910390a46000858152600d850160209081526040808320839055600c87019091529020546112bc906001612998565b6000868152600c86016020908152604080832093909355600f87018152828220868352905281902054905163e31a7c0160e01b81526001600160a01b038085166004830152909116602482015260448101869052309063e31a7c0190606401600060405180830381600087803b15801561133557600080fd5b505af1158015611349573d6000803e3d6000fd5b5050506000868152600f8601602090815260408083208784529091529020600201541590506113d8576000858152600f85016020908152604080832086845290915280822060020154815163e4fc6b6d60e01b81529151309363e4fc6b6d936004808201939182900301818588803b1580156113c457600080fd5b505af11580156108c1573d6000803e3d6000fd5b5050505050565b806113e8612438565b60020180546001600160a01b0319166001600160a01b0392831617905560405190821681527f03bb52851d1b668acbe31ec6258d6de44a14c1dc0d9db84ab95e8071f5aa989d90602001610ce0565b6000611441612438565b6000928352600c0160205250604090205490565b600061145f612438565b6000948552600e01602090815260408086209486529381528385206001600160a01b039390931685529190915250902090565b60008061149d612438565b6000848152600982016020526040812054919250908190156114d25750506000838152600982016020526040812054906114df565b5050600381015460048201545b6000858152600a84016020526040902054821015611527576000858152600b84016020908152604080832054600a8701909252909120546115209190612998565b935061153e565b61153181866129ab565b61153b9083612998565b93505b505050919050565b6000611550612438565b60060154905090565b60008281527fd3889cc5458b268d0544e5534672df1296288ca3f93cbd39bd6f497a5c62281160205260409020611590908261245c565b5060405133906001600160a01b0383169084907f2f8788117e7eff1d82e926ec794901d17c78024a50270940304540a733656f0d90600090a45050565b60006115d7612438565b5461010090046001600160a01b0316919050565b60006115f5612438565b604051634f558e7960e01b8152600481018690529091506000903090634f558e7990602401602060405180830381865afa158015611637573d6000803e3d6000fd5b505050506040513d601f19601f8201168201806040525081019061165b919061292a565b156116c7576040516331a9108f60e11b8152600481018690523090636352211e90602401602060405180830381865afa15801561169c573d6000803e3d6000fd5b505050506040513d601f19601f820116820180604052508101906116c09190612965565b90506116d9565b50805461010090046001600160a01b03165b6000858152600f8301602090815260408083208784529091529020546001600160a01b03908116908416036117765760405162461bcd60e51b815260206004820152603b60248201527f456e676c697368506572696f64696341756374696f6e3a2043616e6e6f74206360448201527f616e63656c20626964206966206869676865737420626964646572000000000060648201526084016106c0565b6000858152600e83016020908152604080832087845282528083206001600160a01b0387168452909152902060038101546118045760405162461bcd60e51b815260206004820152602860248201527f456e676c697368506572696f64696341756374696f6e3a204e6f2062696420746044820152671bc818d85b98d95b60c21b60648201526084016106c0565b60038101546001600160a01b038516600090815260108501602052604081208054909190611833908490612998565b90915550506000600382018190556001909101555050505050565b6000611858612438565b60070154905090565b8061186a612438565b600601556040518181527f8092df692524f6b78c4746150cae83effcfd6b470cc0038f09a603d42a32388e90602001610ce0565b6000306001600160a01b031663c4e627c26040518163ffffffff1660e01b8152600401602060405180830381865afa1580156118de573d6000803e3d6000fd5b505050506040513d601f19601f82011682018060405250810190611902919061294c565b821061191057506000919050565b610ec782611492565b6000611923612438565b6000868152600c82016020908152604080832054600e8501835281842081855283528184206001600160a01b038a168552909252909120600183015492935090918510156119f25760405162461bcd60e51b815260206004820152605060248201527f456e676c697368506572696f64696341756374696f6e3a2042696420616d6f7560448201527f6e74206d7573742062652067726561746572207468616e206f7220657175616c60648201526f081d1bc81cdd185c9d1a5b99c8189a5960821b608482015260a4016106c0565b6000878152600f84016020908152604080832085845290915290206001015415611ad15760068301546000888152600f850160209081526040808320868452909152902060010154611a449190612998565b851015611ad15760405162461bcd60e51b815260206004820152604f60248201527f456e676c697368506572696f64696341756374696f6e3a2042696420616d6f7560448201527f6e74206d7573742062652067726561746572207468616e20686967686573742060648201526e1bdd5d1cdd185b991a5b99c8189a59608a1b608482015260a4016106c0565b6000848260030154611ae39190612998565b604051634f558e7960e01b8152600481018a905290915060009081903090634f558e7990602401602060405180830381865afa158015611b27573d6000803e3d6000fd5b505050506040513d601f19601f82011682018060405250810190611b4b919061292a565b15611bb7576040516331a9108f60e11b8152600481018b90523090636352211e90602401602060405180830381865afa158015611b8c573d6000803e3d6000fd5b505050506040513d601f19601f82011682018060405250810190611bb09190612965565b9050611bc9565b50845461010090046001600160a01b03165b806001600160a01b0316896001600160a01b031603611bea57829150611c78565b878311611c6b5760405162461bcd60e51b815260206004820152604360248201527f456e676c697368506572696f64696341756374696f6e3a20436f6c6c6174657260448201527f616c206d7573742062652067726561746572207468616e2063757272656e7420606482015262189a5960ea1b608482015260a4016106c0565b611c7588846129ca565b91505b611c828883612471565b611ce35760405162461bcd60e51b815260206004820152602c60248201527f456e676c697368506572696f64696341756374696f6e3a20496e636f7272656360448201526b1d08189a5908185b5bdd5b9d60a21b60648201526084016106c0565b888460000160006101000a8154816001600160a01b0302191690836001600160a01b031602179055508784600101819055508184600201819055508284600301819055508386600f0160008c815260200190815260200160002060008781526020019081526020016000206000820160009054906101000a90046001600160a01b03168160000160006101000a8154816001600160a01b0302191690836001600160a01b031602179055506001820154816001015560028201548160020155600382015481600301559050508360000160009054906101000a90046001600160a01b03166001600160a01b0316858b7f6f7e354ea3ab5c288aea37fce29c603f9a98a3b040f6d8f32f10e192ec47ff6a8760010154604051611e0791815260200190565b60405180910390a46000611e1a8b6121db565b9050428110158015611e3b5750611e2f61184e565b611e3942836129ca565b105b15611e9e5760008b8152600d880160205260408120548103611e6657611e5f61235a565b9050611e79565b5060008b8152600d880160205260409020545b611e81612347565b611e8b9082612998565b60008d8152600d8a016020526040902055505b5050505050505050505050565b6000611eb5612438565b6001600160a01b038316600090815260108201602052604090205490915080611f3a5760405162461bcd60e51b815260206004820152603160248201527f456e676c697368506572696f64696341756374696f6e3a204e6f20636f6c6c61604482015270746572616c20746f20776974686472617760781b60648201526084016106c0565b6001600160a01b03831660008181526010840160205260408082208290555190919083908381818185875af1925050503d8060008114611f96576040519150601f19603f3d011682016040523d82523d6000602084013e611f9b565b606091505b505090508061200a5760405162461bcd60e51b815260206004820152603560248201527f456e676c697368506572696f64696341756374696f6e3a204661696c656420746044820152741bc81dda5d1a191c985dc818dbdb1b185d195c985b605a1b60648201526084016106c0565b50505050565b60008061201b612438565b6000858152600c82016020526040812054919250805b828111612089576000878152600e85016020908152604080832084845282528083206001600160a01b038a168452909152902060038101546120739084612998565b9250508080612081906129dd565b915050612031565b5095945050505050565b8061209c612438565b600801556040518181527f33178f49ae33ce72b1c9e38d72f4ae326b490e4e7c9e02b8735a9ceacf770dee90602001610ce0565b806120d9612438565b600501556040518181527f99578d7fe3e20e279feceaa076eb8032d475ca1a49391ec0a740445152a5971390602001610ce0565b6000612117612438565b6000848152600c820160205260408120549192505b8181116113d8576000858152600e84016020908152604080832084845282528083206001600160a01b038816845290915290206003810154156121ac5760038101546001600160a01b038616600090815260108601602052604081208054909190612198908490612998565b909155505060006003820181905560018201555b50806121b7816129dd565b91505061212c565b60006121c9612438565b600201546001600160a01b0316919050565b6000806121e6612438565b6000848152600d820160205260408120549192509081036122105761220961235a565b9050612223565b506000838152600d820160205260409020545b8061222d85611492565b6122379190612998565b949350505050565b600080306001600160a01b031663e86dea4a6040518163ffffffff1660e01b8152600401602060405180830381865afa158015612280573d6000803e3d6000fd5b505050506040513d601f19601f820116820180604052508101906122a4919061294c565b90506000306001600160a01b031663180b0d7e6040518163ffffffff1660e01b8152600401602060405180830381865afa1580156122e6573d6000803e3d6000fd5b505050506040513d601f19601f8201168201806040525081019061230a919061294c565b90508061231783866129ab565b61223791906129f6565b600061232b612438565b60010154905090565b600061233e612438565b60030154905090565b6000612351612438565b60080154905090565b6000612364612438565b60050154905090565b6000612377612438565b6001600160a01b03909216600090815260109290920160205250604090205490565b806123a2612438565b600701556040518181527f19ba737fa8db769049b6dafc98d3391bdead47e7f6617113c775efbed1efc6f990602001610ce0565b6123e08282612487565b610697576123f6816001600160a01b03166124e0565b6124018360206124f2565b604051602001612412929190612a3c565b60408051601f198184030181529082905262461bcd60e51b82526106c091600401612ab1565b7fc7ed1b841b2d3c7f16d15642e7b013e89732e44006608d59c7547b8e331a7ce090565b6000610b4b836001600160a01b038416612645565b60008061247d8461223f565b9092149392505050565b6000610b4b827fd3889cc5458b268d0544e5534672df1296288ca3f93cbd39bd6f497a5c622811600086815260209190915260409020906001600160a01b03811660009081526001830160205260408120541515610b4b565b60606107446001600160a01b03831660145b606060006125018360026129ab565b61250c906002612998565b67ffffffffffffffff81111561252457612524612ae4565b6040519080825280601f01601f19166020018201604052801561254e576020820181803683370190505b509050600360fc1b8160008151811061256957612569612afa565b60200101906001600160f81b031916908160001a905350600f60fb1b8160018151811061259857612598612afa565b60200101906001600160f81b031916908160001a905350600160028402015b6001811115612625576f181899199a1a9b1b9c1cb0b131b232b360811b85600f16601081106125e8576125e8612afa565b1a60f81b8282815181106125fe576125fe612afa565b60200101906001600160f81b031916908160001a90535060049490941c93600019016125b7565b508315610b4b5760405163c913478560e01b815260040160405180910390fd5b6000818152600183016020526040812054610744575081546001808201845560008481526020808220909301849055845493815293810190915260409092205590565b604051806080016040528060006001600160a01b031681526020016000815260200160008152602001600081525090565b6000602082840312156126cb57600080fd5b5035919050565b6001600160a01b03811681146107eb57600080fd5b60008060008060008060008060006101208a8c03121561270657600080fd5b8935612711816126d2565b985060208a0135612721816126d2565b989b989a505050506040870135966060810135966080820135965060a0820135955060c0820135945060e08201359350610100909101359150565b6000806040838503121561276f57600080fd5b50508035926020909101359150565b60008060008060008060c0878903121561279757600080fd5b86356127a2816126d2565b9860208801359850604088013597606081013597506080810135965060a00135945092505050565b6000602082840312156127dc57600080fd5b8135610b4b816126d2565b600080604083850312156127fa57600080fd5b82359150602083013561280c816126d2565b809150509250929050565b6000806000806000806000806000806101408b8d03121561283757600080fd5b8a35612842816126d2565b995060208b0135612852816126d2565b985060408b0135612862816126d2565b999c989b5098996060810135995060808101359860a0820135985060c0820135975060e082013596506101008201359550610120909101359350915050565b6000806000606084860312156128b657600080fd5b833592506020840135915060408401356128cf816126d2565b809150509250925092565b60208082526030908201527f456e676c697368506572696f64696341756374696f6e46616365743a20616c7260408201526f1958591e481a5b9a5d1a585b1a5e995960821b606082015260800190565b60006020828403121561293c57600080fd5b81518015158114610b4b57600080fd5b60006020828403121561295e57600080fd5b5051919050565b60006020828403121561297757600080fd5b8151610b4b816126d2565b634e487b7160e01b600052601160045260246000fd5b8082018082111561074457610744612982565b60008160001904831182151516156129c5576129c5612982565b500290565b8181038181111561074457610744612982565b6000600182016129ef576129ef612982565b5060010190565b600082612a1357634e487b7160e01b600052601260045260246000fd5b500490565b60005b83811015612a33578181015183820152602001612a1b565b50506000910152565b7f416363657373436f6e74726f6c3a206163636f756e7420000000000000000000815260008351612a74816017850160208801612a18565b7001034b99036b4b9b9b4b733903937b6329607d1b6017918401918201528351612aa5816028840160208801612a18565b01602801949350505050565b6020815260008251806020840152612ad0816040850160208701612a18565b601f01601f19169190910160400192915050565b634e487b7160e01b600052604160045260246000fd5b634e487b7160e01b600052603260045260246000fdfe27d47e2aa570d0f5aa1d72abbe4d60032a12e3514b8c2bc8a49a9968779054c2a2646970667358221220f6458c6dcbe85f19bc007c824eb4c07dff1137c90f0b9376c6b7392ba1b8267264736f6c63430008100033",
  "devdoc": {
    "kind": "dev",
    "methods": {},
    "title": "EnglishPeriodicAuctionFacet",
    "version": 1
  },
  "userdoc": {
    "kind": "user",
    "methods": {
      "auctionEndTime(uint256)": {
        "notice": "Get auction end time"
      },
      "auctionLengthSeconds()": {
        "notice": "Get auction length"
      },
      "auctionStartTime(uint256)": {
        "notice": "Get auction start time"
      },
      "availableCollateral(address)": {
        "notice": "Get available collateral"
      },
      "bidExtensionSeconds()": {
        "notice": "Get bid extension seconds"
      },
      "bidExtensionWindowLengthSeconds()": {
        "notice": "Get bid extension window length"
      },
      "bidOf(uint256,address)": {
        "notice": "Get bid for address"
      },
      "bidOf(uint256,uint256,address)": {
        "notice": "Get bid for address for particular round"
      },
      "calculateFeeFromBid(uint256)": {
        "notice": "Calculate fee from bid"
      },
      "cancelAllBidsAndWithdrawCollateral(uint256)": {
        "notice": "Cancel all bids and withdraw collateral"
      },
      "cancelBid(uint256,uint256)": {
        "notice": "Cancel bid for current round"
      },
      "cancelBidAndWithdrawCollateral(uint256,uint256)": {
        "notice": "Cancel bid for current round and withdraw collateral"
      },
      "closeAuction(uint256)": {
        "notice": "Close auction and trigger a transfer to the highest bidder"
      },
      "currentAuctionRound(uint256)": {
        "notice": "Get current auction round"
      },
      "highestBid(uint256)": {
        "notice": "Get highest outstanding bid"
      },
      "highestBid(uint256,uint256)": {
        "notice": "Get highest outstanding bid for a particular round"
      },
      "initialBidder()": {
        "notice": "Get initial bidder"
      },
      "initialPeriodStartTime()": {
        "notice": "Get initial period start time"
      },
      "initializeAuction(address,address,address,uint256,uint256,uint256,uint256,uint256,uint256,uint256)": {
        "notice": "Initialize auction parameters with owner"
      },
      "initializeAuction(address,address,uint256,uint256,uint256,uint256,uint256,uint256,uint256)": {
        "notice": "Initialize auction parameters"
      },
      "isAuctionPeriod(uint256)": {
        "notice": "Get is auction period"
      },
      "isReadyForTransfer(uint256)": {
        "notice": "Is token ready for transfer"
      },
      "lockedCollateral(uint256,address)": {
        "notice": "Get locked collateral from all bids"
      },
      "minBidIncrement()": {
        "notice": "Get minimum bid increment"
      },
      "placeBid(uint256,uint256)": {
        "notice": "Place a bid"
      },
      "repossessor()": {
        "notice": "Get repossessor"
      },
      "setAuctionLengthSeconds(uint256)": {
        "notice": "Set auction length"
      },
      "setAuctionParameters(address,uint256,uint256,uint256,uint256,uint256)": {
        "notice": "Set auction parameters"
      },
      "setBidExtensionSeconds(uint256)": {
        "notice": "Set bid extension seconds"
      },
      "setBidExtensionWindowLengthSeconds(uint256)": {
        "notice": "Set bid extension window length"
      },
      "setMinBidIncrement(uint256)": {
        "notice": "Set minimum bid increment"
      },
      "setRepossessor(address)": {
        "notice": "Set repossessor"
      },
      "setStartingBid(uint256)": {
        "notice": "Set starting bid"
      },
      "startingBid()": {
        "notice": "Get starting bid"
      },
      "withdrawCollateral()": {
        "notice": "Withdraw collateral"
      }
    },
    "version": 1
  },
  "storageLayout": {
    "storage": [],
    "types": null
  }
}