{
  "address": "0xA07DA5b6358B14629F27e6C7893a03CB1551C269",
  "abi": [
    {
      "inputs": [],
      "name": "ERC165Base__InvalidInterfaceId",
      "type": "error"
    },
    {
      "inputs": [],
      "name": "UintUtils__InsufficientHexLength",
      "type": "error"
    },
    {
      "anonymous": false,
      "inputs": [
        {
          "indexed": true,
          "internalType": "uint256",
          "name": "tokenId",
          "type": "uint256"
        },
        {
          "indexed": true,
          "internalType": "uint256",
          "name": "round",
          "type": "uint256"
        },
        {
          "indexed": true,
          "internalType": "address",
          "name": "winningBidder",
          "type": "address"
        },
        {
          "indexed": false,
          "internalType": "address",
          "name": "previousOwner",
          "type": "address"
        },
        {
          "indexed": false,
          "internalType": "uint256",
          "name": "bidAmount",
          "type": "uint256"
        }
      ],
      "name": "AuctionClosed",
      "type": "event"
    },
    {
      "anonymous": false,
      "inputs": [
        {
          "indexed": false,
          "internalType": "uint256",
          "name": "auctionLengthSeconds",
          "type": "uint256"
        }
      ],
      "name": "AuctionLengthSet",
      "type": "event"
    },
    {
      "anonymous": false,
      "inputs": [
        {
          "indexed": false,
          "internalType": "uint256",
          "name": "bidExtensionSeconds",
          "type": "uint256"
        }
      ],
      "name": "BidExtensionSet",
      "type": "event"
    },
    {
      "anonymous": false,
      "inputs": [
        {
          "indexed": false,
          "internalType": "uint256",
          "name": "bidExtensionWindowLengthSeconds",
          "type": "uint256"
        }
      ],
      "name": "BidExtensionWindowLengthSet",
      "type": "event"
    },
    {
      "anonymous": false,
      "inputs": [
        {
          "indexed": true,
          "internalType": "uint256",
          "name": "tokenId",
          "type": "uint256"
        },
        {
          "indexed": true,
          "internalType": "uint256",
          "name": "round",
          "type": "uint256"
        },
        {
          "indexed": true,
          "internalType": "address",
          "name": "bidder",
          "type": "address"
        },
        {
          "indexed": false,
          "internalType": "uint256",
          "name": "bidAmount",
          "type": "uint256"
        }
      ],
      "name": "BidPlaced",
      "type": "event"
    },
    {
      "anonymous": false,
      "inputs": [
        {
          "indexed": false,
          "internalType": "uint256",
          "name": "initialPeriodStartTime",
          "type": "uint256"
        }
      ],
      "name": "InitialPeriodStartTimeSet",
      "type": "event"
    },
    {
      "anonymous": false,
      "inputs": [
        {
          "indexed": false,
          "internalType": "uint256",
          "name": "minBidIncrement",
          "type": "uint256"
        }
      ],
      "name": "MinBidIncrementSet",
      "type": "event"
    },
    {
      "anonymous": false,
      "inputs": [
        {
          "indexed": false,
          "internalType": "address",
          "name": "repossessor",
          "type": "address"
        }
      ],
      "name": "RepossessorSet",
      "type": "event"
    },
    {
      "anonymous": false,
      "inputs": [
        {
          "indexed": true,
          "internalType": "bytes32",
          "name": "role",
          "type": "bytes32"
        },
        {
          "indexed": true,
          "internalType": "bytes32",
          "name": "previousAdminRole",
          "type": "bytes32"
        },
        {
          "indexed": true,
          "internalType": "bytes32",
          "name": "newAdminRole",
          "type": "bytes32"
        }
      ],
      "name": "RoleAdminChanged",
      "type": "event"
    },
    {
      "anonymous": false,
      "inputs": [
        {
          "indexed": true,
          "internalType": "bytes32",
          "name": "role",
          "type": "bytes32"
        },
        {
          "indexed": true,
          "internalType": "address",
          "name": "account",
          "type": "address"
        },
        {
          "indexed": true,
          "internalType": "address",
          "name": "sender",
          "type": "address"
        }
      ],
      "name": "RoleGranted",
      "type": "event"
    },
    {
      "anonymous": false,
      "inputs": [
        {
          "indexed": true,
          "internalType": "bytes32",
          "name": "role",
          "type": "bytes32"
        },
        {
          "indexed": true,
          "internalType": "address",
          "name": "account",
          "type": "address"
        },
        {
          "indexed": true,
          "internalType": "address",
          "name": "sender",
          "type": "address"
        }
      ],
      "name": "RoleRevoked",
      "type": "event"
    },
    {
      "anonymous": false,
      "inputs": [
        {
          "indexed": false,
          "internalType": "uint256",
          "name": "startingBid",
          "type": "uint256"
        }
      ],
      "name": "StartingBidSet",
      "type": "event"
    },
    {
      "inputs": [
        {
          "internalType": "uint256",
          "name": "tokenId",
          "type": "uint256"
        }
      ],
      "name": "auctionEndTime",
      "outputs": [
        {
          "internalType": "uint256",
          "name": "",
          "type": "uint256"
        }
      ],
      "stateMutability": "view",
      "type": "function"
    },
    {
      "inputs": [],
      "name": "auctionLengthSeconds",
      "outputs": [
        {
          "internalType": "uint256",
          "name": "",
          "type": "uint256"
        }
      ],
      "stateMutability": "view",
      "type": "function"
    },
    {
      "inputs": [
        {
          "internalType": "uint256",
          "name": "tokenId",
          "type": "uint256"
        }
      ],
      "name": "auctionStartTime",
      "outputs": [
        {
          "internalType": "uint256",
          "name": "",
          "type": "uint256"
        }
      ],
      "stateMutability": "view",
      "type": "function"
    },
    {
      "inputs": [
        {
          "internalType": "address",
          "name": "bidder",
          "type": "address"
        }
      ],
      "name": "availableCollateral",
      "outputs": [
        {
          "internalType": "uint256",
          "name": "",
          "type": "uint256"
        }
      ],
      "stateMutability": "view",
      "type": "function"
    },
    {
      "inputs": [],
      "name": "bidExtensionSeconds",
      "outputs": [
        {
          "internalType": "uint256",
          "name": "",
          "type": "uint256"
        }
      ],
      "stateMutability": "view",
      "type": "function"
    },
    {
      "inputs": [],
      "name": "bidExtensionWindowLengthSeconds",
      "outputs": [
        {
          "internalType": "uint256",
          "name": "",
          "type": "uint256"
        }
      ],
      "stateMutability": "view",
      "type": "function"
    },
    {
      "inputs": [
        {
          "internalType": "uint256",
          "name": "tokenId",
          "type": "uint256"
        },
        {
          "internalType": "address",
          "name": "bidder",
          "type": "address"
        }
      ],
      "name": "bidOf",
      "outputs": [
        {
          "components": [
            {
              "internalType": "address",
              "name": "bidder",
              "type": "address"
            },
            {
              "internalType": "uint256",
              "name": "bidAmount",
              "type": "uint256"
            },
            {
              "internalType": "uint256",
              "name": "feeAmount",
              "type": "uint256"
            },
            {
              "internalType": "uint256",
              "name": "collateralAmount",
              "type": "uint256"
            }
          ],
          "internalType": "struct IEnglishPeriodicAuctionInternal.Bid",
          "name": "",
          "type": "tuple"
        }
      ],
      "stateMutability": "view",
      "type": "function"
    },
    {
      "inputs": [
        {
          "internalType": "uint256",
          "name": "tokenId",
          "type": "uint256"
        },
        {
          "internalType": "uint256",
          "name": "round",
          "type": "uint256"
        },
        {
          "internalType": "address",
          "name": "bidder",
          "type": "address"
        }
      ],
      "name": "bidOf",
      "outputs": [
        {
          "components": [
            {
              "internalType": "address",
              "name": "bidder",
              "type": "address"
            },
            {
              "internalType": "uint256",
              "name": "bidAmount",
              "type": "uint256"
            },
            {
              "internalType": "uint256",
              "name": "feeAmount",
              "type": "uint256"
            },
            {
              "internalType": "uint256",
              "name": "collateralAmount",
              "type": "uint256"
            }
          ],
          "internalType": "struct IEnglishPeriodicAuctionInternal.Bid",
          "name": "",
          "type": "tuple"
        }
      ],
      "stateMutability": "view",
      "type": "function"
    },
    {
      "inputs": [
        {
          "internalType": "uint256",
          "name": "bidAmount",
          "type": "uint256"
        }
      ],
      "name": "calculateFeeFromBid",
      "outputs": [
        {
          "internalType": "uint256",
          "name": "",
          "type": "uint256"
        }
      ],
      "stateMutability": "view",
      "type": "function"
    },
    {
      "inputs": [
        {
          "internalType": "uint256",
          "name": "tokenId",
          "type": "uint256"
        },
        {
          "internalType": "uint256",
          "name": "round",
          "type": "uint256"
        }
      ],
      "name": "cancelBid",
      "outputs": [],
      "stateMutability": "nonpayable",
      "type": "function"
    },
    {
      "inputs": [
        {
          "internalType": "uint256",
          "name": "tokenId",
          "type": "uint256"
        },
        {
          "internalType": "uint256",
          "name": "round",
          "type": "uint256"
        }
      ],
      "name": "cancelBidAndWithdrawCollateral",
      "outputs": [],
      "stateMutability": "nonpayable",
      "type": "function"
    },
    {
      "inputs": [
        {
          "internalType": "uint256",
          "name": "tokenId",
          "type": "uint256"
        }
      ],
      "name": "closeAuction",
      "outputs": [],
      "stateMutability": "nonpayable",
      "type": "function"
    },
    {
      "inputs": [
        {
          "internalType": "uint256",
          "name": "tokenId",
          "type": "uint256"
        }
      ],
      "name": "currentAuctionRound",
      "outputs": [
        {
          "internalType": "uint256",
          "name": "",
          "type": "uint256"
        }
      ],
      "stateMutability": "view",
      "type": "function"
    },
    {
      "inputs": [
        {
          "internalType": "uint256",
          "name": "tokenId",
          "type": "uint256"
        },
        {
          "internalType": "uint256",
          "name": "round",
          "type": "uint256"
        }
      ],
      "name": "highestBid",
      "outputs": [
        {
          "components": [
            {
              "internalType": "address",
              "name": "bidder",
              "type": "address"
            },
            {
              "internalType": "uint256",
              "name": "bidAmount",
              "type": "uint256"
            },
            {
              "internalType": "uint256",
              "name": "feeAmount",
              "type": "uint256"
            },
            {
              "internalType": "uint256",
              "name": "collateralAmount",
              "type": "uint256"
            }
          ],
          "internalType": "struct IEnglishPeriodicAuctionInternal.Bid",
          "name": "",
          "type": "tuple"
        }
      ],
      "stateMutability": "view",
      "type": "function"
    },
    {
      "inputs": [
        {
          "internalType": "uint256",
          "name": "tokenId",
          "type": "uint256"
        }
      ],
      "name": "highestBid",
      "outputs": [
        {
          "components": [
            {
              "internalType": "address",
              "name": "bidder",
              "type": "address"
            },
            {
              "internalType": "uint256",
              "name": "bidAmount",
              "type": "uint256"
            },
            {
              "internalType": "uint256",
              "name": "feeAmount",
              "type": "uint256"
            },
            {
              "internalType": "uint256",
              "name": "collateralAmount",
              "type": "uint256"
            }
          ],
          "internalType": "struct IEnglishPeriodicAuctionInternal.Bid",
          "name": "",
          "type": "tuple"
        }
      ],
      "stateMutability": "view",
      "type": "function"
    },
    {
      "inputs": [],
      "name": "initialBidder",
      "outputs": [
        {
          "internalType": "address",
          "name": "",
          "type": "address"
        }
      ],
      "stateMutability": "view",
      "type": "function"
    },
    {
      "inputs": [],
      "name": "initialPeriodStartTime",
      "outputs": [
        {
          "internalType": "uint256",
          "name": "",
          "type": "uint256"
        }
      ],
      "stateMutability": "view",
      "type": "function"
    },
    {
      "inputs": [
        {
          "internalType": "address",
          "name": "_repossessor",
          "type": "address"
        },
        {
          "internalType": "address",
          "name": "_initialBidder",
          "type": "address"
        },
        {
          "internalType": "uint256",
          "name": "_initialPeriodStartTime",
          "type": "uint256"
        },
        {
          "internalType": "uint256",
          "name": "_initialPeriodStartTimeOffset",
          "type": "uint256"
        },
        {
          "internalType": "uint256",
          "name": "_startingBid",
          "type": "uint256"
        },
        {
          "internalType": "uint256",
          "name": "_auctionLengthSeconds",
          "type": "uint256"
        },
        {
          "internalType": "uint256",
          "name": "_minBidIncrement",
          "type": "uint256"
        },
        {
          "internalType": "uint256",
          "name": "_bidExtensionWindowLengthSeconds",
          "type": "uint256"
        },
        {
          "internalType": "uint256",
          "name": "_bidExtensionSeconds",
          "type": "uint256"
        }
      ],
      "name": "initializeAuction",
      "outputs": [],
      "stateMutability": "nonpayable",
      "type": "function"
    },
    {
      "inputs": [
        {
          "internalType": "address",
          "name": "_owner",
          "type": "address"
        },
        {
          "internalType": "address",
          "name": "_repossessor",
          "type": "address"
        },
        {
          "internalType": "address",
          "name": "_initialBidder",
          "type": "address"
        },
        {
          "internalType": "uint256",
          "name": "_initialPeriodStartTime",
          "type": "uint256"
        },
        {
          "internalType": "uint256",
          "name": "_initialPeriodStartTimeOffset",
          "type": "uint256"
        },
        {
          "internalType": "uint256",
          "name": "_startingBid",
          "type": "uint256"
        },
        {
          "internalType": "uint256",
          "name": "_auctionLengthSeconds",
          "type": "uint256"
        },
        {
          "internalType": "uint256",
          "name": "_minBidIncrement",
          "type": "uint256"
        },
        {
          "internalType": "uint256",
          "name": "_bidExtensionWindowLengthSeconds",
          "type": "uint256"
        },
        {
          "internalType": "uint256",
          "name": "_bidExtensionSeconds",
          "type": "uint256"
        }
      ],
      "name": "initializeAuction",
      "outputs": [],
      "stateMutability": "nonpayable",
      "type": "function"
    },
    {
      "inputs": [
        {
          "internalType": "uint256",
          "name": "tokenId",
          "type": "uint256"
        }
      ],
      "name": "isAuctionPeriod",
      "outputs": [
        {
          "internalType": "bool",
          "name": "",
          "type": "bool"
        }
      ],
      "stateMutability": "view",
      "type": "function"
    },
    {
      "inputs": [
        {
          "internalType": "uint256",
          "name": "tokenId",
          "type": "uint256"
        }
      ],
      "name": "isReadyForTransfer",
      "outputs": [
        {
          "internalType": "bool",
          "name": "",
          "type": "bool"
        }
      ],
      "stateMutability": "view",
      "type": "function"
    },
    {
      "inputs": [],
      "name": "minBidIncrement",
      "outputs": [
        {
          "internalType": "uint256",
          "name": "",
          "type": "uint256"
        }
      ],
      "stateMutability": "view",
      "type": "function"
    },
    {
      "inputs": [
        {
          "internalType": "uint256",
          "name": "tokenId",
          "type": "uint256"
        },
        {
          "internalType": "uint256",
          "name": "bidAmount",
          "type": "uint256"
        }
      ],
      "name": "placeBid",
      "outputs": [],
      "stateMutability": "payable",
      "type": "function"
    },
    {
      "inputs": [],
      "name": "repossessor",
      "outputs": [
        {
          "internalType": "address",
          "name": "",
          "type": "address"
        }
      ],
      "stateMutability": "view",
      "type": "function"
    },
    {
      "inputs": [
        {
          "internalType": "uint256",
          "name": "_auctionLengthSeconds",
          "type": "uint256"
        }
      ],
      "name": "setAuctionLengthSeconds",
      "outputs": [],
      "stateMutability": "nonpayable",
      "type": "function"
    },
    {
      "inputs": [
        {
          "internalType": "address",
          "name": "_repossessor",
          "type": "address"
        },
        {
          "internalType": "uint256",
          "name": "_auctionLengthSeconds",
          "type": "uint256"
        },
        {
          "internalType": "uint256",
          "name": "_minBidIncrement",
          "type": "uint256"
        },
        {
          "internalType": "uint256",
          "name": "_bidExtensionWindowLengthSeconds",
          "type": "uint256"
        },
        {
          "internalType": "uint256",
          "name": "_bidExtensionSeconds",
          "type": "uint256"
        },
        {
          "internalType": "uint256",
          "name": "_startingBid",
          "type": "uint256"
        }
      ],
      "name": "setAuctionParameters",
      "outputs": [],
      "stateMutability": "nonpayable",
      "type": "function"
    },
    {
      "inputs": [
        {
          "internalType": "uint256",
          "name": "_bidExtensionSeconds",
          "type": "uint256"
        }
      ],
      "name": "setBidExtensionSeconds",
      "outputs": [],
      "stateMutability": "nonpayable",
      "type": "function"
    },
    {
      "inputs": [
        {
          "internalType": "uint256",
          "name": "_bidExtensionWindowLengthSeconds",
          "type": "uint256"
        }
      ],
      "name": "setBidExtensionWindowLengthSeconds",
      "outputs": [],
      "stateMutability": "nonpayable",
      "type": "function"
    },
    {
      "inputs": [
        {
          "internalType": "uint256",
          "name": "_minBidIncrement",
          "type": "uint256"
        }
      ],
      "name": "setMinBidIncrement",
      "outputs": [],
      "stateMutability": "nonpayable",
      "type": "function"
    },
    {
      "inputs": [
        {
          "internalType": "address",
          "name": "_repossessor",
          "type": "address"
        }
      ],
      "name": "setRepossessor",
      "outputs": [],
      "stateMutability": "nonpayable",
      "type": "function"
    },
    {
      "inputs": [
        {
          "internalType": "uint256",
          "name": "_startingBid",
          "type": "uint256"
        }
      ],
      "name": "setStartingBid",
      "outputs": [],
      "stateMutability": "nonpayable",
      "type": "function"
    },
    {
      "inputs": [],
      "name": "startingBid",
      "outputs": [
        {
          "internalType": "uint256",
          "name": "",
          "type": "uint256"
        }
      ],
      "stateMutability": "view",
      "type": "function"
    },
    {
      "inputs": [],
      "name": "withdrawCollateral",
      "outputs": [],
      "stateMutability": "nonpayable",
      "type": "function"
    }
  ],
  "transactionHash": "0xa0d6c9fefe3bb341bad8a4cdb91914843f9ecb640bb688062bcfcab2b92f0496",
  "args": [],
  "numDeployments": 14,
  "solcInputHash": "d0a27ede5665b36e991b1d6afa627006",
  "bytecode": "0x608060405234801561001057600080fd5b50612909806100206000396000f3fe6080604052600436106101ee5760003560e01c806357c90de51161010d578063b14c63c5116100a0578063c3bab6461161006f578063c3bab6461461058b578063d529acd6146105a0578063dba85ccb146105c0578063df1a65d5146105e0578063df6ba5c61461060057600080fd5b8063b14c63c51461052c578063b9fdd5691461054c578063be6a2a6d14610561578063bff821981461057657600080fd5b806371c65bde116100dc57806371c65bde146104a7578063777de704146104bc578063868c5466146104dc578063a7c12c11146104fc57600080fd5b806357c90de51461043f57806359c153be14610452578063609e46fb1461046757806361a7a2261461048757600080fd5b8063335b115e116101855780633882ce8e116101545780633882ce8e146103bd5780634b393605146103ea57806355cc19ea1461040a57806355ee09d71461041f57600080fd5b8063335b115e14610348578063355337441461035d578063358498a31461037d578063376a06981461039d57600080fd5b8063236ed8f3116101c1578063236ed8f3146102ba57806324db4190146102da57806328e05bf1146102fa57806333465c5f1461031a57600080fd5b80630556e9b9146101f3578063077bbc6d146102155780630842a0b21461023557806317a6836a1461029a575b600080fd5b3480156101ff57600080fd5b5061021361020e36600461247d565b610620565b005b34801561022157600080fd5b506102136102303660046124ab565b610645565b34801561024157600080fd5b50610255610250366004612520565b6106a1565b604051610291919081516001600160a01b0316815260208083015190820152604080830151908201526060918201519181019190915260800190565b60405180910390f35b3480156102a657600080fd5b506102136102b5366004612542565b6106f4565b3480156102c657600080fd5b506102136102d536600461247d565b610723565b3480156102e657600080fd5b506102136102f536600461258e565b610798565b34801561030657600080fd5b506102556103153660046125ab565b6107b9565b34801561032657600080fd5b5061033a61033536600461247d565b6107d4565b604051908152602001610291565b34801561035457600080fd5b5061033a6107df565b34801561036957600080fd5b5061033a61037836600461247d565b6107ee565b34801561038957600080fd5b506102136103983660046125db565b6107f9565b3480156103a957600080fd5b506102556103b8366004612665565b61088f565b3480156103c957600080fd5b506103d26108e2565b6040516001600160a01b039091168152602001610291565b3480156103f657600080fd5b50610213610405366004612520565b6108ec565b34801561041657600080fd5b5061033a6108f7565b34801561042b57600080fd5b5061021361043a36600461247d565b610901565b61021361044d366004612520565b610922565b34801561045e57600080fd5b50610213610af6565b34801561047357600080fd5b5061021361048236600461247d565b610b01565b34801561049357600080fd5b506102136104a236600461247d565b610b22565b3480156104b357600080fd5b506103d2610b43565b3480156104c857600080fd5b5061033a6104d736600461247d565b610b4d565b3480156104e857600080fd5b5061033a6104f736600461247d565b610b58565b34801561050857600080fd5b5061051c61051736600461247d565b610b63565b6040519015158152602001610291565b34801561053857600080fd5b5061025561054736600461247d565b610b6e565b34801561055857600080fd5b5061033a610bc6565b34801561056d57600080fd5b5061033a610bd0565b34801561058257600080fd5b5061033a610bda565b34801561059757600080fd5b5061033a610be4565b3480156105ac57600080fd5b5061033a6105bb36600461258e565b610bee565b3480156105cc57600080fd5b506102136105db36600461247d565b610bf9565b3480156105ec57600080fd5b506102136105fb366004612520565b610c1a565b34801561060c57600080fd5b5061051c61061b36600461247d565b610c2e565b6000805160206128b483398151915261063881610c39565b61064182610c43565b5050565b61064d610c87565b156106735760405162461bcd60e51b815260040161066a9061269e565b60405180910390fd5b610685631094e47960e11b6001610c9a565b610696898989898989898989610d10565b505050505050505050565b6106a961244c565b6106b38383610d82565b6040805160808101825282546001600160a01b0316815260018301546020820152600283015491810191909152600390910154606082015290505b92915050565b6000805160206128b483398151915261070c81610c39565b61071a878787878787610daa565b50505050505050565b61072c81610de8565b61078c5760405162461bcd60e51b815260206004820152602b60248201527f456e676c697368506572696f64696341756374696f6e3a2061756374696f6e2060448201526a34b9903737ba1037bb32b960a91b606482015260840161066a565b61079581610e6c565b50565b6000805160206128b48339815191526107b081610c39565b61064182611272565b6107c161244c565b6106b3836107ce856112ca565b846112e8565b60006106ee82611325565b60006107e9611400565b905090565b60006106ee826112ca565b610801610c87565b1561081e5760405162461bcd60e51b815260040161066a9061269e565b610830631094e47960e11b6001610c9a565b61084263aba4f05160e01b6001610c9a565b61085a6000805160206128b48339815191528b611413565b6108726000805160206128b483398151915280611487565b610883898989898989898989610d10565b50505050505050505050565b61089761244c565b6108a28484846112e8565b6040805160808101825282546001600160a01b03168152600183015460208201526002830154918101919091526003909101546060820152949350505050565b60006107e96114f1565b61064182823361150f565b60006107e9611772565b6000805160206128b483398151915261091981610c39565b61064182611785565b61092b826117c2565b61099d5760405162461bcd60e51b815260206004820152603c60248201527f456e676c697368506572696f64696341756374696f6e3a2063616e206f6e6c7960448201527f20706c6163652062696420696e2061756374696f6e20706572696f6400000000606482015260840161066a565b6109a682610de8565b15610a195760405162461bcd60e51b815260206004820152603d60248201527f456e676c697368506572696f64696341756374696f6e3a2061756374696f6e2060448201527f6973206f76657220616e64206177616974696e67207472616e73666572000000606482015260840161066a565b60405163babcc53960e01b8152336004820152309063babcc53990602401602060405180830381865afa158015610a54573d6000803e3d6000fd5b505050506040513d601f19601f82011682018060405250810190610a7891906126ee565b610aea5760405162461bcd60e51b815260206004820152603a60248201527f456e676c697368506572696f64696341756374696f6e3a2073656e646572206960448201527f73206e6f7420616c6c6f77656420746f20706c61636520626964000000000000606482015260840161066a565b6106418233833461183d565b610aff33611dab565b565b6000805160206128b4833981519152610b1981610c39565b61064182611f0a565b6000805160206128b4833981519152610b3a81610c39565b61064182611f47565b60006107e9611f84565b60006106ee82611fa0565b60006106ee82611ffc565b60006106ee826117c2565b610b7661244c565b610b8882610b83846112ca565b610d82565b6040805160808101825282546001600160a01b0316815260018301546020820152600283015491810191909152600390910154606082015292915050565b60006107e96120de565b60006107e96120f1565b60006107e9612104565b60006107e9612117565b60006106ee8261212a565b6000805160206128b4833981519152610c1181610c39565b61064182612156565b610c2582823361150f565b61064133611dab565b60006106ee82610de8565b6107958133612193565b80610c4c6121f5565b600101556040518181527f1063dc5e6f2d1c9d1cdcddf0f8ce9f8984ff1afd2df93f864e28056f5da6b01c906020015b60405180910390a150565b6000610c916121f5565b5460ff16919050565b6001600160e01b03198083169003610cc55760405163b0a19dd560e01b815260040160405180910390fd5b6001600160e01b03199190911660009081527ffc606c433378e3a7e0a6a531deac289b66caa1b4aa8554fd4ab2c6f1570f92d860205260409020805460ff1916911515919091179055565b6000610d1a6121f5565b80546001600160a01b038b16610100026001600160a81b031990911617600117815560048101889055600381018990559050610d5586610c43565b610d5e8a611272565b610d6785611f47565b610d7084611785565b610d7983612156565b61088382611f0a565b6000610d8c6121f5565b6000938452600d016020908152604080852093855292905250902090565b610db386611272565b610dbc85611f47565b610dc584611785565b610dce83612156565b610dd782611f0a565b610de081610c43565b505050505050565b6000306001600160a01b031663c4e627c26040518163ffffffff1660e01b8152600401602060405180830381865afa158015610e28573d6000803e3d6000fd5b505050506040513d601f19601f82011682018060405250810190610e4c9190612710565b8210610e5a57506000919050565b610e6382611fa0565b42101592915050565b6000610e766121f5565b6000838152600a82016020526040808220549051634f558e7960e01b815260048101869052929350913090634f558e7990602401602060405180830381865afa158015610ec7573d6000803e3d6000fd5b505050506040513d601f19601f82011682018060405250810190610eeb91906126ee565b15610f57576040516331a9108f60e11b8152600481018590523090636352211e90602401602060405180830381865afa158015610f2c573d6000803e3d6000fd5b505050506040513d601f19601f82011682018060405250810190610f509190612729565b9050610f69565b50815461010090046001600160a01b03165b60008481526009840160209081526040808320429055600d860182528083208584529091529020546001600160a01b031661103c576000848152600c8401602090815260408083208584528252808320600280880180546001600160a01b039081168752928552838620600180820188815582850189815560038085018b81559554855498166001600160a01b031998891681179095558e8b52600d8e018a52888b208d8c52909952969098208054909516909117845595549583019590955591549181019190915591549101556110b5565b6000848152600d8401602090815260408083208584529091529020546001600160a01b038281169116146110b5576000848152600d8401602090815260408083208584528252808320600101546001600160a01b0385168452600e870190925282208054919290916110af90849061275c565b90915550505b6000848152600d840160209081526040808320858452825291829020805460019091015483516001600160a01b03868116825293810191909152911691849187917fdae3b66c823bbdbd53155f9bb3e7693f818e957f816fe910b303fdbe7fa37dab910160405180910390a460058301546000858152600b85016020908152604080832093909355600a86019052205461115090600161275c565b6000858152600a85016020908152604080832093909355600d86018152828220858352905281902054905163e31a7c0160e01b81526001600160a01b038084166004830152909116602482015260448101859052309063e31a7c0190606401600060405180830381600087803b1580156111c957600080fd5b505af11580156111dd573d6000803e3d6000fd5b5050506000858152600d85016020908152604080832086845290915290206002015415905061126c576000848152600d84016020908152604080832085845290915280822060020154815163e4fc6b6d60e01b81529151309363e4fc6b6d936004808201939182900301818588803b15801561125857600080fd5b505af1158015610696573d6000803e3d6000fd5b50505050565b8061127b6121f5565b60020180546001600160a01b0319166001600160a01b0392831617905560405190821681527f03bb52851d1b668acbe31ec6258d6de44a14c1dc0d9db84ab95e8071f5aa989d90602001610c7c565b60006112d46121f5565b6000928352600a0160205250604090205490565b60006112f26121f5565b6000948552600c01602090815260408086209486529381528385206001600160a01b039390931685529190915250902090565b6000806113306121f5565b90506000306001600160a01b031663fd8e6f286040518163ffffffff1660e01b8152600401602060405180830381865afa158015611372573d6000803e3d6000fd5b505050506040513d601f19601f820116820180604052508101906113969190612710565b6003830154600086815260098501602052604090205491925010156113d85760008481526009830160205260409020546113d190829061275c565b92506113f9565b60048201546113e7908561276f565b82600301546113f6919061275c565b92505b5050919050565b600061140a6121f5565b60060154905090565b60008281527fd3889cc5458b268d0544e5534672df1296288ca3f93cbd39bd6f497a5c6228116020526040902061144a9082612219565b5060405133906001600160a01b0383169084907f2f8788117e7eff1d82e926ec794901d17c78024a50270940304540a733656f0d90600090a45050565b60008281527fd3889cc5458b268d0544e5534672df1296288ca3f93cbd39bd6f497a5c6228116020526040808220600201805490849055905190918391839186917fbd79b86ffe0ab8e8776151514217cd7cacd52c909f66475c3af44e129f0b00ff9190a4505050565b60006114fb6121f5565b5461010090046001600160a01b0316919050565b60006115196121f5565b604051634f558e7960e01b8152600481018690529091506000903090634f558e7990602401602060405180830381865afa15801561155b573d6000803e3d6000fd5b505050506040513d601f19601f8201168201806040525081019061157f91906126ee565b156115eb576040516331a9108f60e11b8152600481018690523090636352211e90602401602060405180830381865afa1580156115c0573d6000803e3d6000fd5b505050506040513d601f19601f820116820180604052508101906115e49190612729565b90506115fd565b50805461010090046001600160a01b03165b6000858152600d8301602090815260408083208784529091529020546001600160a01b039081169084160361169a5760405162461bcd60e51b815260206004820152603b60248201527f456e676c697368506572696f64696341756374696f6e3a2043616e6e6f74206360448201527f616e63656c206269642069662068696768657374206269646465720000000000606482015260840161066a565b6000858152600c83016020908152604080832087845282528083206001600160a01b0387168452909152902060038101546117285760405162461bcd60e51b815260206004820152602860248201527f456e676c697368506572696f64696341756374696f6e3a204e6f2062696420746044820152671bc818d85b98d95b60c21b606482015260840161066a565b60038101546001600160a01b0385166000908152600e850160205260408120805490919061175790849061275c565b90915550506000600382018190556001909101555050505050565b600061177c6121f5565b60070154905090565b8061178e6121f5565b600601556040518181527f8092df692524f6b78c4746150cae83effcfd6b470cc0038f09a603d42a32388e90602001610c7c565b6000306001600160a01b031663c4e627c26040518163ffffffff1660e01b8152600401602060405180830381865afa158015611802573d6000803e3d6000fd5b505050506040513d601f19601f820116820180604052508101906118269190612710565b821061183457506000919050565b610e6382611325565b60006118476121f5565b6000868152600a82016020908152604080832054600c8501835281842081855283528184206001600160a01b038a168552909252909120600183015492935090918510156119165760405162461bcd60e51b815260206004820152605060248201527f456e676c697368506572696f64696341756374696f6e3a2042696420616d6f7560448201527f6e74206d7573742062652067726561746572207468616e206f7220657175616c60648201526f081d1bc81cdd185c9d1a5b99c8189a5960821b608482015260a40161066a565b60068301546000888152600d850160209081526040808320868452909152902060010154611944919061275c565b8510156119d15760405162461bcd60e51b815260206004820152604f60248201527f456e676c697368506572696f64696341756374696f6e3a2042696420616d6f7560448201527f6e74206d7573742062652067726561746572207468616e20686967686573742060648201526e1bdd5d1cdd185b991a5b99c8189a59608a1b608482015260a40161066a565b60008482600301546119e3919061275c565b604051634f558e7960e01b8152600481018a905290915060009081903090634f558e7990602401602060405180830381865afa158015611a27573d6000803e3d6000fd5b505050506040513d601f19601f82011682018060405250810190611a4b91906126ee565b15611ab7576040516331a9108f60e11b8152600481018b90523090636352211e90602401602060405180830381865afa158015611a8c573d6000803e3d6000fd5b505050506040513d601f19601f82011682018060405250810190611ab09190612729565b9050611ac9565b50845461010090046001600160a01b03165b806001600160a01b0316896001600160a01b031603611aea57829150611b78565b878311611b6b5760405162461bcd60e51b815260206004820152604360248201527f456e676c697368506572696f64696341756374696f6e3a20436f6c6c6174657260448201527f616c206d7573742062652067726561746572207468616e2063757272656e7420606482015262189a5960ea1b608482015260a40161066a565b611b758884612786565b91505b611b828883612235565b611be35760405162461bcd60e51b815260206004820152602c60248201527f456e676c697368506572696f64696341756374696f6e3a20496e636f7272656360448201526b1d08189a5908185b5bdd5b9d60a21b606482015260840161066a565b888460000160006101000a8154816001600160a01b0302191690836001600160a01b031602179055508784600101819055508184600201819055508284600301819055508386600d0160008c815260200190815260200160002060008781526020019081526020016000206000820160009054906101000a90046001600160a01b03168160000160006101000a8154816001600160a01b0302191690836001600160a01b031602179055506001820154816001015560028201548160020155600382015481600301559050508360000160009054906101000a90046001600160a01b03166001600160a01b0316858b7f6f7e354ea3ab5c288aea37fce29c603f9a98a3b040f6d8f32f10e192ec47ff6a8760010154604051611d0791815260200190565b60405180910390a46000611d1a8b611fa0565b9050428110158015611d3b5750611d2f611772565b611d394283612786565b105b15611d9e5760008b8152600b880160205260408120548103611d6657611d5f612117565b9050611d79565b5060008b8152600b880160205260409020545b611d81612104565b611d8b908261275c565b60008d8152600b8a016020526040902055505b5050505050505050505050565b6000611db56121f5565b6001600160a01b0383166000908152600e8201602052604090205490915080611e3a5760405162461bcd60e51b815260206004820152603160248201527f456e676c697368506572696f64696341756374696f6e3a204e6f20636f6c6c61604482015270746572616c20746f20776974686472617760781b606482015260840161066a565b6001600160a01b0383166000818152600e840160205260408082208290555190919083908381818185875af1925050503d8060008114611e96576040519150601f19603f3d011682016040523d82523d6000602084013e611e9b565b606091505b505090508061126c5760405162461bcd60e51b815260206004820152603560248201527f456e676c697368506572696f64696341756374696f6e3a204661696c656420746044820152741bc81dda5d1a191c985dc818dbdb1b185d195c985b605a1b606482015260840161066a565b80611f136121f5565b600801556040518181527f33178f49ae33ce72b1c9e38d72f4ae326b490e4e7c9e02b8735a9ceacf770dee90602001610c7c565b80611f506121f5565b600501556040518181527f99578d7fe3e20e279feceaa076eb8032d475ca1a49391ec0a740445152a5971390602001610c7c565b6000611f8e6121f5565b600201546001600160a01b0316919050565b600080611fab6121f5565b6000848152600b82016020526040812054919250908103611fd557611fce612117565b9050611fe8565b506000838152600b820160205260409020545b80611ff285611325565b6113f6919061275c565b600080306001600160a01b031663e86dea4a6040518163ffffffff1660e01b8152600401602060405180830381865afa15801561203d573d6000803e3d6000fd5b505050506040513d601f19601f820116820180604052508101906120619190612710565b90506000306001600160a01b031663180b0d7e6040518163ffffffff1660e01b8152600401602060405180830381865afa1580156120a3573d6000803e3d6000fd5b505050506040513d601f19601f820116820180604052508101906120c79190612710565b9050806120d4838661276f565b6113f69190612799565b60006120e86121f5565b60010154905090565b60006120fb6121f5565b60030154905090565b600061210e6121f5565b60080154905090565b60006121216121f5565b60050154905090565b60006121346121f5565b6001600160a01b039092166000908152600e9290920160205250604090205490565b8061215f6121f5565b600701556040518181527f19ba737fa8db769049b6dafc98d3391bdead47e7f6617113c775efbed1efc6f990602001610c7c565b61219d828261224b565b610641576121b3816001600160a01b03166122a4565b6121be8360206122b6565b6040516020016121cf9291906127df565b60408051601f198184030181529082905262461bcd60e51b825261066a91600401612854565b7fc7ed1b841b2d3c7f16d15642e7b013e89732e44006608d59c7547b8e331a7ce090565b600061222e836001600160a01b038416612409565b9392505050565b60008061224184611ffc565b9092149392505050565b600061222e827fd3889cc5458b268d0544e5534672df1296288ca3f93cbd39bd6f497a5c622811600086815260209190915260409020906001600160a01b0381166000908152600183016020526040812054151561222e565b60606106ee6001600160a01b03831660145b606060006122c583600261276f565b6122d090600261275c565b67ffffffffffffffff8111156122e8576122e8612887565b6040519080825280601f01601f191660200182016040528015612312576020820181803683370190505b509050600360fc1b8160008151811061232d5761232d61289d565b60200101906001600160f81b031916908160001a905350600f60fb1b8160018151811061235c5761235c61289d565b60200101906001600160f81b031916908160001a905350600160028402015b60018111156123e9576f181899199a1a9b1b9c1cb0b131b232b360811b85600f16601081106123ac576123ac61289d565b1a60f81b8282815181106123c2576123c261289d565b60200101906001600160f81b031916908160001a90535060049490941c936000190161237b565b50831561222e5760405163c913478560e01b815260040160405180910390fd5b60008181526001830160205260408120546106ee575081546001808201845560008481526020808220909301849055845493815293810190915260409092205590565b604051806080016040528060006001600160a01b031681526020016000815260200160008152602001600081525090565b60006020828403121561248f57600080fd5b5035919050565b6001600160a01b038116811461079557600080fd5b60008060008060008060008060006101208a8c0312156124ca57600080fd5b89356124d581612496565b985060208a01356124e581612496565b989b989a505050506040870135966060810135966080820135965060a0820135955060c0820135945060e08201359350610100909101359150565b6000806040838503121561253357600080fd5b50508035926020909101359150565b60008060008060008060c0878903121561255b57600080fd5b863561256681612496565b9860208801359850604088013597606081013597506080810135965060a00135945092505050565b6000602082840312156125a057600080fd5b813561222e81612496565b600080604083850312156125be57600080fd5b8235915060208301356125d081612496565b809150509250929050565b6000806000806000806000806000806101408b8d0312156125fb57600080fd5b8a3561260681612496565b995060208b013561261681612496565b985060408b013561262681612496565b999c989b5098996060810135995060808101359860a0820135985060c0820135975060e082013596506101008201359550610120909101359350915050565b60008060006060848603121561267a57600080fd5b8335925060208401359150604084013561269381612496565b809150509250925092565b60208082526030908201527f456e676c697368506572696f64696341756374696f6e46616365743a20616c7260408201526f1958591e481a5b9a5d1a585b1a5e995960821b606082015260800190565b60006020828403121561270057600080fd5b8151801515811461222e57600080fd5b60006020828403121561272257600080fd5b5051919050565b60006020828403121561273b57600080fd5b815161222e81612496565b634e487b7160e01b600052601160045260246000fd5b808201808211156106ee576106ee612746565b80820281158282048414176106ee576106ee612746565b818103818111156106ee576106ee612746565b6000826127b657634e487b7160e01b600052601260045260246000fd5b500490565b60005b838110156127d65781810151838201526020016127be565b50506000910152565b7f416363657373436f6e74726f6c3a206163636f756e74200000000000000000008152600083516128178160178501602088016127bb565b7001034b99036b4b9b9b4b733903937b6329607d1b60179184019182015283516128488160288401602088016127bb565b01602801949350505050565b60208152600082518060208401526128738160408501602087016127bb565b601f01601f19169190910160400192915050565b634e487b7160e01b600052604160045260246000fd5b634e487b7160e01b600052603260045260246000fdfe27d47e2aa570d0f5aa1d72abbe4d60032a12e3514b8c2bc8a49a9968779054c2a26469706673582212205100d72ee6314a7fdd96525b21c3a4b5ff1c7afd7697b86bde693e9c3c96c4f964736f6c63430008110033",
  "devdoc": {
    "kind": "dev",
    "methods": {},
    "title": "EnglishPeriodicAuctionFacet",
    "version": 1
  },
  "userdoc": {
    "kind": "user",
    "methods": {
      "auctionEndTime(uint256)": {
        "notice": "Get auction end time"
      },
      "auctionLengthSeconds()": {
        "notice": "Get auction length"
      },
      "auctionStartTime(uint256)": {
        "notice": "Get auction start time"
      },
      "availableCollateral(address)": {
        "notice": "Get available collateral"
      },
      "bidExtensionSeconds()": {
        "notice": "Get bid extension seconds"
      },
      "bidExtensionWindowLengthSeconds()": {
        "notice": "Get bid extension window length"
      },
      "bidOf(uint256,address)": {
        "notice": "Get bid for address"
      },
      "bidOf(uint256,uint256,address)": {
        "notice": "Get bid for address for particular round"
      },
      "calculateFeeFromBid(uint256)": {
        "notice": "Calculate fee from bid"
      },
      "cancelBid(uint256,uint256)": {
        "notice": "Cancel bid for current round"
      },
      "cancelBidAndWithdrawCollateral(uint256,uint256)": {
        "notice": "Cancel bid for current round and withdraw collateral"
      },
      "closeAuction(uint256)": {
        "notice": "Close auction and trigger a transfer to the highest bidder"
      },
      "currentAuctionRound(uint256)": {
        "notice": "Get current auction round"
      },
      "highestBid(uint256)": {
        "notice": "Get highest outstanding bid"
      },
      "highestBid(uint256,uint256)": {
        "notice": "Get highest outstanding bid for a particular round"
      },
      "initialBidder()": {
        "notice": "Get initial bidder"
      },
      "initialPeriodStartTime()": {
        "notice": "Get initial period start time"
      },
      "initializeAuction(address,address,address,uint256,uint256,uint256,uint256,uint256,uint256,uint256)": {
        "notice": "Initialize auction parameters with owner"
      },
      "initializeAuction(address,address,uint256,uint256,uint256,uint256,uint256,uint256,uint256)": {
        "notice": "Initialize auction parameters"
      },
      "isAuctionPeriod(uint256)": {
        "notice": "Get is auction period"
      },
      "isReadyForTransfer(uint256)": {
        "notice": "Is token ready for transfer"
      },
      "minBidIncrement()": {
        "notice": "Get minimum bid increment"
      },
      "placeBid(uint256,uint256)": {
        "notice": "Place a bid"
      },
      "repossessor()": {
        "notice": "Get repossessor"
      },
      "setAuctionLengthSeconds(uint256)": {
        "notice": "Set auction length"
      },
      "setAuctionParameters(address,uint256,uint256,uint256,uint256,uint256)": {
        "notice": "Set auction parameters"
      },
      "setBidExtensionSeconds(uint256)": {
        "notice": "Set bid extension seconds"
      },
      "setBidExtensionWindowLengthSeconds(uint256)": {
        "notice": "Set bid extension window length"
      },
      "setMinBidIncrement(uint256)": {
        "notice": "Set minimum bid increment"
      },
      "setRepossessor(address)": {
        "notice": "Set repossessor"
      },
      "setStartingBid(uint256)": {
        "notice": "Set starting bid"
      },
      "startingBid()": {
        "notice": "Get starting bid"
      },
      "withdrawCollateral()": {
        "notice": "Withdraw collateral"
      }
    },
    "version": 1
  },
  "storageLayout": {
    "storage": [],
    "types": null
  }
}