{
  "address": "0xce0F64bfa8267ba7f0479097B05b85412Ad9cBBb",
  "abi": [
    {
      "inputs": [],
      "name": "ERC165Base__InvalidInterfaceId",
      "type": "error"
    },
    {
      "inputs": [],
      "name": "UintUtils__InsufficientHexLength",
      "type": "error"
    },
    {
      "anonymous": false,
      "inputs": [
        {
          "indexed": true,
          "internalType": "uint256",
          "name": "tokenId",
          "type": "uint256"
        },
        {
          "indexed": true,
          "internalType": "uint256",
          "name": "round",
          "type": "uint256"
        },
        {
          "indexed": true,
          "internalType": "address",
          "name": "winningBidder",
          "type": "address"
        },
        {
          "indexed": false,
          "internalType": "address",
          "name": "previousOwner",
          "type": "address"
        },
        {
          "indexed": false,
          "internalType": "uint256",
          "name": "bidAmount",
          "type": "uint256"
        }
      ],
      "name": "AuctionClosed",
      "type": "event"
    },
    {
      "anonymous": false,
      "inputs": [
        {
          "indexed": false,
          "internalType": "uint256",
          "name": "auctionLengthSeconds",
          "type": "uint256"
        }
      ],
      "name": "AuctionLengthSet",
      "type": "event"
    },
    {
      "anonymous": false,
      "inputs": [
        {
          "indexed": false,
          "internalType": "uint256",
          "name": "bidExtensionSeconds",
          "type": "uint256"
        }
      ],
      "name": "BidExtensionSet",
      "type": "event"
    },
    {
      "anonymous": false,
      "inputs": [
        {
          "indexed": false,
          "internalType": "uint256",
          "name": "bidExtensionWindowLengthSeconds",
          "type": "uint256"
        }
      ],
      "name": "BidExtensionWindowLengthSet",
      "type": "event"
    },
    {
      "anonymous": false,
      "inputs": [
        {
          "indexed": true,
          "internalType": "uint256",
          "name": "tokenId",
          "type": "uint256"
        },
        {
          "indexed": true,
          "internalType": "uint256",
          "name": "round",
          "type": "uint256"
        },
        {
          "indexed": true,
          "internalType": "address",
          "name": "bidder",
          "type": "address"
        },
        {
          "indexed": false,
          "internalType": "uint256",
          "name": "bidAmount",
          "type": "uint256"
        }
      ],
      "name": "BidPlaced",
      "type": "event"
    },
    {
      "anonymous": false,
      "inputs": [
        {
          "indexed": false,
          "internalType": "uint256",
          "name": "initialPeriodStartTime",
          "type": "uint256"
        }
      ],
      "name": "InitialPeriodStartTimeSet",
      "type": "event"
    },
    {
      "anonymous": false,
      "inputs": [
        {
          "indexed": false,
          "internalType": "uint256",
          "name": "minBidIncrement",
          "type": "uint256"
        }
      ],
      "name": "MinBidIncrementSet",
      "type": "event"
    },
    {
      "anonymous": false,
      "inputs": [
        {
          "indexed": false,
          "internalType": "address",
          "name": "repossessor",
          "type": "address"
        }
      ],
      "name": "RepossessorSet",
      "type": "event"
    },
    {
      "anonymous": false,
      "inputs": [
        {
          "indexed": true,
          "internalType": "bytes32",
          "name": "role",
          "type": "bytes32"
        },
        {
          "indexed": true,
          "internalType": "bytes32",
          "name": "previousAdminRole",
          "type": "bytes32"
        },
        {
          "indexed": true,
          "internalType": "bytes32",
          "name": "newAdminRole",
          "type": "bytes32"
        }
      ],
      "name": "RoleAdminChanged",
      "type": "event"
    },
    {
      "anonymous": false,
      "inputs": [
        {
          "indexed": true,
          "internalType": "bytes32",
          "name": "role",
          "type": "bytes32"
        },
        {
          "indexed": true,
          "internalType": "address",
          "name": "account",
          "type": "address"
        },
        {
          "indexed": true,
          "internalType": "address",
          "name": "sender",
          "type": "address"
        }
      ],
      "name": "RoleGranted",
      "type": "event"
    },
    {
      "anonymous": false,
      "inputs": [
        {
          "indexed": true,
          "internalType": "bytes32",
          "name": "role",
          "type": "bytes32"
        },
        {
          "indexed": true,
          "internalType": "address",
          "name": "account",
          "type": "address"
        },
        {
          "indexed": true,
          "internalType": "address",
          "name": "sender",
          "type": "address"
        }
      ],
      "name": "RoleRevoked",
      "type": "event"
    },
    {
      "inputs": [
        {
          "internalType": "uint256",
          "name": "tokenId",
          "type": "uint256"
        }
      ],
      "name": "auctionEndTime",
      "outputs": [
        {
          "internalType": "uint256",
          "name": "",
          "type": "uint256"
        }
      ],
      "stateMutability": "view",
      "type": "function"
    },
    {
      "inputs": [],
      "name": "auctionLengthSeconds",
      "outputs": [
        {
          "internalType": "uint256",
          "name": "",
          "type": "uint256"
        }
      ],
      "stateMutability": "view",
      "type": "function"
    },
    {
      "inputs": [
        {
          "internalType": "uint256",
          "name": "tokenId",
          "type": "uint256"
        }
      ],
      "name": "auctionStartTime",
      "outputs": [
        {
          "internalType": "uint256",
          "name": "",
          "type": "uint256"
        }
      ],
      "stateMutability": "view",
      "type": "function"
    },
    {
      "inputs": [],
      "name": "bidExtensionSeconds",
      "outputs": [
        {
          "internalType": "uint256",
          "name": "",
          "type": "uint256"
        }
      ],
      "stateMutability": "view",
      "type": "function"
    },
    {
      "inputs": [],
      "name": "bidExtensionWindowLengthSeconds",
      "outputs": [
        {
          "internalType": "uint256",
          "name": "",
          "type": "uint256"
        }
      ],
      "stateMutability": "view",
      "type": "function"
    },
    {
      "inputs": [
        {
          "internalType": "uint256",
          "name": "tokenId",
          "type": "uint256"
        },
        {
          "internalType": "address",
          "name": "bidder",
          "type": "address"
        }
      ],
      "name": "bidOf",
      "outputs": [
        {
          "components": [
            {
              "internalType": "uint256",
              "name": "round",
              "type": "uint256"
            },
            {
              "internalType": "address",
              "name": "bidder",
              "type": "address"
            },
            {
              "internalType": "uint256",
              "name": "bidAmount",
              "type": "uint256"
            },
            {
              "internalType": "uint256",
              "name": "feeAmount",
              "type": "uint256"
            },
            {
              "internalType": "uint256",
              "name": "collateralAmount",
              "type": "uint256"
            }
          ],
          "internalType": "struct IEnglishPeriodicAuctionInternal.Bid",
          "name": "",
          "type": "tuple"
        }
      ],
      "stateMutability": "view",
      "type": "function"
    },
    {
      "inputs": [
        {
          "internalType": "uint256",
          "name": "bidAmount",
          "type": "uint256"
        }
      ],
      "name": "calculateFeeFromBid",
      "outputs": [
        {
          "internalType": "uint256",
          "name": "",
          "type": "uint256"
        }
      ],
      "stateMutability": "view",
      "type": "function"
    },
    {
      "inputs": [
        {
          "internalType": "uint256",
          "name": "tokenId",
          "type": "uint256"
        }
      ],
      "name": "closeAuction",
      "outputs": [],
      "stateMutability": "nonpayable",
      "type": "function"
    },
    {
      "inputs": [
        {
          "internalType": "uint256",
          "name": "tokenId",
          "type": "uint256"
        }
      ],
      "name": "currentBid",
      "outputs": [
        {
          "components": [
            {
              "internalType": "uint256",
              "name": "round",
              "type": "uint256"
            },
            {
              "internalType": "address",
              "name": "bidder",
              "type": "address"
            },
            {
              "internalType": "uint256",
              "name": "bidAmount",
              "type": "uint256"
            },
            {
              "internalType": "uint256",
              "name": "feeAmount",
              "type": "uint256"
            },
            {
              "internalType": "uint256",
              "name": "collateralAmount",
              "type": "uint256"
            }
          ],
          "internalType": "struct IEnglishPeriodicAuctionInternal.Bid",
          "name": "",
          "type": "tuple"
        }
      ],
      "stateMutability": "view",
      "type": "function"
    },
    {
      "inputs": [
        {
          "internalType": "uint256",
          "name": "tokenId",
          "type": "uint256"
        }
      ],
      "name": "highestBid",
      "outputs": [
        {
          "components": [
            {
              "internalType": "uint256",
              "name": "round",
              "type": "uint256"
            },
            {
              "internalType": "address",
              "name": "bidder",
              "type": "address"
            },
            {
              "internalType": "uint256",
              "name": "bidAmount",
              "type": "uint256"
            },
            {
              "internalType": "uint256",
              "name": "feeAmount",
              "type": "uint256"
            },
            {
              "internalType": "uint256",
              "name": "collateralAmount",
              "type": "uint256"
            }
          ],
          "internalType": "struct IEnglishPeriodicAuctionInternal.Bid",
          "name": "",
          "type": "tuple"
        }
      ],
      "stateMutability": "view",
      "type": "function"
    },
    {
      "inputs": [],
      "name": "initialBidder",
      "outputs": [
        {
          "internalType": "address",
          "name": "",
          "type": "address"
        }
      ],
      "stateMutability": "view",
      "type": "function"
    },
    {
      "inputs": [],
      "name": "initialPeriodStartTime",
      "outputs": [
        {
          "internalType": "uint256",
          "name": "",
          "type": "uint256"
        }
      ],
      "stateMutability": "view",
      "type": "function"
    },
    {
      "inputs": [
        {
          "internalType": "address",
          "name": "_repossessor",
          "type": "address"
        },
        {
          "internalType": "address",
          "name": "_initialBidder",
          "type": "address"
        },
        {
          "internalType": "uint256",
          "name": "_initialPeriodStartTime",
          "type": "uint256"
        },
        {
          "internalType": "uint256",
          "name": "_initialPeriodStartTimeOffset",
          "type": "uint256"
        },
        {
          "internalType": "uint256",
          "name": "startingBid",
          "type": "uint256"
        },
        {
          "internalType": "uint256",
          "name": "_auctionLengthSeconds",
          "type": "uint256"
        },
        {
          "internalType": "uint256",
          "name": "_minBidIncrement",
          "type": "uint256"
        },
        {
          "internalType": "uint256",
          "name": "_bidExtensionWindowLengthSeconds",
          "type": "uint256"
        },
        {
          "internalType": "uint256",
          "name": "_bidExtensionSeconds",
          "type": "uint256"
        }
      ],
      "name": "initializeAuction",
      "outputs": [],
      "stateMutability": "nonpayable",
      "type": "function"
    },
    {
      "inputs": [
        {
          "internalType": "address",
          "name": "_owner",
          "type": "address"
        },
        {
          "internalType": "address",
          "name": "_repossessor",
          "type": "address"
        },
        {
          "internalType": "address",
          "name": "_initialBidder",
          "type": "address"
        },
        {
          "internalType": "uint256",
          "name": "_initialPeriodStartTime",
          "type": "uint256"
        },
        {
          "internalType": "uint256",
          "name": "_initialPeriodStartTimeOffset",
          "type": "uint256"
        },
        {
          "internalType": "uint256",
          "name": "startingBid",
          "type": "uint256"
        },
        {
          "internalType": "uint256",
          "name": "_auctionLengthSeconds",
          "type": "uint256"
        },
        {
          "internalType": "uint256",
          "name": "_minBidIncrement",
          "type": "uint256"
        },
        {
          "internalType": "uint256",
          "name": "_bidExtensionWindowLengthSeconds",
          "type": "uint256"
        },
        {
          "internalType": "uint256",
          "name": "_bidExtensionSeconds",
          "type": "uint256"
        }
      ],
      "name": "initializeAuction",
      "outputs": [],
      "stateMutability": "nonpayable",
      "type": "function"
    },
    {
      "inputs": [
        {
          "internalType": "uint256",
          "name": "tokenId",
          "type": "uint256"
        }
      ],
      "name": "isAuctionPeriod",
      "outputs": [
        {
          "internalType": "bool",
          "name": "",
          "type": "bool"
        }
      ],
      "stateMutability": "view",
      "type": "function"
    },
    {
      "inputs": [
        {
          "internalType": "uint256",
          "name": "tokenId",
          "type": "uint256"
        }
      ],
      "name": "isReadyForTransfer",
      "outputs": [
        {
          "internalType": "bool",
          "name": "",
          "type": "bool"
        }
      ],
      "stateMutability": "view",
      "type": "function"
    },
    {
      "inputs": [],
      "name": "minBidIncrement",
      "outputs": [
        {
          "internalType": "uint256",
          "name": "",
          "type": "uint256"
        }
      ],
      "stateMutability": "view",
      "type": "function"
    },
    {
      "inputs": [
        {
          "internalType": "uint256",
          "name": "tokenId",
          "type": "uint256"
        },
        {
          "internalType": "uint256",
          "name": "bidAmount",
          "type": "uint256"
        }
      ],
      "name": "placeBid",
      "outputs": [],
      "stateMutability": "payable",
      "type": "function"
    },
    {
      "inputs": [],
      "name": "repossessor",
      "outputs": [
        {
          "internalType": "address",
          "name": "",
          "type": "address"
        }
      ],
      "stateMutability": "view",
      "type": "function"
    },
    {
      "inputs": [
        {
          "internalType": "uint256",
          "name": "_auctionLengthSeconds",
          "type": "uint256"
        }
      ],
      "name": "setAuctionLengthSeconds",
      "outputs": [],
      "stateMutability": "nonpayable",
      "type": "function"
    },
    {
      "inputs": [
        {
          "internalType": "address",
          "name": "_repossessor",
          "type": "address"
        },
        {
          "internalType": "uint256",
          "name": "_auctionLengthSeconds",
          "type": "uint256"
        },
        {
          "internalType": "uint256",
          "name": "_minBidIncrement",
          "type": "uint256"
        },
        {
          "internalType": "uint256",
          "name": "_bidExtensionWindowLengthSeconds",
          "type": "uint256"
        },
        {
          "internalType": "uint256",
          "name": "_bidExtensionSeconds",
          "type": "uint256"
        }
      ],
      "name": "setAuctionParameters",
      "outputs": [],
      "stateMutability": "nonpayable",
      "type": "function"
    },
    {
      "inputs": [
        {
          "internalType": "uint256",
          "name": "_bidExtensionSeconds",
          "type": "uint256"
        }
      ],
      "name": "setBidExtensionSeconds",
      "outputs": [],
      "stateMutability": "nonpayable",
      "type": "function"
    },
    {
      "inputs": [
        {
          "internalType": "uint256",
          "name": "_bidExtensionWindowLengthSeconds",
          "type": "uint256"
        }
      ],
      "name": "setBidExtensionWindowLengthSeconds",
      "outputs": [],
      "stateMutability": "nonpayable",
      "type": "function"
    },
    {
      "inputs": [
        {
          "internalType": "uint256",
          "name": "_minBidIncrement",
          "type": "uint256"
        }
      ],
      "name": "setMinBidIncrement",
      "outputs": [],
      "stateMutability": "nonpayable",
      "type": "function"
    },
    {
      "inputs": [
        {
          "internalType": "address",
          "name": "_repossessor",
          "type": "address"
        }
      ],
      "name": "setRepossessor",
      "outputs": [],
      "stateMutability": "nonpayable",
      "type": "function"
    },
    {
      "inputs": [
        {
          "internalType": "uint256",
          "name": "tokenId",
          "type": "uint256"
        }
      ],
      "name": "withdrawBid",
      "outputs": [],
      "stateMutability": "nonpayable",
      "type": "function"
    }
  ],
  "transactionHash": "0x920522756ac189612281f3c1bcf51199d24f2e5a4ec1432264e9f02212b6f5c3",
  "args": [],
  "numDeployments": 6,
  "solcInputHash": "0b5efae482ad241fc19d4580fd9acd55",
  "bytecode": "0x608060405234801561001057600080fd5b50612575806100206000396000f3fe6080604052600436106101815760003560e01c806357c90de5116100d1578063a7c12c111161008a578063bff8219811610064578063bff8219814610489578063c3bab6461461049e578063dba85ccb146104b3578063df6ba5c6146104d357600080fd5b8063a7c12c1114610424578063b14c63c514610454578063be6a2a6d1461047457600080fd5b806357c90de51461037c578063609e46fb1461038f57806361a7a226146103af57806371c65bde146103cf578063777de704146103e4578063868c54661461040457600080fd5b8063335b115e1161013e5780633c7cfe34116101185780633c7cfe34146103075780634cc31cbc1461032757806355cc19ea1461034757806355ee09d71461035c57600080fd5b8063335b115e146102a5578063358498a3146102ba5780633882ce8e146102da57600080fd5b8063077bbc6d146101865780630eaaf4c8146101a8578063236ed8f3146101c857806324db4190146101e857806328e05bf11461020857806333465c5f14610277575b600080fd5b34801561019257600080fd5b506101a66101a136600461213f565b6104f3565b005b3480156101b457600080fd5b506101a66101c33660046121b4565b61054f565b3480156101d457600080fd5b506101a66101e33660046121b4565b61055c565b3480156101f457600080fd5b506101a66102033660046121cd565b6105ce565b34801561021457600080fd5b506102286102233660046121ea565b6105f3565b60405161026e9190815181526020808301516001600160a01b03169082015260408083015190820152606080830151908201526080918201519181019190915260a00190565b60405180910390f35b34801561028357600080fd5b506102976102923660046121b4565b610650565b60405190815260200161026e565b3480156102b157600080fd5b5061029761065b565b3480156102c657600080fd5b506101a66102d536600461221a565b61066a565b3480156102e657600080fd5b506102ef6106e8565b6040516001600160a01b03909116815260200161026e565b34801561031357600080fd5b506102286103223660046121b4565b6106f2565b34801561033357600080fd5b506101a66103423660046122a4565b61074b565b34801561035357600080fd5b50610297610778565b34801561036857600080fd5b506101a66103773660046121b4565b610782565b6101a661038a3660046122e8565b6107a3565b34801561039b57600080fd5b506101a66103aa3660046121b4565b610977565b3480156103bb57600080fd5b506101a66103ca3660046121b4565b610998565b3480156103db57600080fd5b506102ef6109b9565b3480156103f057600080fd5b506102976103ff3660046121b4565b6109c3565b34801561041057600080fd5b5061029761041f3660046121b4565b6109ce565b34801561043057600080fd5b5061044461043f3660046121b4565b6109d9565b604051901515815260200161026e565b34801561046057600080fd5b5061022861046f3660046121b4565b6109e4565b34801561048057600080fd5b506102976109f5565b34801561049557600080fd5b506102976109ff565b3480156104aa57600080fd5b50610297610a09565b3480156104bf57600080fd5b506101a66104ce3660046121b4565b610a13565b3480156104df57600080fd5b506104446104ee3660046121b4565b610a34565b6104fb610a3f565b156105215760405162461bcd60e51b81526004016105189061230a565b60405180910390fd5b610533631094e47960e11b6001610a52565b610544898989898989898989610ac8565b505050505050505050565b6105598133610b37565b50565b61056581610e24565b6105c55760405162461bcd60e51b815260206004820152602b60248201527f456e676c697368506572696f64696341756374696f6e3a2061756374696f6e2060448201526a34b9903737ba1037bb32b960a91b6064820152608401610518565b61055981610ea8565b6000805160206125208339815191526105e68161138b565b6105ef82611395565b5050565b6105fb6120f2565b61060583836113f4565b6040805160a0810182528254815260018301546001600160a01b0316602082015260028301549181019190915260038201546060820152600490910154608082015290505b92915050565b600061064a82611427565b6000610665611502565b905090565b610672610a3f565b1561068f5760405162461bcd60e51b81526004016105189061230a565b6106a1631094e47960e11b6001610a52565b6106b363aba4f05160e01b6001610a52565b6106cb6000805160206125208339815191528b611515565b6106dc898989898989898989610ac8565b50505050505050505050565b6000610665611589565b6106fa6120f2565b610703826115a7565b6040805160a0810182528254815260018301546001600160a01b0316602082015260028301549181019190915260038201546060820152600490910154608082015292915050565b6000805160206125208339815191526107638161138b565b61077086868686866115c4565b505050505050565b60006106656115f8565b60008051602061252083398151915261079a8161138b565b6105ef8261160b565b6107ac82611648565b61081e5760405162461bcd60e51b815260206004820152603c60248201527f456e676c697368506572696f64696341756374696f6e3a2063616e206f6e6c7960448201527f20706c6163652062696420696e2061756374696f6e20706572696f64000000006064820152608401610518565b61082782610e24565b1561089a5760405162461bcd60e51b815260206004820152603d60248201527f456e676c697368506572696f64696341756374696f6e3a2061756374696f6e2060448201527f6973206f76657220616e64206177616974696e67207472616e736665720000006064820152608401610518565b60405163babcc53960e01b8152336004820152309063babcc53990602401602060405180830381865afa1580156108d5573d6000803e3d6000fd5b505050506040513d601f19601f820116820180604052508101906108f9919061235a565b61096b5760405162461bcd60e51b815260206004820152603a60248201527f456e676c697368506572696f64696341756374696f6e3a2073656e646572206960448201527f73206e6f7420616c6c6f77656420746f20706c616365206269640000000000006064820152608401610518565b6105ef823383346116c3565b60008051602061252083398151915261098f8161138b565b6105ef82611bd2565b6000805160206125208339815191526109b08161138b565b6105ef82611c0f565b6000610665611c4c565b600061064a82611c68565b600061064a82611cc4565b600061064a82611648565b6109ec6120f2565b61070382611da6565b6000610665611dc3565b6000610665611dd6565b6000610665611de9565b600080516020612520833981519152610a2b8161138b565b6105ef82611dfc565b600061064a82610e24565b6000610a49611e39565b5460ff16919050565b6001600160e01b03198083169003610a7d5760405163b0a19dd560e01b815260040160405180910390fd5b6001600160e01b03199190911660009081527ffc606c433378e3a7e0a6a531deac289b66caa1b4aa8554fd4ab2c6f1570f92d860205260409020805460ff1916911515919091179055565b6000610ad2611e39565b805460016001600160a81b03199091166101006001600160a01b038d16021781178255810187905560048101889055600381018990559050610b138a611395565b610b1c85611c0f565b610b258461160b565b610b2e83611dfc565b6106dc82611bd2565b6000610b41611e39565b604051634f558e7960e01b8152600481018590529091506000903090634f558e7990602401602060405180830381865afa158015610b83573d6000803e3d6000fd5b505050506040513d601f19601f82011682018060405250810190610ba7919061235a565b15610c13576040516331a9108f60e11b8152600481018590523090636352211e90602401602060405180830381865afa158015610be8573d6000803e3d6000fd5b505050506040513d601f19601f82011682018060405250810190610c0c919061237c565b9050610c25565b50805461010090046001600160a01b03165b6000848152600e830160205260409020600101546001600160a01b0390811690841603610cba5760405162461bcd60e51b815260206004820152603d60248201527f456e676c697368506572696f64696341756374696f6e3a2043616e6e6f74207760448201527f69746864726177206269642069662068696768657374206269646465720000006064820152608401610518565b6000848152600c8301602090815260408083206001600160a01b038716845290915290206004810154610d495760405162461bcd60e51b815260206004820152603160248201527f456e676c697368506572696f64696341756374696f6e3a204e6f20636f6c6c61604482015270746572616c20746f20776974686472617760781b6064820152608401610518565b600481018054600091829055600283018290556040519091906001600160a01b0387169083908381818185875af1925050503d8060008114610da7576040519150601f19603f3d011682016040523d82523d6000602084013e610dac565b606091505b5050905080610e1b5760405162461bcd60e51b815260206004820152603560248201527f456e676c697368506572696f64696341756374696f6e3a204661696c656420746044820152741bc81dda5d1a191c985dc818dbdb1b185d195c985b605a1b6064820152608401610518565b50505050505050565b6000306001600160a01b031663c4e627c26040518163ffffffff1660e01b8152600401602060405180830381865afa158015610e64573d6000803e3d6000fd5b505050506040513d601f19601f82011682018060405250810190610e889190612399565b8210610e9657506000919050565b610e9f82611c68565b42101592915050565b6000610eb2611e39565b604051634f558e7960e01b8152600481018490529091506000903090634f558e7990602401602060405180830381865afa158015610ef4573d6000803e3d6000fd5b505050506040513d601f19601f82011682018060405250810190610f18919061235a565b15610f84576040516331a9108f60e11b8152600481018490523090636352211e90602401602060405180830381865afa158015610f59573d6000803e3d6000fd5b505050506040513d601f19601f82011682018060405250810190610f7d919061237c565b9050610f96565b50805461010090046001600160a01b03165b60008381526009830160209081526040808320429055600e85019091529020600101546001600160a01b031661111c57600082600c01600085815260200190815260200160002060008460020160009054906101000a90046001600160a01b03166001600160a01b03166001600160a01b03168152602001908152602001600020905082600a0160008581526020019081526020016000205481600001819055506000816002018190555060008160040181905550600081600301819055508260020160009054906101000a90046001600160a01b03168160010160006101000a8154816001600160a01b0302191690836001600160a01b031602179055508083600e016000868152602001908152602001600020600082015481600001556001820160009054906101000a90046001600160a01b03168160010160006101000a8154816001600160a01b0302191690836001600160a01b0316021790555060028201548160020155600382015481600301556004820154816004015590505050611167565b6000838152600e83016020908152604080832060020154600c860183528184206001600160a01b038616855290925282206004018054919290916111619084906123c8565b90915550505b6000838152600e8301602081815260408084206001810154600a8801845294829020549383526002015481516001600160a01b03878116825293810191909152919093169286917fdae3b66c823bbdbd53155f9bb3e7693f818e957f816fe910b303fdbe7fa37dab910160405180910390a46000838152600e830160209081526040808320600d86018352818420815481556001808301805482840180546001600160a01b0319166001600160a01b039283161790556002808601549085015560038086015490850155600494850154938501938455600c8a018752858820915416875285528386209092018590558785528490556005860154600b8701845282852055600a86019092529091205461127f916123c8565b6000848152600a84016020908152604080832093909355600e8501905281902060010154905163e31a7c0160e01b81526001600160a01b038084166004830152909116602482015260448101849052309063e31a7c0190606401600060405180830381600087803b1580156112f357600080fd5b505af1158015611307573d6000803e3d6000fd5b5050506000848152600e84016020526040902060030154159050611386576000838152600e8301602052604080822060030154815163e4fc6b6d60e01b81529151309363e4fc6b6d936004808201939182900301818588803b15801561136c57600080fd5b505af1158015611380573d6000803e3d6000fd5b50505050505b505050565b6105598133611e5d565b8061139e611e39565b60020180546001600160a01b0319166001600160a01b0392831617905560405190821681527f03bb52851d1b668acbe31ec6258d6de44a14c1dc0d9db84ab95e8071f5aa989d906020015b60405180910390a150565b60006113fe611e39565b6000938452600c01602090815260408085206001600160a01b0394909416855292905250902090565b600080611432611e39565b90506000306001600160a01b031663fd8e6f286040518163ffffffff1660e01b8152600401602060405180830381865afa158015611474573d6000803e3d6000fd5b505050506040513d601f19601f820116820180604052508101906114989190612399565b6003830154600086815260098501602052604090205491925010156114da5760008481526009830160205260409020546114d39082906123c8565b92506114fb565b60048201546114e990856123db565b82600301546114f891906123c8565b92505b5050919050565b600061150c611e39565b60060154905090565b60008281527fd3889cc5458b268d0544e5534672df1296288ca3f93cbd39bd6f497a5c6228116020526040902061154c9082611ebf565b5060405133906001600160a01b0383169084907f2f8788117e7eff1d82e926ec794901d17c78024a50270940304540a733656f0d90600090a45050565b6000611593611e39565b5461010090046001600160a01b0316919050565b60006115b1611e39565b6000928352600d01602052506040902090565b6115cd85611395565b6115d684611c0f565b6115df8361160b565b6115e882611dfc565b6115f181611bd2565b5050505050565b6000611602611e39565b60070154905090565b80611614611e39565b600601556040518181527f8092df692524f6b78c4746150cae83effcfd6b470cc0038f09a603d42a32388e906020016113e9565b6000306001600160a01b031663c4e627c26040518163ffffffff1660e01b8152600401602060405180830381865afa158015611688573d6000803e3d6000fd5b505050506040513d601f19601f820116820180604052508101906116ac9190612399565b82106116ba57506000919050565b610e9f82611427565b60006116cd611e39565b6000868152600c8201602090815260408083206001600160a01b03891684528252808320898452600a8501835281842054600e86019093529220549293509091036117c25760068201546000878152600e8401602052604090206002015461173591906123c8565b8410156117c25760405162461bcd60e51b815260206004820152604f60248201527f456e676c697368506572696f64696341756374696f6e3a2042696420616d6f7560448201527f6e74206d7573742062652067726561746572207468616e20686967686573742060648201526e1bdd5d1cdd185b991a5b99c8189a59608a1b608482015260a401610518565b6000868152600a830160205260408120548254036117f1578382600401546117ea91906123c8565b90506117f4565b50825b604051634f558e7960e01b81526004810188905260009081903090634f558e7990602401602060405180830381865afa158015611835573d6000803e3d6000fd5b505050506040513d601f19601f82011682018060405250810190611859919061235a565b156118c5576040516331a9108f60e11b8152600481018a90523090636352211e90602401602060405180830381865afa15801561189a573d6000803e3d6000fd5b505050506040513d601f19601f820116820180604052508101906118be919061237c565b90506118d7565b50835461010090046001600160a01b03165b806001600160a01b0316886001600160a01b0316036118f857829150611986565b8683116119795760405162461bcd60e51b815260206004820152604360248201527f456e676c697368506572696f64696341756374696f6e3a20436f6c6c6174657260448201527f616c206d7573742062652067726561746572207468616e2063757272656e7420606482015262189a5960ea1b608482015260a401610518565b61198387846123f2565b91505b6119908783611edb565b6119f15760405162461bcd60e51b815260206004820152602c60248201527f456e676c697368506572696f64696341756374696f6e3a20496e636f7272656360448201526b1d08189a5908185b5bdd5b9d60a21b6064820152608401610518565b878460010160006101000a8154816001600160a01b0302191690836001600160a01b0316021790555086846002018190555084600a0160008a81526020019081526020016000205484600001819055508184600301819055508284600401819055508385600e0160008b8152602001908152602001600020600082015481600001556001820160009054906101000a90046001600160a01b03168160010160006101000a8154816001600160a01b0302191690836001600160a01b031602179055506002820154816002015560038201548160030155600482015481600401559050508360010160009054906101000a90046001600160a01b03166001600160a01b031684600001548a7f6f7e354ea3ab5c288aea37fce29c603f9a98a3b040f6d8f32f10e192ec47ff6a8760020154604051611b3091815260200190565b60405180910390a46000611b438a611c68565b9050428110158015611b645750611b586115f8565b611b6242836123f2565b105b156106dc5760008a8152600b870160205260408120548103611b8f57611b88611de9565b9050611ba2565b5060008a8152600b870160205260409020545b611baa611dd6565b611bb490826123c8565b60008c8152600b890160205260409020555050505050505050505050565b80611bdb611e39565b600801556040518181527f33178f49ae33ce72b1c9e38d72f4ae326b490e4e7c9e02b8735a9ceacf770dee906020016113e9565b80611c18611e39565b600501556040518181527f99578d7fe3e20e279feceaa076eb8032d475ca1a49391ec0a740445152a59713906020016113e9565b6000611c56611e39565b600201546001600160a01b0316919050565b600080611c73611e39565b6000848152600b82016020526040812054919250908103611c9d57611c96611de9565b9050611cb0565b506000838152600b820160205260409020545b80611cba85611427565b6114f891906123c8565b600080306001600160a01b031663e86dea4a6040518163ffffffff1660e01b8152600401602060405180830381865afa158015611d05573d6000803e3d6000fd5b505050506040513d601f19601f82011682018060405250810190611d299190612399565b90506000306001600160a01b031663180b0d7e6040518163ffffffff1660e01b8152600401602060405180830381865afa158015611d6b573d6000803e3d6000fd5b505050506040513d601f19601f82011682018060405250810190611d8f9190612399565b905080611d9c83866123db565b6114f89190612405565b6000611db0611e39565b6000928352600e01602052506040902090565b6000611dcd611e39565b60030154905090565b6000611de0611e39565b60080154905090565b6000611df3611e39565b60050154905090565b80611e05611e39565b600701556040518181527f19ba737fa8db769049b6dafc98d3391bdead47e7f6617113c775efbed1efc6f9906020016113e9565b7fc7ed1b841b2d3c7f16d15642e7b013e89732e44006608d59c7547b8e331a7ce090565b611e678282611ef1565b6105ef57611e7d816001600160a01b0316611f4a565b611e88836020611f5c565b604051602001611e9992919061244b565b60408051601f198184030181529082905262461bcd60e51b8252610518916004016124c0565b6000611ed4836001600160a01b0384166120af565b9392505050565b600080611ee784611cc4565b9092149392505050565b6000611ed4827fd3889cc5458b268d0544e5534672df1296288ca3f93cbd39bd6f497a5c622811600086815260209190915260409020906001600160a01b03811660009081526001830160205260408120541515611ed4565b606061064a6001600160a01b03831660145b60606000611f6b8360026123db565b611f769060026123c8565b67ffffffffffffffff811115611f8e57611f8e6124f3565b6040519080825280601f01601f191660200182016040528015611fb8576020820181803683370190505b509050600360fc1b81600081518110611fd357611fd3612509565b60200101906001600160f81b031916908160001a905350600f60fb1b8160018151811061200257612002612509565b60200101906001600160f81b031916908160001a905350600160028402015b600181111561208f576f181899199a1a9b1b9c1cb0b131b232b360811b85600f166010811061205257612052612509565b1a60f81b82828151811061206857612068612509565b60200101906001600160f81b031916908160001a90535060049490941c9360001901612021565b508315611ed45760405163c913478560e01b815260040160405180910390fd5b600081815260018301602052604081205461064a575081546001808201845560008481526020808220909301849055845493815293810190915260409092205590565b6040518060a001604052806000815260200160006001600160a01b031681526020016000815260200160008152602001600081525090565b6001600160a01b038116811461055957600080fd5b60008060008060008060008060006101208a8c03121561215e57600080fd5b89356121698161212a565b985060208a01356121798161212a565b989b989a505050506040870135966060810135966080820135965060a0820135955060c0820135945060e08201359350610100909101359150565b6000602082840312156121c657600080fd5b5035919050565b6000602082840312156121df57600080fd5b8135611ed48161212a565b600080604083850312156121fd57600080fd5b82359150602083013561220f8161212a565b809150509250929050565b6000806000806000806000806000806101408b8d03121561223a57600080fd5b8a356122458161212a565b995060208b01356122558161212a565b985060408b01356122658161212a565b999c989b5098996060810135995060808101359860a0820135985060c0820135975060e082013596506101008201359550610120909101359350915050565b600080600080600060a086880312156122bc57600080fd5b85356122c78161212a565b97602087013597506040870135966060810135965060800135945092505050565b600080604083850312156122fb57600080fd5b50508035926020909101359150565b60208082526030908201527f456e676c697368506572696f64696341756374696f6e46616365743a20616c7260408201526f1958591e481a5b9a5d1a585b1a5e995960821b606082015260800190565b60006020828403121561236c57600080fd5b81518015158114611ed457600080fd5b60006020828403121561238e57600080fd5b8151611ed48161212a565b6000602082840312156123ab57600080fd5b5051919050565b634e487b7160e01b600052601160045260246000fd5b8082018082111561064a5761064a6123b2565b808202811582820484141761064a5761064a6123b2565b8181038181111561064a5761064a6123b2565b60008261242257634e487b7160e01b600052601260045260246000fd5b500490565b60005b8381101561244257818101518382015260200161242a565b50506000910152565b7f416363657373436f6e74726f6c3a206163636f756e7420000000000000000000815260008351612483816017850160208801612427565b7001034b99036b4b9b9b4b733903937b6329607d1b60179184019182015283516124b4816028840160208801612427565b01602801949350505050565b60208152600082518060208401526124df816040850160208701612427565b601f01601f19169190910160400192915050565b634e487b7160e01b600052604160045260246000fd5b634e487b7160e01b600052603260045260246000fdfe27d47e2aa570d0f5aa1d72abbe4d60032a12e3514b8c2bc8a49a9968779054c2a2646970667358221220c9e9cca0188cce353f88d54df419412cffb99d71192eef7e393f9d7a79858e4064736f6c63430008110033",
  "devdoc": {
    "kind": "dev",
    "methods": {},
    "title": "EnglishPeriodicAuctionFacet",
    "version": 1
  },
  "userdoc": {
    "kind": "user",
    "methods": {
      "auctionEndTime(uint256)": {
        "notice": "Get auction end time"
      },
      "auctionLengthSeconds()": {
        "notice": "Get auction length"
      },
      "auctionStartTime(uint256)": {
        "notice": "Get auction start time"
      },
      "bidExtensionSeconds()": {
        "notice": "Get bid extension seconds"
      },
      "bidExtensionWindowLengthSeconds()": {
        "notice": "Get bid extension window length"
      },
      "bidOf(uint256,address)": {
        "notice": "Get bid for address"
      },
      "calculateFeeFromBid(uint256)": {
        "notice": "Calculate fee from bid"
      },
      "closeAuction(uint256)": {
        "notice": "Close auction and trigger a transfer to the highest bidder"
      },
      "currentBid(uint256)": {
        "notice": "Get current bid"
      },
      "highestBid(uint256)": {
        "notice": "Get highest outstanding bid"
      },
      "initialBidder()": {
        "notice": "Get initial bidder"
      },
      "initialPeriodStartTime()": {
        "notice": "Get initial period start time"
      },
      "initializeAuction(address,address,address,uint256,uint256,uint256,uint256,uint256,uint256,uint256)": {
        "notice": "Initialize auction parameters with owner"
      },
      "initializeAuction(address,address,uint256,uint256,uint256,uint256,uint256,uint256,uint256)": {
        "notice": "Initialize auction parameters"
      },
      "isAuctionPeriod(uint256)": {
        "notice": "Get is auction period"
      },
      "isReadyForTransfer(uint256)": {
        "notice": "Is token ready for transfer"
      },
      "minBidIncrement()": {
        "notice": "Get minimum bid increment"
      },
      "placeBid(uint256,uint256)": {
        "notice": "Place a bid"
      },
      "repossessor()": {
        "notice": "Get repossessor"
      },
      "setAuctionLengthSeconds(uint256)": {
        "notice": "Set auction length"
      },
      "setAuctionParameters(address,uint256,uint256,uint256,uint256)": {
        "notice": "Set auction parameters"
      },
      "setBidExtensionSeconds(uint256)": {
        "notice": "Set bid extension seconds"
      },
      "setBidExtensionWindowLengthSeconds(uint256)": {
        "notice": "Set bid extension window length"
      },
      "setMinBidIncrement(uint256)": {
        "notice": "Set minimum bid increment"
      },
      "setRepossessor(address)": {
        "notice": "Set repossessor"
      },
      "withdrawBid(uint256)": {
        "notice": "Withdraw bid collateral"
      }
    },
    "version": 1
  },
  "storageLayout": {
    "storage": [],
    "types": null
  }
}