{
  "address": "0x59aEeFC8421D59f260a5E5b959BFcc86B59C8415",
  "abi": [
    {
      "inputs": [],
      "name": "ERC165Base__InvalidInterfaceId",
      "type": "error"
    },
    {
      "inputs": [],
      "name": "UintUtils__InsufficientHexLength",
      "type": "error"
    },
    {
      "anonymous": false,
      "inputs": [
        {
          "indexed": true,
          "internalType": "address",
          "name": "subscriber",
          "type": "address"
        },
        {
          "indexed": false,
          "internalType": "uint128",
          "name": "units",
          "type": "uint128"
        }
      ],
      "name": "BeneficiaryUnitsUpdated",
      "type": "event"
    },
    {
      "anonymous": false,
      "inputs": [
        {
          "indexed": false,
          "internalType": "uint256",
          "name": "amount",
          "type": "uint256"
        }
      ],
      "name": "Distributed",
      "type": "event"
    },
    {
      "anonymous": false,
      "inputs": [
        {
          "indexed": true,
          "internalType": "bytes32",
          "name": "role",
          "type": "bytes32"
        },
        {
          "indexed": true,
          "internalType": "bytes32",
          "name": "previousAdminRole",
          "type": "bytes32"
        },
        {
          "indexed": true,
          "internalType": "bytes32",
          "name": "newAdminRole",
          "type": "bytes32"
        }
      ],
      "name": "RoleAdminChanged",
      "type": "event"
    },
    {
      "anonymous": false,
      "inputs": [
        {
          "indexed": true,
          "internalType": "bytes32",
          "name": "role",
          "type": "bytes32"
        },
        {
          "indexed": true,
          "internalType": "address",
          "name": "account",
          "type": "address"
        },
        {
          "indexed": true,
          "internalType": "address",
          "name": "sender",
          "type": "address"
        }
      ],
      "name": "RoleGranted",
      "type": "event"
    },
    {
      "anonymous": false,
      "inputs": [
        {
          "indexed": true,
          "internalType": "bytes32",
          "name": "role",
          "type": "bytes32"
        },
        {
          "indexed": true,
          "internalType": "address",
          "name": "account",
          "type": "address"
        },
        {
          "indexed": true,
          "internalType": "address",
          "name": "sender",
          "type": "address"
        }
      ],
      "name": "RoleRevoked",
      "type": "event"
    },
    {
      "anonymous": false,
      "inputs": [
        {
          "indexed": true,
          "internalType": "address",
          "name": "token",
          "type": "address"
        }
      ],
      "name": "TokenSet",
      "type": "event"
    },
    {
      "inputs": [],
      "name": "distribute",
      "outputs": [],
      "stateMutability": "payable",
      "type": "function"
    },
    {
      "inputs": [
        {
          "internalType": "contract ISETH",
          "name": "_token",
          "type": "address"
        },
        {
          "components": [
            {
              "internalType": "address",
              "name": "subscriber",
              "type": "address"
            },
            {
              "internalType": "uint128",
              "name": "units",
              "type": "uint128"
            }
          ],
          "internalType": "struct IIDABeneficiaryInternal.Beneficiary[]",
          "name": "_beneficiaries",
          "type": "tuple[]"
        }
      ],
      "name": "initializeIDABeneficiary",
      "outputs": [],
      "stateMutability": "nonpayable",
      "type": "function"
    },
    {
      "inputs": [
        {
          "internalType": "address",
          "name": "_owner",
          "type": "address"
        },
        {
          "internalType": "contract ISETH",
          "name": "_token",
          "type": "address"
        },
        {
          "components": [
            {
              "internalType": "address",
              "name": "subscriber",
              "type": "address"
            },
            {
              "internalType": "uint128",
              "name": "units",
              "type": "uint128"
            }
          ],
          "internalType": "struct IIDABeneficiaryInternal.Beneficiary[]",
          "name": "_beneficiaries",
          "type": "tuple[]"
        }
      ],
      "name": "initializeIDABeneficiary",
      "outputs": [],
      "stateMutability": "nonpayable",
      "type": "function"
    },
    {
      "inputs": [
        {
          "components": [
            {
              "internalType": "address",
              "name": "subscriber",
              "type": "address"
            },
            {
              "internalType": "uint128",
              "name": "units",
              "type": "uint128"
            }
          ],
          "internalType": "struct IIDABeneficiaryInternal.Beneficiary[]",
          "name": "_beneficiaries",
          "type": "tuple[]"
        }
      ],
      "name": "updateBeneficiaryUnits",
      "outputs": [],
      "stateMutability": "nonpayable",
      "type": "function"
    }
  ],
  "transactionHash": "0xf9e6d76721b6caceff4fc347648681e4f3f4aadeab1615d4e8a942183a130e25",
  "args": [],
  "numDeployments": 5,
  "solcInputHash": "c548b1a12c4a5b4508c1d2fe38e3b576",
  "bytecode": "0x608060405234801561001057600080fd5b5061137e806100206000396000f3fe60806040526004361061003f5760003560e01c806307cbd36c14610044578063172cedd614610066578063af5bcdac14610086578063e4fc6b6d146100a6575b600080fd5b34801561005057600080fd5b5061006461005f366004610ecc565b6100ae565b005b34801561007257600080fd5b50610064610081366004610f09565b6100e5565b34801561009257600080fd5b506100646100a1366004610f59565b61013a565b6100646101c7565b7f84882401b15b07d66e021ce83aef83bb1d37009af2fea3a7c3ed872472642fed6100d881610248565b6100e182610255565b5050565b6000805160206113298339815191525460ff161561011e5760405162461bcd60e51b815260040161011590610fbb565b60405180910390fd5b61013063e4fc6b6d60e01b6001610368565b6100e182826103de565b6000805160206113298339815191525460ff161561016a5760405162461bcd60e51b815260040161011590610fbb565b61017c63e4fc6b6d60e01b6001610368565b61018e6301f2f4db60e21b6001610368565b6101b87f84882401b15b07d66e021ce83aef83bb1d37009af2fea3a7c3ed872472642fed8461040a565b6101c282826103de565b505050565b6000341161023d5760405162461bcd60e51b815260206004820152603760248201527f49444142656e656669636961727946616365743a206d73672e76616c7565207360448201527f686f756c642062652067726561746572207468616e20300000000000000000006064820152608401610115565b6102463461047e565b565b610252813361054a565b50565b60008051602061132983398151915260005b82518110156101c25782818151811061028257610282611003565b6020026020010151600001516001600160a01b03167fa28017dec7757734b2d9df357f162beb25e6b604314dde5986a698a7cda3423d8483815181106102ca576102ca611003565b6020026020010151602001516040516102f291906001600160801b0391909116815260200190565b60405180910390a2610355600084838151811061031157610311611003565b60200260200101516000015185848151811061032f5761032f611003565b6020908102919091018101510151855461010090046001600160a01b03169291906105ac565b50806103608161102f565b915050610267565b6001600160e01b031980831690036103935760405163b0a19dd560e01b815260040160405180910390fd5b6001600160e01b03199190911660009081527ffc606c433378e3a7e0a6a531deac289b66caa1b4aa8554fd4ab2c6f1570f92d860205260409020805460ff1916911515919091179055565b600080516020611329833981519152805460ff19166001178155610401836106d8565b6101c282610255565b60008281527fd3889cc5458b268d0544e5534672df1296288ca3f93cbd39bd6f497a5c62281160205260409020610441908261074f565b5060405133906001600160a01b0383169084907f2f8788117e7eff1d82e926ec794901d17c78024a50270940304540a733656f0d90600090a45050565b604051818152600080516020611329833981519152907fddc9c30275a04c48091f24199f9c405765de34d979d6847f5b9798a57232d2e59060200160405180910390a18060000160019054906101000a90046001600160a01b03166001600160a01b031663cf81464b836040518263ffffffff1660e01b81526004016000604051808303818588803b15801561051357600080fd5b505af1158015610527573d6000803e3d6000fd5b505083546101c2935061010090046001600160a01b03169150600090508461076d565b6105548282610896565b6100e15761056a816001600160a01b03166108ef565b610575836020610901565b60405160200161058692919061106c565b60408051601f198184030181529082905262461bcd60e51b82526101159160040161110d565b60008060006105ba87610a54565b91509150816001600160a01b03166339255d5b82836001600160a01b031663232d2b588b8b8b8b600067ffffffffffffffff8111156105fb576105fb610d84565b6040519080825280601f01601f191660200182016040528015610625576020820181803683370190505b5060405160240161063a959493929190611120565b60408051808303601f1901815291815260208201805160e094851b6001600160e01b03909116179052519185901b6001600160e01b031916825261068393925090600401611172565b6000604051808303816000875af11580156106a2573d6000803e3d6000fd5b505050506040513d6000823e601f3d908101601f191682016040526106ca91908101906111b9565b506001979650505050505050565b604051600080516020611329833981519152906001600160a01b038316907fa07c91c183e42229e705a9795a1c06d76528b673788b849597364528c96eefb790600090a28054610100600160a81b0319166101006001600160a01b038481168202929092178084556101c292919004166000610c1b565b6000610764836001600160a01b038416610d41565b90505b92915050565b600080600061077b86610a54565b91509150816001600160a01b03166339255d5b82836001600160a01b031663b96731c28a8a8a600067ffffffffffffffff8111156107bb576107bb610d84565b6040519080825280601f01601f1916602001820160405280156107e5576020820181803683370190505b506040516024016107f9949392919061124d565b60408051808303601f1901815291815260208201805160e094851b6001600160e01b03909116179052519185901b6001600160e01b031916825261084293925090600401611172565b6000604051808303816000875af1158015610861573d6000803e3d6000fd5b505050506040513d6000823e601f3d908101601f1916820160405261088991908101906111b9565b5060019695505050505050565b6000610764827fd3889cc5458b268d0544e5534672df1296288ca3f93cbd39bd6f497a5c622811600086815260209190915260409020906001600160a01b03811660009081526001830160205260408120541515610764565b60606107676001600160a01b03831660145b6060600061091083600261128a565b61091b9060026112a9565b67ffffffffffffffff81111561093357610933610d84565b6040519080825280601f01601f19166020018201604052801561095d576020820181803683370190505b509050600360fc1b8160008151811061097857610978611003565b60200101906001600160f81b031916908160001a905350600f60fb1b816001815181106109a7576109a7611003565b60200101906001600160f81b031916908160001a905350600160028402015b6001811115610a34576f181899199a1a9b1b9c1cb0b131b232b360811b85600f16601081106109f7576109f7611003565b1a60f81b828281518110610a0d57610a0d611003565b60200101906001600160f81b031916908160001a90535060049490941c93600019016109c6565b5083156107645760405163c913478560e01b815260040160405180910390fd5b7f65599bf746e17a00ea62e3610586992d88101b78eec3cf380706621fb97ea837547fa832ee1924ea960211af2df07d65d166232018f613ac6708043cd8f8773eddeb546001600160a01b038116610bea576001600160a01b038216610b1957826001600160a01b03166320bc44256040518163ffffffff1660e01b8152600401602060405180830381865afa158015610af2573d6000803e3d6000fd5b505050506040513d601f19601f82011682018060405250810190610b1691906112bc565b91505b604051635b69006f60e11b81527f8aedc3b5d4bf031e11a7e2940f7251c005698405d58e02e1c247fed3b1b3a67460048201526001600160a01b0383169063b6d200de90602401602060405180830381865afa158015610b7d573d6000803e3d6000fd5b505050506040513d601f19601f82011682018060405250810190610ba191906112bc565b9050817f65599bf746e17a00ea62e3610586992d88101b78eec3cf380706621fb97ea83755807fa832ee1924ea960211af2df07d65d166232018f613ac6708043cd8f8773eddeb555b6001600160a01b038216610c0057610c006112d9565b6001600160a01b038116610c1657610c166112d9565b915091565b6000806000610c2985610a54565b91509150816001600160a01b03166339255d5b82836001600160a01b031663d787840a8989600067ffffffffffffffff811115610c6857610c68610d84565b6040519080825280601f01601f191660200182016040528015610c92576020820181803683370190505b50604051602401610ca5939291906112ef565b60408051808303601f1901815291815260208201805160e094851b6001600160e01b03909116179052519185901b6001600160e01b0319168252610cee93925090600401611172565b6000604051808303816000875af1158015610d0d573d6000803e3d6000fd5b505050506040513d6000823e601f3d908101601f19168201604052610d3591908101906111b9565b50600195945050505050565b6000818152600183016020526040812054610767575081546001808201845560008481526020808220909301849055845493815293810190915260409092205590565b634e487b7160e01b600052604160045260246000fd5b6040805190810167ffffffffffffffff81118282101715610dbd57610dbd610d84565b60405290565b604051601f8201601f1916810167ffffffffffffffff81118282101715610dec57610dec610d84565b604052919050565b6001600160a01b038116811461025257600080fd5b600082601f830112610e1a57600080fd5b8135602067ffffffffffffffff821115610e3657610e36610d84565b610e44818360051b01610dc3565b82815260069290921b84018101918181019086841115610e6357600080fd5b8286015b84811015610ec15760408189031215610e805760008081fd5b610e88610d9a565b8135610e9381610df4565b8152818501356001600160801b0381168114610eaf5760008081fd5b81860152835291830191604001610e67565b509695505050505050565b600060208284031215610ede57600080fd5b813567ffffffffffffffff811115610ef557600080fd5b610f0184828501610e09565b949350505050565b60008060408385031215610f1c57600080fd5b8235610f2781610df4565b9150602083013567ffffffffffffffff811115610f4357600080fd5b610f4f85828601610e09565b9150509250929050565b600080600060608486031215610f6e57600080fd5b8335610f7981610df4565b92506020840135610f8981610df4565b9150604084013567ffffffffffffffff811115610fa557600080fd5b610fb186828701610e09565b9150509250925092565b60208082526028908201527f49444142656e656669636961727946616365743a20616c726561647920696e696040820152671d1a585b1a5e995960c21b606082015260800190565b634e487b7160e01b600052603260045260246000fd5b634e487b7160e01b600052601160045260246000fd5b60006001820161104157611041611019565b5060010190565b60005b8381101561106357818101518382015260200161104b565b50506000910152565b7f416363657373436f6e74726f6c3a206163636f756e74200000000000000000008152600083516110a4816017850160208801611048565b7001034b99036b4b9b9b4b733903937b6329607d1b60179184019182015283516110d5816028840160208801611048565b01602801949350505050565b600081518084526110f9816020860160208601611048565b601f01601f19169290920160200192915050565b60208152600061076460208301846110e1565b6001600160a01b03868116825263ffffffff86166020830152841660408201526001600160801b038316606082015260a060808201819052600090611167908301846110e1565b979650505050505050565b6001600160a01b0383168152606060208201819052600090611196908301846110e1565b8281036040938401526002815261060f60f31b6020820152919091019392505050565b6000602082840312156111cb57600080fd5b815167ffffffffffffffff808211156111e357600080fd5b818401915084601f8301126111f757600080fd5b81518181111561120957611209610d84565b61121c601f8201601f1916602001610dc3565b915080825285602082850101111561123357600080fd5b611244816020840160208601611048565b50949350505050565b60018060a01b038516815263ffffffff8416602082015282604082015260806060820152600061128060808301846110e1565b9695505050505050565b60008160001904831182151516156112a4576112a4611019565b500290565b8082018082111561076757610767611019565b6000602082840312156112ce57600080fd5b815161076481610df4565b634e487b7160e01b600052600160045260246000fd5b6001600160a01b038416815263ffffffff8316602082015260606040820181905260009061131f908301846110e1565b9594505050505056feed2630950398e2a792098014fdcfd8d9817be362c12f8684d7b7f9c1f2dd36c4a2646970667358221220e1afd3f7a04a00b92c99dfeb3652f8725c3851db66a3adf560610a6e923d2c7864736f6c63430008100033",
  "devdoc": {
    "details": "Beneficiary implemented using a Superfluid IDA index",
    "kind": "dev",
    "methods": {},
    "title": "IDABeneficiaryFacet",
    "version": 1
  },
  "userdoc": {
    "kind": "user",
    "methods": {
      "distribute()": {
        "notice": "Distribute to beneficiaries"
      },
      "initializeIDABeneficiary(address,(address,uint128)[])": {
        "notice": "Initialize beneficiary"
      },
      "initializeIDABeneficiary(address,address,(address,uint128)[])": {
        "notice": "Initialize beneficiary"
      },
      "updateBeneficiaryUnits((address,uint128)[])": {
        "notice": "Update beneficiaries"
      }
    },
    "version": 1
  },
  "storageLayout": {
    "storage": [],
    "types": null
  }
}