{
  "address": "0xD126506f628ADe47B12430a652cEdB178629E593",
  "abi": [
    {
      "inputs": [],
      "name": "AddressUtils__NotContract",
      "type": "error"
    },
    {
      "inputs": [],
      "name": "ERC165Base__InvalidInterfaceId",
      "type": "error"
    },
    {
      "inputs": [],
      "name": "ERC721Base__BalanceQueryZeroAddress",
      "type": "error"
    },
    {
      "inputs": [],
      "name": "ERC721Base__ERC721ReceiverNotImplemented",
      "type": "error"
    },
    {
      "inputs": [],
      "name": "ERC721Base__InvalidOwner",
      "type": "error"
    },
    {
      "inputs": [],
      "name": "ERC721Base__MintToZeroAddress",
      "type": "error"
    },
    {
      "inputs": [],
      "name": "ERC721Base__NonExistentToken",
      "type": "error"
    },
    {
      "inputs": [],
      "name": "ERC721Base__NotOwnerOrApproved",
      "type": "error"
    },
    {
      "inputs": [],
      "name": "ERC721Base__NotTokenOwner",
      "type": "error"
    },
    {
      "inputs": [],
      "name": "ERC721Base__SelfApproval",
      "type": "error"
    },
    {
      "inputs": [],
      "name": "ERC721Base__TokenAlreadyMinted",
      "type": "error"
    },
    {
      "inputs": [],
      "name": "ERC721Base__TransferToZeroAddress",
      "type": "error"
    },
    {
      "inputs": [],
      "name": "ERC721Metadata__NonExistentToken",
      "type": "error"
    },
    {
      "inputs": [],
      "name": "EnumerableMap__IndexOutOfBounds",
      "type": "error"
    },
    {
      "inputs": [],
      "name": "EnumerableMap__NonExistentKey",
      "type": "error"
    },
    {
      "inputs": [],
      "name": "EnumerableSet__IndexOutOfBounds",
      "type": "error"
    },
    {
      "anonymous": false,
      "inputs": [
        {
          "indexed": true,
          "internalType": "address",
          "name": "owner",
          "type": "address"
        },
        {
          "indexed": true,
          "internalType": "address",
          "name": "operator",
          "type": "address"
        },
        {
          "indexed": true,
          "internalType": "uint256",
          "name": "tokenId",
          "type": "uint256"
        }
      ],
      "name": "Approval",
      "type": "event"
    },
    {
      "anonymous": false,
      "inputs": [
        {
          "indexed": true,
          "internalType": "address",
          "name": "owner",
          "type": "address"
        },
        {
          "indexed": true,
          "internalType": "address",
          "name": "operator",
          "type": "address"
        },
        {
          "indexed": false,
          "internalType": "bool",
          "name": "approved",
          "type": "bool"
        }
      ],
      "name": "ApprovalForAll",
      "type": "event"
    },
    {
      "anonymous": false,
      "inputs": [
        {
          "indexed": true,
          "internalType": "address",
          "name": "from",
          "type": "address"
        },
        {
          "indexed": true,
          "internalType": "address",
          "name": "to",
          "type": "address"
        },
        {
          "indexed": true,
          "internalType": "uint256",
          "name": "tokenId",
          "type": "uint256"
        }
      ],
      "name": "Transfer",
      "type": "event"
    },
    {
      "inputs": [
        {
          "internalType": "address",
          "name": "to",
          "type": "address"
        },
        {
          "internalType": "string",
          "name": "tokenURI",
          "type": "string"
        }
      ],
      "name": "addTokenToCollection",
      "outputs": [],
      "stateMutability": "nonpayable",
      "type": "function"
    },
    {
      "inputs": [
        {
          "internalType": "string[]",
          "name": "tokenURIs",
          "type": "string[]"
        }
      ],
      "name": "addTokensToCollection",
      "outputs": [],
      "stateMutability": "nonpayable",
      "type": "function"
    },
    {
      "inputs": [
        {
          "internalType": "address[]",
          "name": "to",
          "type": "address[]"
        },
        {
          "internalType": "string[]",
          "name": "tokenURIs",
          "type": "string[]"
        }
      ],
      "name": "addTokensToCollection",
      "outputs": [],
      "stateMutability": "nonpayable",
      "type": "function"
    },
    {
      "inputs": [
        {
          "internalType": "uint32",
          "name": "amount",
          "type": "uint32"
        },
        {
          "internalType": "string",
          "name": "baseURI",
          "type": "string"
        }
      ],
      "name": "addTokensWithBaseURIToCollection",
      "outputs": [],
      "stateMutability": "nonpayable",
      "type": "function"
    },
    {
      "inputs": [
        {
          "internalType": "address",
          "name": "operator",
          "type": "address"
        },
        {
          "internalType": "uint256",
          "name": "tokenId",
          "type": "uint256"
        }
      ],
      "name": "approve",
      "outputs": [],
      "stateMutability": "payable",
      "type": "function"
    },
    {
      "inputs": [
        {
          "internalType": "address",
          "name": "account",
          "type": "address"
        }
      ],
      "name": "balanceOf",
      "outputs": [
        {
          "internalType": "uint256",
          "name": "",
          "type": "uint256"
        }
      ],
      "stateMutability": "view",
      "type": "function"
    },
    {
      "inputs": [
        {
          "internalType": "uint256",
          "name": "tokenId",
          "type": "uint256"
        }
      ],
      "name": "exists",
      "outputs": [
        {
          "internalType": "bool",
          "name": "",
          "type": "bool"
        }
      ],
      "stateMutability": "view",
      "type": "function"
    },
    {
      "inputs": [
        {
          "internalType": "uint256",
          "name": "tokenId",
          "type": "uint256"
        }
      ],
      "name": "getApproved",
      "outputs": [
        {
          "internalType": "address",
          "name": "",
          "type": "address"
        }
      ],
      "stateMutability": "view",
      "type": "function"
    },
    {
      "inputs": [
        {
          "internalType": "address",
          "name": "_minter",
          "type": "address"
        },
        {
          "internalType": "address",
          "name": "_steward",
          "type": "address"
        },
        {
          "internalType": "uint256",
          "name": "_maxTokenCount",
          "type": "uint256"
        },
        {
          "internalType": "bool",
          "name": "shouldMint",
          "type": "bool"
        },
        {
          "internalType": "string",
          "name": "name",
          "type": "string"
        },
        {
          "internalType": "string",
          "name": "symbol",
          "type": "string"
        },
        {
          "internalType": "string",
          "name": "baseURI",
          "type": "string"
        }
      ],
      "name": "initializeStewardLicense",
      "outputs": [],
      "stateMutability": "nonpayable",
      "type": "function"
    },
    {
      "inputs": [
        {
          "internalType": "address",
          "name": "account",
          "type": "address"
        },
        {
          "internalType": "address",
          "name": "operator",
          "type": "address"
        }
      ],
      "name": "isApprovedForAll",
      "outputs": [
        {
          "internalType": "bool",
          "name": "",
          "type": "bool"
        }
      ],
      "stateMutability": "view",
      "type": "function"
    },
    {
      "inputs": [],
      "name": "maxTokenCount",
      "outputs": [
        {
          "internalType": "uint256",
          "name": "",
          "type": "uint256"
        }
      ],
      "stateMutability": "view",
      "type": "function"
    },
    {
      "inputs": [
        {
          "internalType": "address",
          "name": "to",
          "type": "address"
        },
        {
          "internalType": "uint256",
          "name": "tokenId",
          "type": "uint256"
        }
      ],
      "name": "mintToken",
      "outputs": [],
      "stateMutability": "nonpayable",
      "type": "function"
    },
    {
      "inputs": [],
      "name": "minter",
      "outputs": [
        {
          "internalType": "address",
          "name": "",
          "type": "address"
        }
      ],
      "stateMutability": "view",
      "type": "function"
    },
    {
      "inputs": [],
      "name": "name",
      "outputs": [
        {
          "internalType": "string",
          "name": "",
          "type": "string"
        }
      ],
      "stateMutability": "view",
      "type": "function"
    },
    {
      "inputs": [
        {
          "internalType": "uint256",
          "name": "tokenId",
          "type": "uint256"
        }
      ],
      "name": "ownerOf",
      "outputs": [
        {
          "internalType": "address",
          "name": "",
          "type": "address"
        }
      ],
      "stateMutability": "view",
      "type": "function"
    },
    {
      "inputs": [
        {
          "internalType": "address",
          "name": "from",
          "type": "address"
        },
        {
          "internalType": "address",
          "name": "to",
          "type": "address"
        },
        {
          "internalType": "uint256",
          "name": "tokenId",
          "type": "uint256"
        }
      ],
      "name": "safeTransferFrom",
      "outputs": [],
      "stateMutability": "payable",
      "type": "function"
    },
    {
      "inputs": [
        {
          "internalType": "address",
          "name": "from",
          "type": "address"
        },
        {
          "internalType": "address",
          "name": "to",
          "type": "address"
        },
        {
          "internalType": "uint256",
          "name": "tokenId",
          "type": "uint256"
        },
        {
          "internalType": "bytes",
          "name": "data",
          "type": "bytes"
        }
      ],
      "name": "safeTransferFrom",
      "outputs": [],
      "stateMutability": "payable",
      "type": "function"
    },
    {
      "inputs": [
        {
          "internalType": "address",
          "name": "operator",
          "type": "address"
        },
        {
          "internalType": "bool",
          "name": "status",
          "type": "bool"
        }
      ],
      "name": "setApprovalForAll",
      "outputs": [],
      "stateMutability": "nonpayable",
      "type": "function"
    },
    {
      "inputs": [
        {
          "internalType": "bytes4",
          "name": "interfaceId",
          "type": "bytes4"
        }
      ],
      "name": "supportsInterface",
      "outputs": [
        {
          "internalType": "bool",
          "name": "",
          "type": "bool"
        }
      ],
      "stateMutability": "view",
      "type": "function"
    },
    {
      "inputs": [],
      "name": "symbol",
      "outputs": [
        {
          "internalType": "string",
          "name": "",
          "type": "string"
        }
      ],
      "stateMutability": "view",
      "type": "function"
    },
    {
      "inputs": [
        {
          "internalType": "uint256",
          "name": "index",
          "type": "uint256"
        }
      ],
      "name": "tokenByIndex",
      "outputs": [
        {
          "internalType": "uint256",
          "name": "",
          "type": "uint256"
        }
      ],
      "stateMutability": "view",
      "type": "function"
    },
    {
      "inputs": [
        {
          "internalType": "address",
          "name": "owner",
          "type": "address"
        },
        {
          "internalType": "uint256",
          "name": "index",
          "type": "uint256"
        }
      ],
      "name": "tokenOfOwnerByIndex",
      "outputs": [
        {
          "internalType": "uint256",
          "name": "",
          "type": "uint256"
        }
      ],
      "stateMutability": "view",
      "type": "function"
    },
    {
      "inputs": [
        {
          "internalType": "uint256",
          "name": "tokenId",
          "type": "uint256"
        }
      ],
      "name": "tokenURI",
      "outputs": [
        {
          "internalType": "string",
          "name": "",
          "type": "string"
        }
      ],
      "stateMutability": "view",
      "type": "function"
    },
    {
      "inputs": [],
      "name": "totalSupply",
      "outputs": [
        {
          "internalType": "uint256",
          "name": "",
          "type": "uint256"
        }
      ],
      "stateMutability": "view",
      "type": "function"
    },
    {
      "inputs": [
        {
          "internalType": "address",
          "name": "from",
          "type": "address"
        },
        {
          "internalType": "address",
          "name": "to",
          "type": "address"
        },
        {
          "internalType": "uint256",
          "name": "tokenId",
          "type": "uint256"
        }
      ],
      "name": "transferFrom",
      "outputs": [],
      "stateMutability": "payable",
      "type": "function"
    },
    {
      "inputs": [
        {
          "internalType": "address",
          "name": "from",
          "type": "address"
        },
        {
          "internalType": "address",
          "name": "to",
          "type": "address"
        },
        {
          "internalType": "uint256",
          "name": "tokenId",
          "type": "uint256"
        }
      ],
      "name": "triggerTransfer",
      "outputs": [],
      "stateMutability": "nonpayable",
      "type": "function"
    }
  ],
  "transactionHash": "0x7541267d0d7a5d6e555968afc00005bae2ca9b11edf3c627fb11d53e7e0ac9c4",
  "args": [],
  "numDeployments": 5,
  "solcInputHash": "365e8fb0f9d1ed5a73a0ee2c9934cb6e",
  "bytecode": "0x608060405234801561001057600080fd5b50612b41806100206000396000f3fe6080604052600436106101815760003560e01c80634f6ccce7116100d1578063a22cb4651161008a578063c87b56dd11610064578063c87b56dd14610425578063e31a7c0114610445578063e95a272f14610465578063e985e9c51461048557600080fd5b8063a22cb465146103dd578063b88d4fde146103fd578063c4e627c21461041057600080fd5b80634f6ccce7146103285780636352211e146103485780636a2e019f1461036857806370a082311461038857806379c65068146103a857806395d89b41146103c857600080fd5b806323b872dd1161013e57806342842e0e1161011857806342842e0e146102b55780634a47f8fd146102c85780634a7c554f146102e85780634f558e791461030857600080fd5b806323b872dd14610262578063269aab0e146102755780632f745c591461029557600080fd5b806301ffc9a71461018657806306fdde03146101bb57806307546172146101dd578063081812fc1461020a578063095ea7b31461022a57806318160ddd1461023f575b600080fd5b34801561019257600080fd5b506101a66101a13660046120d0565b6104a5565b60405190151581526020015b60405180910390f35b3480156101c757600080fd5b506101d06104e8565b6040516101b2919061213d565b3480156101e957600080fd5b506101f26104f7565b6040516001600160a01b0390911681526020016101b2565b34801561021657600080fd5b506101f2610225366004612150565b61052a565b61023d61023836600461217e565b610535565b005b34801561024b57600080fd5b506102546105c1565b6040519081526020016101b2565b61023d6102703660046121aa565b6105cb565b34801561028157600080fd5b5061023d61029036600461235e565b6105fd565b3480156102a157600080fd5b506102546102b036600461217e565b6106de565b61023d6102c33660046121aa565b6106f1565b3480156102d457600080fd5b5061023d6102e33660046123b1565b61070c565b3480156102f457600080fd5b5061023d610303366004612479565b610795565b34801561031457600080fd5b506101a6610323366004612150565b6108e3565b34801561033457600080fd5b50610254610343366004612150565b6108ee565b34801561035457600080fd5b506101f2610363366004612150565b6108f9565b34801561037457600080fd5b5061023d61038336600461253b565b610904565b34801561039457600080fd5b506102546103a3366004612581565b610a04565b3480156103b457600080fd5b5061023d6103c336600461217e565b610a0f565b3480156103d457600080fd5b506101d0610c43565b3480156103e957600080fd5b5061023d6103f836600461259e565b610c4d565b61023d61040b3660046125d7565b610d01565b34801561041c57600080fd5b50610254610d3a565b34801561043157600080fd5b506101d0610440366004612150565b610d52565b34801561045157600080fd5b5061023d6104603660046121aa565b610d5d565b34801561047157600080fd5b5061023d610480366004612657565b610df2565b34801561049157600080fd5b506101a66104a036600461267e565b610eb6565b6001600160e01b0319811660009081527ffc606c433378e3a7e0a6a531deac289b66caa1b4aa8554fd4ab2c6f1570f92d8602052604081205460ff165b92915050565b60606104f2610ec2565b905090565b60006104f27f79ec1734da2430052e9d78936f451aad707e5bed12ef4806b06dc3d0c38f0e31546001600160a01b031690565b60006104e282610f61565b6000610540826108f9565b9050806001600160a01b0316836001600160a01b0316036105745760405163424a22cb60e01b815260040160405180910390fd5b336001600160a01b0382161480159061059457506105928133610eb6565b155b156105b257604051632f5de44f60e01b815260040160405180910390fd5b6105bc8383610fc4565b505050565b60006104f2611051565b6105d5338261106a565b6105f257604051632f5de44f60e01b815260040160405180910390fd5b6105bc8383836110f0565b306001600160a01b0316633882ce8e6040518163ffffffff1660e01b8152600401602060405180830381865afa15801561063b573d6000803e3d6000fd5b505050506040513d601f19601f8201168201806040525081019061065f91906126ac565b6001600160a01b0316336001600160a01b0316146106985760405162461bcd60e51b815260040161068f906126c9565b60405180910390fd5b60005b81518110156106da576106c860008383815181106106bb576106bb612734565b602002602001015161121f565b806106d281612760565b91505061069b565b5050565b60006106ea83836112a5565b9392505050565b6105bc83838360405180602001604052806000815250610d01565b600080516020612a8c8339815191525460ff161561077d5760405162461bcd60e51b815260206004820152602860248201527f537465776172644c6963656e736546616365743a20616c726561647920696e696044820152671d1a585b1a5e995960c21b606482015260840161068f565b61078c878787878787876112d4565b50505050505050565b306001600160a01b0316633882ce8e6040518163ffffffff1660e01b8152600401602060405180830381865afa1580156107d3573d6000803e3d6000fd5b505050506040513d601f19601f820116820180604052508101906107f791906126ac565b6001600160a01b0316336001600160a01b0316146108275760405162461bcd60e51b815260040161068f906126c9565b80518251146108965760405162461bcd60e51b815260206004820152603560248201527f537465776172644c6963656e736546616365743a20746f20616e6420746f6b656044820152740dcaaa492e640d8cadccee8d040dad2e6dac2e8c6d605b1b606482015260840161068f565b60005b81518110156105bc576108d18382815181106108b7576108b7612734565b60200260200101518383815181106106bb576106bb612734565b806108db81612760565b915050610899565b60006104e2826113ee565b60006104e282611408565b60006104e282611429565b306001600160a01b0316633882ce8e6040518163ffffffff1660e01b8152600401602060405180830381865afa158015610942573d6000803e3d6000fd5b505050506040513d601f19601f8201168201806040525081019061096691906126ac565b6001600160a01b0316336001600160a01b0316146109fa5760405162461bcd60e51b8152602060048201526044602482018190527f537465776172644c6963656e736546616365743a206f6e6c7920696e69746961908201527f6c206269646465722063616e2061646420746f6b656e20746f20636f6c6c65636064820152633a34b7b760e11b608482015260a40161068f565b6106da828261121f565b60006104e28261146d565b306001600160a01b0316633882ce8e6040518163ffffffff1660e01b8152600401602060405180830381865afa158015610a4d573d6000803e3d6000fd5b505050506040513d601f19601f82011682018060405250810190610a7191906126ac565b6001600160a01b0316336001600160a01b031614610af75760405162461bcd60e51b815260206004820152603760248201527f537465776172644c6963656e736546616365743a206f6e6c7920696e6974696160448201527f6c206269646465722063616e206d696e7420746f6b656e000000000000000000606482015260840161068f565b306001600160a01b031663be6a2a6d6040518163ffffffff1660e01b8152600401602060405180830381865afa158015610b35573d6000803e3d6000fd5b505050506040513d601f19601f82011682018060405250810190610b599190612779565b4210610bcf576040805162461bcd60e51b81526020600482015260248101919091527f537465776172644c6963656e736546616365743a2063616e6e6f74206d696e7460448201527f20616674657220696e697469616c20706572696f642073746172742074696d65606482015260840161068f565b610bd8816113ee565b15610c375760405162461bcd60e51b815260206004820152602960248201527f537465776172644c6963656e736546616365743a20546f6b656e20616c72656160448201526864792065786973747360b81b606482015260840161068f565b6106da600083836114c4565b60606104f26114e0565b336001600160a01b03831603610c765760405163424a22cb60e01b815260040160405180910390fd5b3360008181527f3c7bf052874fa81625121783266a03507bd2cd48b16e571c01a04e8dd3fb07aa602090815260408083206001600160a01b03871680855290835292819020805460ff191686151590811790915590519081529192917f17307eab39ab6107e8899845ad3d59bd9653f200f220920489ca2b5937696c31910160405180910390a35050565b610d0b338361106a565b610d2857604051632f5de44f60e01b815260040160405180910390fd5b610d34848484846114ff565b50505050565b60006104f2600080516020612acc8339815191525490565b60606104e282611533565b333014610de75760405162461bcd60e51b815260206004820152604c60248201527f4e6174697665537465776172644c6963656e73653a205472696767657220747260448201527f616e736665722063616e206f6e6c792062652063616c6c65642066726f6d206160648201526b1b9bdd1a195c88199858d95d60a21b608482015260a40161068f565b6105bc8383836114c4565b306001600160a01b0316633882ce8e6040518163ffffffff1660e01b8152600401602060405180830381865afa158015610e30573d6000803e3d6000fd5b505050506040513d601f19601f82011682018060405250810190610e5491906126ac565b6001600160a01b0316336001600160a01b031614610e845760405162461bcd60e51b815260040161068f906126c9565b60005b8263ffffffff168163ffffffff1610156105bc57610ea482611717565b80610eae81612792565b915050610e87565b60006106ea83836117a9565b6060600080516020612aec8339815191528054610ede906127b5565b80601f0160208091040260200160405190810160405280929190818152602001828054610f0a906127b5565b8015610f575780601f10610f2c57610100808354040283529160200191610f57565b820191906000526020600020905b815481529060010190602001808311610f3a57829003601f168201915b5050505050905090565b6000610f6c826113ee565b610f895760405163c1b843ef60e01b815260040160405180910390fd5b5060009081527f3c7bf052874fa81625121783266a03507bd2cd48b16e571c01a04e8dd3fb07a960205260409020546001600160a01b031690565b60008181527f3c7bf052874fa81625121783266a03507bd2cd48b16e571c01a04e8dd3fb07a96020526040902080546001600160a01b0319166001600160a01b038416908117909155819061101882611429565b6001600160a01b03167f8c5be1e5ebec7d5bd14f71427d1e84f3dd0314c0f7b2291e5b200ac8c7c3b92560405160405180910390a45050565b60006104f2600080516020612aac8339815191526117f6565b6000611075826113ee565b6110925760405163c1b843ef60e01b815260040160405180910390fd5b600061109d83611429565b9050806001600160a01b0316846001600160a01b031614806110d85750836001600160a01b03166110cd84610f61565b6001600160a01b0316145b806110e857506110e881856117a9565b949350505050565b826001600160a01b031661110382611429565b6001600160a01b03161461112a57604051630f2db4ad60e01b815260040160405180910390fd5b6001600160a01b038216611151576040516340311a0960e01b815260040160405180910390fd5b61115c838383611800565b611167600082610fc4565b6001600160a01b0383166000908152600080516020612a6c83398151915260205260409020600080516020612aac833981519152906111a690836118f5565b506001600160a01b038316600090815260028201602052604090206111cb9083611901565b506111d781838561190d565b5081836001600160a01b0316856001600160a01b03167fddf252ad1be2c89b69c2b068fc378daa952ba7f163c4a11628f55a4df523b3ef60405160405180910390a450505050565b600080516020612acc8339815191528054600080516020612a8c83398151915291600190600061124f83856127ef565b909155505060008181527f99574a7094154bb123ae6ae102096f0bf9679b85a5cd1e727aaa0ae5f132e6b46020526040902061128b8482612850565b506001600160a01b03841615610d3457610d348482611923565b6001600160a01b0382166000908152600080516020612a6c833981519152602052604081206106ea9083611a06565b600080516020612a8c83398151915280546001600160a01b03888116610100026001600160a81b03199092169190911760011782557f79ec1734da2430052e9d78936f451aad707e5bed12ef4806b06dc3d0c38f0e318054918a166001600160a01b0319909216919091179055600080516020612acc8339815191528690556000600080516020612aec8339815191529050806113718682612850565b50600181016113808582612850565b506002810161138f8482612850565b506113a26301ffc9a760e01b6001611a12565b6113b46380ac58cd60e01b6001611a12565b85156113e35760005b878110156113e1576113cf8982611923565b806113d981612760565b9150506113bd565b505b505050505050505050565b60006104e2600080516020612aac83398151915283611a88565b6000611422600080516020612aac83398151915283611aa0565b5092915050565b600080611444600080516020612aac83398151915284611abc565b90506001600160a01b0381166104e257604051637e1a7d8b60e01b815260040160405180910390fd5b60006001600160a01b03821661149657604051630810ff9760e41b815260040160405180910390fd5b6001600160a01b0382166000908152600080516020612a6c833981519152602052604090206104e2906117f6565b6114cd816113ee565b15156000036105f2576105bc8282611923565b6060600080516020612aec8339815191526001018054610ede906127b5565b61150a8484846110f0565b61151684848484611ac8565b610d3457604051639ff10cdd60e01b815260040160405180910390fd5b600080516020612acc83398151915254606090600080516020612a8c83398151915290831061157457604051624705a760e71b815260040160405180910390fd5b60008381527f99574a7094154bb123ae6ae102096f0bf9679b85a5cd1e727aaa0ae5f132e6b4602052604081208054600080516020612aec8339815191529291906115be906127b5565b80601f01602080910402602001604051908101604052809291908181526020018280546115ea906127b5565b80156116375780601f1061160c57610100808354040283529160200191611637565b820191906000526020600020905b81548152906001019060200180831161161a57829003601f168201915b50505050509050600082600201805461164f906127b5565b80601f016020809104026020016040519081016040528092919081815260200182805461167b906127b5565b80156116c85780601f1061169d576101008083540402835291602001916116c8565b820191906000526020600020905b8154815290600101906020018083116116ab57829003601f168201915b505050505090506000825111156116e25750949350505050565b806116ec87611b99565b6040516020016116fd929190612910565b604051602081830303815290604052945050505050919050565b600080516020612acc8339815191528054600080516020612a8c83398151915291600190600061174783856127ef565b9091555083905061175782611b99565b604051602001611768929190612910565b60405160208183030381529060405261178c600080516020612aec83398151915290565b60008381526003919091016020526040902090610d349082612850565b6001600160a01b0391821660009081527f3c7bf052874fa81625121783266a03507bd2cd48b16e571c01a04e8dd3fb07aa6020908152604080832093909416825291909152205460ff1690565b60006104e2825490565b6001600160a01b038316156118ea5760405163a7c12c1160e01b815260048101829052600090309063a7c12c1190602401602060405180830381865afa15801561184e573d6000803e3d6000fd5b505050506040513d601f19601f82011682018060405250810190611872919061293f565b905080156118e85760405162461bcd60e51b815260206004820152603a60248201527f537465776172644c6963656e736546616365743a2043616e6e6f74207472616e60448201527f7366657220647572696e672061756374696f6e20706572696f64000000000000606482015260840161068f565b505b6105bc838383611c9a565b60006106ea8383611ca5565b60006106ea8383611d5f565b60006110e884846001600160a01b038516611da2565b6001600160a01b03821661194a576040516311f2988d60e11b815260040160405180910390fd5b611953816113ee565b1561197157604051630d86bb7b60e31b815260040160405180910390fd5b61197d60008383611800565b6001600160a01b0382166000908152600080516020612a6c83398151915260205260409020600080516020612aac833981519152906119bc9083611901565b506119c881838561190d565b5060405182906001600160a01b038516906000907fddf252ad1be2c89b69c2b068fc378daa952ba7f163c4a11628f55a4df523b3ef908290a4505050565b60006106ea8383611e41565b6001600160e01b03198083169003611a3d5760405163b0a19dd560e01b815260040160405180910390fd5b6001600160e01b03199190911660009081527ffc606c433378e3a7e0a6a531deac289b66caa1b4aa8554fd4ab2c6f1570f92d860205260409020805460ff1916911515919091179055565b600081815260018301602052604081205415156106ea565b6000808080611aaf8686611e8d565b9097909650945050505050565b60006106ea8383611ef0565b60006001600160a01b0384163b611ae1575060016110e8565b6000611b6263150b7a0260e01b33888787604051602401611b05949392919061295c565b604051602081830303815290604052906001600160e01b0319166020820180516001600160e01b038381831617835250505050604051806060016040528060328152602001612a3a603291396001600160a01b0388169190611f54565b9050600081806020019051810190611b7a9190612999565b6001600160e01b031916630a85bd0160e11b1492505050949350505050565b606081600003611bc05750506040805180820190915260018152600360fc1b602082015290565b8160005b8115611bea5780611bd481612760565b9150611be39050600a836129cc565b9150611bc4565b60008167ffffffffffffffff811115611c0557611c056121eb565b6040519080825280601f01601f191660200182016040528015611c2f576020820181803683370190505b5090505b84156110e857611c446001836129e0565b9150611c51600a866129f3565b611c5c9060306127ef565b60f81b818381518110611c7157611c71612734565b60200101906001600160f81b031916908160001a905350611c93600a866129cc565b9450611c33565b6105bc838383611f63565b6000818152600183016020526040812054801561142257835460009085906000198101908110611cd757611cd7612734565b9060005260206000200154905080856000016001840381548110611cfd57611cfd612734565b6000918252602080832090910192909255918252600186019052604090208190558354849080611d2f57611d2f612a07565b60008281526020808220830160001990810183905590920190925593815260019485019093525050604081205590565b60008181526001830160205260408120546104e2575081546001808201845560008481526020808220909301849055845493815293810190915260409092205590565b6000828152600184016020526040812054808203611e095750506040805180820182528381526020808201848152865460018181018955600089815284812095516002909302909501918255915190820155865486845281880190925292909120556106ea565b82856000016001830381548110611e2257611e22612734565b90600052602060002090600202016001018190555060009150506106ea565b81546000908210611e655760405163e637bf3b60e01b815260040160405180910390fd5b826000018281548110611e7a57611e7a612734565b9060005260206000200154905092915050565b815460009081908310611eb35760405163022fd82760e31b815260040160405180910390fd5b6000846000018481548110611eca57611eca612734565b906000526020600020906002020190508060000154816001015492509250509250929050565b6000818152600183016020526040812054808203611f2157604051633d547ec560e21b815260040160405180910390fd5b836000016001820381548110611f3957611f39612734565b90600052602060002090600202016001015491505092915050565b60606110e88484600085611fa7565b6001600160a01b0382166105bc5760008181527f99574a7094154bb123ae6ae102096f0bf9679b85a5cd1e727aaa0ae5f132e6b4602052604081206105bc91612064565b6060843b611fc857604051632270d6bf60e21b815260040160405180910390fd5b600080866001600160a01b03168587604051611fe49190612a1d565b60006040518083038185875af1925050503d8060008114612021576040519150601f19603f3d011682016040523d82523d6000602084013e612026565b606091505b5091509150811561203a5791506110e89050565b80511561204a5780518082602001fd5b8360405162461bcd60e51b815260040161068f919061213d565b508054612070906127b5565b6000825580601f10612080575050565b601f01602090049060005260206000209081019061209e91906120a1565b50565b5b808211156120b657600081556001016120a2565b5090565b6001600160e01b03198116811461209e57600080fd5b6000602082840312156120e257600080fd5b81356106ea816120ba565b60005b838110156121085781810151838201526020016120f0565b50506000910152565b600081518084526121298160208601602086016120ed565b601f01601f19169290920160200192915050565b6020815260006106ea6020830184612111565b60006020828403121561216257600080fd5b5035919050565b6001600160a01b038116811461209e57600080fd5b6000806040838503121561219157600080fd5b823561219c81612169565b946020939093013593505050565b6000806000606084860312156121bf57600080fd5b83356121ca81612169565b925060208401356121da81612169565b929592945050506040919091013590565b634e487b7160e01b600052604160045260246000fd5b604051601f8201601f1916810167ffffffffffffffff8111828210171561222a5761222a6121eb565b604052919050565b600067ffffffffffffffff82111561224c5761224c6121eb565b5060051b60200190565b600067ffffffffffffffff831115612270576122706121eb565b612283601f8401601f1916602001612201565b905082815283838301111561229757600080fd5b828260208301376000602084830101529392505050565b600082601f8301126122bf57600080fd5b6106ea83833560208501612256565b600082601f8301126122df57600080fd5b813560206122f46122ef83612232565b612201565b82815260059290921b8401810191818101908684111561231357600080fd5b8286015b8481101561235357803567ffffffffffffffff8111156123375760008081fd5b6123458986838b01016122ae565b845250918301918301612317565b509695505050505050565b60006020828403121561237057600080fd5b813567ffffffffffffffff81111561238757600080fd5b6110e8848285016122ce565b801515811461209e57600080fd5b80356123ac81612393565b919050565b600080600080600080600060e0888a0312156123cc57600080fd5b87356123d781612169565b965060208801356123e781612169565b9550604088013594506123fc606089016123a1565b9350608088013567ffffffffffffffff8082111561241957600080fd5b6124258b838c016122ae565b945060a08a013591508082111561243b57600080fd5b6124478b838c016122ae565b935060c08a013591508082111561245d57600080fd5b5061246a8a828b016122ae565b91505092959891949750929550565b6000806040838503121561248c57600080fd5b823567ffffffffffffffff808211156124a457600080fd5b818501915085601f8301126124b857600080fd5b813560206124c86122ef83612232565b82815260059290921b840181019181810190898411156124e757600080fd5b948201945b8386101561250e5785356124ff81612169565b825294820194908201906124ec565b9650508601359250508082111561252457600080fd5b50612531858286016122ce565b9150509250929050565b6000806040838503121561254e57600080fd5b823561255981612169565b9150602083013567ffffffffffffffff81111561257557600080fd5b612531858286016122ae565b60006020828403121561259357600080fd5b81356106ea81612169565b600080604083850312156125b157600080fd5b82356125bc81612169565b915060208301356125cc81612393565b809150509250929050565b600080600080608085870312156125ed57600080fd5b84356125f881612169565b9350602085013561260881612169565b925060408501359150606085013567ffffffffffffffff81111561262b57600080fd5b8501601f8101871361263c57600080fd5b61264b87823560208401612256565b91505092959194509250565b6000806040838503121561266a57600080fd5b823563ffffffff8116811461255957600080fd5b6000806040838503121561269157600080fd5b823561269c81612169565b915060208301356125cc81612169565b6000602082840312156126be57600080fd5b81516106ea81612169565b60208082526045908201527f537465776172644c6963656e736546616365743a206f6e6c7920696e6974696160408201527f6c206269646465722063616e2061646420746f6b656e7320746f20636f6c6c6560608201526431ba34b7b760d91b608082015260a00190565b634e487b7160e01b600052603260045260246000fd5b634e487b7160e01b600052601160045260246000fd5b6000600182016127725761277261274a565b5060010190565b60006020828403121561278b57600080fd5b5051919050565b600063ffffffff8083168181036127ab576127ab61274a565b6001019392505050565b600181811c908216806127c957607f821691505b6020821081036127e957634e487b7160e01b600052602260045260246000fd5b50919050565b808201808211156104e2576104e261274a565b601f8211156105bc57600081815260208120601f850160051c810160208610156128295750805b601f850160051c820191505b8181101561284857828155600101612835565b505050505050565b815167ffffffffffffffff81111561286a5761286a6121eb565b61287e8161287884546127b5565b84612802565b602080601f8311600181146128b3576000841561289b5750858301515b600019600386901b1c1916600185901b178555612848565b600085815260208120601f198616915b828110156128e2578886015182559484019460019091019084016128c3565b50858210156129005787850151600019600388901b60f8161c191681555b5050505050600190811b01905550565b600083516129228184602088016120ed565b8351908301906129368183602088016120ed565b01949350505050565b60006020828403121561295157600080fd5b81516106ea81612393565b6001600160a01b038581168252841660208201526040810183905260806060820181905260009061298f90830184612111565b9695505050505050565b6000602082840312156129ab57600080fd5b81516106ea816120ba565b634e487b7160e01b600052601260045260246000fd5b6000826129db576129db6129b6565b500490565b818103818111156104e2576104e261274a565b600082612a0257612a026129b6565b500690565b634e487b7160e01b600052603160045260246000fd5b60008251612a2f8184602087016120ed565b919091019291505056fe4552433732313a207472616e7366657220746f206e6f6e20455243373231526563656976657220696d706c656d656e7465723c7bf052874fa81625121783266a03507bd2cd48b16e571c01a04e8dd3fb07a879ec1734da2430052e9d78936f451aad707e5bed12ef4806b06dc3d0c38f0e303c7bf052874fa81625121783266a03507bd2cd48b16e571c01a04e8dd3fb07a679ec1734da2430052e9d78936f451aad707e5bed12ef4806b06dc3d0c38f0e3299574a7094154bb123ae6ae102096f0bf9679b85a5cd1e727aaa0ae5f132e6b1a26469706673582212206cce69c2ef85290bc68966a86dfe43f7ec4e4f8324567636f7b209f0edd2700964736f6c63430008110033",
  "devdoc": {
    "details": "ERC-1155 token license for Steward. Transfers are disabled during an auction",
    "kind": "dev",
    "methods": {
      "approve(address,uint256)": {
        "params": {
          "operator": "address to be approved",
          "tokenId": "token to approve"
        }
      },
      "balanceOf(address)": {
        "returns": {
          "_0": "quantity of tokens held"
        }
      },
      "getApproved(uint256)": {
        "params": {
          "tokenId": "token to query"
        },
        "returns": {
          "_0": "address approved to spend token"
        }
      },
      "isApprovedForAll(address,address)": {
        "params": {
          "account": "address to query for approval granted",
          "operator": "address to query for approval received"
        },
        "returns": {
          "_0": "whether operator is approved to spend tokens held by account"
        }
      },
      "ownerOf(uint256)": {
        "params": {
          "tokenId": "token to query"
        },
        "returns": {
          "_0": "token owner"
        }
      },
      "safeTransferFrom(address,address,uint256)": {
        "params": {
          "from": "sender of token",
          "to": "receiver of token",
          "tokenId": "token id"
        }
      },
      "safeTransferFrom(address,address,uint256,bytes)": {
        "params": {
          "data": "data payload",
          "from": "sender of token",
          "to": "receiver of token",
          "tokenId": "token id"
        }
      },
      "setApprovalForAll(address,bool)": {
        "params": {
          "operator": "address to be approved",
          "status": "approval status"
        }
      },
      "supportsInterface(bytes4)": {
        "params": {
          "interfaceId": "interface id"
        },
        "returns": {
          "_0": "bool whether interface is supported"
        }
      },
      "tokenByIndex(uint256)": {
        "params": {
          "index": "position in global token list to query"
        },
        "returns": {
          "_0": "id of retrieved token"
        }
      },
      "tokenOfOwnerByIndex(address,uint256)": {
        "params": {
          "index": "position in owner's token list to query",
          "owner": "token holder to query"
        },
        "returns": {
          "_0": "id of retrieved token"
        }
      },
      "totalSupply()": {
        "returns": {
          "_0": "total supply"
        }
      },
      "transferFrom(address,address,uint256)": {
        "params": {
          "from": "sender of token",
          "to": "receiver of token",
          "tokenId": "token id"
        }
      }
    },
    "title": "NativeStewardLicenseFacet",
    "version": 1
  },
  "userdoc": {
    "kind": "user",
    "methods": {
      "addTokenToCollection(address,string)": {
        "notice": "Add token to collection"
      },
      "addTokensToCollection(address[],string[])": {
        "notice": "Add tokens to collection with to"
      },
      "addTokensToCollection(string[])": {
        "notice": "Add tokens to collection"
      },
      "addTokensWithBaseURIToCollection(uint32,string)": {
        "notice": "Add tokens to collection with baseURI"
      },
      "approve(address,uint256)": {
        "notice": "grant approval to given account to spend token"
      },
      "balanceOf(address)": {
        "notice": "query the balance of given address"
      },
      "exists(uint256)": {
        "notice": "Check if token exists"
      },
      "getApproved(uint256)": {
        "notice": "get approval status for given token"
      },
      "initializeStewardLicense(address,address,uint256,bool,string,string,string)": {
        "notice": "Initialize license"
      },
      "isApprovedForAll(address,address)": {
        "notice": "query approval status of given operator with respect to given address"
      },
      "maxTokenCount()": {
        "notice": "Get max token count"
      },
      "mintToken(address,uint256)": {
        "notice": "Initial bidder can mint token if it doesn't exist"
      },
      "minter()": {
        "notice": "Get minter"
      },
      "name()": {
        "notice": "inheritdoc IERC721Metadata"
      },
      "ownerOf(uint256)": {
        "notice": "query the owner of given token"
      },
      "safeTransferFrom(address,address,uint256)": {
        "notice": "transfer token between given addresses, checking for ERC721Receiver implementation if applicable"
      },
      "safeTransferFrom(address,address,uint256,bytes)": {
        "notice": "transfer token between given addresses, checking for ERC721Receiver implementation if applicable"
      },
      "setApprovalForAll(address,bool)": {
        "notice": "grant approval to or revoke approval from given account to spend all tokens held by sender"
      },
      "supportsInterface(bytes4)": {
        "notice": "query whether contract has registered support for given interface"
      },
      "symbol()": {
        "notice": "inheritdoc IERC721Metadata"
      },
      "tokenByIndex(uint256)": {
        "notice": "get token at given internal storage index"
      },
      "tokenOfOwnerByIndex(address,uint256)": {
        "notice": "get token of given owner at given internal storage index"
      },
      "tokenURI(uint256)": {
        "notice": "inheritdoc IERC721Metadata"
      },
      "totalSupply()": {
        "notice": "get total token supply"
      },
      "transferFrom(address,address,uint256)": {
        "notice": "transfer token between given addresses, without checking for ERC721Receiver implementation if applicable"
      },
      "triggerTransfer(address,address,uint256)": {
        "notice": "Trigger transfer of license"
      }
    },
    "version": 1
  },
  "storageLayout": {
    "storage": [],
    "types": null
  }
}