{
  "address": "0x1e94D5481400c058765fF7218580528394492304",
  "abi": [
    {
      "inputs": [],
      "name": "AddressUtils__NotContract",
      "type": "error"
    },
    {
      "inputs": [],
      "name": "ERC165Base__InvalidInterfaceId",
      "type": "error"
    },
    {
      "inputs": [],
      "name": "ERC721Base__BalanceQueryZeroAddress",
      "type": "error"
    },
    {
      "inputs": [],
      "name": "ERC721Base__ERC721ReceiverNotImplemented",
      "type": "error"
    },
    {
      "inputs": [],
      "name": "ERC721Base__InvalidOwner",
      "type": "error"
    },
    {
      "inputs": [],
      "name": "ERC721Base__MintToZeroAddress",
      "type": "error"
    },
    {
      "inputs": [],
      "name": "ERC721Base__NonExistentToken",
      "type": "error"
    },
    {
      "inputs": [],
      "name": "ERC721Base__NotOwnerOrApproved",
      "type": "error"
    },
    {
      "inputs": [],
      "name": "ERC721Base__NotTokenOwner",
      "type": "error"
    },
    {
      "inputs": [],
      "name": "ERC721Base__SelfApproval",
      "type": "error"
    },
    {
      "inputs": [],
      "name": "ERC721Base__TokenAlreadyMinted",
      "type": "error"
    },
    {
      "inputs": [],
      "name": "ERC721Base__TransferToZeroAddress",
      "type": "error"
    },
    {
      "inputs": [],
      "name": "ERC721Metadata__NonExistentToken",
      "type": "error"
    },
    {
      "inputs": [],
      "name": "EnumerableMap__IndexOutOfBounds",
      "type": "error"
    },
    {
      "inputs": [],
      "name": "EnumerableMap__NonExistentKey",
      "type": "error"
    },
    {
      "inputs": [],
      "name": "EnumerableSet__IndexOutOfBounds",
      "type": "error"
    },
    {
      "anonymous": false,
      "inputs": [
        {
          "indexed": true,
          "internalType": "address",
          "name": "owner",
          "type": "address"
        },
        {
          "indexed": true,
          "internalType": "address",
          "name": "operator",
          "type": "address"
        },
        {
          "indexed": true,
          "internalType": "uint256",
          "name": "tokenId",
          "type": "uint256"
        }
      ],
      "name": "Approval",
      "type": "event"
    },
    {
      "anonymous": false,
      "inputs": [
        {
          "indexed": true,
          "internalType": "address",
          "name": "owner",
          "type": "address"
        },
        {
          "indexed": true,
          "internalType": "address",
          "name": "operator",
          "type": "address"
        },
        {
          "indexed": false,
          "internalType": "bool",
          "name": "approved",
          "type": "bool"
        }
      ],
      "name": "ApprovalForAll",
      "type": "event"
    },
    {
      "anonymous": false,
      "inputs": [
        {
          "indexed": true,
          "internalType": "address",
          "name": "from",
          "type": "address"
        },
        {
          "indexed": true,
          "internalType": "address",
          "name": "to",
          "type": "address"
        },
        {
          "indexed": true,
          "internalType": "uint256",
          "name": "tokenId",
          "type": "uint256"
        }
      ],
      "name": "Transfer",
      "type": "event"
    },
    {
      "inputs": [
        {
          "internalType": "address",
          "name": "to",
          "type": "address"
        },
        {
          "internalType": "string",
          "name": "tokenURI",
          "type": "string"
        }
      ],
      "name": "addTokenToCollection",
      "outputs": [],
      "stateMutability": "nonpayable",
      "type": "function"
    },
    {
      "inputs": [
        {
          "internalType": "string[]",
          "name": "tokenURIs",
          "type": "string[]"
        }
      ],
      "name": "addTokensToCollection",
      "outputs": [],
      "stateMutability": "nonpayable",
      "type": "function"
    },
    {
      "inputs": [
        {
          "internalType": "address[]",
          "name": "to",
          "type": "address[]"
        },
        {
          "internalType": "string[]",
          "name": "tokenURIs",
          "type": "string[]"
        }
      ],
      "name": "addTokensToCollection",
      "outputs": [],
      "stateMutability": "nonpayable",
      "type": "function"
    },
    {
      "inputs": [
        {
          "internalType": "uint32",
          "name": "amount",
          "type": "uint32"
        },
        {
          "internalType": "string",
          "name": "baseURI",
          "type": "string"
        }
      ],
      "name": "addTokensWithBaseURIToCollection",
      "outputs": [],
      "stateMutability": "nonpayable",
      "type": "function"
    },
    {
      "inputs": [
        {
          "internalType": "address",
          "name": "operator",
          "type": "address"
        },
        {
          "internalType": "uint256",
          "name": "tokenId",
          "type": "uint256"
        }
      ],
      "name": "approve",
      "outputs": [],
      "stateMutability": "payable",
      "type": "function"
    },
    {
      "inputs": [
        {
          "internalType": "address",
          "name": "account",
          "type": "address"
        }
      ],
      "name": "balanceOf",
      "outputs": [
        {
          "internalType": "uint256",
          "name": "",
          "type": "uint256"
        }
      ],
      "stateMutability": "view",
      "type": "function"
    },
    {
      "inputs": [
        {
          "internalType": "uint256",
          "name": "tokenId",
          "type": "uint256"
        }
      ],
      "name": "exists",
      "outputs": [
        {
          "internalType": "bool",
          "name": "",
          "type": "bool"
        }
      ],
      "stateMutability": "view",
      "type": "function"
    },
    {
      "inputs": [
        {
          "internalType": "uint256",
          "name": "tokenId",
          "type": "uint256"
        }
      ],
      "name": "getApproved",
      "outputs": [
        {
          "internalType": "address",
          "name": "",
          "type": "address"
        }
      ],
      "stateMutability": "view",
      "type": "function"
    },
    {
      "inputs": [
        {
          "internalType": "address",
          "name": "_minter",
          "type": "address"
        },
        {
          "internalType": "address",
          "name": "_steward",
          "type": "address"
        },
        {
          "internalType": "uint256",
          "name": "_maxTokenCount",
          "type": "uint256"
        },
        {
          "internalType": "string",
          "name": "name",
          "type": "string"
        },
        {
          "internalType": "string",
          "name": "symbol",
          "type": "string"
        },
        {
          "internalType": "string",
          "name": "baseURI",
          "type": "string"
        }
      ],
      "name": "initializeStewardLicense",
      "outputs": [],
      "stateMutability": "nonpayable",
      "type": "function"
    },
    {
      "inputs": [
        {
          "internalType": "address",
          "name": "account",
          "type": "address"
        },
        {
          "internalType": "address",
          "name": "operator",
          "type": "address"
        }
      ],
      "name": "isApprovedForAll",
      "outputs": [
        {
          "internalType": "bool",
          "name": "",
          "type": "bool"
        }
      ],
      "stateMutability": "view",
      "type": "function"
    },
    {
      "inputs": [],
      "name": "maxTokenCount",
      "outputs": [
        {
          "internalType": "uint256",
          "name": "",
          "type": "uint256"
        }
      ],
      "stateMutability": "view",
      "type": "function"
    },
    {
      "inputs": [
        {
          "internalType": "address",
          "name": "to",
          "type": "address"
        },
        {
          "internalType": "uint256",
          "name": "tokenId",
          "type": "uint256"
        }
      ],
      "name": "mintToken",
      "outputs": [],
      "stateMutability": "nonpayable",
      "type": "function"
    },
    {
      "inputs": [],
      "name": "minter",
      "outputs": [
        {
          "internalType": "address",
          "name": "",
          "type": "address"
        }
      ],
      "stateMutability": "view",
      "type": "function"
    },
    {
      "inputs": [],
      "name": "name",
      "outputs": [
        {
          "internalType": "string",
          "name": "",
          "type": "string"
        }
      ],
      "stateMutability": "view",
      "type": "function"
    },
    {
      "inputs": [
        {
          "internalType": "uint256",
          "name": "tokenId",
          "type": "uint256"
        }
      ],
      "name": "ownerOf",
      "outputs": [
        {
          "internalType": "address",
          "name": "",
          "type": "address"
        }
      ],
      "stateMutability": "view",
      "type": "function"
    },
    {
      "inputs": [
        {
          "internalType": "address",
          "name": "from",
          "type": "address"
        },
        {
          "internalType": "address",
          "name": "to",
          "type": "address"
        },
        {
          "internalType": "uint256",
          "name": "tokenId",
          "type": "uint256"
        }
      ],
      "name": "safeTransferFrom",
      "outputs": [],
      "stateMutability": "payable",
      "type": "function"
    },
    {
      "inputs": [
        {
          "internalType": "address",
          "name": "from",
          "type": "address"
        },
        {
          "internalType": "address",
          "name": "to",
          "type": "address"
        },
        {
          "internalType": "uint256",
          "name": "tokenId",
          "type": "uint256"
        },
        {
          "internalType": "bytes",
          "name": "data",
          "type": "bytes"
        }
      ],
      "name": "safeTransferFrom",
      "outputs": [],
      "stateMutability": "payable",
      "type": "function"
    },
    {
      "inputs": [
        {
          "internalType": "address",
          "name": "operator",
          "type": "address"
        },
        {
          "internalType": "bool",
          "name": "status",
          "type": "bool"
        }
      ],
      "name": "setApprovalForAll",
      "outputs": [],
      "stateMutability": "nonpayable",
      "type": "function"
    },
    {
      "inputs": [
        {
          "internalType": "bytes4",
          "name": "interfaceId",
          "type": "bytes4"
        }
      ],
      "name": "supportsInterface",
      "outputs": [
        {
          "internalType": "bool",
          "name": "",
          "type": "bool"
        }
      ],
      "stateMutability": "view",
      "type": "function"
    },
    {
      "inputs": [],
      "name": "symbol",
      "outputs": [
        {
          "internalType": "string",
          "name": "",
          "type": "string"
        }
      ],
      "stateMutability": "view",
      "type": "function"
    },
    {
      "inputs": [
        {
          "internalType": "uint256",
          "name": "index",
          "type": "uint256"
        }
      ],
      "name": "tokenByIndex",
      "outputs": [
        {
          "internalType": "uint256",
          "name": "",
          "type": "uint256"
        }
      ],
      "stateMutability": "view",
      "type": "function"
    },
    {
      "inputs": [
        {
          "internalType": "address",
          "name": "owner",
          "type": "address"
        },
        {
          "internalType": "uint256",
          "name": "index",
          "type": "uint256"
        }
      ],
      "name": "tokenOfOwnerByIndex",
      "outputs": [
        {
          "internalType": "uint256",
          "name": "",
          "type": "uint256"
        }
      ],
      "stateMutability": "view",
      "type": "function"
    },
    {
      "inputs": [
        {
          "internalType": "uint256",
          "name": "tokenId",
          "type": "uint256"
        }
      ],
      "name": "tokenURI",
      "outputs": [
        {
          "internalType": "string",
          "name": "",
          "type": "string"
        }
      ],
      "stateMutability": "view",
      "type": "function"
    },
    {
      "inputs": [],
      "name": "totalSupply",
      "outputs": [
        {
          "internalType": "uint256",
          "name": "",
          "type": "uint256"
        }
      ],
      "stateMutability": "view",
      "type": "function"
    },
    {
      "inputs": [
        {
          "internalType": "address",
          "name": "from",
          "type": "address"
        },
        {
          "internalType": "address",
          "name": "to",
          "type": "address"
        },
        {
          "internalType": "uint256",
          "name": "tokenId",
          "type": "uint256"
        }
      ],
      "name": "transferFrom",
      "outputs": [],
      "stateMutability": "payable",
      "type": "function"
    },
    {
      "inputs": [
        {
          "internalType": "address",
          "name": "from",
          "type": "address"
        },
        {
          "internalType": "address",
          "name": "to",
          "type": "address"
        },
        {
          "internalType": "uint256",
          "name": "tokenId",
          "type": "uint256"
        }
      ],
      "name": "triggerTransfer",
      "outputs": [],
      "stateMutability": "nonpayable",
      "type": "function"
    }
  ],
  "transactionHash": "0x1f402d6e52a17a5c1e4d0a0b7dba8ce872453e4b8f249c9208b461a82377f314",
  "args": [],
  "numDeployments": 3,
  "solcInputHash": "0b5efae482ad241fc19d4580fd9acd55",
  "bytecode": "0x608060405234801561001057600080fd5b50612b93806100206000396000f3fe6080604052600436106101815760003560e01c806350e35ef1116100d1578063a22cb4651161008a578063c87b56dd11610064578063c87b56dd14610425578063e31a7c0114610445578063e95a272f14610465578063e985e9c51461048557600080fd5b8063a22cb465146103dd578063b88d4fde146103fd578063c4e627c21461041057600080fd5b806350e35ef1146103285780636352211e146103485780636a2e019f1461036857806370a082311461038857806379c65068146103a857806395d89b41146103c857600080fd5b806323b872dd1161013e57806342842e0e1161011857806342842e0e146102b55780634a7c554f146102c85780634f558e79146102e85780634f6ccce71461030857600080fd5b806323b872dd14610262578063269aab0e146102755780632f745c591461029557600080fd5b806301ffc9a71461018657806306fdde03146101bb57806307546172146101dd578063081812fc1461020a578063095ea7b31461022a57806318160ddd1461023f575b600080fd5b34801561019257600080fd5b506101a66101a136600461214c565b6104a5565b60405190151581526020015b60405180910390f35b3480156101c757600080fd5b506101d06104e8565b6040516101b291906121b9565b3480156101e957600080fd5b506101f26104f7565b6040516001600160a01b0390911681526020016101b2565b34801561021657600080fd5b506101f26102253660046121cc565b61052a565b61023d6102383660046121fa565b610535565b005b34801561024b57600080fd5b506102546105c1565b6040519081526020016101b2565b61023d610270366004612226565b6105cb565b34801561028157600080fd5b5061023d6102903660046123da565b6105fd565b3480156102a157600080fd5b506102546102b03660046121fa565b6106de565b61023d6102c3366004612226565b6106f1565b3480156102d457600080fd5b5061023d6102e336600461240f565b61070c565b3480156102f457600080fd5b506101a66103033660046121cc565b61085a565b34801561031457600080fd5b506102546103233660046121cc565b610865565b34801561033457600080fd5b5061023d6103433660046124d1565b610870565b34801561035457600080fd5b506101f26103633660046121cc565b6108f7565b34801561037457600080fd5b5061023d610383366004612587565b610902565b34801561039457600080fd5b506102546103a33660046125cd565b610a02565b3480156103b457600080fd5b5061023d6103c33660046121fa565b610a0d565b3480156103d457600080fd5b506101d0610c41565b3480156103e957600080fd5b5061023d6103f83660046125f8565b610c4b565b61023d61040b366004612631565b610cff565b34801561041c57600080fd5b50610254610d38565b34801561043157600080fd5b506101d06104403660046121cc565b610d50565b34801561045157600080fd5b5061023d610460366004612226565b610e4a565b34801561047157600080fd5b5061023d6104803660046126b1565b610edf565b34801561049157600080fd5b506101a66104a03660046126d8565b610fa3565b6001600160e01b0319811660009081527ffc606c433378e3a7e0a6a531deac289b66caa1b4aa8554fd4ab2c6f1570f92d8602052604081205460ff165b92915050565b60606104f2610faf565b905090565b60006104f27f79ec1734da2430052e9d78936f451aad707e5bed12ef4806b06dc3d0c38f0e31546001600160a01b031690565b60006104e28261104e565b6000610540826108f7565b9050806001600160a01b0316836001600160a01b0316036105745760405163424a22cb60e01b815260040160405180910390fd5b336001600160a01b0382161480159061059457506105928133610fa3565b155b156105b257604051632f5de44f60e01b815260040160405180910390fd5b6105bc83836110b1565b505050565b60006104f261113e565b6105d53382611157565b6105f257604051632f5de44f60e01b815260040160405180910390fd5b6105bc8383836111d5565b306001600160a01b0316633882ce8e6040518163ffffffff1660e01b8152600401602060405180830381865afa15801561063b573d6000803e3d6000fd5b505050506040513d601f19601f8201168201806040525081019061065f9190612706565b6001600160a01b0316336001600160a01b0316146106985760405162461bcd60e51b815260040161068f90612723565b60405180910390fd5b60005b81518110156106da576106c860008383815181106106bb576106bb61278e565b6020026020010151611304565b806106d2816127ba565b91505061069b565b5050565b60006106ea838361136d565b9392505050565b6105bc83838360405180602001604052806000815250610cff565b306001600160a01b0316633882ce8e6040518163ffffffff1660e01b8152600401602060405180830381865afa15801561074a573d6000803e3d6000fd5b505050506040513d601f19601f8201168201806040525081019061076e9190612706565b6001600160a01b0316336001600160a01b03161461079e5760405162461bcd60e51b815260040161068f90612723565b805182511461080d5760405162461bcd60e51b815260206004820152603560248201527f537465776172644c6963656e736546616365743a20746f20616e6420746f6b656044820152740dcaaa492e640d8cadccee8d040dad2e6dac2e8c6d605b1b606482015260840161068f565b60005b81518110156105bc5761084883828151811061082e5761082e61278e565b60200260200101518383815181106106bb576106bb61278e565b80610852816127ba565b915050610810565b60006104e28261139c565b60006104e2826113b6565b600080516020612ade8339815191525460ff16156108e15760405162461bcd60e51b815260206004820152602860248201527f537465776172644c6963656e736546616365743a20616c726561647920696e696044820152671d1a585b1a5e995960c21b606482015260840161068f565b6108ef8686868686866113d7565b505050505050565b60006104e2826114c1565b306001600160a01b0316633882ce8e6040518163ffffffff1660e01b8152600401602060405180830381865afa158015610940573d6000803e3d6000fd5b505050506040513d601f19601f820116820180604052508101906109649190612706565b6001600160a01b0316336001600160a01b0316146109f85760405162461bcd60e51b8152602060048201526044602482018190527f537465776172644c6963656e736546616365743a206f6e6c7920696e69746961908201527f6c206269646465722063616e2061646420746f6b656e20746f20636f6c6c65636064820152633a34b7b760e11b608482015260a40161068f565b6106da8282611304565b60006104e282611505565b306001600160a01b0316633882ce8e6040518163ffffffff1660e01b8152600401602060405180830381865afa158015610a4b573d6000803e3d6000fd5b505050506040513d601f19601f82011682018060405250810190610a6f9190612706565b6001600160a01b0316336001600160a01b031614610af55760405162461bcd60e51b815260206004820152603760248201527f537465776172644c6963656e736546616365743a206f6e6c7920696e6974696160448201527f6c206269646465722063616e206d696e7420746f6b656e000000000000000000606482015260840161068f565b306001600160a01b031663be6a2a6d6040518163ffffffff1660e01b8152600401602060405180830381865afa158015610b33573d6000803e3d6000fd5b505050506040513d601f19601f82011682018060405250810190610b5791906127d3565b4210610bcd576040805162461bcd60e51b81526020600482015260248101919091527f537465776172644c6963656e736546616365743a2063616e6e6f74206d696e7460448201527f20616674657220696e697469616c20706572696f642073746172742074696d65606482015260840161068f565b610bd68161139c565b15610c355760405162461bcd60e51b815260206004820152602960248201527f537465776172644c6963656e736546616365743a20546f6b656e20616c72656160448201526864792065786973747360b81b606482015260840161068f565b6106da6000838361155c565b60606104f2611578565b336001600160a01b03831603610c745760405163424a22cb60e01b815260040160405180910390fd5b3360008181527f3c7bf052874fa81625121783266a03507bd2cd48b16e571c01a04e8dd3fb07aa602090815260408083206001600160a01b03871680855290835292819020805460ff191686151590811790915590519081529192917f17307eab39ab6107e8899845ad3d59bd9653f200f220920489ca2b5937696c31910160405180910390a35050565b610d093383611157565b610d2657604051632f5de44f60e01b815260040160405180910390fd5b610d3284848484611597565b50505050565b60006104f2600080516020612b1e8339815191525490565b60008181527f79ec1734da2430052e9d78936f451aad707e5bed12ef4806b06dc3d0c38f0e33602052604081208054606092600080516020612ade83398151915292918290610d9e906127ec565b90501115610e3957808054610db2906127ec565b80601f0160208091040260200160405190810160405280929190818152602001828054610dde906127ec565b8015610e2b5780601f10610e0057610100808354040283529160200191610e2b565b820191906000526020600020905b815481529060010190602001808311610e0e57829003601f168201915b505050505092505050919050565b610e42846115cb565b949350505050565b333014610ed45760405162461bcd60e51b815260206004820152604c60248201527f4e6174697665537465776172644c6963656e73653a205472696767657220747260448201527f616e736665722063616e206f6e6c792062652063616c6c65642066726f6d206160648201526b1b9bdd1a195c88199858d95d60a21b608482015260a40161068f565b6105bc83838361155c565b306001600160a01b0316633882ce8e6040518163ffffffff1660e01b8152600401602060405180830381865afa158015610f1d573d6000803e3d6000fd5b505050506040513d601f19601f82011682018060405250810190610f419190612706565b6001600160a01b0316336001600160a01b031614610f715760405162461bcd60e51b815260040161068f90612723565b60005b8263ffffffff168163ffffffff1610156105bc57610f91826117ac565b80610f9b81612826565b915050610f74565b60006106ea8383611825565b6060600080516020612b3e8339815191528054610fcb906127ec565b80601f0160208091040260200160405190810160405280929190818152602001828054610ff7906127ec565b80156110445780601f1061101957610100808354040283529160200191611044565b820191906000526020600020905b81548152906001019060200180831161102757829003601f168201915b5050505050905090565b60006110598261139c565b6110765760405163c1b843ef60e01b815260040160405180910390fd5b5060009081527f3c7bf052874fa81625121783266a03507bd2cd48b16e571c01a04e8dd3fb07a960205260409020546001600160a01b031690565b60008181527f3c7bf052874fa81625121783266a03507bd2cd48b16e571c01a04e8dd3fb07a96020526040902080546001600160a01b0319166001600160a01b0384169081179091558190611105826114c1565b6001600160a01b03167f8c5be1e5ebec7d5bd14f71427d1e84f3dd0314c0f7b2291e5b200ac8c7c3b92560405160405180910390a45050565b60006104f2600080516020612afe833981519152611872565b60006111628261139c565b61117f5760405163c1b843ef60e01b815260040160405180910390fd5b600061118a836114c1565b9050806001600160a01b0316846001600160a01b031614806111c55750836001600160a01b03166111ba8461104e565b6001600160a01b0316145b80610e425750610e428185611825565b826001600160a01b03166111e8826114c1565b6001600160a01b03161461120f57604051630f2db4ad60e01b815260040160405180910390fd5b6001600160a01b038216611236576040516340311a0960e01b815260040160405180910390fd5b61124183838361187c565b61124c6000826110b1565b6001600160a01b0383166000908152600080516020612abe83398151915260205260409020600080516020612afe8339815191529061128b9083611971565b506001600160a01b038316600090815260028201602052604090206112b0908361197d565b506112bc818385611989565b5081836001600160a01b0316856001600160a01b03167fddf252ad1be2c89b69c2b068fc378daa952ba7f163c4a11628f55a4df523b3ef60405160405180910390a450505050565b600080516020612b1e8339815191528054600080516020612ade8339815191529160019060006113348385612849565b90915550506000818152600383016020526040902061135384826128a2565b506001600160a01b03841615610d3257610d32848261199f565b6001600160a01b0382166000908152600080516020612abe833981519152602052604081206106ea9083611a82565b60006104e2600080516020612afe83398151915283611a8e565b60006113d0600080516020612afe83398151915283611aa6565b5092915050565b600080516020612ade83398151915280546001600160a01b03878116610100026001600160a81b03199092169190911760011782557f79ec1734da2430052e9d78936f451aad707e5bed12ef4806b06dc3d0c38f0e3180549189166001600160a01b0319909216919091179055600080516020612b1e8339815191528590556000600080516020612b3e83398151915290508061147486826128a2565b506001810161148385826128a2565b506002810161149284826128a2565b506114a56301ffc9a760e01b6001611ac2565b6114b76380ac58cd60e01b6001611ac2565b5050505050505050565b6000806114dc600080516020612afe83398151915284611b38565b90506001600160a01b0381166104e257604051637e1a7d8b60e01b815260040160405180910390fd5b60006001600160a01b03821661152e57604051630810ff9760e41b815260040160405180910390fd5b6001600160a01b0382166000908152600080516020612abe833981519152602052604090206104e290611872565b6115658161139c565b15156000036105f2576105bc828261199f565b6060600080516020612b3e8339815191526001018054610fcb906127ec565b6115a28484846111d5565b6115ae84848484611b44565b610d3257604051639ff10cdd60e01b815260040160405180910390fd5b60606115d68261139c565b6115f257604051624705a760e71b815260040160405180910390fd5b60008281527f99574a7094154bb123ae6ae102096f0bf9679b85a5cd1e727aaa0ae5f132e6b4602052604081208054600080516020612b3e83398151915292919061163c906127ec565b80601f0160208091040260200160405190810160405280929190818152602001828054611668906127ec565b80156116b55780601f1061168a576101008083540402835291602001916116b5565b820191906000526020600020905b81548152906001019060200180831161169857829003601f168201915b5050505050905060008260020180546116cd906127ec565b80601f01602080910402602001604051908101604052809291908181526020018280546116f9906127ec565b80156117465780601f1061171b57610100808354040283529160200191611746565b820191906000526020600020905b81548152906001019060200180831161172957829003601f168201915b50505050509050805160000361175e57509392505050565b815115611791578082604051602001611778929190612962565b6040516020818303038152906040529350505050919050565b8061179b86611c15565b604051602001611778929190612962565b600080516020612b1e8339815191528054600080516020612ade8339815191529160019060006117dc8385612849565b909155508390506117ec82611c15565b6040516020016117fd929190612962565b60408051601f198184030181529181526000838152600385016020522090610d3290826128a2565b6001600160a01b0391821660009081527f3c7bf052874fa81625121783266a03507bd2cd48b16e571c01a04e8dd3fb07aa6020908152604080832093909416825291909152205460ff1690565b60006104e2825490565b6001600160a01b038316156119665760405163a7c12c1160e01b815260048101829052600090309063a7c12c1190602401602060405180830381865afa1580156118ca573d6000803e3d6000fd5b505050506040513d601f19601f820116820180604052508101906118ee9190612991565b905080156119645760405162461bcd60e51b815260206004820152603a60248201527f537465776172644c6963656e736546616365743a2043616e6e6f74207472616e60448201527f7366657220647572696e672061756374696f6e20706572696f64000000000000606482015260840161068f565b505b6105bc838383611d16565b60006106ea8383611d21565b60006106ea8383611ddb565b6000610e4284846001600160a01b038516611e1e565b6001600160a01b0382166119c6576040516311f2988d60e11b815260040160405180910390fd5b6119cf8161139c565b156119ed57604051630d86bb7b60e31b815260040160405180910390fd5b6119f96000838361187c565b6001600160a01b0382166000908152600080516020612abe83398151915260205260409020600080516020612afe83398151915290611a38908361197d565b50611a44818385611989565b5060405182906001600160a01b038516906000907fddf252ad1be2c89b69c2b068fc378daa952ba7f163c4a11628f55a4df523b3ef908290a4505050565b60006106ea8383611ebd565b600081815260018301602052604081205415156106ea565b6000808080611ab58686611f09565b9097909650945050505050565b6001600160e01b03198083169003611aed5760405163b0a19dd560e01b815260040160405180910390fd5b6001600160e01b03199190911660009081527ffc606c433378e3a7e0a6a531deac289b66caa1b4aa8554fd4ab2c6f1570f92d860205260409020805460ff1916911515919091179055565b60006106ea8383611f6c565b60006001600160a01b0384163b611b5d57506001610e42565b6000611bde63150b7a0260e01b33888787604051602401611b8194939291906129ae565b604051602081830303815290604052906001600160e01b0319166020820180516001600160e01b038381831617835250505050604051806060016040528060328152602001612a8c603291396001600160a01b0388169190611fd0565b9050600081806020019051810190611bf691906129eb565b6001600160e01b031916630a85bd0160e11b1492505050949350505050565b606081600003611c3c5750506040805180820190915260018152600360fc1b602082015290565b8160005b8115611c665780611c50816127ba565b9150611c5f9050600a83612a1e565b9150611c40565b60008167ffffffffffffffff811115611c8157611c81612267565b6040519080825280601f01601f191660200182016040528015611cab576020820181803683370190505b5090505b8415610e4257611cc0600183612a32565b9150611ccd600a86612a45565b611cd8906030612849565b60f81b818381518110611ced57611ced61278e565b60200101906001600160f81b031916908160001a905350611d0f600a86612a1e565b9450611caf565b6105bc838383611fdf565b600081815260018301602052604081205480156113d057835460009085906000198101908110611d5357611d5361278e565b9060005260206000200154905080856000016001840381548110611d7957611d7961278e565b6000918252602080832090910192909255918252600186019052604090208190558354849080611dab57611dab612a59565b60008281526020808220830160001990810183905590920190925593815260019485019093525050604081205590565b60008181526001830160205260408120546104e2575081546001808201845560008481526020808220909301849055845493815293810190915260409092205590565b6000828152600184016020526040812054808203611e855750506040805180820182528381526020808201848152865460018181018955600089815284812095516002909302909501918255915190820155865486845281880190925292909120556106ea565b82856000016001830381548110611e9e57611e9e61278e565b90600052602060002090600202016001018190555060009150506106ea565b81546000908210611ee15760405163e637bf3b60e01b815260040160405180910390fd5b826000018281548110611ef657611ef661278e565b9060005260206000200154905092915050565b815460009081908310611f2f5760405163022fd82760e31b815260040160405180910390fd5b6000846000018481548110611f4657611f4661278e565b906000526020600020906002020190508060000154816001015492509250509250929050565b6000818152600183016020526040812054808203611f9d57604051633d547ec560e21b815260040160405180910390fd5b836000016001820381548110611fb557611fb561278e565b90600052602060002090600202016001015491505092915050565b6060610e428484600085612023565b6001600160a01b0382166105bc5760008181527f99574a7094154bb123ae6ae102096f0bf9679b85a5cd1e727aaa0ae5f132e6b4602052604081206105bc916120e0565b6060843b61204457604051632270d6bf60e21b815260040160405180910390fd5b600080866001600160a01b031685876040516120609190612a6f565b60006040518083038185875af1925050503d806000811461209d576040519150601f19603f3d011682016040523d82523d6000602084013e6120a2565b606091505b509150915081156120b6579150610e429050565b8051156120c65780518082602001fd5b8360405162461bcd60e51b815260040161068f91906121b9565b5080546120ec906127ec565b6000825580601f106120fc575050565b601f01602090049060005260206000209081019061211a919061211d565b50565b5b80821115612132576000815560010161211e565b5090565b6001600160e01b03198116811461211a57600080fd5b60006020828403121561215e57600080fd5b81356106ea81612136565b60005b8381101561218457818101518382015260200161216c565b50506000910152565b600081518084526121a5816020860160208601612169565b601f01601f19169290920160200192915050565b6020815260006106ea602083018461218d565b6000602082840312156121de57600080fd5b5035919050565b6001600160a01b038116811461211a57600080fd5b6000806040838503121561220d57600080fd5b8235612218816121e5565b946020939093013593505050565b60008060006060848603121561223b57600080fd5b8335612246816121e5565b92506020840135612256816121e5565b929592945050506040919091013590565b634e487b7160e01b600052604160045260246000fd5b604051601f8201601f1916810167ffffffffffffffff811182821017156122a6576122a6612267565b604052919050565b600067ffffffffffffffff8211156122c8576122c8612267565b5060051b60200190565b600067ffffffffffffffff8311156122ec576122ec612267565b6122ff601f8401601f191660200161227d565b905082815283838301111561231357600080fd5b828260208301376000602084830101529392505050565b600082601f83011261233b57600080fd5b6106ea838335602085016122d2565b600082601f83011261235b57600080fd5b8135602061237061236b836122ae565b61227d565b82815260059290921b8401810191818101908684111561238f57600080fd5b8286015b848110156123cf57803567ffffffffffffffff8111156123b35760008081fd5b6123c18986838b010161232a565b845250918301918301612393565b509695505050505050565b6000602082840312156123ec57600080fd5b813567ffffffffffffffff81111561240357600080fd5b610e428482850161234a565b6000806040838503121561242257600080fd5b823567ffffffffffffffff8082111561243a57600080fd5b818501915085601f83011261244e57600080fd5b8135602061245e61236b836122ae565b82815260059290921b8401810191818101908984111561247d57600080fd5b948201945b838610156124a4578535612495816121e5565b82529482019490820190612482565b965050860135925050808211156124ba57600080fd5b506124c78582860161234a565b9150509250929050565b60008060008060008060c087890312156124ea57600080fd5b86356124f5816121e5565b95506020870135612505816121e5565b945060408701359350606087013567ffffffffffffffff8082111561252957600080fd5b6125358a838b0161232a565b9450608089013591508082111561254b57600080fd5b6125578a838b0161232a565b935060a089013591508082111561256d57600080fd5b5061257a89828a0161232a565b9150509295509295509295565b6000806040838503121561259a57600080fd5b82356125a5816121e5565b9150602083013567ffffffffffffffff8111156125c157600080fd5b6124c78582860161232a565b6000602082840312156125df57600080fd5b81356106ea816121e5565b801515811461211a57600080fd5b6000806040838503121561260b57600080fd5b8235612616816121e5565b91506020830135612626816125ea565b809150509250929050565b6000806000806080858703121561264757600080fd5b8435612652816121e5565b93506020850135612662816121e5565b925060408501359150606085013567ffffffffffffffff81111561268557600080fd5b8501601f8101871361269657600080fd5b6126a5878235602084016122d2565b91505092959194509250565b600080604083850312156126c457600080fd5b823563ffffffff811681146125a557600080fd5b600080604083850312156126eb57600080fd5b82356126f6816121e5565b91506020830135612626816121e5565b60006020828403121561271857600080fd5b81516106ea816121e5565b60208082526045908201527f537465776172644c6963656e736546616365743a206f6e6c7920696e6974696160408201527f6c206269646465722063616e2061646420746f6b656e7320746f20636f6c6c6560608201526431ba34b7b760d91b608082015260a00190565b634e487b7160e01b600052603260045260246000fd5b634e487b7160e01b600052601160045260246000fd5b6000600182016127cc576127cc6127a4565b5060010190565b6000602082840312156127e557600080fd5b5051919050565b600181811c9082168061280057607f821691505b60208210810361282057634e487b7160e01b600052602260045260246000fd5b50919050565b600063ffffffff80831681810361283f5761283f6127a4565b6001019392505050565b808201808211156104e2576104e26127a4565b601f8211156105bc57600081815260208120601f850160051c810160208610156128835750805b601f850160051c820191505b818110156108ef5782815560010161288f565b815167ffffffffffffffff8111156128bc576128bc612267565b6128d0816128ca84546127ec565b8461285c565b602080601f83116001811461290557600084156128ed5750858301515b600019600386901b1c1916600185901b1785556108ef565b600085815260208120601f198616915b8281101561293457888601518255948401946001909101908401612915565b50858210156129525787850151600019600388901b60f8161c191681555b5050505050600190811b01905550565b60008351612974818460208801612169565b835190830190612988818360208801612169565b01949350505050565b6000602082840312156129a357600080fd5b81516106ea816125ea565b6001600160a01b03858116825284166020820152604081018390526080606082018190526000906129e19083018461218d565b9695505050505050565b6000602082840312156129fd57600080fd5b81516106ea81612136565b634e487b7160e01b600052601260045260246000fd5b600082612a2d57612a2d612a08565b500490565b818103818111156104e2576104e26127a4565b600082612a5457612a54612a08565b500690565b634e487b7160e01b600052603160045260246000fd5b60008251612a81818460208701612169565b919091019291505056fe4552433732313a207472616e7366657220746f206e6f6e20455243373231526563656976657220696d706c656d656e7465723c7bf052874fa81625121783266a03507bd2cd48b16e571c01a04e8dd3fb07a879ec1734da2430052e9d78936f451aad707e5bed12ef4806b06dc3d0c38f0e303c7bf052874fa81625121783266a03507bd2cd48b16e571c01a04e8dd3fb07a679ec1734da2430052e9d78936f451aad707e5bed12ef4806b06dc3d0c38f0e3299574a7094154bb123ae6ae102096f0bf9679b85a5cd1e727aaa0ae5f132e6b1a264697066735822122007279c730e02e12be6a6ed8a0ad5c69b01e3cec0fb77b08e8dac9e646ef7b6ee64736f6c63430008110033",
  "devdoc": {
    "details": "ERC-1155 token license for Steward. Transfers are disabled during an auction",
    "kind": "dev",
    "methods": {
      "approve(address,uint256)": {
        "params": {
          "operator": "address to be approved",
          "tokenId": "token to approve"
        }
      },
      "balanceOf(address)": {
        "returns": {
          "_0": "quantity of tokens held"
        }
      },
      "getApproved(uint256)": {
        "params": {
          "tokenId": "token to query"
        },
        "returns": {
          "_0": "address approved to spend token"
        }
      },
      "isApprovedForAll(address,address)": {
        "params": {
          "account": "address to query for approval granted",
          "operator": "address to query for approval received"
        },
        "returns": {
          "_0": "whether operator is approved to spend tokens held by account"
        }
      },
      "ownerOf(uint256)": {
        "params": {
          "tokenId": "token to query"
        },
        "returns": {
          "_0": "token owner"
        }
      },
      "safeTransferFrom(address,address,uint256)": {
        "params": {
          "from": "sender of token",
          "to": "receiver of token",
          "tokenId": "token id"
        }
      },
      "safeTransferFrom(address,address,uint256,bytes)": {
        "params": {
          "data": "data payload",
          "from": "sender of token",
          "to": "receiver of token",
          "tokenId": "token id"
        }
      },
      "setApprovalForAll(address,bool)": {
        "params": {
          "operator": "address to be approved",
          "status": "approval status"
        }
      },
      "supportsInterface(bytes4)": {
        "params": {
          "interfaceId": "interface id"
        },
        "returns": {
          "_0": "bool whether interface is supported"
        }
      },
      "tokenByIndex(uint256)": {
        "params": {
          "index": "position in global token list to query"
        },
        "returns": {
          "_0": "id of retrieved token"
        }
      },
      "tokenOfOwnerByIndex(address,uint256)": {
        "params": {
          "index": "position in owner's token list to query",
          "owner": "token holder to query"
        },
        "returns": {
          "_0": "id of retrieved token"
        }
      },
      "totalSupply()": {
        "returns": {
          "_0": "total supply"
        }
      },
      "transferFrom(address,address,uint256)": {
        "params": {
          "from": "sender of token",
          "to": "receiver of token",
          "tokenId": "token id"
        }
      }
    },
    "title": "NativeStewardLicenseFacet",
    "version": 1
  },
  "userdoc": {
    "kind": "user",
    "methods": {
      "addTokenToCollection(address,string)": {
        "notice": "Add token to collection"
      },
      "addTokensToCollection(address[],string[])": {
        "notice": "Add tokens to collection with to"
      },
      "addTokensToCollection(string[])": {
        "notice": "Add tokens to collection"
      },
      "addTokensWithBaseURIToCollection(uint32,string)": {
        "notice": "Add tokens to collection with baseURI"
      },
      "approve(address,uint256)": {
        "notice": "grant approval to given account to spend token"
      },
      "balanceOf(address)": {
        "notice": "query the balance of given address"
      },
      "exists(uint256)": {
        "notice": "Check if token exists"
      },
      "getApproved(uint256)": {
        "notice": "get approval status for given token"
      },
      "initializeStewardLicense(address,address,uint256,string,string,string)": {
        "notice": "Initialize license"
      },
      "isApprovedForAll(address,address)": {
        "notice": "query approval status of given operator with respect to given address"
      },
      "maxTokenCount()": {
        "notice": "Get max token count"
      },
      "mintToken(address,uint256)": {
        "notice": "Initial bidder can mint token if it doesn't exist"
      },
      "minter()": {
        "notice": "Get minter"
      },
      "name()": {
        "notice": "inheritdoc IERC721Metadata"
      },
      "ownerOf(uint256)": {
        "notice": "query the owner of given token"
      },
      "safeTransferFrom(address,address,uint256)": {
        "notice": "transfer token between given addresses, checking for ERC721Receiver implementation if applicable"
      },
      "safeTransferFrom(address,address,uint256,bytes)": {
        "notice": "transfer token between given addresses, checking for ERC721Receiver implementation if applicable"
      },
      "setApprovalForAll(address,bool)": {
        "notice": "grant approval to or revoke approval from given account to spend all tokens held by sender"
      },
      "supportsInterface(bytes4)": {
        "notice": "query whether contract has registered support for given interface"
      },
      "symbol()": {
        "notice": "inheritdoc IERC721Metadata"
      },
      "tokenByIndex(uint256)": {
        "notice": "get token at given internal storage index"
      },
      "tokenOfOwnerByIndex(address,uint256)": {
        "notice": "get token of given owner at given internal storage index"
      },
      "tokenURI(uint256)": {
        "notice": "Override token URI"
      },
      "totalSupply()": {
        "notice": "get total token supply"
      },
      "transferFrom(address,address,uint256)": {
        "notice": "transfer token between given addresses, without checking for ERC721Receiver implementation if applicable"
      },
      "triggerTransfer(address,address,uint256)": {
        "notice": "Trigger transfer of license"
      }
    },
    "version": 1
  },
  "storageLayout": {
    "storage": [],
    "types": null
  }
}