{
  "address": "0x9669148829CA4aa3af46D64E9e50e72058B263f4",
  "abi": [
    {
      "inputs": [],
      "name": "AddressUtils__NotContract",
      "type": "error"
    },
    {
      "inputs": [],
      "name": "ERC165Base__InvalidInterfaceId",
      "type": "error"
    },
    {
      "inputs": [],
      "name": "ERC721Base__BalanceQueryZeroAddress",
      "type": "error"
    },
    {
      "inputs": [],
      "name": "ERC721Base__ERC721ReceiverNotImplemented",
      "type": "error"
    },
    {
      "inputs": [],
      "name": "ERC721Base__InvalidOwner",
      "type": "error"
    },
    {
      "inputs": [],
      "name": "ERC721Base__MintToZeroAddress",
      "type": "error"
    },
    {
      "inputs": [],
      "name": "ERC721Base__NonExistentToken",
      "type": "error"
    },
    {
      "inputs": [],
      "name": "ERC721Base__NotOwnerOrApproved",
      "type": "error"
    },
    {
      "inputs": [],
      "name": "ERC721Base__NotTokenOwner",
      "type": "error"
    },
    {
      "inputs": [],
      "name": "ERC721Base__SelfApproval",
      "type": "error"
    },
    {
      "inputs": [],
      "name": "ERC721Base__TokenAlreadyMinted",
      "type": "error"
    },
    {
      "inputs": [],
      "name": "ERC721Base__TransferToZeroAddress",
      "type": "error"
    },
    {
      "inputs": [],
      "name": "ERC721Metadata__NonExistentToken",
      "type": "error"
    },
    {
      "inputs": [],
      "name": "EnumerableMap__IndexOutOfBounds",
      "type": "error"
    },
    {
      "inputs": [],
      "name": "EnumerableMap__NonExistentKey",
      "type": "error"
    },
    {
      "inputs": [],
      "name": "EnumerableSet__IndexOutOfBounds",
      "type": "error"
    },
    {
      "anonymous": false,
      "inputs": [
        {
          "indexed": true,
          "internalType": "address",
          "name": "owner",
          "type": "address"
        },
        {
          "indexed": true,
          "internalType": "address",
          "name": "operator",
          "type": "address"
        },
        {
          "indexed": true,
          "internalType": "uint256",
          "name": "tokenId",
          "type": "uint256"
        }
      ],
      "name": "Approval",
      "type": "event"
    },
    {
      "anonymous": false,
      "inputs": [
        {
          "indexed": true,
          "internalType": "address",
          "name": "owner",
          "type": "address"
        },
        {
          "indexed": true,
          "internalType": "address",
          "name": "operator",
          "type": "address"
        },
        {
          "indexed": false,
          "internalType": "bool",
          "name": "approved",
          "type": "bool"
        }
      ],
      "name": "ApprovalForAll",
      "type": "event"
    },
    {
      "anonymous": false,
      "inputs": [
        {
          "indexed": true,
          "internalType": "address",
          "name": "from",
          "type": "address"
        },
        {
          "indexed": true,
          "internalType": "address",
          "name": "to",
          "type": "address"
        },
        {
          "indexed": true,
          "internalType": "uint256",
          "name": "tokenId",
          "type": "uint256"
        }
      ],
      "name": "Transfer",
      "type": "event"
    },
    {
      "inputs": [
        {
          "internalType": "address",
          "name": "operator",
          "type": "address"
        },
        {
          "internalType": "uint256",
          "name": "tokenId",
          "type": "uint256"
        }
      ],
      "name": "approve",
      "outputs": [],
      "stateMutability": "payable",
      "type": "function"
    },
    {
      "inputs": [
        {
          "internalType": "address",
          "name": "account",
          "type": "address"
        }
      ],
      "name": "balanceOf",
      "outputs": [
        {
          "internalType": "uint256",
          "name": "",
          "type": "uint256"
        }
      ],
      "stateMutability": "view",
      "type": "function"
    },
    {
      "inputs": [
        {
          "internalType": "uint256",
          "name": "tokenId",
          "type": "uint256"
        }
      ],
      "name": "exists",
      "outputs": [
        {
          "internalType": "bool",
          "name": "",
          "type": "bool"
        }
      ],
      "stateMutability": "view",
      "type": "function"
    },
    {
      "inputs": [
        {
          "internalType": "uint256",
          "name": "tokenId",
          "type": "uint256"
        }
      ],
      "name": "getApproved",
      "outputs": [
        {
          "internalType": "address",
          "name": "",
          "type": "address"
        }
      ],
      "stateMutability": "view",
      "type": "function"
    },
    {
      "inputs": [
        {
          "internalType": "address",
          "name": "_minter",
          "type": "address"
        },
        {
          "internalType": "address",
          "name": "_steward",
          "type": "address"
        },
        {
          "internalType": "string",
          "name": "name",
          "type": "string"
        },
        {
          "internalType": "string",
          "name": "symbol",
          "type": "string"
        },
        {
          "internalType": "string",
          "name": "baseURI",
          "type": "string"
        }
      ],
      "name": "initializeStewardLicense",
      "outputs": [],
      "stateMutability": "nonpayable",
      "type": "function"
    },
    {
      "inputs": [
        {
          "internalType": "address",
          "name": "account",
          "type": "address"
        },
        {
          "internalType": "address",
          "name": "operator",
          "type": "address"
        }
      ],
      "name": "isApprovedForAll",
      "outputs": [
        {
          "internalType": "bool",
          "name": "",
          "type": "bool"
        }
      ],
      "stateMutability": "view",
      "type": "function"
    },
    {
      "inputs": [],
      "name": "minter",
      "outputs": [
        {
          "internalType": "address",
          "name": "",
          "type": "address"
        }
      ],
      "stateMutability": "view",
      "type": "function"
    },
    {
      "inputs": [],
      "name": "name",
      "outputs": [
        {
          "internalType": "string",
          "name": "",
          "type": "string"
        }
      ],
      "stateMutability": "view",
      "type": "function"
    },
    {
      "inputs": [
        {
          "internalType": "uint256",
          "name": "tokenId",
          "type": "uint256"
        }
      ],
      "name": "ownerOf",
      "outputs": [
        {
          "internalType": "address",
          "name": "",
          "type": "address"
        }
      ],
      "stateMutability": "view",
      "type": "function"
    },
    {
      "inputs": [
        {
          "internalType": "address",
          "name": "from",
          "type": "address"
        },
        {
          "internalType": "address",
          "name": "to",
          "type": "address"
        },
        {
          "internalType": "uint256",
          "name": "tokenId",
          "type": "uint256"
        }
      ],
      "name": "safeTransferFrom",
      "outputs": [],
      "stateMutability": "payable",
      "type": "function"
    },
    {
      "inputs": [
        {
          "internalType": "address",
          "name": "from",
          "type": "address"
        },
        {
          "internalType": "address",
          "name": "to",
          "type": "address"
        },
        {
          "internalType": "uint256",
          "name": "tokenId",
          "type": "uint256"
        },
        {
          "internalType": "bytes",
          "name": "data",
          "type": "bytes"
        }
      ],
      "name": "safeTransferFrom",
      "outputs": [],
      "stateMutability": "payable",
      "type": "function"
    },
    {
      "inputs": [
        {
          "internalType": "address",
          "name": "operator",
          "type": "address"
        },
        {
          "internalType": "bool",
          "name": "status",
          "type": "bool"
        }
      ],
      "name": "setApprovalForAll",
      "outputs": [],
      "stateMutability": "nonpayable",
      "type": "function"
    },
    {
      "inputs": [
        {
          "internalType": "bytes4",
          "name": "interfaceId",
          "type": "bytes4"
        }
      ],
      "name": "supportsInterface",
      "outputs": [
        {
          "internalType": "bool",
          "name": "",
          "type": "bool"
        }
      ],
      "stateMutability": "view",
      "type": "function"
    },
    {
      "inputs": [],
      "name": "symbol",
      "outputs": [
        {
          "internalType": "string",
          "name": "",
          "type": "string"
        }
      ],
      "stateMutability": "view",
      "type": "function"
    },
    {
      "inputs": [
        {
          "internalType": "uint256",
          "name": "index",
          "type": "uint256"
        }
      ],
      "name": "tokenByIndex",
      "outputs": [
        {
          "internalType": "uint256",
          "name": "",
          "type": "uint256"
        }
      ],
      "stateMutability": "view",
      "type": "function"
    },
    {
      "inputs": [
        {
          "internalType": "address",
          "name": "owner",
          "type": "address"
        },
        {
          "internalType": "uint256",
          "name": "index",
          "type": "uint256"
        }
      ],
      "name": "tokenOfOwnerByIndex",
      "outputs": [
        {
          "internalType": "uint256",
          "name": "",
          "type": "uint256"
        }
      ],
      "stateMutability": "view",
      "type": "function"
    },
    {
      "inputs": [
        {
          "internalType": "uint256",
          "name": "tokenId",
          "type": "uint256"
        }
      ],
      "name": "tokenURI",
      "outputs": [
        {
          "internalType": "string",
          "name": "",
          "type": "string"
        }
      ],
      "stateMutability": "view",
      "type": "function"
    },
    {
      "inputs": [],
      "name": "totalSupply",
      "outputs": [
        {
          "internalType": "uint256",
          "name": "",
          "type": "uint256"
        }
      ],
      "stateMutability": "view",
      "type": "function"
    },
    {
      "inputs": [
        {
          "internalType": "address",
          "name": "from",
          "type": "address"
        },
        {
          "internalType": "address",
          "name": "to",
          "type": "address"
        },
        {
          "internalType": "uint256",
          "name": "tokenId",
          "type": "uint256"
        }
      ],
      "name": "transferFrom",
      "outputs": [],
      "stateMutability": "payable",
      "type": "function"
    },
    {
      "inputs": [
        {
          "internalType": "address",
          "name": "from",
          "type": "address"
        },
        {
          "internalType": "address",
          "name": "to",
          "type": "address"
        },
        {
          "internalType": "uint256",
          "name": "tokenId",
          "type": "uint256"
        }
      ],
      "name": "triggerTransfer",
      "outputs": [],
      "stateMutability": "nonpayable",
      "type": "function"
    }
  ],
  "transactionHash": "0xe1c3f7477cd460e7b0d382d006d7851a715af35eaf20bdd43a1b27198317e686",
  "args": [],
  "numDeployments": 2,
  "solcInputHash": "af64c17cfc77993eb6c0348792079092",
  "bytecode": "0x608060405234801561001057600080fd5b50611f47806100206000396000f3fe60806040526004361061011f5760003560e01c80634f6ccce7116100a0578063b88d4fde11610064578063b88d4fde146102fb578063c87b56dd1461030e578063d83102e51461032e578063e31a7c011461034e578063e985e9c51461036e57600080fd5b80634f6ccce7146102665780636352211e1461028657806370a08231146102a657806395d89b41146102c6578063a22cb465146102db57600080fd5b806318160ddd116100e757806318160ddd146101dd57806323b872dd146102005780632f745c591461021357806342842e0e146102335780634f558e791461024657600080fd5b806301ffc9a71461012457806306fdde0314610159578063075461721461017b578063081812fc146101a8578063095ea7b3146101c8575b600080fd5b34801561013057600080fd5b5061014461013f366004611836565b61038e565b60405190151581526020015b60405180910390f35b34801561016557600080fd5b5061016e6103d1565b60405161015091906118a3565b34801561018757600080fd5b506101906103e0565b6040516001600160a01b039091168152602001610150565b3480156101b457600080fd5b506101906101c33660046118b6565b610413565b6101db6101d63660046118eb565b61041e565b005b3480156101e957600080fd5b506101f26104aa565b604051908152602001610150565b6101db61020e366004611915565b6104b4565b34801561021f57600080fd5b506101f261022e3660046118eb565b6104e6565b6101db610241366004611915565b6104f9565b34801561025257600080fd5b506101446102613660046118b6565b610514565b34801561027257600080fd5b506101f26102813660046118b6565b61051f565b34801561029257600080fd5b506101906102a13660046118b6565b61052a565b3480156102b257600080fd5b506101f26102c1366004611951565b610535565b3480156102d257600080fd5b5061016e610540565b3480156102e757600080fd5b506101db6102f636600461197a565b61054a565b6101db610309366004611a3d565b6105fe565b34801561031a57600080fd5b5061016e6103293660046118b6565b610637565b34801561033a57600080fd5b506101db610349366004611ad9565b610642565b34801561035a57600080fd5b506101db610369366004611915565b6106de565b34801561037a57600080fd5b50610144610389366004611b83565b610784565b6001600160e01b0319811660009081527ffc606c433378e3a7e0a6a531deac289b66caa1b4aa8554fd4ab2c6f1570f92d8602052604081205460ff165b92915050565b60606103db610790565b905090565b60006103db7f79ec1734da2430052e9d78936f451aad707e5bed12ef4806b06dc3d0c38f0e31546001600160a01b031690565b60006103cb8261082f565b60006104298261052a565b9050806001600160a01b0316836001600160a01b03160361045d5760405163424a22cb60e01b815260040160405180910390fd5b336001600160a01b0382161480159061047d575061047b8133610784565b155b1561049b57604051632f5de44f60e01b815260040160405180910390fd5b6104a58383610892565b505050565b60006103db61091f565b6104be3382610938565b6104db57604051632f5de44f60e01b815260040160405180910390fd5b6104a58383836109be565b60006104f28383610aed565b9392505050565b6104a5838383604051806020016040528060008152506105fe565b60006103cb82610b1c565b60006103cb82610b36565b60006103cb82610b57565b60006103cb82610b9b565b60606103db610bf2565b336001600160a01b038316036105735760405163424a22cb60e01b815260040160405180910390fd5b3360008181527f3c7bf052874fa81625121783266a03507bd2cd48b16e571c01a04e8dd3fb07aa602090815260408083206001600160a01b03871680855290835292819020805460ff191686151590811790915590519081529192917f17307eab39ab6107e8899845ad3d59bd9653f200f220920489ca2b5937696c31910160405180910390a35050565b6106083383610938565b61062557604051632f5de44f60e01b815260040160405180910390fd5b61063184848484610c11565b50505050565b60606103cb82610c45565b7f79ec1734da2430052e9d78936f451aad707e5bed12ef4806b06dc3d0c38f0e305460ff16156106ca5760405162461bcd60e51b815260206004820152602860248201527f537465776172644c6963656e736546616365743a20616c726561647920696e696044820152671d1a585b1a5e995960c21b60648201526084015b60405180910390fd5b6106d78585858585610e26565b5050505050565b3330146107685760405162461bcd60e51b815260206004820152604c60248201527f4e6174697665537465776172644c6963656e73653a205472696767657220747260448201527f616e736665722063616e206f6e6c792062652063616c6c65642066726f6d206160648201526b1b9bdd1a195c88199858d95d60a21b608482015260a4016106c1565b61077181610b1c565b15156000036104db576104a58282610f0f565b60006104f28383610ff2565b6060600080516020611ef283398151915280546107ac90611bb6565b80601f01602080910402602001604051908101604052809291908181526020018280546107d890611bb6565b80156108255780601f106107fa57610100808354040283529160200191610825565b820191906000526020600020905b81548152906001019060200180831161080857829003601f168201915b5050505050905090565b600061083a82610b1c565b6108575760405163c1b843ef60e01b815260040160405180910390fd5b5060009081527f3c7bf052874fa81625121783266a03507bd2cd48b16e571c01a04e8dd3fb07a960205260409020546001600160a01b031690565b60008181527f3c7bf052874fa81625121783266a03507bd2cd48b16e571c01a04e8dd3fb07a96020526040902080546001600160a01b0319166001600160a01b03841690811790915581906108e682610b57565b6001600160a01b03167f8c5be1e5ebec7d5bd14f71427d1e84f3dd0314c0f7b2291e5b200ac8c7c3b92560405160405180910390a45050565b60006103db600080516020611ed283398151915261103f565b600061094382610b1c565b6109605760405163c1b843ef60e01b815260040160405180910390fd5b600061096b83610b57565b9050806001600160a01b0316846001600160a01b031614806109a65750836001600160a01b031661099b8461082f565b6001600160a01b0316145b806109b657506109b68185610ff2565b949350505050565b826001600160a01b03166109d182610b57565b6001600160a01b0316146109f857604051630f2db4ad60e01b815260040160405180910390fd5b6001600160a01b038216610a1f576040516340311a0960e01b815260040160405180910390fd5b610a2a838383611049565b610a35600082610892565b6001600160a01b0383166000908152600080516020611eb283398151915260205260409020600080516020611ed283398151915290610a74908361113e565b506001600160a01b03831660009081526002820160205260409020610a99908361114a565b50610aa5818385611156565b5081836001600160a01b0316856001600160a01b03167fddf252ad1be2c89b69c2b068fc378daa952ba7f163c4a11628f55a4df523b3ef60405160405180910390a450505050565b6001600160a01b0382166000908152600080516020611eb2833981519152602052604081206104f2908361116c565b60006103cb600080516020611ed283398151915283611178565b6000610b50600080516020611ed283398151915283611190565b5092915050565b600080610b72600080516020611ed2833981519152846111ac565b90506001600160a01b0381166103cb57604051637e1a7d8b60e01b815260040160405180910390fd5b60006001600160a01b038216610bc457604051630810ff9760e41b815260040160405180910390fd5b6001600160a01b0382166000908152600080516020611eb2833981519152602052604090206103cb9061103f565b6060600080516020611ef283398151915260010180546107ac90611bb6565b610c1c8484846109be565b610c28848484846111b8565b61063157604051639ff10cdd60e01b815260040160405180910390fd5b6060610c5082610b1c565b610c6c57604051624705a760e71b815260040160405180910390fd5b60008281527f99574a7094154bb123ae6ae102096f0bf9679b85a5cd1e727aaa0ae5f132e6b4602052604081208054600080516020611ef2833981519152929190610cb690611bb6565b80601f0160208091040260200160405190810160405280929190818152602001828054610ce290611bb6565b8015610d2f5780601f10610d0457610100808354040283529160200191610d2f565b820191906000526020600020905b815481529060010190602001808311610d1257829003601f168201915b505050505090506000826002018054610d4790611bb6565b80601f0160208091040260200160405190810160405280929190818152602001828054610d7390611bb6565b8015610dc05780601f10610d9557610100808354040283529160200191610dc0565b820191906000526020600020905b815481529060010190602001808311610da357829003601f168201915b505050505090508051600003610dd857509392505050565b815115610e0b578082604051602001610df2929190611bf0565b6040516020818303038152906040529350505050919050565b80610e1586611289565b604051602001610df2929190611bf0565b7f79ec1734da2430052e9d78936f451aad707e5bed12ef4806b06dc3d0c38f0e3080546001600160a01b03868116610100026001600160a81b03199092169190911760011782557f79ec1734da2430052e9d78936f451aad707e5bed12ef4806b06dc3d0c38f0e3180549188166001600160a01b03199092169190911790556000600080516020611ef2833981519152905080610ec38682611c6d565b5060018101610ed28582611c6d565b5060028101610ee18482611c6d565b50610ef46301ffc9a760e01b600161138a565b610f066380ac58cd60e01b600161138a565b50505050505050565b6001600160a01b038216610f36576040516311f2988d60e11b815260040160405180910390fd5b610f3f81610b1c565b15610f5d57604051630d86bb7b60e31b815260040160405180910390fd5b610f6960008383611049565b6001600160a01b0382166000908152600080516020611eb283398151915260205260409020600080516020611ed283398151915290610fa8908361114a565b50610fb4818385611156565b5060405182906001600160a01b038516906000907fddf252ad1be2c89b69c2b068fc378daa952ba7f163c4a11628f55a4df523b3ef908290a4505050565b6001600160a01b0391821660009081527f3c7bf052874fa81625121783266a03507bd2cd48b16e571c01a04e8dd3fb07aa6020908152604080832093909416825291909152205460ff1690565b60006103cb825490565b6001600160a01b038316156111335760405163a7c12c1160e01b815260048101829052600090309063a7c12c1190602401602060405180830381865afa158015611097573d6000803e3d6000fd5b505050506040513d601f19601f820116820180604052508101906110bb9190611d2d565b905080156111315760405162461bcd60e51b815260206004820152603a60248201527f537465776172644c6963656e736546616365743a2043616e6e6f74207472616e60448201527f7366657220647572696e672061756374696f6e20706572696f6400000000000060648201526084016106c1565b505b6104a5838383611400565b60006104f2838361140b565b60006104f283836114c5565b60006109b684846001600160a01b038516611508565b60006104f283836115a7565b600081815260018301602052604081205415156104f2565b600080808061119f86866115f3565b9097909650945050505050565b60006104f28383611656565b60006001600160a01b0384163b6111d1575060016109b6565b600061125263150b7a0260e01b338887876040516024016111f59493929190611d4a565b604051602081830303815290604052906001600160e01b0319166020820180516001600160e01b038381831617835250505050604051806060016040528060328152602001611e80603291396001600160a01b03881691906116ba565b905060008180602001905181019061126a9190611d87565b6001600160e01b031916630a85bd0160e11b1492505050949350505050565b6060816000036112b05750506040805180820190915260018152600360fc1b602082015290565b8160005b81156112da57806112c481611dba565b91506112d39050600a83611de9565b91506112b4565b60008167ffffffffffffffff8111156112f5576112f56119b1565b6040519080825280601f01601f19166020018201604052801561131f576020820181803683370190505b5090505b84156109b657611334600183611dfd565b9150611341600a86611e10565b61134c906030611e24565b60f81b81838151811061136157611361611e37565b60200101906001600160f81b031916908160001a905350611383600a86611de9565b9450611323565b6001600160e01b031980831690036113b55760405163b0a19dd560e01b815260040160405180910390fd5b6001600160e01b03199190911660009081527ffc606c433378e3a7e0a6a531deac289b66caa1b4aa8554fd4ab2c6f1570f92d860205260409020805460ff1916911515919091179055565b6104a58383836116c9565b60008181526001830160205260408120548015610b505783546000908590600019810190811061143d5761143d611e37565b906000526020600020015490508085600001600184038154811061146357611463611e37565b600091825260208083209091019290925591825260018601905260409020819055835484908061149557611495611e4d565b60008281526020808220830160001990810183905590920190925593815260019485019093525050604081205590565b60008181526001830160205260408120546103cb575081546001808201845560008481526020808220909301849055845493815293810190915260409092205590565b600082815260018401602052604081205480820361156f5750506040805180820182528381526020808201848152865460018181018955600089815284812095516002909302909501918255915190820155865486845281880190925292909120556104f2565b8285600001600183038154811061158857611588611e37565b90600052602060002090600202016001018190555060009150506104f2565b815460009082106115cb5760405163e637bf3b60e01b815260040160405180910390fd5b8260000182815481106115e0576115e0611e37565b9060005260206000200154905092915050565b8154600090819083106116195760405163022fd82760e31b815260040160405180910390fd5b600084600001848154811061163057611630611e37565b906000526020600020906002020190508060000154816001015492509250509250929050565b600081815260018301602052604081205480820361168757604051633d547ec560e21b815260040160405180910390fd5b83600001600182038154811061169f5761169f611e37565b90600052602060002090600202016001015491505092915050565b60606109b6848460008561170d565b6001600160a01b0382166104a55760008181527f99574a7094154bb123ae6ae102096f0bf9679b85a5cd1e727aaa0ae5f132e6b4602052604081206104a5916117ca565b6060843b61172e57604051632270d6bf60e21b815260040160405180910390fd5b600080866001600160a01b0316858760405161174a9190611e63565b60006040518083038185875af1925050503d8060008114611787576040519150601f19603f3d011682016040523d82523d6000602084013e61178c565b606091505b509150915081156117a05791506109b69050565b8051156117b05780518082602001fd5b8360405162461bcd60e51b81526004016106c191906118a3565b5080546117d690611bb6565b6000825580601f106117e6575050565b601f0160209004906000526020600020908101906118049190611807565b50565b5b8082111561181c5760008155600101611808565b5090565b6001600160e01b03198116811461180457600080fd5b60006020828403121561184857600080fd5b81356104f281611820565b60005b8381101561186e578181015183820152602001611856565b50506000910152565b6000815180845261188f816020860160208601611853565b601f01601f19169290920160200192915050565b6020815260006104f26020830184611877565b6000602082840312156118c857600080fd5b5035919050565b80356001600160a01b03811681146118e657600080fd5b919050565b600080604083850312156118fe57600080fd5b611907836118cf565b946020939093013593505050565b60008060006060848603121561192a57600080fd5b611933846118cf565b9250611941602085016118cf565b9150604084013590509250925092565b60006020828403121561196357600080fd5b6104f2826118cf565b801515811461180457600080fd5b6000806040838503121561198d57600080fd5b611996836118cf565b915060208301356119a68161196c565b809150509250929050565b634e487b7160e01b600052604160045260246000fd5b600067ffffffffffffffff808411156119e2576119e26119b1565b604051601f8501601f19908116603f01168101908282118183101715611a0a57611a0a6119b1565b81604052809350858152868686011115611a2357600080fd5b858560208301376000602087830101525050509392505050565b60008060008060808587031215611a5357600080fd5b611a5c856118cf565b9350611a6a602086016118cf565b925060408501359150606085013567ffffffffffffffff811115611a8d57600080fd5b8501601f81018713611a9e57600080fd5b611aad878235602084016119c7565b91505092959194509250565b600082601f830112611aca57600080fd5b6104f2838335602085016119c7565b600080600080600060a08688031215611af157600080fd5b611afa866118cf565b9450611b08602087016118cf565b9350604086013567ffffffffffffffff80821115611b2557600080fd5b611b3189838a01611ab9565b94506060880135915080821115611b4757600080fd5b611b5389838a01611ab9565b93506080880135915080821115611b6957600080fd5b50611b7688828901611ab9565b9150509295509295909350565b60008060408385031215611b9657600080fd5b611b9f836118cf565b9150611bad602084016118cf565b90509250929050565b600181811c90821680611bca57607f821691505b602082108103611bea57634e487b7160e01b600052602260045260246000fd5b50919050565b60008351611c02818460208801611853565b835190830190611c16818360208801611853565b01949350505050565b601f8211156104a557600081815260208120601f850160051c81016020861015611c465750805b601f850160051c820191505b81811015611c6557828155600101611c52565b505050505050565b815167ffffffffffffffff811115611c8757611c876119b1565b611c9b81611c958454611bb6565b84611c1f565b602080601f831160018114611cd05760008415611cb85750858301515b600019600386901b1c1916600185901b178555611c65565b600085815260208120601f198616915b82811015611cff57888601518255948401946001909101908401611ce0565b5085821015611d1d5787850151600019600388901b60f8161c191681555b5050505050600190811b01905550565b600060208284031215611d3f57600080fd5b81516104f28161196c565b6001600160a01b0385811682528416602082015260408101839052608060608201819052600090611d7d90830184611877565b9695505050505050565b600060208284031215611d9957600080fd5b81516104f281611820565b634e487b7160e01b600052601160045260246000fd5b600060018201611dcc57611dcc611da4565b5060010190565b634e487b7160e01b600052601260045260246000fd5b600082611df857611df8611dd3565b500490565b818103818111156103cb576103cb611da4565b600082611e1f57611e1f611dd3565b500690565b808201808211156103cb576103cb611da4565b634e487b7160e01b600052603260045260246000fd5b634e487b7160e01b600052603160045260246000fd5b60008251611e75818460208701611853565b919091019291505056fe4552433732313a207472616e7366657220746f206e6f6e20455243373231526563656976657220696d706c656d656e7465723c7bf052874fa81625121783266a03507bd2cd48b16e571c01a04e8dd3fb07a83c7bf052874fa81625121783266a03507bd2cd48b16e571c01a04e8dd3fb07a699574a7094154bb123ae6ae102096f0bf9679b85a5cd1e727aaa0ae5f132e6b1a264697066735822122080fa6168e1db9e5983a52f0ea343831dead6283c2b03ba7ebc4672e4c3fef5a664736f6c63430008110033",
  "devdoc": {
    "details": "ERC-1155 token license for Steward. Transfers are disabled during an auction",
    "kind": "dev",
    "methods": {
      "approve(address,uint256)": {
        "params": {
          "operator": "address to be approved",
          "tokenId": "token to approve"
        }
      },
      "balanceOf(address)": {
        "returns": {
          "_0": "quantity of tokens held"
        }
      },
      "getApproved(uint256)": {
        "params": {
          "tokenId": "token to query"
        },
        "returns": {
          "_0": "address approved to spend token"
        }
      },
      "isApprovedForAll(address,address)": {
        "params": {
          "account": "address to query for approval granted",
          "operator": "address to query for approval received"
        },
        "returns": {
          "_0": "whether operator is approved to spend tokens held by account"
        }
      },
      "ownerOf(uint256)": {
        "params": {
          "tokenId": "token to query"
        },
        "returns": {
          "_0": "token owner"
        }
      },
      "safeTransferFrom(address,address,uint256)": {
        "params": {
          "from": "sender of token",
          "to": "receiver of token",
          "tokenId": "token id"
        }
      },
      "safeTransferFrom(address,address,uint256,bytes)": {
        "params": {
          "data": "data payload",
          "from": "sender of token",
          "to": "receiver of token",
          "tokenId": "token id"
        }
      },
      "setApprovalForAll(address,bool)": {
        "params": {
          "operator": "address to be approved",
          "status": "approval status"
        }
      },
      "supportsInterface(bytes4)": {
        "params": {
          "interfaceId": "interface id"
        },
        "returns": {
          "_0": "bool whether interface is supported"
        }
      },
      "tokenByIndex(uint256)": {
        "params": {
          "index": "position in global token list to query"
        },
        "returns": {
          "_0": "id of retrieved token"
        }
      },
      "tokenOfOwnerByIndex(address,uint256)": {
        "params": {
          "index": "position in owner's token list to query",
          "owner": "token holder to query"
        },
        "returns": {
          "_0": "id of retrieved token"
        }
      },
      "totalSupply()": {
        "returns": {
          "_0": "total supply"
        }
      },
      "transferFrom(address,address,uint256)": {
        "params": {
          "from": "sender of token",
          "to": "receiver of token",
          "tokenId": "token id"
        }
      }
    },
    "title": "NativeStewardLicenseFacet",
    "version": 1
  },
  "userdoc": {
    "kind": "user",
    "methods": {
      "approve(address,uint256)": {
        "notice": "grant approval to given account to spend token"
      },
      "balanceOf(address)": {
        "notice": "query the balance of given address"
      },
      "exists(uint256)": {
        "notice": "Check if token exists"
      },
      "getApproved(uint256)": {
        "notice": "get approval status for given token"
      },
      "initializeStewardLicense(address,address,string,string,string)": {
        "notice": "Initialize license"
      },
      "isApprovedForAll(address,address)": {
        "notice": "query approval status of given operator with respect to given address"
      },
      "minter()": {
        "notice": "Get minter"
      },
      "name()": {
        "notice": "inheritdoc IERC721Metadata"
      },
      "ownerOf(uint256)": {
        "notice": "query the owner of given token"
      },
      "safeTransferFrom(address,address,uint256)": {
        "notice": "transfer token between given addresses, checking for ERC721Receiver implementation if applicable"
      },
      "safeTransferFrom(address,address,uint256,bytes)": {
        "notice": "transfer token between given addresses, checking for ERC721Receiver implementation if applicable"
      },
      "setApprovalForAll(address,bool)": {
        "notice": "grant approval to or revoke approval from given account to spend all tokens held by sender"
      },
      "supportsInterface(bytes4)": {
        "notice": "query whether contract has registered support for given interface"
      },
      "symbol()": {
        "notice": "inheritdoc IERC721Metadata"
      },
      "tokenByIndex(uint256)": {
        "notice": "get token at given internal storage index"
      },
      "tokenOfOwnerByIndex(address,uint256)": {
        "notice": "get token of given owner at given internal storage index"
      },
      "tokenURI(uint256)": {
        "notice": "inheritdoc IERC721Metadata"
      },
      "totalSupply()": {
        "notice": "get total token supply"
      },
      "transferFrom(address,address,uint256)": {
        "notice": "transfer token between given addresses, without checking for ERC721Receiver implementation if applicable"
      },
      "triggerTransfer(address,address,uint256)": {
        "notice": "Trigger transfer of license"
      }
    },
    "version": 1
  },
  "storageLayout": {
    "storage": [],
    "types": null
  }
}