{
  "address": "0x3A62C85a8629f81124E2dBA3FaBE63880533D5D7",
  "abi": [
    {
      "inputs": [],
      "name": "AddressUtils__NotContract",
      "type": "error"
    },
    {
      "inputs": [],
      "name": "ERC165Base__InvalidInterfaceId",
      "type": "error"
    },
    {
      "inputs": [],
      "name": "ERC721Base__BalanceQueryZeroAddress",
      "type": "error"
    },
    {
      "inputs": [],
      "name": "ERC721Base__ERC721ReceiverNotImplemented",
      "type": "error"
    },
    {
      "inputs": [],
      "name": "ERC721Base__InvalidOwner",
      "type": "error"
    },
    {
      "inputs": [],
      "name": "ERC721Base__MintToZeroAddress",
      "type": "error"
    },
    {
      "inputs": [],
      "name": "ERC721Base__NonExistentToken",
      "type": "error"
    },
    {
      "inputs": [],
      "name": "ERC721Base__NotOwnerOrApproved",
      "type": "error"
    },
    {
      "inputs": [],
      "name": "ERC721Base__NotTokenOwner",
      "type": "error"
    },
    {
      "inputs": [],
      "name": "ERC721Base__SelfApproval",
      "type": "error"
    },
    {
      "inputs": [],
      "name": "ERC721Base__TokenAlreadyMinted",
      "type": "error"
    },
    {
      "inputs": [],
      "name": "ERC721Base__TransferToZeroAddress",
      "type": "error"
    },
    {
      "inputs": [],
      "name": "ERC721Metadata__NonExistentToken",
      "type": "error"
    },
    {
      "inputs": [],
      "name": "EnumerableMap__IndexOutOfBounds",
      "type": "error"
    },
    {
      "inputs": [],
      "name": "EnumerableMap__NonExistentKey",
      "type": "error"
    },
    {
      "inputs": [],
      "name": "EnumerableSet__IndexOutOfBounds",
      "type": "error"
    },
    {
      "inputs": [],
      "name": "UintUtils__InsufficientHexLength",
      "type": "error"
    },
    {
      "anonymous": false,
      "inputs": [
        {
          "indexed": true,
          "internalType": "address",
          "name": "owner",
          "type": "address"
        },
        {
          "indexed": true,
          "internalType": "address",
          "name": "operator",
          "type": "address"
        },
        {
          "indexed": true,
          "internalType": "uint256",
          "name": "tokenId",
          "type": "uint256"
        }
      ],
      "name": "Approval",
      "type": "event"
    },
    {
      "anonymous": false,
      "inputs": [
        {
          "indexed": true,
          "internalType": "address",
          "name": "owner",
          "type": "address"
        },
        {
          "indexed": true,
          "internalType": "address",
          "name": "operator",
          "type": "address"
        },
        {
          "indexed": false,
          "internalType": "bool",
          "name": "approved",
          "type": "bool"
        }
      ],
      "name": "ApprovalForAll",
      "type": "event"
    },
    {
      "anonymous": false,
      "inputs": [
        {
          "indexed": true,
          "internalType": "bytes32",
          "name": "role",
          "type": "bytes32"
        },
        {
          "indexed": true,
          "internalType": "bytes32",
          "name": "previousAdminRole",
          "type": "bytes32"
        },
        {
          "indexed": true,
          "internalType": "bytes32",
          "name": "newAdminRole",
          "type": "bytes32"
        }
      ],
      "name": "RoleAdminChanged",
      "type": "event"
    },
    {
      "anonymous": false,
      "inputs": [
        {
          "indexed": true,
          "internalType": "bytes32",
          "name": "role",
          "type": "bytes32"
        },
        {
          "indexed": true,
          "internalType": "address",
          "name": "account",
          "type": "address"
        },
        {
          "indexed": true,
          "internalType": "address",
          "name": "sender",
          "type": "address"
        }
      ],
      "name": "RoleGranted",
      "type": "event"
    },
    {
      "anonymous": false,
      "inputs": [
        {
          "indexed": true,
          "internalType": "bytes32",
          "name": "role",
          "type": "bytes32"
        },
        {
          "indexed": true,
          "internalType": "address",
          "name": "account",
          "type": "address"
        },
        {
          "indexed": true,
          "internalType": "address",
          "name": "sender",
          "type": "address"
        }
      ],
      "name": "RoleRevoked",
      "type": "event"
    },
    {
      "anonymous": false,
      "inputs": [
        {
          "indexed": true,
          "internalType": "address",
          "name": "from",
          "type": "address"
        },
        {
          "indexed": true,
          "internalType": "address",
          "name": "to",
          "type": "address"
        },
        {
          "indexed": true,
          "internalType": "uint256",
          "name": "tokenId",
          "type": "uint256"
        }
      ],
      "name": "Transfer",
      "type": "event"
    },
    {
      "inputs": [
        {
          "internalType": "address",
          "name": "to",
          "type": "address"
        },
        {
          "internalType": "string",
          "name": "tokenURI",
          "type": "string"
        },
        {
          "internalType": "uint256",
          "name": "tokenInitialPeriodStartTime",
          "type": "uint256"
        }
      ],
      "name": "addTokenToCollection",
      "outputs": [],
      "stateMutability": "nonpayable",
      "type": "function"
    },
    {
      "inputs": [
        {
          "internalType": "string[]",
          "name": "tokenURIs",
          "type": "string[]"
        },
        {
          "internalType": "uint256[]",
          "name": "tokenInitialPeriodStartTimes",
          "type": "uint256[]"
        },
        {
          "internalType": "bool",
          "name": "shouldMint",
          "type": "bool"
        }
      ],
      "name": "addTokensToCollection",
      "outputs": [],
      "stateMutability": "nonpayable",
      "type": "function"
    },
    {
      "inputs": [
        {
          "internalType": "address[]",
          "name": "to",
          "type": "address[]"
        },
        {
          "internalType": "string[]",
          "name": "tokenURIs",
          "type": "string[]"
        },
        {
          "internalType": "uint256[]",
          "name": "tokenInitialPeriodStartTimes",
          "type": "uint256[]"
        }
      ],
      "name": "addTokensToCollection",
      "outputs": [],
      "stateMutability": "nonpayable",
      "type": "function"
    },
    {
      "inputs": [
        {
          "internalType": "uint32",
          "name": "amount",
          "type": "uint32"
        },
        {
          "internalType": "uint256",
          "name": "initialPeriodStartTime",
          "type": "uint256"
        },
        {
          "internalType": "uint256",
          "name": "initialPeriodStartTimeOffset",
          "type": "uint256"
        },
        {
          "internalType": "string",
          "name": "baseURI",
          "type": "string"
        },
        {
          "internalType": "bool",
          "name": "shouldMint",
          "type": "bool"
        }
      ],
      "name": "addTokensWithBaseURIToCollection",
      "outputs": [],
      "stateMutability": "nonpayable",
      "type": "function"
    },
    {
      "inputs": [
        {
          "internalType": "address",
          "name": "operator",
          "type": "address"
        },
        {
          "internalType": "uint256",
          "name": "tokenId",
          "type": "uint256"
        }
      ],
      "name": "approve",
      "outputs": [],
      "stateMutability": "payable",
      "type": "function"
    },
    {
      "inputs": [
        {
          "internalType": "address",
          "name": "account",
          "type": "address"
        }
      ],
      "name": "balanceOf",
      "outputs": [
        {
          "internalType": "uint256",
          "name": "",
          "type": "uint256"
        }
      ],
      "stateMutability": "view",
      "type": "function"
    },
    {
      "inputs": [
        {
          "internalType": "uint256",
          "name": "tokenId",
          "type": "uint256"
        }
      ],
      "name": "exists",
      "outputs": [
        {
          "internalType": "bool",
          "name": "",
          "type": "bool"
        }
      ],
      "stateMutability": "view",
      "type": "function"
    },
    {
      "inputs": [
        {
          "internalType": "uint256",
          "name": "tokenId",
          "type": "uint256"
        }
      ],
      "name": "getApproved",
      "outputs": [
        {
          "internalType": "address",
          "name": "",
          "type": "address"
        }
      ],
      "stateMutability": "view",
      "type": "function"
    },
    {
      "inputs": [
        {
          "internalType": "address",
          "name": "minter_",
          "type": "address"
        },
        {
          "internalType": "address",
          "name": "addToCollectionMinter_",
          "type": "address"
        },
        {
          "internalType": "address",
          "name": "steward_",
          "type": "address"
        },
        {
          "internalType": "uint256",
          "name": "maxTokenCount_",
          "type": "uint256"
        },
        {
          "internalType": "bool",
          "name": "shouldMint",
          "type": "bool"
        },
        {
          "internalType": "string",
          "name": "name",
          "type": "string"
        },
        {
          "internalType": "string",
          "name": "symbol",
          "type": "string"
        },
        {
          "internalType": "string",
          "name": "baseURI",
          "type": "string"
        }
      ],
      "name": "initializeStewardLicense",
      "outputs": [],
      "stateMutability": "nonpayable",
      "type": "function"
    },
    {
      "inputs": [
        {
          "internalType": "address",
          "name": "account",
          "type": "address"
        },
        {
          "internalType": "address",
          "name": "operator",
          "type": "address"
        }
      ],
      "name": "isApprovedForAll",
      "outputs": [
        {
          "internalType": "bool",
          "name": "",
          "type": "bool"
        }
      ],
      "stateMutability": "view",
      "type": "function"
    },
    {
      "inputs": [],
      "name": "maxTokenCount",
      "outputs": [
        {
          "internalType": "uint256",
          "name": "",
          "type": "uint256"
        }
      ],
      "stateMutability": "view",
      "type": "function"
    },
    {
      "inputs": [
        {
          "internalType": "address",
          "name": "to",
          "type": "address"
        },
        {
          "internalType": "uint256",
          "name": "tokenId",
          "type": "uint256"
        }
      ],
      "name": "mintToken",
      "outputs": [],
      "stateMutability": "nonpayable",
      "type": "function"
    },
    {
      "inputs": [],
      "name": "minter",
      "outputs": [
        {
          "internalType": "address",
          "name": "",
          "type": "address"
        }
      ],
      "stateMutability": "view",
      "type": "function"
    },
    {
      "inputs": [],
      "name": "name",
      "outputs": [
        {
          "internalType": "string",
          "name": "",
          "type": "string"
        }
      ],
      "stateMutability": "view",
      "type": "function"
    },
    {
      "inputs": [
        {
          "internalType": "uint256",
          "name": "tokenId",
          "type": "uint256"
        }
      ],
      "name": "ownerOf",
      "outputs": [
        {
          "internalType": "address",
          "name": "",
          "type": "address"
        }
      ],
      "stateMutability": "view",
      "type": "function"
    },
    {
      "inputs": [
        {
          "internalType": "address",
          "name": "from",
          "type": "address"
        },
        {
          "internalType": "address",
          "name": "to",
          "type": "address"
        },
        {
          "internalType": "uint256",
          "name": "tokenId",
          "type": "uint256"
        }
      ],
      "name": "safeTransferFrom",
      "outputs": [],
      "stateMutability": "payable",
      "type": "function"
    },
    {
      "inputs": [
        {
          "internalType": "address",
          "name": "from",
          "type": "address"
        },
        {
          "internalType": "address",
          "name": "to",
          "type": "address"
        },
        {
          "internalType": "uint256",
          "name": "tokenId",
          "type": "uint256"
        },
        {
          "internalType": "bytes",
          "name": "data",
          "type": "bytes"
        }
      ],
      "name": "safeTransferFrom",
      "outputs": [],
      "stateMutability": "payable",
      "type": "function"
    },
    {
      "inputs": [
        {
          "internalType": "address",
          "name": "operator",
          "type": "address"
        },
        {
          "internalType": "bool",
          "name": "status",
          "type": "bool"
        }
      ],
      "name": "setApprovalForAll",
      "outputs": [],
      "stateMutability": "nonpayable",
      "type": "function"
    },
    {
      "inputs": [
        {
          "internalType": "bytes4",
          "name": "interfaceId",
          "type": "bytes4"
        }
      ],
      "name": "supportsInterface",
      "outputs": [
        {
          "internalType": "bool",
          "name": "",
          "type": "bool"
        }
      ],
      "stateMutability": "view",
      "type": "function"
    },
    {
      "inputs": [],
      "name": "symbol",
      "outputs": [
        {
          "internalType": "string",
          "name": "",
          "type": "string"
        }
      ],
      "stateMutability": "view",
      "type": "function"
    },
    {
      "inputs": [
        {
          "internalType": "uint256",
          "name": "index",
          "type": "uint256"
        }
      ],
      "name": "tokenByIndex",
      "outputs": [
        {
          "internalType": "uint256",
          "name": "",
          "type": "uint256"
        }
      ],
      "stateMutability": "view",
      "type": "function"
    },
    {
      "inputs": [
        {
          "internalType": "address",
          "name": "owner",
          "type": "address"
        },
        {
          "internalType": "uint256",
          "name": "index",
          "type": "uint256"
        }
      ],
      "name": "tokenOfOwnerByIndex",
      "outputs": [
        {
          "internalType": "uint256",
          "name": "",
          "type": "uint256"
        }
      ],
      "stateMutability": "view",
      "type": "function"
    },
    {
      "inputs": [
        {
          "internalType": "uint256",
          "name": "tokenId",
          "type": "uint256"
        }
      ],
      "name": "tokenURI",
      "outputs": [
        {
          "internalType": "string",
          "name": "",
          "type": "string"
        }
      ],
      "stateMutability": "view",
      "type": "function"
    },
    {
      "inputs": [],
      "name": "totalSupply",
      "outputs": [
        {
          "internalType": "uint256",
          "name": "",
          "type": "uint256"
        }
      ],
      "stateMutability": "view",
      "type": "function"
    },
    {
      "inputs": [
        {
          "internalType": "address",
          "name": "from",
          "type": "address"
        },
        {
          "internalType": "address",
          "name": "to",
          "type": "address"
        },
        {
          "internalType": "uint256",
          "name": "tokenId",
          "type": "uint256"
        }
      ],
      "name": "transferFrom",
      "outputs": [],
      "stateMutability": "payable",
      "type": "function"
    },
    {
      "inputs": [
        {
          "internalType": "address",
          "name": "from",
          "type": "address"
        },
        {
          "internalType": "address",
          "name": "to",
          "type": "address"
        },
        {
          "internalType": "uint256",
          "name": "tokenId",
          "type": "uint256"
        }
      ],
      "name": "triggerTransfer",
      "outputs": [],
      "stateMutability": "nonpayable",
      "type": "function"
    }
  ],
  "transactionHash": "0x446f6ca845aaa2771c5685eef33ecca66f326b816851c89f4d92154e8aa632c7",
  "args": [],
  "numDeployments": 13,
  "solcInputHash": "4d1a131ade7d531f20f9db4f4cb05ba8",
  "bytecode": "0x608060405234801561001057600080fd5b50612eba806100206000396000f3fe6080604052600436106101815760003560e01c80635d3c438e116100d1578063a8de31cd1161008a578063c4e627c211610064578063c4e627c214610430578063c87b56dd14610445578063e31a7c0114610465578063e985e9c51461048557600080fd5b8063a8de31cd146103dd578063b88d4fde146103fd578063c3f75fc11461041057600080fd5b80635d3c438e146103285780636352211e1461034857806370a082311461036857806379c650681461038857806395d89b41146103a8578063a22cb465146103bd57600080fd5b806318160ddd1161013e57806342842e0e1161011857806342842e0e146102b557806347e1cc25146102c85780634f558e79146102e85780634f6ccce71461030857600080fd5b806318160ddd1461025f57806323b872dd146102825780632f745c591461029557600080fd5b806301ffc9a71461018657806306fdde03146101bb57806307546172146101dd578063081812fc1461020a5780630849cc691461022a578063095ea7b31461024c575b600080fd5b34801561019257600080fd5b506101a66101a13660046122c4565b6104a5565b60405190151581526020015b60405180910390f35b3480156101c757600080fd5b506101d06104e8565b6040516101b29190612331565b3480156101e957600080fd5b506101f26104f7565b6040516001600160a01b0390911681526020016101b2565b34801561021657600080fd5b506101f2610225366004612344565b61052a565b34801561023657600080fd5b5061024a610245366004612545565b610535565b005b61024a61025a3660046125dc565b6105e1565b34801561026b57600080fd5b506102746105ef565b6040519081526020016101b2565b61024a610290366004612608565b6105f9565b3480156102a157600080fd5b506102746102b03660046125dc565b610609565b61024a6102c3366004612608565b61061c565b3480156102d457600080fd5b5061024a6102e3366004612649565b610627565b3480156102f457600080fd5b506101a6610303366004612344565b6106b7565b34801561031457600080fd5b50610274610323366004612344565b6106c2565b34801561033457600080fd5b5061024a61034336600461271d565b6106cd565b34801561035457600080fd5b506101f2610363366004612344565b6106f6565b34801561037457600080fd5b50610274610383366004612775565b610701565b34801561039457600080fd5b5061024a6103a33660046125dc565b61070c565b3480156103b457600080fd5b506101d0610940565b3480156103c957600080fd5b5061024a6103d8366004612792565b61094a565b3480156103e957600080fd5b5061024a6103f83660046127cb565b610954565b61024a61040b3660046128b0565b610a4a565b34801561041c57600080fd5b5061024a61042b36600461292f565b610a56565b34801561043c57600080fd5b50610274610ac4565b34801561045157600080fd5b506101d0610460366004612344565b610adc565b34801561047157600080fd5b5061024a610480366004612608565b610ae7565b34801561049157600080fd5b506101a66104a03660046129af565b610b7c565b6001600160e01b0319811660009081527ffc606c433378e3a7e0a6a531deac289b66caa1b4aa8554fd4ab2c6f1570f92d8602052604081205460ff165b92915050565b60606104f2610b88565b905090565b60006104f27f79ec1734da2430052e9d78936f451aad707e5bed12ef4806b06dc3d0c38f0e31546001600160a01b031690565b60006104e282610c27565b600080516020612e6583398151915261054d81610c8a565b60005b84518110156105da576000831561058657600080516020612de58339815191525461010090046001600160a01b0316905061058a565b5060005b6105c7818784815181106105a0576105a06129dd565b60200260200101518785815181106105ba576105ba6129dd565b6020026020010151610c97565b50806105d281612a09565b915050610550565b5050505050565b6105eb8282610d4d565b5050565b60006104f2610e45565b610604838383610e5e565b505050565b60006106158383610e90565b9392505050565b610604838383610ebf565b600080516020612de58339815191525460ff161561069d5760405162461bcd60e51b815260206004820152602860248201527f537465776172644c6963656e736546616365743a20616c726561647920696e696044820152671d1a585b1a5e995960c21b60648201526084015b60405180910390fd5b6106ad8888888888888888610eda565b5050505050505050565b60006104e28261100d565b60006104e282611027565b600080516020612e658339815191526106e581610c8a565b6106f0848484610c97565b50505050565b60006104e282611048565b60006104e28261108c565b306001600160a01b0316633882ce8e6040518163ffffffff1660e01b8152600401602060405180830381865afa15801561074a573d6000803e3d6000fd5b505050506040513d601f19601f8201168201806040525081019061076e9190612a22565b6001600160a01b0316336001600160a01b0316146107f45760405162461bcd60e51b815260206004820152603760248201527f537465776172644c6963656e736546616365743a206f6e6c7920696e6974696160448201527f6c206269646465722063616e206d696e7420746f6b656e0000000000000000006064820152608401610694565b306001600160a01b031663be6a2a6d6040518163ffffffff1660e01b8152600401602060405180830381865afa158015610832573d6000803e3d6000fd5b505050506040513d601f19601f820116820180604052508101906108569190612a3f565b42106108cc576040805162461bcd60e51b81526020600482015260248101919091527f537465776172644c6963656e736546616365743a2063616e6e6f74206d696e7460448201527f20616674657220696e697469616c20706572696f642073746172742074696d656064820152608401610694565b6108d58161100d565b156109345760405162461bcd60e51b815260206004820152602960248201527f537465776172644c6963656e736546616365743a20546f6b656e20616c72656160448201526864792065786973747360b81b6064820152608401610694565b6105eb600083836110e3565b60606104f26110fa565b6105eb8282611119565b600080516020612e6583398151915261096c81610c8a565b8251845114801561097e575081518451145b6109e35760405162461bcd60e51b815260206004820152603060248201527f537465776172644c6963656e736546616365743a20696e70757420617272617960448201526f040d8cadccee8d040dad2e6dac2e8c6d60831b6064820152608401610694565b60005b83518110156105da57610a38858281518110610a0457610a046129dd565b6020026020010151858381518110610a1e57610a1e6129dd565b60200260200101518584815181106105ba576105ba6129dd565b80610a4281612a09565b9150506109e6565b6106f0848484846111cd565b600080516020612e65833981519152610a6e81610c8a565b60005b8663ffffffff168163ffffffff161015610abb57610aa98484610a9a63ffffffff851689612a58565b610aa4908a612a77565b611200565b80610ab381612a8a565b915050610a71565b50505050505050565b60006104f2600080516020612e258339815191525490565b60606104e2826112e3565b333014610b715760405162461bcd60e51b815260206004820152604c60248201527f4e6174697665537465776172644c6963656e73653a205472696767657220747260448201527f616e736665722063616e206f6e6c792062652063616c6c65642066726f6d206160648201526b1b9bdd1a195c88199858d95d60a21b608482015260a401610694565b6106048383836110e3565b600061061583836114c7565b6060600080516020612e458339815191528054610ba490612aad565b80601f0160208091040260200160405190810160405280929190818152602001828054610bd090612aad565b8015610c1d5780601f10610bf257610100808354040283529160200191610c1d565b820191906000526020600020905b815481529060010190602001808311610c0057829003601f168201915b5050505050905090565b6000610c328261100d565b610c4f5760405163c1b843ef60e01b815260040160405180910390fd5b5060009081527f3c7bf052874fa81625121783266a03507bd2cd48b16e571c01a04e8dd3fb07a960205260409020546001600160a01b031690565b610c948133611514565b50565b600080516020612e258339815191528054600080516020612de5833981519152916001906000610cc78385612a77565b909155505060008181527f99574a7094154bb123ae6ae102096f0bf9679b85a5cd1e727aaa0ae5f132e6b460205260409020610d038582612b35565b5060008181527fc7ed1b841b2d3c7f16d15642e7b013e89732e44006608d59c7547b8e331a7ce9602052604090208390556001600160a01b038516156105da576105da8582611576565b6000610d5882611048565b9050806001600160a01b0316836001600160a01b031603610d8c5760405163424a22cb60e01b815260040160405180910390fd5b336001600160a01b03821614801590610dac5750610daa81336114c7565b155b15610dca57604051632f5de44f60e01b815260040160405180910390fd5b60008281527f3c7bf052874fa81625121783266a03507bd2cd48b16e571c01a04e8dd3fb07a9602052604080822080546001600160a01b0319166001600160a01b0387811691821790925591518593918516917f8c5be1e5ebec7d5bd14f71427d1e84f3dd0314c0f7b2291e5b200ac8c7c3b92591a4505050565b60006104f2600080516020612e05833981519152611659565b610e683382611663565b610e8557604051632f5de44f60e01b815260040160405180910390fd5b6106048383836116e9565b6001600160a01b0382166000908152600080516020612dc5833981519152602052604081206106159083611866565b610604838383604051806020016040528060008152506111cd565b600080516020612de583398151915280546001600160a01b03888116610100026001600160a81b03199092169190911760011782557f79ec1734da2430052e9d78936f451aad707e5bed12ef4806b06dc3d0c38f0e318054918b166001600160a01b0319909216919091179055600080516020612e258339815191528690556000600080516020612e45833981519152905080610f778682612b35565b5060018101610f868582612b35565b5060028101610f958482612b35565b50610fa86301ffc9a760e01b6001611872565b610fba6380ac58cd60e01b6001611872565b610fd2600080516020612e658339815191528a6118e8565b85156110015760005b87811015610fff57610fed8982611576565b80610ff781612a09565b915050610fdb565b505b50505050505050505050565b60006104e2600080516020612e058339815191528361195c565b6000611041600080516020612e0583398151915283611974565b5092915050565b600080611063600080516020612e0583398151915284611990565b90506001600160a01b0381166104e257604051637e1a7d8b60e01b815260040160405180910390fd5b60006001600160a01b0382166110b557604051630810ff9760e41b815260040160405180910390fd5b6001600160a01b0382166000908152600080516020612dc5833981519152602052604090206104e290611659565b6110ec8161100d565b610e85576106048282611576565b6060600080516020612e458339815191526001018054610ba490612aad565b336001600160a01b038316036111425760405163424a22cb60e01b815260040160405180910390fd5b3360008181527f3c7bf052874fa81625121783266a03507bd2cd48b16e571c01a04e8dd3fb07aa602090815260408083206001600160a01b03871680855290835292819020805460ff191686151590811790915590519081529192917f17307eab39ab6107e8899845ad3d59bd9653f200f220920489ca2b5937696c31910160405180910390a35050565b6111d73383611663565b6111f457604051632f5de44f60e01b815260040160405180910390fd5b6106f08484848461199c565b600080516020612e258339815191528054600080516020612de58339815191529160019060006112308385612a77565b90915550859050611240826119d0565b604051602001611251929190612bf4565b604051602081830303815290604052611275600080516020612e4583398151915290565b600083815260039190910160205260409020906112929082612b35565b5060008181527fc7ed1b841b2d3c7f16d15642e7b013e89732e44006608d59c7547b8e331a7ce96020526040902083905583156105da5781546105da9061010090046001600160a01b031682611576565b600080516020612e2583398151915254606090600080516020612de583398151915290831061132457604051624705a760e71b815260040160405180910390fd5b60008381527f99574a7094154bb123ae6ae102096f0bf9679b85a5cd1e727aaa0ae5f132e6b4602052604081208054600080516020612e4583398151915292919061136e90612aad565b80601f016020809104026020016040519081016040528092919081815260200182805461139a90612aad565b80156113e75780601f106113bc576101008083540402835291602001916113e7565b820191906000526020600020905b8154815290600101906020018083116113ca57829003601f168201915b5050505050905060008260020180546113ff90612aad565b80601f016020809104026020016040519081016040528092919081815260200182805461142b90612aad565b80156114785780601f1061144d57610100808354040283529160200191611478565b820191906000526020600020905b81548152906001019060200180831161145b57829003601f168201915b505050505090506000825111156114925750949350505050565b8061149c876119d0565b6040516020016114ad929190612bf4565b604051602081830303815290604052945050505050919050565b6001600160a01b0391821660009081527f3c7bf052874fa81625121783266a03507bd2cd48b16e571c01a04e8dd3fb07aa6020908152604080832093909416825291909152205460ff1690565b61151e8282611ad0565b6105eb57611534816001600160a01b0316611b07565b61153f836020611b19565b604051602001611550929190612c23565b60408051601f198184030181529082905262461bcd60e51b825261069491600401612331565b6001600160a01b03821661159d576040516311f2988d60e11b815260040160405180910390fd5b6115a68161100d565b156115c457604051630d86bb7b60e31b815260040160405180910390fd5b6115d060008383611c6b565b6001600160a01b0382166000908152600080516020612dc583398151915260205260409020600080516020612e058339815191529061160f9083611d60565b5061161b818385611d6c565b5060405182906001600160a01b038516906000907fddf252ad1be2c89b69c2b068fc378daa952ba7f163c4a11628f55a4df523b3ef908290a4505050565b60006104e2825490565b600061166e8261100d565b61168b5760405163c1b843ef60e01b815260040160405180910390fd5b600061169683611048565b9050806001600160a01b0316846001600160a01b031614806116d15750836001600160a01b03166116c684610c27565b6001600160a01b0316145b806116e157506116e181856114c7565b949350505050565b60006116f482611048565b9050836001600160a01b0316816001600160a01b03161461172857604051630f2db4ad60e01b815260040160405180910390fd5b6001600160a01b03831661174f576040516340311a0960e01b815260040160405180910390fd5b61175a848484611c6b565b6001600160a01b0384166000908152600080516020612dc583398151915260205260409020600080516020612e05833981519152906117999084611d82565b506001600160a01b038416600090815260028201602052604090206117be9084611d60565b506117ca818486611d6c565b50600083815260038201602052604080822080546001600160a01b0319169055518491906001600160a01b038516907f8c5be1e5ebec7d5bd14f71427d1e84f3dd0314c0f7b2291e5b200ac8c7c3b925908390a482846001600160a01b0316866001600160a01b03167fddf252ad1be2c89b69c2b068fc378daa952ba7f163c4a11628f55a4df523b3ef60405160405180910390a45050505050565b60006106158383611d8e565b6001600160e01b0319808316900361189d5760405163b0a19dd560e01b815260040160405180910390fd5b6001600160e01b03199190911660009081527ffc606c433378e3a7e0a6a531deac289b66caa1b4aa8554fd4ab2c6f1570f92d860205260409020805460ff1916911515919091179055565b60008281527fd3889cc5458b268d0544e5534672df1296288ca3f93cbd39bd6f497a5c6228116020526040902061191f9082611dda565b5060405133906001600160a01b0383169084907f2f8788117e7eff1d82e926ec794901d17c78024a50270940304540a733656f0d90600090a45050565b60008181526001830160205260408120541515610615565b60008080806119838686611def565b9097909650945050505050565b60006106158383611e52565b6119a78484846116e9565b6119b384848484611eb6565b6106f057604051639ff10cdd60e01b815260040160405180910390fd5b6060816000036119f75750506040805180820190915260018152600360fc1b602082015290565b8160005b8115611a215780611a0b81612a09565b9150611a1a9050600a83612cae565b91506119fb565b6000816001600160401b03811115611a3b57611a3b61235d565b6040519080825280601f01601f191660200182016040528015611a65576020820181803683370190505b5090505b84156116e157611a7a600183612cc2565b9150611a87600a86612cd5565b611a92906030612a77565b60f81b818381518110611aa757611aa76129dd565b60200101906001600160f81b031916908160001a905350611ac9600a86612cae565b9450611a69565b60008281527fd3889cc5458b268d0544e5534672df1296288ca3f93cbd39bd6f497a5c622811602052604081206106159083611f87565b60606104e26001600160a01b03831660145b60606000611b28836002612a58565b611b33906002612a77565b6001600160401b03811115611b4a57611b4a61235d565b6040519080825280601f01601f191660200182016040528015611b74576020820181803683370190505b509050600360fc1b81600081518110611b8f57611b8f6129dd565b60200101906001600160f81b031916908160001a905350600f60fb1b81600181518110611bbe57611bbe6129dd565b60200101906001600160f81b031916908160001a905350600160028402015b6001811115611c4b576f181899199a1a9b1b9c1cb0b131b232b360811b85600f1660108110611c0e57611c0e6129dd565b1a60f81b828281518110611c2457611c246129dd565b60200101906001600160f81b031916908160001a90535060049490941c9360001901611bdd565b5083156106155760405163c913478560e01b815260040160405180910390fd5b6001600160a01b03831615611d555760405163a7c12c1160e01b815260048101829052600090309063a7c12c1190602401602060405180830381865afa158015611cb9573d6000803e3d6000fd5b505050506040513d601f19601f82011682018060405250810190611cdd9190612ce9565b90508015611d535760405162461bcd60e51b815260206004820152603a60248201527f537465776172644c6963656e736546616365743a2043616e6e6f74207472616e60448201527f7366657220647572696e672061756374696f6e20706572696f640000000000006064820152608401610694565b505b610604838383611fa9565b60006106158383611fb4565b60006116e184846001600160a01b038516611ff7565b60006106158383612096565b81546000908210611db25760405163e637bf3b60e01b815260040160405180910390fd5b826000018281548110611dc757611dc76129dd565b9060005260206000200154905092915050565b6000610615836001600160a01b038416611fb4565b815460009081908310611e155760405163022fd82760e31b815260040160405180910390fd5b6000846000018481548110611e2c57611e2c6129dd565b906000526020600020906002020190508060000154816001015492509250509250929050565b6000818152600183016020526040812054808203611e8357604051633d547ec560e21b815260040160405180910390fd5b836000016001820381548110611e9b57611e9b6129dd565b90600052602060002090600202016001015491505092915050565b60006001600160a01b0384163b611ecf575060016116e1565b6000611f5063150b7a0260e01b33888787604051602401611ef39493929190612d06565b604051602081830303815290604052906001600160e01b0319166020820180516001600160e01b038381831617835250505050604051806060016040528060328152602001612d93603291396001600160a01b0388169190612150565b9050600081806020019051810190611f689190612d43565b6001600160e01b031916630a85bd0160e11b1492505050949350505050565b6001600160a01b03811660009081526001830160205260408120541515610615565b61060483838361215f565b60008181526001830160205260408120546104e2575081546001808201845560008481526020808220909301849055845493815293810190915260409092205590565b600082815260018401602052604081205480820361205e575050604080518082018252838152602080820184815286546001818101895560008981528481209551600290930290950191825591519082015586548684528188019092529290912055610615565b82856000016001830381548110612077576120776129dd565b9060005260206000209060020201600101819055506000915050610615565b60008181526001830160205260408120548015611041578354600090859060001981019081106120c8576120c86129dd565b90600052602060002001549050808560000160018403815481106120ee576120ee6129dd565b600091825260208083209091019290925591825260018601905260409020819055835484908061212057612120612d60565b60008281526020808220830160001990810183905590920190925593815260019485019093525050604081205590565b60606116e184846000856121a3565b6001600160a01b0382166106045760008181527f99574a7094154bb123ae6ae102096f0bf9679b85a5cd1e727aaa0ae5f132e6b46020526040812061060491612260565b6060843b6121c457604051632270d6bf60e21b815260040160405180910390fd5b600080866001600160a01b031685876040516121e09190612d76565b60006040518083038185875af1925050503d806000811461221d576040519150601f19603f3d011682016040523d82523d6000602084013e612222565b606091505b509150915081156122365791506116e19050565b8051156122465780518082602001fd5b8360405162461bcd60e51b81526004016106949190612331565b50805461226c90612aad565b6000825580601f1061227c575050565b601f016020900490600052602060002090810190610c9491905b808211156122aa5760008155600101612296565b5090565b6001600160e01b031981168114610c9457600080fd5b6000602082840312156122d657600080fd5b8135610615816122ae565b60005b838110156122fc5781810151838201526020016122e4565b50506000910152565b6000815180845261231d8160208601602086016122e1565b601f01601f19169290920160200192915050565b6020815260006106156020830184612305565b60006020828403121561235657600080fd5b5035919050565b634e487b7160e01b600052604160045260246000fd5b604051601f8201601f191681016001600160401b038111828210171561239b5761239b61235d565b604052919050565b60006001600160401b038211156123bc576123bc61235d565b5060051b60200190565b60006001600160401b038311156123df576123df61235d565b6123f2601f8401601f1916602001612373565b905082815283838301111561240657600080fd5b828260208301376000602084830101529392505050565b600082601f83011261242e57600080fd5b610615838335602085016123c6565b600082601f83011261244e57600080fd5b8135602061246361245e836123a3565b612373565b82815260059290921b8401810191818101908684111561248257600080fd5b8286015b848110156124c15780356001600160401b038111156124a55760008081fd5b6124b38986838b010161241d565b845250918301918301612486565b509695505050505050565b600082601f8301126124dd57600080fd5b813560206124ed61245e836123a3565b82815260059290921b8401810191818101908684111561250c57600080fd5b8286015b848110156124c15780358352918301918301612510565b8015158114610c9457600080fd5b803561254081612527565b919050565b60008060006060848603121561255a57600080fd5b83356001600160401b038082111561257157600080fd5b61257d8783880161243d565b9450602086013591508082111561259357600080fd5b506125a0868287016124cc565b92505060408401356125b181612527565b809150509250925092565b6001600160a01b0381168114610c9457600080fd5b8035612540816125bc565b600080604083850312156125ef57600080fd5b82356125fa816125bc565b946020939093013593505050565b60008060006060848603121561261d57600080fd5b8335612628816125bc565b92506020840135612638816125bc565b929592945050506040919091013590565b600080600080600080600080610100898b03121561266657600080fd5b61266f896125d1565b975061267d60208a016125d1565b965061268b60408a016125d1565b9550606089013594506126a060808a01612535565b935060a08901356001600160401b03808211156126bc57600080fd5b6126c88c838d0161241d565b945060c08b01359150808211156126de57600080fd5b6126ea8c838d0161241d565b935060e08b013591508082111561270057600080fd5b5061270d8b828c0161241d565b9150509295985092959890939650565b60008060006060848603121561273257600080fd5b833561273d816125bc565b925060208401356001600160401b0381111561275857600080fd5b6127648682870161241d565b925050604084013590509250925092565b60006020828403121561278757600080fd5b8135610615816125bc565b600080604083850312156127a557600080fd5b82356127b0816125bc565b915060208301356127c081612527565b809150509250929050565b6000806000606084860312156127e057600080fd5b83356001600160401b03808211156127f757600080fd5b818601915086601f83011261280b57600080fd5b8135602061281b61245e836123a3565b82815260059290921b8401810191818101908a84111561283a57600080fd5b948201945b83861015612861578535612852816125bc565b8252948201949082019061283f565b9750508701359250508082111561287757600080fd5b6128838783880161243d565b9350604086013591508082111561289957600080fd5b506128a6868287016124cc565b9150509250925092565b600080600080608085870312156128c657600080fd5b84356128d1816125bc565b935060208501356128e1816125bc565b92506040850135915060608501356001600160401b0381111561290357600080fd5b8501601f8101871361291457600080fd5b612923878235602084016123c6565b91505092959194509250565b600080600080600060a0868803121561294757600080fd5b853563ffffffff8116811461295b57600080fd5b9450602086013593506040860135925060608601356001600160401b0381111561298457600080fd5b6129908882890161241d565b92505060808601356129a181612527565b809150509295509295909350565b600080604083850312156129c257600080fd5b82356129cd816125bc565b915060208301356127c0816125bc565b634e487b7160e01b600052603260045260246000fd5b634e487b7160e01b600052601160045260246000fd5b600060018201612a1b57612a1b6129f3565b5060010190565b600060208284031215612a3457600080fd5b8151610615816125bc565b600060208284031215612a5157600080fd5b5051919050565b6000816000190483118215151615612a7257612a726129f3565b500290565b808201808211156104e2576104e26129f3565b600063ffffffff808316818103612aa357612aa36129f3565b6001019392505050565b600181811c90821680612ac157607f821691505b602082108103612ae157634e487b7160e01b600052602260045260246000fd5b50919050565b601f82111561060457600081815260208120601f850160051c81016020861015612b0e5750805b601f850160051c820191505b81811015612b2d57828155600101612b1a565b505050505050565b81516001600160401b03811115612b4e57612b4e61235d565b612b6281612b5c8454612aad565b84612ae7565b602080601f831160018114612b975760008415612b7f5750858301515b600019600386901b1c1916600185901b178555612b2d565b600085815260208120601f198616915b82811015612bc657888601518255948401946001909101908401612ba7565b5085821015612be45787850151600019600388901b60f8161c191681555b5050505050600190811b01905550565b60008351612c068184602088016122e1565b835190830190612c1a8183602088016122e1565b01949350505050565b7f416363657373436f6e74726f6c3a206163636f756e7420000000000000000000815260008351612c5b8160178501602088016122e1565b7001034b99036b4b9b9b4b733903937b6329607d1b6017918401918201528351612c8c8160288401602088016122e1565b01602801949350505050565b634e487b7160e01b600052601260045260246000fd5b600082612cbd57612cbd612c98565b500490565b818103818111156104e2576104e26129f3565b600082612ce457612ce4612c98565b500690565b600060208284031215612cfb57600080fd5b815161061581612527565b6001600160a01b0385811682528416602082015260408101839052608060608201819052600090612d3990830184612305565b9695505050505050565b600060208284031215612d5557600080fd5b8151610615816122ae565b634e487b7160e01b600052603160045260246000fd5b60008251612d888184602087016122e1565b919091019291505056fe4552433732313a207472616e7366657220746f206e6f6e20455243373231526563656976657220696d706c656d656e7465723c7bf052874fa81625121783266a03507bd2cd48b16e571c01a04e8dd3fb07a879ec1734da2430052e9d78936f451aad707e5bed12ef4806b06dc3d0c38f0e303c7bf052874fa81625121783266a03507bd2cd48b16e571c01a04e8dd3fb07a679ec1734da2430052e9d78936f451aad707e5bed12ef4806b06dc3d0c38f0e3299574a7094154bb123ae6ae102096f0bf9679b85a5cd1e727aaa0ae5f132e6b17b62b800d8c954aa32a34a9249066e0f8761d6c1614c95cbc05c04ab0583a14ca2646970667358221220de3e670fb29bf8b583865c8ea90622f716c1f58e322865463e0eed0dd87494d964736f6c63430008100033",
  "devdoc": {
    "details": "ERC-1155 token license for Steward. Transfers are disabled during an auction",
    "kind": "dev",
    "methods": {
      "approve(address,uint256)": {
        "params": {
          "operator": "address to be approved",
          "tokenId": "token to approve"
        }
      },
      "balanceOf(address)": {
        "returns": {
          "_0": "quantity of tokens held"
        }
      },
      "getApproved(uint256)": {
        "params": {
          "tokenId": "token to query"
        },
        "returns": {
          "_0": "address approved to spend token"
        }
      },
      "isApprovedForAll(address,address)": {
        "params": {
          "account": "address to query for approval granted",
          "operator": "address to query for approval received"
        },
        "returns": {
          "_0": "whether operator is approved to spend tokens held by account"
        }
      },
      "ownerOf(uint256)": {
        "params": {
          "tokenId": "token to query"
        },
        "returns": {
          "_0": "token owner"
        }
      },
      "safeTransferFrom(address,address,uint256)": {
        "params": {
          "from": "sender of token",
          "to": "receiver of token",
          "tokenId": "token id"
        }
      },
      "safeTransferFrom(address,address,uint256,bytes)": {
        "params": {
          "data": "data payload",
          "from": "sender of token",
          "to": "receiver of token",
          "tokenId": "token id"
        }
      },
      "setApprovalForAll(address,bool)": {
        "params": {
          "operator": "address to be approved",
          "status": "approval status"
        }
      },
      "supportsInterface(bytes4)": {
        "params": {
          "interfaceId": "interface id"
        },
        "returns": {
          "_0": "bool whether interface is supported"
        }
      },
      "tokenByIndex(uint256)": {
        "params": {
          "index": "position in global token list to query"
        },
        "returns": {
          "_0": "id of retrieved token"
        }
      },
      "tokenOfOwnerByIndex(address,uint256)": {
        "params": {
          "index": "position in owner's token list to query",
          "owner": "token holder to query"
        },
        "returns": {
          "_0": "id of retrieved token"
        }
      },
      "totalSupply()": {
        "returns": {
          "_0": "total supply"
        }
      },
      "transferFrom(address,address,uint256)": {
        "params": {
          "from": "sender of token",
          "to": "receiver of token",
          "tokenId": "token id"
        }
      }
    },
    "title": "NativeStewardLicenseFacet",
    "version": 1
  },
  "userdoc": {
    "kind": "user",
    "methods": {
      "addTokenToCollection(address,string,uint256)": {
        "notice": "Add token to collection"
      },
      "addTokensToCollection(address[],string[],uint256[])": {
        "notice": "Add tokens to collection with to"
      },
      "addTokensToCollection(string[],uint256[],bool)": {
        "notice": "Add tokens to collection"
      },
      "addTokensWithBaseURIToCollection(uint32,uint256,uint256,string,bool)": {
        "notice": "Add tokens to collection with baseURI"
      },
      "approve(address,uint256)": {
        "notice": "grant approval to given account to spend token"
      },
      "balanceOf(address)": {
        "notice": "query the balance of given address"
      },
      "exists(uint256)": {
        "notice": "Check if token exists"
      },
      "getApproved(uint256)": {
        "notice": "get approval status for given token"
      },
      "initializeStewardLicense(address,address,address,uint256,bool,string,string,string)": {
        "notice": "Initialize license"
      },
      "isApprovedForAll(address,address)": {
        "notice": "query approval status of given operator with respect to given address"
      },
      "maxTokenCount()": {
        "notice": "Get max token count"
      },
      "mintToken(address,uint256)": {
        "notice": "Initial bidder can mint token if it doesn't exist"
      },
      "minter()": {
        "notice": "Get minter"
      },
      "name()": {
        "notice": "inheritdoc IERC721Metadata"
      },
      "ownerOf(uint256)": {
        "notice": "query the owner of given token"
      },
      "safeTransferFrom(address,address,uint256)": {
        "notice": "transfer token between given addresses, checking for ERC721Receiver implementation if applicable"
      },
      "safeTransferFrom(address,address,uint256,bytes)": {
        "notice": "transfer token between given addresses, checking for ERC721Receiver implementation if applicable"
      },
      "setApprovalForAll(address,bool)": {
        "notice": "grant approval to or revoke approval from given account to spend all tokens held by sender"
      },
      "supportsInterface(bytes4)": {
        "notice": "query whether contract has registered support for given interface"
      },
      "symbol()": {
        "notice": "inheritdoc IERC721Metadata"
      },
      "tokenByIndex(uint256)": {
        "notice": "get token at given internal storage index"
      },
      "tokenOfOwnerByIndex(address,uint256)": {
        "notice": "get token of given owner at given internal storage index"
      },
      "tokenURI(uint256)": {
        "notice": "inheritdoc IERC721Metadata"
      },
      "totalSupply()": {
        "notice": "get total token supply"
      },
      "transferFrom(address,address,uint256)": {
        "notice": "transfer token between given addresses, without checking for ERC721Receiver implementation if applicable"
      },
      "triggerTransfer(address,address,uint256)": {
        "notice": "Trigger transfer of license"
      }
    },
    "version": 1
  },
  "storageLayout": {
    "storage": [],
    "types": null
  }
}