{
  "address": "0xFfbd1FF3cEc7B5Ae502f1E62c7E1291C3110Da8C",
  "abi": [
    {
      "inputs": [],
      "name": "ERC165Base__InvalidInterfaceId",
      "type": "error"
    },
    {
      "inputs": [],
      "name": "UintUtils__InsufficientHexLength",
      "type": "error"
    },
    {
      "anonymous": false,
      "inputs": [
        {
          "indexed": false,
          "internalType": "uint256",
          "name": "feeDenominator",
          "type": "uint256"
        }
      ],
      "name": "FeeDenominatorSet",
      "type": "event"
    },
    {
      "anonymous": false,
      "inputs": [
        {
          "indexed": false,
          "internalType": "uint256",
          "name": "feeNumerator",
          "type": "uint256"
        }
      ],
      "name": "FeeNumeratorSet",
      "type": "event"
    },
    {
      "anonymous": false,
      "inputs": [
        {
          "indexed": false,
          "internalType": "uint256",
          "name": "licensePeriod",
          "type": "uint256"
        }
      ],
      "name": "LicensePeriodSet",
      "type": "event"
    },
    {
      "anonymous": false,
      "inputs": [
        {
          "indexed": true,
          "internalType": "bytes32",
          "name": "role",
          "type": "bytes32"
        },
        {
          "indexed": true,
          "internalType": "bytes32",
          "name": "previousAdminRole",
          "type": "bytes32"
        },
        {
          "indexed": true,
          "internalType": "bytes32",
          "name": "newAdminRole",
          "type": "bytes32"
        }
      ],
      "name": "RoleAdminChanged",
      "type": "event"
    },
    {
      "anonymous": false,
      "inputs": [
        {
          "indexed": true,
          "internalType": "bytes32",
          "name": "role",
          "type": "bytes32"
        },
        {
          "indexed": true,
          "internalType": "address",
          "name": "account",
          "type": "address"
        },
        {
          "indexed": true,
          "internalType": "address",
          "name": "sender",
          "type": "address"
        }
      ],
      "name": "RoleGranted",
      "type": "event"
    },
    {
      "anonymous": false,
      "inputs": [
        {
          "indexed": true,
          "internalType": "bytes32",
          "name": "role",
          "type": "bytes32"
        },
        {
          "indexed": true,
          "internalType": "address",
          "name": "account",
          "type": "address"
        },
        {
          "indexed": true,
          "internalType": "address",
          "name": "sender",
          "type": "address"
        }
      ],
      "name": "RoleRevoked",
      "type": "event"
    },
    {
      "inputs": [],
      "name": "feeDenominator",
      "outputs": [
        {
          "internalType": "uint256",
          "name": "",
          "type": "uint256"
        }
      ],
      "stateMutability": "view",
      "type": "function"
    },
    {
      "inputs": [],
      "name": "feeNumerator",
      "outputs": [
        {
          "internalType": "uint256",
          "name": "",
          "type": "uint256"
        }
      ],
      "stateMutability": "view",
      "type": "function"
    },
    {
      "inputs": [
        {
          "internalType": "address",
          "name": "owner_",
          "type": "address"
        },
        {
          "internalType": "uint256",
          "name": "licensePeriod_",
          "type": "uint256"
        },
        {
          "internalType": "uint256",
          "name": "feeNumerator_",
          "type": "uint256"
        },
        {
          "internalType": "uint256",
          "name": "feeDenominator_",
          "type": "uint256"
        }
      ],
      "name": "initializePCOParams",
      "outputs": [],
      "stateMutability": "nonpayable",
      "type": "function"
    },
    {
      "inputs": [
        {
          "internalType": "uint256",
          "name": "licensePeriod_",
          "type": "uint256"
        },
        {
          "internalType": "uint256",
          "name": "feeNumerator_",
          "type": "uint256"
        },
        {
          "internalType": "uint256",
          "name": "feeDenominator_",
          "type": "uint256"
        }
      ],
      "name": "initializePCOParams",
      "outputs": [],
      "stateMutability": "nonpayable",
      "type": "function"
    },
    {
      "inputs": [],
      "name": "licensePeriod",
      "outputs": [
        {
          "internalType": "uint256",
          "name": "",
          "type": "uint256"
        }
      ],
      "stateMutability": "view",
      "type": "function"
    },
    {
      "inputs": [
        {
          "internalType": "uint256",
          "name": "feeDenominator_",
          "type": "uint256"
        }
      ],
      "name": "setFeeDenominator",
      "outputs": [],
      "stateMutability": "nonpayable",
      "type": "function"
    },
    {
      "inputs": [
        {
          "internalType": "uint256",
          "name": "feeNumerator_",
          "type": "uint256"
        }
      ],
      "name": "setFeeNumerator",
      "outputs": [],
      "stateMutability": "nonpayable",
      "type": "function"
    },
    {
      "inputs": [
        {
          "internalType": "uint256",
          "name": "licensePeriod_",
          "type": "uint256"
        }
      ],
      "name": "setLicensePeriod",
      "outputs": [],
      "stateMutability": "nonpayable",
      "type": "function"
    },
    {
      "inputs": [
        {
          "internalType": "uint256",
          "name": "licensePeriod_",
          "type": "uint256"
        },
        {
          "internalType": "uint256",
          "name": "feeNumerator_",
          "type": "uint256"
        },
        {
          "internalType": "uint256",
          "name": "feeDenominator_",
          "type": "uint256"
        }
      ],
      "name": "setPCOParameters",
      "outputs": [],
      "stateMutability": "nonpayable",
      "type": "function"
    }
  ],
  "transactionHash": "0x08273513de29637a24f2dbdf224d90d26622b7955a46a5ca3428a125edaa9cc3",
  "args": [],
  "numDeployments": 6,
  "solcInputHash": "c548b1a12c4a5b4508c1d2fe38e3b576",
  "bytecode": "0x608060405234801561001057600080fd5b50610aa4806100206000396000f3fe608060405234801561001057600080fd5b50600436106100935760003560e01c8063a45db91111610066578063a45db911146100ed578063d8462a0814610100578063de7d90c314610113578063e86dea4a14610126578063fd8e6f281461012e57600080fd5b8063180b0d7e1461009857806343ff3a91146100b25780634a4f9cc5146100c75780638a30104a146100da575b600080fd5b6100a0610136565b60405190815260200160405180910390f35b6100c56100c0366004610817565b610165565b005b6100c56100d536600461085e565b6101eb565b6100c56100e836600461088a565b61023d565b6100c56100fb36600461088a565b610262565b6100c561010e36600461088a565b610283565b6100c561012136600461085e565b6102a4565b6100a06102c7565b6100a06102f1565b60006101607f47e38df96560ed74ceeb040528c687d6746edaa830d5a94a1d86a43df37c56115490565b905090565b600080516020610a4f8339815191525460ff161561019e5760405162461bcd60e51b8152600401610195906108a3565b60405180910390fd5b6101b063037a220760e21b600161031b565b6101c263f62b835360e01b600161031b565b6101da600080516020610a2f83398151915285610391565b6101e5838383610405565b50505050565b600080516020610a4f8339815191525460ff161561021b5760405162461bcd60e51b8152600401610195906108a3565b61022d63037a220760e21b600161031b565b610238838383610405565b505050565b600080516020610a2f8339815191526102558161043a565b61025e82610447565b5050565b600080516020610a2f83398151915261027a8161043a565b61025e826104b3565b600080516020610a2f83398151915261029b8161043a565b61025e82610517565b600080516020610a2f8339815191526102bc8161043a565b6101e584848461057b565b60006101607f47e38df96560ed74ceeb040528c687d6746edaa830d5a94a1d86a43df37c56105490565b60006101607f47e38df96560ed74ceeb040528c687d6746edaa830d5a94a1d86a43df37c560f5490565b6001600160e01b031980831690036103465760405163b0a19dd560e01b815260040160405180910390fd5b6001600160e01b03199190911660009081527ffc606c433378e3a7e0a6a531deac289b66caa1b4aa8554fd4ab2c6f1570f92d860205260409020805460ff1916911515919091179055565b60008281527fd3889cc5458b268d0544e5534672df1296288ca3f93cbd39bd6f497a5c622811602052604090206103c89082610596565b5060405133906001600160a01b0383169084907f2f8788117e7eff1d82e926ec794901d17c78024a50270940304540a733656f0d90600090a45050565b600080516020610a4f833981519152805460ff1916600117815561042884610517565b610431836104b3565b6101e582610447565b61044481336105b4565b50565b7f47e38df96560ed74ceeb040528c687d6746edaa830d5a94a1d86a43df37c5611819055604051818152600080516020610a4f833981519152907ffa3114c334d40847f472349ebcfe2a85e5e985c4b19b19271b95fb8a2f883f25906020015b60405180910390a15050565b7f47e38df96560ed74ceeb040528c687d6746edaa830d5a94a1d86a43df37c5610819055604051818152600080516020610a4f833981519152907fc1bcceddd77fdc95a8da9bec5802d2e0bb564dd02c0730222d8e12030bd91043906020016104a7565b7f47e38df96560ed74ceeb040528c687d6746edaa830d5a94a1d86a43df37c560f819055604051818152600080516020610a4f833981519152907f0ce2592931633fe4bc7c7c6895d95c6fb449347b2efcd517494867fc97cde97a906020016104a7565b61058483610517565b61058d826104b3565b61023881610447565b60006105ab836001600160a01b038416610616565b90505b92915050565b6105be8282610659565b61025e576105d4816001600160a01b0316610690565b6105df8360206106a2565b6040516020016105f0929190610912565b60408051601f198184030181529082905262461bcd60e51b825261019591600401610987565b60008181526001830160205260408120546105ae575081546001808201845560008481526020808220909301849055845493815293810190915260409092205590565b60008281527fd3889cc5458b268d0544e5534672df1296288ca3f93cbd39bd6f497a5c622811602052604081206105ab90836107f5565b60606105ae6001600160a01b03831660145b606060006106b18360026109d0565b6106bc9060026109ef565b67ffffffffffffffff8111156106d4576106d4610a02565b6040519080825280601f01601f1916602001820160405280156106fe576020820181803683370190505b509050600360fc1b8160008151811061071957610719610a18565b60200101906001600160f81b031916908160001a905350600f60fb1b8160018151811061074857610748610a18565b60200101906001600160f81b031916908160001a905350600160028402015b60018111156107d5576f181899199a1a9b1b9c1cb0b131b232b360811b85600f166010811061079857610798610a18565b1a60f81b8282815181106107ae576107ae610a18565b60200101906001600160f81b031916908160001a90535060049490941c9360001901610767565b5083156105ab5760405163c913478560e01b815260040160405180910390fd5b6001600160a01b038116600090815260018301602052604081205415156105ab565b6000806000806080858703121561082d57600080fd5b84356001600160a01b038116811461084457600080fd5b966020860135965060408601359560600135945092505050565b60008060006060848603121561087357600080fd5b505081359360208301359350604090920135919050565b60006020828403121561089c57600080fd5b5035919050565b6020808252602b908201527f506572696f64696350434f506172616d7346616365743a20616c72656164792060408201526a1a5b9a5d1a585b1a5e995960aa1b606082015260800190565b60005b838110156109095781810151838201526020016108f1565b50506000910152565b7f416363657373436f6e74726f6c3a206163636f756e742000000000000000000081526000835161094a8160178501602088016108ee565b7001034b99036b4b9b9b4b733903937b6329607d1b601791840191820152835161097b8160288401602088016108ee565b01602801949350505050565b60208152600082518060208401526109a68160408501602087016108ee565b601f01601f19169190910160400192915050565b634e487b7160e01b600052601160045260246000fd5b60008160001904831182151516156109ea576109ea6109ba565b500290565b808201808211156105ae576105ae6109ba565b634e487b7160e01b600052604160045260246000fd5b634e487b7160e01b600052603260045260246000fdfe88fc2152b07410bc90f2d48e8a618d99441277e94c993622cc9da79b67bc6f4d47e38df96560ed74ceeb040528c687d6746edaa830d5a94a1d86a43df37c560ea2646970667358221220d37174f98a2af7f02263206c1388f87f2d227c08663ce3e001c0d15a6b4bc5b564736f6c63430008100033",
  "devdoc": {
    "details": "Params store for periodic PCO",
    "kind": "dev",
    "methods": {},
    "title": "PeriodicPCOParamsFacet",
    "version": 1
  },
  "userdoc": {
    "kind": "user",
    "methods": {
      "feeDenominator()": {
        "notice": "Get fee denominator"
      },
      "feeNumerator()": {
        "notice": "Get fee numerator"
      },
      "initializePCOParams(address,uint256,uint256,uint256)": {
        "notice": "Initialize params with owner"
      },
      "initializePCOParams(uint256,uint256,uint256)": {
        "notice": "Initialize params"
      },
      "licensePeriod()": {
        "notice": "Get license period"
      },
      "setFeeDenominator(uint256)": {
        "notice": "Set fee denominator"
      },
      "setFeeNumerator(uint256)": {
        "notice": "Set fee numerator"
      },
      "setLicensePeriod(uint256)": {
        "notice": "Set license period"
      },
      "setPCOParameters(uint256,uint256,uint256)": {
        "notice": "Set PCO parameters"
      }
    },
    "version": 1
  },
  "storageLayout": {
    "storage": [],
    "types": null
  }
}