{
  "address": "0xB51D8c3E0B56d060e233762D986f60527e6793FB",
  "abi": [
    {
      "inputs": [],
      "name": "AddressUtils__NotContract",
      "type": "error"
    },
    {
      "inputs": [],
      "name": "ERC165Base__InvalidInterfaceId",
      "type": "error"
    },
    {
      "inputs": [],
      "name": "ERC721Base__BalanceQueryZeroAddress",
      "type": "error"
    },
    {
      "inputs": [],
      "name": "ERC721Base__ERC721ReceiverNotImplemented",
      "type": "error"
    },
    {
      "inputs": [],
      "name": "ERC721Base__InvalidOwner",
      "type": "error"
    },
    {
      "inputs": [],
      "name": "ERC721Base__MintToZeroAddress",
      "type": "error"
    },
    {
      "inputs": [],
      "name": "ERC721Base__NonExistentToken",
      "type": "error"
    },
    {
      "inputs": [],
      "name": "ERC721Base__NotOwnerOrApproved",
      "type": "error"
    },
    {
      "inputs": [],
      "name": "ERC721Base__NotTokenOwner",
      "type": "error"
    },
    {
      "inputs": [],
      "name": "ERC721Base__SelfApproval",
      "type": "error"
    },
    {
      "inputs": [],
      "name": "ERC721Base__TokenAlreadyMinted",
      "type": "error"
    },
    {
      "inputs": [],
      "name": "ERC721Base__TransferToZeroAddress",
      "type": "error"
    },
    {
      "inputs": [],
      "name": "ERC721Metadata__NonExistentToken",
      "type": "error"
    },
    {
      "inputs": [],
      "name": "EnumerableMap__IndexOutOfBounds",
      "type": "error"
    },
    {
      "inputs": [],
      "name": "EnumerableMap__NonExistentKey",
      "type": "error"
    },
    {
      "inputs": [],
      "name": "EnumerableSet__IndexOutOfBounds",
      "type": "error"
    },
    {
      "anonymous": false,
      "inputs": [
        {
          "indexed": true,
          "internalType": "address",
          "name": "owner",
          "type": "address"
        },
        {
          "indexed": true,
          "internalType": "address",
          "name": "operator",
          "type": "address"
        },
        {
          "indexed": true,
          "internalType": "uint256",
          "name": "tokenId",
          "type": "uint256"
        }
      ],
      "name": "Approval",
      "type": "event"
    },
    {
      "anonymous": false,
      "inputs": [
        {
          "indexed": true,
          "internalType": "address",
          "name": "owner",
          "type": "address"
        },
        {
          "indexed": true,
          "internalType": "address",
          "name": "operator",
          "type": "address"
        },
        {
          "indexed": false,
          "internalType": "bool",
          "name": "approved",
          "type": "bool"
        }
      ],
      "name": "ApprovalForAll",
      "type": "event"
    },
    {
      "anonymous": false,
      "inputs": [
        {
          "indexed": true,
          "internalType": "address",
          "name": "from",
          "type": "address"
        },
        {
          "indexed": true,
          "internalType": "address",
          "name": "to",
          "type": "address"
        },
        {
          "indexed": true,
          "internalType": "uint256",
          "name": "tokenId",
          "type": "uint256"
        }
      ],
      "name": "Transfer",
      "type": "event"
    },
    {
      "inputs": [
        {
          "internalType": "address",
          "name": "to",
          "type": "address"
        },
        {
          "internalType": "string",
          "name": "tokenURI",
          "type": "string"
        }
      ],
      "name": "addTokenToCollection",
      "outputs": [],
      "stateMutability": "nonpayable",
      "type": "function"
    },
    {
      "inputs": [
        {
          "internalType": "string[]",
          "name": "tokenURIs",
          "type": "string[]"
        }
      ],
      "name": "addTokensToCollection",
      "outputs": [],
      "stateMutability": "nonpayable",
      "type": "function"
    },
    {
      "inputs": [
        {
          "internalType": "address[]",
          "name": "to",
          "type": "address[]"
        },
        {
          "internalType": "string[]",
          "name": "tokenURIs",
          "type": "string[]"
        }
      ],
      "name": "addTokensToCollection",
      "outputs": [],
      "stateMutability": "nonpayable",
      "type": "function"
    },
    {
      "inputs": [
        {
          "internalType": "uint32",
          "name": "amount",
          "type": "uint32"
        },
        {
          "internalType": "string",
          "name": "baseURI",
          "type": "string"
        }
      ],
      "name": "addTokensWithBaseURIToCollection",
      "outputs": [],
      "stateMutability": "nonpayable",
      "type": "function"
    },
    {
      "inputs": [
        {
          "internalType": "address",
          "name": "operator",
          "type": "address"
        },
        {
          "internalType": "uint256",
          "name": "tokenId",
          "type": "uint256"
        }
      ],
      "name": "approve",
      "outputs": [],
      "stateMutability": "payable",
      "type": "function"
    },
    {
      "inputs": [
        {
          "internalType": "address",
          "name": "account",
          "type": "address"
        }
      ],
      "name": "balanceOf",
      "outputs": [
        {
          "internalType": "uint256",
          "name": "",
          "type": "uint256"
        }
      ],
      "stateMutability": "view",
      "type": "function"
    },
    {
      "inputs": [
        {
          "internalType": "uint256",
          "name": "tokenId",
          "type": "uint256"
        }
      ],
      "name": "exists",
      "outputs": [
        {
          "internalType": "bool",
          "name": "",
          "type": "bool"
        }
      ],
      "stateMutability": "view",
      "type": "function"
    },
    {
      "inputs": [
        {
          "internalType": "uint256",
          "name": "tokenId",
          "type": "uint256"
        }
      ],
      "name": "getApproved",
      "outputs": [
        {
          "internalType": "address",
          "name": "",
          "type": "address"
        }
      ],
      "stateMutability": "view",
      "type": "function"
    },
    {
      "inputs": [
        {
          "internalType": "address",
          "name": "tokenAddress",
          "type": "address"
        },
        {
          "internalType": "uint256",
          "name": "tokenId",
          "type": "uint256"
        },
        {
          "internalType": "address",
          "name": "_minter",
          "type": "address"
        },
        {
          "internalType": "address",
          "name": "_steward",
          "type": "address"
        },
        {
          "internalType": "uint256",
          "name": "_maxTokenCount",
          "type": "uint256"
        },
        {
          "internalType": "bool",
          "name": "shouldMint",
          "type": "bool"
        },
        {
          "internalType": "string",
          "name": "name",
          "type": "string"
        },
        {
          "internalType": "string",
          "name": "symbol",
          "type": "string"
        },
        {
          "internalType": "string",
          "name": "tokenURI",
          "type": "string"
        }
      ],
      "name": "initializeWrappedStewardLicense",
      "outputs": [],
      "stateMutability": "nonpayable",
      "type": "function"
    },
    {
      "inputs": [
        {
          "internalType": "address",
          "name": "account",
          "type": "address"
        },
        {
          "internalType": "address",
          "name": "operator",
          "type": "address"
        }
      ],
      "name": "isApprovedForAll",
      "outputs": [
        {
          "internalType": "bool",
          "name": "",
          "type": "bool"
        }
      ],
      "stateMutability": "view",
      "type": "function"
    },
    {
      "inputs": [],
      "name": "maxTokenCount",
      "outputs": [
        {
          "internalType": "uint256",
          "name": "",
          "type": "uint256"
        }
      ],
      "stateMutability": "view",
      "type": "function"
    },
    {
      "inputs": [
        {
          "internalType": "address",
          "name": "to",
          "type": "address"
        },
        {
          "internalType": "uint256",
          "name": "tokenId",
          "type": "uint256"
        }
      ],
      "name": "mintToken",
      "outputs": [],
      "stateMutability": "nonpayable",
      "type": "function"
    },
    {
      "inputs": [],
      "name": "minter",
      "outputs": [
        {
          "internalType": "address",
          "name": "",
          "type": "address"
        }
      ],
      "stateMutability": "view",
      "type": "function"
    },
    {
      "inputs": [],
      "name": "name",
      "outputs": [
        {
          "internalType": "string",
          "name": "",
          "type": "string"
        }
      ],
      "stateMutability": "view",
      "type": "function"
    },
    {
      "inputs": [
        {
          "internalType": "address",
          "name": "",
          "type": "address"
        },
        {
          "internalType": "address",
          "name": "",
          "type": "address"
        },
        {
          "internalType": "uint256",
          "name": "tokenId",
          "type": "uint256"
        },
        {
          "internalType": "bytes",
          "name": "",
          "type": "bytes"
        }
      ],
      "name": "onERC721Received",
      "outputs": [
        {
          "internalType": "bytes4",
          "name": "",
          "type": "bytes4"
        }
      ],
      "stateMutability": "view",
      "type": "function"
    },
    {
      "inputs": [
        {
          "internalType": "uint256",
          "name": "tokenId",
          "type": "uint256"
        }
      ],
      "name": "ownerOf",
      "outputs": [
        {
          "internalType": "address",
          "name": "",
          "type": "address"
        }
      ],
      "stateMutability": "view",
      "type": "function"
    },
    {
      "inputs": [
        {
          "internalType": "address",
          "name": "from",
          "type": "address"
        },
        {
          "internalType": "address",
          "name": "to",
          "type": "address"
        },
        {
          "internalType": "uint256",
          "name": "tokenId",
          "type": "uint256"
        }
      ],
      "name": "safeTransferFrom",
      "outputs": [],
      "stateMutability": "payable",
      "type": "function"
    },
    {
      "inputs": [
        {
          "internalType": "address",
          "name": "from",
          "type": "address"
        },
        {
          "internalType": "address",
          "name": "to",
          "type": "address"
        },
        {
          "internalType": "uint256",
          "name": "tokenId",
          "type": "uint256"
        },
        {
          "internalType": "bytes",
          "name": "data",
          "type": "bytes"
        }
      ],
      "name": "safeTransferFrom",
      "outputs": [],
      "stateMutability": "payable",
      "type": "function"
    },
    {
      "inputs": [
        {
          "internalType": "address",
          "name": "operator",
          "type": "address"
        },
        {
          "internalType": "bool",
          "name": "status",
          "type": "bool"
        }
      ],
      "name": "setApprovalForAll",
      "outputs": [],
      "stateMutability": "nonpayable",
      "type": "function"
    },
    {
      "inputs": [
        {
          "internalType": "bytes4",
          "name": "interfaceId",
          "type": "bytes4"
        }
      ],
      "name": "supportsInterface",
      "outputs": [
        {
          "internalType": "bool",
          "name": "",
          "type": "bool"
        }
      ],
      "stateMutability": "view",
      "type": "function"
    },
    {
      "inputs": [],
      "name": "symbol",
      "outputs": [
        {
          "internalType": "string",
          "name": "",
          "type": "string"
        }
      ],
      "stateMutability": "view",
      "type": "function"
    },
    {
      "inputs": [
        {
          "internalType": "uint256",
          "name": "index",
          "type": "uint256"
        }
      ],
      "name": "tokenByIndex",
      "outputs": [
        {
          "internalType": "uint256",
          "name": "",
          "type": "uint256"
        }
      ],
      "stateMutability": "view",
      "type": "function"
    },
    {
      "inputs": [
        {
          "internalType": "address",
          "name": "owner",
          "type": "address"
        },
        {
          "internalType": "uint256",
          "name": "index",
          "type": "uint256"
        }
      ],
      "name": "tokenOfOwnerByIndex",
      "outputs": [
        {
          "internalType": "uint256",
          "name": "",
          "type": "uint256"
        }
      ],
      "stateMutability": "view",
      "type": "function"
    },
    {
      "inputs": [
        {
          "internalType": "uint256",
          "name": "tokenId",
          "type": "uint256"
        }
      ],
      "name": "tokenURI",
      "outputs": [
        {
          "internalType": "string",
          "name": "",
          "type": "string"
        }
      ],
      "stateMutability": "view",
      "type": "function"
    },
    {
      "inputs": [],
      "name": "totalSupply",
      "outputs": [
        {
          "internalType": "uint256",
          "name": "",
          "type": "uint256"
        }
      ],
      "stateMutability": "view",
      "type": "function"
    },
    {
      "inputs": [
        {
          "internalType": "address",
          "name": "from",
          "type": "address"
        },
        {
          "internalType": "address",
          "name": "to",
          "type": "address"
        },
        {
          "internalType": "uint256",
          "name": "tokenId",
          "type": "uint256"
        }
      ],
      "name": "transferFrom",
      "outputs": [],
      "stateMutability": "payable",
      "type": "function"
    },
    {
      "inputs": [
        {
          "internalType": "address",
          "name": "from",
          "type": "address"
        },
        {
          "internalType": "address",
          "name": "to",
          "type": "address"
        },
        {
          "internalType": "uint256",
          "name": "tokenId",
          "type": "uint256"
        }
      ],
      "name": "triggerTransfer",
      "outputs": [],
      "stateMutability": "nonpayable",
      "type": "function"
    }
  ],
  "transactionHash": "0x39ab8402d70d22178c89af090c84064b5f77f5050918874ba5e399960f85c9c4",
  "args": [],
  "numDeployments": 5,
  "solcInputHash": "365e8fb0f9d1ed5a73a0ee2c9934cb6e",
  "bytecode": "0x608060405234801561001057600080fd5b50612e72806100206000396000f3fe60806040526004361061019c5760003560e01c80634f6ccce7116100ec578063b3cd1d9c1161008a578063c87b56dd11610064578063c87b56dd14610479578063e31a7c0114610499578063e95a272f146104b9578063e985e9c5146104d957600080fd5b8063b3cd1d9c14610431578063b88d4fde14610451578063c4e627c21461046457600080fd5b806370a08231116100c657806370a08231146103bc57806379c65068146103dc57806395d89b41146103fc578063a22cb4651461041157600080fd5b80634f6ccce71461035c5780636352211e1461037c5780636a2e019f1461039c57600080fd5b806318160ddd116101595780632f745c59116101335780632f745c59146102e957806342842e0e146103095780634a7c554f1461031c5780634f558e791461033c57600080fd5b806318160ddd1461029357806323b872dd146102b6578063269aab0e146102c957600080fd5b806301ffc9a7146101a157806306fdde03146101d657806307546172146101f8578063081812fc14610225578063095ea7b314610245578063150b7a021461025a575b600080fd5b3480156101ad57600080fd5b506101c16101bc366004612320565b6104f9565b60405190151581526020015b60405180910390f35b3480156101e257600080fd5b506101eb61053c565b6040516101cd919061238d565b34801561020457600080fd5b5061020d61054b565b6040516001600160a01b0390911681526020016101cd565b34801561023157600080fd5b5061020d6102403660046123a0565b61057e565b6102586102533660046123de565b610589565b005b34801561026657600080fd5b5061027a61027536600461240a565b610615565b6040516001600160e01b031990911681526020016101cd565b34801561029f57600080fd5b506102a86107c0565b6040519081526020016101cd565b6102586102c43660046124a9565b6107ca565b3480156102d557600080fd5b506102586102e436600461265d565b6107fc565b3480156102f557600080fd5b506102a86103043660046123de565b6108d4565b6102586103173660046124a9565b6108e7565b34801561032857600080fd5b50610258610337366004612692565b610902565b34801561034857600080fd5b506101c16103573660046123a0565b610a50565b34801561036857600080fd5b506102a86103773660046123a0565b610a5b565b34801561038857600080fd5b5061020d6103973660046123a0565b610a66565b3480156103a857600080fd5b506102586103b7366004612754565b610a71565b3480156103c857600080fd5b506102a86103d736600461279a565b610b71565b3480156103e857600080fd5b506102586103f73660046123de565b610b7c565b34801561040857600080fd5b506101eb610db0565b34801561041d57600080fd5b5061025861042c3660046127d0565b610dba565b34801561043d57600080fd5b5061025861044c366004612809565b610e6e565b61025861045f3660046128e8565b610f52565b34801561047057600080fd5b506102a8610f8b565b34801561048557600080fd5b506101eb6104943660046123a0565b610fa3565b3480156104a557600080fd5b506102586104b43660046124a9565b610fae565b3480156104c557600080fd5b506102586104d4366004612968565b611043565b3480156104e557600080fd5b506101c16104f436600461298f565b611107565b6001600160e01b0319811660009081527ffc606c433378e3a7e0a6a531deac289b66caa1b4aa8554fd4ab2c6f1570f92d8602052604081205460ff165b92915050565b6060610546611113565b905090565b60006105467f79ec1734da2430052e9d78936f451aad707e5bed12ef4806b06dc3d0c38f0e31546001600160a01b031690565b6000610536826111b2565b600061059482610a66565b9050806001600160a01b0316836001600160a01b0316036105c85760405163424a22cb60e01b815260040160405180910390fd5b336001600160a01b038216148015906105e857506105e68133611107565b155b1561060657604051632f5de44f60e01b815260040160405180910390fd5b6106108383611215565b505050565b6000610630600080516020612dbd8339815191525460ff1690565b15156001146106925760405162461bcd60e51b81526020600482015260356024820152600080516020612d7d8339815191526044820152740e881b5d5cdd081899481a5b9a5d1a585b1a5e9959605a1b60648201526084015b60405180910390fd5b7f4f3bc7155d2db681e29af52d1119e27d8b92f937da5bb676ae6155a2e77a3c6d546001600160a01b0316331461072a5760405162461bcd60e51b81526020600482015260426024820152600080516020612d7d83398151915260448201527f3a2063616e6e6f7420616363657074207468697320746f6b656e206164647265606482015261737360f01b608482015260a401610689565b7f4f3bc7155d2db681e29af52d1119e27d8b92f937da5bb676ae6155a2e77a3c6e5484146107ae5760405162461bcd60e51b815260206004820152603d6024820152600080516020612d7d83398151915260448201527f3a2063616e6e6f7420616363657074207468697320746f6b656e2049440000006064820152608401610689565b50630a85bd0160e11b95945050505050565b60006105466112a2565b6107d433826112bb565b6107f157604051632f5de44f60e01b815260040160405180910390fd5b610610838383611341565b306001600160a01b0316633882ce8e6040518163ffffffff1660e01b8152600401602060405180830381865afa15801561083a573d6000803e3d6000fd5b505050506040513d601f19601f8201168201806040525081019061085e91906129bd565b6001600160a01b0316336001600160a01b03161461088e5760405162461bcd60e51b8152600401610689906129da565b60005b81518110156108d0576108be60008383815181106108b1576108b1612a45565b6020026020010151611470565b806108c881612a71565b915050610891565b5050565b60006108e083836114f6565b9392505050565b61061083838360405180602001604052806000815250610f52565b306001600160a01b0316633882ce8e6040518163ffffffff1660e01b8152600401602060405180830381865afa158015610940573d6000803e3d6000fd5b505050506040513d601f19601f8201168201806040525081019061096491906129bd565b6001600160a01b0316336001600160a01b0316146109945760405162461bcd60e51b8152600401610689906129da565b8051825114610a035760405162461bcd60e51b815260206004820152603560248201527f537465776172644c6963656e736546616365743a20746f20616e6420746f6b656044820152740dcaaa492e640d8cadccee8d040dad2e6dac2e8c6d605b1b6064820152608401610689565b60005b815181101561061057610a3e838281518110610a2457610a24612a45565b60200260200101518383815181106108b1576108b1612a45565b80610a4881612a71565b915050610a06565b600061053682611525565b60006105368261153f565b600061053682611560565b306001600160a01b0316633882ce8e6040518163ffffffff1660e01b8152600401602060405180830381865afa158015610aaf573d6000803e3d6000fd5b505050506040513d601f19601f82011682018060405250810190610ad391906129bd565b6001600160a01b0316336001600160a01b031614610b675760405162461bcd60e51b8152602060048201526044602482018190527f537465776172644c6963656e736546616365743a206f6e6c7920696e69746961908201527f6c206269646465722063616e2061646420746f6b656e20746f20636f6c6c65636064820152633a34b7b760e11b608482015260a401610689565b6108d08282611470565b6000610536826115a4565b306001600160a01b0316633882ce8e6040518163ffffffff1660e01b8152600401602060405180830381865afa158015610bba573d6000803e3d6000fd5b505050506040513d601f19601f82011682018060405250810190610bde91906129bd565b6001600160a01b0316336001600160a01b031614610c645760405162461bcd60e51b815260206004820152603760248201527f537465776172644c6963656e736546616365743a206f6e6c7920696e6974696160448201527f6c206269646465722063616e206d696e7420746f6b656e0000000000000000006064820152608401610689565b306001600160a01b031663be6a2a6d6040518163ffffffff1660e01b8152600401602060405180830381865afa158015610ca2573d6000803e3d6000fd5b505050506040513d601f19601f82011682018060405250810190610cc69190612a8a565b4210610d3c576040805162461bcd60e51b81526020600482015260248101919091527f537465776172644c6963656e736546616365743a2063616e6e6f74206d696e7460448201527f20616674657220696e697469616c20706572696f642073746172742074696d656064820152608401610689565b610d4581611525565b15610da45760405162461bcd60e51b815260206004820152602960248201527f537465776172644c6963656e736546616365743a20546f6b656e20616c72656160448201526864792065786973747360b81b6064820152608401610689565b6108d0600083836115fb565b6060610546611617565b336001600160a01b03831603610de35760405163424a22cb60e01b815260040160405180910390fd5b3360008181527f3c7bf052874fa81625121783266a03507bd2cd48b16e571c01a04e8dd3fb07aa602090815260408083206001600160a01b03871680855290835292819020805460ff191686151590811790915590519081529192917f17307eab39ab6107e8899845ad3d59bd9653f200f220920489ca2b5937696c31910160405180910390a35050565b600080516020612dbd8339815191525460ff1615610eda5760405162461bcd60e51b81526020600482015260356024820152600080516020612d7d8339815191526044820152740e88185b1c9958591e481a5b9a5d1a585b1a5e9959605a1b6064820152608401610689565b7f4f3bc7155d2db681e29af52d1119e27d8b92f937da5bb676ae6155a2e77a3c6d80546001600160a01b0319166001600160a01b038b161790557f4f3bc7155d2db681e29af52d1119e27d8b92f937da5bb676ae6155a2e77a3c6e889055610f4787878787878787611636565b505050505050505050565b610f5c33836112bb565b610f7957604051632f5de44f60e01b815260040160405180910390fd5b610f858484848461174f565b50505050565b6000610546600080516020612dfd8339815191525490565b606061053682611783565b3330146110385760405162461bcd60e51b815260206004820152604c60248201527f4e6174697665537465776172644c6963656e73653a205472696767657220747260448201527f616e736665722063616e206f6e6c792062652063616c6c65642066726f6d206160648201526b1b9bdd1a195c88199858d95d60a21b608482015260a401610689565b6106108383836115fb565b306001600160a01b0316633882ce8e6040518163ffffffff1660e01b8152600401602060405180830381865afa158015611081573d6000803e3d6000fd5b505050506040513d601f19601f820116820180604052508101906110a591906129bd565b6001600160a01b0316336001600160a01b0316146110d55760405162461bcd60e51b8152600401610689906129da565b60005b8263ffffffff168163ffffffff161015610610576110f582611967565b806110ff81612aa3565b9150506110d8565b60006108e083836119f9565b6060600080516020612e1d833981519152805461112f90612ac6565b80601f016020809104026020016040519081016040528092919081815260200182805461115b90612ac6565b80156111a85780601f1061117d576101008083540402835291602001916111a8565b820191906000526020600020905b81548152906001019060200180831161118b57829003601f168201915b5050505050905090565b60006111bd82611525565b6111da5760405163c1b843ef60e01b815260040160405180910390fd5b5060009081527f3c7bf052874fa81625121783266a03507bd2cd48b16e571c01a04e8dd3fb07a960205260409020546001600160a01b031690565b60008181527f3c7bf052874fa81625121783266a03507bd2cd48b16e571c01a04e8dd3fb07a96020526040902080546001600160a01b0319166001600160a01b038416908117909155819061126982611560565b6001600160a01b03167f8c5be1e5ebec7d5bd14f71427d1e84f3dd0314c0f7b2291e5b200ac8c7c3b92560405160405180910390a45050565b6000610546600080516020612ddd833981519152611a46565b60006112c682611525565b6112e35760405163c1b843ef60e01b815260040160405180910390fd5b60006112ee83611560565b9050806001600160a01b0316846001600160a01b031614806113295750836001600160a01b031661131e846111b2565b6001600160a01b0316145b80611339575061133981856119f9565b949350505050565b826001600160a01b031661135482611560565b6001600160a01b03161461137b57604051630f2db4ad60e01b815260040160405180910390fd5b6001600160a01b0382166113a2576040516340311a0960e01b815260040160405180910390fd5b6113ad838383611a50565b6113b8600082611215565b6001600160a01b0383166000908152600080516020612d9d83398151915260205260409020600080516020612ddd833981519152906113f79083611b45565b506001600160a01b0383166000908152600282016020526040902061141c9083611b51565b50611428818385611b5d565b5081836001600160a01b0316856001600160a01b03167fddf252ad1be2c89b69c2b068fc378daa952ba7f163c4a11628f55a4df523b3ef60405160405180910390a450505050565b600080516020612dfd8339815191528054600080516020612dbd8339815191529160019060006114a08385612b00565b909155505060008181527f99574a7094154bb123ae6ae102096f0bf9679b85a5cd1e727aaa0ae5f132e6b4602052604090206114dc8482612b61565b506001600160a01b03841615610f8557610f858482611b73565b6001600160a01b0382166000908152600080516020612d9d833981519152602052604081206108e09083611c56565b6000610536600080516020612ddd83398151915283611c62565b6000611559600080516020612ddd83398151915283611c7a565b5092915050565b60008061157b600080516020612ddd83398151915284611c96565b90506001600160a01b03811661053657604051637e1a7d8b60e01b815260040160405180910390fd5b60006001600160a01b0382166115cd57604051630810ff9760e41b815260040160405180910390fd5b6001600160a01b0382166000908152600080516020612d9d8339815191526020526040902061053690611a46565b61160481611525565b15156000036107f1576106108282611b73565b6060600080516020612e1d833981519152600101805461112f90612ac6565b600080516020612dbd83398151915280546001600160a01b03888116610100026001600160a81b03199092169190911760011782557f79ec1734da2430052e9d78936f451aad707e5bed12ef4806b06dc3d0c38f0e318054918a166001600160a01b0319909216919091179055600080516020612dfd8339815191528690556000600080516020612e1d8339815191529050806116d38682612b61565b50600181016116e28582612b61565b50600281016116f18482612b61565b506117046301ffc9a760e01b6001611ca2565b6117166380ac58cd60e01b6001611ca2565b8515610f475760005b87811015611743576117318982611b73565b8061173b81612a71565b91505061171f565b50505050505050505050565b61175a848484611341565b61176684848484611d18565b610f8557604051639ff10cdd60e01b815260040160405180910390fd5b600080516020612dfd83398151915254606090600080516020612dbd8339815191529083106117c457604051624705a760e71b815260040160405180910390fd5b60008381527f99574a7094154bb123ae6ae102096f0bf9679b85a5cd1e727aaa0ae5f132e6b4602052604081208054600080516020612e1d83398151915292919061180e90612ac6565b80601f016020809104026020016040519081016040528092919081815260200182805461183a90612ac6565b80156118875780601f1061185c57610100808354040283529160200191611887565b820191906000526020600020905b81548152906001019060200180831161186a57829003601f168201915b50505050509050600082600201805461189f90612ac6565b80601f01602080910402602001604051908101604052809291908181526020018280546118cb90612ac6565b80156119185780601f106118ed57610100808354040283529160200191611918565b820191906000526020600020905b8154815290600101906020018083116118fb57829003601f168201915b505050505090506000825111156119325750949350505050565b8061193c87611de9565b60405160200161194d929190612c21565b604051602081830303815290604052945050505050919050565b600080516020612dfd8339815191528054600080516020612dbd8339815191529160019060006119978385612b00565b909155508390506119a782611de9565b6040516020016119b8929190612c21565b6040516020818303038152906040526119dc600080516020612e1d83398151915290565b60008381526003919091016020526040902090610f859082612b61565b6001600160a01b0391821660009081527f3c7bf052874fa81625121783266a03507bd2cd48b16e571c01a04e8dd3fb07aa6020908152604080832093909416825291909152205460ff1690565b6000610536825490565b6001600160a01b03831615611b3a5760405163a7c12c1160e01b815260048101829052600090309063a7c12c1190602401602060405180830381865afa158015611a9e573d6000803e3d6000fd5b505050506040513d601f19601f82011682018060405250810190611ac29190612c50565b90508015611b385760405162461bcd60e51b815260206004820152603a60248201527f537465776172644c6963656e736546616365743a2043616e6e6f74207472616e60448201527f7366657220647572696e672061756374696f6e20706572696f640000000000006064820152608401610689565b505b610610838383611eea565b60006108e08383611ef5565b60006108e08383611faf565b600061133984846001600160a01b038516611ff2565b6001600160a01b038216611b9a576040516311f2988d60e11b815260040160405180910390fd5b611ba381611525565b15611bc157604051630d86bb7b60e31b815260040160405180910390fd5b611bcd60008383611a50565b6001600160a01b0382166000908152600080516020612d9d83398151915260205260409020600080516020612ddd83398151915290611c0c9083611b51565b50611c18818385611b5d565b5060405182906001600160a01b038516906000907fddf252ad1be2c89b69c2b068fc378daa952ba7f163c4a11628f55a4df523b3ef908290a4505050565b60006108e08383612091565b600081815260018301602052604081205415156108e0565b6000808080611c8986866120dd565b9097909650945050505050565b60006108e08383612140565b6001600160e01b03198083169003611ccd5760405163b0a19dd560e01b815260040160405180910390fd5b6001600160e01b03199190911660009081527ffc606c433378e3a7e0a6a531deac289b66caa1b4aa8554fd4ab2c6f1570f92d860205260409020805460ff1916911515919091179055565b60006001600160a01b0384163b611d3157506001611339565b6000611db263150b7a0260e01b33888787604051602401611d559493929190612c6d565b604051602081830303815290604052906001600160e01b0319166020820180516001600160e01b038381831617835250505050604051806060016040528060328152602001612d4b603291396001600160a01b03881691906121a4565b9050600081806020019051810190611dca9190612caa565b6001600160e01b031916630a85bd0160e11b1492505050949350505050565b606081600003611e105750506040805180820190915260018152600360fc1b602082015290565b8160005b8115611e3a5780611e2481612a71565b9150611e339050600a83612cdd565b9150611e14565b60008167ffffffffffffffff811115611e5557611e556124ea565b6040519080825280601f01601f191660200182016040528015611e7f576020820181803683370190505b5090505b841561133957611e94600183612cf1565b9150611ea1600a86612d04565b611eac906030612b00565b60f81b818381518110611ec157611ec1612a45565b60200101906001600160f81b031916908160001a905350611ee3600a86612cdd565b9450611e83565b6106108383836121b3565b6000818152600183016020526040812054801561155957835460009085906000198101908110611f2757611f27612a45565b9060005260206000200154905080856000016001840381548110611f4d57611f4d612a45565b6000918252602080832090910192909255918252600186019052604090208190558354849080611f7f57611f7f612d18565b60008281526020808220830160001990810183905590920190925593815260019485019093525050604081205590565b6000818152600183016020526040812054610536575081546001808201845560008481526020808220909301849055845493815293810190915260409092205590565b60008281526001840160205260408120548082036120595750506040805180820182528381526020808201848152865460018181018955600089815284812095516002909302909501918255915190820155865486845281880190925292909120556108e0565b8285600001600183038154811061207257612072612a45565b90600052602060002090600202016001018190555060009150506108e0565b815460009082106120b55760405163e637bf3b60e01b815260040160405180910390fd5b8260000182815481106120ca576120ca612a45565b9060005260206000200154905092915050565b8154600090819083106121035760405163022fd82760e31b815260040160405180910390fd5b600084600001848154811061211a5761211a612a45565b906000526020600020906002020190508060000154816001015492509250509250929050565b600081815260018301602052604081205480820361217157604051633d547ec560e21b815260040160405180910390fd5b83600001600182038154811061218957612189612a45565b90600052602060002090600202016001015491505092915050565b606061133984846000856121f7565b6001600160a01b0382166106105760008181527f99574a7094154bb123ae6ae102096f0bf9679b85a5cd1e727aaa0ae5f132e6b460205260408120610610916122b4565b6060843b61221857604051632270d6bf60e21b815260040160405180910390fd5b600080866001600160a01b031685876040516122349190612d2e565b60006040518083038185875af1925050503d8060008114612271576040519150601f19603f3d011682016040523d82523d6000602084013e612276565b606091505b5091509150811561228a5791506113399050565b80511561229a5780518082602001fd5b8360405162461bcd60e51b8152600401610689919061238d565b5080546122c090612ac6565b6000825580601f106122d0575050565b601f0160209004906000526020600020908101906122ee91906122f1565b50565b5b8082111561230657600081556001016122f2565b5090565b6001600160e01b0319811681146122ee57600080fd5b60006020828403121561233257600080fd5b81356108e08161230a565b60005b83811015612358578181015183820152602001612340565b50506000910152565b6000815180845261237981602086016020860161233d565b601f01601f19169290920160200192915050565b6020815260006108e06020830184612361565b6000602082840312156123b257600080fd5b5035919050565b6001600160a01b03811681146122ee57600080fd5b80356123d9816123b9565b919050565b600080604083850312156123f157600080fd5b82356123fc816123b9565b946020939093013593505050565b60008060008060006080868803121561242257600080fd5b853561242d816123b9565b9450602086013561243d816123b9565b935060408601359250606086013567ffffffffffffffff8082111561246157600080fd5b818801915088601f83011261247557600080fd5b81358181111561248457600080fd5b89602082850101111561249657600080fd5b9699959850939650602001949392505050565b6000806000606084860312156124be57600080fd5b83356124c9816123b9565b925060208401356124d9816123b9565b929592945050506040919091013590565b634e487b7160e01b600052604160045260246000fd5b604051601f8201601f1916810167ffffffffffffffff81118282101715612529576125296124ea565b604052919050565b600067ffffffffffffffff82111561254b5761254b6124ea565b5060051b60200190565b600067ffffffffffffffff83111561256f5761256f6124ea565b612582601f8401601f1916602001612500565b905082815283838301111561259657600080fd5b828260208301376000602084830101529392505050565b600082601f8301126125be57600080fd5b6108e083833560208501612555565b600082601f8301126125de57600080fd5b813560206125f36125ee83612531565b612500565b82815260059290921b8401810191818101908684111561261257600080fd5b8286015b8481101561265257803567ffffffffffffffff8111156126365760008081fd5b6126448986838b01016125ad565b845250918301918301612616565b509695505050505050565b60006020828403121561266f57600080fd5b813567ffffffffffffffff81111561268657600080fd5b611339848285016125cd565b600080604083850312156126a557600080fd5b823567ffffffffffffffff808211156126bd57600080fd5b818501915085601f8301126126d157600080fd5b813560206126e16125ee83612531565b82815260059290921b8401810191818101908984111561270057600080fd5b948201945b83861015612727578535612718816123b9565b82529482019490820190612705565b9650508601359250508082111561273d57600080fd5b5061274a858286016125cd565b9150509250929050565b6000806040838503121561276757600080fd5b8235612772816123b9565b9150602083013567ffffffffffffffff81111561278e57600080fd5b61274a858286016125ad565b6000602082840312156127ac57600080fd5b81356108e0816123b9565b80151581146122ee57600080fd5b80356123d9816127b7565b600080604083850312156127e357600080fd5b82356127ee816123b9565b915060208301356127fe816127b7565b809150509250929050565b60008060008060008060008060006101208a8c03121561282857600080fd5b6128318a6123ce565b985060208a0135975061284660408b016123ce565b965061285460608b016123ce565b955060808a0135945061286960a08b016127c5565b935060c08a013567ffffffffffffffff8082111561288657600080fd5b6128928d838e016125ad565b945060e08c01359150808211156128a857600080fd5b6128b48d838e016125ad565b93506101008c01359150808211156128cb57600080fd5b506128d88c828d016125ad565b9150509295985092959850929598565b600080600080608085870312156128fe57600080fd5b8435612909816123b9565b93506020850135612919816123b9565b925060408501359150606085013567ffffffffffffffff81111561293c57600080fd5b8501601f8101871361294d57600080fd5b61295c87823560208401612555565b91505092959194509250565b6000806040838503121561297b57600080fd5b823563ffffffff8116811461277257600080fd5b600080604083850312156129a257600080fd5b82356129ad816123b9565b915060208301356127fe816123b9565b6000602082840312156129cf57600080fd5b81516108e0816123b9565b60208082526045908201527f537465776172644c6963656e736546616365743a206f6e6c7920696e6974696160408201527f6c206269646465722063616e2061646420746f6b656e7320746f20636f6c6c6560608201526431ba34b7b760d91b608082015260a00190565b634e487b7160e01b600052603260045260246000fd5b634e487b7160e01b600052601160045260246000fd5b600060018201612a8357612a83612a5b565b5060010190565b600060208284031215612a9c57600080fd5b5051919050565b600063ffffffff808316818103612abc57612abc612a5b565b6001019392505050565b600181811c90821680612ada57607f821691505b602082108103612afa57634e487b7160e01b600052602260045260246000fd5b50919050565b8082018082111561053657610536612a5b565b601f82111561061057600081815260208120601f850160051c81016020861015612b3a5750805b601f850160051c820191505b81811015612b5957828155600101612b46565b505050505050565b815167ffffffffffffffff811115612b7b57612b7b6124ea565b612b8f81612b898454612ac6565b84612b13565b602080601f831160018114612bc45760008415612bac5750858301515b600019600386901b1c1916600185901b178555612b59565b600085815260208120601f198616915b82811015612bf357888601518255948401946001909101908401612bd4565b5085821015612c115787850151600019600388901b60f8161c191681555b5050505050600190811b01905550565b60008351612c3381846020880161233d565b835190830190612c4781836020880161233d565b01949350505050565b600060208284031215612c6257600080fd5b81516108e0816127b7565b6001600160a01b0385811682528416602082015260408101839052608060608201819052600090612ca090830184612361565b9695505050505050565b600060208284031215612cbc57600080fd5b81516108e08161230a565b634e487b7160e01b600052601260045260246000fd5b600082612cec57612cec612cc7565b500490565b8181038181111561053657610536612a5b565b600082612d1357612d13612cc7565b500690565b634e487b7160e01b600052603160045260246000fd5b60008251612d4081846020870161233d565b919091019291505056fe4552433732313a207472616e7366657220746f206e6f6e20455243373231526563656976657220696d706c656d656e74657257726170706564455243373231537465776172644c6963656e736546616365743c7bf052874fa81625121783266a03507bd2cd48b16e571c01a04e8dd3fb07a879ec1734da2430052e9d78936f451aad707e5bed12ef4806b06dc3d0c38f0e303c7bf052874fa81625121783266a03507bd2cd48b16e571c01a04e8dd3fb07a679ec1734da2430052e9d78936f451aad707e5bed12ef4806b06dc3d0c38f0e3299574a7094154bb123ae6ae102096f0bf9679b85a5cd1e727aaa0ae5f132e6b1a26469706673582212200c5d27bfadcbaa20e967a01be13ed7cee6ef7df557d2fd0d88614a93481f679864736f6c63430008110033",
  "devdoc": {
    "details": "ERC-721 token license for Steward that wraps existing ERC-721. Only a particular ERC721 transfer is accepted.",
    "kind": "dev",
    "methods": {
      "approve(address,uint256)": {
        "params": {
          "operator": "address to be approved",
          "tokenId": "token to approve"
        }
      },
      "balanceOf(address)": {
        "returns": {
          "_0": "quantity of tokens held"
        }
      },
      "getApproved(uint256)": {
        "params": {
          "tokenId": "token to query"
        },
        "returns": {
          "_0": "address approved to spend token"
        }
      },
      "isApprovedForAll(address,address)": {
        "params": {
          "account": "address to query for approval granted",
          "operator": "address to query for approval received"
        },
        "returns": {
          "_0": "whether operator is approved to spend tokens held by account"
        }
      },
      "ownerOf(uint256)": {
        "params": {
          "tokenId": "token to query"
        },
        "returns": {
          "_0": "token owner"
        }
      },
      "safeTransferFrom(address,address,uint256)": {
        "params": {
          "from": "sender of token",
          "to": "receiver of token",
          "tokenId": "token id"
        }
      },
      "safeTransferFrom(address,address,uint256,bytes)": {
        "params": {
          "data": "data payload",
          "from": "sender of token",
          "to": "receiver of token",
          "tokenId": "token id"
        }
      },
      "setApprovalForAll(address,bool)": {
        "params": {
          "operator": "address to be approved",
          "status": "approval status"
        }
      },
      "supportsInterface(bytes4)": {
        "params": {
          "interfaceId": "interface id"
        },
        "returns": {
          "_0": "bool whether interface is supported"
        }
      },
      "tokenByIndex(uint256)": {
        "params": {
          "index": "position in global token list to query"
        },
        "returns": {
          "_0": "id of retrieved token"
        }
      },
      "tokenOfOwnerByIndex(address,uint256)": {
        "params": {
          "index": "position in owner's token list to query",
          "owner": "token holder to query"
        },
        "returns": {
          "_0": "id of retrieved token"
        }
      },
      "totalSupply()": {
        "returns": {
          "_0": "total supply"
        }
      },
      "transferFrom(address,address,uint256)": {
        "params": {
          "from": "sender of token",
          "to": "receiver of token",
          "tokenId": "token id"
        }
      }
    },
    "title": "WrappedERC721StewardLicenseFacet",
    "version": 1
  },
  "userdoc": {
    "kind": "user",
    "methods": {
      "addTokenToCollection(address,string)": {
        "notice": "Add token to collection"
      },
      "addTokensToCollection(address[],string[])": {
        "notice": "Add tokens to collection with to"
      },
      "addTokensToCollection(string[])": {
        "notice": "Add tokens to collection"
      },
      "addTokensWithBaseURIToCollection(uint32,string)": {
        "notice": "Add tokens to collection with baseURI"
      },
      "approve(address,uint256)": {
        "notice": "grant approval to given account to spend token"
      },
      "balanceOf(address)": {
        "notice": "query the balance of given address"
      },
      "exists(uint256)": {
        "notice": "Check if token exists"
      },
      "getApproved(uint256)": {
        "notice": "get approval status for given token"
      },
      "initializeWrappedStewardLicense(address,uint256,address,address,uint256,bool,string,string,string)": {
        "notice": "Initialize license"
      },
      "isApprovedForAll(address,address)": {
        "notice": "query approval status of given operator with respect to given address"
      },
      "maxTokenCount()": {
        "notice": "Get max token count"
      },
      "mintToken(address,uint256)": {
        "notice": "Initial bidder can mint token if it doesn't exist"
      },
      "minter()": {
        "notice": "Get minter"
      },
      "name()": {
        "notice": "inheritdoc IERC721Metadata"
      },
      "ownerOf(uint256)": {
        "notice": "query the owner of given token"
      },
      "safeTransferFrom(address,address,uint256)": {
        "notice": "transfer token between given addresses, checking for ERC721Receiver implementation if applicable"
      },
      "safeTransferFrom(address,address,uint256,bytes)": {
        "notice": "transfer token between given addresses, checking for ERC721Receiver implementation if applicable"
      },
      "setApprovalForAll(address,bool)": {
        "notice": "grant approval to or revoke approval from given account to spend all tokens held by sender"
      },
      "supportsInterface(bytes4)": {
        "notice": "query whether contract has registered support for given interface"
      },
      "symbol()": {
        "notice": "inheritdoc IERC721Metadata"
      },
      "tokenByIndex(uint256)": {
        "notice": "get token at given internal storage index"
      },
      "tokenOfOwnerByIndex(address,uint256)": {
        "notice": "get token of given owner at given internal storage index"
      },
      "tokenURI(uint256)": {
        "notice": "inheritdoc IERC721Metadata"
      },
      "totalSupply()": {
        "notice": "get total token supply"
      },
      "transferFrom(address,address,uint256)": {
        "notice": "transfer token between given addresses, without checking for ERC721Receiver implementation if applicable"
      },
      "triggerTransfer(address,address,uint256)": {
        "notice": "Trigger transfer of license"
      }
    },
    "version": 1
  },
  "storageLayout": {
    "storage": [],
    "types": null
  }
}