{
  "address": "0xeCE20413809cF92e5aBfF9df8392a8808e406985",
  "abi": [
    {
      "inputs": [],
      "name": "AddressUtils__NotContract",
      "type": "error"
    },
    {
      "inputs": [],
      "name": "ERC165Base__InvalidInterfaceId",
      "type": "error"
    },
    {
      "inputs": [],
      "name": "ERC721Base__BalanceQueryZeroAddress",
      "type": "error"
    },
    {
      "inputs": [],
      "name": "ERC721Base__ERC721ReceiverNotImplemented",
      "type": "error"
    },
    {
      "inputs": [],
      "name": "ERC721Base__InvalidOwner",
      "type": "error"
    },
    {
      "inputs": [],
      "name": "ERC721Base__MintToZeroAddress",
      "type": "error"
    },
    {
      "inputs": [],
      "name": "ERC721Base__NonExistentToken",
      "type": "error"
    },
    {
      "inputs": [],
      "name": "ERC721Base__NotOwnerOrApproved",
      "type": "error"
    },
    {
      "inputs": [],
      "name": "ERC721Base__NotTokenOwner",
      "type": "error"
    },
    {
      "inputs": [],
      "name": "ERC721Base__SelfApproval",
      "type": "error"
    },
    {
      "inputs": [],
      "name": "ERC721Base__TokenAlreadyMinted",
      "type": "error"
    },
    {
      "inputs": [],
      "name": "ERC721Base__TransferToZeroAddress",
      "type": "error"
    },
    {
      "inputs": [],
      "name": "ERC721Metadata__NonExistentToken",
      "type": "error"
    },
    {
      "inputs": [],
      "name": "EnumerableMap__IndexOutOfBounds",
      "type": "error"
    },
    {
      "inputs": [],
      "name": "EnumerableMap__NonExistentKey",
      "type": "error"
    },
    {
      "inputs": [],
      "name": "EnumerableSet__IndexOutOfBounds",
      "type": "error"
    },
    {
      "anonymous": false,
      "inputs": [
        {
          "indexed": true,
          "internalType": "address",
          "name": "owner",
          "type": "address"
        },
        {
          "indexed": true,
          "internalType": "address",
          "name": "operator",
          "type": "address"
        },
        {
          "indexed": true,
          "internalType": "uint256",
          "name": "tokenId",
          "type": "uint256"
        }
      ],
      "name": "Approval",
      "type": "event"
    },
    {
      "anonymous": false,
      "inputs": [
        {
          "indexed": true,
          "internalType": "address",
          "name": "owner",
          "type": "address"
        },
        {
          "indexed": true,
          "internalType": "address",
          "name": "operator",
          "type": "address"
        },
        {
          "indexed": false,
          "internalType": "bool",
          "name": "approved",
          "type": "bool"
        }
      ],
      "name": "ApprovalForAll",
      "type": "event"
    },
    {
      "anonymous": false,
      "inputs": [
        {
          "indexed": true,
          "internalType": "address",
          "name": "from",
          "type": "address"
        },
        {
          "indexed": true,
          "internalType": "address",
          "name": "to",
          "type": "address"
        },
        {
          "indexed": true,
          "internalType": "uint256",
          "name": "tokenId",
          "type": "uint256"
        }
      ],
      "name": "Transfer",
      "type": "event"
    },
    {
      "inputs": [
        {
          "internalType": "address",
          "name": "operator",
          "type": "address"
        },
        {
          "internalType": "uint256",
          "name": "tokenId",
          "type": "uint256"
        }
      ],
      "name": "approve",
      "outputs": [],
      "stateMutability": "payable",
      "type": "function"
    },
    {
      "inputs": [
        {
          "internalType": "address",
          "name": "account",
          "type": "address"
        }
      ],
      "name": "balanceOf",
      "outputs": [
        {
          "internalType": "uint256",
          "name": "",
          "type": "uint256"
        }
      ],
      "stateMutability": "view",
      "type": "function"
    },
    {
      "inputs": [
        {
          "internalType": "uint256",
          "name": "tokenId",
          "type": "uint256"
        }
      ],
      "name": "exists",
      "outputs": [
        {
          "internalType": "bool",
          "name": "",
          "type": "bool"
        }
      ],
      "stateMutability": "view",
      "type": "function"
    },
    {
      "inputs": [
        {
          "internalType": "uint256",
          "name": "tokenId",
          "type": "uint256"
        }
      ],
      "name": "getApproved",
      "outputs": [
        {
          "internalType": "address",
          "name": "",
          "type": "address"
        }
      ],
      "stateMutability": "view",
      "type": "function"
    },
    {
      "inputs": [
        {
          "internalType": "address",
          "name": "tokenAddress",
          "type": "address"
        },
        {
          "internalType": "uint256",
          "name": "tokenId",
          "type": "uint256"
        },
        {
          "internalType": "address",
          "name": "_minter",
          "type": "address"
        },
        {
          "internalType": "address",
          "name": "_steward",
          "type": "address"
        },
        {
          "internalType": "string",
          "name": "name",
          "type": "string"
        },
        {
          "internalType": "string",
          "name": "symbol",
          "type": "string"
        },
        {
          "internalType": "string",
          "name": "tokenURI",
          "type": "string"
        }
      ],
      "name": "initializeWrappedStewardLicense",
      "outputs": [],
      "stateMutability": "nonpayable",
      "type": "function"
    },
    {
      "inputs": [
        {
          "internalType": "address",
          "name": "account",
          "type": "address"
        },
        {
          "internalType": "address",
          "name": "operator",
          "type": "address"
        }
      ],
      "name": "isApprovedForAll",
      "outputs": [
        {
          "internalType": "bool",
          "name": "",
          "type": "bool"
        }
      ],
      "stateMutability": "view",
      "type": "function"
    },
    {
      "inputs": [],
      "name": "minter",
      "outputs": [
        {
          "internalType": "address",
          "name": "",
          "type": "address"
        }
      ],
      "stateMutability": "view",
      "type": "function"
    },
    {
      "inputs": [],
      "name": "name",
      "outputs": [
        {
          "internalType": "string",
          "name": "",
          "type": "string"
        }
      ],
      "stateMutability": "view",
      "type": "function"
    },
    {
      "inputs": [
        {
          "internalType": "address",
          "name": "",
          "type": "address"
        },
        {
          "internalType": "address",
          "name": "",
          "type": "address"
        },
        {
          "internalType": "uint256",
          "name": "tokenId",
          "type": "uint256"
        },
        {
          "internalType": "bytes",
          "name": "",
          "type": "bytes"
        }
      ],
      "name": "onERC721Received",
      "outputs": [
        {
          "internalType": "bytes4",
          "name": "",
          "type": "bytes4"
        }
      ],
      "stateMutability": "view",
      "type": "function"
    },
    {
      "inputs": [
        {
          "internalType": "uint256",
          "name": "tokenId",
          "type": "uint256"
        }
      ],
      "name": "ownerOf",
      "outputs": [
        {
          "internalType": "address",
          "name": "",
          "type": "address"
        }
      ],
      "stateMutability": "view",
      "type": "function"
    },
    {
      "inputs": [
        {
          "internalType": "address",
          "name": "from",
          "type": "address"
        },
        {
          "internalType": "address",
          "name": "to",
          "type": "address"
        },
        {
          "internalType": "uint256",
          "name": "tokenId",
          "type": "uint256"
        }
      ],
      "name": "safeTransferFrom",
      "outputs": [],
      "stateMutability": "payable",
      "type": "function"
    },
    {
      "inputs": [
        {
          "internalType": "address",
          "name": "from",
          "type": "address"
        },
        {
          "internalType": "address",
          "name": "to",
          "type": "address"
        },
        {
          "internalType": "uint256",
          "name": "tokenId",
          "type": "uint256"
        },
        {
          "internalType": "bytes",
          "name": "data",
          "type": "bytes"
        }
      ],
      "name": "safeTransferFrom",
      "outputs": [],
      "stateMutability": "payable",
      "type": "function"
    },
    {
      "inputs": [
        {
          "internalType": "address",
          "name": "operator",
          "type": "address"
        },
        {
          "internalType": "bool",
          "name": "status",
          "type": "bool"
        }
      ],
      "name": "setApprovalForAll",
      "outputs": [],
      "stateMutability": "nonpayable",
      "type": "function"
    },
    {
      "inputs": [
        {
          "internalType": "bytes4",
          "name": "interfaceId",
          "type": "bytes4"
        }
      ],
      "name": "supportsInterface",
      "outputs": [
        {
          "internalType": "bool",
          "name": "",
          "type": "bool"
        }
      ],
      "stateMutability": "view",
      "type": "function"
    },
    {
      "inputs": [],
      "name": "symbol",
      "outputs": [
        {
          "internalType": "string",
          "name": "",
          "type": "string"
        }
      ],
      "stateMutability": "view",
      "type": "function"
    },
    {
      "inputs": [
        {
          "internalType": "uint256",
          "name": "index",
          "type": "uint256"
        }
      ],
      "name": "tokenByIndex",
      "outputs": [
        {
          "internalType": "uint256",
          "name": "",
          "type": "uint256"
        }
      ],
      "stateMutability": "view",
      "type": "function"
    },
    {
      "inputs": [
        {
          "internalType": "address",
          "name": "owner",
          "type": "address"
        },
        {
          "internalType": "uint256",
          "name": "index",
          "type": "uint256"
        }
      ],
      "name": "tokenOfOwnerByIndex",
      "outputs": [
        {
          "internalType": "uint256",
          "name": "",
          "type": "uint256"
        }
      ],
      "stateMutability": "view",
      "type": "function"
    },
    {
      "inputs": [
        {
          "internalType": "uint256",
          "name": "tokenId",
          "type": "uint256"
        }
      ],
      "name": "tokenURI",
      "outputs": [
        {
          "internalType": "string",
          "name": "",
          "type": "string"
        }
      ],
      "stateMutability": "view",
      "type": "function"
    },
    {
      "inputs": [],
      "name": "totalSupply",
      "outputs": [
        {
          "internalType": "uint256",
          "name": "",
          "type": "uint256"
        }
      ],
      "stateMutability": "view",
      "type": "function"
    },
    {
      "inputs": [
        {
          "internalType": "address",
          "name": "from",
          "type": "address"
        },
        {
          "internalType": "address",
          "name": "to",
          "type": "address"
        },
        {
          "internalType": "uint256",
          "name": "tokenId",
          "type": "uint256"
        }
      ],
      "name": "transferFrom",
      "outputs": [],
      "stateMutability": "payable",
      "type": "function"
    },
    {
      "inputs": [
        {
          "internalType": "address",
          "name": "from",
          "type": "address"
        },
        {
          "internalType": "address",
          "name": "to",
          "type": "address"
        },
        {
          "internalType": "uint256",
          "name": "tokenId",
          "type": "uint256"
        }
      ],
      "name": "triggerTransfer",
      "outputs": [],
      "stateMutability": "nonpayable",
      "type": "function"
    }
  ],
  "transactionHash": "0x5c5c406ee23e0cb32d7ed43900791de4908af067f385f4b52fcb543ba34881a4",
  "args": [],
  "numDeployments": 2,
  "solcInputHash": "af64c17cfc77993eb6c0348792079092",
  "bytecode": "0x608060405234801561001057600080fd5b5061226a806100206000396000f3fe60806040526004361061012a5760003560e01c80634f558e79116100ab578063a22cb4651161006f578063a22cb4651461031f578063b88d4fde1461033f578063c02458a814610352578063c87b56dd14610372578063e31a7c0114610392578063e985e9c5146103b257600080fd5b80634f558e791461028a5780634f6ccce7146102aa5780636352211e146102ca57806370a08231146102ea57806395d89b411461030a57600080fd5b8063150b7a02116100f2578063150b7a02146101e857806318160ddd1461022157806323b872dd146102445780632f745c591461025757806342842e0e1461027757600080fd5b806301ffc9a71461012f57806306fdde03146101645780630754617214610186578063081812fc146101b3578063095ea7b3146101d3575b600080fd5b34801561013b57600080fd5b5061014f61014a366004611a84565b6103d2565b60405190151581526020015b60405180910390f35b34801561017057600080fd5b50610179610415565b60405161015b9190611af1565b34801561019257600080fd5b5061019b610424565b6040516001600160a01b03909116815260200161015b565b3480156101bf57600080fd5b5061019b6101ce366004611b04565b610457565b6101e66101e1366004611b39565b610462565b005b3480156101f457600080fd5b50610208610203366004611b63565b6104ee565b6040516001600160e01b0319909116815260200161015b565b34801561022d57600080fd5b506102366106ab565b60405190815260200161015b565b6101e6610252366004611bfe565b6106b5565b34801561026357600080fd5b50610236610272366004611b39565b6106e7565b6101e6610285366004611bfe565b6106fa565b34801561029657600080fd5b5061014f6102a5366004611b04565b610715565b3480156102b657600080fd5b506102366102c5366004611b04565b610720565b3480156102d657600080fd5b5061019b6102e5366004611b04565b61072b565b3480156102f657600080fd5b50610236610305366004611c3a565b610736565b34801561031657600080fd5b50610179610741565b34801561032b57600080fd5b506101e661033a366004611c63565b61074b565b6101e661034d366004611d26565b6107ff565b34801561035e57600080fd5b506101e661036d366004611dc2565b610838565b34801561037e57600080fd5b5061017961038d366004611b04565b61092a565b34801561039e57600080fd5b506101e66103ad366004611bfe565b610935565b3480156103be57600080fd5b5061014f6103cd366004611e86565b6109db565b6001600160e01b0319811660009081527ffc606c433378e3a7e0a6a531deac289b66caa1b4aa8554fd4ab2c6f1570f92d8602052604081205460ff165b92915050565b606061041f6109e7565b905090565b600061041f7f79ec1734da2430052e9d78936f451aad707e5bed12ef4806b06dc3d0c38f0e31546001600160a01b031690565b600061040f82610a86565b600061046d8261072b565b9050806001600160a01b0316836001600160a01b0316036104a15760405163424a22cb60e01b815260040160405180910390fd5b336001600160a01b038216148015906104c157506104bf81336109db565b155b156104df57604051632f5de44f60e01b815260040160405180910390fd5b6104e98383610ae9565b505050565b600061051b7f79ec1734da2430052e9d78936f451aad707e5bed12ef4806b06dc3d0c38f0e305460ff1690565b151560011461057d5760405162461bcd60e51b815260206004820152603560248201526000805160206121b58339815191526044820152740e881b5d5cdd081899481a5b9a5d1a585b1a5e9959605a1b60648201526084015b60405180910390fd5b7f4f3bc7155d2db681e29af52d1119e27d8b92f937da5bb676ae6155a2e77a3c6d546001600160a01b031633146106155760405162461bcd60e51b815260206004820152604260248201526000805160206121b583398151915260448201527f3a2063616e6e6f7420616363657074207468697320746f6b656e206164647265606482015261737360f01b608482015260a401610574565b7f4f3bc7155d2db681e29af52d1119e27d8b92f937da5bb676ae6155a2e77a3c6e5484146106995760405162461bcd60e51b815260206004820152603d60248201526000805160206121b583398151915260448201527f3a2063616e6e6f7420616363657074207468697320746f6b656e2049440000006064820152608401610574565b50630a85bd0160e11b95945050505050565b600061041f610b76565b6106bf3382610b8f565b6106dc57604051632f5de44f60e01b815260040160405180910390fd5b6104e9838383610c15565b60006106f38383610d44565b9392505050565b6104e9838383604051806020016040528060008152506107ff565b600061040f82610d73565b600061040f82610d8d565b600061040f82610dae565b600061040f82610df2565b606061041f610e49565b336001600160a01b038316036107745760405163424a22cb60e01b815260040160405180910390fd5b3360008181527f3c7bf052874fa81625121783266a03507bd2cd48b16e571c01a04e8dd3fb07aa602090815260408083206001600160a01b03871680855290835292819020805460ff191686151590811790915590519081529192917f17307eab39ab6107e8899845ad3d59bd9653f200f220920489ca2b5937696c31910160405180910390a35050565b6108093383610b8f565b61082657604051632f5de44f60e01b815260040160405180910390fd5b61083284848484610e68565b50505050565b7f79ec1734da2430052e9d78936f451aad707e5bed12ef4806b06dc3d0c38f0e305460ff16156108b65760405162461bcd60e51b815260206004820152603560248201526000805160206121b58339815191526044820152740e88185b1c9958591e481a5b9a5d1a585b1a5e9959605a1b6064820152608401610574565b7f4f3bc7155d2db681e29af52d1119e27d8b92f937da5bb676ae6155a2e77a3c6d80546001600160a01b0319166001600160a01b0389161790557f4f3bc7155d2db681e29af52d1119e27d8b92f937da5bb676ae6155a2e77a3c6e8690556109218585858585610e9c565b50505050505050565b606061040f82610f7c565b3330146109bf5760405162461bcd60e51b815260206004820152604c60248201527f4e6174697665537465776172644c6963656e73653a205472696767657220747260448201527f616e736665722063616e206f6e6c792062652063616c6c65642066726f6d206160648201526b1b9bdd1a195c88199858d95d60a21b608482015260a401610574565b6109c881610d73565b15156000036106dc576104e9828261115d565b60006106f38383611240565b60606000805160206122158339815191528054610a0390611eb9565b80601f0160208091040260200160405190810160405280929190818152602001828054610a2f90611eb9565b8015610a7c5780601f10610a5157610100808354040283529160200191610a7c565b820191906000526020600020905b815481529060010190602001808311610a5f57829003601f168201915b5050505050905090565b6000610a9182610d73565b610aae5760405163c1b843ef60e01b815260040160405180910390fd5b5060009081527f3c7bf052874fa81625121783266a03507bd2cd48b16e571c01a04e8dd3fb07a960205260409020546001600160a01b031690565b60008181527f3c7bf052874fa81625121783266a03507bd2cd48b16e571c01a04e8dd3fb07a96020526040902080546001600160a01b0319166001600160a01b0384169081179091558190610b3d82610dae565b6001600160a01b03167f8c5be1e5ebec7d5bd14f71427d1e84f3dd0314c0f7b2291e5b200ac8c7c3b92560405160405180910390a45050565b600061041f6000805160206121f583398151915261128d565b6000610b9a82610d73565b610bb75760405163c1b843ef60e01b815260040160405180910390fd5b6000610bc283610dae565b9050806001600160a01b0316846001600160a01b03161480610bfd5750836001600160a01b0316610bf284610a86565b6001600160a01b0316145b80610c0d5750610c0d8185611240565b949350505050565b826001600160a01b0316610c2882610dae565b6001600160a01b031614610c4f57604051630f2db4ad60e01b815260040160405180910390fd5b6001600160a01b038216610c76576040516340311a0960e01b815260040160405180910390fd5b610c81838383611297565b610c8c600082610ae9565b6001600160a01b03831660009081526000805160206121d5833981519152602052604090206000805160206121f583398151915290610ccb908361138c565b506001600160a01b03831660009081526002820160205260409020610cf09083611398565b50610cfc8183856113a4565b5081836001600160a01b0316856001600160a01b03167fddf252ad1be2c89b69c2b068fc378daa952ba7f163c4a11628f55a4df523b3ef60405160405180910390a450505050565b6001600160a01b03821660009081526000805160206121d5833981519152602052604081206106f390836113ba565b600061040f6000805160206121f5833981519152836113c6565b6000610da76000805160206121f5833981519152836113de565b5092915050565b600080610dc96000805160206121f5833981519152846113fa565b90506001600160a01b03811661040f57604051637e1a7d8b60e01b815260040160405180910390fd5b60006001600160a01b038216610e1b57604051630810ff9760e41b815260040160405180910390fd5b6001600160a01b03821660009081526000805160206121d58339815191526020526040902061040f9061128d565b60606000805160206122158339815191526001018054610a0390611eb9565b610e73848484610c15565b610e7f84848484611406565b61083257604051639ff10cdd60e01b815260040160405180910390fd5b7f79ec1734da2430052e9d78936f451aad707e5bed12ef4806b06dc3d0c38f0e3080546001600160a01b03868116610100026001600160a81b03199092169190911760011782557f79ec1734da2430052e9d78936f451aad707e5bed12ef4806b06dc3d0c38f0e3180549188166001600160a01b03199092169190911790556000600080516020612215833981519152905080610f398682611f41565b5060018101610f488582611f41565b5060028101610f578482611f41565b50610f6a6301ffc9a760e01b60016114d7565b6109216380ac58cd60e01b60016114d7565b6060610f8782610d73565b610fa357604051624705a760e71b815260040160405180910390fd5b60008281527f99574a7094154bb123ae6ae102096f0bf9679b85a5cd1e727aaa0ae5f132e6b4602052604081208054600080516020612215833981519152929190610fed90611eb9565b80601f016020809104026020016040519081016040528092919081815260200182805461101990611eb9565b80156110665780601f1061103b57610100808354040283529160200191611066565b820191906000526020600020905b81548152906001019060200180831161104957829003601f168201915b50505050509050600082600201805461107e90611eb9565b80601f01602080910402602001604051908101604052809291908181526020018280546110aa90611eb9565b80156110f75780601f106110cc576101008083540402835291602001916110f7565b820191906000526020600020905b8154815290600101906020018083116110da57829003601f168201915b50505050509050805160000361110f57509392505050565b815115611142578082604051602001611129929190612001565b6040516020818303038152906040529350505050919050565b8061114c8661154d565b604051602001611129929190612001565b6001600160a01b038216611184576040516311f2988d60e11b815260040160405180910390fd5b61118d81610d73565b156111ab57604051630d86bb7b60e31b815260040160405180910390fd5b6111b760008383611297565b6001600160a01b03821660009081526000805160206121d5833981519152602052604090206000805160206121f5833981519152906111f69083611398565b506112028183856113a4565b5060405182906001600160a01b038516906000907fddf252ad1be2c89b69c2b068fc378daa952ba7f163c4a11628f55a4df523b3ef908290a4505050565b6001600160a01b0391821660009081527f3c7bf052874fa81625121783266a03507bd2cd48b16e571c01a04e8dd3fb07aa6020908152604080832093909416825291909152205460ff1690565b600061040f825490565b6001600160a01b038316156113815760405163a7c12c1160e01b815260048101829052600090309063a7c12c1190602401602060405180830381865afa1580156112e5573d6000803e3d6000fd5b505050506040513d601f19601f820116820180604052508101906113099190612030565b9050801561137f5760405162461bcd60e51b815260206004820152603a60248201527f537465776172644c6963656e736546616365743a2043616e6e6f74207472616e60448201527f7366657220647572696e672061756374696f6e20706572696f640000000000006064820152608401610574565b505b6104e983838361164e565b60006106f38383611659565b60006106f38383611713565b6000610c0d84846001600160a01b038516611756565b60006106f383836117f5565b600081815260018301602052604081205415156106f3565b60008080806113ed8686611841565b9097909650945050505050565b60006106f383836118a4565b60006001600160a01b0384163b61141f57506001610c0d565b60006114a063150b7a0260e01b33888787604051602401611443949392919061204d565b604051602081830303815290604052906001600160e01b0319166020820180516001600160e01b038381831617835250505050604051806060016040528060328152602001612183603291396001600160a01b0388169190611908565b90506000818060200190518101906114b8919061208a565b6001600160e01b031916630a85bd0160e11b1492505050949350505050565b6001600160e01b031980831690036115025760405163b0a19dd560e01b815260040160405180910390fd5b6001600160e01b03199190911660009081527ffc606c433378e3a7e0a6a531deac289b66caa1b4aa8554fd4ab2c6f1570f92d860205260409020805460ff1916911515919091179055565b6060816000036115745750506040805180820190915260018152600360fc1b602082015290565b8160005b811561159e5780611588816120bd565b91506115979050600a836120ec565b9150611578565b60008167ffffffffffffffff8111156115b9576115b9611c9a565b6040519080825280601f01601f1916602001820160405280156115e3576020820181803683370190505b5090505b8415610c0d576115f8600183612100565b9150611605600a86612113565b611610906030612127565b60f81b8183815181106116255761162561213a565b60200101906001600160f81b031916908160001a905350611647600a866120ec565b94506115e7565b6104e9838383611917565b60008181526001830160205260408120548015610da75783546000908590600019810190811061168b5761168b61213a565b90600052602060002001549050808560000160018403815481106116b1576116b161213a565b60009182526020808320909101929092559182526001860190526040902081905583548490806116e3576116e3612150565b60008281526020808220830160001990810183905590920190925593815260019485019093525050604081205590565b600081815260018301602052604081205461040f575081546001808201845560008481526020808220909301849055845493815293810190915260409092205590565b60008281526001840160205260408120548082036117bd5750506040805180820182528381526020808201848152865460018181018955600089815284812095516002909302909501918255915190820155865486845281880190925292909120556106f3565b828560000160018303815481106117d6576117d661213a565b90600052602060002090600202016001018190555060009150506106f3565b815460009082106118195760405163e637bf3b60e01b815260040160405180910390fd5b82600001828154811061182e5761182e61213a565b9060005260206000200154905092915050565b8154600090819083106118675760405163022fd82760e31b815260040160405180910390fd5b600084600001848154811061187e5761187e61213a565b906000526020600020906002020190508060000154816001015492509250509250929050565b60008181526001830160205260408120548082036118d557604051633d547ec560e21b815260040160405180910390fd5b8360000160018203815481106118ed576118ed61213a565b90600052602060002090600202016001015491505092915050565b6060610c0d848460008561195b565b6001600160a01b0382166104e95760008181527f99574a7094154bb123ae6ae102096f0bf9679b85a5cd1e727aaa0ae5f132e6b4602052604081206104e991611a18565b6060843b61197c57604051632270d6bf60e21b815260040160405180910390fd5b600080866001600160a01b031685876040516119989190612166565b60006040518083038185875af1925050503d80600081146119d5576040519150601f19603f3d011682016040523d82523d6000602084013e6119da565b606091505b509150915081156119ee579150610c0d9050565b8051156119fe5780518082602001fd5b8360405162461bcd60e51b81526004016105749190611af1565b508054611a2490611eb9565b6000825580601f10611a34575050565b601f016020900490600052602060002090810190611a529190611a55565b50565b5b80821115611a6a5760008155600101611a56565b5090565b6001600160e01b031981168114611a5257600080fd5b600060208284031215611a9657600080fd5b81356106f381611a6e565b60005b83811015611abc578181015183820152602001611aa4565b50506000910152565b60008151808452611add816020860160208601611aa1565b601f01601f19169290920160200192915050565b6020815260006106f36020830184611ac5565b600060208284031215611b1657600080fd5b5035919050565b80356001600160a01b0381168114611b3457600080fd5b919050565b60008060408385031215611b4c57600080fd5b611b5583611b1d565b946020939093013593505050565b600080600080600060808688031215611b7b57600080fd5b611b8486611b1d565b9450611b9260208701611b1d565b935060408601359250606086013567ffffffffffffffff80821115611bb657600080fd5b818801915088601f830112611bca57600080fd5b813581811115611bd957600080fd5b896020828501011115611beb57600080fd5b9699959850939650602001949392505050565b600080600060608486031215611c1357600080fd5b611c1c84611b1d565b9250611c2a60208501611b1d565b9150604084013590509250925092565b600060208284031215611c4c57600080fd5b6106f382611b1d565b8015158114611a5257600080fd5b60008060408385031215611c7657600080fd5b611c7f83611b1d565b91506020830135611c8f81611c55565b809150509250929050565b634e487b7160e01b600052604160045260246000fd5b600067ffffffffffffffff80841115611ccb57611ccb611c9a565b604051601f8501601f19908116603f01168101908282118183101715611cf357611cf3611c9a565b81604052809350858152868686011115611d0c57600080fd5b858560208301376000602087830101525050509392505050565b60008060008060808587031215611d3c57600080fd5b611d4585611b1d565b9350611d5360208601611b1d565b925060408501359150606085013567ffffffffffffffff811115611d7657600080fd5b8501601f81018713611d8757600080fd5b611d9687823560208401611cb0565b91505092959194509250565b600082601f830112611db357600080fd5b6106f383833560208501611cb0565b600080600080600080600060e0888a031215611ddd57600080fd5b611de688611b1d565b965060208801359550611dfb60408901611b1d565b9450611e0960608901611b1d565b9350608088013567ffffffffffffffff80821115611e2657600080fd5b611e328b838c01611da2565b945060a08a0135915080821115611e4857600080fd5b611e548b838c01611da2565b935060c08a0135915080821115611e6a57600080fd5b50611e778a828b01611da2565b91505092959891949750929550565b60008060408385031215611e9957600080fd5b611ea283611b1d565b9150611eb060208401611b1d565b90509250929050565b600181811c90821680611ecd57607f821691505b602082108103611eed57634e487b7160e01b600052602260045260246000fd5b50919050565b601f8211156104e957600081815260208120601f850160051c81016020861015611f1a5750805b601f850160051c820191505b81811015611f3957828155600101611f26565b505050505050565b815167ffffffffffffffff811115611f5b57611f5b611c9a565b611f6f81611f698454611eb9565b84611ef3565b602080601f831160018114611fa45760008415611f8c5750858301515b600019600386901b1c1916600185901b178555611f39565b600085815260208120601f198616915b82811015611fd357888601518255948401946001909101908401611fb4565b5085821015611ff15787850151600019600388901b60f8161c191681555b5050505050600190811b01905550565b60008351612013818460208801611aa1565b835190830190612027818360208801611aa1565b01949350505050565b60006020828403121561204257600080fd5b81516106f381611c55565b6001600160a01b038581168252841660208201526040810183905260806060820181905260009061208090830184611ac5565b9695505050505050565b60006020828403121561209c57600080fd5b81516106f381611a6e565b634e487b7160e01b600052601160045260246000fd5b6000600182016120cf576120cf6120a7565b5060010190565b634e487b7160e01b600052601260045260246000fd5b6000826120fb576120fb6120d6565b500490565b8181038181111561040f5761040f6120a7565b600082612122576121226120d6565b500690565b8082018082111561040f5761040f6120a7565b634e487b7160e01b600052603260045260246000fd5b634e487b7160e01b600052603160045260246000fd5b60008251612178818460208701611aa1565b919091019291505056fe4552433732313a207472616e7366657220746f206e6f6e20455243373231526563656976657220696d706c656d656e74657257726170706564455243373231537465776172644c6963656e736546616365743c7bf052874fa81625121783266a03507bd2cd48b16e571c01a04e8dd3fb07a83c7bf052874fa81625121783266a03507bd2cd48b16e571c01a04e8dd3fb07a699574a7094154bb123ae6ae102096f0bf9679b85a5cd1e727aaa0ae5f132e6b1a2646970667358221220a44530565f144e3782f8b68118fef34ae7eff01da15471c2a2cf2695545d8cf664736f6c63430008110033",
  "devdoc": {
    "details": "ERC-721 token license for Steward that wraps existing ERC-721. Only a particular ERC721 transfer is accepted.",
    "kind": "dev",
    "methods": {
      "approve(address,uint256)": {
        "params": {
          "operator": "address to be approved",
          "tokenId": "token to approve"
        }
      },
      "balanceOf(address)": {
        "returns": {
          "_0": "quantity of tokens held"
        }
      },
      "getApproved(uint256)": {
        "params": {
          "tokenId": "token to query"
        },
        "returns": {
          "_0": "address approved to spend token"
        }
      },
      "isApprovedForAll(address,address)": {
        "params": {
          "account": "address to query for approval granted",
          "operator": "address to query for approval received"
        },
        "returns": {
          "_0": "whether operator is approved to spend tokens held by account"
        }
      },
      "ownerOf(uint256)": {
        "params": {
          "tokenId": "token to query"
        },
        "returns": {
          "_0": "token owner"
        }
      },
      "safeTransferFrom(address,address,uint256)": {
        "params": {
          "from": "sender of token",
          "to": "receiver of token",
          "tokenId": "token id"
        }
      },
      "safeTransferFrom(address,address,uint256,bytes)": {
        "params": {
          "data": "data payload",
          "from": "sender of token",
          "to": "receiver of token",
          "tokenId": "token id"
        }
      },
      "setApprovalForAll(address,bool)": {
        "params": {
          "operator": "address to be approved",
          "status": "approval status"
        }
      },
      "supportsInterface(bytes4)": {
        "params": {
          "interfaceId": "interface id"
        },
        "returns": {
          "_0": "bool whether interface is supported"
        }
      },
      "tokenByIndex(uint256)": {
        "params": {
          "index": "position in global token list to query"
        },
        "returns": {
          "_0": "id of retrieved token"
        }
      },
      "tokenOfOwnerByIndex(address,uint256)": {
        "params": {
          "index": "position in owner's token list to query",
          "owner": "token holder to query"
        },
        "returns": {
          "_0": "id of retrieved token"
        }
      },
      "totalSupply()": {
        "returns": {
          "_0": "total supply"
        }
      },
      "transferFrom(address,address,uint256)": {
        "params": {
          "from": "sender of token",
          "to": "receiver of token",
          "tokenId": "token id"
        }
      }
    },
    "title": "WrappedERC721StewardLicenseFacet",
    "version": 1
  },
  "userdoc": {
    "kind": "user",
    "methods": {
      "approve(address,uint256)": {
        "notice": "grant approval to given account to spend token"
      },
      "balanceOf(address)": {
        "notice": "query the balance of given address"
      },
      "exists(uint256)": {
        "notice": "Check if token exists"
      },
      "getApproved(uint256)": {
        "notice": "get approval status for given token"
      },
      "initializeWrappedStewardLicense(address,uint256,address,address,string,string,string)": {
        "notice": "Initialize license"
      },
      "isApprovedForAll(address,address)": {
        "notice": "query approval status of given operator with respect to given address"
      },
      "minter()": {
        "notice": "Get minter"
      },
      "name()": {
        "notice": "inheritdoc IERC721Metadata"
      },
      "ownerOf(uint256)": {
        "notice": "query the owner of given token"
      },
      "safeTransferFrom(address,address,uint256)": {
        "notice": "transfer token between given addresses, checking for ERC721Receiver implementation if applicable"
      },
      "safeTransferFrom(address,address,uint256,bytes)": {
        "notice": "transfer token between given addresses, checking for ERC721Receiver implementation if applicable"
      },
      "setApprovalForAll(address,bool)": {
        "notice": "grant approval to or revoke approval from given account to spend all tokens held by sender"
      },
      "supportsInterface(bytes4)": {
        "notice": "query whether contract has registered support for given interface"
      },
      "symbol()": {
        "notice": "inheritdoc IERC721Metadata"
      },
      "tokenByIndex(uint256)": {
        "notice": "get token at given internal storage index"
      },
      "tokenOfOwnerByIndex(address,uint256)": {
        "notice": "get token of given owner at given internal storage index"
      },
      "tokenURI(uint256)": {
        "notice": "inheritdoc IERC721Metadata"
      },
      "totalSupply()": {
        "notice": "get total token supply"
      },
      "transferFrom(address,address,uint256)": {
        "notice": "transfer token between given addresses, without checking for ERC721Receiver implementation if applicable"
      },
      "triggerTransfer(address,address,uint256)": {
        "notice": "Trigger transfer of license"
      }
    },
    "version": 1
  },
  "storageLayout": {
    "storage": [],
    "types": null
  }
}