{
  "address": "0x644D79b1494a77fbD7DdB05b30Bf513f179af4b5",
  "abi": [
    {
      "inputs": [],
      "name": "AddressUtils__NotContract",
      "type": "error"
    },
    {
      "inputs": [],
      "name": "ERC165Base__InvalidInterfaceId",
      "type": "error"
    },
    {
      "inputs": [],
      "name": "ERC721Base__BalanceQueryZeroAddress",
      "type": "error"
    },
    {
      "inputs": [],
      "name": "ERC721Base__ERC721ReceiverNotImplemented",
      "type": "error"
    },
    {
      "inputs": [],
      "name": "ERC721Base__InvalidOwner",
      "type": "error"
    },
    {
      "inputs": [],
      "name": "ERC721Base__MintToZeroAddress",
      "type": "error"
    },
    {
      "inputs": [],
      "name": "ERC721Base__NonExistentToken",
      "type": "error"
    },
    {
      "inputs": [],
      "name": "ERC721Base__NotOwnerOrApproved",
      "type": "error"
    },
    {
      "inputs": [],
      "name": "ERC721Base__NotTokenOwner",
      "type": "error"
    },
    {
      "inputs": [],
      "name": "ERC721Base__SelfApproval",
      "type": "error"
    },
    {
      "inputs": [],
      "name": "ERC721Base__TokenAlreadyMinted",
      "type": "error"
    },
    {
      "inputs": [],
      "name": "ERC721Base__TransferToZeroAddress",
      "type": "error"
    },
    {
      "inputs": [],
      "name": "ERC721Metadata__NonExistentToken",
      "type": "error"
    },
    {
      "inputs": [],
      "name": "EnumerableMap__IndexOutOfBounds",
      "type": "error"
    },
    {
      "inputs": [],
      "name": "EnumerableMap__NonExistentKey",
      "type": "error"
    },
    {
      "inputs": [],
      "name": "EnumerableSet__IndexOutOfBounds",
      "type": "error"
    },
    {
      "anonymous": false,
      "inputs": [
        {
          "indexed": true,
          "internalType": "address",
          "name": "owner",
          "type": "address"
        },
        {
          "indexed": true,
          "internalType": "address",
          "name": "operator",
          "type": "address"
        },
        {
          "indexed": true,
          "internalType": "uint256",
          "name": "tokenId",
          "type": "uint256"
        }
      ],
      "name": "Approval",
      "type": "event"
    },
    {
      "anonymous": false,
      "inputs": [
        {
          "indexed": true,
          "internalType": "address",
          "name": "owner",
          "type": "address"
        },
        {
          "indexed": true,
          "internalType": "address",
          "name": "operator",
          "type": "address"
        },
        {
          "indexed": false,
          "internalType": "bool",
          "name": "approved",
          "type": "bool"
        }
      ],
      "name": "ApprovalForAll",
      "type": "event"
    },
    {
      "anonymous": false,
      "inputs": [
        {
          "indexed": true,
          "internalType": "address",
          "name": "from",
          "type": "address"
        },
        {
          "indexed": true,
          "internalType": "address",
          "name": "to",
          "type": "address"
        },
        {
          "indexed": true,
          "internalType": "uint256",
          "name": "tokenId",
          "type": "uint256"
        }
      ],
      "name": "Transfer",
      "type": "event"
    },
    {
      "inputs": [
        {
          "internalType": "address",
          "name": "to",
          "type": "address"
        },
        {
          "internalType": "string",
          "name": "tokenURI",
          "type": "string"
        }
      ],
      "name": "addTokenToCollection",
      "outputs": [],
      "stateMutability": "nonpayable",
      "type": "function"
    },
    {
      "inputs": [
        {
          "internalType": "string[]",
          "name": "tokenURIs",
          "type": "string[]"
        }
      ],
      "name": "addTokensToCollection",
      "outputs": [],
      "stateMutability": "nonpayable",
      "type": "function"
    },
    {
      "inputs": [
        {
          "internalType": "address[]",
          "name": "to",
          "type": "address[]"
        },
        {
          "internalType": "string[]",
          "name": "tokenURIs",
          "type": "string[]"
        }
      ],
      "name": "addTokensToCollection",
      "outputs": [],
      "stateMutability": "nonpayable",
      "type": "function"
    },
    {
      "inputs": [
        {
          "internalType": "uint32",
          "name": "amount",
          "type": "uint32"
        },
        {
          "internalType": "string",
          "name": "baseURI",
          "type": "string"
        }
      ],
      "name": "addTokensWithBaseURIToCollection",
      "outputs": [],
      "stateMutability": "nonpayable",
      "type": "function"
    },
    {
      "inputs": [
        {
          "internalType": "address",
          "name": "operator",
          "type": "address"
        },
        {
          "internalType": "uint256",
          "name": "tokenId",
          "type": "uint256"
        }
      ],
      "name": "approve",
      "outputs": [],
      "stateMutability": "payable",
      "type": "function"
    },
    {
      "inputs": [
        {
          "internalType": "address",
          "name": "account",
          "type": "address"
        }
      ],
      "name": "balanceOf",
      "outputs": [
        {
          "internalType": "uint256",
          "name": "",
          "type": "uint256"
        }
      ],
      "stateMutability": "view",
      "type": "function"
    },
    {
      "inputs": [
        {
          "internalType": "uint256",
          "name": "tokenId",
          "type": "uint256"
        }
      ],
      "name": "exists",
      "outputs": [
        {
          "internalType": "bool",
          "name": "",
          "type": "bool"
        }
      ],
      "stateMutability": "view",
      "type": "function"
    },
    {
      "inputs": [
        {
          "internalType": "uint256",
          "name": "tokenId",
          "type": "uint256"
        }
      ],
      "name": "getApproved",
      "outputs": [
        {
          "internalType": "address",
          "name": "",
          "type": "address"
        }
      ],
      "stateMutability": "view",
      "type": "function"
    },
    {
      "inputs": [
        {
          "internalType": "address",
          "name": "tokenAddress",
          "type": "address"
        },
        {
          "internalType": "uint256",
          "name": "tokenId",
          "type": "uint256"
        },
        {
          "internalType": "address",
          "name": "_minter",
          "type": "address"
        },
        {
          "internalType": "address",
          "name": "_steward",
          "type": "address"
        },
        {
          "internalType": "uint256",
          "name": "_maxTokenCount",
          "type": "uint256"
        },
        {
          "internalType": "string",
          "name": "name",
          "type": "string"
        },
        {
          "internalType": "string",
          "name": "symbol",
          "type": "string"
        },
        {
          "internalType": "string",
          "name": "tokenURI",
          "type": "string"
        }
      ],
      "name": "initializeWrappedStewardLicense",
      "outputs": [],
      "stateMutability": "nonpayable",
      "type": "function"
    },
    {
      "inputs": [
        {
          "internalType": "address",
          "name": "account",
          "type": "address"
        },
        {
          "internalType": "address",
          "name": "operator",
          "type": "address"
        }
      ],
      "name": "isApprovedForAll",
      "outputs": [
        {
          "internalType": "bool",
          "name": "",
          "type": "bool"
        }
      ],
      "stateMutability": "view",
      "type": "function"
    },
    {
      "inputs": [],
      "name": "maxTokenCount",
      "outputs": [
        {
          "internalType": "uint256",
          "name": "",
          "type": "uint256"
        }
      ],
      "stateMutability": "view",
      "type": "function"
    },
    {
      "inputs": [
        {
          "internalType": "address",
          "name": "to",
          "type": "address"
        },
        {
          "internalType": "uint256",
          "name": "tokenId",
          "type": "uint256"
        }
      ],
      "name": "mintToken",
      "outputs": [],
      "stateMutability": "nonpayable",
      "type": "function"
    },
    {
      "inputs": [],
      "name": "minter",
      "outputs": [
        {
          "internalType": "address",
          "name": "",
          "type": "address"
        }
      ],
      "stateMutability": "view",
      "type": "function"
    },
    {
      "inputs": [],
      "name": "name",
      "outputs": [
        {
          "internalType": "string",
          "name": "",
          "type": "string"
        }
      ],
      "stateMutability": "view",
      "type": "function"
    },
    {
      "inputs": [
        {
          "internalType": "address",
          "name": "",
          "type": "address"
        },
        {
          "internalType": "address",
          "name": "",
          "type": "address"
        },
        {
          "internalType": "uint256[]",
          "name": "ids",
          "type": "uint256[]"
        },
        {
          "internalType": "uint256[]",
          "name": "values",
          "type": "uint256[]"
        },
        {
          "internalType": "bytes",
          "name": "",
          "type": "bytes"
        }
      ],
      "name": "onERC1155BatchReceived",
      "outputs": [
        {
          "internalType": "bytes4",
          "name": "",
          "type": "bytes4"
        }
      ],
      "stateMutability": "view",
      "type": "function"
    },
    {
      "inputs": [
        {
          "internalType": "address",
          "name": "",
          "type": "address"
        },
        {
          "internalType": "address",
          "name": "",
          "type": "address"
        },
        {
          "internalType": "uint256",
          "name": "id",
          "type": "uint256"
        },
        {
          "internalType": "uint256",
          "name": "value",
          "type": "uint256"
        },
        {
          "internalType": "bytes",
          "name": "",
          "type": "bytes"
        }
      ],
      "name": "onERC1155Received",
      "outputs": [
        {
          "internalType": "bytes4",
          "name": "",
          "type": "bytes4"
        }
      ],
      "stateMutability": "view",
      "type": "function"
    },
    {
      "inputs": [
        {
          "internalType": "uint256",
          "name": "tokenId",
          "type": "uint256"
        }
      ],
      "name": "ownerOf",
      "outputs": [
        {
          "internalType": "address",
          "name": "",
          "type": "address"
        }
      ],
      "stateMutability": "view",
      "type": "function"
    },
    {
      "inputs": [
        {
          "internalType": "address",
          "name": "from",
          "type": "address"
        },
        {
          "internalType": "address",
          "name": "to",
          "type": "address"
        },
        {
          "internalType": "uint256",
          "name": "tokenId",
          "type": "uint256"
        }
      ],
      "name": "safeTransferFrom",
      "outputs": [],
      "stateMutability": "payable",
      "type": "function"
    },
    {
      "inputs": [
        {
          "internalType": "address",
          "name": "from",
          "type": "address"
        },
        {
          "internalType": "address",
          "name": "to",
          "type": "address"
        },
        {
          "internalType": "uint256",
          "name": "tokenId",
          "type": "uint256"
        },
        {
          "internalType": "bytes",
          "name": "data",
          "type": "bytes"
        }
      ],
      "name": "safeTransferFrom",
      "outputs": [],
      "stateMutability": "payable",
      "type": "function"
    },
    {
      "inputs": [
        {
          "internalType": "address",
          "name": "operator",
          "type": "address"
        },
        {
          "internalType": "bool",
          "name": "status",
          "type": "bool"
        }
      ],
      "name": "setApprovalForAll",
      "outputs": [],
      "stateMutability": "nonpayable",
      "type": "function"
    },
    {
      "inputs": [
        {
          "internalType": "bytes4",
          "name": "interfaceId",
          "type": "bytes4"
        }
      ],
      "name": "supportsInterface",
      "outputs": [
        {
          "internalType": "bool",
          "name": "",
          "type": "bool"
        }
      ],
      "stateMutability": "view",
      "type": "function"
    },
    {
      "inputs": [],
      "name": "symbol",
      "outputs": [
        {
          "internalType": "string",
          "name": "",
          "type": "string"
        }
      ],
      "stateMutability": "view",
      "type": "function"
    },
    {
      "inputs": [
        {
          "internalType": "uint256",
          "name": "index",
          "type": "uint256"
        }
      ],
      "name": "tokenByIndex",
      "outputs": [
        {
          "internalType": "uint256",
          "name": "",
          "type": "uint256"
        }
      ],
      "stateMutability": "view",
      "type": "function"
    },
    {
      "inputs": [
        {
          "internalType": "address",
          "name": "owner",
          "type": "address"
        },
        {
          "internalType": "uint256",
          "name": "index",
          "type": "uint256"
        }
      ],
      "name": "tokenOfOwnerByIndex",
      "outputs": [
        {
          "internalType": "uint256",
          "name": "",
          "type": "uint256"
        }
      ],
      "stateMutability": "view",
      "type": "function"
    },
    {
      "inputs": [
        {
          "internalType": "uint256",
          "name": "tokenId",
          "type": "uint256"
        }
      ],
      "name": "tokenURI",
      "outputs": [
        {
          "internalType": "string",
          "name": "",
          "type": "string"
        }
      ],
      "stateMutability": "view",
      "type": "function"
    },
    {
      "inputs": [],
      "name": "totalSupply",
      "outputs": [
        {
          "internalType": "uint256",
          "name": "",
          "type": "uint256"
        }
      ],
      "stateMutability": "view",
      "type": "function"
    },
    {
      "inputs": [
        {
          "internalType": "address",
          "name": "from",
          "type": "address"
        },
        {
          "internalType": "address",
          "name": "to",
          "type": "address"
        },
        {
          "internalType": "uint256",
          "name": "tokenId",
          "type": "uint256"
        }
      ],
      "name": "transferFrom",
      "outputs": [],
      "stateMutability": "payable",
      "type": "function"
    },
    {
      "inputs": [
        {
          "internalType": "address",
          "name": "from",
          "type": "address"
        },
        {
          "internalType": "address",
          "name": "to",
          "type": "address"
        },
        {
          "internalType": "uint256",
          "name": "tokenId",
          "type": "uint256"
        }
      ],
      "name": "triggerTransfer",
      "outputs": [],
      "stateMutability": "nonpayable",
      "type": "function"
    }
  ],
  "transactionHash": "0x50dae8bf71727710d189e3e1525da7d12ae12cbebeb3e771b45829e40a3cc07e",
  "args": [],
  "numDeployments": 3,
  "solcInputHash": "0b5efae482ad241fc19d4580fd9acd55",
  "bytecode": "0x608060405234801561001057600080fd5b506131da806100206000396000f3fe6080604052600436106101b75760003560e01c80636a2e019f116100ec578063c4e627c21161008a578063e95a272f11610064578063e95a272f146104b4578063e985e9c5146104d4578063f23a6e61146104f4578063f42c01651461051457600080fd5b8063c4e627c21461045f578063c87b56dd14610474578063e31a7c011461049457600080fd5b806395d89b41116100c657806395d89b41146103de578063a22cb465146103f3578063b88d4fde14610413578063bc197c811461042657600080fd5b80636a2e019f1461037e57806370a082311461039e57806379c65068146103be57600080fd5b8063269aab0e116101595780634a7c554f116101335780634a7c554f146102fe5780634f558e791461031e5780634f6ccce71461033e5780636352211e1461035e57600080fd5b8063269aab0e146102ab5780632f745c59146102cb57806342842e0e146102eb57600080fd5b8063081812fc11610195578063081812fc14610240578063095ea7b31461026057806318160ddd1461027557806323b872dd1461029857600080fd5b806301ffc9a7146101bc57806306fdde03146101f15780630754617214610213575b600080fd5b3480156101c857600080fd5b506101dc6101d736600461245e565b610534565b60405190151581526020015b60405180910390f35b3480156101fd57600080fd5b50610206610577565b6040516101e891906124cb565b34801561021f57600080fd5b50610228610586565b6040516001600160a01b0390911681526020016101e8565b34801561024c57600080fd5b5061022861025b3660046124de565b6105b9565b61027361026e36600461251c565b6105c4565b005b34801561028157600080fd5b5061028a610650565b6040519081526020016101e8565b6102736102a6366004612548565b61065a565b3480156102b757600080fd5b506102736102c63660046126f8565b61068c565b3480156102d757600080fd5b5061028a6102e636600461251c565b61076d565b6102736102f9366004612548565b610780565b34801561030a57600080fd5b5061027361031936600461272c565b61079b565b34801561032a57600080fd5b506101dc6103393660046124de565b6108e9565b34801561034a57600080fd5b5061028a6103593660046124de565b6108f4565b34801561036a57600080fd5b506102286103793660046124de565b6108ff565b34801561038a57600080fd5b506102736103993660046127ed565b61090a565b3480156103aa57600080fd5b5061028a6103b9366004612832565b610a0a565b3480156103ca57600080fd5b506102736103d936600461251c565b610a15565b3480156103ea57600080fd5b50610206610c49565b3480156103ff57600080fd5b5061027361040e36600461285d565b610c53565b610273610421366004612896565b610d07565b34801561043257600080fd5b5061044661044136600461299a565b610d40565b6040516001600160e01b031990911681526020016101e8565b34801561046b57600080fd5b5061028a610e7e565b34801561048057600080fd5b5061020661048f3660046124de565b610e96565b3480156104a057600080fd5b506102736104af366004612548565b610f90565b3480156104c057600080fd5b506102736104cf366004612a58565b611025565b3480156104e057600080fd5b506101dc6104ef366004612a7f565b6110e9565b34801561050057600080fd5b5061044661050f366004612aad565b6110f5565b34801561052057600080fd5b5061027361052f366004612b28565b6111e7565b6001600160e01b0319811660009081527ffc606c433378e3a7e0a6a531deac289b66caa1b4aa8554fd4ab2c6f1570f92d8602052604081205460ff165b92915050565b60606105816112ca565b905090565b60006105817f79ec1734da2430052e9d78936f451aad707e5bed12ef4806b06dc3d0c38f0e31546001600160a01b031690565b600061057182611369565b60006105cf826108ff565b9050806001600160a01b0316836001600160a01b0316036106035760405163424a22cb60e01b815260040160405180910390fd5b336001600160a01b03821614801590610623575061062181336110e9565b155b1561064157604051632f5de44f60e01b815260040160405180910390fd5b61064b83836113cc565b505050565b6000610581611459565b6106643382611472565b61068157604051632f5de44f60e01b815260040160405180910390fd5b61064b8383836114f0565b306001600160a01b0316633882ce8e6040518163ffffffff1660e01b8152600401602060405180830381865afa1580156106ca573d6000803e3d6000fd5b505050506040513d601f19601f820116820180604052508101906106ee9190612bf5565b6001600160a01b0316336001600160a01b0316146107275760405162461bcd60e51b815260040161071e90612c12565b60405180910390fd5b60005b815181101561076957610757600083838151811061074a5761074a612c7d565b602002602001015161161f565b8061076181612ca9565b91505061072a565b5050565b60006107798383611688565b9392505050565b61064b83838360405180602001604052806000815250610d07565b306001600160a01b0316633882ce8e6040518163ffffffff1660e01b8152600401602060405180830381865afa1580156107d9573d6000803e3d6000fd5b505050506040513d601f19601f820116820180604052508101906107fd9190612bf5565b6001600160a01b0316336001600160a01b03161461082d5760405162461bcd60e51b815260040161071e90612c12565b805182511461089c5760405162461bcd60e51b815260206004820152603560248201527f537465776172644c6963656e736546616365743a20746f20616e6420746f6b656044820152740dcaaa492e640d8cadccee8d040dad2e6dac2e8c6d605b1b606482015260840161071e565b60005b815181101561064b576108d78382815181106108bd576108bd612c7d565b602002602001015183838151811061074a5761074a612c7d565b806108e181612ca9565b91505061089f565b6000610571826116b7565b6000610571826116d1565b6000610571826116f2565b306001600160a01b0316633882ce8e6040518163ffffffff1660e01b8152600401602060405180830381865afa158015610948573d6000803e3d6000fd5b505050506040513d601f19601f8201168201806040525081019061096c9190612bf5565b6001600160a01b0316336001600160a01b031614610a005760405162461bcd60e51b8152602060048201526044602482018190527f537465776172644c6963656e736546616365743a206f6e6c7920696e69746961908201527f6c206269646465722063616e2061646420746f6b656e20746f20636f6c6c65636064820152633a34b7b760e11b608482015260a40161071e565b610769828261161f565b600061057182611736565b306001600160a01b0316633882ce8e6040518163ffffffff1660e01b8152600401602060405180830381865afa158015610a53573d6000803e3d6000fd5b505050506040513d601f19601f82011682018060405250810190610a779190612bf5565b6001600160a01b0316336001600160a01b031614610afd5760405162461bcd60e51b815260206004820152603760248201527f537465776172644c6963656e736546616365743a206f6e6c7920696e6974696160448201527f6c206269646465722063616e206d696e7420746f6b656e000000000000000000606482015260840161071e565b306001600160a01b031663be6a2a6d6040518163ffffffff1660e01b8152600401602060405180830381865afa158015610b3b573d6000803e3d6000fd5b505050506040513d601f19601f82011682018060405250810190610b5f9190612cc2565b4210610bd5576040805162461bcd60e51b81526020600482015260248101919091527f537465776172644c6963656e736546616365743a2063616e6e6f74206d696e7460448201527f20616674657220696e697469616c20706572696f642073746172742074696d65606482015260840161071e565b610bde816116b7565b15610c3d5760405162461bcd60e51b815260206004820152602960248201527f537465776172644c6963656e736546616365743a20546f6b656e20616c72656160448201526864792065786973747360b81b606482015260840161071e565b6107696000838361178d565b60606105816117a9565b336001600160a01b03831603610c7c5760405163424a22cb60e01b815260040160405180910390fd5b3360008181527f3c7bf052874fa81625121783266a03507bd2cd48b16e571c01a04e8dd3fb07aa602090815260408083206001600160a01b03871680855290835292819020805460ff191686151590811790915590519081529192917f17307eab39ab6107e8899845ad3d59bd9653f200f220920489ca2b5937696c31910160405180910390a35050565b610d113383611472565b610d2e57604051632f5de44f60e01b815260040160405180910390fd5b610d3a848484846117c8565b50505050565b6000600186148015610d525750600184145b8015610d77575084846000818110610d6c57610d6c612c7d565b905060200201356001145b610d935760405162461bcd60e51b815260040161071e90612cdb565b6000805160206131058339815191525460ff161515600114610dc75760405162461bcd60e51b815260040161071e90612d26565b7f4f3bc7155d2db681e29af52d1119e27d8b92f937da5bb676ae6155a2e77a3c6d546001600160a01b03163314610e105760405162461bcd60e51b815260040161071e90612d6a565b7f4f3bc7155d2db681e29af52d1119e27d8b92f937da5bb676ae6155a2e77a3c6e5487876000818110610e4557610e45612c7d565b9050602002013514610e695760405162461bcd60e51b815260040161071e90612dc1565b5063bc197c8160e01b98975050505050505050565b60006105816000805160206131458339815191525490565b60008181527f79ec1734da2430052e9d78936f451aad707e5bed12ef4806b06dc3d0c38f0e3360205260408120805460609260008051602061310583398151915292918290610ee490612e0c565b90501115610f7f57808054610ef890612e0c565b80601f0160208091040260200160405190810160405280929190818152602001828054610f2490612e0c565b8015610f715780601f10610f4657610100808354040283529160200191610f71565b820191906000526020600020905b815481529060010190602001808311610f5457829003601f168201915b505050505092505050919050565b610f88846117fc565b949350505050565b33301461101a5760405162461bcd60e51b815260206004820152604c60248201527f4e6174697665537465776172644c6963656e73653a205472696767657220747260448201527f616e736665722063616e206f6e6c792062652063616c6c65642066726f6d206160648201526b1b9bdd1a195c88199858d95d60a21b608482015260a40161071e565b61064b83838361178d565b306001600160a01b0316633882ce8e6040518163ffffffff1660e01b8152600401602060405180830381865afa158015611063573d6000803e3d6000fd5b505050506040513d601f19601f820116820180604052508101906110879190612bf5565b6001600160a01b0316336001600160a01b0316146110b75760405162461bcd60e51b815260040161071e90612c12565b60005b8263ffffffff168163ffffffff16101561064b576110d7826119dd565b806110e181612e46565b9150506110ba565b60006107798383611a56565b6000836001146111175760405162461bcd60e51b815260040161071e90612cdb565b6000805160206131058339815191525460ff16151560011461114b5760405162461bcd60e51b815260040161071e90612d26565b7f4f3bc7155d2db681e29af52d1119e27d8b92f937da5bb676ae6155a2e77a3c6d546001600160a01b031633146111945760405162461bcd60e51b815260040161071e90612d6a565b7f4f3bc7155d2db681e29af52d1119e27d8b92f937da5bb676ae6155a2e77a3c6e5485146111d45760405162461bcd60e51b815260040161071e90612dc1565b5063f23a6e6160e01b9695505050505050565b6000805160206131058339815191525460ff16156112545760405162461bcd60e51b815260206004820152603660248201526000805160206131858339815191526044820152751d0e88185b1c9958591e481a5b9a5d1a585b1a5e995960521b606482015260840161071e565b7f4f3bc7155d2db681e29af52d1119e27d8b92f937da5bb676ae6155a2e77a3c6d80546001600160a01b0319166001600160a01b038a161790557f4f3bc7155d2db681e29af52d1119e27d8b92f937da5bb676ae6155a2e77a3c6e8790556112c0868686868686611aa3565b5050505050505050565b606060008051602061316583398151915280546112e690612e0c565b80601f016020809104026020016040519081016040528092919081815260200182805461131290612e0c565b801561135f5780601f106113345761010080835404028352916020019161135f565b820191906000526020600020905b81548152906001019060200180831161134257829003601f168201915b5050505050905090565b6000611374826116b7565b6113915760405163c1b843ef60e01b815260040160405180910390fd5b5060009081527f3c7bf052874fa81625121783266a03507bd2cd48b16e571c01a04e8dd3fb07a960205260409020546001600160a01b031690565b60008181527f3c7bf052874fa81625121783266a03507bd2cd48b16e571c01a04e8dd3fb07a96020526040902080546001600160a01b0319166001600160a01b0384169081179091558190611420826116f2565b6001600160a01b03167f8c5be1e5ebec7d5bd14f71427d1e84f3dd0314c0f7b2291e5b200ac8c7c3b92560405160405180910390a45050565b6000610581600080516020613125833981519152611b83565b600061147d826116b7565b61149a5760405163c1b843ef60e01b815260040160405180910390fd5b60006114a5836116f2565b9050806001600160a01b0316846001600160a01b031614806114e05750836001600160a01b03166114d584611369565b6001600160a01b0316145b80610f885750610f888185611a56565b826001600160a01b0316611503826116f2565b6001600160a01b03161461152a57604051630f2db4ad60e01b815260040160405180910390fd5b6001600160a01b038216611551576040516340311a0960e01b815260040160405180910390fd5b61155c838383611b8d565b6115676000826113cc565b6001600160a01b03831660009081526000805160206130e583398151915260205260409020600080516020613125833981519152906115a69083611c82565b506001600160a01b038316600090815260028201602052604090206115cb9083611c8e565b506115d7818385611c9a565b5081836001600160a01b0316856001600160a01b03167fddf252ad1be2c89b69c2b068fc378daa952ba7f163c4a11628f55a4df523b3ef60405160405180910390a450505050565b600080516020613145833981519152805460008051602061310583398151915291600190600061164f8385612e69565b90915550506000818152600383016020526040902061166e8482612eca565b506001600160a01b03841615610d3a57610d3a8482611cb0565b6001600160a01b03821660009081526000805160206130e5833981519152602052604081206107799083611d93565b600061057160008051602061312583398151915283611d9f565b60006116eb60008051602061312583398151915283611db7565b5092915050565b60008061170d60008051602061312583398151915284611dd5565b90506001600160a01b03811661057157604051637e1a7d8b60e01b815260040160405180910390fd5b60006001600160a01b03821661175f57604051630810ff9760e41b815260040160405180910390fd5b6001600160a01b03821660009081526000805160206130e58339815191526020526040902061057190611b83565b611796816116b7565b15156000036106815761064b8282611cb0565b606060008051602061316583398151915260010180546112e690612e0c565b6117d38484846114f0565b6117df84848484611de1565b610d3a57604051639ff10cdd60e01b815260040160405180910390fd5b6060611807826116b7565b61182357604051624705a760e71b815260040160405180910390fd5b60008281527f99574a7094154bb123ae6ae102096f0bf9679b85a5cd1e727aaa0ae5f132e6b460205260408120805460008051602061316583398151915292919061186d90612e0c565b80601f016020809104026020016040519081016040528092919081815260200182805461189990612e0c565b80156118e65780601f106118bb576101008083540402835291602001916118e6565b820191906000526020600020905b8154815290600101906020018083116118c957829003601f168201915b5050505050905060008260020180546118fe90612e0c565b80601f016020809104026020016040519081016040528092919081815260200182805461192a90612e0c565b80156119775780601f1061194c57610100808354040283529160200191611977565b820191906000526020600020905b81548152906001019060200180831161195a57829003601f168201915b50505050509050805160000361198f57509392505050565b8151156119c25780826040516020016119a9929190612f89565b6040516020818303038152906040529350505050919050565b806119cc86611eb2565b6040516020016119a9929190612f89565b6000805160206131458339815191528054600080516020613105833981519152916001906000611a0d8385612e69565b90915550839050611a1d82611eb2565b604051602001611a2e929190612f89565b60408051601f198184030181529181526000838152600385016020522090610d3a9082612eca565b6001600160a01b0391821660009081527f3c7bf052874fa81625121783266a03507bd2cd48b16e571c01a04e8dd3fb07aa6020908152604080832093909416825291909152205460ff1690565b60008051602061310583398151915280546001600160a01b03878116610100026001600160a81b03199092169190911760011782557f79ec1734da2430052e9d78936f451aad707e5bed12ef4806b06dc3d0c38f0e3180549189166001600160a01b03199092169190911790556000805160206131458339815191528590556000600080516020613165833981519152905080611b408682612eca565b5060018101611b4f8582612eca565b5060028101611b5e8482612eca565b50611b716301ffc9a760e01b6001611fb2565b6112c06380ac58cd60e01b6001611fb2565b6000610571825490565b6001600160a01b03831615611c775760405163a7c12c1160e01b815260048101829052600090309063a7c12c1190602401602060405180830381865afa158015611bdb573d6000803e3d6000fd5b505050506040513d601f19601f82011682018060405250810190611bff9190612fb8565b90508015611c755760405162461bcd60e51b815260206004820152603a60248201527f537465776172644c6963656e736546616365743a2043616e6e6f74207472616e60448201527f7366657220647572696e672061756374696f6e20706572696f64000000000000606482015260840161071e565b505b61064b838383612028565b60006107798383612033565b600061077983836120ed565b6000610f8884846001600160a01b038516612130565b6001600160a01b038216611cd7576040516311f2988d60e11b815260040160405180910390fd5b611ce0816116b7565b15611cfe57604051630d86bb7b60e31b815260040160405180910390fd5b611d0a60008383611b8d565b6001600160a01b03821660009081526000805160206130e58339815191526020526040902060008051602061312583398151915290611d499083611c8e565b50611d55818385611c9a565b5060405182906001600160a01b038516906000907fddf252ad1be2c89b69c2b068fc378daa952ba7f163c4a11628f55a4df523b3ef908290a4505050565b600061077983836121cf565b60008181526001830160205260408120541515610779565b6000808080611dc6868661221b565b909450925050505b9250929050565b6000610779838361227e565b60006001600160a01b0384163b611dfa57506001610f88565b6000611e7b63150b7a0260e01b33888787604051602401611e1e9493929190612fd5565b604051602081830303815290604052906001600160e01b0319166020820180516001600160e01b0383818316178352505050506040518060600160405280603281526020016130b3603291396001600160a01b03881691906122e2565b9050600081806020019051810190611e939190613012565b6001600160e01b031916630a85bd0160e11b1492505050949350505050565b606081600003611ed95750506040805180820190915260018152600360fc1b602082015290565b8160005b8115611f035780611eed81612ca9565b9150611efc9050600a83613045565b9150611edd565b6000816001600160401b03811115611f1d57611f1d612589565b6040519080825280601f01601f191660200182016040528015611f47576020820181803683370190505b5090505b8415610f8857611f5c600183613059565b9150611f69600a8661306c565b611f74906030612e69565b60f81b818381518110611f8957611f89612c7d565b60200101906001600160f81b031916908160001a905350611fab600a86613045565b9450611f4b565b6001600160e01b03198083169003611fdd5760405163b0a19dd560e01b815260040160405180910390fd5b6001600160e01b03199190911660009081527ffc606c433378e3a7e0a6a531deac289b66caa1b4aa8554fd4ab2c6f1570f92d860205260409020805460ff1916911515919091179055565b61064b8383836122f1565b600081815260018301602052604081205480156116eb5783546000908590600019810190811061206557612065612c7d565b906000526020600020015490508085600001600184038154811061208b5761208b612c7d565b60009182526020808320909101929092559182526001860190526040902081905583548490806120bd576120bd613080565b60008281526020808220830160001990810183905590920190925593815260019485019093525050604081205590565b6000818152600183016020526040812054610571575081546001808201845560008481526020808220909301849055845493815293810190915260409092205590565b6000828152600184016020526040812054808203612197575050604080518082018252838152602080820184815286546001818101895560008981528481209551600290930290950191825591519082015586548684528188019092529290912055610779565b828560000160018303815481106121b0576121b0612c7d565b9060005260206000209060020201600101819055506000915050610779565b815460009082106121f35760405163e637bf3b60e01b815260040160405180910390fd5b82600001828154811061220857612208612c7d565b9060005260206000200154905092915050565b8154600090819083106122415760405163022fd82760e31b815260040160405180910390fd5b600084600001848154811061225857612258612c7d565b906000526020600020906002020190508060000154816001015492509250509250929050565b60008181526001830160205260408120548082036122af57604051633d547ec560e21b815260040160405180910390fd5b8360000160018203815481106122c7576122c7612c7d565b90600052602060002090600202016001015491505092915050565b6060610f888484600085612335565b6001600160a01b03821661064b5760008181527f99574a7094154bb123ae6ae102096f0bf9679b85a5cd1e727aaa0ae5f132e6b46020526040812061064b916123f2565b6060843b61235657604051632270d6bf60e21b815260040160405180910390fd5b600080866001600160a01b031685876040516123729190613096565b60006040518083038185875af1925050503d80600081146123af576040519150601f19603f3d011682016040523d82523d6000602084013e6123b4565b606091505b509150915081156123c8579150610f889050565b8051156123d85780518082602001fd5b8360405162461bcd60e51b815260040161071e91906124cb565b5080546123fe90612e0c565b6000825580601f1061240e575050565b601f01602090049060005260206000209081019061242c919061242f565b50565b5b808211156124445760008155600101612430565b5090565b6001600160e01b03198116811461242c57600080fd5b60006020828403121561247057600080fd5b813561077981612448565b60005b8381101561249657818101518382015260200161247e565b50506000910152565b600081518084526124b781602086016020860161247b565b601f01601f19169290920160200192915050565b602081526000610779602083018461249f565b6000602082840312156124f057600080fd5b5035919050565b6001600160a01b038116811461242c57600080fd5b8035612517816124f7565b919050565b6000806040838503121561252f57600080fd5b823561253a816124f7565b946020939093013593505050565b60008060006060848603121561255d57600080fd5b8335612568816124f7565b92506020840135612578816124f7565b929592945050506040919091013590565b634e487b7160e01b600052604160045260246000fd5b604051601f8201601f191681016001600160401b03811182821017156125c7576125c7612589565b604052919050565b60006001600160401b038211156125e8576125e8612589565b5060051b60200190565b60006001600160401b0383111561260b5761260b612589565b61261e601f8401601f191660200161259f565b905082815283838301111561263257600080fd5b828260208301376000602084830101529392505050565b600082601f83011261265a57600080fd5b610779838335602085016125f2565b600082601f83011261267a57600080fd5b8135602061268f61268a836125cf565b61259f565b82815260059290921b840181019181810190868411156126ae57600080fd5b8286015b848110156126ed5780356001600160401b038111156126d15760008081fd5b6126df8986838b0101612649565b8452509183019183016126b2565b509695505050505050565b60006020828403121561270a57600080fd5b81356001600160401b0381111561272057600080fd5b610f8884828501612669565b6000806040838503121561273f57600080fd5b82356001600160401b038082111561275657600080fd5b818501915085601f83011261276a57600080fd5b8135602061277a61268a836125cf565b82815260059290921b8401810191818101908984111561279957600080fd5b948201945b838610156127c05785356127b1816124f7565b8252948201949082019061279e565b965050860135925050808211156127d657600080fd5b506127e385828601612669565b9150509250929050565b6000806040838503121561280057600080fd5b823561280b816124f7565b915060208301356001600160401b0381111561282657600080fd5b6127e385828601612649565b60006020828403121561284457600080fd5b8135610779816124f7565b801515811461242c57600080fd5b6000806040838503121561287057600080fd5b823561287b816124f7565b9150602083013561288b8161284f565b809150509250929050565b600080600080608085870312156128ac57600080fd5b84356128b7816124f7565b935060208501356128c7816124f7565b92506040850135915060608501356001600160401b038111156128e957600080fd5b8501601f810187136128fa57600080fd5b612909878235602084016125f2565b91505092959194509250565b60008083601f84011261292757600080fd5b5081356001600160401b0381111561293e57600080fd5b6020830191508360208260051b8501011115611dce57600080fd5b60008083601f84011261296b57600080fd5b5081356001600160401b0381111561298257600080fd5b602083019150836020828501011115611dce57600080fd5b60008060008060008060008060a0898b0312156129b657600080fd5b88356129c1816124f7565b975060208901356129d1816124f7565b965060408901356001600160401b03808211156129ed57600080fd5b6129f98c838d01612915565b909850965060608b0135915080821115612a1257600080fd5b612a1e8c838d01612915565b909650945060808b0135915080821115612a3757600080fd5b50612a448b828c01612959565b999c989b5096995094979396929594505050565b60008060408385031215612a6b57600080fd5b823563ffffffff8116811461280b57600080fd5b60008060408385031215612a9257600080fd5b8235612a9d816124f7565b9150602083013561288b816124f7565b60008060008060008060a08789031215612ac657600080fd5b8635612ad1816124f7565b95506020870135612ae1816124f7565b9450604087013593506060870135925060808701356001600160401b03811115612b0a57600080fd5b612b1689828a01612959565b979a9699509497509295939492505050565b600080600080600080600080610100898b031215612b4557600080fd5b612b4e8961250c565b975060208901359650612b6360408a0161250c565b9550612b7160608a0161250c565b94506080890135935060a08901356001600160401b0380821115612b9457600080fd5b612ba08c838d01612649565b945060c08b0135915080821115612bb657600080fd5b612bc28c838d01612649565b935060e08b0135915080821115612bd857600080fd5b50612be58b828c01612649565b9150509295985092959890939650565b600060208284031215612c0757600080fd5b8151610779816124f7565b60208082526045908201527f537465776172644c6963656e736546616365743a206f6e6c7920696e6974696160408201527f6c206269646465722063616e2061646420746f6b656e7320746f20636f6c6c6560608201526431ba34b7b760d91b608082015260a00190565b634e487b7160e01b600052603260045260246000fd5b634e487b7160e01b600052601160045260246000fd5b600060018201612cbb57612cbb612c93565b5060010190565b600060208284031215612cd457600080fd5b5051919050565b6020808252603d9082015260008051602061318583398151915260408201527f743a2063616e206f6e6c792072656365697665206f6e6520746f6b656e000000606082015260800190565b60208082526036908201526000805160206131858339815191526040820152751d0e881b5d5cdd081899481a5b9a5d1a585b1a5e995960521b606082015260800190565b602080825260439082015260008051602061318583398151915260408201527f743a2063616e6e6f7420616363657074207468697320746f6b656e206164647260608201526265737360e81b608082015260a00190565b6020808252603e9082015260008051602061318583398151915260408201527f743a2063616e6e6f7420616363657074207468697320746f6b656e2049440000606082015260800190565b600181811c90821680612e2057607f821691505b602082108103612e4057634e487b7160e01b600052602260045260246000fd5b50919050565b600063ffffffff808316818103612e5f57612e5f612c93565b6001019392505050565b8082018082111561057157610571612c93565b601f82111561064b57600081815260208120601f850160051c81016020861015612ea35750805b601f850160051c820191505b81811015612ec257828155600101612eaf565b505050505050565b81516001600160401b03811115612ee357612ee3612589565b612ef781612ef18454612e0c565b84612e7c565b602080601f831160018114612f2c5760008415612f145750858301515b600019600386901b1c1916600185901b178555612ec2565b600085815260208120601f198616915b82811015612f5b57888601518255948401946001909101908401612f3c565b5085821015612f795787850151600019600388901b60f8161c191681555b5050505050600190811b01905550565b60008351612f9b81846020880161247b565b835190830190612faf81836020880161247b565b01949350505050565b600060208284031215612fca57600080fd5b81516107798161284f565b6001600160a01b03858116825284166020820152604081018390526080606082018190526000906130089083018461249f565b9695505050505050565b60006020828403121561302457600080fd5b815161077981612448565b634e487b7160e01b600052601260045260246000fd5b6000826130545761305461302f565b500490565b8181038181111561057157610571612c93565b60008261307b5761307b61302f565b500690565b634e487b7160e01b600052603160045260246000fd5b600082516130a881846020870161247b565b919091019291505056fe4552433732313a207472616e7366657220746f206e6f6e20455243373231526563656976657220696d706c656d656e7465723c7bf052874fa81625121783266a03507bd2cd48b16e571c01a04e8dd3fb07a879ec1734da2430052e9d78936f451aad707e5bed12ef4806b06dc3d0c38f0e303c7bf052874fa81625121783266a03507bd2cd48b16e571c01a04e8dd3fb07a679ec1734da2430052e9d78936f451aad707e5bed12ef4806b06dc3d0c38f0e3299574a7094154bb123ae6ae102096f0bf9679b85a5cd1e727aaa0ae5f132e6b15772617070656445524331313535537465776172644c6963656e736546616365a2646970667358221220da5b070e4ad48c545dfdc85eee409a731b7d0c643f6ba8a73ee0cc8e96a54d8264736f6c63430008110033",
  "devdoc": {
    "details": "ERC-721 token license for Steward that wraps existing ERC-1155. Transfers are disabled during an auction.",
    "kind": "dev",
    "methods": {
      "approve(address,uint256)": {
        "params": {
          "operator": "address to be approved",
          "tokenId": "token to approve"
        }
      },
      "balanceOf(address)": {
        "returns": {
          "_0": "quantity of tokens held"
        }
      },
      "getApproved(uint256)": {
        "params": {
          "tokenId": "token to query"
        },
        "returns": {
          "_0": "address approved to spend token"
        }
      },
      "isApprovedForAll(address,address)": {
        "params": {
          "account": "address to query for approval granted",
          "operator": "address to query for approval received"
        },
        "returns": {
          "_0": "whether operator is approved to spend tokens held by account"
        }
      },
      "ownerOf(uint256)": {
        "params": {
          "tokenId": "token to query"
        },
        "returns": {
          "_0": "token owner"
        }
      },
      "safeTransferFrom(address,address,uint256)": {
        "params": {
          "from": "sender of token",
          "to": "receiver of token",
          "tokenId": "token id"
        }
      },
      "safeTransferFrom(address,address,uint256,bytes)": {
        "params": {
          "data": "data payload",
          "from": "sender of token",
          "to": "receiver of token",
          "tokenId": "token id"
        }
      },
      "setApprovalForAll(address,bool)": {
        "params": {
          "operator": "address to be approved",
          "status": "approval status"
        }
      },
      "supportsInterface(bytes4)": {
        "params": {
          "interfaceId": "interface id"
        },
        "returns": {
          "_0": "bool whether interface is supported"
        }
      },
      "tokenByIndex(uint256)": {
        "params": {
          "index": "position in global token list to query"
        },
        "returns": {
          "_0": "id of retrieved token"
        }
      },
      "tokenOfOwnerByIndex(address,uint256)": {
        "params": {
          "index": "position in owner's token list to query",
          "owner": "token holder to query"
        },
        "returns": {
          "_0": "id of retrieved token"
        }
      },
      "totalSupply()": {
        "returns": {
          "_0": "total supply"
        }
      },
      "transferFrom(address,address,uint256)": {
        "params": {
          "from": "sender of token",
          "to": "receiver of token",
          "tokenId": "token id"
        }
      }
    },
    "title": "WrappedERC1155StewardLicenseFacet",
    "version": 1
  },
  "userdoc": {
    "kind": "user",
    "methods": {
      "addTokenToCollection(address,string)": {
        "notice": "Add token to collection"
      },
      "addTokensToCollection(address[],string[])": {
        "notice": "Add tokens to collection with to"
      },
      "addTokensToCollection(string[])": {
        "notice": "Add tokens to collection"
      },
      "addTokensWithBaseURIToCollection(uint32,string)": {
        "notice": "Add tokens to collection with baseURI"
      },
      "approve(address,uint256)": {
        "notice": "grant approval to given account to spend token"
      },
      "balanceOf(address)": {
        "notice": "query the balance of given address"
      },
      "exists(uint256)": {
        "notice": "Check if token exists"
      },
      "getApproved(uint256)": {
        "notice": "get approval status for given token"
      },
      "initializeWrappedStewardLicense(address,uint256,address,address,uint256,string,string,string)": {
        "notice": "Initialize license"
      },
      "isApprovedForAll(address,address)": {
        "notice": "query approval status of given operator with respect to given address"
      },
      "maxTokenCount()": {
        "notice": "Get max token count"
      },
      "mintToken(address,uint256)": {
        "notice": "Initial bidder can mint token if it doesn't exist"
      },
      "minter()": {
        "notice": "Get minter"
      },
      "name()": {
        "notice": "inheritdoc IERC721Metadata"
      },
      "ownerOf(uint256)": {
        "notice": "query the owner of given token"
      },
      "safeTransferFrom(address,address,uint256)": {
        "notice": "transfer token between given addresses, checking for ERC721Receiver implementation if applicable"
      },
      "safeTransferFrom(address,address,uint256,bytes)": {
        "notice": "transfer token between given addresses, checking for ERC721Receiver implementation if applicable"
      },
      "setApprovalForAll(address,bool)": {
        "notice": "grant approval to or revoke approval from given account to spend all tokens held by sender"
      },
      "supportsInterface(bytes4)": {
        "notice": "query whether contract has registered support for given interface"
      },
      "symbol()": {
        "notice": "inheritdoc IERC721Metadata"
      },
      "tokenByIndex(uint256)": {
        "notice": "get token at given internal storage index"
      },
      "tokenOfOwnerByIndex(address,uint256)": {
        "notice": "get token of given owner at given internal storage index"
      },
      "tokenURI(uint256)": {
        "notice": "Override token URI"
      },
      "totalSupply()": {
        "notice": "get total token supply"
      },
      "transferFrom(address,address,uint256)": {
        "notice": "transfer token between given addresses, without checking for ERC721Receiver implementation if applicable"
      },
      "triggerTransfer(address,address,uint256)": {
        "notice": "Trigger transfer of license"
      }
    },
    "version": 1
  },
  "storageLayout": {
    "storage": [],
    "types": null
  }
}