{
  "address": "0x3A9ff9c506318607E7960fE85dE35f5033EDf175",
  "abi": [
    {
      "inputs": [],
      "name": "AddressUtils__NotContract",
      "type": "error"
    },
    {
      "inputs": [],
      "name": "ERC165Base__InvalidInterfaceId",
      "type": "error"
    },
    {
      "inputs": [],
      "name": "ERC721Base__BalanceQueryZeroAddress",
      "type": "error"
    },
    {
      "inputs": [],
      "name": "ERC721Base__ERC721ReceiverNotImplemented",
      "type": "error"
    },
    {
      "inputs": [],
      "name": "ERC721Base__InvalidOwner",
      "type": "error"
    },
    {
      "inputs": [],
      "name": "ERC721Base__MintToZeroAddress",
      "type": "error"
    },
    {
      "inputs": [],
      "name": "ERC721Base__NonExistentToken",
      "type": "error"
    },
    {
      "inputs": [],
      "name": "ERC721Base__NotOwnerOrApproved",
      "type": "error"
    },
    {
      "inputs": [],
      "name": "ERC721Base__NotTokenOwner",
      "type": "error"
    },
    {
      "inputs": [],
      "name": "ERC721Base__SelfApproval",
      "type": "error"
    },
    {
      "inputs": [],
      "name": "ERC721Base__TokenAlreadyMinted",
      "type": "error"
    },
    {
      "inputs": [],
      "name": "ERC721Base__TransferToZeroAddress",
      "type": "error"
    },
    {
      "inputs": [],
      "name": "ERC721Metadata__NonExistentToken",
      "type": "error"
    },
    {
      "inputs": [],
      "name": "EnumerableMap__IndexOutOfBounds",
      "type": "error"
    },
    {
      "inputs": [],
      "name": "EnumerableMap__NonExistentKey",
      "type": "error"
    },
    {
      "inputs": [],
      "name": "EnumerableSet__IndexOutOfBounds",
      "type": "error"
    },
    {
      "inputs": [],
      "name": "UintUtils__InsufficientHexLength",
      "type": "error"
    },
    {
      "anonymous": false,
      "inputs": [
        {
          "indexed": true,
          "internalType": "address",
          "name": "owner",
          "type": "address"
        },
        {
          "indexed": true,
          "internalType": "address",
          "name": "operator",
          "type": "address"
        },
        {
          "indexed": true,
          "internalType": "uint256",
          "name": "tokenId",
          "type": "uint256"
        }
      ],
      "name": "Approval",
      "type": "event"
    },
    {
      "anonymous": false,
      "inputs": [
        {
          "indexed": true,
          "internalType": "address",
          "name": "owner",
          "type": "address"
        },
        {
          "indexed": true,
          "internalType": "address",
          "name": "operator",
          "type": "address"
        },
        {
          "indexed": false,
          "internalType": "bool",
          "name": "approved",
          "type": "bool"
        }
      ],
      "name": "ApprovalForAll",
      "type": "event"
    },
    {
      "anonymous": false,
      "inputs": [
        {
          "indexed": true,
          "internalType": "bytes32",
          "name": "role",
          "type": "bytes32"
        },
        {
          "indexed": true,
          "internalType": "bytes32",
          "name": "previousAdminRole",
          "type": "bytes32"
        },
        {
          "indexed": true,
          "internalType": "bytes32",
          "name": "newAdminRole",
          "type": "bytes32"
        }
      ],
      "name": "RoleAdminChanged",
      "type": "event"
    },
    {
      "anonymous": false,
      "inputs": [
        {
          "indexed": true,
          "internalType": "bytes32",
          "name": "role",
          "type": "bytes32"
        },
        {
          "indexed": true,
          "internalType": "address",
          "name": "account",
          "type": "address"
        },
        {
          "indexed": true,
          "internalType": "address",
          "name": "sender",
          "type": "address"
        }
      ],
      "name": "RoleGranted",
      "type": "event"
    },
    {
      "anonymous": false,
      "inputs": [
        {
          "indexed": true,
          "internalType": "bytes32",
          "name": "role",
          "type": "bytes32"
        },
        {
          "indexed": true,
          "internalType": "address",
          "name": "account",
          "type": "address"
        },
        {
          "indexed": true,
          "internalType": "address",
          "name": "sender",
          "type": "address"
        }
      ],
      "name": "RoleRevoked",
      "type": "event"
    },
    {
      "anonymous": false,
      "inputs": [
        {
          "indexed": true,
          "internalType": "address",
          "name": "from",
          "type": "address"
        },
        {
          "indexed": true,
          "internalType": "address",
          "name": "to",
          "type": "address"
        },
        {
          "indexed": true,
          "internalType": "uint256",
          "name": "tokenId",
          "type": "uint256"
        }
      ],
      "name": "Transfer",
      "type": "event"
    },
    {
      "inputs": [
        {
          "internalType": "address",
          "name": "to",
          "type": "address"
        },
        {
          "internalType": "string",
          "name": "tokenURI",
          "type": "string"
        }
      ],
      "name": "addTokenToCollection",
      "outputs": [],
      "stateMutability": "nonpayable",
      "type": "function"
    },
    {
      "inputs": [
        {
          "internalType": "string[]",
          "name": "tokenURIs",
          "type": "string[]"
        },
        {
          "internalType": "bool",
          "name": "shouldMint",
          "type": "bool"
        }
      ],
      "name": "addTokensToCollection",
      "outputs": [],
      "stateMutability": "nonpayable",
      "type": "function"
    },
    {
      "inputs": [
        {
          "internalType": "address[]",
          "name": "to",
          "type": "address[]"
        },
        {
          "internalType": "string[]",
          "name": "tokenURIs",
          "type": "string[]"
        }
      ],
      "name": "addTokensToCollection",
      "outputs": [],
      "stateMutability": "nonpayable",
      "type": "function"
    },
    {
      "inputs": [
        {
          "internalType": "uint32",
          "name": "amount",
          "type": "uint32"
        },
        {
          "internalType": "string",
          "name": "baseURI",
          "type": "string"
        },
        {
          "internalType": "bool",
          "name": "shouldMint",
          "type": "bool"
        }
      ],
      "name": "addTokensWithBaseURIToCollection",
      "outputs": [],
      "stateMutability": "nonpayable",
      "type": "function"
    },
    {
      "inputs": [
        {
          "internalType": "address",
          "name": "operator",
          "type": "address"
        },
        {
          "internalType": "uint256",
          "name": "tokenId",
          "type": "uint256"
        }
      ],
      "name": "approve",
      "outputs": [],
      "stateMutability": "payable",
      "type": "function"
    },
    {
      "inputs": [
        {
          "internalType": "address",
          "name": "account",
          "type": "address"
        }
      ],
      "name": "balanceOf",
      "outputs": [
        {
          "internalType": "uint256",
          "name": "",
          "type": "uint256"
        }
      ],
      "stateMutability": "view",
      "type": "function"
    },
    {
      "inputs": [
        {
          "internalType": "uint256",
          "name": "tokenId",
          "type": "uint256"
        }
      ],
      "name": "exists",
      "outputs": [
        {
          "internalType": "bool",
          "name": "",
          "type": "bool"
        }
      ],
      "stateMutability": "view",
      "type": "function"
    },
    {
      "inputs": [
        {
          "internalType": "uint256",
          "name": "tokenId",
          "type": "uint256"
        }
      ],
      "name": "getApproved",
      "outputs": [
        {
          "internalType": "address",
          "name": "",
          "type": "address"
        }
      ],
      "stateMutability": "view",
      "type": "function"
    },
    {
      "inputs": [
        {
          "internalType": "address",
          "name": "tokenAddress",
          "type": "address"
        },
        {
          "internalType": "uint256",
          "name": "tokenId",
          "type": "uint256"
        },
        {
          "internalType": "address",
          "name": "_minter",
          "type": "address"
        },
        {
          "internalType": "address",
          "name": "_steward",
          "type": "address"
        },
        {
          "internalType": "uint256",
          "name": "_maxTokenCount",
          "type": "uint256"
        },
        {
          "internalType": "bool",
          "name": "shouldMint",
          "type": "bool"
        },
        {
          "internalType": "string",
          "name": "name",
          "type": "string"
        },
        {
          "internalType": "string",
          "name": "symbol",
          "type": "string"
        },
        {
          "internalType": "string",
          "name": "tokenURI",
          "type": "string"
        }
      ],
      "name": "initializeWrappedStewardLicense",
      "outputs": [],
      "stateMutability": "nonpayable",
      "type": "function"
    },
    {
      "inputs": [
        {
          "internalType": "address",
          "name": "account",
          "type": "address"
        },
        {
          "internalType": "address",
          "name": "operator",
          "type": "address"
        }
      ],
      "name": "isApprovedForAll",
      "outputs": [
        {
          "internalType": "bool",
          "name": "",
          "type": "bool"
        }
      ],
      "stateMutability": "view",
      "type": "function"
    },
    {
      "inputs": [],
      "name": "maxTokenCount",
      "outputs": [
        {
          "internalType": "uint256",
          "name": "",
          "type": "uint256"
        }
      ],
      "stateMutability": "view",
      "type": "function"
    },
    {
      "inputs": [
        {
          "internalType": "address",
          "name": "to",
          "type": "address"
        },
        {
          "internalType": "uint256",
          "name": "tokenId",
          "type": "uint256"
        }
      ],
      "name": "mintToken",
      "outputs": [],
      "stateMutability": "nonpayable",
      "type": "function"
    },
    {
      "inputs": [],
      "name": "minter",
      "outputs": [
        {
          "internalType": "address",
          "name": "",
          "type": "address"
        }
      ],
      "stateMutability": "view",
      "type": "function"
    },
    {
      "inputs": [],
      "name": "name",
      "outputs": [
        {
          "internalType": "string",
          "name": "",
          "type": "string"
        }
      ],
      "stateMutability": "view",
      "type": "function"
    },
    {
      "inputs": [
        {
          "internalType": "address",
          "name": "",
          "type": "address"
        },
        {
          "internalType": "address",
          "name": "",
          "type": "address"
        },
        {
          "internalType": "uint256",
          "name": "tokenId",
          "type": "uint256"
        },
        {
          "internalType": "bytes",
          "name": "",
          "type": "bytes"
        }
      ],
      "name": "onERC721Received",
      "outputs": [
        {
          "internalType": "bytes4",
          "name": "",
          "type": "bytes4"
        }
      ],
      "stateMutability": "view",
      "type": "function"
    },
    {
      "inputs": [
        {
          "internalType": "uint256",
          "name": "tokenId",
          "type": "uint256"
        }
      ],
      "name": "ownerOf",
      "outputs": [
        {
          "internalType": "address",
          "name": "",
          "type": "address"
        }
      ],
      "stateMutability": "view",
      "type": "function"
    },
    {
      "inputs": [
        {
          "internalType": "address",
          "name": "from",
          "type": "address"
        },
        {
          "internalType": "address",
          "name": "to",
          "type": "address"
        },
        {
          "internalType": "uint256",
          "name": "tokenId",
          "type": "uint256"
        }
      ],
      "name": "safeTransferFrom",
      "outputs": [],
      "stateMutability": "payable",
      "type": "function"
    },
    {
      "inputs": [
        {
          "internalType": "address",
          "name": "from",
          "type": "address"
        },
        {
          "internalType": "address",
          "name": "to",
          "type": "address"
        },
        {
          "internalType": "uint256",
          "name": "tokenId",
          "type": "uint256"
        },
        {
          "internalType": "bytes",
          "name": "data",
          "type": "bytes"
        }
      ],
      "name": "safeTransferFrom",
      "outputs": [],
      "stateMutability": "payable",
      "type": "function"
    },
    {
      "inputs": [
        {
          "internalType": "address",
          "name": "operator",
          "type": "address"
        },
        {
          "internalType": "bool",
          "name": "status",
          "type": "bool"
        }
      ],
      "name": "setApprovalForAll",
      "outputs": [],
      "stateMutability": "nonpayable",
      "type": "function"
    },
    {
      "inputs": [
        {
          "internalType": "bytes4",
          "name": "interfaceId",
          "type": "bytes4"
        }
      ],
      "name": "supportsInterface",
      "outputs": [
        {
          "internalType": "bool",
          "name": "",
          "type": "bool"
        }
      ],
      "stateMutability": "view",
      "type": "function"
    },
    {
      "inputs": [],
      "name": "symbol",
      "outputs": [
        {
          "internalType": "string",
          "name": "",
          "type": "string"
        }
      ],
      "stateMutability": "view",
      "type": "function"
    },
    {
      "inputs": [
        {
          "internalType": "uint256",
          "name": "index",
          "type": "uint256"
        }
      ],
      "name": "tokenByIndex",
      "outputs": [
        {
          "internalType": "uint256",
          "name": "",
          "type": "uint256"
        }
      ],
      "stateMutability": "view",
      "type": "function"
    },
    {
      "inputs": [
        {
          "internalType": "address",
          "name": "owner",
          "type": "address"
        },
        {
          "internalType": "uint256",
          "name": "index",
          "type": "uint256"
        }
      ],
      "name": "tokenOfOwnerByIndex",
      "outputs": [
        {
          "internalType": "uint256",
          "name": "",
          "type": "uint256"
        }
      ],
      "stateMutability": "view",
      "type": "function"
    },
    {
      "inputs": [
        {
          "internalType": "uint256",
          "name": "tokenId",
          "type": "uint256"
        }
      ],
      "name": "tokenURI",
      "outputs": [
        {
          "internalType": "string",
          "name": "",
          "type": "string"
        }
      ],
      "stateMutability": "view",
      "type": "function"
    },
    {
      "inputs": [],
      "name": "totalSupply",
      "outputs": [
        {
          "internalType": "uint256",
          "name": "",
          "type": "uint256"
        }
      ],
      "stateMutability": "view",
      "type": "function"
    },
    {
      "inputs": [
        {
          "internalType": "address",
          "name": "from",
          "type": "address"
        },
        {
          "internalType": "address",
          "name": "to",
          "type": "address"
        },
        {
          "internalType": "uint256",
          "name": "tokenId",
          "type": "uint256"
        }
      ],
      "name": "transferFrom",
      "outputs": [],
      "stateMutability": "payable",
      "type": "function"
    },
    {
      "inputs": [
        {
          "internalType": "address",
          "name": "from",
          "type": "address"
        },
        {
          "internalType": "address",
          "name": "to",
          "type": "address"
        },
        {
          "internalType": "uint256",
          "name": "tokenId",
          "type": "uint256"
        }
      ],
      "name": "triggerTransfer",
      "outputs": [],
      "stateMutability": "nonpayable",
      "type": "function"
    }
  ],
  "transactionHash": "0xa3ddfb792fb933cf5d4eec239d4ab659615ec7b001bcfa90752a6b9354e2886d",
  "args": [],
  "numDeployments": 6,
  "solcInputHash": "fbf07fab64b6bb94fa5c2c9db3357e1b",
  "bytecode": "0x608060405234801561001057600080fd5b50612fd1806100206000396000f3fe60806040526004361061019c5760003560e01c80634f6ccce7116100ec578063b3cd1d9c1161008a578063c87b56dd11610064578063c87b56dd14610479578063d111122f14610499578063e31a7c01146104b9578063e985e9c5146104d957600080fd5b8063b3cd1d9c14610431578063b88d4fde14610451578063c4e627c21461046457600080fd5b806370a08231116100c657806370a08231146103bc57806379c65068146103dc57806395d89b41146103fc578063a22cb4651461041157600080fd5b80634f6ccce71461035c5780636352211e1461037c5780636a2e019f1461039c57600080fd5b806318160ddd116101595780632f745c59116101335780632f745c59146102e957806342842e0e146103095780634a7c554f1461031c5780634f558e791461033c57600080fd5b806318160ddd146102935780632107ddfe146102b657806323b872dd146102d657600080fd5b806301ffc9a7146101a157806306fdde03146101d657806307546172146101f8578063081812fc14610225578063095ea7b314610245578063150b7a021461025a575b600080fd5b3480156101ad57600080fd5b506101c16101bc3660046123f2565b6104f9565b60405190151581526020015b60405180910390f35b3480156101e257600080fd5b506101eb61053c565b6040516101cd919061245f565b34801561020457600080fd5b5061020d61054b565b6040516001600160a01b0390911681526020016101cd565b34801561023157600080fd5b5061020d610240366004612472565b61057e565b6102586102533660046124b0565b610589565b005b34801561026657600080fd5b5061027a6102753660046124dc565b610615565b6040516001600160e01b031990911681526020016101cd565b34801561029f57600080fd5b506102a86107c0565b6040519081526020016101cd565b3480156102c257600080fd5b506102586102d1366004612702565b6107ca565b6102586102e4366004612753565b61085b565b3480156102f557600080fd5b506102a86103043660046124b0565b61088d565b610258610317366004612753565b6108a0565b34801561032857600080fd5b50610258610337366004612794565b6108bb565b34801561034857600080fd5b506101c1610357366004612472565b61098f565b34801561036857600080fd5b506102a8610377366004612472565b61099a565b34801561038857600080fd5b5061020d610397366004612472565b6109a5565b3480156103a857600080fd5b506102586103b7366004612855565b6109b0565b3480156103c857600080fd5b506102a86103d736600461289a565b6109d2565b3480156103e857600080fd5b506102586103f73660046124b0565b6109dd565b34801561040857600080fd5b506101eb610c15565b34801561041d57600080fd5b5061025861042c3660046128b7565b610c1f565b34801561043d57600080fd5b5061025861044c3660046128e5565b610cd3565b61025861045f3660046129c3565b610db7565b34801561047057600080fd5b506102a8610dea565b34801561048557600080fd5b506101eb610494366004612472565b610e02565b3480156104a557600080fd5b506102586104b4366004612a42565b610e0d565b3480156104c557600080fd5b506102586104d4366004612753565b610e5f565b3480156104e557600080fd5b506101c16104f4366004612aae565b610ef4565b6001600160e01b0319811660009081527ffc606c433378e3a7e0a6a531deac289b66caa1b4aa8554fd4ab2c6f1570f92d8602052604081205460ff165b92915050565b6060610546610f00565b905090565b60006105467f79ec1734da2430052e9d78936f451aad707e5bed12ef4806b06dc3d0c38f0e31546001600160a01b031690565b600061053682610f9f565b6000610594826109a5565b9050806001600160a01b0316836001600160a01b0316036105c85760405163424a22cb60e01b815260040160405180910390fd5b336001600160a01b038216148015906105e857506105e68133610ef4565b155b1561060657604051632f5de44f60e01b815260040160405180910390fd5b6106108383611002565b505050565b6000610630600080516020612efc8339815191525460ff1690565b15156001146106925760405162461bcd60e51b81526020600482015260356024820152600080516020612ebc8339815191526044820152740e881b5d5cdd081899481a5b9a5d1a585b1a5e9959605a1b60648201526084015b60405180910390fd5b7f4f3bc7155d2db681e29af52d1119e27d8b92f937da5bb676ae6155a2e77a3c6d546001600160a01b0316331461072a5760405162461bcd60e51b81526020600482015260426024820152600080516020612ebc83398151915260448201527f3a2063616e6e6f7420616363657074207468697320746f6b656e206164647265606482015261737360f01b608482015260a401610689565b7f4f3bc7155d2db681e29af52d1119e27d8b92f937da5bb676ae6155a2e77a3c6e5484146107ae5760405162461bcd60e51b815260206004820152603d6024820152600080516020612ebc83398151915260448201527f3a2063616e6e6f7420616363657074207468697320746f6b656e2049440000006064820152608401610689565b50630a85bd0160e11b95945050505050565b600061054661108f565b600080516020612f7c8339815191526107e2816110a8565b60005b8351811015610855576000831561081b57600080516020612efc8339815191525461010090046001600160a01b0316905061081f565b5060005b6108428186848151811061083557610835612adc565b60200260200101516110b5565b508061084d81612b08565b9150506107e5565b50505050565b610865338261113b565b61088257604051632f5de44f60e01b815260040160405180910390fd5b6106108383836111c1565b600061089983836112f0565b9392505050565b61061083838360405180602001604052806000815250610db7565b600080516020612f7c8339815191526108d3816110a8565b81518351146109425760405162461bcd60e51b815260206004820152603560248201527f537465776172644c6963656e736546616365743a20746f20616e6420746f6b656044820152740dcaaa492e640d8cadccee8d040dad2e6dac2e8c6d605b1b6064820152608401610689565b60005b82518110156108555761097d84828151811061096357610963612adc565b602002602001015184838151811061083557610835612adc565b8061098781612b08565b915050610945565b60006105368261131f565b600061053682611339565b60006105368261135a565b600080516020612f7c8339815191526109c8816110a8565b61061083836110b5565b60006105368261139e565b306001600160a01b0316633882ce8e6040518163ffffffff1660e01b8152600401602060405180830381865afa158015610a1b573d6000803e3d6000fd5b505050506040513d601f19601f82011682018060405250810190610a3f9190612b21565b6001600160a01b0316336001600160a01b031614610ac55760405162461bcd60e51b815260206004820152603760248201527f537465776172644c6963656e736546616365743a206f6e6c7920696e6974696160448201527f6c206269646465722063616e206d696e7420746f6b656e0000000000000000006064820152608401610689565b306001600160a01b031663be6a2a6d6040518163ffffffff1660e01b8152600401602060405180830381865afa158015610b03573d6000803e3d6000fd5b505050506040513d601f19601f82011682018060405250810190610b279190612b3e565b4210610b9d576040805162461bcd60e51b81526020600482015260248101919091527f537465776172644c6963656e736546616365743a2063616e6e6f74206d696e7460448201527f20616674657220696e697469616c20706572696f642073746172742074696d656064820152608401610689565b610ba68161131f565b15610c055760405162461bcd60e51b815260206004820152602960248201527f537465776172644c6963656e736546616365743a20546f6b656e20616c72656160448201526864792065786973747360b81b6064820152608401610689565b610c11600083836113f5565b5050565b6060610546611411565b336001600160a01b03831603610c485760405163424a22cb60e01b815260040160405180910390fd5b3360008181527f3c7bf052874fa81625121783266a03507bd2cd48b16e571c01a04e8dd3fb07aa602090815260408083206001600160a01b03871680855290835292819020805460ff191686151590811790915590519081529192917f17307eab39ab6107e8899845ad3d59bd9653f200f220920489ca2b5937696c31910160405180910390a35050565b600080516020612efc8339815191525460ff1615610d3f5760405162461bcd60e51b81526020600482015260356024820152600080516020612ebc8339815191526044820152740e88185b1c9958591e481a5b9a5d1a585b1a5e9959605a1b6064820152608401610689565b7f4f3bc7155d2db681e29af52d1119e27d8b92f937da5bb676ae6155a2e77a3c6d80546001600160a01b0319166001600160a01b038b161790557f4f3bc7155d2db681e29af52d1119e27d8b92f937da5bb676ae6155a2e77a3c6e889055610dac87878787878787611430565b505050505050505050565b610dc1338361113b565b610dde57604051632f5de44f60e01b815260040160405180910390fd5b61085584848484611561565b6000610546600080516020612f3c8339815191525490565b606061053682611595565b600080516020612f7c833981519152610e25816110a8565b60005b8463ffffffff168163ffffffff161015610e5857610e468484611779565b80610e5081612b57565b915050610e28565b5050505050565b333014610ee95760405162461bcd60e51b815260206004820152604c60248201527f4e6174697665537465776172644c6963656e73653a205472696767657220747260448201527f616e736665722063616e206f6e6c792062652063616c6c65642066726f6d206160648201526b1b9bdd1a195c88199858d95d60a21b608482015260a401610689565b6106108383836113f5565b6000610899838361182c565b6060600080516020612f5c8339815191528054610f1c90612b7a565b80601f0160208091040260200160405190810160405280929190818152602001828054610f4890612b7a565b8015610f955780601f10610f6a57610100808354040283529160200191610f95565b820191906000526020600020905b815481529060010190602001808311610f7857829003601f168201915b5050505050905090565b6000610faa8261131f565b610fc75760405163c1b843ef60e01b815260040160405180910390fd5b5060009081527f3c7bf052874fa81625121783266a03507bd2cd48b16e571c01a04e8dd3fb07a960205260409020546001600160a01b031690565b60008181527f3c7bf052874fa81625121783266a03507bd2cd48b16e571c01a04e8dd3fb07a96020526040902080546001600160a01b0319166001600160a01b03841690811790915581906110568261135a565b6001600160a01b03167f8c5be1e5ebec7d5bd14f71427d1e84f3dd0314c0f7b2291e5b200ac8c7c3b92560405160405180910390a45050565b6000610546600080516020612f1c833981519152611879565b6110b28133611883565b50565b600080516020612f3c8339815191528054600080516020612efc8339815191529160019060006110e58385612bb4565b909155505060008181527f99574a7094154bb123ae6ae102096f0bf9679b85a5cd1e727aaa0ae5f132e6b4602052604090206111218482612c15565b506001600160a01b038416156108555761085584826118e5565b60006111468261131f565b6111635760405163c1b843ef60e01b815260040160405180910390fd5b600061116e8361135a565b9050806001600160a01b0316846001600160a01b031614806111a95750836001600160a01b031661119e84610f9f565b6001600160a01b0316145b806111b957506111b9818561182c565b949350505050565b826001600160a01b03166111d48261135a565b6001600160a01b0316146111fb57604051630f2db4ad60e01b815260040160405180910390fd5b6001600160a01b038216611222576040516340311a0960e01b815260040160405180910390fd5b61122d8383836119c8565b611238600082611002565b6001600160a01b0383166000908152600080516020612edc83398151915260205260409020600080516020612f1c833981519152906112779083611abd565b506001600160a01b0383166000908152600282016020526040902061129c9083611ac9565b506112a8818385611ad5565b5081836001600160a01b0316856001600160a01b03167fddf252ad1be2c89b69c2b068fc378daa952ba7f163c4a11628f55a4df523b3ef60405160405180910390a450505050565b6001600160a01b0382166000908152600080516020612edc833981519152602052604081206108999083611aeb565b6000610536600080516020612f1c83398151915283611af7565b6000611353600080516020612f1c83398151915283611b0f565b5092915050565b600080611375600080516020612f1c83398151915284611b2b565b90506001600160a01b03811661053657604051637e1a7d8b60e01b815260040160405180910390fd5b60006001600160a01b0382166113c757604051630810ff9760e41b815260040160405180910390fd5b6001600160a01b0382166000908152600080516020612edc8339815191526020526040902061053690611879565b6113fe8161131f565b15156000036108825761061082826118e5565b6060600080516020612f5c8339815191526001018054610f1c90612b7a565b600080516020612efc83398151915280546001600160a01b03888116610100026001600160a81b03199092169190911760011782557f79ec1734da2430052e9d78936f451aad707e5bed12ef4806b06dc3d0c38f0e318054918a166001600160a01b0319909216919091179055600080516020612f3c8339815191528690556000600080516020612f5c8339815191529050806114cd8682612c15565b50600181016114dc8582612c15565b50600281016114eb8482612c15565b506114fe6301ffc9a760e01b6001611b37565b6115106380ac58cd60e01b6001611b37565b611528600080516020612f7c8339815191528a611bad565b8515610dac5760005b878110156115555761154389826118e5565b8061154d81612b08565b915050611531565b50505050505050505050565b61156c8484846111c1565b61157884848484611c21565b61085557604051639ff10cdd60e01b815260040160405180910390fd5b600080516020612f3c83398151915254606090600080516020612efc8339815191529083106115d657604051624705a760e71b815260040160405180910390fd5b60008381527f99574a7094154bb123ae6ae102096f0bf9679b85a5cd1e727aaa0ae5f132e6b4602052604081208054600080516020612f5c83398151915292919061162090612b7a565b80601f016020809104026020016040519081016040528092919081815260200182805461164c90612b7a565b80156116995780601f1061166e57610100808354040283529160200191611699565b820191906000526020600020905b81548152906001019060200180831161167c57829003601f168201915b5050505050905060008260020180546116b190612b7a565b80601f01602080910402602001604051908101604052809291908181526020018280546116dd90612b7a565b801561172a5780601f106116ff5761010080835404028352916020019161172a565b820191906000526020600020905b81548152906001019060200180831161170d57829003601f168201915b505050505090506000825111156117445750949350505050565b8061174e87611cf2565b60405160200161175f929190612cd4565b604051602081830303815290604052945050505050919050565b600080516020612f3c8339815191528054600080516020612efc8339815191529160019060006117a98385612bb4565b909155508490506117b982611cf2565b6040516020016117ca929190612cd4565b6040516020818303038152906040526117ee600080516020612f5c83398151915290565b6000838152600391909101602052604090209061180b9082612c15565b5082156108555781546108559061010090046001600160a01b0316826118e5565b6001600160a01b0391821660009081527f3c7bf052874fa81625121783266a03507bd2cd48b16e571c01a04e8dd3fb07aa6020908152604080832093909416825291909152205460ff1690565b6000610536825490565b61188d8282611df2565b610c11576118a3816001600160a01b0316611e29565b6118ae836020611e3b565b6040516020016118bf929190612d03565b60408051601f198184030181529082905262461bcd60e51b82526106899160040161245f565b6001600160a01b03821661190c576040516311f2988d60e11b815260040160405180910390fd5b6119158161131f565b1561193357604051630d86bb7b60e31b815260040160405180910390fd5b61193f600083836119c8565b6001600160a01b0382166000908152600080516020612edc83398151915260205260409020600080516020612f1c8339815191529061197e9083611ac9565b5061198a818385611ad5565b5060405182906001600160a01b038516906000907fddf252ad1be2c89b69c2b068fc378daa952ba7f163c4a11628f55a4df523b3ef908290a4505050565b6001600160a01b03831615611ab25760405163a7c12c1160e01b815260048101829052600090309063a7c12c1190602401602060405180830381865afa158015611a16573d6000803e3d6000fd5b505050506040513d601f19601f82011682018060405250810190611a3a9190612d78565b90508015611ab05760405162461bcd60e51b815260206004820152603a60248201527f537465776172644c6963656e736546616365743a2043616e6e6f74207472616e60448201527f7366657220647572696e672061756374696f6e20706572696f640000000000006064820152608401610689565b505b610610838383611f8d565b60006108998383611f98565b60006108998383612052565b60006111b984846001600160a01b038516612095565b60006108998383612134565b60008181526001830160205260408120541515610899565b6000808080611b1e8686612180565b9097909650945050505050565b600061089983836121e3565b6001600160e01b03198083169003611b625760405163b0a19dd560e01b815260040160405180910390fd5b6001600160e01b03199190911660009081527ffc606c433378e3a7e0a6a531deac289b66caa1b4aa8554fd4ab2c6f1570f92d860205260409020805460ff1916911515919091179055565b60008281527fd3889cc5458b268d0544e5534672df1296288ca3f93cbd39bd6f497a5c62281160205260409020611be49082612247565b5060405133906001600160a01b0383169084907f2f8788117e7eff1d82e926ec794901d17c78024a50270940304540a733656f0d90600090a45050565b60006001600160a01b0384163b611c3a575060016111b9565b6000611cbb63150b7a0260e01b33888787604051602401611c5e9493929190612d95565b604051602081830303815290604052906001600160e01b0319166020820180516001600160e01b038381831617835250505050604051806060016040528060328152602001612e8a603291396001600160a01b038816919061225c565b9050600081806020019051810190611cd39190612dd2565b6001600160e01b031916630a85bd0160e11b1492505050949350505050565b606081600003611d195750506040805180820190915260018152600360fc1b602082015290565b8160005b8115611d435780611d2d81612b08565b9150611d3c9050600a83612e05565b9150611d1d565b6000816001600160401b03811115611d5d57611d5d61257a565b6040519080825280601f01601f191660200182016040528015611d87576020820181803683370190505b5090505b84156111b957611d9c600183612e19565b9150611da9600a86612e2c565b611db4906030612bb4565b60f81b818381518110611dc957611dc9612adc565b60200101906001600160f81b031916908160001a905350611deb600a86612e05565b9450611d8b565b60008281527fd3889cc5458b268d0544e5534672df1296288ca3f93cbd39bd6f497a5c62281160205260408120610899908361226b565b60606105366001600160a01b03831660145b60606000611e4a836002612e40565b611e55906002612bb4565b6001600160401b03811115611e6c57611e6c61257a565b6040519080825280601f01601f191660200182016040528015611e96576020820181803683370190505b509050600360fc1b81600081518110611eb157611eb1612adc565b60200101906001600160f81b031916908160001a905350600f60fb1b81600181518110611ee057611ee0612adc565b60200101906001600160f81b031916908160001a905350600160028402015b6001811115611f6d576f181899199a1a9b1b9c1cb0b131b232b360811b85600f1660108110611f3057611f30612adc565b1a60f81b828281518110611f4657611f46612adc565b60200101906001600160f81b031916908160001a90535060049490941c9360001901611eff565b5083156108995760405163c913478560e01b815260040160405180910390fd5b61061083838361228d565b6000818152600183016020526040812054801561135357835460009085906000198101908110611fca57611fca612adc565b9060005260206000200154905080856000016001840381548110611ff057611ff0612adc565b600091825260208083209091019290925591825260018601905260409020819055835484908061202257612022612e57565b60008281526020808220830160001990810183905590920190925593815260019485019093525050604081205590565b6000818152600183016020526040812054610536575081546001808201845560008481526020808220909301849055845493815293810190915260409092205590565b60008281526001840160205260408120548082036120fc575050604080518082018252838152602080820184815286546001818101895560008981528481209551600290930290950191825591519082015586548684528188019092529290912055610899565b8285600001600183038154811061211557612115612adc565b9060005260206000209060020201600101819055506000915050610899565b815460009082106121585760405163e637bf3b60e01b815260040160405180910390fd5b82600001828154811061216d5761216d612adc565b9060005260206000200154905092915050565b8154600090819083106121a65760405163022fd82760e31b815260040160405180910390fd5b60008460000184815481106121bd576121bd612adc565b906000526020600020906002020190508060000154816001015492509250509250929050565b600081815260018301602052604081205480820361221457604051633d547ec560e21b815260040160405180910390fd5b83600001600182038154811061222c5761222c612adc565b90600052602060002090600202016001015491505092915050565b6000610899836001600160a01b038416612052565b60606111b984846000856122d1565b6001600160a01b03811660009081526001830160205260408120541515610899565b6001600160a01b0382166106105760008181527f99574a7094154bb123ae6ae102096f0bf9679b85a5cd1e727aaa0ae5f132e6b4602052604081206106109161238e565b6060843b6122f257604051632270d6bf60e21b815260040160405180910390fd5b600080866001600160a01b0316858760405161230e9190612e6d565b60006040518083038185875af1925050503d806000811461234b576040519150601f19603f3d011682016040523d82523d6000602084013e612350565b606091505b509150915081156123645791506111b99050565b8051156123745780518082602001fd5b8360405162461bcd60e51b8152600401610689919061245f565b50805461239a90612b7a565b6000825580601f106123aa575050565b601f0160209004906000526020600020908101906110b291905b808211156123d857600081556001016123c4565b5090565b6001600160e01b0319811681146110b257600080fd5b60006020828403121561240457600080fd5b8135610899816123dc565b60005b8381101561242a578181015183820152602001612412565b50506000910152565b6000815180845261244b81602086016020860161240f565b601f01601f19169290920160200192915050565b6020815260006108996020830184612433565b60006020828403121561248457600080fd5b5035919050565b6001600160a01b03811681146110b257600080fd5b80356124ab8161248b565b919050565b600080604083850312156124c357600080fd5b82356124ce8161248b565b946020939093013593505050565b6000806000806000608086880312156124f457600080fd5b85356124ff8161248b565b9450602086013561250f8161248b565b93506040860135925060608601356001600160401b038082111561253257600080fd5b818801915088601f83011261254657600080fd5b81358181111561255557600080fd5b89602082850101111561256757600080fd5b9699959850939650602001949392505050565b634e487b7160e01b600052604160045260246000fd5b604051601f8201601f191681016001600160401b03811182821017156125b8576125b861257a565b604052919050565b60006001600160401b038211156125d9576125d961257a565b5060051b60200190565b60006001600160401b038311156125fc576125fc61257a565b61260f601f8401601f1916602001612590565b905082815283838301111561262357600080fd5b828260208301376000602084830101529392505050565b600082601f83011261264b57600080fd5b610899838335602085016125e3565b600082601f83011261266b57600080fd5b8135602061268061267b836125c0565b612590565b82815260059290921b8401810191818101908684111561269f57600080fd5b8286015b848110156126de5780356001600160401b038111156126c25760008081fd5b6126d08986838b010161263a565b8452509183019183016126a3565b509695505050505050565b80151581146110b257600080fd5b80356124ab816126e9565b6000806040838503121561271557600080fd5b82356001600160401b0381111561272b57600080fd5b6127378582860161265a565b9250506020830135612748816126e9565b809150509250929050565b60008060006060848603121561276857600080fd5b83356127738161248b565b925060208401356127838161248b565b929592945050506040919091013590565b600080604083850312156127a757600080fd5b82356001600160401b03808211156127be57600080fd5b818501915085601f8301126127d257600080fd5b813560206127e261267b836125c0565b82815260059290921b8401810191818101908984111561280157600080fd5b948201945b838610156128285785356128198161248b565b82529482019490820190612806565b9650508601359250508082111561283e57600080fd5b5061284b8582860161265a565b9150509250929050565b6000806040838503121561286857600080fd5b82356128738161248b565b915060208301356001600160401b0381111561288e57600080fd5b61284b8582860161263a565b6000602082840312156128ac57600080fd5b81356108998161248b565b600080604083850312156128ca57600080fd5b82356128d58161248b565b91506020830135612748816126e9565b60008060008060008060008060006101208a8c03121561290457600080fd5b61290d8a6124a0565b985060208a0135975061292260408b016124a0565b965061293060608b016124a0565b955060808a0135945061294560a08b016126f7565b935060c08a01356001600160401b038082111561296157600080fd5b61296d8d838e0161263a565b945060e08c013591508082111561298357600080fd5b61298f8d838e0161263a565b93506101008c01359150808211156129a657600080fd5b506129b38c828d0161263a565b9150509295985092959850929598565b600080600080608085870312156129d957600080fd5b84356129e48161248b565b935060208501356129f48161248b565b92506040850135915060608501356001600160401b03811115612a1657600080fd5b8501601f81018713612a2757600080fd5b612a36878235602084016125e3565b91505092959194509250565b600080600060608486031215612a5757600080fd5b833563ffffffff81168114612a6b57600080fd5b925060208401356001600160401b03811115612a8657600080fd5b612a928682870161263a565b9250506040840135612aa3816126e9565b809150509250925092565b60008060408385031215612ac157600080fd5b8235612acc8161248b565b915060208301356127488161248b565b634e487b7160e01b600052603260045260246000fd5b634e487b7160e01b600052601160045260246000fd5b600060018201612b1a57612b1a612af2565b5060010190565b600060208284031215612b3357600080fd5b81516108998161248b565b600060208284031215612b5057600080fd5b5051919050565b600063ffffffff808316818103612b7057612b70612af2565b6001019392505050565b600181811c90821680612b8e57607f821691505b602082108103612bae57634e487b7160e01b600052602260045260246000fd5b50919050565b8082018082111561053657610536612af2565b601f82111561061057600081815260208120601f850160051c81016020861015612bee5750805b601f850160051c820191505b81811015612c0d57828155600101612bfa565b505050505050565b81516001600160401b03811115612c2e57612c2e61257a565b612c4281612c3c8454612b7a565b84612bc7565b602080601f831160018114612c775760008415612c5f5750858301515b600019600386901b1c1916600185901b178555612c0d565b600085815260208120601f198616915b82811015612ca657888601518255948401946001909101908401612c87565b5085821015612cc45787850151600019600388901b60f8161c191681555b5050505050600190811b01905550565b60008351612ce681846020880161240f565b835190830190612cfa81836020880161240f565b01949350505050565b7f416363657373436f6e74726f6c3a206163636f756e7420000000000000000000815260008351612d3b81601785016020880161240f565b7001034b99036b4b9b9b4b733903937b6329607d1b6017918401918201528351612d6c81602884016020880161240f565b01602801949350505050565b600060208284031215612d8a57600080fd5b8151610899816126e9565b6001600160a01b0385811682528416602082015260408101839052608060608201819052600090612dc890830184612433565b9695505050505050565b600060208284031215612de457600080fd5b8151610899816123dc565b634e487b7160e01b600052601260045260246000fd5b600082612e1457612e14612def565b500490565b8181038181111561053657610536612af2565b600082612e3b57612e3b612def565b500690565b808202811582820484141761053657610536612af2565b634e487b7160e01b600052603160045260246000fd5b60008251612e7f81846020870161240f565b919091019291505056fe4552433732313a207472616e7366657220746f206e6f6e20455243373231526563656976657220696d706c656d656e74657257726170706564455243373231537465776172644c6963656e736546616365743c7bf052874fa81625121783266a03507bd2cd48b16e571c01a04e8dd3fb07a879ec1734da2430052e9d78936f451aad707e5bed12ef4806b06dc3d0c38f0e303c7bf052874fa81625121783266a03507bd2cd48b16e571c01a04e8dd3fb07a679ec1734da2430052e9d78936f451aad707e5bed12ef4806b06dc3d0c38f0e3299574a7094154bb123ae6ae102096f0bf9679b85a5cd1e727aaa0ae5f132e6b17b62b800d8c954aa32a34a9249066e0f8761d6c1614c95cbc05c04ab0583a14ca2646970667358221220a95cedd1baa0c4be7f0f28dde623d8d8a4197b5eac6f4facce0387915e6c25d964736f6c63430008110033",
  "devdoc": {
    "details": "ERC-721 token license for Steward that wraps existing ERC-721. Only a particular ERC721 transfer is accepted.",
    "kind": "dev",
    "methods": {
      "approve(address,uint256)": {
        "params": {
          "operator": "address to be approved",
          "tokenId": "token to approve"
        }
      },
      "balanceOf(address)": {
        "returns": {
          "_0": "quantity of tokens held"
        }
      },
      "getApproved(uint256)": {
        "params": {
          "tokenId": "token to query"
        },
        "returns": {
          "_0": "address approved to spend token"
        }
      },
      "isApprovedForAll(address,address)": {
        "params": {
          "account": "address to query for approval granted",
          "operator": "address to query for approval received"
        },
        "returns": {
          "_0": "whether operator is approved to spend tokens held by account"
        }
      },
      "ownerOf(uint256)": {
        "params": {
          "tokenId": "token to query"
        },
        "returns": {
          "_0": "token owner"
        }
      },
      "safeTransferFrom(address,address,uint256)": {
        "params": {
          "from": "sender of token",
          "to": "receiver of token",
          "tokenId": "token id"
        }
      },
      "safeTransferFrom(address,address,uint256,bytes)": {
        "params": {
          "data": "data payload",
          "from": "sender of token",
          "to": "receiver of token",
          "tokenId": "token id"
        }
      },
      "setApprovalForAll(address,bool)": {
        "params": {
          "operator": "address to be approved",
          "status": "approval status"
        }
      },
      "supportsInterface(bytes4)": {
        "params": {
          "interfaceId": "interface id"
        },
        "returns": {
          "_0": "bool whether interface is supported"
        }
      },
      "tokenByIndex(uint256)": {
        "params": {
          "index": "position in global token list to query"
        },
        "returns": {
          "_0": "id of retrieved token"
        }
      },
      "tokenOfOwnerByIndex(address,uint256)": {
        "params": {
          "index": "position in owner's token list to query",
          "owner": "token holder to query"
        },
        "returns": {
          "_0": "id of retrieved token"
        }
      },
      "totalSupply()": {
        "returns": {
          "_0": "total supply"
        }
      },
      "transferFrom(address,address,uint256)": {
        "params": {
          "from": "sender of token",
          "to": "receiver of token",
          "tokenId": "token id"
        }
      }
    },
    "title": "WrappedERC721StewardLicenseFacet",
    "version": 1
  },
  "userdoc": {
    "kind": "user",
    "methods": {
      "addTokenToCollection(address,string)": {
        "notice": "Add token to collection"
      },
      "addTokensToCollection(address[],string[])": {
        "notice": "Add tokens to collection with to"
      },
      "addTokensToCollection(string[],bool)": {
        "notice": "Add tokens to collection"
      },
      "addTokensWithBaseURIToCollection(uint32,string,bool)": {
        "notice": "Add tokens to collection with baseURI"
      },
      "approve(address,uint256)": {
        "notice": "grant approval to given account to spend token"
      },
      "balanceOf(address)": {
        "notice": "query the balance of given address"
      },
      "exists(uint256)": {
        "notice": "Check if token exists"
      },
      "getApproved(uint256)": {
        "notice": "get approval status for given token"
      },
      "initializeWrappedStewardLicense(address,uint256,address,address,uint256,bool,string,string,string)": {
        "notice": "Initialize license"
      },
      "isApprovedForAll(address,address)": {
        "notice": "query approval status of given operator with respect to given address"
      },
      "maxTokenCount()": {
        "notice": "Get max token count"
      },
      "mintToken(address,uint256)": {
        "notice": "Initial bidder can mint token if it doesn't exist"
      },
      "minter()": {
        "notice": "Get minter"
      },
      "name()": {
        "notice": "inheritdoc IERC721Metadata"
      },
      "ownerOf(uint256)": {
        "notice": "query the owner of given token"
      },
      "safeTransferFrom(address,address,uint256)": {
        "notice": "transfer token between given addresses, checking for ERC721Receiver implementation if applicable"
      },
      "safeTransferFrom(address,address,uint256,bytes)": {
        "notice": "transfer token between given addresses, checking for ERC721Receiver implementation if applicable"
      },
      "setApprovalForAll(address,bool)": {
        "notice": "grant approval to or revoke approval from given account to spend all tokens held by sender"
      },
      "supportsInterface(bytes4)": {
        "notice": "query whether contract has registered support for given interface"
      },
      "symbol()": {
        "notice": "inheritdoc IERC721Metadata"
      },
      "tokenByIndex(uint256)": {
        "notice": "get token at given internal storage index"
      },
      "tokenOfOwnerByIndex(address,uint256)": {
        "notice": "get token of given owner at given internal storage index"
      },
      "tokenURI(uint256)": {
        "notice": "inheritdoc IERC721Metadata"
      },
      "totalSupply()": {
        "notice": "get total token supply"
      },
      "transferFrom(address,address,uint256)": {
        "notice": "transfer token between given addresses, without checking for ERC721Receiver implementation if applicable"
      },
      "triggerTransfer(address,address,uint256)": {
        "notice": "Trigger transfer of license"
      }
    },
    "version": 1
  },
  "storageLayout": {
    "storage": [],
    "types": null
  }
}