{
  "address": "0x798Dd59407B50BCaDa5F53df7F2792533E787877",
  "abi": [
    {
      "inputs": [],
      "name": "AddressUtils__NotContract",
      "type": "error"
    },
    {
      "inputs": [],
      "name": "ERC165Base__InvalidInterfaceId",
      "type": "error"
    },
    {
      "inputs": [],
      "name": "ERC721Base__BalanceQueryZeroAddress",
      "type": "error"
    },
    {
      "inputs": [],
      "name": "ERC721Base__ERC721ReceiverNotImplemented",
      "type": "error"
    },
    {
      "inputs": [],
      "name": "ERC721Base__InvalidOwner",
      "type": "error"
    },
    {
      "inputs": [],
      "name": "ERC721Base__MintToZeroAddress",
      "type": "error"
    },
    {
      "inputs": [],
      "name": "ERC721Base__NonExistentToken",
      "type": "error"
    },
    {
      "inputs": [],
      "name": "ERC721Base__NotOwnerOrApproved",
      "type": "error"
    },
    {
      "inputs": [],
      "name": "ERC721Base__NotTokenOwner",
      "type": "error"
    },
    {
      "inputs": [],
      "name": "ERC721Base__SelfApproval",
      "type": "error"
    },
    {
      "inputs": [],
      "name": "ERC721Base__TokenAlreadyMinted",
      "type": "error"
    },
    {
      "inputs": [],
      "name": "ERC721Base__TransferToZeroAddress",
      "type": "error"
    },
    {
      "inputs": [],
      "name": "ERC721Metadata__NonExistentToken",
      "type": "error"
    },
    {
      "inputs": [],
      "name": "EnumerableMap__IndexOutOfBounds",
      "type": "error"
    },
    {
      "inputs": [],
      "name": "EnumerableMap__NonExistentKey",
      "type": "error"
    },
    {
      "inputs": [],
      "name": "EnumerableSet__IndexOutOfBounds",
      "type": "error"
    },
    {
      "anonymous": false,
      "inputs": [
        {
          "indexed": true,
          "internalType": "address",
          "name": "owner",
          "type": "address"
        },
        {
          "indexed": true,
          "internalType": "address",
          "name": "operator",
          "type": "address"
        },
        {
          "indexed": true,
          "internalType": "uint256",
          "name": "tokenId",
          "type": "uint256"
        }
      ],
      "name": "Approval",
      "type": "event"
    },
    {
      "anonymous": false,
      "inputs": [
        {
          "indexed": true,
          "internalType": "address",
          "name": "owner",
          "type": "address"
        },
        {
          "indexed": true,
          "internalType": "address",
          "name": "operator",
          "type": "address"
        },
        {
          "indexed": false,
          "internalType": "bool",
          "name": "approved",
          "type": "bool"
        }
      ],
      "name": "ApprovalForAll",
      "type": "event"
    },
    {
      "anonymous": false,
      "inputs": [
        {
          "indexed": true,
          "internalType": "address",
          "name": "from",
          "type": "address"
        },
        {
          "indexed": true,
          "internalType": "address",
          "name": "to",
          "type": "address"
        },
        {
          "indexed": true,
          "internalType": "uint256",
          "name": "tokenId",
          "type": "uint256"
        }
      ],
      "name": "Transfer",
      "type": "event"
    },
    {
      "inputs": [
        {
          "internalType": "address",
          "name": "operator",
          "type": "address"
        },
        {
          "internalType": "uint256",
          "name": "tokenId",
          "type": "uint256"
        }
      ],
      "name": "approve",
      "outputs": [],
      "stateMutability": "payable",
      "type": "function"
    },
    {
      "inputs": [
        {
          "internalType": "address",
          "name": "account",
          "type": "address"
        }
      ],
      "name": "balanceOf",
      "outputs": [
        {
          "internalType": "uint256",
          "name": "",
          "type": "uint256"
        }
      ],
      "stateMutability": "view",
      "type": "function"
    },
    {
      "inputs": [
        {
          "internalType": "uint256",
          "name": "tokenId",
          "type": "uint256"
        }
      ],
      "name": "exists",
      "outputs": [
        {
          "internalType": "bool",
          "name": "",
          "type": "bool"
        }
      ],
      "stateMutability": "view",
      "type": "function"
    },
    {
      "inputs": [
        {
          "internalType": "uint256",
          "name": "tokenId",
          "type": "uint256"
        }
      ],
      "name": "getApproved",
      "outputs": [
        {
          "internalType": "address",
          "name": "",
          "type": "address"
        }
      ],
      "stateMutability": "view",
      "type": "function"
    },
    {
      "inputs": [
        {
          "internalType": "address",
          "name": "tokenAddress",
          "type": "address"
        },
        {
          "internalType": "uint256",
          "name": "tokenId",
          "type": "uint256"
        },
        {
          "internalType": "address",
          "name": "_minter",
          "type": "address"
        },
        {
          "internalType": "address",
          "name": "_steward",
          "type": "address"
        },
        {
          "internalType": "string",
          "name": "name",
          "type": "string"
        },
        {
          "internalType": "string",
          "name": "symbol",
          "type": "string"
        },
        {
          "internalType": "string",
          "name": "tokenURI",
          "type": "string"
        }
      ],
      "name": "initializeWrappedStewardLicense",
      "outputs": [],
      "stateMutability": "nonpayable",
      "type": "function"
    },
    {
      "inputs": [
        {
          "internalType": "address",
          "name": "account",
          "type": "address"
        },
        {
          "internalType": "address",
          "name": "operator",
          "type": "address"
        }
      ],
      "name": "isApprovedForAll",
      "outputs": [
        {
          "internalType": "bool",
          "name": "",
          "type": "bool"
        }
      ],
      "stateMutability": "view",
      "type": "function"
    },
    {
      "inputs": [],
      "name": "minter",
      "outputs": [
        {
          "internalType": "address",
          "name": "",
          "type": "address"
        }
      ],
      "stateMutability": "view",
      "type": "function"
    },
    {
      "inputs": [],
      "name": "name",
      "outputs": [
        {
          "internalType": "string",
          "name": "",
          "type": "string"
        }
      ],
      "stateMutability": "view",
      "type": "function"
    },
    {
      "inputs": [
        {
          "internalType": "address",
          "name": "",
          "type": "address"
        },
        {
          "internalType": "address",
          "name": "",
          "type": "address"
        },
        {
          "internalType": "uint256[]",
          "name": "ids",
          "type": "uint256[]"
        },
        {
          "internalType": "uint256[]",
          "name": "values",
          "type": "uint256[]"
        },
        {
          "internalType": "bytes",
          "name": "",
          "type": "bytes"
        }
      ],
      "name": "onERC1155BatchReceived",
      "outputs": [
        {
          "internalType": "bytes4",
          "name": "",
          "type": "bytes4"
        }
      ],
      "stateMutability": "view",
      "type": "function"
    },
    {
      "inputs": [
        {
          "internalType": "address",
          "name": "",
          "type": "address"
        },
        {
          "internalType": "address",
          "name": "",
          "type": "address"
        },
        {
          "internalType": "uint256",
          "name": "id",
          "type": "uint256"
        },
        {
          "internalType": "uint256",
          "name": "value",
          "type": "uint256"
        },
        {
          "internalType": "bytes",
          "name": "",
          "type": "bytes"
        }
      ],
      "name": "onERC1155Received",
      "outputs": [
        {
          "internalType": "bytes4",
          "name": "",
          "type": "bytes4"
        }
      ],
      "stateMutability": "view",
      "type": "function"
    },
    {
      "inputs": [
        {
          "internalType": "uint256",
          "name": "tokenId",
          "type": "uint256"
        }
      ],
      "name": "ownerOf",
      "outputs": [
        {
          "internalType": "address",
          "name": "",
          "type": "address"
        }
      ],
      "stateMutability": "view",
      "type": "function"
    },
    {
      "inputs": [
        {
          "internalType": "address",
          "name": "from",
          "type": "address"
        },
        {
          "internalType": "address",
          "name": "to",
          "type": "address"
        },
        {
          "internalType": "uint256",
          "name": "tokenId",
          "type": "uint256"
        }
      ],
      "name": "safeTransferFrom",
      "outputs": [],
      "stateMutability": "payable",
      "type": "function"
    },
    {
      "inputs": [
        {
          "internalType": "address",
          "name": "from",
          "type": "address"
        },
        {
          "internalType": "address",
          "name": "to",
          "type": "address"
        },
        {
          "internalType": "uint256",
          "name": "tokenId",
          "type": "uint256"
        },
        {
          "internalType": "bytes",
          "name": "data",
          "type": "bytes"
        }
      ],
      "name": "safeTransferFrom",
      "outputs": [],
      "stateMutability": "payable",
      "type": "function"
    },
    {
      "inputs": [
        {
          "internalType": "address",
          "name": "operator",
          "type": "address"
        },
        {
          "internalType": "bool",
          "name": "status",
          "type": "bool"
        }
      ],
      "name": "setApprovalForAll",
      "outputs": [],
      "stateMutability": "nonpayable",
      "type": "function"
    },
    {
      "inputs": [
        {
          "internalType": "bytes4",
          "name": "interfaceId",
          "type": "bytes4"
        }
      ],
      "name": "supportsInterface",
      "outputs": [
        {
          "internalType": "bool",
          "name": "",
          "type": "bool"
        }
      ],
      "stateMutability": "view",
      "type": "function"
    },
    {
      "inputs": [],
      "name": "symbol",
      "outputs": [
        {
          "internalType": "string",
          "name": "",
          "type": "string"
        }
      ],
      "stateMutability": "view",
      "type": "function"
    },
    {
      "inputs": [
        {
          "internalType": "uint256",
          "name": "index",
          "type": "uint256"
        }
      ],
      "name": "tokenByIndex",
      "outputs": [
        {
          "internalType": "uint256",
          "name": "",
          "type": "uint256"
        }
      ],
      "stateMutability": "view",
      "type": "function"
    },
    {
      "inputs": [
        {
          "internalType": "address",
          "name": "owner",
          "type": "address"
        },
        {
          "internalType": "uint256",
          "name": "index",
          "type": "uint256"
        }
      ],
      "name": "tokenOfOwnerByIndex",
      "outputs": [
        {
          "internalType": "uint256",
          "name": "",
          "type": "uint256"
        }
      ],
      "stateMutability": "view",
      "type": "function"
    },
    {
      "inputs": [
        {
          "internalType": "uint256",
          "name": "tokenId",
          "type": "uint256"
        }
      ],
      "name": "tokenURI",
      "outputs": [
        {
          "internalType": "string",
          "name": "",
          "type": "string"
        }
      ],
      "stateMutability": "view",
      "type": "function"
    },
    {
      "inputs": [],
      "name": "totalSupply",
      "outputs": [
        {
          "internalType": "uint256",
          "name": "",
          "type": "uint256"
        }
      ],
      "stateMutability": "view",
      "type": "function"
    },
    {
      "inputs": [
        {
          "internalType": "address",
          "name": "from",
          "type": "address"
        },
        {
          "internalType": "address",
          "name": "to",
          "type": "address"
        },
        {
          "internalType": "uint256",
          "name": "tokenId",
          "type": "uint256"
        }
      ],
      "name": "transferFrom",
      "outputs": [],
      "stateMutability": "payable",
      "type": "function"
    },
    {
      "inputs": [
        {
          "internalType": "address",
          "name": "from",
          "type": "address"
        },
        {
          "internalType": "address",
          "name": "to",
          "type": "address"
        },
        {
          "internalType": "uint256",
          "name": "tokenId",
          "type": "uint256"
        }
      ],
      "name": "triggerTransfer",
      "outputs": [],
      "stateMutability": "nonpayable",
      "type": "function"
    }
  ],
  "transactionHash": "0x4e13352ad8aa80dc1b29e06e7559f330f9e63fecaa906cf980478a1df1f084f4",
  "args": [],
  "numDeployments": 2,
  "solcInputHash": "af64c17cfc77993eb6c0348792079092",
  "bytecode": "0x608060405234801561001057600080fd5b50612560806100206000396000f3fe6080604052600436106101355760003560e01c80636352211e116100ab578063bc197c811161006f578063bc197c8114610324578063c02458a81461035d578063c87b56dd1461037d578063e31a7c011461039d578063e985e9c5146103bd578063f23a6e61146103dd57600080fd5b80636352211e1461029c57806370a08231146102bc57806395d89b41146102dc578063a22cb465146102f1578063b88d4fde1461031157600080fd5b806318160ddd116100fd57806318160ddd146101f357806323b872dd146102165780632f745c591461022957806342842e0e146102495780634f558e791461025c5780634f6ccce71461027c57600080fd5b806301ffc9a71461013a57806306fdde031461016f5780630754617214610191578063081812fc146101be578063095ea7b3146101de575b600080fd5b34801561014657600080fd5b5061015a610155366004611b0a565b6103fd565b60405190151581526020015b60405180910390f35b34801561017b57600080fd5b50610184610440565b6040516101669190611b77565b34801561019d57600080fd5b506101a661044f565b6040516001600160a01b039091168152602001610166565b3480156101ca57600080fd5b506101a66101d9366004611b8a565b610482565b6101f16101ec366004611bbf565b61048d565b005b3480156101ff57600080fd5b50610208610519565b604051908152602001610166565b6101f1610224366004611be9565b610523565b34801561023557600080fd5b50610208610244366004611bbf565b610555565b6101f1610257366004611be9565b610568565b34801561026857600080fd5b5061015a610277366004611b8a565b610583565b34801561028857600080fd5b50610208610297366004611b8a565b61058e565b3480156102a857600080fd5b506101a66102b7366004611b8a565b610599565b3480156102c857600080fd5b506102086102d7366004611c25565b6105a4565b3480156102e857600080fd5b506101846105af565b3480156102fd57600080fd5b506101f161030c366004611c4e565b6105b9565b6101f161031f366004611d11565b61066d565b34801561033057600080fd5b5061034461033f366004611e14565b6106a6565b6040516001600160e01b03199091168152602001610166565b34801561036957600080fd5b506101f1610378366004611eef565b6107ed565b34801561038957600080fd5b50610184610398366004611b8a565b6108ce565b3480156103a957600080fd5b506101f16103b8366004611be9565b6108d9565b3480156103c957600080fd5b5061015a6103d8366004611fb3565b61097f565b3480156103e957600080fd5b506103446103f8366004611fe6565b61098b565b6001600160e01b0319811660009081527ffc606c433378e3a7e0a6a531deac289b66caa1b4aa8554fd4ab2c6f1570f92d8602052604081205460ff165b92915050565b606061044a610a7d565b905090565b600061044a7f79ec1734da2430052e9d78936f451aad707e5bed12ef4806b06dc3d0c38f0e31546001600160a01b031690565b600061043a82610b1c565b600061049882610599565b9050806001600160a01b0316836001600160a01b0316036104cc5760405163424a22cb60e01b815260040160405180910390fd5b336001600160a01b038216148015906104ec57506104ea813361097f565b155b1561050a57604051632f5de44f60e01b815260040160405180910390fd5b6105148383610b7f565b505050565b600061044a610c0c565b61052d3382610c25565b61054a57604051632f5de44f60e01b815260040160405180910390fd5b610514838383610cab565b60006105618383610dda565b9392505050565b6105148383836040518060200160405280600081525061066d565b600061043a82610e09565b600061043a82610e23565b600061043a82610e44565b600061043a82610e88565b606061044a610edf565b336001600160a01b038316036105e25760405163424a22cb60e01b815260040160405180910390fd5b3360008181527f3c7bf052874fa81625121783266a03507bd2cd48b16e571c01a04e8dd3fb07aa602090815260408083206001600160a01b03871680855290835292819020805460ff191686151590811790915590519081529192917f17307eab39ab6107e8899845ad3d59bd9653f200f220920489ca2b5937696c31910160405180910390a35050565b6106773383610c25565b61069457604051632f5de44f60e01b815260040160405180910390fd5b6106a084848484610efe565b50505050565b60006001861480156106b85750600184145b80156106dd5750848460008181106106d2576106d261205e565b905060200201356001145b6107025760405162461bcd60e51b81526004016106f990612074565b60405180910390fd5b6000805160206124ab8339815191525460ff1615156001146107365760405162461bcd60e51b81526004016106f9906120bf565b7f4f3bc7155d2db681e29af52d1119e27d8b92f937da5bb676ae6155a2e77a3c6d546001600160a01b0316331461077f5760405162461bcd60e51b81526004016106f990612103565b7f4f3bc7155d2db681e29af52d1119e27d8b92f937da5bb676ae6155a2e77a3c6e54878760008181106107b4576107b461205e565b90506020020135146107d85760405162461bcd60e51b81526004016106f99061215a565b5063bc197c8160e01b98975050505050505050565b6000805160206124ab8339815191525460ff161561085a5760405162461bcd60e51b8152602060048201526036602482015260008051602061250b8339815191526044820152751d0e88185b1c9958591e481a5b9a5d1a585b1a5e995960521b60648201526084016106f9565b7f4f3bc7155d2db681e29af52d1119e27d8b92f937da5bb676ae6155a2e77a3c6d80546001600160a01b0319166001600160a01b0389161790557f4f3bc7155d2db681e29af52d1119e27d8b92f937da5bb676ae6155a2e77a3c6e8690556108c58585858585610f32565b50505050505050565b606061043a82611000565b3330146109635760405162461bcd60e51b815260206004820152604c60248201527f4e6174697665537465776172644c6963656e73653a205472696767657220747260448201527f616e736665722063616e206f6e6c792062652063616c6c65642066726f6d206160648201526b1b9bdd1a195c88199858d95d60a21b608482015260a4016106f9565b61096c81610e09565b151560000361054a5761051482826111e1565b600061056183836112c4565b6000836001146109ad5760405162461bcd60e51b81526004016106f990612074565b6000805160206124ab8339815191525460ff1615156001146109e15760405162461bcd60e51b81526004016106f9906120bf565b7f4f3bc7155d2db681e29af52d1119e27d8b92f937da5bb676ae6155a2e77a3c6d546001600160a01b03163314610a2a5760405162461bcd60e51b81526004016106f990612103565b7f4f3bc7155d2db681e29af52d1119e27d8b92f937da5bb676ae6155a2e77a3c6e548514610a6a5760405162461bcd60e51b81526004016106f99061215a565b5063f23a6e6160e01b9695505050505050565b60606000805160206124eb8339815191528054610a99906121a5565b80601f0160208091040260200160405190810160405280929190818152602001828054610ac5906121a5565b8015610b125780601f10610ae757610100808354040283529160200191610b12565b820191906000526020600020905b815481529060010190602001808311610af557829003601f168201915b5050505050905090565b6000610b2782610e09565b610b445760405163c1b843ef60e01b815260040160405180910390fd5b5060009081527f3c7bf052874fa81625121783266a03507bd2cd48b16e571c01a04e8dd3fb07a960205260409020546001600160a01b031690565b60008181527f3c7bf052874fa81625121783266a03507bd2cd48b16e571c01a04e8dd3fb07a96020526040902080546001600160a01b0319166001600160a01b0384169081179091558190610bd382610e44565b6001600160a01b03167f8c5be1e5ebec7d5bd14f71427d1e84f3dd0314c0f7b2291e5b200ac8c7c3b92560405160405180910390a45050565b600061044a6000805160206124cb833981519152611311565b6000610c3082610e09565b610c4d5760405163c1b843ef60e01b815260040160405180910390fd5b6000610c5883610e44565b9050806001600160a01b0316846001600160a01b03161480610c935750836001600160a01b0316610c8884610b1c565b6001600160a01b0316145b80610ca35750610ca381856112c4565b949350505050565b826001600160a01b0316610cbe82610e44565b6001600160a01b031614610ce557604051630f2db4ad60e01b815260040160405180910390fd5b6001600160a01b038216610d0c576040516340311a0960e01b815260040160405180910390fd5b610d1783838361131b565b610d22600082610b7f565b6001600160a01b038316600090815260008051602061248b833981519152602052604090206000805160206124cb83398151915290610d619083611410565b506001600160a01b03831660009081526002820160205260409020610d86908361141c565b50610d92818385611428565b5081836001600160a01b0316856001600160a01b03167fddf252ad1be2c89b69c2b068fc378daa952ba7f163c4a11628f55a4df523b3ef60405160405180910390a450505050565b6001600160a01b038216600090815260008051602061248b83398151915260205260408120610561908361143e565b600061043a6000805160206124cb8339815191528361144a565b6000610e3d6000805160206124cb83398151915283611462565b5092915050565b600080610e5f6000805160206124cb83398151915284611480565b90506001600160a01b03811661043a57604051637e1a7d8b60e01b815260040160405180910390fd5b60006001600160a01b038216610eb157604051630810ff9760e41b815260040160405180910390fd5b6001600160a01b038216600090815260008051602061248b8339815191526020526040902061043a90611311565b60606000805160206124eb8339815191526001018054610a99906121a5565b610f09848484610cab565b610f158484848461148c565b6106a057604051639ff10cdd60e01b815260040160405180910390fd5b6000805160206124ab83398151915280546001600160a01b03868116610100026001600160a81b03199092169190911760011782557f79ec1734da2430052e9d78936f451aad707e5bed12ef4806b06dc3d0c38f0e3180549188166001600160a01b031990921691909117905560006000805160206124eb833981519152905080610fbd868261222d565b5060018101610fcc858261222d565b5060028101610fdb848261222d565b50610fee6301ffc9a760e01b600161155d565b6108c56380ac58cd60e01b600161155d565b606061100b82610e09565b61102757604051624705a760e71b815260040160405180910390fd5b60008281527f99574a7094154bb123ae6ae102096f0bf9679b85a5cd1e727aaa0ae5f132e6b46020526040812080546000805160206124eb833981519152929190611071906121a5565b80601f016020809104026020016040519081016040528092919081815260200182805461109d906121a5565b80156110ea5780601f106110bf576101008083540402835291602001916110ea565b820191906000526020600020905b8154815290600101906020018083116110cd57829003601f168201915b505050505090506000826002018054611102906121a5565b80601f016020809104026020016040519081016040528092919081815260200182805461112e906121a5565b801561117b5780601f106111505761010080835404028352916020019161117b565b820191906000526020600020905b81548152906001019060200180831161115e57829003601f168201915b50505050509050805160000361119357509392505050565b8151156111c65780826040516020016111ad9291906122ed565b6040516020818303038152906040529350505050919050565b806111d0866115d3565b6040516020016111ad9291906122ed565b6001600160a01b038216611208576040516311f2988d60e11b815260040160405180910390fd5b61121181610e09565b1561122f57604051630d86bb7b60e31b815260040160405180910390fd5b61123b6000838361131b565b6001600160a01b038216600090815260008051602061248b833981519152602052604090206000805160206124cb8339815191529061127a908361141c565b50611286818385611428565b5060405182906001600160a01b038516906000907fddf252ad1be2c89b69c2b068fc378daa952ba7f163c4a11628f55a4df523b3ef908290a4505050565b6001600160a01b0391821660009081527f3c7bf052874fa81625121783266a03507bd2cd48b16e571c01a04e8dd3fb07aa6020908152604080832093909416825291909152205460ff1690565b600061043a825490565b6001600160a01b038316156114055760405163a7c12c1160e01b815260048101829052600090309063a7c12c1190602401602060405180830381865afa158015611369573d6000803e3d6000fd5b505050506040513d601f19601f8201168201806040525081019061138d919061231c565b905080156114035760405162461bcd60e51b815260206004820152603a60248201527f537465776172644c6963656e736546616365743a2043616e6e6f74207472616e60448201527f7366657220647572696e672061756374696f6e20706572696f6400000000000060648201526084016106f9565b505b6105148383836116d4565b600061056183836116df565b60006105618383611799565b6000610ca384846001600160a01b0385166117dc565b6000610561838361187b565b60008181526001830160205260408120541515610561565b600080808061147186866118c7565b909450925050505b9250929050565b6000610561838361192a565b60006001600160a01b0384163b6114a557506001610ca3565b600061152663150b7a0260e01b338887876040516024016114c99493929190612339565b604051602081830303815290604052906001600160e01b0319166020820180516001600160e01b038381831617835250505050604051806060016040528060328152602001612459603291396001600160a01b038816919061198e565b905060008180602001905181019061153e9190612376565b6001600160e01b031916630a85bd0160e11b1492505050949350505050565b6001600160e01b031980831690036115885760405163b0a19dd560e01b815260040160405180910390fd5b6001600160e01b03199190911660009081527ffc606c433378e3a7e0a6a531deac289b66caa1b4aa8554fd4ab2c6f1570f92d860205260409020805460ff1916911515919091179055565b6060816000036115fa5750506040805180820190915260018152600360fc1b602082015290565b8160005b8115611624578061160e816123a9565b915061161d9050600a836123d8565b91506115fe565b60008167ffffffffffffffff81111561163f5761163f611c85565b6040519080825280601f01601f191660200182016040528015611669576020820181803683370190505b5090505b8415610ca35761167e6001836123ec565b915061168b600a866123ff565b611696906030612413565b60f81b8183815181106116ab576116ab61205e565b60200101906001600160f81b031916908160001a9053506116cd600a866123d8565b945061166d565b61051483838361199d565b60008181526001830160205260408120548015610e3d578354600090859060001981019081106117115761171161205e565b90600052602060002001549050808560000160018403815481106117375761173761205e565b600091825260208083209091019290925591825260018601905260409020819055835484908061176957611769612426565b60008281526020808220830160001990810183905590920190925593815260019485019093525050604081205590565b600081815260018301602052604081205461043a575081546001808201845560008481526020808220909301849055845493815293810190915260409092205590565b6000828152600184016020526040812054808203611843575050604080518082018252838152602080820184815286546001818101895560008981528481209551600290930290950191825591519082015586548684528188019092529290912055610561565b8285600001600183038154811061185c5761185c61205e565b9060005260206000209060020201600101819055506000915050610561565b8154600090821061189f5760405163e637bf3b60e01b815260040160405180910390fd5b8260000182815481106118b4576118b461205e565b9060005260206000200154905092915050565b8154600090819083106118ed5760405163022fd82760e31b815260040160405180910390fd5b60008460000184815481106119045761190461205e565b906000526020600020906002020190508060000154816001015492509250509250929050565b600081815260018301602052604081205480820361195b57604051633d547ec560e21b815260040160405180910390fd5b8360000160018203815481106119735761197361205e565b90600052602060002090600202016001015491505092915050565b6060610ca384846000856119e1565b6001600160a01b0382166105145760008181527f99574a7094154bb123ae6ae102096f0bf9679b85a5cd1e727aaa0ae5f132e6b46020526040812061051491611a9e565b6060843b611a0257604051632270d6bf60e21b815260040160405180910390fd5b600080866001600160a01b03168587604051611a1e919061243c565b60006040518083038185875af1925050503d8060008114611a5b576040519150601f19603f3d011682016040523d82523d6000602084013e611a60565b606091505b50915091508115611a74579150610ca39050565b805115611a845780518082602001fd5b8360405162461bcd60e51b81526004016106f99190611b77565b508054611aaa906121a5565b6000825580601f10611aba575050565b601f016020900490600052602060002090810190611ad89190611adb565b50565b5b80821115611af05760008155600101611adc565b5090565b6001600160e01b031981168114611ad857600080fd5b600060208284031215611b1c57600080fd5b813561056181611af4565b60005b83811015611b42578181015183820152602001611b2a565b50506000910152565b60008151808452611b63816020860160208601611b27565b601f01601f19169290920160200192915050565b6020815260006105616020830184611b4b565b600060208284031215611b9c57600080fd5b5035919050565b80356001600160a01b0381168114611bba57600080fd5b919050565b60008060408385031215611bd257600080fd5b611bdb83611ba3565b946020939093013593505050565b600080600060608486031215611bfe57600080fd5b611c0784611ba3565b9250611c1560208501611ba3565b9150604084013590509250925092565b600060208284031215611c3757600080fd5b61056182611ba3565b8015158114611ad857600080fd5b60008060408385031215611c6157600080fd5b611c6a83611ba3565b91506020830135611c7a81611c40565b809150509250929050565b634e487b7160e01b600052604160045260246000fd5b600067ffffffffffffffff80841115611cb657611cb6611c85565b604051601f8501601f19908116603f01168101908282118183101715611cde57611cde611c85565b81604052809350858152868686011115611cf757600080fd5b858560208301376000602087830101525050509392505050565b60008060008060808587031215611d2757600080fd5b611d3085611ba3565b9350611d3e60208601611ba3565b925060408501359150606085013567ffffffffffffffff811115611d6157600080fd5b8501601f81018713611d7257600080fd5b611d8187823560208401611c9b565b91505092959194509250565b60008083601f840112611d9f57600080fd5b50813567ffffffffffffffff811115611db757600080fd5b6020830191508360208260051b850101111561147957600080fd5b60008083601f840112611de457600080fd5b50813567ffffffffffffffff811115611dfc57600080fd5b60208301915083602082850101111561147957600080fd5b60008060008060008060008060a0898b031215611e3057600080fd5b611e3989611ba3565b9750611e4760208a01611ba3565b9650604089013567ffffffffffffffff80821115611e6457600080fd5b611e708c838d01611d8d565b909850965060608b0135915080821115611e8957600080fd5b611e958c838d01611d8d565b909650945060808b0135915080821115611eae57600080fd5b50611ebb8b828c01611dd2565b999c989b5096995094979396929594505050565b600082601f830112611ee057600080fd5b61056183833560208501611c9b565b600080600080600080600060e0888a031215611f0a57600080fd5b611f1388611ba3565b965060208801359550611f2860408901611ba3565b9450611f3660608901611ba3565b9350608088013567ffffffffffffffff80821115611f5357600080fd5b611f5f8b838c01611ecf565b945060a08a0135915080821115611f7557600080fd5b611f818b838c01611ecf565b935060c08a0135915080821115611f9757600080fd5b50611fa48a828b01611ecf565b91505092959891949750929550565b60008060408385031215611fc657600080fd5b611fcf83611ba3565b9150611fdd60208401611ba3565b90509250929050565b60008060008060008060a08789031215611fff57600080fd5b61200887611ba3565b955061201660208801611ba3565b94506040870135935060608701359250608087013567ffffffffffffffff81111561204057600080fd5b61204c89828a01611dd2565b979a9699509497509295939492505050565b634e487b7160e01b600052603260045260246000fd5b6020808252603d9082015260008051602061250b83398151915260408201527f743a2063616e206f6e6c792072656365697665206f6e6520746f6b656e000000606082015260800190565b602080825260369082015260008051602061250b8339815191526040820152751d0e881b5d5cdd081899481a5b9a5d1a585b1a5e995960521b606082015260800190565b602080825260439082015260008051602061250b83398151915260408201527f743a2063616e6e6f7420616363657074207468697320746f6b656e206164647260608201526265737360e81b608082015260a00190565b6020808252603e9082015260008051602061250b83398151915260408201527f743a2063616e6e6f7420616363657074207468697320746f6b656e2049440000606082015260800190565b600181811c908216806121b957607f821691505b6020821081036121d957634e487b7160e01b600052602260045260246000fd5b50919050565b601f82111561051457600081815260208120601f850160051c810160208610156122065750805b601f850160051c820191505b8181101561222557828155600101612212565b505050505050565b815167ffffffffffffffff81111561224757612247611c85565b61225b8161225584546121a5565b846121df565b602080601f83116001811461229057600084156122785750858301515b600019600386901b1c1916600185901b178555612225565b600085815260208120601f198616915b828110156122bf578886015182559484019460019091019084016122a0565b50858210156122dd5787850151600019600388901b60f8161c191681555b5050505050600190811b01905550565b600083516122ff818460208801611b27565b835190830190612313818360208801611b27565b01949350505050565b60006020828403121561232e57600080fd5b815161056181611c40565b6001600160a01b038581168252841660208201526040810183905260806060820181905260009061236c90830184611b4b565b9695505050505050565b60006020828403121561238857600080fd5b815161056181611af4565b634e487b7160e01b600052601160045260246000fd5b6000600182016123bb576123bb612393565b5060010190565b634e487b7160e01b600052601260045260246000fd5b6000826123e7576123e76123c2565b500490565b8181038181111561043a5761043a612393565b60008261240e5761240e6123c2565b500690565b8082018082111561043a5761043a612393565b634e487b7160e01b600052603160045260246000fd5b6000825161244e818460208701611b27565b919091019291505056fe4552433732313a207472616e7366657220746f206e6f6e20455243373231526563656976657220696d706c656d656e7465723c7bf052874fa81625121783266a03507bd2cd48b16e571c01a04e8dd3fb07a879ec1734da2430052e9d78936f451aad707e5bed12ef4806b06dc3d0c38f0e303c7bf052874fa81625121783266a03507bd2cd48b16e571c01a04e8dd3fb07a699574a7094154bb123ae6ae102096f0bf9679b85a5cd1e727aaa0ae5f132e6b15772617070656445524331313535537465776172644c6963656e736546616365a26469706673582212209ced2ea08a3d34ff31149abb47826121d46e4bfb900a1bab40ff94dc7487a85b64736f6c63430008110033",
  "devdoc": {
    "details": "ERC-721 token license for Steward that wraps existing ERC-1155. Transfers are disabled during an auction.",
    "kind": "dev",
    "methods": {
      "approve(address,uint256)": {
        "params": {
          "operator": "address to be approved",
          "tokenId": "token to approve"
        }
      },
      "balanceOf(address)": {
        "returns": {
          "_0": "quantity of tokens held"
        }
      },
      "getApproved(uint256)": {
        "params": {
          "tokenId": "token to query"
        },
        "returns": {
          "_0": "address approved to spend token"
        }
      },
      "isApprovedForAll(address,address)": {
        "params": {
          "account": "address to query for approval granted",
          "operator": "address to query for approval received"
        },
        "returns": {
          "_0": "whether operator is approved to spend tokens held by account"
        }
      },
      "ownerOf(uint256)": {
        "params": {
          "tokenId": "token to query"
        },
        "returns": {
          "_0": "token owner"
        }
      },
      "safeTransferFrom(address,address,uint256)": {
        "params": {
          "from": "sender of token",
          "to": "receiver of token",
          "tokenId": "token id"
        }
      },
      "safeTransferFrom(address,address,uint256,bytes)": {
        "params": {
          "data": "data payload",
          "from": "sender of token",
          "to": "receiver of token",
          "tokenId": "token id"
        }
      },
      "setApprovalForAll(address,bool)": {
        "params": {
          "operator": "address to be approved",
          "status": "approval status"
        }
      },
      "supportsInterface(bytes4)": {
        "params": {
          "interfaceId": "interface id"
        },
        "returns": {
          "_0": "bool whether interface is supported"
        }
      },
      "tokenByIndex(uint256)": {
        "params": {
          "index": "position in global token list to query"
        },
        "returns": {
          "_0": "id of retrieved token"
        }
      },
      "tokenOfOwnerByIndex(address,uint256)": {
        "params": {
          "index": "position in owner's token list to query",
          "owner": "token holder to query"
        },
        "returns": {
          "_0": "id of retrieved token"
        }
      },
      "totalSupply()": {
        "returns": {
          "_0": "total supply"
        }
      },
      "transferFrom(address,address,uint256)": {
        "params": {
          "from": "sender of token",
          "to": "receiver of token",
          "tokenId": "token id"
        }
      }
    },
    "title": "WrappedERC1155StewardLicenseFacet",
    "version": 1
  },
  "userdoc": {
    "kind": "user",
    "methods": {
      "approve(address,uint256)": {
        "notice": "grant approval to given account to spend token"
      },
      "balanceOf(address)": {
        "notice": "query the balance of given address"
      },
      "exists(uint256)": {
        "notice": "Check if token exists"
      },
      "getApproved(uint256)": {
        "notice": "get approval status for given token"
      },
      "initializeWrappedStewardLicense(address,uint256,address,address,string,string,string)": {
        "notice": "Initialize license"
      },
      "isApprovedForAll(address,address)": {
        "notice": "query approval status of given operator with respect to given address"
      },
      "minter()": {
        "notice": "Get minter"
      },
      "name()": {
        "notice": "inheritdoc IERC721Metadata"
      },
      "ownerOf(uint256)": {
        "notice": "query the owner of given token"
      },
      "safeTransferFrom(address,address,uint256)": {
        "notice": "transfer token between given addresses, checking for ERC721Receiver implementation if applicable"
      },
      "safeTransferFrom(address,address,uint256,bytes)": {
        "notice": "transfer token between given addresses, checking for ERC721Receiver implementation if applicable"
      },
      "setApprovalForAll(address,bool)": {
        "notice": "grant approval to or revoke approval from given account to spend all tokens held by sender"
      },
      "supportsInterface(bytes4)": {
        "notice": "query whether contract has registered support for given interface"
      },
      "symbol()": {
        "notice": "inheritdoc IERC721Metadata"
      },
      "tokenByIndex(uint256)": {
        "notice": "get token at given internal storage index"
      },
      "tokenOfOwnerByIndex(address,uint256)": {
        "notice": "get token of given owner at given internal storage index"
      },
      "tokenURI(uint256)": {
        "notice": "inheritdoc IERC721Metadata"
      },
      "totalSupply()": {
        "notice": "get total token supply"
      },
      "transferFrom(address,address,uint256)": {
        "notice": "transfer token between given addresses, without checking for ERC721Receiver implementation if applicable"
      },
      "triggerTransfer(address,address,uint256)": {
        "notice": "Trigger transfer of license"
      }
    },
    "version": 1
  },
  "storageLayout": {
    "storage": [],
    "types": null
  }
}