{
  "address": "0x3F6ccDA70aA74B2c2B1137e8Dcfa26a1970ae87A",
  "abi": [
    {
      "inputs": [],
      "name": "AddressUtils__NotContract",
      "type": "error"
    },
    {
      "inputs": [],
      "name": "ERC165Base__InvalidInterfaceId",
      "type": "error"
    },
    {
      "inputs": [],
      "name": "ERC721Base__BalanceQueryZeroAddress",
      "type": "error"
    },
    {
      "inputs": [],
      "name": "ERC721Base__ERC721ReceiverNotImplemented",
      "type": "error"
    },
    {
      "inputs": [],
      "name": "ERC721Base__InvalidOwner",
      "type": "error"
    },
    {
      "inputs": [],
      "name": "ERC721Base__MintToZeroAddress",
      "type": "error"
    },
    {
      "inputs": [],
      "name": "ERC721Base__NonExistentToken",
      "type": "error"
    },
    {
      "inputs": [],
      "name": "ERC721Base__NotOwnerOrApproved",
      "type": "error"
    },
    {
      "inputs": [],
      "name": "ERC721Base__NotTokenOwner",
      "type": "error"
    },
    {
      "inputs": [],
      "name": "ERC721Base__SelfApproval",
      "type": "error"
    },
    {
      "inputs": [],
      "name": "ERC721Base__TokenAlreadyMinted",
      "type": "error"
    },
    {
      "inputs": [],
      "name": "ERC721Base__TransferToZeroAddress",
      "type": "error"
    },
    {
      "inputs": [],
      "name": "ERC721Metadata__NonExistentToken",
      "type": "error"
    },
    {
      "inputs": [],
      "name": "EnumerableMap__IndexOutOfBounds",
      "type": "error"
    },
    {
      "inputs": [],
      "name": "EnumerableMap__NonExistentKey",
      "type": "error"
    },
    {
      "inputs": [],
      "name": "EnumerableSet__IndexOutOfBounds",
      "type": "error"
    },
    {
      "anonymous": false,
      "inputs": [
        {
          "indexed": true,
          "internalType": "address",
          "name": "owner",
          "type": "address"
        },
        {
          "indexed": true,
          "internalType": "address",
          "name": "operator",
          "type": "address"
        },
        {
          "indexed": true,
          "internalType": "uint256",
          "name": "tokenId",
          "type": "uint256"
        }
      ],
      "name": "Approval",
      "type": "event"
    },
    {
      "anonymous": false,
      "inputs": [
        {
          "indexed": true,
          "internalType": "address",
          "name": "owner",
          "type": "address"
        },
        {
          "indexed": true,
          "internalType": "address",
          "name": "operator",
          "type": "address"
        },
        {
          "indexed": false,
          "internalType": "bool",
          "name": "approved",
          "type": "bool"
        }
      ],
      "name": "ApprovalForAll",
      "type": "event"
    },
    {
      "anonymous": false,
      "inputs": [
        {
          "indexed": true,
          "internalType": "address",
          "name": "from",
          "type": "address"
        },
        {
          "indexed": true,
          "internalType": "address",
          "name": "to",
          "type": "address"
        },
        {
          "indexed": true,
          "internalType": "uint256",
          "name": "tokenId",
          "type": "uint256"
        }
      ],
      "name": "Transfer",
      "type": "event"
    },
    {
      "inputs": [
        {
          "internalType": "address",
          "name": "to",
          "type": "address"
        },
        {
          "internalType": "string",
          "name": "tokenURI",
          "type": "string"
        }
      ],
      "name": "addTokenToCollection",
      "outputs": [],
      "stateMutability": "nonpayable",
      "type": "function"
    },
    {
      "inputs": [
        {
          "internalType": "string[]",
          "name": "tokenURIs",
          "type": "string[]"
        }
      ],
      "name": "addTokensToCollection",
      "outputs": [],
      "stateMutability": "nonpayable",
      "type": "function"
    },
    {
      "inputs": [
        {
          "internalType": "address[]",
          "name": "to",
          "type": "address[]"
        },
        {
          "internalType": "string[]",
          "name": "tokenURIs",
          "type": "string[]"
        }
      ],
      "name": "addTokensToCollection",
      "outputs": [],
      "stateMutability": "nonpayable",
      "type": "function"
    },
    {
      "inputs": [
        {
          "internalType": "uint32",
          "name": "amount",
          "type": "uint32"
        },
        {
          "internalType": "string",
          "name": "baseURI",
          "type": "string"
        }
      ],
      "name": "addTokensWithBaseURIToCollection",
      "outputs": [],
      "stateMutability": "nonpayable",
      "type": "function"
    },
    {
      "inputs": [
        {
          "internalType": "address",
          "name": "operator",
          "type": "address"
        },
        {
          "internalType": "uint256",
          "name": "tokenId",
          "type": "uint256"
        }
      ],
      "name": "approve",
      "outputs": [],
      "stateMutability": "payable",
      "type": "function"
    },
    {
      "inputs": [
        {
          "internalType": "address",
          "name": "account",
          "type": "address"
        }
      ],
      "name": "balanceOf",
      "outputs": [
        {
          "internalType": "uint256",
          "name": "",
          "type": "uint256"
        }
      ],
      "stateMutability": "view",
      "type": "function"
    },
    {
      "inputs": [
        {
          "internalType": "uint256",
          "name": "tokenId",
          "type": "uint256"
        }
      ],
      "name": "exists",
      "outputs": [
        {
          "internalType": "bool",
          "name": "",
          "type": "bool"
        }
      ],
      "stateMutability": "view",
      "type": "function"
    },
    {
      "inputs": [
        {
          "internalType": "uint256",
          "name": "tokenId",
          "type": "uint256"
        }
      ],
      "name": "getApproved",
      "outputs": [
        {
          "internalType": "address",
          "name": "",
          "type": "address"
        }
      ],
      "stateMutability": "view",
      "type": "function"
    },
    {
      "inputs": [
        {
          "internalType": "address",
          "name": "tokenAddress",
          "type": "address"
        },
        {
          "internalType": "uint256",
          "name": "tokenId",
          "type": "uint256"
        },
        {
          "internalType": "address",
          "name": "_minter",
          "type": "address"
        },
        {
          "internalType": "address",
          "name": "_steward",
          "type": "address"
        },
        {
          "internalType": "uint256",
          "name": "_maxTokenCount",
          "type": "uint256"
        },
        {
          "internalType": "string",
          "name": "name",
          "type": "string"
        },
        {
          "internalType": "string",
          "name": "symbol",
          "type": "string"
        },
        {
          "internalType": "string",
          "name": "tokenURI",
          "type": "string"
        }
      ],
      "name": "initializeWrappedStewardLicense",
      "outputs": [],
      "stateMutability": "nonpayable",
      "type": "function"
    },
    {
      "inputs": [
        {
          "internalType": "address",
          "name": "account",
          "type": "address"
        },
        {
          "internalType": "address",
          "name": "operator",
          "type": "address"
        }
      ],
      "name": "isApprovedForAll",
      "outputs": [
        {
          "internalType": "bool",
          "name": "",
          "type": "bool"
        }
      ],
      "stateMutability": "view",
      "type": "function"
    },
    {
      "inputs": [],
      "name": "maxTokenCount",
      "outputs": [
        {
          "internalType": "uint256",
          "name": "",
          "type": "uint256"
        }
      ],
      "stateMutability": "view",
      "type": "function"
    },
    {
      "inputs": [
        {
          "internalType": "address",
          "name": "to",
          "type": "address"
        },
        {
          "internalType": "uint256",
          "name": "tokenId",
          "type": "uint256"
        }
      ],
      "name": "mintToken",
      "outputs": [],
      "stateMutability": "nonpayable",
      "type": "function"
    },
    {
      "inputs": [],
      "name": "minter",
      "outputs": [
        {
          "internalType": "address",
          "name": "",
          "type": "address"
        }
      ],
      "stateMutability": "view",
      "type": "function"
    },
    {
      "inputs": [],
      "name": "name",
      "outputs": [
        {
          "internalType": "string",
          "name": "",
          "type": "string"
        }
      ],
      "stateMutability": "view",
      "type": "function"
    },
    {
      "inputs": [
        {
          "internalType": "address",
          "name": "",
          "type": "address"
        },
        {
          "internalType": "address",
          "name": "",
          "type": "address"
        },
        {
          "internalType": "uint256[]",
          "name": "ids",
          "type": "uint256[]"
        },
        {
          "internalType": "uint256[]",
          "name": "values",
          "type": "uint256[]"
        },
        {
          "internalType": "bytes",
          "name": "",
          "type": "bytes"
        }
      ],
      "name": "onERC1155BatchReceived",
      "outputs": [
        {
          "internalType": "bytes4",
          "name": "",
          "type": "bytes4"
        }
      ],
      "stateMutability": "view",
      "type": "function"
    },
    {
      "inputs": [
        {
          "internalType": "address",
          "name": "",
          "type": "address"
        },
        {
          "internalType": "address",
          "name": "",
          "type": "address"
        },
        {
          "internalType": "uint256",
          "name": "id",
          "type": "uint256"
        },
        {
          "internalType": "uint256",
          "name": "value",
          "type": "uint256"
        },
        {
          "internalType": "bytes",
          "name": "",
          "type": "bytes"
        }
      ],
      "name": "onERC1155Received",
      "outputs": [
        {
          "internalType": "bytes4",
          "name": "",
          "type": "bytes4"
        }
      ],
      "stateMutability": "view",
      "type": "function"
    },
    {
      "inputs": [
        {
          "internalType": "uint256",
          "name": "tokenId",
          "type": "uint256"
        }
      ],
      "name": "ownerOf",
      "outputs": [
        {
          "internalType": "address",
          "name": "",
          "type": "address"
        }
      ],
      "stateMutability": "view",
      "type": "function"
    },
    {
      "inputs": [
        {
          "internalType": "address",
          "name": "from",
          "type": "address"
        },
        {
          "internalType": "address",
          "name": "to",
          "type": "address"
        },
        {
          "internalType": "uint256",
          "name": "tokenId",
          "type": "uint256"
        }
      ],
      "name": "safeTransferFrom",
      "outputs": [],
      "stateMutability": "payable",
      "type": "function"
    },
    {
      "inputs": [
        {
          "internalType": "address",
          "name": "from",
          "type": "address"
        },
        {
          "internalType": "address",
          "name": "to",
          "type": "address"
        },
        {
          "internalType": "uint256",
          "name": "tokenId",
          "type": "uint256"
        },
        {
          "internalType": "bytes",
          "name": "data",
          "type": "bytes"
        }
      ],
      "name": "safeTransferFrom",
      "outputs": [],
      "stateMutability": "payable",
      "type": "function"
    },
    {
      "inputs": [
        {
          "internalType": "address",
          "name": "operator",
          "type": "address"
        },
        {
          "internalType": "bool",
          "name": "status",
          "type": "bool"
        }
      ],
      "name": "setApprovalForAll",
      "outputs": [],
      "stateMutability": "nonpayable",
      "type": "function"
    },
    {
      "inputs": [
        {
          "internalType": "bytes4",
          "name": "interfaceId",
          "type": "bytes4"
        }
      ],
      "name": "supportsInterface",
      "outputs": [
        {
          "internalType": "bool",
          "name": "",
          "type": "bool"
        }
      ],
      "stateMutability": "view",
      "type": "function"
    },
    {
      "inputs": [],
      "name": "symbol",
      "outputs": [
        {
          "internalType": "string",
          "name": "",
          "type": "string"
        }
      ],
      "stateMutability": "view",
      "type": "function"
    },
    {
      "inputs": [
        {
          "internalType": "uint256",
          "name": "index",
          "type": "uint256"
        }
      ],
      "name": "tokenByIndex",
      "outputs": [
        {
          "internalType": "uint256",
          "name": "",
          "type": "uint256"
        }
      ],
      "stateMutability": "view",
      "type": "function"
    },
    {
      "inputs": [
        {
          "internalType": "address",
          "name": "owner",
          "type": "address"
        },
        {
          "internalType": "uint256",
          "name": "index",
          "type": "uint256"
        }
      ],
      "name": "tokenOfOwnerByIndex",
      "outputs": [
        {
          "internalType": "uint256",
          "name": "",
          "type": "uint256"
        }
      ],
      "stateMutability": "view",
      "type": "function"
    },
    {
      "inputs": [
        {
          "internalType": "uint256",
          "name": "tokenId",
          "type": "uint256"
        }
      ],
      "name": "tokenURI",
      "outputs": [
        {
          "internalType": "string",
          "name": "",
          "type": "string"
        }
      ],
      "stateMutability": "view",
      "type": "function"
    },
    {
      "inputs": [],
      "name": "totalSupply",
      "outputs": [
        {
          "internalType": "uint256",
          "name": "",
          "type": "uint256"
        }
      ],
      "stateMutability": "view",
      "type": "function"
    },
    {
      "inputs": [
        {
          "internalType": "address",
          "name": "from",
          "type": "address"
        },
        {
          "internalType": "address",
          "name": "to",
          "type": "address"
        },
        {
          "internalType": "uint256",
          "name": "tokenId",
          "type": "uint256"
        }
      ],
      "name": "transferFrom",
      "outputs": [],
      "stateMutability": "payable",
      "type": "function"
    },
    {
      "inputs": [
        {
          "internalType": "address",
          "name": "from",
          "type": "address"
        },
        {
          "internalType": "address",
          "name": "to",
          "type": "address"
        },
        {
          "internalType": "uint256",
          "name": "tokenId",
          "type": "uint256"
        }
      ],
      "name": "triggerTransfer",
      "outputs": [],
      "stateMutability": "nonpayable",
      "type": "function"
    }
  ],
  "transactionHash": "0x0263efcab6c5d7f0e275996ed288ca50de51237ac04ce928201944a706b16308",
  "args": [],
  "numDeployments": 4,
  "solcInputHash": "f5a6faf7fccd475b8524834616b2522c",
  "bytecode": "0x608060405234801561001057600080fd5b5061312c806100206000396000f3fe6080604052600436106101b75760003560e01c80636a2e019f116100ec578063c4e627c21161008a578063e95a272f11610064578063e95a272f146104b4578063e985e9c5146104d4578063f23a6e61146104f4578063f42c01651461051457600080fd5b8063c4e627c21461045f578063c87b56dd14610474578063e31a7c011461049457600080fd5b806395d89b41116100c657806395d89b41146103de578063a22cb465146103f3578063b88d4fde14610413578063bc197c811461042657600080fd5b80636a2e019f1461037e57806370a082311461039e57806379c65068146103be57600080fd5b8063269aab0e116101595780634a7c554f116101335780634a7c554f146102fe5780634f558e791461031e5780634f6ccce71461033e5780636352211e1461035e57600080fd5b8063269aab0e146102ab5780632f745c59146102cb57806342842e0e146102eb57600080fd5b8063081812fc11610195578063081812fc14610240578063095ea7b31461026057806318160ddd1461027557806323b872dd1461029857600080fd5b806301ffc9a7146101bc57806306fdde03146101f15780630754617214610213575b600080fd5b3480156101c857600080fd5b506101dc6101d73660046123b0565b610534565b60405190151581526020015b60405180910390f35b3480156101fd57600080fd5b50610206610577565b6040516101e8919061241d565b34801561021f57600080fd5b50610228610586565b6040516001600160a01b0390911681526020016101e8565b34801561024c57600080fd5b5061022861025b366004612430565b6105b9565b61027361026e36600461246e565b6105c4565b005b34801561028157600080fd5b5061028a610650565b6040519081526020016101e8565b6102736102a636600461249a565b61065a565b3480156102b757600080fd5b506102736102c636600461264a565b61068c565b3480156102d757600080fd5b5061028a6102e636600461246e565b61076d565b6102736102f936600461249a565b610780565b34801561030a57600080fd5b5061027361031936600461267e565b61079b565b34801561032a57600080fd5b506101dc610339366004612430565b6108e9565b34801561034a57600080fd5b5061028a610359366004612430565b6108f4565b34801561036a57600080fd5b50610228610379366004612430565b6108ff565b34801561038a57600080fd5b5061027361039936600461273f565b61090a565b3480156103aa57600080fd5b5061028a6103b9366004612784565b610a0a565b3480156103ca57600080fd5b506102736103d936600461246e565b610a15565b3480156103ea57600080fd5b50610206610c49565b3480156103ff57600080fd5b5061027361040e3660046127af565b610c53565b6102736104213660046127e8565b610d07565b34801561043257600080fd5b506104466104413660046128ec565b610d40565b6040516001600160e01b031990911681526020016101e8565b34801561046b57600080fd5b5061028a610e7e565b34801561048057600080fd5b5061020661048f366004612430565b610e96565b3480156104a057600080fd5b506102736104af36600461249a565b610ea1565b3480156104c057600080fd5b506102736104cf3660046129aa565b610f36565b3480156104e057600080fd5b506101dc6104ef3660046129d1565b610ffa565b34801561050057600080fd5b5061044661050f3660046129ff565b611006565b34801561052057600080fd5b5061027361052f366004612a7a565b6110f8565b6001600160e01b0319811660009081527ffc606c433378e3a7e0a6a531deac289b66caa1b4aa8554fd4ab2c6f1570f92d8602052604081205460ff165b92915050565b60606105816111db565b905090565b60006105817f79ec1734da2430052e9d78936f451aad707e5bed12ef4806b06dc3d0c38f0e31546001600160a01b031690565b60006105718261127a565b60006105cf826108ff565b9050806001600160a01b0316836001600160a01b0316036106035760405163424a22cb60e01b815260040160405180910390fd5b336001600160a01b0382161480159061062357506106218133610ffa565b155b1561064157604051632f5de44f60e01b815260040160405180910390fd5b61064b83836112dd565b505050565b600061058161136a565b6106643382611383565b61068157604051632f5de44f60e01b815260040160405180910390fd5b61064b838383611409565b306001600160a01b0316633882ce8e6040518163ffffffff1660e01b8152600401602060405180830381865afa1580156106ca573d6000803e3d6000fd5b505050506040513d601f19601f820116820180604052508101906106ee9190612b47565b6001600160a01b0316336001600160a01b0316146107275760405162461bcd60e51b815260040161071e90612b64565b60405180910390fd5b60005b815181101561076957610757600083838151811061074a5761074a612bcf565b6020026020010151611538565b8061076181612bfb565b91505061072a565b5050565b600061077983836115be565b9392505050565b61064b83838360405180602001604052806000815250610d07565b306001600160a01b0316633882ce8e6040518163ffffffff1660e01b8152600401602060405180830381865afa1580156107d9573d6000803e3d6000fd5b505050506040513d601f19601f820116820180604052508101906107fd9190612b47565b6001600160a01b0316336001600160a01b03161461082d5760405162461bcd60e51b815260040161071e90612b64565b805182511461089c5760405162461bcd60e51b815260206004820152603560248201527f537465776172644c6963656e736546616365743a20746f20616e6420746f6b656044820152740dcaaa492e640d8cadccee8d040dad2e6dac2e8c6d605b1b606482015260840161071e565b60005b815181101561064b576108d78382815181106108bd576108bd612bcf565b602002602001015183838151811061074a5761074a612bcf565b806108e181612bfb565b91505061089f565b6000610571826115ed565b600061057182611607565b600061057182611628565b306001600160a01b0316633882ce8e6040518163ffffffff1660e01b8152600401602060405180830381865afa158015610948573d6000803e3d6000fd5b505050506040513d601f19601f8201168201806040525081019061096c9190612b47565b6001600160a01b0316336001600160a01b031614610a005760405162461bcd60e51b8152602060048201526044602482018190527f537465776172644c6963656e736546616365743a206f6e6c7920696e69746961908201527f6c206269646465722063616e2061646420746f6b656e20746f20636f6c6c65636064820152633a34b7b760e11b608482015260a40161071e565b6107698282611538565b60006105718261166c565b306001600160a01b0316633882ce8e6040518163ffffffff1660e01b8152600401602060405180830381865afa158015610a53573d6000803e3d6000fd5b505050506040513d601f19601f82011682018060405250810190610a779190612b47565b6001600160a01b0316336001600160a01b031614610afd5760405162461bcd60e51b815260206004820152603760248201527f537465776172644c6963656e736546616365743a206f6e6c7920696e6974696160448201527f6c206269646465722063616e206d696e7420746f6b656e000000000000000000606482015260840161071e565b306001600160a01b031663be6a2a6d6040518163ffffffff1660e01b8152600401602060405180830381865afa158015610b3b573d6000803e3d6000fd5b505050506040513d601f19601f82011682018060405250810190610b5f9190612c14565b4210610bd5576040805162461bcd60e51b81526020600482015260248101919091527f537465776172644c6963656e736546616365743a2063616e6e6f74206d696e7460448201527f20616674657220696e697469616c20706572696f642073746172742074696d65606482015260840161071e565b610bde816115ed565b15610c3d5760405162461bcd60e51b815260206004820152602960248201527f537465776172644c6963656e736546616365743a20546f6b656e20616c72656160448201526864792065786973747360b81b606482015260840161071e565b610769600083836116c3565b60606105816116df565b336001600160a01b03831603610c7c5760405163424a22cb60e01b815260040160405180910390fd5b3360008181527f3c7bf052874fa81625121783266a03507bd2cd48b16e571c01a04e8dd3fb07aa602090815260408083206001600160a01b03871680855290835292819020805460ff191686151590811790915590519081529192917f17307eab39ab6107e8899845ad3d59bd9653f200f220920489ca2b5937696c31910160405180910390a35050565b610d113383611383565b610d2e57604051632f5de44f60e01b815260040160405180910390fd5b610d3a848484846116fe565b50505050565b6000600186148015610d525750600184145b8015610d77575084846000818110610d6c57610d6c612bcf565b905060200201356001145b610d935760405162461bcd60e51b815260040161071e90612c2d565b6000805160206130578339815191525460ff161515600114610dc75760405162461bcd60e51b815260040161071e90612c78565b7f4f3bc7155d2db681e29af52d1119e27d8b92f937da5bb676ae6155a2e77a3c6d546001600160a01b03163314610e105760405162461bcd60e51b815260040161071e90612cbc565b7f4f3bc7155d2db681e29af52d1119e27d8b92f937da5bb676ae6155a2e77a3c6e5487876000818110610e4557610e45612bcf565b9050602002013514610e695760405162461bcd60e51b815260040161071e90612d13565b5063bc197c8160e01b98975050505050505050565b60006105816000805160206130978339815191525490565b606061057182611732565b333014610f2b5760405162461bcd60e51b815260206004820152604c60248201527f4e6174697665537465776172644c6963656e73653a205472696767657220747260448201527f616e736665722063616e206f6e6c792062652063616c6c65642066726f6d206160648201526b1b9bdd1a195c88199858d95d60a21b608482015260a40161071e565b61064b8383836116c3565b306001600160a01b0316633882ce8e6040518163ffffffff1660e01b8152600401602060405180830381865afa158015610f74573d6000803e3d6000fd5b505050506040513d601f19601f82011682018060405250810190610f989190612b47565b6001600160a01b0316336001600160a01b031614610fc85760405162461bcd60e51b815260040161071e90612b64565b60005b8263ffffffff168163ffffffff16101561064b57610fe882611916565b80610ff281612d5e565b915050610fcb565b600061077983836119a8565b6000836001146110285760405162461bcd60e51b815260040161071e90612c2d565b6000805160206130578339815191525460ff16151560011461105c5760405162461bcd60e51b815260040161071e90612c78565b7f4f3bc7155d2db681e29af52d1119e27d8b92f937da5bb676ae6155a2e77a3c6d546001600160a01b031633146110a55760405162461bcd60e51b815260040161071e90612cbc565b7f4f3bc7155d2db681e29af52d1119e27d8b92f937da5bb676ae6155a2e77a3c6e5485146110e55760405162461bcd60e51b815260040161071e90612d13565b5063f23a6e6160e01b9695505050505050565b6000805160206130578339815191525460ff16156111655760405162461bcd60e51b815260206004820152603660248201526000805160206130d78339815191526044820152751d0e88185b1c9958591e481a5b9a5d1a585b1a5e995960521b606482015260840161071e565b7f4f3bc7155d2db681e29af52d1119e27d8b92f937da5bb676ae6155a2e77a3c6d80546001600160a01b0319166001600160a01b038a161790557f4f3bc7155d2db681e29af52d1119e27d8b92f937da5bb676ae6155a2e77a3c6e8790556111d18686868686866119f5565b5050505050505050565b60606000805160206130b783398151915280546111f790612d81565b80601f016020809104026020016040519081016040528092919081815260200182805461122390612d81565b80156112705780601f1061124557610100808354040283529160200191611270565b820191906000526020600020905b81548152906001019060200180831161125357829003601f168201915b5050505050905090565b6000611285826115ed565b6112a25760405163c1b843ef60e01b815260040160405180910390fd5b5060009081527f3c7bf052874fa81625121783266a03507bd2cd48b16e571c01a04e8dd3fb07a960205260409020546001600160a01b031690565b60008181527f3c7bf052874fa81625121783266a03507bd2cd48b16e571c01a04e8dd3fb07a96020526040902080546001600160a01b0319166001600160a01b038416908117909155819061133182611628565b6001600160a01b03167f8c5be1e5ebec7d5bd14f71427d1e84f3dd0314c0f7b2291e5b200ac8c7c3b92560405160405180910390a45050565b6000610581600080516020613077833981519152611ad5565b600061138e826115ed565b6113ab5760405163c1b843ef60e01b815260040160405180910390fd5b60006113b683611628565b9050806001600160a01b0316846001600160a01b031614806113f15750836001600160a01b03166113e68461127a565b6001600160a01b0316145b80611401575061140181856119a8565b949350505050565b826001600160a01b031661141c82611628565b6001600160a01b03161461144357604051630f2db4ad60e01b815260040160405180910390fd5b6001600160a01b03821661146a576040516340311a0960e01b815260040160405180910390fd5b611475838383611adf565b6114806000826112dd565b6001600160a01b038316600090815260008051602061303783398151915260205260409020600080516020613077833981519152906114bf9083611bd4565b506001600160a01b038316600090815260028201602052604090206114e49083611be0565b506114f0818385611bec565b5081836001600160a01b0316856001600160a01b03167fddf252ad1be2c89b69c2b068fc378daa952ba7f163c4a11628f55a4df523b3ef60405160405180910390a450505050565b60008051602061309783398151915280546000805160206130578339815191529160019060006115688385612dbb565b909155505060008181527f99574a7094154bb123ae6ae102096f0bf9679b85a5cd1e727aaa0ae5f132e6b4602052604090206115a48482612e1c565b506001600160a01b03841615610d3a57610d3a8482611c02565b6001600160a01b0382166000908152600080516020613037833981519152602052604081206107799083611ce5565b600061057160008051602061307783398151915283611cf1565b600061162160008051602061307783398151915283611d09565b5092915050565b60008061164360008051602061307783398151915284611d27565b90506001600160a01b03811661057157604051637e1a7d8b60e01b815260040160405180910390fd5b60006001600160a01b03821661169557604051630810ff9760e41b815260040160405180910390fd5b6001600160a01b03821660009081526000805160206130378339815191526020526040902061057190611ad5565b6116cc816115ed565b15156000036106815761064b8282611c02565b60606000805160206130b783398151915260010180546111f790612d81565b611709848484611409565b61171584848484611d33565b610d3a57604051639ff10cdd60e01b815260040160405180910390fd5b6000805160206130978339815191525460609060008051602061305783398151915290831061177357604051624705a760e71b815260040160405180910390fd5b60008381527f99574a7094154bb123ae6ae102096f0bf9679b85a5cd1e727aaa0ae5f132e6b46020526040812080546000805160206130b78339815191529291906117bd90612d81565b80601f01602080910402602001604051908101604052809291908181526020018280546117e990612d81565b80156118365780601f1061180b57610100808354040283529160200191611836565b820191906000526020600020905b81548152906001019060200180831161181957829003601f168201915b50505050509050600082600201805461184e90612d81565b80601f016020809104026020016040519081016040528092919081815260200182805461187a90612d81565b80156118c75780601f1061189c576101008083540402835291602001916118c7565b820191906000526020600020905b8154815290600101906020018083116118aa57829003601f168201915b505050505090506000825111156118e15750949350505050565b806118eb87611e04565b6040516020016118fc929190612edb565b604051602081830303815290604052945050505050919050565b60008051602061309783398151915280546000805160206130578339815191529160019060006119468385612dbb565b9091555083905061195682611e04565b604051602001611967929190612edb565b60405160208183030381529060405261198b6000805160206130b783398151915290565b60008381526003919091016020526040902090610d3a9082612e1c565b6001600160a01b0391821660009081527f3c7bf052874fa81625121783266a03507bd2cd48b16e571c01a04e8dd3fb07aa6020908152604080832093909416825291909152205460ff1690565b60008051602061305783398151915280546001600160a01b03878116610100026001600160a81b03199092169190911760011782557f79ec1734da2430052e9d78936f451aad707e5bed12ef4806b06dc3d0c38f0e3180549189166001600160a01b031990921691909117905560008051602061309783398151915285905560006000805160206130b7833981519152905080611a928682612e1c565b5060018101611aa18582612e1c565b5060028101611ab08482612e1c565b50611ac36301ffc9a760e01b6001611f04565b6111d16380ac58cd60e01b6001611f04565b6000610571825490565b6001600160a01b03831615611bc95760405163a7c12c1160e01b815260048101829052600090309063a7c12c1190602401602060405180830381865afa158015611b2d573d6000803e3d6000fd5b505050506040513d601f19601f82011682018060405250810190611b519190612f0a565b90508015611bc75760405162461bcd60e51b815260206004820152603a60248201527f537465776172644c6963656e736546616365743a2043616e6e6f74207472616e60448201527f7366657220647572696e672061756374696f6e20706572696f64000000000000606482015260840161071e565b505b61064b838383611f7a565b60006107798383611f85565b6000610779838361203f565b600061140184846001600160a01b038516612082565b6001600160a01b038216611c29576040516311f2988d60e11b815260040160405180910390fd5b611c32816115ed565b15611c5057604051630d86bb7b60e31b815260040160405180910390fd5b611c5c60008383611adf565b6001600160a01b03821660009081526000805160206130378339815191526020526040902060008051602061307783398151915290611c9b9083611be0565b50611ca7818385611bec565b5060405182906001600160a01b038516906000907fddf252ad1be2c89b69c2b068fc378daa952ba7f163c4a11628f55a4df523b3ef908290a4505050565b60006107798383612121565b60008181526001830160205260408120541515610779565b6000808080611d18868661216d565b909450925050505b9250929050565b600061077983836121d0565b60006001600160a01b0384163b611d4c57506001611401565b6000611dcd63150b7a0260e01b33888787604051602401611d709493929190612f27565b604051602081830303815290604052906001600160e01b0319166020820180516001600160e01b038381831617835250505050604051806060016040528060328152602001613005603291396001600160a01b0388169190612234565b9050600081806020019051810190611de59190612f64565b6001600160e01b031916630a85bd0160e11b1492505050949350505050565b606081600003611e2b5750506040805180820190915260018152600360fc1b602082015290565b8160005b8115611e555780611e3f81612bfb565b9150611e4e9050600a83612f97565b9150611e2f565b6000816001600160401b03811115611e6f57611e6f6124db565b6040519080825280601f01601f191660200182016040528015611e99576020820181803683370190505b5090505b841561140157611eae600183612fab565b9150611ebb600a86612fbe565b611ec6906030612dbb565b60f81b818381518110611edb57611edb612bcf565b60200101906001600160f81b031916908160001a905350611efd600a86612f97565b9450611e9d565b6001600160e01b03198083169003611f2f5760405163b0a19dd560e01b815260040160405180910390fd5b6001600160e01b03199190911660009081527ffc606c433378e3a7e0a6a531deac289b66caa1b4aa8554fd4ab2c6f1570f92d860205260409020805460ff1916911515919091179055565b61064b838383612243565b6000818152600183016020526040812054801561162157835460009085906000198101908110611fb757611fb7612bcf565b9060005260206000200154905080856000016001840381548110611fdd57611fdd612bcf565b600091825260208083209091019290925591825260018601905260409020819055835484908061200f5761200f612fd2565b60008281526020808220830160001990810183905590920190925593815260019485019093525050604081205590565b6000818152600183016020526040812054610571575081546001808201845560008481526020808220909301849055845493815293810190915260409092205590565b60008281526001840160205260408120548082036120e9575050604080518082018252838152602080820184815286546001818101895560008981528481209551600290930290950191825591519082015586548684528188019092529290912055610779565b8285600001600183038154811061210257612102612bcf565b9060005260206000209060020201600101819055506000915050610779565b815460009082106121455760405163e637bf3b60e01b815260040160405180910390fd5b82600001828154811061215a5761215a612bcf565b9060005260206000200154905092915050565b8154600090819083106121935760405163022fd82760e31b815260040160405180910390fd5b60008460000184815481106121aa576121aa612bcf565b906000526020600020906002020190508060000154816001015492509250509250929050565b600081815260018301602052604081205480820361220157604051633d547ec560e21b815260040160405180910390fd5b83600001600182038154811061221957612219612bcf565b90600052602060002090600202016001015491505092915050565b60606114018484600085612287565b6001600160a01b03821661064b5760008181527f99574a7094154bb123ae6ae102096f0bf9679b85a5cd1e727aaa0ae5f132e6b46020526040812061064b91612344565b6060843b6122a857604051632270d6bf60e21b815260040160405180910390fd5b600080866001600160a01b031685876040516122c49190612fe8565b60006040518083038185875af1925050503d8060008114612301576040519150601f19603f3d011682016040523d82523d6000602084013e612306565b606091505b5091509150811561231a5791506114019050565b80511561232a5780518082602001fd5b8360405162461bcd60e51b815260040161071e919061241d565b50805461235090612d81565b6000825580601f10612360575050565b601f01602090049060005260206000209081019061237e9190612381565b50565b5b808211156123965760008155600101612382565b5090565b6001600160e01b03198116811461237e57600080fd5b6000602082840312156123c257600080fd5b81356107798161239a565b60005b838110156123e85781810151838201526020016123d0565b50506000910152565b600081518084526124098160208601602086016123cd565b601f01601f19169290920160200192915050565b60208152600061077960208301846123f1565b60006020828403121561244257600080fd5b5035919050565b6001600160a01b038116811461237e57600080fd5b803561246981612449565b919050565b6000806040838503121561248157600080fd5b823561248c81612449565b946020939093013593505050565b6000806000606084860312156124af57600080fd5b83356124ba81612449565b925060208401356124ca81612449565b929592945050506040919091013590565b634e487b7160e01b600052604160045260246000fd5b604051601f8201601f191681016001600160401b0381118282101715612519576125196124db565b604052919050565b60006001600160401b0382111561253a5761253a6124db565b5060051b60200190565b60006001600160401b0383111561255d5761255d6124db565b612570601f8401601f19166020016124f1565b905082815283838301111561258457600080fd5b828260208301376000602084830101529392505050565b600082601f8301126125ac57600080fd5b61077983833560208501612544565b600082601f8301126125cc57600080fd5b813560206125e16125dc83612521565b6124f1565b82815260059290921b8401810191818101908684111561260057600080fd5b8286015b8481101561263f5780356001600160401b038111156126235760008081fd5b6126318986838b010161259b565b845250918301918301612604565b509695505050505050565b60006020828403121561265c57600080fd5b81356001600160401b0381111561267257600080fd5b611401848285016125bb565b6000806040838503121561269157600080fd5b82356001600160401b03808211156126a857600080fd5b818501915085601f8301126126bc57600080fd5b813560206126cc6125dc83612521565b82815260059290921b840181019181810190898411156126eb57600080fd5b948201945b8386101561271257853561270381612449565b825294820194908201906126f0565b9650508601359250508082111561272857600080fd5b50612735858286016125bb565b9150509250929050565b6000806040838503121561275257600080fd5b823561275d81612449565b915060208301356001600160401b0381111561277857600080fd5b6127358582860161259b565b60006020828403121561279657600080fd5b813561077981612449565b801515811461237e57600080fd5b600080604083850312156127c257600080fd5b82356127cd81612449565b915060208301356127dd816127a1565b809150509250929050565b600080600080608085870312156127fe57600080fd5b843561280981612449565b9350602085013561281981612449565b92506040850135915060608501356001600160401b0381111561283b57600080fd5b8501601f8101871361284c57600080fd5b61285b87823560208401612544565b91505092959194509250565b60008083601f84011261287957600080fd5b5081356001600160401b0381111561289057600080fd5b6020830191508360208260051b8501011115611d2057600080fd5b60008083601f8401126128bd57600080fd5b5081356001600160401b038111156128d457600080fd5b602083019150836020828501011115611d2057600080fd5b60008060008060008060008060a0898b03121561290857600080fd5b883561291381612449565b9750602089013561292381612449565b965060408901356001600160401b038082111561293f57600080fd5b61294b8c838d01612867565b909850965060608b013591508082111561296457600080fd5b6129708c838d01612867565b909650945060808b013591508082111561298957600080fd5b506129968b828c016128ab565b999c989b5096995094979396929594505050565b600080604083850312156129bd57600080fd5b823563ffffffff8116811461275d57600080fd5b600080604083850312156129e457600080fd5b82356129ef81612449565b915060208301356127dd81612449565b60008060008060008060a08789031215612a1857600080fd5b8635612a2381612449565b95506020870135612a3381612449565b9450604087013593506060870135925060808701356001600160401b03811115612a5c57600080fd5b612a6889828a016128ab565b979a9699509497509295939492505050565b600080600080600080600080610100898b031215612a9757600080fd5b612aa08961245e565b975060208901359650612ab560408a0161245e565b9550612ac360608a0161245e565b94506080890135935060a08901356001600160401b0380821115612ae657600080fd5b612af28c838d0161259b565b945060c08b0135915080821115612b0857600080fd5b612b148c838d0161259b565b935060e08b0135915080821115612b2a57600080fd5b50612b378b828c0161259b565b9150509295985092959890939650565b600060208284031215612b5957600080fd5b815161077981612449565b60208082526045908201527f537465776172644c6963656e736546616365743a206f6e6c7920696e6974696160408201527f6c206269646465722063616e2061646420746f6b656e7320746f20636f6c6c6560608201526431ba34b7b760d91b608082015260a00190565b634e487b7160e01b600052603260045260246000fd5b634e487b7160e01b600052601160045260246000fd5b600060018201612c0d57612c0d612be5565b5060010190565b600060208284031215612c2657600080fd5b5051919050565b6020808252603d908201526000805160206130d783398151915260408201527f743a2063616e206f6e6c792072656365697665206f6e6520746f6b656e000000606082015260800190565b60208082526036908201526000805160206130d78339815191526040820152751d0e881b5d5cdd081899481a5b9a5d1a585b1a5e995960521b606082015260800190565b60208082526043908201526000805160206130d783398151915260408201527f743a2063616e6e6f7420616363657074207468697320746f6b656e206164647260608201526265737360e81b608082015260a00190565b6020808252603e908201526000805160206130d783398151915260408201527f743a2063616e6e6f7420616363657074207468697320746f6b656e2049440000606082015260800190565b600063ffffffff808316818103612d7757612d77612be5565b6001019392505050565b600181811c90821680612d9557607f821691505b602082108103612db557634e487b7160e01b600052602260045260246000fd5b50919050565b8082018082111561057157610571612be5565b601f82111561064b57600081815260208120601f850160051c81016020861015612df55750805b601f850160051c820191505b81811015612e1457828155600101612e01565b505050505050565b81516001600160401b03811115612e3557612e356124db565b612e4981612e438454612d81565b84612dce565b602080601f831160018114612e7e5760008415612e665750858301515b600019600386901b1c1916600185901b178555612e14565b600085815260208120601f198616915b82811015612ead57888601518255948401946001909101908401612e8e565b5085821015612ecb5787850151600019600388901b60f8161c191681555b5050505050600190811b01905550565b60008351612eed8184602088016123cd565b835190830190612f018183602088016123cd565b01949350505050565b600060208284031215612f1c57600080fd5b8151610779816127a1565b6001600160a01b0385811682528416602082015260408101839052608060608201819052600090612f5a908301846123f1565b9695505050505050565b600060208284031215612f7657600080fd5b81516107798161239a565b634e487b7160e01b600052601260045260246000fd5b600082612fa657612fa6612f81565b500490565b8181038181111561057157610571612be5565b600082612fcd57612fcd612f81565b500690565b634e487b7160e01b600052603160045260246000fd5b60008251612ffa8184602087016123cd565b919091019291505056fe4552433732313a207472616e7366657220746f206e6f6e20455243373231526563656976657220696d706c656d656e7465723c7bf052874fa81625121783266a03507bd2cd48b16e571c01a04e8dd3fb07a879ec1734da2430052e9d78936f451aad707e5bed12ef4806b06dc3d0c38f0e303c7bf052874fa81625121783266a03507bd2cd48b16e571c01a04e8dd3fb07a679ec1734da2430052e9d78936f451aad707e5bed12ef4806b06dc3d0c38f0e3299574a7094154bb123ae6ae102096f0bf9679b85a5cd1e727aaa0ae5f132e6b15772617070656445524331313535537465776172644c6963656e736546616365a2646970667358221220e76085eb3bad79e77a42afa744d9acb9c82b48bb870d6c5d96307c0e5408564764736f6c63430008110033",
  "devdoc": {
    "details": "ERC-721 token license for Steward that wraps existing ERC-1155. Transfers are disabled during an auction.",
    "kind": "dev",
    "methods": {
      "approve(address,uint256)": {
        "params": {
          "operator": "address to be approved",
          "tokenId": "token to approve"
        }
      },
      "balanceOf(address)": {
        "returns": {
          "_0": "quantity of tokens held"
        }
      },
      "getApproved(uint256)": {
        "params": {
          "tokenId": "token to query"
        },
        "returns": {
          "_0": "address approved to spend token"
        }
      },
      "isApprovedForAll(address,address)": {
        "params": {
          "account": "address to query for approval granted",
          "operator": "address to query for approval received"
        },
        "returns": {
          "_0": "whether operator is approved to spend tokens held by account"
        }
      },
      "ownerOf(uint256)": {
        "params": {
          "tokenId": "token to query"
        },
        "returns": {
          "_0": "token owner"
        }
      },
      "safeTransferFrom(address,address,uint256)": {
        "params": {
          "from": "sender of token",
          "to": "receiver of token",
          "tokenId": "token id"
        }
      },
      "safeTransferFrom(address,address,uint256,bytes)": {
        "params": {
          "data": "data payload",
          "from": "sender of token",
          "to": "receiver of token",
          "tokenId": "token id"
        }
      },
      "setApprovalForAll(address,bool)": {
        "params": {
          "operator": "address to be approved",
          "status": "approval status"
        }
      },
      "supportsInterface(bytes4)": {
        "params": {
          "interfaceId": "interface id"
        },
        "returns": {
          "_0": "bool whether interface is supported"
        }
      },
      "tokenByIndex(uint256)": {
        "params": {
          "index": "position in global token list to query"
        },
        "returns": {
          "_0": "id of retrieved token"
        }
      },
      "tokenOfOwnerByIndex(address,uint256)": {
        "params": {
          "index": "position in owner's token list to query",
          "owner": "token holder to query"
        },
        "returns": {
          "_0": "id of retrieved token"
        }
      },
      "totalSupply()": {
        "returns": {
          "_0": "total supply"
        }
      },
      "transferFrom(address,address,uint256)": {
        "params": {
          "from": "sender of token",
          "to": "receiver of token",
          "tokenId": "token id"
        }
      }
    },
    "title": "WrappedERC1155StewardLicenseFacet",
    "version": 1
  },
  "userdoc": {
    "kind": "user",
    "methods": {
      "addTokenToCollection(address,string)": {
        "notice": "Add token to collection"
      },
      "addTokensToCollection(address[],string[])": {
        "notice": "Add tokens to collection with to"
      },
      "addTokensToCollection(string[])": {
        "notice": "Add tokens to collection"
      },
      "addTokensWithBaseURIToCollection(uint32,string)": {
        "notice": "Add tokens to collection with baseURI"
      },
      "approve(address,uint256)": {
        "notice": "grant approval to given account to spend token"
      },
      "balanceOf(address)": {
        "notice": "query the balance of given address"
      },
      "exists(uint256)": {
        "notice": "Check if token exists"
      },
      "getApproved(uint256)": {
        "notice": "get approval status for given token"
      },
      "initializeWrappedStewardLicense(address,uint256,address,address,uint256,string,string,string)": {
        "notice": "Initialize license"
      },
      "isApprovedForAll(address,address)": {
        "notice": "query approval status of given operator with respect to given address"
      },
      "maxTokenCount()": {
        "notice": "Get max token count"
      },
      "mintToken(address,uint256)": {
        "notice": "Initial bidder can mint token if it doesn't exist"
      },
      "minter()": {
        "notice": "Get minter"
      },
      "name()": {
        "notice": "inheritdoc IERC721Metadata"
      },
      "ownerOf(uint256)": {
        "notice": "query the owner of given token"
      },
      "safeTransferFrom(address,address,uint256)": {
        "notice": "transfer token between given addresses, checking for ERC721Receiver implementation if applicable"
      },
      "safeTransferFrom(address,address,uint256,bytes)": {
        "notice": "transfer token between given addresses, checking for ERC721Receiver implementation if applicable"
      },
      "setApprovalForAll(address,bool)": {
        "notice": "grant approval to or revoke approval from given account to spend all tokens held by sender"
      },
      "supportsInterface(bytes4)": {
        "notice": "query whether contract has registered support for given interface"
      },
      "symbol()": {
        "notice": "inheritdoc IERC721Metadata"
      },
      "tokenByIndex(uint256)": {
        "notice": "get token at given internal storage index"
      },
      "tokenOfOwnerByIndex(address,uint256)": {
        "notice": "get token of given owner at given internal storage index"
      },
      "tokenURI(uint256)": {
        "notice": "inheritdoc IERC721Metadata"
      },
      "totalSupply()": {
        "notice": "get total token supply"
      },
      "transferFrom(address,address,uint256)": {
        "notice": "transfer token between given addresses, without checking for ERC721Receiver implementation if applicable"
      },
      "triggerTransfer(address,address,uint256)": {
        "notice": "Trigger transfer of license"
      }
    },
    "version": 1
  },
  "storageLayout": {
    "storage": [],
    "types": null
  }
}