{
  "address": "0x7498806e5fD83f17CEe4ceD6d047F82f704d5593",
  "abi": [
    {
      "inputs": [],
      "name": "AddressUtils__NotContract",
      "type": "error"
    },
    {
      "inputs": [],
      "name": "ERC165Base__InvalidInterfaceId",
      "type": "error"
    },
    {
      "inputs": [],
      "name": "ERC721Base__BalanceQueryZeroAddress",
      "type": "error"
    },
    {
      "inputs": [],
      "name": "ERC721Base__ERC721ReceiverNotImplemented",
      "type": "error"
    },
    {
      "inputs": [],
      "name": "ERC721Base__InvalidOwner",
      "type": "error"
    },
    {
      "inputs": [],
      "name": "ERC721Base__MintToZeroAddress",
      "type": "error"
    },
    {
      "inputs": [],
      "name": "ERC721Base__NonExistentToken",
      "type": "error"
    },
    {
      "inputs": [],
      "name": "ERC721Base__NotOwnerOrApproved",
      "type": "error"
    },
    {
      "inputs": [],
      "name": "ERC721Base__NotTokenOwner",
      "type": "error"
    },
    {
      "inputs": [],
      "name": "ERC721Base__SelfApproval",
      "type": "error"
    },
    {
      "inputs": [],
      "name": "ERC721Base__TokenAlreadyMinted",
      "type": "error"
    },
    {
      "inputs": [],
      "name": "ERC721Base__TransferToZeroAddress",
      "type": "error"
    },
    {
      "inputs": [],
      "name": "ERC721Metadata__NonExistentToken",
      "type": "error"
    },
    {
      "inputs": [],
      "name": "EnumerableMap__IndexOutOfBounds",
      "type": "error"
    },
    {
      "inputs": [],
      "name": "EnumerableMap__NonExistentKey",
      "type": "error"
    },
    {
      "inputs": [],
      "name": "EnumerableSet__IndexOutOfBounds",
      "type": "error"
    },
    {
      "inputs": [],
      "name": "UintUtils__InsufficientHexLength",
      "type": "error"
    },
    {
      "anonymous": false,
      "inputs": [
        {
          "indexed": true,
          "internalType": "address",
          "name": "owner",
          "type": "address"
        },
        {
          "indexed": true,
          "internalType": "address",
          "name": "operator",
          "type": "address"
        },
        {
          "indexed": true,
          "internalType": "uint256",
          "name": "tokenId",
          "type": "uint256"
        }
      ],
      "name": "Approval",
      "type": "event"
    },
    {
      "anonymous": false,
      "inputs": [
        {
          "indexed": true,
          "internalType": "address",
          "name": "owner",
          "type": "address"
        },
        {
          "indexed": true,
          "internalType": "address",
          "name": "operator",
          "type": "address"
        },
        {
          "indexed": false,
          "internalType": "bool",
          "name": "approved",
          "type": "bool"
        }
      ],
      "name": "ApprovalForAll",
      "type": "event"
    },
    {
      "anonymous": false,
      "inputs": [
        {
          "indexed": true,
          "internalType": "bytes32",
          "name": "role",
          "type": "bytes32"
        },
        {
          "indexed": true,
          "internalType": "bytes32",
          "name": "previousAdminRole",
          "type": "bytes32"
        },
        {
          "indexed": true,
          "internalType": "bytes32",
          "name": "newAdminRole",
          "type": "bytes32"
        }
      ],
      "name": "RoleAdminChanged",
      "type": "event"
    },
    {
      "anonymous": false,
      "inputs": [
        {
          "indexed": true,
          "internalType": "bytes32",
          "name": "role",
          "type": "bytes32"
        },
        {
          "indexed": true,
          "internalType": "address",
          "name": "account",
          "type": "address"
        },
        {
          "indexed": true,
          "internalType": "address",
          "name": "sender",
          "type": "address"
        }
      ],
      "name": "RoleGranted",
      "type": "event"
    },
    {
      "anonymous": false,
      "inputs": [
        {
          "indexed": true,
          "internalType": "bytes32",
          "name": "role",
          "type": "bytes32"
        },
        {
          "indexed": true,
          "internalType": "address",
          "name": "account",
          "type": "address"
        },
        {
          "indexed": true,
          "internalType": "address",
          "name": "sender",
          "type": "address"
        }
      ],
      "name": "RoleRevoked",
      "type": "event"
    },
    {
      "anonymous": false,
      "inputs": [
        {
          "indexed": true,
          "internalType": "address",
          "name": "from",
          "type": "address"
        },
        {
          "indexed": true,
          "internalType": "address",
          "name": "to",
          "type": "address"
        },
        {
          "indexed": true,
          "internalType": "uint256",
          "name": "tokenId",
          "type": "uint256"
        }
      ],
      "name": "Transfer",
      "type": "event"
    },
    {
      "inputs": [
        {
          "internalType": "address",
          "name": "to",
          "type": "address"
        },
        {
          "internalType": "string",
          "name": "tokenURI",
          "type": "string"
        }
      ],
      "name": "addTokenToCollection",
      "outputs": [],
      "stateMutability": "nonpayable",
      "type": "function"
    },
    {
      "inputs": [
        {
          "internalType": "string[]",
          "name": "tokenURIs",
          "type": "string[]"
        },
        {
          "internalType": "bool",
          "name": "shouldMint",
          "type": "bool"
        }
      ],
      "name": "addTokensToCollection",
      "outputs": [],
      "stateMutability": "nonpayable",
      "type": "function"
    },
    {
      "inputs": [
        {
          "internalType": "address[]",
          "name": "to",
          "type": "address[]"
        },
        {
          "internalType": "string[]",
          "name": "tokenURIs",
          "type": "string[]"
        }
      ],
      "name": "addTokensToCollection",
      "outputs": [],
      "stateMutability": "nonpayable",
      "type": "function"
    },
    {
      "inputs": [
        {
          "internalType": "uint32",
          "name": "amount",
          "type": "uint32"
        },
        {
          "internalType": "string",
          "name": "baseURI",
          "type": "string"
        },
        {
          "internalType": "bool",
          "name": "shouldMint",
          "type": "bool"
        }
      ],
      "name": "addTokensWithBaseURIToCollection",
      "outputs": [],
      "stateMutability": "nonpayable",
      "type": "function"
    },
    {
      "inputs": [
        {
          "internalType": "address",
          "name": "operator",
          "type": "address"
        },
        {
          "internalType": "uint256",
          "name": "tokenId",
          "type": "uint256"
        }
      ],
      "name": "approve",
      "outputs": [],
      "stateMutability": "payable",
      "type": "function"
    },
    {
      "inputs": [
        {
          "internalType": "address",
          "name": "account",
          "type": "address"
        }
      ],
      "name": "balanceOf",
      "outputs": [
        {
          "internalType": "uint256",
          "name": "",
          "type": "uint256"
        }
      ],
      "stateMutability": "view",
      "type": "function"
    },
    {
      "inputs": [
        {
          "internalType": "uint256",
          "name": "tokenId",
          "type": "uint256"
        }
      ],
      "name": "exists",
      "outputs": [
        {
          "internalType": "bool",
          "name": "",
          "type": "bool"
        }
      ],
      "stateMutability": "view",
      "type": "function"
    },
    {
      "inputs": [
        {
          "internalType": "uint256",
          "name": "tokenId",
          "type": "uint256"
        }
      ],
      "name": "getApproved",
      "outputs": [
        {
          "internalType": "address",
          "name": "",
          "type": "address"
        }
      ],
      "stateMutability": "view",
      "type": "function"
    },
    {
      "inputs": [
        {
          "internalType": "address",
          "name": "tokenAddress",
          "type": "address"
        },
        {
          "internalType": "uint256",
          "name": "tokenId",
          "type": "uint256"
        },
        {
          "internalType": "address",
          "name": "minter_",
          "type": "address"
        },
        {
          "internalType": "address",
          "name": "addToCollectionMinter_",
          "type": "address"
        },
        {
          "internalType": "address",
          "name": "steward_",
          "type": "address"
        },
        {
          "internalType": "uint256",
          "name": "maxTokenCount_",
          "type": "uint256"
        },
        {
          "internalType": "bool",
          "name": "shouldMint",
          "type": "bool"
        },
        {
          "internalType": "string",
          "name": "name",
          "type": "string"
        },
        {
          "internalType": "string",
          "name": "symbol",
          "type": "string"
        },
        {
          "internalType": "string",
          "name": "tokenURI",
          "type": "string"
        }
      ],
      "name": "initializeWrappedStewardLicense",
      "outputs": [],
      "stateMutability": "nonpayable",
      "type": "function"
    },
    {
      "inputs": [
        {
          "internalType": "address",
          "name": "account",
          "type": "address"
        },
        {
          "internalType": "address",
          "name": "operator",
          "type": "address"
        }
      ],
      "name": "isApprovedForAll",
      "outputs": [
        {
          "internalType": "bool",
          "name": "",
          "type": "bool"
        }
      ],
      "stateMutability": "view",
      "type": "function"
    },
    {
      "inputs": [],
      "name": "maxTokenCount",
      "outputs": [
        {
          "internalType": "uint256",
          "name": "",
          "type": "uint256"
        }
      ],
      "stateMutability": "view",
      "type": "function"
    },
    {
      "inputs": [
        {
          "internalType": "address",
          "name": "to",
          "type": "address"
        },
        {
          "internalType": "uint256",
          "name": "tokenId",
          "type": "uint256"
        }
      ],
      "name": "mintToken",
      "outputs": [],
      "stateMutability": "nonpayable",
      "type": "function"
    },
    {
      "inputs": [],
      "name": "minter",
      "outputs": [
        {
          "internalType": "address",
          "name": "",
          "type": "address"
        }
      ],
      "stateMutability": "view",
      "type": "function"
    },
    {
      "inputs": [],
      "name": "name",
      "outputs": [
        {
          "internalType": "string",
          "name": "",
          "type": "string"
        }
      ],
      "stateMutability": "view",
      "type": "function"
    },
    {
      "inputs": [
        {
          "internalType": "address",
          "name": "",
          "type": "address"
        },
        {
          "internalType": "address",
          "name": "",
          "type": "address"
        },
        {
          "internalType": "uint256[]",
          "name": "ids",
          "type": "uint256[]"
        },
        {
          "internalType": "uint256[]",
          "name": "values",
          "type": "uint256[]"
        },
        {
          "internalType": "bytes",
          "name": "",
          "type": "bytes"
        }
      ],
      "name": "onERC1155BatchReceived",
      "outputs": [
        {
          "internalType": "bytes4",
          "name": "",
          "type": "bytes4"
        }
      ],
      "stateMutability": "view",
      "type": "function"
    },
    {
      "inputs": [
        {
          "internalType": "address",
          "name": "",
          "type": "address"
        },
        {
          "internalType": "address",
          "name": "",
          "type": "address"
        },
        {
          "internalType": "uint256",
          "name": "id",
          "type": "uint256"
        },
        {
          "internalType": "uint256",
          "name": "value",
          "type": "uint256"
        },
        {
          "internalType": "bytes",
          "name": "",
          "type": "bytes"
        }
      ],
      "name": "onERC1155Received",
      "outputs": [
        {
          "internalType": "bytes4",
          "name": "",
          "type": "bytes4"
        }
      ],
      "stateMutability": "view",
      "type": "function"
    },
    {
      "inputs": [
        {
          "internalType": "uint256",
          "name": "tokenId",
          "type": "uint256"
        }
      ],
      "name": "ownerOf",
      "outputs": [
        {
          "internalType": "address",
          "name": "",
          "type": "address"
        }
      ],
      "stateMutability": "view",
      "type": "function"
    },
    {
      "inputs": [
        {
          "internalType": "address",
          "name": "from",
          "type": "address"
        },
        {
          "internalType": "address",
          "name": "to",
          "type": "address"
        },
        {
          "internalType": "uint256",
          "name": "tokenId",
          "type": "uint256"
        }
      ],
      "name": "safeTransferFrom",
      "outputs": [],
      "stateMutability": "payable",
      "type": "function"
    },
    {
      "inputs": [
        {
          "internalType": "address",
          "name": "from",
          "type": "address"
        },
        {
          "internalType": "address",
          "name": "to",
          "type": "address"
        },
        {
          "internalType": "uint256",
          "name": "tokenId",
          "type": "uint256"
        },
        {
          "internalType": "bytes",
          "name": "data",
          "type": "bytes"
        }
      ],
      "name": "safeTransferFrom",
      "outputs": [],
      "stateMutability": "payable",
      "type": "function"
    },
    {
      "inputs": [
        {
          "internalType": "address",
          "name": "operator",
          "type": "address"
        },
        {
          "internalType": "bool",
          "name": "status",
          "type": "bool"
        }
      ],
      "name": "setApprovalForAll",
      "outputs": [],
      "stateMutability": "nonpayable",
      "type": "function"
    },
    {
      "inputs": [
        {
          "internalType": "bytes4",
          "name": "interfaceId",
          "type": "bytes4"
        }
      ],
      "name": "supportsInterface",
      "outputs": [
        {
          "internalType": "bool",
          "name": "",
          "type": "bool"
        }
      ],
      "stateMutability": "view",
      "type": "function"
    },
    {
      "inputs": [],
      "name": "symbol",
      "outputs": [
        {
          "internalType": "string",
          "name": "",
          "type": "string"
        }
      ],
      "stateMutability": "view",
      "type": "function"
    },
    {
      "inputs": [
        {
          "internalType": "uint256",
          "name": "index",
          "type": "uint256"
        }
      ],
      "name": "tokenByIndex",
      "outputs": [
        {
          "internalType": "uint256",
          "name": "",
          "type": "uint256"
        }
      ],
      "stateMutability": "view",
      "type": "function"
    },
    {
      "inputs": [
        {
          "internalType": "address",
          "name": "owner",
          "type": "address"
        },
        {
          "internalType": "uint256",
          "name": "index",
          "type": "uint256"
        }
      ],
      "name": "tokenOfOwnerByIndex",
      "outputs": [
        {
          "internalType": "uint256",
          "name": "",
          "type": "uint256"
        }
      ],
      "stateMutability": "view",
      "type": "function"
    },
    {
      "inputs": [
        {
          "internalType": "uint256",
          "name": "tokenId",
          "type": "uint256"
        }
      ],
      "name": "tokenURI",
      "outputs": [
        {
          "internalType": "string",
          "name": "",
          "type": "string"
        }
      ],
      "stateMutability": "view",
      "type": "function"
    },
    {
      "inputs": [],
      "name": "totalSupply",
      "outputs": [
        {
          "internalType": "uint256",
          "name": "",
          "type": "uint256"
        }
      ],
      "stateMutability": "view",
      "type": "function"
    },
    {
      "inputs": [
        {
          "internalType": "address",
          "name": "from",
          "type": "address"
        },
        {
          "internalType": "address",
          "name": "to",
          "type": "address"
        },
        {
          "internalType": "uint256",
          "name": "tokenId",
          "type": "uint256"
        }
      ],
      "name": "transferFrom",
      "outputs": [],
      "stateMutability": "payable",
      "type": "function"
    },
    {
      "inputs": [
        {
          "internalType": "address",
          "name": "from",
          "type": "address"
        },
        {
          "internalType": "address",
          "name": "to",
          "type": "address"
        },
        {
          "internalType": "uint256",
          "name": "tokenId",
          "type": "uint256"
        }
      ],
      "name": "triggerTransfer",
      "outputs": [],
      "stateMutability": "nonpayable",
      "type": "function"
    }
  ],
  "transactionHash": "0x4ff5620061024fdc7d002d2ca6722a04a75980934578020f13b9037577d0c335",
  "args": [],
  "numDeployments": 12,
  "solcInputHash": "c548b1a12c4a5b4508c1d2fe38e3b576",
  "bytecode": "0x608060405234801561001057600080fd5b50613360806100206000396000f3fe6080604052600436106101b75760003560e01c80636352211e116100ec578063bc197c811161008a578063d111122f11610064578063d111122f146104b4578063e31a7c01146104d4578063e985e9c5146104f4578063f23a6e611461051457600080fd5b8063bc197c8114610446578063c4e627c21461047f578063c87b56dd1461049457600080fd5b806379c65068116100c657806379c65068146103de57806395d89b41146103fe578063a22cb46514610413578063b88d4fde1461043357600080fd5b80636352211e1461037e5780636a2e019f1461039e57806370a08231146103be57600080fd5b80632107ddfe1161015957806342842e0e1161013357806342842e0e1461030b5780634a7c554f1461031e5780634f558e791461033e5780634f6ccce71461035e57600080fd5b80632107ddfe146102b857806323b872dd146102d85780632f745c59146102eb57600080fd5b806307546172116101955780630754617214610235578063081812fc14610262578063095ea7b31461028257806318160ddd1461029557600080fd5b806301ffc9a7146101bc57806303e8224e146101f157806306fdde0314610213575b600080fd5b3480156101c857600080fd5b506101dc6101d7366004612516565b610534565b60405190151581526020015b60405180910390f35b3480156101fd57600080fd5b5061021161020c36600461262e565b610577565b005b34801561021f57600080fd5b50610228610663565b6040516101e8919061276e565b34801561024157600080fd5b5061024a610672565b6040516001600160a01b0390911681526020016101e8565b34801561026e57600080fd5b5061024a61027d366004612781565b6106a5565b61021161029036600461279a565b6106b0565b3480156102a157600080fd5b506102aa6106be565b6040519081526020016101e8565b3480156102c457600080fd5b506102116102d3366004612878565b6106c8565b6102116102e63660046128c9565b610759565b3480156102f757600080fd5b506102aa61030636600461279a565b610769565b6102116103193660046128c9565b61077c565b34801561032a57600080fd5b5061021161033936600461290a565b610787565b34801561034a57600080fd5b506101dc610359366004612781565b61085b565b34801561036a57600080fd5b506102aa610379366004612781565b610866565b34801561038a57600080fd5b5061024a610399366004612781565b610871565b3480156103aa57600080fd5b506102116103b93660046129cb565b61087c565b3480156103ca57600080fd5b506102aa6103d9366004612a10565b61089e565b3480156103ea57600080fd5b506102116103f936600461279a565b6108a9565b34801561040a57600080fd5b50610228610add565b34801561041f57600080fd5b5061021161042e366004612a2d565b610ae7565b610211610441366004612a5b565b610af1565b34801561045257600080fd5b50610466610461366004612b5f565b610afd565b6040516001600160e01b031990911681526020016101e8565b34801561048b57600080fd5b506102aa610c36565b3480156104a057600080fd5b506102286104af366004612781565b610c4e565b3480156104c057600080fd5b506102116104cf366004612c1d565b610c59565b3480156104e057600080fd5b506102116104ef3660046128c9565b610cab565b34801561050057600080fd5b506101dc61050f366004612c89565b610d40565b34801561052057600080fd5b5061046661052f366004612cb7565b610d4c565b6001600160e01b0319811660009081527ffc606c433378e3a7e0a6a531deac289b66caa1b4aa8554fd4ab2c6f1570f92d8602052604081205460ff165b92915050565b60008051602061326b8339815191525460ff16156105e95760405162461bcd60e51b815260206004820152603660248201526000805160206132eb8339815191526044820152751d0e88185b1c9958591e481a5b9a5d1a585b1a5e995960521b60648201526084015b60405180910390fd5b7f4f3bc7155d2db681e29af52d1119e27d8b92f937da5bb676ae6155a2e77a3c6d80546001600160a01b0319166001600160a01b038c161790557f4f3bc7155d2db681e29af52d1119e27d8b92f937da5bb676ae6155a2e77a3c6e8990556106578888888888888888610e39565b50505050505050505050565b606061066d610f6b565b905090565b600061066d7f79ec1734da2430052e9d78936f451aad707e5bed12ef4806b06dc3d0c38f0e31546001600160a01b031690565b60006105718261100a565b6106ba828261106d565b5050565b600061066d611165565b60008051602061330b8339815191526106e08161117e565b60005b835181101561075357600083156107195760008051602061326b8339815191525461010090046001600160a01b0316905061071d565b5060005b6107408186848151811061073357610733612d32565b602002602001015161118b565b508061074b81612d5e565b9150506106e3565b50505050565b610764838383611211565b505050565b60006107758383611243565b9392505050565b610764838383611272565b60008051602061330b83398151915261079f8161117e565b815183511461080e5760405162461bcd60e51b815260206004820152603560248201527f537465776172644c6963656e736546616365743a20746f20616e6420746f6b656044820152740dcaaa492e640d8cadccee8d040dad2e6dac2e8c6d605b1b60648201526084016105e0565b60005b82518110156107535761084984828151811061082f5761082f612d32565b602002602001015184838151811061073357610733612d32565b8061085381612d5e565b915050610811565b60006105718261128d565b6000610571826112a7565b6000610571826112c8565b60008051602061330b8339815191526108948161117e565b610764838361118b565b60006105718261130c565b306001600160a01b0316633882ce8e6040518163ffffffff1660e01b8152600401602060405180830381865afa1580156108e7573d6000803e3d6000fd5b505050506040513d601f19601f8201168201806040525081019061090b9190612d77565b6001600160a01b0316336001600160a01b0316146109915760405162461bcd60e51b815260206004820152603760248201527f537465776172644c6963656e736546616365743a206f6e6c7920696e6974696160448201527f6c206269646465722063616e206d696e7420746f6b656e00000000000000000060648201526084016105e0565b306001600160a01b031663be6a2a6d6040518163ffffffff1660e01b8152600401602060405180830381865afa1580156109cf573d6000803e3d6000fd5b505050506040513d601f19601f820116820180604052508101906109f39190612d94565b4210610a69576040805162461bcd60e51b81526020600482015260248101919091527f537465776172644c6963656e736546616365743a2063616e6e6f74206d696e7460448201527f20616674657220696e697469616c20706572696f642073746172742074696d6560648201526084016105e0565b610a728161128d565b15610ad15760405162461bcd60e51b815260206004820152602960248201527f537465776172644c6963656e736546616365743a20546f6b656e20616c72656160448201526864792065786973747360b81b60648201526084016105e0565b6106ba60008383611363565b606061066d61137a565b6106ba8282611399565b6107538484848461144d565b6000600186148015610b0f5750600184145b8015610b34575084846000818110610b2957610b29612d32565b905060200201356001145b610b505760405162461bcd60e51b81526004016105e090612dad565b60008051602061326b8339815191525460ff16610b7f5760405162461bcd60e51b81526004016105e090612df8565b7f4f3bc7155d2db681e29af52d1119e27d8b92f937da5bb676ae6155a2e77a3c6d546001600160a01b03163314610bc85760405162461bcd60e51b81526004016105e090612e3c565b7f4f3bc7155d2db681e29af52d1119e27d8b92f937da5bb676ae6155a2e77a3c6e5487876000818110610bfd57610bfd612d32565b9050602002013514610c215760405162461bcd60e51b81526004016105e090612e93565b5063bc197c8160e01b98975050505050505050565b600061066d6000805160206132ab8339815191525490565b606061057182611480565b60008051602061330b833981519152610c718161117e565b60005b8463ffffffff168163ffffffff161015610ca457610c928484611664565b80610c9c81612ede565b915050610c74565b5050505050565b333014610d355760405162461bcd60e51b815260206004820152604c60248201527f4e6174697665537465776172644c6963656e73653a205472696767657220747260448201527f616e736665722063616e206f6e6c792062652063616c6c65642066726f6d206160648201526b1b9bdd1a195c88199858d95d60a21b608482015260a4016105e0565b610764838383611363565b60006107758383611717565b600083600114610d6e5760405162461bcd60e51b81526004016105e090612dad565b60008051602061326b8339815191525460ff16610d9d5760405162461bcd60e51b81526004016105e090612df8565b7f4f3bc7155d2db681e29af52d1119e27d8b92f937da5bb676ae6155a2e77a3c6d546001600160a01b03163314610de65760405162461bcd60e51b81526004016105e090612e3c565b7f4f3bc7155d2db681e29af52d1119e27d8b92f937da5bb676ae6155a2e77a3c6e548514610e265760405162461bcd60e51b81526004016105e090612e93565b5063f23a6e6160e01b9695505050505050565b60008051602061326b83398151915280546001600160a01b03888116610100026001600160a81b03199092169190911760011782557f79ec1734da2430052e9d78936f451aad707e5bed12ef4806b06dc3d0c38f0e318054918b166001600160a01b03199092169190911790556000805160206132ab83398151915286905560006000805160206132cb833981519152905080610ed68682612f89565b5060018101610ee58582612f89565b5060028101610ef48482612f89565b50610f076301ffc9a760e01b6001611764565b610f196380ac58cd60e01b6001611764565b610f3160008051602061330b8339815191528a6117da565b85156106575760005b87811015610f5e57610f4c898261184e565b80610f5681612d5e565b915050610f3a565b5050505050505050505050565b60606000805160206132cb8339815191528054610f8790612f01565b80601f0160208091040260200160405190810160405280929190818152602001828054610fb390612f01565b80156110005780601f10610fd557610100808354040283529160200191611000565b820191906000526020600020905b815481529060010190602001808311610fe357829003601f168201915b5050505050905090565b60006110158261128d565b6110325760405163c1b843ef60e01b815260040160405180910390fd5b5060009081527f3c7bf052874fa81625121783266a03507bd2cd48b16e571c01a04e8dd3fb07a960205260409020546001600160a01b031690565b6000611078826112c8565b9050806001600160a01b0316836001600160a01b0316036110ac5760405163424a22cb60e01b815260040160405180910390fd5b336001600160a01b038216148015906110cc57506110ca8133611717565b155b156110ea57604051632f5de44f60e01b815260040160405180910390fd5b60008281527f3c7bf052874fa81625121783266a03507bd2cd48b16e571c01a04e8dd3fb07a9602052604080822080546001600160a01b0319166001600160a01b0387811691821790925591518593918516917f8c5be1e5ebec7d5bd14f71427d1e84f3dd0314c0f7b2291e5b200ac8c7c3b92591a4505050565b600061066d60008051602061328b833981519152611931565b611188813361193b565b50565b6000805160206132ab833981519152805460008051602061326b8339815191529160019060006111bb8385613048565b909155505060008181527f99574a7094154bb123ae6ae102096f0bf9679b85a5cd1e727aaa0ae5f132e6b4602052604090206111f78482612f89565b506001600160a01b0384161561075357610753848261184e565b61121b338261199d565b61123857604051632f5de44f60e01b815260040160405180910390fd5b610764838383611a23565b6001600160a01b038216600090815260008051602061324b833981519152602052604081206107759083611ba0565b6107648383836040518060200160405280600081525061144d565b600061057160008051602061328b83398151915283611bac565b60006112c160008051602061328b83398151915283611bc4565b5092915050565b6000806112e360008051602061328b83398151915284611be2565b90506001600160a01b03811661057157604051637e1a7d8b60e01b815260040160405180910390fd5b60006001600160a01b03821661133557604051630810ff9760e41b815260040160405180910390fd5b6001600160a01b038216600090815260008051602061324b8339815191526020526040902061057190611931565b61136c8161128d565b61123857610764828261184e565b60606000805160206132cb8339815191526001018054610f8790612f01565b336001600160a01b038316036113c25760405163424a22cb60e01b815260040160405180910390fd5b3360008181527f3c7bf052874fa81625121783266a03507bd2cd48b16e571c01a04e8dd3fb07aa602090815260408083206001600160a01b03871680855290835292819020805460ff191686151590811790915590519081529192917f17307eab39ab6107e8899845ad3d59bd9653f200f220920489ca2b5937696c31910160405180910390a35050565b611457338361199d565b61147457604051632f5de44f60e01b815260040160405180910390fd5b61075384848484611bee565b6000805160206132ab8339815191525460609060008051602061326b8339815191529083106114c157604051624705a760e71b815260040160405180910390fd5b60008381527f99574a7094154bb123ae6ae102096f0bf9679b85a5cd1e727aaa0ae5f132e6b46020526040812080546000805160206132cb83398151915292919061150b90612f01565b80601f016020809104026020016040519081016040528092919081815260200182805461153790612f01565b80156115845780601f1061155957610100808354040283529160200191611584565b820191906000526020600020905b81548152906001019060200180831161156757829003601f168201915b50505050509050600082600201805461159c90612f01565b80601f01602080910402602001604051908101604052809291908181526020018280546115c890612f01565b80156116155780601f106115ea57610100808354040283529160200191611615565b820191906000526020600020905b8154815290600101906020018083116115f857829003601f168201915b5050505050905060008251111561162f5750949350505050565b8061163987611c22565b60405160200161164a92919061305b565b604051602081830303815290604052945050505050919050565b6000805160206132ab833981519152805460008051602061326b8339815191529160019060006116948385613048565b909155508490506116a482611c22565b6040516020016116b592919061305b565b6040516020818303038152906040526116d96000805160206132cb83398151915290565b600083815260039190910160205260409020906116f69082612f89565b5082156107535781546107539061010090046001600160a01b03168261184e565b6001600160a01b0391821660009081527f3c7bf052874fa81625121783266a03507bd2cd48b16e571c01a04e8dd3fb07aa6020908152604080832093909416825291909152205460ff1690565b6001600160e01b0319808316900361178f5760405163b0a19dd560e01b815260040160405180910390fd5b6001600160e01b03199190911660009081527ffc606c433378e3a7e0a6a531deac289b66caa1b4aa8554fd4ab2c6f1570f92d860205260409020805460ff1916911515919091179055565b60008281527fd3889cc5458b268d0544e5534672df1296288ca3f93cbd39bd6f497a5c622811602052604090206118119082611d22565b5060405133906001600160a01b0383169084907f2f8788117e7eff1d82e926ec794901d17c78024a50270940304540a733656f0d90600090a45050565b6001600160a01b038216611875576040516311f2988d60e11b815260040160405180910390fd5b61187e8161128d565b1561189c57604051630d86bb7b60e31b815260040160405180910390fd5b6118a860008383611d37565b6001600160a01b038216600090815260008051602061324b8339815191526020526040902060008051602061328b833981519152906118e79083611e2c565b506118f3818385611e38565b5060405182906001600160a01b038516906000907fddf252ad1be2c89b69c2b068fc378daa952ba7f163c4a11628f55a4df523b3ef908290a4505050565b6000610571825490565b6119458282611e4e565b6106ba5761195b816001600160a01b0316611e85565b611966836020611e97565b60405160200161197792919061308a565b60408051601f198184030181529082905262461bcd60e51b82526105e09160040161276e565b60006119a88261128d565b6119c55760405163c1b843ef60e01b815260040160405180910390fd5b60006119d0836112c8565b9050806001600160a01b0316846001600160a01b03161480611a0b5750836001600160a01b0316611a008461100a565b6001600160a01b0316145b80611a1b5750611a1b8185611717565b949350505050565b6000611a2e826112c8565b9050836001600160a01b0316816001600160a01b031614611a6257604051630f2db4ad60e01b815260040160405180910390fd5b6001600160a01b038316611a89576040516340311a0960e01b815260040160405180910390fd5b611a94848484611d37565b6001600160a01b038416600090815260008051602061324b8339815191526020526040902060008051602061328b83398151915290611ad39084611fe9565b506001600160a01b03841660009081526002820160205260409020611af89084611e2c565b50611b04818486611e38565b50600083815260038201602052604080822080546001600160a01b0319169055518491906001600160a01b038516907f8c5be1e5ebec7d5bd14f71427d1e84f3dd0314c0f7b2291e5b200ac8c7c3b925908390a482846001600160a01b0316866001600160a01b03167fddf252ad1be2c89b69c2b068fc378daa952ba7f163c4a11628f55a4df523b3ef60405160405180910390a45050505050565b60006107758383611ff5565b60008181526001830160205260408120541515610775565b6000808080611bd38686612041565b909450925050505b9250929050565b600061077583836120a4565b611bf9848484611a23565b611c0584848484612108565b61075357604051639ff10cdd60e01b815260040160405180910390fd5b606081600003611c495750506040805180820190915260018152600360fc1b602082015290565b8160005b8115611c735780611c5d81612d5e565b9150611c6c9050600a83613115565b9150611c4d565b6000816001600160401b03811115611c8d57611c8d612571565b6040519080825280601f01601f191660200182016040528015611cb7576020820181803683370190505b5090505b8415611a1b57611ccc600183613129565b9150611cd9600a8661313c565b611ce4906030613048565b60f81b818381518110611cf957611cf9612d32565b60200101906001600160f81b031916908160001a905350611d1b600a86613115565b9450611cbb565b6000610775836001600160a01b0384166121d9565b6001600160a01b03831615611e215760405163a7c12c1160e01b815260048101829052600090309063a7c12c1190602401602060405180830381865afa158015611d85573d6000803e3d6000fd5b505050506040513d601f19601f82011682018060405250810190611da99190613150565b90508015611e1f5760405162461bcd60e51b815260206004820152603a60248201527f537465776172644c6963656e736546616365743a2043616e6e6f74207472616e60448201527f7366657220647572696e672061756374696f6e20706572696f6400000000000060648201526084016105e0565b505b61076483838361221c565b600061077583836121d9565b6000611a1b84846001600160a01b038516612227565b60008281527fd3889cc5458b268d0544e5534672df1296288ca3f93cbd39bd6f497a5c6228116020526040812061077590836122c6565b60606105716001600160a01b03831660145b60606000611ea683600261316d565b611eb1906002613048565b6001600160401b03811115611ec857611ec8612571565b6040519080825280601f01601f191660200182016040528015611ef2576020820181803683370190505b509050600360fc1b81600081518110611f0d57611f0d612d32565b60200101906001600160f81b031916908160001a905350600f60fb1b81600181518110611f3c57611f3c612d32565b60200101906001600160f81b031916908160001a905350600160028402015b6001811115611fc9576f181899199a1a9b1b9c1cb0b131b232b360811b85600f1660108110611f8c57611f8c612d32565b1a60f81b828281518110611fa257611fa2612d32565b60200101906001600160f81b031916908160001a90535060049490941c9360001901611f5b565b5083156107755760405163c913478560e01b815260040160405180910390fd5b600061077583836122e8565b815460009082106120195760405163e637bf3b60e01b815260040160405180910390fd5b82600001828154811061202e5761202e612d32565b9060005260206000200154905092915050565b8154600090819083106120675760405163022fd82760e31b815260040160405180910390fd5b600084600001848154811061207e5761207e612d32565b906000526020600020906002020190508060000154816001015492509250509250929050565b60008181526001830160205260408120548082036120d557604051633d547ec560e21b815260040160405180910390fd5b8360000160018203815481106120ed576120ed612d32565b90600052602060002090600202016001015491505092915050565b60006001600160a01b0384163b61212157506001611a1b565b60006121a263150b7a0260e01b33888787604051602401612145949392919061318c565b604051602081830303815290604052906001600160e01b0319166020820180516001600160e01b038381831617835250505050604051806060016040528060328152602001613219603291396001600160a01b03881691906123a2565b90506000818060200190518101906121ba91906131c9565b6001600160e01b031916630a85bd0160e11b1492505050949350505050565b6000818152600183016020526040812054610571575081546001808201845560008481526020808220909301849055845493815293810190915260409092205590565b6107648383836123b1565b600082815260018401602052604081205480820361228e575050604080518082018252838152602080820184815286546001818101895560008981528481209551600290930290950191825591519082015586548684528188019092529290912055610775565b828560000160018303815481106122a7576122a7612d32565b9060005260206000209060020201600101819055506000915050610775565b6001600160a01b03811660009081526001830160205260408120541515610775565b600081815260018301602052604081205480156112c15783546000908590600019810190811061231a5761231a612d32565b906000526020600020015490508085600001600184038154811061234057612340612d32565b6000918252602080832090910192909255918252600186019052604090208190558354849080612372576123726131e6565b60008281526020808220830160001990810183905590920190925593815260019485019093525050604081205590565b6060611a1b84846000856123f5565b6001600160a01b0382166107645760008181527f99574a7094154bb123ae6ae102096f0bf9679b85a5cd1e727aaa0ae5f132e6b460205260408120610764916124b2565b6060843b61241657604051632270d6bf60e21b815260040160405180910390fd5b600080866001600160a01b0316858760405161243291906131fc565b60006040518083038185875af1925050503d806000811461246f576040519150601f19603f3d011682016040523d82523d6000602084013e612474565b606091505b50915091508115612488579150611a1b9050565b8051156124985780518082602001fd5b8360405162461bcd60e51b81526004016105e0919061276e565b5080546124be90612f01565b6000825580601f106124ce575050565b601f01602090049060005260206000209081019061118891905b808211156124fc57600081556001016124e8565b5090565b6001600160e01b03198116811461118857600080fd5b60006020828403121561252857600080fd5b813561077581612500565b6001600160a01b038116811461118857600080fd5b803561255381612533565b919050565b801515811461118857600080fd5b803561255381612558565b634e487b7160e01b600052604160045260246000fd5b604051601f8201601f191681016001600160401b03811182821017156125af576125af612571565b604052919050565b60006001600160401b038311156125d0576125d0612571565b6125e3601f8401601f1916602001612587565b90508281528383830111156125f757600080fd5b828260208301376000602084830101529392505050565b600082601f83011261261f57600080fd5b610775838335602085016125b7565b6000806000806000806000806000806101408b8d03121561264e57600080fd5b6126578b612548565b995060208b0135985061266c60408c01612548565b975061267a60608c01612548565b965061268860808c01612548565b955060a08b0135945061269d60c08c01612566565b935060e08b01356001600160401b03808211156126b957600080fd5b6126c58e838f0161260e565b94506101008d01359150808211156126dc57600080fd5b6126e88e838f0161260e565b93506101208d01359150808211156126ff57600080fd5b5061270c8d828e0161260e565b9150509295989b9194979a5092959850565b60005b83811015612739578181015183820152602001612721565b50506000910152565b6000815180845261275a81602086016020860161271e565b601f01601f19169290920160200192915050565b6020815260006107756020830184612742565b60006020828403121561279357600080fd5b5035919050565b600080604083850312156127ad57600080fd5b82356127b881612533565b946020939093013593505050565b60006001600160401b038211156127df576127df612571565b5060051b60200190565b600082601f8301126127fa57600080fd5b8135602061280f61280a836127c6565b612587565b82815260059290921b8401810191818101908684111561282e57600080fd5b8286015b8481101561286d5780356001600160401b038111156128515760008081fd5b61285f8986838b010161260e565b845250918301918301612832565b509695505050505050565b6000806040838503121561288b57600080fd5b82356001600160401b038111156128a157600080fd5b6128ad858286016127e9565b92505060208301356128be81612558565b809150509250929050565b6000806000606084860312156128de57600080fd5b83356128e981612533565b925060208401356128f981612533565b929592945050506040919091013590565b6000806040838503121561291d57600080fd5b82356001600160401b038082111561293457600080fd5b818501915085601f83011261294857600080fd5b8135602061295861280a836127c6565b82815260059290921b8401810191818101908984111561297757600080fd5b948201945b8386101561299e57853561298f81612533565b8252948201949082019061297c565b965050860135925050808211156129b457600080fd5b506129c1858286016127e9565b9150509250929050565b600080604083850312156129de57600080fd5b82356129e981612533565b915060208301356001600160401b03811115612a0457600080fd5b6129c18582860161260e565b600060208284031215612a2257600080fd5b813561077581612533565b60008060408385031215612a4057600080fd5b8235612a4b81612533565b915060208301356128be81612558565b60008060008060808587031215612a7157600080fd5b8435612a7c81612533565b93506020850135612a8c81612533565b92506040850135915060608501356001600160401b03811115612aae57600080fd5b8501601f81018713612abf57600080fd5b612ace878235602084016125b7565b91505092959194509250565b60008083601f840112612aec57600080fd5b5081356001600160401b03811115612b0357600080fd5b6020830191508360208260051b8501011115611bdb57600080fd5b60008083601f840112612b3057600080fd5b5081356001600160401b03811115612b4757600080fd5b602083019150836020828501011115611bdb57600080fd5b60008060008060008060008060a0898b031215612b7b57600080fd5b8835612b8681612533565b97506020890135612b9681612533565b965060408901356001600160401b0380821115612bb257600080fd5b612bbe8c838d01612ada565b909850965060608b0135915080821115612bd757600080fd5b612be38c838d01612ada565b909650945060808b0135915080821115612bfc57600080fd5b50612c098b828c01612b1e565b999c989b5096995094979396929594505050565b600080600060608486031215612c3257600080fd5b833563ffffffff81168114612c4657600080fd5b925060208401356001600160401b03811115612c6157600080fd5b612c6d8682870161260e565b9250506040840135612c7e81612558565b809150509250925092565b60008060408385031215612c9c57600080fd5b8235612ca781612533565b915060208301356128be81612533565b60008060008060008060a08789031215612cd057600080fd5b8635612cdb81612533565b95506020870135612ceb81612533565b9450604087013593506060870135925060808701356001600160401b03811115612d1457600080fd5b612d2089828a01612b1e565b979a9699509497509295939492505050565b634e487b7160e01b600052603260045260246000fd5b634e487b7160e01b600052601160045260246000fd5b600060018201612d7057612d70612d48565b5060010190565b600060208284031215612d8957600080fd5b815161077581612533565b600060208284031215612da657600080fd5b5051919050565b6020808252603d908201526000805160206132eb83398151915260408201527f743a2063616e206f6e6c792072656365697665206f6e6520746f6b656e000000606082015260800190565b60208082526036908201526000805160206132eb8339815191526040820152751d0e881b5d5cdd081899481a5b9a5d1a585b1a5e995960521b606082015260800190565b60208082526043908201526000805160206132eb83398151915260408201527f743a2063616e6e6f7420616363657074207468697320746f6b656e206164647260608201526265737360e81b608082015260a00190565b6020808252603e908201526000805160206132eb83398151915260408201527f743a2063616e6e6f7420616363657074207468697320746f6b656e2049440000606082015260800190565b600063ffffffff808316818103612ef757612ef7612d48565b6001019392505050565b600181811c90821680612f1557607f821691505b602082108103612f3557634e487b7160e01b600052602260045260246000fd5b50919050565b601f82111561076457600081815260208120601f850160051c81016020861015612f625750805b601f850160051c820191505b81811015612f8157828155600101612f6e565b505050505050565b81516001600160401b03811115612fa257612fa2612571565b612fb681612fb08454612f01565b84612f3b565b602080601f831160018114612feb5760008415612fd35750858301515b600019600386901b1c1916600185901b178555612f81565b600085815260208120601f198616915b8281101561301a57888601518255948401946001909101908401612ffb565b50858210156130385787850151600019600388901b60f8161c191681555b5050505050600190811b01905550565b8082018082111561057157610571612d48565b6000835161306d81846020880161271e565b83519083019061308181836020880161271e565b01949350505050565b7f416363657373436f6e74726f6c3a206163636f756e74200000000000000000008152600083516130c281601785016020880161271e565b7001034b99036b4b9b9b4b733903937b6329607d1b60179184019182015283516130f381602884016020880161271e565b01602801949350505050565b634e487b7160e01b600052601260045260246000fd5b600082613124576131246130ff565b500490565b8181038181111561057157610571612d48565b60008261314b5761314b6130ff565b500690565b60006020828403121561316257600080fd5b815161077581612558565b600081600019048311821515161561318757613187612d48565b500290565b6001600160a01b03858116825284166020820152604081018390526080606082018190526000906131bf90830184612742565b9695505050505050565b6000602082840312156131db57600080fd5b815161077581612500565b634e487b7160e01b600052603160045260246000fd5b6000825161320e81846020870161271e565b919091019291505056fe4552433732313a207472616e7366657220746f206e6f6e20455243373231526563656976657220696d706c656d656e7465723c7bf052874fa81625121783266a03507bd2cd48b16e571c01a04e8dd3fb07a879ec1734da2430052e9d78936f451aad707e5bed12ef4806b06dc3d0c38f0e303c7bf052874fa81625121783266a03507bd2cd48b16e571c01a04e8dd3fb07a679ec1734da2430052e9d78936f451aad707e5bed12ef4806b06dc3d0c38f0e3299574a7094154bb123ae6ae102096f0bf9679b85a5cd1e727aaa0ae5f132e6b15772617070656445524331313535537465776172644c6963656e7365466163657b62b800d8c954aa32a34a9249066e0f8761d6c1614c95cbc05c04ab0583a14ca26469706673582212209e1e1e3cb614a42a090b508abfdc89203307d193c0ac207128bbdc29665d1e4b64736f6c63430008100033",
  "devdoc": {
    "details": "ERC-721 token license for Steward that wraps existing ERC-1155. Transfers are disabled during an auction.",
    "kind": "dev",
    "methods": {
      "approve(address,uint256)": {
        "params": {
          "operator": "address to be approved",
          "tokenId": "token to approve"
        }
      },
      "balanceOf(address)": {
        "returns": {
          "_0": "quantity of tokens held"
        }
      },
      "getApproved(uint256)": {
        "params": {
          "tokenId": "token to query"
        },
        "returns": {
          "_0": "address approved to spend token"
        }
      },
      "isApprovedForAll(address,address)": {
        "params": {
          "account": "address to query for approval granted",
          "operator": "address to query for approval received"
        },
        "returns": {
          "_0": "whether operator is approved to spend tokens held by account"
        }
      },
      "ownerOf(uint256)": {
        "params": {
          "tokenId": "token to query"
        },
        "returns": {
          "_0": "token owner"
        }
      },
      "safeTransferFrom(address,address,uint256)": {
        "params": {
          "from": "sender of token",
          "to": "receiver of token",
          "tokenId": "token id"
        }
      },
      "safeTransferFrom(address,address,uint256,bytes)": {
        "params": {
          "data": "data payload",
          "from": "sender of token",
          "to": "receiver of token",
          "tokenId": "token id"
        }
      },
      "setApprovalForAll(address,bool)": {
        "params": {
          "operator": "address to be approved",
          "status": "approval status"
        }
      },
      "supportsInterface(bytes4)": {
        "params": {
          "interfaceId": "interface id"
        },
        "returns": {
          "_0": "bool whether interface is supported"
        }
      },
      "tokenByIndex(uint256)": {
        "params": {
          "index": "position in global token list to query"
        },
        "returns": {
          "_0": "id of retrieved token"
        }
      },
      "tokenOfOwnerByIndex(address,uint256)": {
        "params": {
          "index": "position in owner's token list to query",
          "owner": "token holder to query"
        },
        "returns": {
          "_0": "id of retrieved token"
        }
      },
      "totalSupply()": {
        "returns": {
          "_0": "total supply"
        }
      },
      "transferFrom(address,address,uint256)": {
        "params": {
          "from": "sender of token",
          "to": "receiver of token",
          "tokenId": "token id"
        }
      }
    },
    "title": "WrappedERC1155StewardLicenseFacet",
    "version": 1
  },
  "userdoc": {
    "kind": "user",
    "methods": {
      "addTokenToCollection(address,string)": {
        "notice": "Add token to collection"
      },
      "addTokensToCollection(address[],string[])": {
        "notice": "Add tokens to collection with to"
      },
      "addTokensToCollection(string[],bool)": {
        "notice": "Add tokens to collection"
      },
      "addTokensWithBaseURIToCollection(uint32,string,bool)": {
        "notice": "Add tokens to collection with baseURI"
      },
      "approve(address,uint256)": {
        "notice": "grant approval to given account to spend token"
      },
      "balanceOf(address)": {
        "notice": "query the balance of given address"
      },
      "exists(uint256)": {
        "notice": "Check if token exists"
      },
      "getApproved(uint256)": {
        "notice": "get approval status for given token"
      },
      "initializeWrappedStewardLicense(address,uint256,address,address,address,uint256,bool,string,string,string)": {
        "notice": "Initialize license"
      },
      "isApprovedForAll(address,address)": {
        "notice": "query approval status of given operator with respect to given address"
      },
      "maxTokenCount()": {
        "notice": "Get max token count"
      },
      "mintToken(address,uint256)": {
        "notice": "Initial bidder can mint token if it doesn't exist"
      },
      "minter()": {
        "notice": "Get minter"
      },
      "name()": {
        "notice": "inheritdoc IERC721Metadata"
      },
      "ownerOf(uint256)": {
        "notice": "query the owner of given token"
      },
      "safeTransferFrom(address,address,uint256)": {
        "notice": "transfer token between given addresses, checking for ERC721Receiver implementation if applicable"
      },
      "safeTransferFrom(address,address,uint256,bytes)": {
        "notice": "transfer token between given addresses, checking for ERC721Receiver implementation if applicable"
      },
      "setApprovalForAll(address,bool)": {
        "notice": "grant approval to or revoke approval from given account to spend all tokens held by sender"
      },
      "supportsInterface(bytes4)": {
        "notice": "query whether contract has registered support for given interface"
      },
      "symbol()": {
        "notice": "inheritdoc IERC721Metadata"
      },
      "tokenByIndex(uint256)": {
        "notice": "get token at given internal storage index"
      },
      "tokenOfOwnerByIndex(address,uint256)": {
        "notice": "get token of given owner at given internal storage index"
      },
      "tokenURI(uint256)": {
        "notice": "inheritdoc IERC721Metadata"
      },
      "totalSupply()": {
        "notice": "get total token supply"
      },
      "transferFrom(address,address,uint256)": {
        "notice": "transfer token between given addresses, without checking for ERC721Receiver implementation if applicable"
      },
      "triggerTransfer(address,address,uint256)": {
        "notice": "Trigger transfer of license"
      }
    },
    "version": 1
  },
  "storageLayout": {
    "storage": [],
    "types": null
  }
}