{
  "address": "0xeF94BAf7778a00a0f1fe3374AF715930ac15B5cA",
  "abi": [
    {
      "inputs": [],
      "name": "AddressUtils__NotContract",
      "type": "error"
    },
    {
      "inputs": [],
      "name": "ERC165Base__InvalidInterfaceId",
      "type": "error"
    },
    {
      "inputs": [],
      "name": "ERC721Base__BalanceQueryZeroAddress",
      "type": "error"
    },
    {
      "inputs": [],
      "name": "ERC721Base__ERC721ReceiverNotImplemented",
      "type": "error"
    },
    {
      "inputs": [],
      "name": "ERC721Base__InvalidOwner",
      "type": "error"
    },
    {
      "inputs": [],
      "name": "ERC721Base__MintToZeroAddress",
      "type": "error"
    },
    {
      "inputs": [],
      "name": "ERC721Base__NonExistentToken",
      "type": "error"
    },
    {
      "inputs": [],
      "name": "ERC721Base__NotOwnerOrApproved",
      "type": "error"
    },
    {
      "inputs": [],
      "name": "ERC721Base__NotTokenOwner",
      "type": "error"
    },
    {
      "inputs": [],
      "name": "ERC721Base__SelfApproval",
      "type": "error"
    },
    {
      "inputs": [],
      "name": "ERC721Base__TokenAlreadyMinted",
      "type": "error"
    },
    {
      "inputs": [],
      "name": "ERC721Base__TransferToZeroAddress",
      "type": "error"
    },
    {
      "inputs": [],
      "name": "ERC721Metadata__NonExistentToken",
      "type": "error"
    },
    {
      "inputs": [],
      "name": "EnumerableMap__IndexOutOfBounds",
      "type": "error"
    },
    {
      "inputs": [],
      "name": "EnumerableMap__NonExistentKey",
      "type": "error"
    },
    {
      "inputs": [],
      "name": "EnumerableSet__IndexOutOfBounds",
      "type": "error"
    },
    {
      "anonymous": false,
      "inputs": [
        {
          "indexed": true,
          "internalType": "address",
          "name": "owner",
          "type": "address"
        },
        {
          "indexed": true,
          "internalType": "address",
          "name": "operator",
          "type": "address"
        },
        {
          "indexed": true,
          "internalType": "uint256",
          "name": "tokenId",
          "type": "uint256"
        }
      ],
      "name": "Approval",
      "type": "event"
    },
    {
      "anonymous": false,
      "inputs": [
        {
          "indexed": true,
          "internalType": "address",
          "name": "owner",
          "type": "address"
        },
        {
          "indexed": true,
          "internalType": "address",
          "name": "operator",
          "type": "address"
        },
        {
          "indexed": false,
          "internalType": "bool",
          "name": "approved",
          "type": "bool"
        }
      ],
      "name": "ApprovalForAll",
      "type": "event"
    },
    {
      "anonymous": false,
      "inputs": [
        {
          "indexed": true,
          "internalType": "address",
          "name": "from",
          "type": "address"
        },
        {
          "indexed": true,
          "internalType": "address",
          "name": "to",
          "type": "address"
        },
        {
          "indexed": true,
          "internalType": "uint256",
          "name": "tokenId",
          "type": "uint256"
        }
      ],
      "name": "Transfer",
      "type": "event"
    },
    {
      "inputs": [
        {
          "internalType": "address",
          "name": "to",
          "type": "address"
        },
        {
          "internalType": "string",
          "name": "tokenURI",
          "type": "string"
        }
      ],
      "name": "addTokenToCollection",
      "outputs": [],
      "stateMutability": "nonpayable",
      "type": "function"
    },
    {
      "inputs": [
        {
          "internalType": "string[]",
          "name": "tokenURIs",
          "type": "string[]"
        }
      ],
      "name": "addTokensToCollection",
      "outputs": [],
      "stateMutability": "nonpayable",
      "type": "function"
    },
    {
      "inputs": [
        {
          "internalType": "address[]",
          "name": "to",
          "type": "address[]"
        },
        {
          "internalType": "string[]",
          "name": "tokenURIs",
          "type": "string[]"
        }
      ],
      "name": "addTokensToCollection",
      "outputs": [],
      "stateMutability": "nonpayable",
      "type": "function"
    },
    {
      "inputs": [
        {
          "internalType": "uint32",
          "name": "amount",
          "type": "uint32"
        },
        {
          "internalType": "string",
          "name": "baseURI",
          "type": "string"
        }
      ],
      "name": "addTokensWithBaseURIToCollection",
      "outputs": [],
      "stateMutability": "nonpayable",
      "type": "function"
    },
    {
      "inputs": [
        {
          "internalType": "address",
          "name": "operator",
          "type": "address"
        },
        {
          "internalType": "uint256",
          "name": "tokenId",
          "type": "uint256"
        }
      ],
      "name": "approve",
      "outputs": [],
      "stateMutability": "payable",
      "type": "function"
    },
    {
      "inputs": [
        {
          "internalType": "address",
          "name": "account",
          "type": "address"
        }
      ],
      "name": "balanceOf",
      "outputs": [
        {
          "internalType": "uint256",
          "name": "",
          "type": "uint256"
        }
      ],
      "stateMutability": "view",
      "type": "function"
    },
    {
      "inputs": [
        {
          "internalType": "uint256",
          "name": "tokenId",
          "type": "uint256"
        }
      ],
      "name": "exists",
      "outputs": [
        {
          "internalType": "bool",
          "name": "",
          "type": "bool"
        }
      ],
      "stateMutability": "view",
      "type": "function"
    },
    {
      "inputs": [
        {
          "internalType": "uint256",
          "name": "tokenId",
          "type": "uint256"
        }
      ],
      "name": "getApproved",
      "outputs": [
        {
          "internalType": "address",
          "name": "",
          "type": "address"
        }
      ],
      "stateMutability": "view",
      "type": "function"
    },
    {
      "inputs": [
        {
          "internalType": "address",
          "name": "tokenAddress",
          "type": "address"
        },
        {
          "internalType": "uint256",
          "name": "tokenId",
          "type": "uint256"
        },
        {
          "internalType": "address",
          "name": "_minter",
          "type": "address"
        },
        {
          "internalType": "address",
          "name": "_steward",
          "type": "address"
        },
        {
          "internalType": "uint256",
          "name": "_maxTokenCount",
          "type": "uint256"
        },
        {
          "internalType": "string",
          "name": "name",
          "type": "string"
        },
        {
          "internalType": "string",
          "name": "symbol",
          "type": "string"
        },
        {
          "internalType": "string",
          "name": "tokenURI",
          "type": "string"
        }
      ],
      "name": "initializeWrappedStewardLicense",
      "outputs": [],
      "stateMutability": "nonpayable",
      "type": "function"
    },
    {
      "inputs": [
        {
          "internalType": "address",
          "name": "account",
          "type": "address"
        },
        {
          "internalType": "address",
          "name": "operator",
          "type": "address"
        }
      ],
      "name": "isApprovedForAll",
      "outputs": [
        {
          "internalType": "bool",
          "name": "",
          "type": "bool"
        }
      ],
      "stateMutability": "view",
      "type": "function"
    },
    {
      "inputs": [],
      "name": "maxTokenCount",
      "outputs": [
        {
          "internalType": "uint256",
          "name": "",
          "type": "uint256"
        }
      ],
      "stateMutability": "view",
      "type": "function"
    },
    {
      "inputs": [
        {
          "internalType": "address",
          "name": "to",
          "type": "address"
        },
        {
          "internalType": "uint256",
          "name": "tokenId",
          "type": "uint256"
        }
      ],
      "name": "mintToken",
      "outputs": [],
      "stateMutability": "nonpayable",
      "type": "function"
    },
    {
      "inputs": [],
      "name": "minter",
      "outputs": [
        {
          "internalType": "address",
          "name": "",
          "type": "address"
        }
      ],
      "stateMutability": "view",
      "type": "function"
    },
    {
      "inputs": [],
      "name": "name",
      "outputs": [
        {
          "internalType": "string",
          "name": "",
          "type": "string"
        }
      ],
      "stateMutability": "view",
      "type": "function"
    },
    {
      "inputs": [
        {
          "internalType": "address",
          "name": "",
          "type": "address"
        },
        {
          "internalType": "address",
          "name": "",
          "type": "address"
        },
        {
          "internalType": "uint256",
          "name": "tokenId",
          "type": "uint256"
        },
        {
          "internalType": "bytes",
          "name": "",
          "type": "bytes"
        }
      ],
      "name": "onERC721Received",
      "outputs": [
        {
          "internalType": "bytes4",
          "name": "",
          "type": "bytes4"
        }
      ],
      "stateMutability": "view",
      "type": "function"
    },
    {
      "inputs": [
        {
          "internalType": "uint256",
          "name": "tokenId",
          "type": "uint256"
        }
      ],
      "name": "ownerOf",
      "outputs": [
        {
          "internalType": "address",
          "name": "",
          "type": "address"
        }
      ],
      "stateMutability": "view",
      "type": "function"
    },
    {
      "inputs": [
        {
          "internalType": "address",
          "name": "from",
          "type": "address"
        },
        {
          "internalType": "address",
          "name": "to",
          "type": "address"
        },
        {
          "internalType": "uint256",
          "name": "tokenId",
          "type": "uint256"
        }
      ],
      "name": "safeTransferFrom",
      "outputs": [],
      "stateMutability": "payable",
      "type": "function"
    },
    {
      "inputs": [
        {
          "internalType": "address",
          "name": "from",
          "type": "address"
        },
        {
          "internalType": "address",
          "name": "to",
          "type": "address"
        },
        {
          "internalType": "uint256",
          "name": "tokenId",
          "type": "uint256"
        },
        {
          "internalType": "bytes",
          "name": "data",
          "type": "bytes"
        }
      ],
      "name": "safeTransferFrom",
      "outputs": [],
      "stateMutability": "payable",
      "type": "function"
    },
    {
      "inputs": [
        {
          "internalType": "address",
          "name": "operator",
          "type": "address"
        },
        {
          "internalType": "bool",
          "name": "status",
          "type": "bool"
        }
      ],
      "name": "setApprovalForAll",
      "outputs": [],
      "stateMutability": "nonpayable",
      "type": "function"
    },
    {
      "inputs": [
        {
          "internalType": "bytes4",
          "name": "interfaceId",
          "type": "bytes4"
        }
      ],
      "name": "supportsInterface",
      "outputs": [
        {
          "internalType": "bool",
          "name": "",
          "type": "bool"
        }
      ],
      "stateMutability": "view",
      "type": "function"
    },
    {
      "inputs": [],
      "name": "symbol",
      "outputs": [
        {
          "internalType": "string",
          "name": "",
          "type": "string"
        }
      ],
      "stateMutability": "view",
      "type": "function"
    },
    {
      "inputs": [
        {
          "internalType": "uint256",
          "name": "index",
          "type": "uint256"
        }
      ],
      "name": "tokenByIndex",
      "outputs": [
        {
          "internalType": "uint256",
          "name": "",
          "type": "uint256"
        }
      ],
      "stateMutability": "view",
      "type": "function"
    },
    {
      "inputs": [
        {
          "internalType": "address",
          "name": "owner",
          "type": "address"
        },
        {
          "internalType": "uint256",
          "name": "index",
          "type": "uint256"
        }
      ],
      "name": "tokenOfOwnerByIndex",
      "outputs": [
        {
          "internalType": "uint256",
          "name": "",
          "type": "uint256"
        }
      ],
      "stateMutability": "view",
      "type": "function"
    },
    {
      "inputs": [
        {
          "internalType": "uint256",
          "name": "tokenId",
          "type": "uint256"
        }
      ],
      "name": "tokenURI",
      "outputs": [
        {
          "internalType": "string",
          "name": "",
          "type": "string"
        }
      ],
      "stateMutability": "view",
      "type": "function"
    },
    {
      "inputs": [],
      "name": "totalSupply",
      "outputs": [
        {
          "internalType": "uint256",
          "name": "",
          "type": "uint256"
        }
      ],
      "stateMutability": "view",
      "type": "function"
    },
    {
      "inputs": [
        {
          "internalType": "address",
          "name": "from",
          "type": "address"
        },
        {
          "internalType": "address",
          "name": "to",
          "type": "address"
        },
        {
          "internalType": "uint256",
          "name": "tokenId",
          "type": "uint256"
        }
      ],
      "name": "transferFrom",
      "outputs": [],
      "stateMutability": "payable",
      "type": "function"
    },
    {
      "inputs": [
        {
          "internalType": "address",
          "name": "from",
          "type": "address"
        },
        {
          "internalType": "address",
          "name": "to",
          "type": "address"
        },
        {
          "internalType": "uint256",
          "name": "tokenId",
          "type": "uint256"
        }
      ],
      "name": "triggerTransfer",
      "outputs": [],
      "stateMutability": "nonpayable",
      "type": "function"
    }
  ],
  "transactionHash": "0x0e7d71f6bc7e6a3c51f77bf674f3366f3ea2b2c9b1fce6dfa81c55910373da5d",
  "args": [],
  "numDeployments": 4,
  "solcInputHash": "f5a6faf7fccd475b8524834616b2522c",
  "bytecode": "0x608060405234801561001057600080fd5b50612e1b806100206000396000f3fe60806040526004361061019c5760003560e01c80634f6ccce7116100ec578063b88d4fde1161008a578063e31a7c0111610064578063e31a7c0114610479578063e95a272f14610499578063e985e9c5146104b9578063f42c0165146104d957600080fd5b8063b88d4fde14610431578063c4e627c214610444578063c87b56dd1461045957600080fd5b806370a08231116100c657806370a08231146103bc57806379c65068146103dc57806395d89b41146103fc578063a22cb4651461041157600080fd5b80634f6ccce71461035c5780636352211e1461037c5780636a2e019f1461039c57600080fd5b806318160ddd116101595780632f745c59116101335780632f745c59146102e957806342842e0e146103095780634a7c554f1461031c5780634f558e791461033c57600080fd5b806318160ddd1461029357806323b872dd146102b6578063269aab0e146102c957600080fd5b806301ffc9a7146101a157806306fdde03146101d657806307546172146101f8578063081812fc14610225578063095ea7b314610245578063150b7a021461025a575b600080fd5b3480156101ad57600080fd5b506101c16101bc3660046122e5565b6104f9565b60405190151581526020015b60405180910390f35b3480156101e257600080fd5b506101eb61053c565b6040516101cd9190612352565b34801561020457600080fd5b5061020d61054b565b6040516001600160a01b0390911681526020016101cd565b34801561023157600080fd5b5061020d610240366004612365565b61057e565b6102586102533660046123a3565b610589565b005b34801561026657600080fd5b5061027a6102753660046123cf565b610615565b6040516001600160e01b031990911681526020016101cd565b34801561029f57600080fd5b506102a86107c0565b6040519081526020016101cd565b6102586102c436600461246e565b6107ca565b3480156102d557600080fd5b506102586102e4366004612622565b6107fc565b3480156102f557600080fd5b506102a86103043660046123a3565b6108d4565b61025861031736600461246e565b6108e7565b34801561032857600080fd5b50610258610337366004612657565b610902565b34801561034857600080fd5b506101c1610357366004612365565b610a50565b34801561036857600080fd5b506102a8610377366004612365565b610a5b565b34801561038857600080fd5b5061020d610397366004612365565b610a66565b3480156103a857600080fd5b506102586103b7366004612719565b610a71565b3480156103c857600080fd5b506102a86103d736600461275f565b610b71565b3480156103e857600080fd5b506102586103f73660046123a3565b610b7c565b34801561040857600080fd5b506101eb610db0565b34801561041d57600080fd5b5061025861042c36600461278a565b610dba565b61025861043f3660046127c3565b610e6e565b34801561045057600080fd5b506102a8610ea7565b34801561046557600080fd5b506101eb610474366004612365565b610ebf565b34801561048557600080fd5b5061025861049436600461246e565b610eca565b3480156104a557600080fd5b506102586104b4366004612843565b610f5f565b3480156104c557600080fd5b506101c16104d436600461286a565b611023565b3480156104e557600080fd5b506102586104f4366004612898565b61102f565b6001600160e01b0319811660009081527ffc606c433378e3a7e0a6a531deac289b66caa1b4aa8554fd4ab2c6f1570f92d8602052604081205460ff165b92915050565b6060610546611111565b905090565b60006105467f79ec1734da2430052e9d78936f451aad707e5bed12ef4806b06dc3d0c38f0e31546001600160a01b031690565b6000610536826111b0565b600061059482610a66565b9050806001600160a01b0316836001600160a01b0316036105c85760405163424a22cb60e01b815260040160405180910390fd5b336001600160a01b038216148015906105e857506105e68133611023565b155b1561060657604051632f5de44f60e01b815260040160405180910390fd5b6106108383611213565b505050565b6000610630600080516020612d668339815191525460ff1690565b15156001146106925760405162461bcd60e51b81526020600482015260356024820152600080516020612d268339815191526044820152740e881b5d5cdd081899481a5b9a5d1a585b1a5e9959605a1b60648201526084015b60405180910390fd5b7f4f3bc7155d2db681e29af52d1119e27d8b92f937da5bb676ae6155a2e77a3c6d546001600160a01b0316331461072a5760405162461bcd60e51b81526020600482015260426024820152600080516020612d2683398151915260448201527f3a2063616e6e6f7420616363657074207468697320746f6b656e206164647265606482015261737360f01b608482015260a401610689565b7f4f3bc7155d2db681e29af52d1119e27d8b92f937da5bb676ae6155a2e77a3c6e5484146107ae5760405162461bcd60e51b815260206004820152603d6024820152600080516020612d2683398151915260448201527f3a2063616e6e6f7420616363657074207468697320746f6b656e2049440000006064820152608401610689565b50630a85bd0160e11b95945050505050565b60006105466112a0565b6107d433826112b9565b6107f157604051632f5de44f60e01b815260040160405180910390fd5b61061083838361133f565b306001600160a01b0316633882ce8e6040518163ffffffff1660e01b8152600401602060405180830381865afa15801561083a573d6000803e3d6000fd5b505050506040513d601f19601f8201168201806040525081019061085e9190612966565b6001600160a01b0316336001600160a01b03161461088e5760405162461bcd60e51b815260040161068990612983565b60005b81518110156108d0576108be60008383815181106108b1576108b16129ee565b602002602001015161146e565b806108c881612a1a565b915050610891565b5050565b60006108e083836114f4565b9392505050565b61061083838360405180602001604052806000815250610e6e565b306001600160a01b0316633882ce8e6040518163ffffffff1660e01b8152600401602060405180830381865afa158015610940573d6000803e3d6000fd5b505050506040513d601f19601f820116820180604052508101906109649190612966565b6001600160a01b0316336001600160a01b0316146109945760405162461bcd60e51b815260040161068990612983565b8051825114610a035760405162461bcd60e51b815260206004820152603560248201527f537465776172644c6963656e736546616365743a20746f20616e6420746f6b656044820152740dcaaa492e640d8cadccee8d040dad2e6dac2e8c6d605b1b6064820152608401610689565b60005b815181101561061057610a3e838281518110610a2457610a246129ee565b60200260200101518383815181106108b1576108b16129ee565b80610a4881612a1a565b915050610a06565b600061053682611523565b60006105368261153d565b60006105368261155e565b306001600160a01b0316633882ce8e6040518163ffffffff1660e01b8152600401602060405180830381865afa158015610aaf573d6000803e3d6000fd5b505050506040513d601f19601f82011682018060405250810190610ad39190612966565b6001600160a01b0316336001600160a01b031614610b675760405162461bcd60e51b8152602060048201526044602482018190527f537465776172644c6963656e736546616365743a206f6e6c7920696e69746961908201527f6c206269646465722063616e2061646420746f6b656e20746f20636f6c6c65636064820152633a34b7b760e11b608482015260a401610689565b6108d0828261146e565b6000610536826115a2565b306001600160a01b0316633882ce8e6040518163ffffffff1660e01b8152600401602060405180830381865afa158015610bba573d6000803e3d6000fd5b505050506040513d601f19601f82011682018060405250810190610bde9190612966565b6001600160a01b0316336001600160a01b031614610c645760405162461bcd60e51b815260206004820152603760248201527f537465776172644c6963656e736546616365743a206f6e6c7920696e6974696160448201527f6c206269646465722063616e206d696e7420746f6b656e0000000000000000006064820152608401610689565b306001600160a01b031663be6a2a6d6040518163ffffffff1660e01b8152600401602060405180830381865afa158015610ca2573d6000803e3d6000fd5b505050506040513d601f19601f82011682018060405250810190610cc69190612a33565b4210610d3c576040805162461bcd60e51b81526020600482015260248101919091527f537465776172644c6963656e736546616365743a2063616e6e6f74206d696e7460448201527f20616674657220696e697469616c20706572696f642073746172742074696d656064820152608401610689565b610d4581611523565b15610da45760405162461bcd60e51b815260206004820152602960248201527f537465776172644c6963656e736546616365743a20546f6b656e20616c72656160448201526864792065786973747360b81b6064820152608401610689565b6108d0600083836115f9565b6060610546611615565b336001600160a01b03831603610de35760405163424a22cb60e01b815260040160405180910390fd5b3360008181527f3c7bf052874fa81625121783266a03507bd2cd48b16e571c01a04e8dd3fb07aa602090815260408083206001600160a01b03871680855290835292819020805460ff191686151590811790915590519081529192917f17307eab39ab6107e8899845ad3d59bd9653f200f220920489ca2b5937696c31910160405180910390a35050565b610e7833836112b9565b610e9557604051632f5de44f60e01b815260040160405180910390fd5b610ea184848484611634565b50505050565b6000610546600080516020612da68339815191525490565b606061053682611668565b333014610f545760405162461bcd60e51b815260206004820152604c60248201527f4e6174697665537465776172644c6963656e73653a205472696767657220747260448201527f616e736665722063616e206f6e6c792062652063616c6c65642066726f6d206160648201526b1b9bdd1a195c88199858d95d60a21b608482015260a401610689565b6106108383836115f9565b306001600160a01b0316633882ce8e6040518163ffffffff1660e01b8152600401602060405180830381865afa158015610f9d573d6000803e3d6000fd5b505050506040513d601f19601f82011682018060405250810190610fc19190612966565b6001600160a01b0316336001600160a01b031614610ff15760405162461bcd60e51b815260040161068990612983565b60005b8263ffffffff168163ffffffff161015610610576110118261184c565b8061101b81612a4c565b915050610ff4565b60006108e083836118de565b600080516020612d668339815191525460ff161561109b5760405162461bcd60e51b81526020600482015260356024820152600080516020612d268339815191526044820152740e88185b1c9958591e481a5b9a5d1a585b1a5e9959605a1b6064820152608401610689565b7f4f3bc7155d2db681e29af52d1119e27d8b92f937da5bb676ae6155a2e77a3c6d80546001600160a01b0319166001600160a01b038a161790557f4f3bc7155d2db681e29af52d1119e27d8b92f937da5bb676ae6155a2e77a3c6e87905561110786868686868661192b565b5050505050505050565b6060600080516020612dc6833981519152805461112d90612a6f565b80601f016020809104026020016040519081016040528092919081815260200182805461115990612a6f565b80156111a65780601f1061117b576101008083540402835291602001916111a6565b820191906000526020600020905b81548152906001019060200180831161118957829003601f168201915b5050505050905090565b60006111bb82611523565b6111d85760405163c1b843ef60e01b815260040160405180910390fd5b5060009081527f3c7bf052874fa81625121783266a03507bd2cd48b16e571c01a04e8dd3fb07a960205260409020546001600160a01b031690565b60008181527f3c7bf052874fa81625121783266a03507bd2cd48b16e571c01a04e8dd3fb07a96020526040902080546001600160a01b0319166001600160a01b03841690811790915581906112678261155e565b6001600160a01b03167f8c5be1e5ebec7d5bd14f71427d1e84f3dd0314c0f7b2291e5b200ac8c7c3b92560405160405180910390a45050565b6000610546600080516020612d86833981519152611a0b565b60006112c482611523565b6112e15760405163c1b843ef60e01b815260040160405180910390fd5b60006112ec8361155e565b9050806001600160a01b0316846001600160a01b031614806113275750836001600160a01b031661131c846111b0565b6001600160a01b0316145b80611337575061133781856118de565b949350505050565b826001600160a01b03166113528261155e565b6001600160a01b03161461137957604051630f2db4ad60e01b815260040160405180910390fd5b6001600160a01b0382166113a0576040516340311a0960e01b815260040160405180910390fd5b6113ab838383611a15565b6113b6600082611213565b6001600160a01b0383166000908152600080516020612d4683398151915260205260409020600080516020612d86833981519152906113f59083611b0a565b506001600160a01b0383166000908152600282016020526040902061141a9083611b16565b50611426818385611b22565b5081836001600160a01b0316856001600160a01b03167fddf252ad1be2c89b69c2b068fc378daa952ba7f163c4a11628f55a4df523b3ef60405160405180910390a450505050565b600080516020612da68339815191528054600080516020612d6683398151915291600190600061149e8385612aa9565b909155505060008181527f99574a7094154bb123ae6ae102096f0bf9679b85a5cd1e727aaa0ae5f132e6b4602052604090206114da8482612b0a565b506001600160a01b03841615610ea157610ea18482611b38565b6001600160a01b0382166000908152600080516020612d46833981519152602052604081206108e09083611c1b565b6000610536600080516020612d8683398151915283611c27565b6000611557600080516020612d8683398151915283611c3f565b5092915050565b600080611579600080516020612d8683398151915284611c5b565b90506001600160a01b03811661053657604051637e1a7d8b60e01b815260040160405180910390fd5b60006001600160a01b0382166115cb57604051630810ff9760e41b815260040160405180910390fd5b6001600160a01b0382166000908152600080516020612d468339815191526020526040902061053690611a0b565b61160281611523565b15156000036107f1576106108282611b38565b6060600080516020612dc6833981519152600101805461112d90612a6f565b61163f84848461133f565b61164b84848484611c67565b610ea157604051639ff10cdd60e01b815260040160405180910390fd5b600080516020612da683398151915254606090600080516020612d668339815191529083106116a957604051624705a760e71b815260040160405180910390fd5b60008381527f99574a7094154bb123ae6ae102096f0bf9679b85a5cd1e727aaa0ae5f132e6b4602052604081208054600080516020612dc68339815191529291906116f390612a6f565b80601f016020809104026020016040519081016040528092919081815260200182805461171f90612a6f565b801561176c5780601f106117415761010080835404028352916020019161176c565b820191906000526020600020905b81548152906001019060200180831161174f57829003601f168201915b50505050509050600082600201805461178490612a6f565b80601f01602080910402602001604051908101604052809291908181526020018280546117b090612a6f565b80156117fd5780601f106117d2576101008083540402835291602001916117fd565b820191906000526020600020905b8154815290600101906020018083116117e057829003601f168201915b505050505090506000825111156118175750949350505050565b8061182187611d38565b604051602001611832929190612bca565b604051602081830303815290604052945050505050919050565b600080516020612da68339815191528054600080516020612d6683398151915291600190600061187c8385612aa9565b9091555083905061188c82611d38565b60405160200161189d929190612bca565b6040516020818303038152906040526118c1600080516020612dc683398151915290565b60008381526003919091016020526040902090610ea19082612b0a565b6001600160a01b0391821660009081527f3c7bf052874fa81625121783266a03507bd2cd48b16e571c01a04e8dd3fb07aa6020908152604080832093909416825291909152205460ff1690565b600080516020612d6683398151915280546001600160a01b03878116610100026001600160a81b03199092169190911760011782557f79ec1734da2430052e9d78936f451aad707e5bed12ef4806b06dc3d0c38f0e3180549189166001600160a01b0319909216919091179055600080516020612da68339815191528590556000600080516020612dc68339815191529050806119c88682612b0a565b50600181016119d78582612b0a565b50600281016119e68482612b0a565b506119f96301ffc9a760e01b6001611e39565b6111076380ac58cd60e01b6001611e39565b6000610536825490565b6001600160a01b03831615611aff5760405163a7c12c1160e01b815260048101829052600090309063a7c12c1190602401602060405180830381865afa158015611a63573d6000803e3d6000fd5b505050506040513d601f19601f82011682018060405250810190611a879190612bf9565b90508015611afd5760405162461bcd60e51b815260206004820152603a60248201527f537465776172644c6963656e736546616365743a2043616e6e6f74207472616e60448201527f7366657220647572696e672061756374696f6e20706572696f640000000000006064820152608401610689565b505b610610838383611eaf565b60006108e08383611eba565b60006108e08383611f74565b600061133784846001600160a01b038516611fb7565b6001600160a01b038216611b5f576040516311f2988d60e11b815260040160405180910390fd5b611b6881611523565b15611b8657604051630d86bb7b60e31b815260040160405180910390fd5b611b9260008383611a15565b6001600160a01b0382166000908152600080516020612d4683398151915260205260409020600080516020612d8683398151915290611bd19083611b16565b50611bdd818385611b22565b5060405182906001600160a01b038516906000907fddf252ad1be2c89b69c2b068fc378daa952ba7f163c4a11628f55a4df523b3ef908290a4505050565b60006108e08383612056565b600081815260018301602052604081205415156108e0565b6000808080611c4e86866120a2565b9097909650945050505050565b60006108e08383612105565b60006001600160a01b0384163b611c8057506001611337565b6000611d0163150b7a0260e01b33888787604051602401611ca49493929190612c16565b604051602081830303815290604052906001600160e01b0319166020820180516001600160e01b038381831617835250505050604051806060016040528060328152602001612cf4603291396001600160a01b0388169190612169565b9050600081806020019051810190611d199190612c53565b6001600160e01b031916630a85bd0160e11b1492505050949350505050565b606081600003611d5f5750506040805180820190915260018152600360fc1b602082015290565b8160005b8115611d895780611d7381612a1a565b9150611d829050600a83612c86565b9150611d63565b60008167ffffffffffffffff811115611da457611da46124af565b6040519080825280601f01601f191660200182016040528015611dce576020820181803683370190505b5090505b841561133757611de3600183612c9a565b9150611df0600a86612cad565b611dfb906030612aa9565b60f81b818381518110611e1057611e106129ee565b60200101906001600160f81b031916908160001a905350611e32600a86612c86565b9450611dd2565b6001600160e01b03198083169003611e645760405163b0a19dd560e01b815260040160405180910390fd5b6001600160e01b03199190911660009081527ffc606c433378e3a7e0a6a531deac289b66caa1b4aa8554fd4ab2c6f1570f92d860205260409020805460ff1916911515919091179055565b610610838383612178565b6000818152600183016020526040812054801561155757835460009085906000198101908110611eec57611eec6129ee565b9060005260206000200154905080856000016001840381548110611f1257611f126129ee565b6000918252602080832090910192909255918252600186019052604090208190558354849080611f4457611f44612cc1565b60008281526020808220830160001990810183905590920190925593815260019485019093525050604081205590565b6000818152600183016020526040812054610536575081546001808201845560008481526020808220909301849055845493815293810190915260409092205590565b600082815260018401602052604081205480820361201e5750506040805180820182528381526020808201848152865460018181018955600089815284812095516002909302909501918255915190820155865486845281880190925292909120556108e0565b82856000016001830381548110612037576120376129ee565b90600052602060002090600202016001018190555060009150506108e0565b8154600090821061207a5760405163e637bf3b60e01b815260040160405180910390fd5b82600001828154811061208f5761208f6129ee565b9060005260206000200154905092915050565b8154600090819083106120c85760405163022fd82760e31b815260040160405180910390fd5b60008460000184815481106120df576120df6129ee565b906000526020600020906002020190508060000154816001015492509250509250929050565b600081815260018301602052604081205480820361213657604051633d547ec560e21b815260040160405180910390fd5b83600001600182038154811061214e5761214e6129ee565b90600052602060002090600202016001015491505092915050565b606061133784846000856121bc565b6001600160a01b0382166106105760008181527f99574a7094154bb123ae6ae102096f0bf9679b85a5cd1e727aaa0ae5f132e6b46020526040812061061091612279565b6060843b6121dd57604051632270d6bf60e21b815260040160405180910390fd5b600080866001600160a01b031685876040516121f99190612cd7565b60006040518083038185875af1925050503d8060008114612236576040519150601f19603f3d011682016040523d82523d6000602084013e61223b565b606091505b5091509150811561224f5791506113379050565b80511561225f5780518082602001fd5b8360405162461bcd60e51b81526004016106899190612352565b50805461228590612a6f565b6000825580601f10612295575050565b601f0160209004906000526020600020908101906122b391906122b6565b50565b5b808211156122cb57600081556001016122b7565b5090565b6001600160e01b0319811681146122b357600080fd5b6000602082840312156122f757600080fd5b81356108e0816122cf565b60005b8381101561231d578181015183820152602001612305565b50506000910152565b6000815180845261233e816020860160208601612302565b601f01601f19169290920160200192915050565b6020815260006108e06020830184612326565b60006020828403121561237757600080fd5b5035919050565b6001600160a01b03811681146122b357600080fd5b803561239e8161237e565b919050565b600080604083850312156123b657600080fd5b82356123c18161237e565b946020939093013593505050565b6000806000806000608086880312156123e757600080fd5b85356123f28161237e565b945060208601356124028161237e565b935060408601359250606086013567ffffffffffffffff8082111561242657600080fd5b818801915088601f83011261243a57600080fd5b81358181111561244957600080fd5b89602082850101111561245b57600080fd5b9699959850939650602001949392505050565b60008060006060848603121561248357600080fd5b833561248e8161237e565b9250602084013561249e8161237e565b929592945050506040919091013590565b634e487b7160e01b600052604160045260246000fd5b604051601f8201601f1916810167ffffffffffffffff811182821017156124ee576124ee6124af565b604052919050565b600067ffffffffffffffff821115612510576125106124af565b5060051b60200190565b600067ffffffffffffffff831115612534576125346124af565b612547601f8401601f19166020016124c5565b905082815283838301111561255b57600080fd5b828260208301376000602084830101529392505050565b600082601f83011261258357600080fd5b6108e08383356020850161251a565b600082601f8301126125a357600080fd5b813560206125b86125b3836124f6565b6124c5565b82815260059290921b840181019181810190868411156125d757600080fd5b8286015b8481101561261757803567ffffffffffffffff8111156125fb5760008081fd5b6126098986838b0101612572565b8452509183019183016125db565b509695505050505050565b60006020828403121561263457600080fd5b813567ffffffffffffffff81111561264b57600080fd5b61133784828501612592565b6000806040838503121561266a57600080fd5b823567ffffffffffffffff8082111561268257600080fd5b818501915085601f83011261269657600080fd5b813560206126a66125b3836124f6565b82815260059290921b840181019181810190898411156126c557600080fd5b948201945b838610156126ec5785356126dd8161237e565b825294820194908201906126ca565b9650508601359250508082111561270257600080fd5b5061270f85828601612592565b9150509250929050565b6000806040838503121561272c57600080fd5b82356127378161237e565b9150602083013567ffffffffffffffff81111561275357600080fd5b61270f85828601612572565b60006020828403121561277157600080fd5b81356108e08161237e565b80151581146122b357600080fd5b6000806040838503121561279d57600080fd5b82356127a88161237e565b915060208301356127b88161277c565b809150509250929050565b600080600080608085870312156127d957600080fd5b84356127e48161237e565b935060208501356127f48161237e565b925060408501359150606085013567ffffffffffffffff81111561281757600080fd5b8501601f8101871361282857600080fd5b6128378782356020840161251a565b91505092959194509250565b6000806040838503121561285657600080fd5b823563ffffffff8116811461273757600080fd5b6000806040838503121561287d57600080fd5b82356128888161237e565b915060208301356127b88161237e565b600080600080600080600080610100898b0312156128b557600080fd5b6128be89612393565b9750602089013596506128d360408a01612393565b95506128e160608a01612393565b94506080890135935060a089013567ffffffffffffffff8082111561290557600080fd5b6129118c838d01612572565b945060c08b013591508082111561292757600080fd5b6129338c838d01612572565b935060e08b013591508082111561294957600080fd5b506129568b828c01612572565b9150509295985092959890939650565b60006020828403121561297857600080fd5b81516108e08161237e565b60208082526045908201527f537465776172644c6963656e736546616365743a206f6e6c7920696e6974696160408201527f6c206269646465722063616e2061646420746f6b656e7320746f20636f6c6c6560608201526431ba34b7b760d91b608082015260a00190565b634e487b7160e01b600052603260045260246000fd5b634e487b7160e01b600052601160045260246000fd5b600060018201612a2c57612a2c612a04565b5060010190565b600060208284031215612a4557600080fd5b5051919050565b600063ffffffff808316818103612a6557612a65612a04565b6001019392505050565b600181811c90821680612a8357607f821691505b602082108103612aa357634e487b7160e01b600052602260045260246000fd5b50919050565b8082018082111561053657610536612a04565b601f82111561061057600081815260208120601f850160051c81016020861015612ae35750805b601f850160051c820191505b81811015612b0257828155600101612aef565b505050505050565b815167ffffffffffffffff811115612b2457612b246124af565b612b3881612b328454612a6f565b84612abc565b602080601f831160018114612b6d5760008415612b555750858301515b600019600386901b1c1916600185901b178555612b02565b600085815260208120601f198616915b82811015612b9c57888601518255948401946001909101908401612b7d565b5085821015612bba5787850151600019600388901b60f8161c191681555b5050505050600190811b01905550565b60008351612bdc818460208801612302565b835190830190612bf0818360208801612302565b01949350505050565b600060208284031215612c0b57600080fd5b81516108e08161277c565b6001600160a01b0385811682528416602082015260408101839052608060608201819052600090612c4990830184612326565b9695505050505050565b600060208284031215612c6557600080fd5b81516108e0816122cf565b634e487b7160e01b600052601260045260246000fd5b600082612c9557612c95612c70565b500490565b8181038181111561053657610536612a04565b600082612cbc57612cbc612c70565b500690565b634e487b7160e01b600052603160045260246000fd5b60008251612ce9818460208701612302565b919091019291505056fe4552433732313a207472616e7366657220746f206e6f6e20455243373231526563656976657220696d706c656d656e74657257726170706564455243373231537465776172644c6963656e736546616365743c7bf052874fa81625121783266a03507bd2cd48b16e571c01a04e8dd3fb07a879ec1734da2430052e9d78936f451aad707e5bed12ef4806b06dc3d0c38f0e303c7bf052874fa81625121783266a03507bd2cd48b16e571c01a04e8dd3fb07a679ec1734da2430052e9d78936f451aad707e5bed12ef4806b06dc3d0c38f0e3299574a7094154bb123ae6ae102096f0bf9679b85a5cd1e727aaa0ae5f132e6b1a2646970667358221220ce37f078066eba4da09e68427d051e8134217eabfbff635a207f6c33e77a42d364736f6c63430008110033",
  "devdoc": {
    "details": "ERC-721 token license for Steward that wraps existing ERC-721. Only a particular ERC721 transfer is accepted.",
    "kind": "dev",
    "methods": {
      "approve(address,uint256)": {
        "params": {
          "operator": "address to be approved",
          "tokenId": "token to approve"
        }
      },
      "balanceOf(address)": {
        "returns": {
          "_0": "quantity of tokens held"
        }
      },
      "getApproved(uint256)": {
        "params": {
          "tokenId": "token to query"
        },
        "returns": {
          "_0": "address approved to spend token"
        }
      },
      "isApprovedForAll(address,address)": {
        "params": {
          "account": "address to query for approval granted",
          "operator": "address to query for approval received"
        },
        "returns": {
          "_0": "whether operator is approved to spend tokens held by account"
        }
      },
      "ownerOf(uint256)": {
        "params": {
          "tokenId": "token to query"
        },
        "returns": {
          "_0": "token owner"
        }
      },
      "safeTransferFrom(address,address,uint256)": {
        "params": {
          "from": "sender of token",
          "to": "receiver of token",
          "tokenId": "token id"
        }
      },
      "safeTransferFrom(address,address,uint256,bytes)": {
        "params": {
          "data": "data payload",
          "from": "sender of token",
          "to": "receiver of token",
          "tokenId": "token id"
        }
      },
      "setApprovalForAll(address,bool)": {
        "params": {
          "operator": "address to be approved",
          "status": "approval status"
        }
      },
      "supportsInterface(bytes4)": {
        "params": {
          "interfaceId": "interface id"
        },
        "returns": {
          "_0": "bool whether interface is supported"
        }
      },
      "tokenByIndex(uint256)": {
        "params": {
          "index": "position in global token list to query"
        },
        "returns": {
          "_0": "id of retrieved token"
        }
      },
      "tokenOfOwnerByIndex(address,uint256)": {
        "params": {
          "index": "position in owner's token list to query",
          "owner": "token holder to query"
        },
        "returns": {
          "_0": "id of retrieved token"
        }
      },
      "totalSupply()": {
        "returns": {
          "_0": "total supply"
        }
      },
      "transferFrom(address,address,uint256)": {
        "params": {
          "from": "sender of token",
          "to": "receiver of token",
          "tokenId": "token id"
        }
      }
    },
    "title": "WrappedERC721StewardLicenseFacet",
    "version": 1
  },
  "userdoc": {
    "kind": "user",
    "methods": {
      "addTokenToCollection(address,string)": {
        "notice": "Add token to collection"
      },
      "addTokensToCollection(address[],string[])": {
        "notice": "Add tokens to collection with to"
      },
      "addTokensToCollection(string[])": {
        "notice": "Add tokens to collection"
      },
      "addTokensWithBaseURIToCollection(uint32,string)": {
        "notice": "Add tokens to collection with baseURI"
      },
      "approve(address,uint256)": {
        "notice": "grant approval to given account to spend token"
      },
      "balanceOf(address)": {
        "notice": "query the balance of given address"
      },
      "exists(uint256)": {
        "notice": "Check if token exists"
      },
      "getApproved(uint256)": {
        "notice": "get approval status for given token"
      },
      "initializeWrappedStewardLicense(address,uint256,address,address,uint256,string,string,string)": {
        "notice": "Initialize license"
      },
      "isApprovedForAll(address,address)": {
        "notice": "query approval status of given operator with respect to given address"
      },
      "maxTokenCount()": {
        "notice": "Get max token count"
      },
      "mintToken(address,uint256)": {
        "notice": "Initial bidder can mint token if it doesn't exist"
      },
      "minter()": {
        "notice": "Get minter"
      },
      "name()": {
        "notice": "inheritdoc IERC721Metadata"
      },
      "ownerOf(uint256)": {
        "notice": "query the owner of given token"
      },
      "safeTransferFrom(address,address,uint256)": {
        "notice": "transfer token between given addresses, checking for ERC721Receiver implementation if applicable"
      },
      "safeTransferFrom(address,address,uint256,bytes)": {
        "notice": "transfer token between given addresses, checking for ERC721Receiver implementation if applicable"
      },
      "setApprovalForAll(address,bool)": {
        "notice": "grant approval to or revoke approval from given account to spend all tokens held by sender"
      },
      "supportsInterface(bytes4)": {
        "notice": "query whether contract has registered support for given interface"
      },
      "symbol()": {
        "notice": "inheritdoc IERC721Metadata"
      },
      "tokenByIndex(uint256)": {
        "notice": "get token at given internal storage index"
      },
      "tokenOfOwnerByIndex(address,uint256)": {
        "notice": "get token of given owner at given internal storage index"
      },
      "tokenURI(uint256)": {
        "notice": "inheritdoc IERC721Metadata"
      },
      "totalSupply()": {
        "notice": "get total token supply"
      },
      "transferFrom(address,address,uint256)": {
        "notice": "transfer token between given addresses, without checking for ERC721Receiver implementation if applicable"
      },
      "triggerTransfer(address,address,uint256)": {
        "notice": "Trigger transfer of license"
      }
    },
    "version": 1
  },
  "storageLayout": {
    "storage": [],
    "types": null
  }
}