{
  "address": "0x8Cc1622A66c141Cf4a5bc269A3F60405112b7F5C",
  "abi": [
    {
      "inputs": [],
      "name": "AddressUtils__NotContract",
      "type": "error"
    },
    {
      "inputs": [],
      "name": "ERC165Base__InvalidInterfaceId",
      "type": "error"
    },
    {
      "inputs": [],
      "name": "ERC721Base__BalanceQueryZeroAddress",
      "type": "error"
    },
    {
      "inputs": [],
      "name": "ERC721Base__ERC721ReceiverNotImplemented",
      "type": "error"
    },
    {
      "inputs": [],
      "name": "ERC721Base__InvalidOwner",
      "type": "error"
    },
    {
      "inputs": [],
      "name": "ERC721Base__MintToZeroAddress",
      "type": "error"
    },
    {
      "inputs": [],
      "name": "ERC721Base__NonExistentToken",
      "type": "error"
    },
    {
      "inputs": [],
      "name": "ERC721Base__NotOwnerOrApproved",
      "type": "error"
    },
    {
      "inputs": [],
      "name": "ERC721Base__NotTokenOwner",
      "type": "error"
    },
    {
      "inputs": [],
      "name": "ERC721Base__SelfApproval",
      "type": "error"
    },
    {
      "inputs": [],
      "name": "ERC721Base__TokenAlreadyMinted",
      "type": "error"
    },
    {
      "inputs": [],
      "name": "ERC721Base__TransferToZeroAddress",
      "type": "error"
    },
    {
      "inputs": [],
      "name": "ERC721Metadata__NonExistentToken",
      "type": "error"
    },
    {
      "inputs": [],
      "name": "EnumerableMap__IndexOutOfBounds",
      "type": "error"
    },
    {
      "inputs": [],
      "name": "EnumerableMap__NonExistentKey",
      "type": "error"
    },
    {
      "inputs": [],
      "name": "EnumerableSet__IndexOutOfBounds",
      "type": "error"
    },
    {
      "inputs": [],
      "name": "UintUtils__InsufficientHexLength",
      "type": "error"
    },
    {
      "anonymous": false,
      "inputs": [
        {
          "indexed": true,
          "internalType": "address",
          "name": "owner",
          "type": "address"
        },
        {
          "indexed": true,
          "internalType": "address",
          "name": "operator",
          "type": "address"
        },
        {
          "indexed": true,
          "internalType": "uint256",
          "name": "tokenId",
          "type": "uint256"
        }
      ],
      "name": "Approval",
      "type": "event"
    },
    {
      "anonymous": false,
      "inputs": [
        {
          "indexed": true,
          "internalType": "address",
          "name": "owner",
          "type": "address"
        },
        {
          "indexed": true,
          "internalType": "address",
          "name": "operator",
          "type": "address"
        },
        {
          "indexed": false,
          "internalType": "bool",
          "name": "approved",
          "type": "bool"
        }
      ],
      "name": "ApprovalForAll",
      "type": "event"
    },
    {
      "anonymous": false,
      "inputs": [
        {
          "indexed": true,
          "internalType": "bytes32",
          "name": "role",
          "type": "bytes32"
        },
        {
          "indexed": true,
          "internalType": "bytes32",
          "name": "previousAdminRole",
          "type": "bytes32"
        },
        {
          "indexed": true,
          "internalType": "bytes32",
          "name": "newAdminRole",
          "type": "bytes32"
        }
      ],
      "name": "RoleAdminChanged",
      "type": "event"
    },
    {
      "anonymous": false,
      "inputs": [
        {
          "indexed": true,
          "internalType": "bytes32",
          "name": "role",
          "type": "bytes32"
        },
        {
          "indexed": true,
          "internalType": "address",
          "name": "account",
          "type": "address"
        },
        {
          "indexed": true,
          "internalType": "address",
          "name": "sender",
          "type": "address"
        }
      ],
      "name": "RoleGranted",
      "type": "event"
    },
    {
      "anonymous": false,
      "inputs": [
        {
          "indexed": true,
          "internalType": "bytes32",
          "name": "role",
          "type": "bytes32"
        },
        {
          "indexed": true,
          "internalType": "address",
          "name": "account",
          "type": "address"
        },
        {
          "indexed": true,
          "internalType": "address",
          "name": "sender",
          "type": "address"
        }
      ],
      "name": "RoleRevoked",
      "type": "event"
    },
    {
      "anonymous": false,
      "inputs": [
        {
          "indexed": true,
          "internalType": "address",
          "name": "from",
          "type": "address"
        },
        {
          "indexed": true,
          "internalType": "address",
          "name": "to",
          "type": "address"
        },
        {
          "indexed": true,
          "internalType": "uint256",
          "name": "tokenId",
          "type": "uint256"
        }
      ],
      "name": "Transfer",
      "type": "event"
    },
    {
      "inputs": [
        {
          "internalType": "address",
          "name": "to",
          "type": "address"
        },
        {
          "internalType": "string",
          "name": "tokenURI",
          "type": "string"
        }
      ],
      "name": "addTokenToCollection",
      "outputs": [],
      "stateMutability": "nonpayable",
      "type": "function"
    },
    {
      "inputs": [
        {
          "internalType": "string[]",
          "name": "tokenURIs",
          "type": "string[]"
        },
        {
          "internalType": "bool",
          "name": "shouldMint",
          "type": "bool"
        }
      ],
      "name": "addTokensToCollection",
      "outputs": [],
      "stateMutability": "nonpayable",
      "type": "function"
    },
    {
      "inputs": [
        {
          "internalType": "address[]",
          "name": "to",
          "type": "address[]"
        },
        {
          "internalType": "string[]",
          "name": "tokenURIs",
          "type": "string[]"
        }
      ],
      "name": "addTokensToCollection",
      "outputs": [],
      "stateMutability": "nonpayable",
      "type": "function"
    },
    {
      "inputs": [
        {
          "internalType": "uint32",
          "name": "amount",
          "type": "uint32"
        },
        {
          "internalType": "string",
          "name": "baseURI",
          "type": "string"
        },
        {
          "internalType": "bool",
          "name": "shouldMint",
          "type": "bool"
        }
      ],
      "name": "addTokensWithBaseURIToCollection",
      "outputs": [],
      "stateMutability": "nonpayable",
      "type": "function"
    },
    {
      "inputs": [
        {
          "internalType": "address",
          "name": "operator",
          "type": "address"
        },
        {
          "internalType": "uint256",
          "name": "tokenId",
          "type": "uint256"
        }
      ],
      "name": "approve",
      "outputs": [],
      "stateMutability": "payable",
      "type": "function"
    },
    {
      "inputs": [
        {
          "internalType": "address",
          "name": "account",
          "type": "address"
        }
      ],
      "name": "balanceOf",
      "outputs": [
        {
          "internalType": "uint256",
          "name": "",
          "type": "uint256"
        }
      ],
      "stateMutability": "view",
      "type": "function"
    },
    {
      "inputs": [
        {
          "internalType": "uint256",
          "name": "tokenId",
          "type": "uint256"
        }
      ],
      "name": "exists",
      "outputs": [
        {
          "internalType": "bool",
          "name": "",
          "type": "bool"
        }
      ],
      "stateMutability": "view",
      "type": "function"
    },
    {
      "inputs": [
        {
          "internalType": "uint256",
          "name": "tokenId",
          "type": "uint256"
        }
      ],
      "name": "getApproved",
      "outputs": [
        {
          "internalType": "address",
          "name": "",
          "type": "address"
        }
      ],
      "stateMutability": "view",
      "type": "function"
    },
    {
      "inputs": [
        {
          "internalType": "address",
          "name": "tokenAddress",
          "type": "address"
        },
        {
          "internalType": "uint256",
          "name": "tokenId",
          "type": "uint256"
        },
        {
          "internalType": "address",
          "name": "_minter",
          "type": "address"
        },
        {
          "internalType": "address",
          "name": "_steward",
          "type": "address"
        },
        {
          "internalType": "uint256",
          "name": "_maxTokenCount",
          "type": "uint256"
        },
        {
          "internalType": "bool",
          "name": "shouldMint",
          "type": "bool"
        },
        {
          "internalType": "string",
          "name": "name",
          "type": "string"
        },
        {
          "internalType": "string",
          "name": "symbol",
          "type": "string"
        },
        {
          "internalType": "string",
          "name": "tokenURI",
          "type": "string"
        }
      ],
      "name": "initializeWrappedStewardLicense",
      "outputs": [],
      "stateMutability": "nonpayable",
      "type": "function"
    },
    {
      "inputs": [
        {
          "internalType": "address",
          "name": "account",
          "type": "address"
        },
        {
          "internalType": "address",
          "name": "operator",
          "type": "address"
        }
      ],
      "name": "isApprovedForAll",
      "outputs": [
        {
          "internalType": "bool",
          "name": "",
          "type": "bool"
        }
      ],
      "stateMutability": "view",
      "type": "function"
    },
    {
      "inputs": [],
      "name": "maxTokenCount",
      "outputs": [
        {
          "internalType": "uint256",
          "name": "",
          "type": "uint256"
        }
      ],
      "stateMutability": "view",
      "type": "function"
    },
    {
      "inputs": [
        {
          "internalType": "address",
          "name": "to",
          "type": "address"
        },
        {
          "internalType": "uint256",
          "name": "tokenId",
          "type": "uint256"
        }
      ],
      "name": "mintToken",
      "outputs": [],
      "stateMutability": "nonpayable",
      "type": "function"
    },
    {
      "inputs": [],
      "name": "minter",
      "outputs": [
        {
          "internalType": "address",
          "name": "",
          "type": "address"
        }
      ],
      "stateMutability": "view",
      "type": "function"
    },
    {
      "inputs": [],
      "name": "name",
      "outputs": [
        {
          "internalType": "string",
          "name": "",
          "type": "string"
        }
      ],
      "stateMutability": "view",
      "type": "function"
    },
    {
      "inputs": [
        {
          "internalType": "address",
          "name": "",
          "type": "address"
        },
        {
          "internalType": "address",
          "name": "",
          "type": "address"
        },
        {
          "internalType": "uint256[]",
          "name": "ids",
          "type": "uint256[]"
        },
        {
          "internalType": "uint256[]",
          "name": "values",
          "type": "uint256[]"
        },
        {
          "internalType": "bytes",
          "name": "",
          "type": "bytes"
        }
      ],
      "name": "onERC1155BatchReceived",
      "outputs": [
        {
          "internalType": "bytes4",
          "name": "",
          "type": "bytes4"
        }
      ],
      "stateMutability": "view",
      "type": "function"
    },
    {
      "inputs": [
        {
          "internalType": "address",
          "name": "",
          "type": "address"
        },
        {
          "internalType": "address",
          "name": "",
          "type": "address"
        },
        {
          "internalType": "uint256",
          "name": "id",
          "type": "uint256"
        },
        {
          "internalType": "uint256",
          "name": "value",
          "type": "uint256"
        },
        {
          "internalType": "bytes",
          "name": "",
          "type": "bytes"
        }
      ],
      "name": "onERC1155Received",
      "outputs": [
        {
          "internalType": "bytes4",
          "name": "",
          "type": "bytes4"
        }
      ],
      "stateMutability": "view",
      "type": "function"
    },
    {
      "inputs": [
        {
          "internalType": "uint256",
          "name": "tokenId",
          "type": "uint256"
        }
      ],
      "name": "ownerOf",
      "outputs": [
        {
          "internalType": "address",
          "name": "",
          "type": "address"
        }
      ],
      "stateMutability": "view",
      "type": "function"
    },
    {
      "inputs": [
        {
          "internalType": "address",
          "name": "from",
          "type": "address"
        },
        {
          "internalType": "address",
          "name": "to",
          "type": "address"
        },
        {
          "internalType": "uint256",
          "name": "tokenId",
          "type": "uint256"
        }
      ],
      "name": "safeTransferFrom",
      "outputs": [],
      "stateMutability": "payable",
      "type": "function"
    },
    {
      "inputs": [
        {
          "internalType": "address",
          "name": "from",
          "type": "address"
        },
        {
          "internalType": "address",
          "name": "to",
          "type": "address"
        },
        {
          "internalType": "uint256",
          "name": "tokenId",
          "type": "uint256"
        },
        {
          "internalType": "bytes",
          "name": "data",
          "type": "bytes"
        }
      ],
      "name": "safeTransferFrom",
      "outputs": [],
      "stateMutability": "payable",
      "type": "function"
    },
    {
      "inputs": [
        {
          "internalType": "address",
          "name": "operator",
          "type": "address"
        },
        {
          "internalType": "bool",
          "name": "status",
          "type": "bool"
        }
      ],
      "name": "setApprovalForAll",
      "outputs": [],
      "stateMutability": "nonpayable",
      "type": "function"
    },
    {
      "inputs": [
        {
          "internalType": "bytes4",
          "name": "interfaceId",
          "type": "bytes4"
        }
      ],
      "name": "supportsInterface",
      "outputs": [
        {
          "internalType": "bool",
          "name": "",
          "type": "bool"
        }
      ],
      "stateMutability": "view",
      "type": "function"
    },
    {
      "inputs": [],
      "name": "symbol",
      "outputs": [
        {
          "internalType": "string",
          "name": "",
          "type": "string"
        }
      ],
      "stateMutability": "view",
      "type": "function"
    },
    {
      "inputs": [
        {
          "internalType": "uint256",
          "name": "index",
          "type": "uint256"
        }
      ],
      "name": "tokenByIndex",
      "outputs": [
        {
          "internalType": "uint256",
          "name": "",
          "type": "uint256"
        }
      ],
      "stateMutability": "view",
      "type": "function"
    },
    {
      "inputs": [
        {
          "internalType": "address",
          "name": "owner",
          "type": "address"
        },
        {
          "internalType": "uint256",
          "name": "index",
          "type": "uint256"
        }
      ],
      "name": "tokenOfOwnerByIndex",
      "outputs": [
        {
          "internalType": "uint256",
          "name": "",
          "type": "uint256"
        }
      ],
      "stateMutability": "view",
      "type": "function"
    },
    {
      "inputs": [
        {
          "internalType": "uint256",
          "name": "tokenId",
          "type": "uint256"
        }
      ],
      "name": "tokenURI",
      "outputs": [
        {
          "internalType": "string",
          "name": "",
          "type": "string"
        }
      ],
      "stateMutability": "view",
      "type": "function"
    },
    {
      "inputs": [],
      "name": "totalSupply",
      "outputs": [
        {
          "internalType": "uint256",
          "name": "",
          "type": "uint256"
        }
      ],
      "stateMutability": "view",
      "type": "function"
    },
    {
      "inputs": [
        {
          "internalType": "address",
          "name": "from",
          "type": "address"
        },
        {
          "internalType": "address",
          "name": "to",
          "type": "address"
        },
        {
          "internalType": "uint256",
          "name": "tokenId",
          "type": "uint256"
        }
      ],
      "name": "transferFrom",
      "outputs": [],
      "stateMutability": "payable",
      "type": "function"
    },
    {
      "inputs": [
        {
          "internalType": "address",
          "name": "from",
          "type": "address"
        },
        {
          "internalType": "address",
          "name": "to",
          "type": "address"
        },
        {
          "internalType": "uint256",
          "name": "tokenId",
          "type": "uint256"
        }
      ],
      "name": "triggerTransfer",
      "outputs": [],
      "stateMutability": "nonpayable",
      "type": "function"
    }
  ],
  "transactionHash": "0xb9873166c17a5151c8df55e9ba8b67d902db82922e58aeab64a9becf1afdeed6",
  "args": [],
  "numDeployments": 6,
  "solcInputHash": "fbf07fab64b6bb94fa5c2c9db3357e1b",
  "bytecode": "0x608060405234801561001057600080fd5b506132ea806100206000396000f3fe6080604052600436106101b75760003560e01c80636a2e019f116100ec578063bc197c811161008a578063d111122f11610064578063d111122f146104b4578063e31a7c01146104d4578063e985e9c5146104f4578063f23a6e611461051457600080fd5b8063bc197c8114610446578063c4e627c21461047f578063c87b56dd1461049457600080fd5b806395d89b41116100c657806395d89b41146103de578063a22cb465146103f3578063b3cd1d9c14610413578063b88d4fde1461043357600080fd5b80636a2e019f1461037e57806370a082311461039e57806379c65068146103be57600080fd5b806323b872dd116101595780634a7c554f116101335780634a7c554f146102fe5780634f558e791461031e5780634f6ccce71461033e5780636352211e1461035e57600080fd5b806323b872dd146102b85780632f745c59146102cb57806342842e0e146102eb57600080fd5b8063081812fc11610195578063081812fc14610240578063095ea7b31461026057806318160ddd146102755780632107ddfe1461029857600080fd5b806301ffc9a7146101bc57806306fdde03146101f15780630754617214610213575b600080fd5b3480156101c857600080fd5b506101dc6101d73660046124ba565b610534565b60405190151581526020015b60405180910390f35b3480156101fd57600080fd5b50610206610577565b6040516101e89190612527565b34801561021f57600080fd5b50610228610586565b6040516001600160a01b0390911681526020016101e8565b34801561024c57600080fd5b5061022861025b36600461253a565b6105b9565b61027361026e366004612578565b6105c4565b005b34801561028157600080fd5b5061028a610650565b6040519081526020016101e8565b3480156102a457600080fd5b506102736102b336600461272c565b61065a565b6102736102c636600461277d565b6106eb565b3480156102d757600080fd5b5061028a6102e6366004612578565b61071d565b6102736102f936600461277d565b610730565b34801561030a57600080fd5b506102736103193660046127be565b61074b565b34801561032a57600080fd5b506101dc61033936600461253a565b610824565b34801561034a57600080fd5b5061028a61035936600461253a565b61082f565b34801561036a57600080fd5b5061022861037936600461253a565b61083a565b34801561038a57600080fd5b5061027361039936600461287f565b610845565b3480156103aa57600080fd5b5061028a6103b93660046128c4565b610867565b3480156103ca57600080fd5b506102736103d9366004612578565b610872565b3480156103ea57600080fd5b50610206610aaa565b3480156103ff57600080fd5b5061027361040e3660046128e1565b610ab4565b34801561041f57600080fd5b5061027361042e36600461290f565b610b68565b6102736104413660046129ed565b610c4d565b34801561045257600080fd5b50610466610461366004612af1565b610c80565b6040516001600160e01b031990911681526020016101e8565b34801561048b57600080fd5b5061028a610dbe565b3480156104a057600080fd5b506102066104af36600461253a565b610dd6565b3480156104c057600080fd5b506102736104cf366004612baf565b610de1565b3480156104e057600080fd5b506102736104ef36600461277d565b610e33565b34801561050057600080fd5b506101dc61050f366004612c1b565b610ec8565b34801561052057600080fd5b5061046661052f366004612c49565b610ed4565b6001600160e01b0319811660009081527ffc606c433378e3a7e0a6a531deac289b66caa1b4aa8554fd4ab2c6f1570f92d8602052604081205460ff165b92915050565b6060610581610fc6565b905090565b60006105817f79ec1734da2430052e9d78936f451aad707e5bed12ef4806b06dc3d0c38f0e31546001600160a01b031690565b600061057182611065565b60006105cf8261083a565b9050806001600160a01b0316836001600160a01b0316036106035760405163424a22cb60e01b815260040160405180910390fd5b336001600160a01b0382161480159061062357506106218133610ec8565b155b1561064157604051632f5de44f60e01b815260040160405180910390fd5b61064b83836110c8565b505050565b6000610581611155565b6000805160206132958339815191526106728161116e565b60005b83518110156106e557600083156106ab576000805160206131f58339815191525461010090046001600160a01b031690506106af565b5060005b6106d2818684815181106106c5576106c5612cc4565b602002602001015161117b565b50806106dd81612cf0565b915050610675565b50505050565b6106f53382611201565b61071257604051632f5de44f60e01b815260040160405180910390fd5b61064b838383611287565b600061072983836113b6565b9392505050565b61064b83838360405180602001604052806000815250610c4d565b6000805160206132958339815191526107638161116e565b81518351146107d75760405162461bcd60e51b815260206004820152603560248201527f537465776172644c6963656e736546616365743a20746f20616e6420746f6b656044820152740dcaaa492e640d8cadccee8d040dad2e6dac2e8c6d605b1b60648201526084015b60405180910390fd5b60005b82518110156106e5576108128482815181106107f8576107f8612cc4565b60200260200101518483815181106106c5576106c5612cc4565b8061081c81612cf0565b9150506107da565b6000610571826113e5565b6000610571826113ff565b600061057182611420565b60008051602061329583398151915261085d8161116e565b61064b838361117b565b600061057182611464565b306001600160a01b0316633882ce8e6040518163ffffffff1660e01b8152600401602060405180830381865afa1580156108b0573d6000803e3d6000fd5b505050506040513d601f19601f820116820180604052508101906108d49190612d09565b6001600160a01b0316336001600160a01b03161461095a5760405162461bcd60e51b815260206004820152603760248201527f537465776172644c6963656e736546616365743a206f6e6c7920696e6974696160448201527f6c206269646465722063616e206d696e7420746f6b656e00000000000000000060648201526084016107ce565b306001600160a01b031663be6a2a6d6040518163ffffffff1660e01b8152600401602060405180830381865afa158015610998573d6000803e3d6000fd5b505050506040513d601f19601f820116820180604052508101906109bc9190612d26565b4210610a32576040805162461bcd60e51b81526020600482015260248101919091527f537465776172644c6963656e736546616365743a2063616e6e6f74206d696e7460448201527f20616674657220696e697469616c20706572696f642073746172742074696d6560648201526084016107ce565b610a3b816113e5565b15610a9a5760405162461bcd60e51b815260206004820152602960248201527f537465776172644c6963656e736546616365743a20546f6b656e20616c72656160448201526864792065786973747360b81b60648201526084016107ce565b610aa6600083836114bb565b5050565b60606105816114d7565b336001600160a01b03831603610add5760405163424a22cb60e01b815260040160405180910390fd5b3360008181527f3c7bf052874fa81625121783266a03507bd2cd48b16e571c01a04e8dd3fb07aa602090815260408083206001600160a01b03871680855290835292819020805460ff191686151590811790915590519081529192917f17307eab39ab6107e8899845ad3d59bd9653f200f220920489ca2b5937696c31910160405180910390a35050565b6000805160206131f58339815191525460ff1615610bd55760405162461bcd60e51b815260206004820152603660248201526000805160206132758339815191526044820152751d0e88185b1c9958591e481a5b9a5d1a585b1a5e995960521b60648201526084016107ce565b7f4f3bc7155d2db681e29af52d1119e27d8b92f937da5bb676ae6155a2e77a3c6d80546001600160a01b0319166001600160a01b038b161790557f4f3bc7155d2db681e29af52d1119e27d8b92f937da5bb676ae6155a2e77a3c6e889055610c42878787878787876114f6565b505050505050505050565b610c573383611201565b610c7457604051632f5de44f60e01b815260040160405180910390fd5b6106e584848484611627565b6000600186148015610c925750600184145b8015610cb7575084846000818110610cac57610cac612cc4565b905060200201356001145b610cd35760405162461bcd60e51b81526004016107ce90612d3f565b6000805160206131f58339815191525460ff161515600114610d075760405162461bcd60e51b81526004016107ce90612d8a565b7f4f3bc7155d2db681e29af52d1119e27d8b92f937da5bb676ae6155a2e77a3c6d546001600160a01b03163314610d505760405162461bcd60e51b81526004016107ce90612dce565b7f4f3bc7155d2db681e29af52d1119e27d8b92f937da5bb676ae6155a2e77a3c6e5487876000818110610d8557610d85612cc4565b9050602002013514610da95760405162461bcd60e51b81526004016107ce90612e25565b5063bc197c8160e01b98975050505050505050565b60006105816000805160206132358339815191525490565b60606105718261165b565b600080516020613295833981519152610df98161116e565b60005b8463ffffffff168163ffffffff161015610e2c57610e1a848461183f565b80610e2481612e70565b915050610dfc565b5050505050565b333014610ebd5760405162461bcd60e51b815260206004820152604c60248201527f4e6174697665537465776172644c6963656e73653a205472696767657220747260448201527f616e736665722063616e206f6e6c792062652063616c6c65642066726f6d206160648201526b1b9bdd1a195c88199858d95d60a21b608482015260a4016107ce565b61064b8383836114bb565b600061072983836118f2565b600083600114610ef65760405162461bcd60e51b81526004016107ce90612d3f565b6000805160206131f58339815191525460ff161515600114610f2a5760405162461bcd60e51b81526004016107ce90612d8a565b7f4f3bc7155d2db681e29af52d1119e27d8b92f937da5bb676ae6155a2e77a3c6d546001600160a01b03163314610f735760405162461bcd60e51b81526004016107ce90612dce565b7f4f3bc7155d2db681e29af52d1119e27d8b92f937da5bb676ae6155a2e77a3c6e548514610fb35760405162461bcd60e51b81526004016107ce90612e25565b5063f23a6e6160e01b9695505050505050565b60606000805160206132558339815191528054610fe290612e93565b80601f016020809104026020016040519081016040528092919081815260200182805461100e90612e93565b801561105b5780601f106110305761010080835404028352916020019161105b565b820191906000526020600020905b81548152906001019060200180831161103e57829003601f168201915b5050505050905090565b6000611070826113e5565b61108d5760405163c1b843ef60e01b815260040160405180910390fd5b5060009081527f3c7bf052874fa81625121783266a03507bd2cd48b16e571c01a04e8dd3fb07a960205260409020546001600160a01b031690565b60008181527f3c7bf052874fa81625121783266a03507bd2cd48b16e571c01a04e8dd3fb07a96020526040902080546001600160a01b0319166001600160a01b038416908117909155819061111c82611420565b6001600160a01b03167f8c5be1e5ebec7d5bd14f71427d1e84f3dd0314c0f7b2291e5b200ac8c7c3b92560405160405180910390a45050565b600061058160008051602061321583398151915261193f565b6111788133611949565b50565b60008051602061323583398151915280546000805160206131f58339815191529160019060006111ab8385612ecd565b909155505060008181527f99574a7094154bb123ae6ae102096f0bf9679b85a5cd1e727aaa0ae5f132e6b4602052604090206111e78482612f2e565b506001600160a01b038416156106e5576106e584826119ab565b600061120c826113e5565b6112295760405163c1b843ef60e01b815260040160405180910390fd5b600061123483611420565b9050806001600160a01b0316846001600160a01b0316148061126f5750836001600160a01b031661126484611065565b6001600160a01b0316145b8061127f575061127f81856118f2565b949350505050565b826001600160a01b031661129a82611420565b6001600160a01b0316146112c157604051630f2db4ad60e01b815260040160405180910390fd5b6001600160a01b0382166112e8576040516340311a0960e01b815260040160405180910390fd5b6112f3838383611a8e565b6112fe6000826110c8565b6001600160a01b03831660009081526000805160206131d5833981519152602052604090206000805160206132158339815191529061133d9083611b83565b506001600160a01b038316600090815260028201602052604090206113629083611b8f565b5061136e818385611b9b565b5081836001600160a01b0316856001600160a01b03167fddf252ad1be2c89b69c2b068fc378daa952ba7f163c4a11628f55a4df523b3ef60405160405180910390a450505050565b6001600160a01b03821660009081526000805160206131d5833981519152602052604081206107299083611bb1565b600061057160008051602061321583398151915283611bbd565b600061141960008051602061321583398151915283611bd5565b5092915050565b60008061143b60008051602061321583398151915284611bf3565b90506001600160a01b03811661057157604051637e1a7d8b60e01b815260040160405180910390fd5b60006001600160a01b03821661148d57604051630810ff9760e41b815260040160405180910390fd5b6001600160a01b03821660009081526000805160206131d5833981519152602052604090206105719061193f565b6114c4816113e5565b15156000036107125761064b82826119ab565b60606000805160206132558339815191526001018054610fe290612e93565b6000805160206131f583398151915280546001600160a01b03888116610100026001600160a81b03199092169190911760011782557f79ec1734da2430052e9d78936f451aad707e5bed12ef4806b06dc3d0c38f0e318054918a166001600160a01b031990921691909117905560008051602061323583398151915286905560006000805160206132558339815191529050806115938682612f2e565b50600181016115a28582612f2e565b50600281016115b18482612f2e565b506115c46301ffc9a760e01b6001611bff565b6115d66380ac58cd60e01b6001611bff565b6115ee6000805160206132958339815191528a611c75565b8515610c425760005b8781101561161b5761160989826119ab565b8061161381612cf0565b9150506115f7565b50505050505050505050565b611632848484611287565b61163e84848484611ce9565b6106e557604051639ff10cdd60e01b815260040160405180910390fd5b600080516020613235833981519152546060906000805160206131f583398151915290831061169c57604051624705a760e71b815260040160405180910390fd5b60008381527f99574a7094154bb123ae6ae102096f0bf9679b85a5cd1e727aaa0ae5f132e6b46020526040812080546000805160206132558339815191529291906116e690612e93565b80601f016020809104026020016040519081016040528092919081815260200182805461171290612e93565b801561175f5780601f106117345761010080835404028352916020019161175f565b820191906000526020600020905b81548152906001019060200180831161174257829003601f168201915b50505050509050600082600201805461177790612e93565b80601f01602080910402602001604051908101604052809291908181526020018280546117a390612e93565b80156117f05780601f106117c5576101008083540402835291602001916117f0565b820191906000526020600020905b8154815290600101906020018083116117d357829003601f168201915b5050505050905060008251111561180a5750949350505050565b8061181487611dba565b604051602001611825929190612fed565b604051602081830303815290604052945050505050919050565b60008051602061323583398151915280546000805160206131f583398151915291600190600061186f8385612ecd565b9091555084905061187f82611dba565b604051602001611890929190612fed565b6040516020818303038152906040526118b460008051602061325583398151915290565b600083815260039190910160205260409020906118d19082612f2e565b5082156106e55781546106e59061010090046001600160a01b0316826119ab565b6001600160a01b0391821660009081527f3c7bf052874fa81625121783266a03507bd2cd48b16e571c01a04e8dd3fb07aa6020908152604080832093909416825291909152205460ff1690565b6000610571825490565b6119538282611eba565b610aa657611969816001600160a01b0316611ef1565b611974836020611f03565b60405160200161198592919061301c565b60408051601f198184030181529082905262461bcd60e51b82526107ce91600401612527565b6001600160a01b0382166119d2576040516311f2988d60e11b815260040160405180910390fd5b6119db816113e5565b156119f957604051630d86bb7b60e31b815260040160405180910390fd5b611a0560008383611a8e565b6001600160a01b03821660009081526000805160206131d58339815191526020526040902060008051602061321583398151915290611a449083611b8f565b50611a50818385611b9b565b5060405182906001600160a01b038516906000907fddf252ad1be2c89b69c2b068fc378daa952ba7f163c4a11628f55a4df523b3ef908290a4505050565b6001600160a01b03831615611b785760405163a7c12c1160e01b815260048101829052600090309063a7c12c1190602401602060405180830381865afa158015611adc573d6000803e3d6000fd5b505050506040513d601f19601f82011682018060405250810190611b009190613091565b90508015611b765760405162461bcd60e51b815260206004820152603a60248201527f537465776172644c6963656e736546616365743a2043616e6e6f74207472616e60448201527f7366657220647572696e672061756374696f6e20706572696f6400000000000060648201526084016107ce565b505b61064b838383612055565b60006107298383612060565b6000610729838361211a565b600061127f84846001600160a01b03851661215d565b600061072983836121fc565b60008181526001830160205260408120541515610729565b6000808080611be48686612248565b909450925050505b9250929050565b600061072983836122ab565b6001600160e01b03198083169003611c2a5760405163b0a19dd560e01b815260040160405180910390fd5b6001600160e01b03199190911660009081527ffc606c433378e3a7e0a6a531deac289b66caa1b4aa8554fd4ab2c6f1570f92d860205260409020805460ff1916911515919091179055565b60008281527fd3889cc5458b268d0544e5534672df1296288ca3f93cbd39bd6f497a5c62281160205260409020611cac908261230f565b5060405133906001600160a01b0383169084907f2f8788117e7eff1d82e926ec794901d17c78024a50270940304540a733656f0d90600090a45050565b60006001600160a01b0384163b611d025750600161127f565b6000611d8363150b7a0260e01b33888787604051602401611d2694939291906130ae565b604051602081830303815290604052906001600160e01b0319166020820180516001600160e01b0383818316178352505050506040518060600160405280603281526020016131a3603291396001600160a01b0388169190612324565b9050600081806020019051810190611d9b91906130eb565b6001600160e01b031916630a85bd0160e11b1492505050949350505050565b606081600003611de15750506040805180820190915260018152600360fc1b602082015290565b8160005b8115611e0b5780611df581612cf0565b9150611e049050600a8361311e565b9150611de5565b6000816001600160401b03811115611e2557611e256125a4565b6040519080825280601f01601f191660200182016040528015611e4f576020820181803683370190505b5090505b841561127f57611e64600183613132565b9150611e71600a86613145565b611e7c906030612ecd565b60f81b818381518110611e9157611e91612cc4565b60200101906001600160f81b031916908160001a905350611eb3600a8661311e565b9450611e53565b60008281527fd3889cc5458b268d0544e5534672df1296288ca3f93cbd39bd6f497a5c622811602052604081206107299083612333565b60606105716001600160a01b03831660145b60606000611f12836002613159565b611f1d906002612ecd565b6001600160401b03811115611f3457611f346125a4565b6040519080825280601f01601f191660200182016040528015611f5e576020820181803683370190505b509050600360fc1b81600081518110611f7957611f79612cc4565b60200101906001600160f81b031916908160001a905350600f60fb1b81600181518110611fa857611fa8612cc4565b60200101906001600160f81b031916908160001a905350600160028402015b6001811115612035576f181899199a1a9b1b9c1cb0b131b232b360811b85600f1660108110611ff857611ff8612cc4565b1a60f81b82828151811061200e5761200e612cc4565b60200101906001600160f81b031916908160001a90535060049490941c9360001901611fc7565b5083156107295760405163c913478560e01b815260040160405180910390fd5b61064b838383612355565b600081815260018301602052604081205480156114195783546000908590600019810190811061209257612092612cc4565b90600052602060002001549050808560000160018403815481106120b8576120b8612cc4565b60009182526020808320909101929092559182526001860190526040902081905583548490806120ea576120ea613170565b60008281526020808220830160001990810183905590920190925593815260019485019093525050604081205590565b6000818152600183016020526040812054610571575081546001808201845560008481526020808220909301849055845493815293810190915260409092205590565b60008281526001840160205260408120548082036121c4575050604080518082018252838152602080820184815286546001818101895560008981528481209551600290930290950191825591519082015586548684528188019092529290912055610729565b828560000160018303815481106121dd576121dd612cc4565b9060005260206000209060020201600101819055506000915050610729565b815460009082106122205760405163e637bf3b60e01b815260040160405180910390fd5b82600001828154811061223557612235612cc4565b9060005260206000200154905092915050565b81546000908190831061226e5760405163022fd82760e31b815260040160405180910390fd5b600084600001848154811061228557612285612cc4565b906000526020600020906002020190508060000154816001015492509250509250929050565b60008181526001830160205260408120548082036122dc57604051633d547ec560e21b815260040160405180910390fd5b8360000160018203815481106122f4576122f4612cc4565b90600052602060002090600202016001015491505092915050565b6000610729836001600160a01b03841661211a565b606061127f8484600085612399565b6001600160a01b03811660009081526001830160205260408120541515610729565b6001600160a01b03821661064b5760008181527f99574a7094154bb123ae6ae102096f0bf9679b85a5cd1e727aaa0ae5f132e6b46020526040812061064b91612456565b6060843b6123ba57604051632270d6bf60e21b815260040160405180910390fd5b600080866001600160a01b031685876040516123d69190613186565b60006040518083038185875af1925050503d8060008114612413576040519150601f19603f3d011682016040523d82523d6000602084013e612418565b606091505b5091509150811561242c57915061127f9050565b80511561243c5780518082602001fd5b8360405162461bcd60e51b81526004016107ce9190612527565b50805461246290612e93565b6000825580601f10612472575050565b601f01602090049060005260206000209081019061117891905b808211156124a0576000815560010161248c565b5090565b6001600160e01b03198116811461117857600080fd5b6000602082840312156124cc57600080fd5b8135610729816124a4565b60005b838110156124f25781810151838201526020016124da565b50506000910152565b600081518084526125138160208601602086016124d7565b601f01601f19169290920160200192915050565b60208152600061072960208301846124fb565b60006020828403121561254c57600080fd5b5035919050565b6001600160a01b038116811461117857600080fd5b803561257381612553565b919050565b6000806040838503121561258b57600080fd5b823561259681612553565b946020939093013593505050565b634e487b7160e01b600052604160045260246000fd5b604051601f8201601f191681016001600160401b03811182821017156125e2576125e26125a4565b604052919050565b60006001600160401b03821115612603576126036125a4565b5060051b60200190565b60006001600160401b03831115612626576126266125a4565b612639601f8401601f19166020016125ba565b905082815283838301111561264d57600080fd5b828260208301376000602084830101529392505050565b600082601f83011261267557600080fd5b6107298383356020850161260d565b600082601f83011261269557600080fd5b813560206126aa6126a5836125ea565b6125ba565b82815260059290921b840181019181810190868411156126c957600080fd5b8286015b848110156127085780356001600160401b038111156126ec5760008081fd5b6126fa8986838b0101612664565b8452509183019183016126cd565b509695505050505050565b801515811461117857600080fd5b803561257381612713565b6000806040838503121561273f57600080fd5b82356001600160401b0381111561275557600080fd5b61276185828601612684565b925050602083013561277281612713565b809150509250929050565b60008060006060848603121561279257600080fd5b833561279d81612553565b925060208401356127ad81612553565b929592945050506040919091013590565b600080604083850312156127d157600080fd5b82356001600160401b03808211156127e857600080fd5b818501915085601f8301126127fc57600080fd5b8135602061280c6126a5836125ea565b82815260059290921b8401810191818101908984111561282b57600080fd5b948201945b8386101561285257853561284381612553565b82529482019490820190612830565b9650508601359250508082111561286857600080fd5b5061287585828601612684565b9150509250929050565b6000806040838503121561289257600080fd5b823561289d81612553565b915060208301356001600160401b038111156128b857600080fd5b61287585828601612664565b6000602082840312156128d657600080fd5b813561072981612553565b600080604083850312156128f457600080fd5b82356128ff81612553565b9150602083013561277281612713565b60008060008060008060008060006101208a8c03121561292e57600080fd5b6129378a612568565b985060208a0135975061294c60408b01612568565b965061295a60608b01612568565b955060808a0135945061296f60a08b01612721565b935060c08a01356001600160401b038082111561298b57600080fd5b6129978d838e01612664565b945060e08c01359150808211156129ad57600080fd5b6129b98d838e01612664565b93506101008c01359150808211156129d057600080fd5b506129dd8c828d01612664565b9150509295985092959850929598565b60008060008060808587031215612a0357600080fd5b8435612a0e81612553565b93506020850135612a1e81612553565b92506040850135915060608501356001600160401b03811115612a4057600080fd5b8501601f81018713612a5157600080fd5b612a608782356020840161260d565b91505092959194509250565b60008083601f840112612a7e57600080fd5b5081356001600160401b03811115612a9557600080fd5b6020830191508360208260051b8501011115611bec57600080fd5b60008083601f840112612ac257600080fd5b5081356001600160401b03811115612ad957600080fd5b602083019150836020828501011115611bec57600080fd5b60008060008060008060008060a0898b031215612b0d57600080fd5b8835612b1881612553565b97506020890135612b2881612553565b965060408901356001600160401b0380821115612b4457600080fd5b612b508c838d01612a6c565b909850965060608b0135915080821115612b6957600080fd5b612b758c838d01612a6c565b909650945060808b0135915080821115612b8e57600080fd5b50612b9b8b828c01612ab0565b999c989b5096995094979396929594505050565b600080600060608486031215612bc457600080fd5b833563ffffffff81168114612bd857600080fd5b925060208401356001600160401b03811115612bf357600080fd5b612bff86828701612664565b9250506040840135612c1081612713565b809150509250925092565b60008060408385031215612c2e57600080fd5b8235612c3981612553565b9150602083013561277281612553565b60008060008060008060a08789031215612c6257600080fd5b8635612c6d81612553565b95506020870135612c7d81612553565b9450604087013593506060870135925060808701356001600160401b03811115612ca657600080fd5b612cb289828a01612ab0565b979a9699509497509295939492505050565b634e487b7160e01b600052603260045260246000fd5b634e487b7160e01b600052601160045260246000fd5b600060018201612d0257612d02612cda565b5060010190565b600060208284031215612d1b57600080fd5b815161072981612553565b600060208284031215612d3857600080fd5b5051919050565b6020808252603d9082015260008051602061327583398151915260408201527f743a2063616e206f6e6c792072656365697665206f6e6520746f6b656e000000606082015260800190565b60208082526036908201526000805160206132758339815191526040820152751d0e881b5d5cdd081899481a5b9a5d1a585b1a5e995960521b606082015260800190565b602080825260439082015260008051602061327583398151915260408201527f743a2063616e6e6f7420616363657074207468697320746f6b656e206164647260608201526265737360e81b608082015260a00190565b6020808252603e9082015260008051602061327583398151915260408201527f743a2063616e6e6f7420616363657074207468697320746f6b656e2049440000606082015260800190565b600063ffffffff808316818103612e8957612e89612cda565b6001019392505050565b600181811c90821680612ea757607f821691505b602082108103612ec757634e487b7160e01b600052602260045260246000fd5b50919050565b8082018082111561057157610571612cda565b601f82111561064b57600081815260208120601f850160051c81016020861015612f075750805b601f850160051c820191505b81811015612f2657828155600101612f13565b505050505050565b81516001600160401b03811115612f4757612f476125a4565b612f5b81612f558454612e93565b84612ee0565b602080601f831160018114612f905760008415612f785750858301515b600019600386901b1c1916600185901b178555612f26565b600085815260208120601f198616915b82811015612fbf57888601518255948401946001909101908401612fa0565b5085821015612fdd5787850151600019600388901b60f8161c191681555b5050505050600190811b01905550565b60008351612fff8184602088016124d7565b8351908301906130138183602088016124d7565b01949350505050565b7f416363657373436f6e74726f6c3a206163636f756e74200000000000000000008152600083516130548160178501602088016124d7565b7001034b99036b4b9b9b4b733903937b6329607d1b60179184019182015283516130858160288401602088016124d7565b01602801949350505050565b6000602082840312156130a357600080fd5b815161072981612713565b6001600160a01b03858116825284166020820152604081018390526080606082018190526000906130e1908301846124fb565b9695505050505050565b6000602082840312156130fd57600080fd5b8151610729816124a4565b634e487b7160e01b600052601260045260246000fd5b60008261312d5761312d613108565b500490565b8181038181111561057157610571612cda565b60008261315457613154613108565b500690565b808202811582820484141761057157610571612cda565b634e487b7160e01b600052603160045260246000fd5b600082516131988184602087016124d7565b919091019291505056fe4552433732313a207472616e7366657220746f206e6f6e20455243373231526563656976657220696d706c656d656e7465723c7bf052874fa81625121783266a03507bd2cd48b16e571c01a04e8dd3fb07a879ec1734da2430052e9d78936f451aad707e5bed12ef4806b06dc3d0c38f0e303c7bf052874fa81625121783266a03507bd2cd48b16e571c01a04e8dd3fb07a679ec1734da2430052e9d78936f451aad707e5bed12ef4806b06dc3d0c38f0e3299574a7094154bb123ae6ae102096f0bf9679b85a5cd1e727aaa0ae5f132e6b15772617070656445524331313535537465776172644c6963656e7365466163657b62b800d8c954aa32a34a9249066e0f8761d6c1614c95cbc05c04ab0583a14ca26469706673582212200565d55887361d08df6094d7f5f8350c24fdf4b5d1cce1cb96c9d708ae4de0ba64736f6c63430008110033",
  "devdoc": {
    "details": "ERC-721 token license for Steward that wraps existing ERC-1155. Transfers are disabled during an auction.",
    "kind": "dev",
    "methods": {
      "approve(address,uint256)": {
        "params": {
          "operator": "address to be approved",
          "tokenId": "token to approve"
        }
      },
      "balanceOf(address)": {
        "returns": {
          "_0": "quantity of tokens held"
        }
      },
      "getApproved(uint256)": {
        "params": {
          "tokenId": "token to query"
        },
        "returns": {
          "_0": "address approved to spend token"
        }
      },
      "isApprovedForAll(address,address)": {
        "params": {
          "account": "address to query for approval granted",
          "operator": "address to query for approval received"
        },
        "returns": {
          "_0": "whether operator is approved to spend tokens held by account"
        }
      },
      "ownerOf(uint256)": {
        "params": {
          "tokenId": "token to query"
        },
        "returns": {
          "_0": "token owner"
        }
      },
      "safeTransferFrom(address,address,uint256)": {
        "params": {
          "from": "sender of token",
          "to": "receiver of token",
          "tokenId": "token id"
        }
      },
      "safeTransferFrom(address,address,uint256,bytes)": {
        "params": {
          "data": "data payload",
          "from": "sender of token",
          "to": "receiver of token",
          "tokenId": "token id"
        }
      },
      "setApprovalForAll(address,bool)": {
        "params": {
          "operator": "address to be approved",
          "status": "approval status"
        }
      },
      "supportsInterface(bytes4)": {
        "params": {
          "interfaceId": "interface id"
        },
        "returns": {
          "_0": "bool whether interface is supported"
        }
      },
      "tokenByIndex(uint256)": {
        "params": {
          "index": "position in global token list to query"
        },
        "returns": {
          "_0": "id of retrieved token"
        }
      },
      "tokenOfOwnerByIndex(address,uint256)": {
        "params": {
          "index": "position in owner's token list to query",
          "owner": "token holder to query"
        },
        "returns": {
          "_0": "id of retrieved token"
        }
      },
      "totalSupply()": {
        "returns": {
          "_0": "total supply"
        }
      },
      "transferFrom(address,address,uint256)": {
        "params": {
          "from": "sender of token",
          "to": "receiver of token",
          "tokenId": "token id"
        }
      }
    },
    "title": "WrappedERC1155StewardLicenseFacet",
    "version": 1
  },
  "userdoc": {
    "kind": "user",
    "methods": {
      "addTokenToCollection(address,string)": {
        "notice": "Add token to collection"
      },
      "addTokensToCollection(address[],string[])": {
        "notice": "Add tokens to collection with to"
      },
      "addTokensToCollection(string[],bool)": {
        "notice": "Add tokens to collection"
      },
      "addTokensWithBaseURIToCollection(uint32,string,bool)": {
        "notice": "Add tokens to collection with baseURI"
      },
      "approve(address,uint256)": {
        "notice": "grant approval to given account to spend token"
      },
      "balanceOf(address)": {
        "notice": "query the balance of given address"
      },
      "exists(uint256)": {
        "notice": "Check if token exists"
      },
      "getApproved(uint256)": {
        "notice": "get approval status for given token"
      },
      "initializeWrappedStewardLicense(address,uint256,address,address,uint256,bool,string,string,string)": {
        "notice": "Initialize license"
      },
      "isApprovedForAll(address,address)": {
        "notice": "query approval status of given operator with respect to given address"
      },
      "maxTokenCount()": {
        "notice": "Get max token count"
      },
      "mintToken(address,uint256)": {
        "notice": "Initial bidder can mint token if it doesn't exist"
      },
      "minter()": {
        "notice": "Get minter"
      },
      "name()": {
        "notice": "inheritdoc IERC721Metadata"
      },
      "ownerOf(uint256)": {
        "notice": "query the owner of given token"
      },
      "safeTransferFrom(address,address,uint256)": {
        "notice": "transfer token between given addresses, checking for ERC721Receiver implementation if applicable"
      },
      "safeTransferFrom(address,address,uint256,bytes)": {
        "notice": "transfer token between given addresses, checking for ERC721Receiver implementation if applicable"
      },
      "setApprovalForAll(address,bool)": {
        "notice": "grant approval to or revoke approval from given account to spend all tokens held by sender"
      },
      "supportsInterface(bytes4)": {
        "notice": "query whether contract has registered support for given interface"
      },
      "symbol()": {
        "notice": "inheritdoc IERC721Metadata"
      },
      "tokenByIndex(uint256)": {
        "notice": "get token at given internal storage index"
      },
      "tokenOfOwnerByIndex(address,uint256)": {
        "notice": "get token of given owner at given internal storage index"
      },
      "tokenURI(uint256)": {
        "notice": "inheritdoc IERC721Metadata"
      },
      "totalSupply()": {
        "notice": "get total token supply"
      },
      "transferFrom(address,address,uint256)": {
        "notice": "transfer token between given addresses, without checking for ERC721Receiver implementation if applicable"
      },
      "triggerTransfer(address,address,uint256)": {
        "notice": "Trigger transfer of license"
      }
    },
    "version": 1
  },
  "storageLayout": {
    "storage": [],
    "types": null
  }
}