{
  "address": "0xB1CbcBfEAFe3Fc9D0174570e4B3175958D09FCD5",
  "abi": [
    {
      "inputs": [],
      "name": "AddressUtils__NotContract",
      "type": "error"
    },
    {
      "inputs": [],
      "name": "ERC165Base__InvalidInterfaceId",
      "type": "error"
    },
    {
      "inputs": [],
      "name": "ERC721Base__BalanceQueryZeroAddress",
      "type": "error"
    },
    {
      "inputs": [],
      "name": "ERC721Base__ERC721ReceiverNotImplemented",
      "type": "error"
    },
    {
      "inputs": [],
      "name": "ERC721Base__InvalidOwner",
      "type": "error"
    },
    {
      "inputs": [],
      "name": "ERC721Base__MintToZeroAddress",
      "type": "error"
    },
    {
      "inputs": [],
      "name": "ERC721Base__NonExistentToken",
      "type": "error"
    },
    {
      "inputs": [],
      "name": "ERC721Base__NotOwnerOrApproved",
      "type": "error"
    },
    {
      "inputs": [],
      "name": "ERC721Base__NotTokenOwner",
      "type": "error"
    },
    {
      "inputs": [],
      "name": "ERC721Base__SelfApproval",
      "type": "error"
    },
    {
      "inputs": [],
      "name": "ERC721Base__TokenAlreadyMinted",
      "type": "error"
    },
    {
      "inputs": [],
      "name": "ERC721Base__TransferToZeroAddress",
      "type": "error"
    },
    {
      "inputs": [],
      "name": "ERC721Metadata__NonExistentToken",
      "type": "error"
    },
    {
      "inputs": [],
      "name": "EnumerableMap__IndexOutOfBounds",
      "type": "error"
    },
    {
      "inputs": [],
      "name": "EnumerableMap__NonExistentKey",
      "type": "error"
    },
    {
      "inputs": [],
      "name": "EnumerableSet__IndexOutOfBounds",
      "type": "error"
    },
    {
      "inputs": [],
      "name": "UintUtils__InsufficientHexLength",
      "type": "error"
    },
    {
      "anonymous": false,
      "inputs": [
        {
          "indexed": true,
          "internalType": "address",
          "name": "owner",
          "type": "address"
        },
        {
          "indexed": true,
          "internalType": "address",
          "name": "operator",
          "type": "address"
        },
        {
          "indexed": true,
          "internalType": "uint256",
          "name": "tokenId",
          "type": "uint256"
        }
      ],
      "name": "Approval",
      "type": "event"
    },
    {
      "anonymous": false,
      "inputs": [
        {
          "indexed": true,
          "internalType": "address",
          "name": "owner",
          "type": "address"
        },
        {
          "indexed": true,
          "internalType": "address",
          "name": "operator",
          "type": "address"
        },
        {
          "indexed": false,
          "internalType": "bool",
          "name": "approved",
          "type": "bool"
        }
      ],
      "name": "ApprovalForAll",
      "type": "event"
    },
    {
      "anonymous": false,
      "inputs": [
        {
          "indexed": true,
          "internalType": "bytes32",
          "name": "role",
          "type": "bytes32"
        },
        {
          "indexed": true,
          "internalType": "bytes32",
          "name": "previousAdminRole",
          "type": "bytes32"
        },
        {
          "indexed": true,
          "internalType": "bytes32",
          "name": "newAdminRole",
          "type": "bytes32"
        }
      ],
      "name": "RoleAdminChanged",
      "type": "event"
    },
    {
      "anonymous": false,
      "inputs": [
        {
          "indexed": true,
          "internalType": "bytes32",
          "name": "role",
          "type": "bytes32"
        },
        {
          "indexed": true,
          "internalType": "address",
          "name": "account",
          "type": "address"
        },
        {
          "indexed": true,
          "internalType": "address",
          "name": "sender",
          "type": "address"
        }
      ],
      "name": "RoleGranted",
      "type": "event"
    },
    {
      "anonymous": false,
      "inputs": [
        {
          "indexed": true,
          "internalType": "bytes32",
          "name": "role",
          "type": "bytes32"
        },
        {
          "indexed": true,
          "internalType": "address",
          "name": "account",
          "type": "address"
        },
        {
          "indexed": true,
          "internalType": "address",
          "name": "sender",
          "type": "address"
        }
      ],
      "name": "RoleRevoked",
      "type": "event"
    },
    {
      "anonymous": false,
      "inputs": [
        {
          "indexed": true,
          "internalType": "address",
          "name": "from",
          "type": "address"
        },
        {
          "indexed": true,
          "internalType": "address",
          "name": "to",
          "type": "address"
        },
        {
          "indexed": true,
          "internalType": "uint256",
          "name": "tokenId",
          "type": "uint256"
        }
      ],
      "name": "Transfer",
      "type": "event"
    },
    {
      "inputs": [
        {
          "internalType": "address",
          "name": "to",
          "type": "address"
        },
        {
          "internalType": "string",
          "name": "tokenURI",
          "type": "string"
        }
      ],
      "name": "addTokenToCollection",
      "outputs": [],
      "stateMutability": "nonpayable",
      "type": "function"
    },
    {
      "inputs": [
        {
          "internalType": "string[]",
          "name": "tokenURIs",
          "type": "string[]"
        },
        {
          "internalType": "bool",
          "name": "shouldMint",
          "type": "bool"
        }
      ],
      "name": "addTokensToCollection",
      "outputs": [],
      "stateMutability": "nonpayable",
      "type": "function"
    },
    {
      "inputs": [
        {
          "internalType": "address[]",
          "name": "to",
          "type": "address[]"
        },
        {
          "internalType": "string[]",
          "name": "tokenURIs",
          "type": "string[]"
        }
      ],
      "name": "addTokensToCollection",
      "outputs": [],
      "stateMutability": "nonpayable",
      "type": "function"
    },
    {
      "inputs": [
        {
          "internalType": "uint32",
          "name": "amount",
          "type": "uint32"
        },
        {
          "internalType": "string",
          "name": "baseURI",
          "type": "string"
        },
        {
          "internalType": "bool",
          "name": "shouldMint",
          "type": "bool"
        }
      ],
      "name": "addTokensWithBaseURIToCollection",
      "outputs": [],
      "stateMutability": "nonpayable",
      "type": "function"
    },
    {
      "inputs": [
        {
          "internalType": "address",
          "name": "operator",
          "type": "address"
        },
        {
          "internalType": "uint256",
          "name": "tokenId",
          "type": "uint256"
        }
      ],
      "name": "approve",
      "outputs": [],
      "stateMutability": "payable",
      "type": "function"
    },
    {
      "inputs": [
        {
          "internalType": "address",
          "name": "account",
          "type": "address"
        }
      ],
      "name": "balanceOf",
      "outputs": [
        {
          "internalType": "uint256",
          "name": "",
          "type": "uint256"
        }
      ],
      "stateMutability": "view",
      "type": "function"
    },
    {
      "inputs": [
        {
          "internalType": "uint256",
          "name": "tokenId",
          "type": "uint256"
        }
      ],
      "name": "exists",
      "outputs": [
        {
          "internalType": "bool",
          "name": "",
          "type": "bool"
        }
      ],
      "stateMutability": "view",
      "type": "function"
    },
    {
      "inputs": [
        {
          "internalType": "uint256",
          "name": "tokenId",
          "type": "uint256"
        }
      ],
      "name": "getApproved",
      "outputs": [
        {
          "internalType": "address",
          "name": "",
          "type": "address"
        }
      ],
      "stateMutability": "view",
      "type": "function"
    },
    {
      "inputs": [
        {
          "internalType": "address",
          "name": "tokenAddress",
          "type": "address"
        },
        {
          "internalType": "uint256",
          "name": "tokenId",
          "type": "uint256"
        },
        {
          "internalType": "address",
          "name": "minter_",
          "type": "address"
        },
        {
          "internalType": "address",
          "name": "addToCollectionMinter_",
          "type": "address"
        },
        {
          "internalType": "address",
          "name": "steward_",
          "type": "address"
        },
        {
          "internalType": "uint256",
          "name": "maxTokenCount_",
          "type": "uint256"
        },
        {
          "internalType": "bool",
          "name": "shouldMint",
          "type": "bool"
        },
        {
          "internalType": "string",
          "name": "name",
          "type": "string"
        },
        {
          "internalType": "string",
          "name": "symbol",
          "type": "string"
        },
        {
          "internalType": "string",
          "name": "tokenURI",
          "type": "string"
        }
      ],
      "name": "initializeWrappedStewardLicense",
      "outputs": [],
      "stateMutability": "nonpayable",
      "type": "function"
    },
    {
      "inputs": [
        {
          "internalType": "address",
          "name": "account",
          "type": "address"
        },
        {
          "internalType": "address",
          "name": "operator",
          "type": "address"
        }
      ],
      "name": "isApprovedForAll",
      "outputs": [
        {
          "internalType": "bool",
          "name": "",
          "type": "bool"
        }
      ],
      "stateMutability": "view",
      "type": "function"
    },
    {
      "inputs": [],
      "name": "maxTokenCount",
      "outputs": [
        {
          "internalType": "uint256",
          "name": "",
          "type": "uint256"
        }
      ],
      "stateMutability": "view",
      "type": "function"
    },
    {
      "inputs": [
        {
          "internalType": "address",
          "name": "to",
          "type": "address"
        },
        {
          "internalType": "uint256",
          "name": "tokenId",
          "type": "uint256"
        }
      ],
      "name": "mintToken",
      "outputs": [],
      "stateMutability": "nonpayable",
      "type": "function"
    },
    {
      "inputs": [],
      "name": "minter",
      "outputs": [
        {
          "internalType": "address",
          "name": "",
          "type": "address"
        }
      ],
      "stateMutability": "view",
      "type": "function"
    },
    {
      "inputs": [],
      "name": "name",
      "outputs": [
        {
          "internalType": "string",
          "name": "",
          "type": "string"
        }
      ],
      "stateMutability": "view",
      "type": "function"
    },
    {
      "inputs": [
        {
          "internalType": "address",
          "name": "",
          "type": "address"
        },
        {
          "internalType": "address",
          "name": "",
          "type": "address"
        },
        {
          "internalType": "uint256",
          "name": "tokenId",
          "type": "uint256"
        },
        {
          "internalType": "bytes",
          "name": "",
          "type": "bytes"
        }
      ],
      "name": "onERC721Received",
      "outputs": [
        {
          "internalType": "bytes4",
          "name": "",
          "type": "bytes4"
        }
      ],
      "stateMutability": "view",
      "type": "function"
    },
    {
      "inputs": [
        {
          "internalType": "uint256",
          "name": "tokenId",
          "type": "uint256"
        }
      ],
      "name": "ownerOf",
      "outputs": [
        {
          "internalType": "address",
          "name": "",
          "type": "address"
        }
      ],
      "stateMutability": "view",
      "type": "function"
    },
    {
      "inputs": [
        {
          "internalType": "address",
          "name": "from",
          "type": "address"
        },
        {
          "internalType": "address",
          "name": "to",
          "type": "address"
        },
        {
          "internalType": "uint256",
          "name": "tokenId",
          "type": "uint256"
        }
      ],
      "name": "safeTransferFrom",
      "outputs": [],
      "stateMutability": "payable",
      "type": "function"
    },
    {
      "inputs": [
        {
          "internalType": "address",
          "name": "from",
          "type": "address"
        },
        {
          "internalType": "address",
          "name": "to",
          "type": "address"
        },
        {
          "internalType": "uint256",
          "name": "tokenId",
          "type": "uint256"
        },
        {
          "internalType": "bytes",
          "name": "data",
          "type": "bytes"
        }
      ],
      "name": "safeTransferFrom",
      "outputs": [],
      "stateMutability": "payable",
      "type": "function"
    },
    {
      "inputs": [
        {
          "internalType": "address",
          "name": "operator",
          "type": "address"
        },
        {
          "internalType": "bool",
          "name": "status",
          "type": "bool"
        }
      ],
      "name": "setApprovalForAll",
      "outputs": [],
      "stateMutability": "nonpayable",
      "type": "function"
    },
    {
      "inputs": [
        {
          "internalType": "bytes4",
          "name": "interfaceId",
          "type": "bytes4"
        }
      ],
      "name": "supportsInterface",
      "outputs": [
        {
          "internalType": "bool",
          "name": "",
          "type": "bool"
        }
      ],
      "stateMutability": "view",
      "type": "function"
    },
    {
      "inputs": [],
      "name": "symbol",
      "outputs": [
        {
          "internalType": "string",
          "name": "",
          "type": "string"
        }
      ],
      "stateMutability": "view",
      "type": "function"
    },
    {
      "inputs": [
        {
          "internalType": "uint256",
          "name": "index",
          "type": "uint256"
        }
      ],
      "name": "tokenByIndex",
      "outputs": [
        {
          "internalType": "uint256",
          "name": "",
          "type": "uint256"
        }
      ],
      "stateMutability": "view",
      "type": "function"
    },
    {
      "inputs": [
        {
          "internalType": "address",
          "name": "owner",
          "type": "address"
        },
        {
          "internalType": "uint256",
          "name": "index",
          "type": "uint256"
        }
      ],
      "name": "tokenOfOwnerByIndex",
      "outputs": [
        {
          "internalType": "uint256",
          "name": "",
          "type": "uint256"
        }
      ],
      "stateMutability": "view",
      "type": "function"
    },
    {
      "inputs": [
        {
          "internalType": "uint256",
          "name": "tokenId",
          "type": "uint256"
        }
      ],
      "name": "tokenURI",
      "outputs": [
        {
          "internalType": "string",
          "name": "",
          "type": "string"
        }
      ],
      "stateMutability": "view",
      "type": "function"
    },
    {
      "inputs": [],
      "name": "totalSupply",
      "outputs": [
        {
          "internalType": "uint256",
          "name": "",
          "type": "uint256"
        }
      ],
      "stateMutability": "view",
      "type": "function"
    },
    {
      "inputs": [
        {
          "internalType": "address",
          "name": "from",
          "type": "address"
        },
        {
          "internalType": "address",
          "name": "to",
          "type": "address"
        },
        {
          "internalType": "uint256",
          "name": "tokenId",
          "type": "uint256"
        }
      ],
      "name": "transferFrom",
      "outputs": [],
      "stateMutability": "payable",
      "type": "function"
    },
    {
      "inputs": [
        {
          "internalType": "address",
          "name": "from",
          "type": "address"
        },
        {
          "internalType": "address",
          "name": "to",
          "type": "address"
        },
        {
          "internalType": "uint256",
          "name": "tokenId",
          "type": "uint256"
        }
      ],
      "name": "triggerTransfer",
      "outputs": [],
      "stateMutability": "nonpayable",
      "type": "function"
    }
  ],
  "transactionHash": "0xa22b22b7261c558f90b5389a52a47f58cff3715edc967f5acfb3073cf38b48d0",
  "args": [],
  "numDeployments": 10,
  "solcInputHash": "169553f7dd761d4046f1e06ff85ef017",
  "bytecode": "0x608060405234801561001057600080fd5b506130ce806100206000396000f3fe60806040526004361061019c5760003560e01c80634f558e79116100ec578063a22cb4651161008a578063c87b56dd11610064578063c87b56dd14610479578063d111122f14610499578063e31a7c01146104b9578063e985e9c5146104d957600080fd5b8063a22cb46514610431578063b88d4fde14610451578063c4e627c21461046457600080fd5b80636a2e019f116100c65780636a2e019f146103bc57806370a08231146103dc57806379c65068146103fc57806395d89b411461041c57600080fd5b80634f558e791461035c5780634f6ccce71461037c5780636352211e1461039c57600080fd5b8063150b7a021161015957806323b872dd1161013357806323b872dd146102f65780632f745c591461030957806342842e0e146103295780634a7c554f1461033c57600080fd5b8063150b7a021461027a57806318160ddd146102b35780632107ddfe146102d657600080fd5b806301ffc9a7146101a157806303e8224e146101d657806306fdde03146101f8578063075461721461021a578063081812fc14610247578063095ea7b314610267575b600080fd5b3480156101ad57600080fd5b506101c16101bc3660046124d5565b6104f9565b60405190151581526020015b60405180910390f35b3480156101e257600080fd5b506101f66101f13660046125ed565b61053c565b005b34801561020457600080fd5b5061020d610627565b6040516101cd919061272d565b34801561022657600080fd5b5061022f610636565b6040516001600160a01b0390911681526020016101cd565b34801561025357600080fd5b5061022f610262366004612740565b610669565b6101f6610275366004612759565b610674565b34801561028657600080fd5b5061029a610295366004612785565b610682565b6040516001600160e01b031990911681526020016101cd565b3480156102bf57600080fd5b506102c8610823565b6040519081526020016101cd565b3480156102e257600080fd5b506101f66102f13660046128d5565b61082d565b6101f6610304366004612926565b6108be565b34801561031557600080fd5b506102c8610324366004612759565b6108ce565b6101f6610337366004612926565b6108e1565b34801561034857600080fd5b506101f6610357366004612967565b6108ec565b34801561036857600080fd5b506101c1610377366004612740565b6109c0565b34801561038857600080fd5b506102c8610397366004612740565b6109cb565b3480156103a857600080fd5b5061022f6103b7366004612740565b6109d6565b3480156103c857600080fd5b506101f66103d7366004612a28565b6109e1565b3480156103e857600080fd5b506102c86103f7366004612a6d565b610a03565b34801561040857600080fd5b506101f6610417366004612759565b610a0e565b34801561042857600080fd5b5061020d610c42565b34801561043d57600080fd5b506101f661044c366004612a8a565b610c4c565b6101f661045f366004612ab8565b610c56565b34801561047057600080fd5b506102c8610c62565b34801561048557600080fd5b5061020d610494366004612740565b610c7a565b3480156104a557600080fd5b506101f66104b4366004612b37565b610c85565b3480156104c557600080fd5b506101f66104d4366004612926565b610cd7565b3480156104e557600080fd5b506101c16104f4366004612ba3565b610d6c565b6001600160e01b0319811660009081527ffc606c433378e3a7e0a6a531deac289b66caa1b4aa8554fd4ab2c6f1570f92d8602052604081205460ff165b92915050565b600080516020612ff98339815191525460ff16156105ad5760405162461bcd60e51b81526020600482015260356024820152600080516020612fb98339815191526044820152740e88185b1c9958591e481a5b9a5d1a585b1a5e9959605a1b60648201526084015b60405180910390fd5b7f4f3bc7155d2db681e29af52d1119e27d8b92f937da5bb676ae6155a2e77a3c6d80546001600160a01b0319166001600160a01b038c161790557f4f3bc7155d2db681e29af52d1119e27d8b92f937da5bb676ae6155a2e77a3c6e89905561061b8888888888888888610d78565b50505050505050505050565b6060610631610ec2565b905090565b60006106317f79ec1734da2430052e9d78936f451aad707e5bed12ef4806b06dc3d0c38f0e31546001600160a01b031690565b600061053682610f61565b61067e8282610fc4565b5050565b600061069d600080516020612ff98339815191525460ff1690565b6106f55760405162461bcd60e51b81526020600482015260356024820152600080516020612fb98339815191526044820152740e881b5d5cdd081899481a5b9a5d1a585b1a5e9959605a1b60648201526084016105a4565b7f4f3bc7155d2db681e29af52d1119e27d8b92f937da5bb676ae6155a2e77a3c6d546001600160a01b0316331461078d5760405162461bcd60e51b81526020600482015260426024820152600080516020612fb983398151915260448201527f3a2063616e6e6f7420616363657074207468697320746f6b656e206164647265606482015261737360f01b608482015260a4016105a4565b7f4f3bc7155d2db681e29af52d1119e27d8b92f937da5bb676ae6155a2e77a3c6e5484146108115760405162461bcd60e51b815260206004820152603d6024820152600080516020612fb983398151915260448201527f3a2063616e6e6f7420616363657074207468697320746f6b656e20494400000060648201526084016105a4565b50630a85bd0160e11b95945050505050565b60006106316110bc565b600080516020613079833981519152610845816110d5565b60005b83518110156108b8576000831561087e57600080516020612ff98339815191525461010090046001600160a01b03169050610882565b5060005b6108a58186848151811061089857610898612bd1565b60200260200101516110e2565b50806108b081612bfd565b915050610848565b50505050565b6108c9838383611168565b505050565b60006108da838361119a565b9392505050565b6108c98383836111c9565b600080516020613079833981519152610904816110d5565b81518351146109735760405162461bcd60e51b815260206004820152603560248201527f537465776172644c6963656e736546616365743a20746f20616e6420746f6b656044820152740dcaaa492e640d8cadccee8d040dad2e6dac2e8c6d605b1b60648201526084016105a4565b60005b82518110156108b8576109ae84828151811061099457610994612bd1565b602002602001015184838151811061089857610898612bd1565b806109b881612bfd565b915050610976565b6000610536826111e4565b6000610536826111fe565b60006105368261121f565b6000805160206130798339815191526109f9816110d5565b6108c983836110e2565b600061053682611263565b306001600160a01b0316633882ce8e6040518163ffffffff1660e01b8152600401602060405180830381865afa158015610a4c573d6000803e3d6000fd5b505050506040513d601f19601f82011682018060405250810190610a709190612c16565b6001600160a01b0316336001600160a01b031614610af65760405162461bcd60e51b815260206004820152603760248201527f537465776172644c6963656e736546616365743a206f6e6c7920696e6974696160448201527f6c206269646465722063616e206d696e7420746f6b656e00000000000000000060648201526084016105a4565b306001600160a01b031663be6a2a6d6040518163ffffffff1660e01b8152600401602060405180830381865afa158015610b34573d6000803e3d6000fd5b505050506040513d601f19601f82011682018060405250810190610b589190612c33565b4210610bce576040805162461bcd60e51b81526020600482015260248101919091527f537465776172644c6963656e736546616365743a2063616e6e6f74206d696e7460448201527f20616674657220696e697469616c20706572696f642073746172742074696d6560648201526084016105a4565b610bd7816111e4565b15610c365760405162461bcd60e51b815260206004820152602960248201527f537465776172644c6963656e736546616365743a20546f6b656e20616c72656160448201526864792065786973747360b81b60648201526084016105a4565b61067e600083836112ba565b60606106316112d1565b61067e82826112f0565b6108b8848484846113a4565b60006106316000805160206130398339815191525490565b6060610536826113d7565b600080516020613079833981519152610c9d816110d5565b60005b8463ffffffff168163ffffffff161015610cd057610cbe84846115bb565b80610cc881612c4c565b915050610ca0565b5050505050565b333014610d615760405162461bcd60e51b815260206004820152604c60248201527f4e6174697665537465776172644c6963656e73653a205472696767657220747260448201527f616e736665722063616e206f6e6c792062652063616c6c65642066726f6d206160648201526b1b9bdd1a195c88199858d95d60a21b608482015260a4016105a4565b6108c98383836112ba565b60006108da838361166e565b600080516020612ff983398151915280546001600160a01b03888116610100026001600160a81b03199092169190911760011782557f79ec1734da2430052e9d78936f451aad707e5bed12ef4806b06dc3d0c38f0e318054918b166001600160a01b03199092169190911790556000805160206130398339815191528690556000600080516020613059833981519152905080610e158682612cf7565b5060018101610e248582612cf7565b5060028101610e338482612cf7565b50610e466301ffc9a760e01b60016116bb565b610e586380ac58cd60e01b60016116bb565b610e706000805160206130798339815191528a611731565b610e88600080516020613079833981519152806117a5565b851561061b5760005b87811015610eb557610ea3898261180f565b80610ead81612bfd565b915050610e91565b5050505050505050505050565b60606000805160206130598339815191528054610ede90612c6f565b80601f0160208091040260200160405190810160405280929190818152602001828054610f0a90612c6f565b8015610f575780601f10610f2c57610100808354040283529160200191610f57565b820191906000526020600020905b815481529060010190602001808311610f3a57829003601f168201915b5050505050905090565b6000610f6c826111e4565b610f895760405163c1b843ef60e01b815260040160405180910390fd5b5060009081527f3c7bf052874fa81625121783266a03507bd2cd48b16e571c01a04e8dd3fb07a960205260409020546001600160a01b031690565b6000610fcf8261121f565b9050806001600160a01b0316836001600160a01b0316036110035760405163424a22cb60e01b815260040160405180910390fd5b336001600160a01b038216148015906110235750611021813361166e565b155b1561104157604051632f5de44f60e01b815260040160405180910390fd5b60008281527f3c7bf052874fa81625121783266a03507bd2cd48b16e571c01a04e8dd3fb07a9602052604080822080546001600160a01b0319166001600160a01b0387811691821790925591518593918516917f8c5be1e5ebec7d5bd14f71427d1e84f3dd0314c0f7b2291e5b200ac8c7c3b92591a4505050565b60006106316000805160206130198339815191526118f2565b6110df81336118fc565b50565b6000805160206130398339815191528054600080516020612ff98339815191529160019060006111128385612db6565b909155505060008181527f99574a7094154bb123ae6ae102096f0bf9679b85a5cd1e727aaa0ae5f132e6b46020526040902061114e8482612cf7565b506001600160a01b038416156108b8576108b8848261180f565b611172338261195e565b61118f57604051632f5de44f60e01b815260040160405180910390fd5b6108c98383836119e4565b6001600160a01b0382166000908152600080516020612fd9833981519152602052604081206108da9083611b61565b6108c9838383604051806020016040528060008152506113a4565b600061053660008051602061301983398151915283611b6d565b600061121860008051602061301983398151915283611b85565b5092915050565b60008061123a60008051602061301983398151915284611ba1565b90506001600160a01b03811661053657604051637e1a7d8b60e01b815260040160405180910390fd5b60006001600160a01b03821661128c57604051630810ff9760e41b815260040160405180910390fd5b6001600160a01b0382166000908152600080516020612fd983398151915260205260409020610536906118f2565b6112c3816111e4565b61118f576108c9828261180f565b60606000805160206130598339815191526001018054610ede90612c6f565b336001600160a01b038316036113195760405163424a22cb60e01b815260040160405180910390fd5b3360008181527f3c7bf052874fa81625121783266a03507bd2cd48b16e571c01a04e8dd3fb07aa602090815260408083206001600160a01b03871680855290835292819020805460ff191686151590811790915590519081529192917f17307eab39ab6107e8899845ad3d59bd9653f200f220920489ca2b5937696c31910160405180910390a35050565b6113ae338361195e565b6113cb57604051632f5de44f60e01b815260040160405180910390fd5b6108b884848484611bad565b60008051602061303983398151915254606090600080516020612ff983398151915290831061141857604051624705a760e71b815260040160405180910390fd5b60008381527f99574a7094154bb123ae6ae102096f0bf9679b85a5cd1e727aaa0ae5f132e6b460205260408120805460008051602061305983398151915292919061146290612c6f565b80601f016020809104026020016040519081016040528092919081815260200182805461148e90612c6f565b80156114db5780601f106114b0576101008083540402835291602001916114db565b820191906000526020600020905b8154815290600101906020018083116114be57829003601f168201915b5050505050905060008260020180546114f390612c6f565b80601f016020809104026020016040519081016040528092919081815260200182805461151f90612c6f565b801561156c5780601f106115415761010080835404028352916020019161156c565b820191906000526020600020905b81548152906001019060200180831161154f57829003601f168201915b505050505090506000825111156115865750949350505050565b8061159087611be1565b6040516020016115a1929190612dc9565b604051602081830303815290604052945050505050919050565b6000805160206130398339815191528054600080516020612ff98339815191529160019060006115eb8385612db6565b909155508490506115fb82611be1565b60405160200161160c929190612dc9565b60405160208183030381529060405261163060008051602061305983398151915290565b6000838152600391909101602052604090209061164d9082612cf7565b5082156108b85781546108b89061010090046001600160a01b03168261180f565b6001600160a01b0391821660009081527f3c7bf052874fa81625121783266a03507bd2cd48b16e571c01a04e8dd3fb07aa6020908152604080832093909416825291909152205460ff1690565b6001600160e01b031980831690036116e65760405163b0a19dd560e01b815260040160405180910390fd5b6001600160e01b03199190911660009081527ffc606c433378e3a7e0a6a531deac289b66caa1b4aa8554fd4ab2c6f1570f92d860205260409020805460ff1916911515919091179055565b60008281527fd3889cc5458b268d0544e5534672df1296288ca3f93cbd39bd6f497a5c622811602052604090206117689082611ce1565b5060405133906001600160a01b0383169084907f2f8788117e7eff1d82e926ec794901d17c78024a50270940304540a733656f0d90600090a45050565b60008281527fd3889cc5458b268d0544e5534672df1296288ca3f93cbd39bd6f497a5c6228116020526040808220600201805490849055905190918391839186917fbd79b86ffe0ab8e8776151514217cd7cacd52c909f66475c3af44e129f0b00ff9190a4505050565b6001600160a01b038216611836576040516311f2988d60e11b815260040160405180910390fd5b61183f816111e4565b1561185d57604051630d86bb7b60e31b815260040160405180910390fd5b61186960008383611cf6565b6001600160a01b0382166000908152600080516020612fd983398151915260205260409020600080516020613019833981519152906118a89083611deb565b506118b4818385611df7565b5060405182906001600160a01b038516906000907fddf252ad1be2c89b69c2b068fc378daa952ba7f163c4a11628f55a4df523b3ef908290a4505050565b6000610536825490565b6119068282611e0d565b61067e5761191c816001600160a01b0316611e44565b611927836020611e56565b604051602001611938929190612df8565b60408051601f198184030181529082905262461bcd60e51b82526105a49160040161272d565b6000611969826111e4565b6119865760405163c1b843ef60e01b815260040160405180910390fd5b60006119918361121f565b9050806001600160a01b0316846001600160a01b031614806119cc5750836001600160a01b03166119c184610f61565b6001600160a01b0316145b806119dc57506119dc818561166e565b949350505050565b60006119ef8261121f565b9050836001600160a01b0316816001600160a01b031614611a2357604051630f2db4ad60e01b815260040160405180910390fd5b6001600160a01b038316611a4a576040516340311a0960e01b815260040160405180910390fd5b611a55848484611cf6565b6001600160a01b0384166000908152600080516020612fd98339815191526020526040902060008051602061301983398151915290611a949084611fa8565b506001600160a01b03841660009081526002820160205260409020611ab99084611deb565b50611ac5818486611df7565b50600083815260038201602052604080822080546001600160a01b0319169055518491906001600160a01b038516907f8c5be1e5ebec7d5bd14f71427d1e84f3dd0314c0f7b2291e5b200ac8c7c3b925908390a482846001600160a01b0316866001600160a01b03167fddf252ad1be2c89b69c2b068fc378daa952ba7f163c4a11628f55a4df523b3ef60405160405180910390a45050505050565b60006108da8383611fb4565b600081815260018301602052604081205415156108da565b6000808080611b948686612000565b9097909650945050505050565b60006108da8383612063565b611bb88484846119e4565b611bc4848484846120c7565b6108b857604051639ff10cdd60e01b815260040160405180910390fd5b606081600003611c085750506040805180820190915260018152600360fc1b602082015290565b8160005b8115611c325780611c1c81612bfd565b9150611c2b9050600a83612e83565b9150611c0c565b6000816001600160401b03811115611c4c57611c4c612530565b6040519080825280601f01601f191660200182016040528015611c76576020820181803683370190505b5090505b84156119dc57611c8b600183612e97565b9150611c98600a86612eaa565b611ca3906030612db6565b60f81b818381518110611cb857611cb8612bd1565b60200101906001600160f81b031916908160001a905350611cda600a86612e83565b9450611c7a565b60006108da836001600160a01b038416612198565b6001600160a01b03831615611de05760405163a7c12c1160e01b815260048101829052600090309063a7c12c1190602401602060405180830381865afa158015611d44573d6000803e3d6000fd5b505050506040513d601f19601f82011682018060405250810190611d689190612ebe565b90508015611dde5760405162461bcd60e51b815260206004820152603a60248201527f537465776172644c6963656e736546616365743a2043616e6e6f74207472616e60448201527f7366657220647572696e672061756374696f6e20706572696f6400000000000060648201526084016105a4565b505b6108c98383836121db565b60006108da8383612198565b60006119dc84846001600160a01b0385166121e6565b60008281527fd3889cc5458b268d0544e5534672df1296288ca3f93cbd39bd6f497a5c622811602052604081206108da9083612285565b60606105366001600160a01b03831660145b60606000611e65836002612edb565b611e70906002612db6565b6001600160401b03811115611e8757611e87612530565b6040519080825280601f01601f191660200182016040528015611eb1576020820181803683370190505b509050600360fc1b81600081518110611ecc57611ecc612bd1565b60200101906001600160f81b031916908160001a905350600f60fb1b81600181518110611efb57611efb612bd1565b60200101906001600160f81b031916908160001a905350600160028402015b6001811115611f88576f181899199a1a9b1b9c1cb0b131b232b360811b85600f1660108110611f4b57611f4b612bd1565b1a60f81b828281518110611f6157611f61612bd1565b60200101906001600160f81b031916908160001a90535060049490941c9360001901611f1a565b5083156108da5760405163c913478560e01b815260040160405180910390fd5b60006108da83836122a7565b81546000908210611fd85760405163e637bf3b60e01b815260040160405180910390fd5b826000018281548110611fed57611fed612bd1565b9060005260206000200154905092915050565b8154600090819083106120265760405163022fd82760e31b815260040160405180910390fd5b600084600001848154811061203d5761203d612bd1565b906000526020600020906002020190508060000154816001015492509250509250929050565b600081815260018301602052604081205480820361209457604051633d547ec560e21b815260040160405180910390fd5b8360000160018203815481106120ac576120ac612bd1565b90600052602060002090600202016001015491505092915050565b60006001600160a01b0384163b6120e0575060016119dc565b600061216163150b7a0260e01b338887876040516024016121049493929190612efa565b604051602081830303815290604052906001600160e01b0319166020820180516001600160e01b038381831617835250505050604051806060016040528060328152602001612f87603291396001600160a01b0388169190612361565b90506000818060200190518101906121799190612f37565b6001600160e01b031916630a85bd0160e11b1492505050949350505050565b6000818152600183016020526040812054610536575081546001808201845560008481526020808220909301849055845493815293810190915260409092205590565b6108c9838383612370565b600082815260018401602052604081205480820361224d5750506040805180820182528381526020808201848152865460018181018955600089815284812095516002909302909501918255915190820155865486845281880190925292909120556108da565b8285600001600183038154811061226657612266612bd1565b90600052602060002090600202016001018190555060009150506108da565b6001600160a01b038116600090815260018301602052604081205415156108da565b60008181526001830160205260408120548015611218578354600090859060001981019081106122d9576122d9612bd1565b90600052602060002001549050808560000160018403815481106122ff576122ff612bd1565b600091825260208083209091019290925591825260018601905260409020819055835484908061233157612331612f54565b60008281526020808220830160001990810183905590920190925593815260019485019093525050604081205590565b60606119dc84846000856123b4565b6001600160a01b0382166108c95760008181527f99574a7094154bb123ae6ae102096f0bf9679b85a5cd1e727aaa0ae5f132e6b4602052604081206108c991612471565b6060843b6123d557604051632270d6bf60e21b815260040160405180910390fd5b600080866001600160a01b031685876040516123f19190612f6a565b60006040518083038185875af1925050503d806000811461242e576040519150601f19603f3d011682016040523d82523d6000602084013e612433565b606091505b509150915081156124475791506119dc9050565b8051156124575780518082602001fd5b8360405162461bcd60e51b81526004016105a4919061272d565b50805461247d90612c6f565b6000825580601f1061248d575050565b601f0160209004906000526020600020908101906110df91905b808211156124bb57600081556001016124a7565b5090565b6001600160e01b0319811681146110df57600080fd5b6000602082840312156124e757600080fd5b81356108da816124bf565b6001600160a01b03811681146110df57600080fd5b8035612512816124f2565b919050565b80151581146110df57600080fd5b803561251281612517565b634e487b7160e01b600052604160045260246000fd5b604051601f8201601f191681016001600160401b038111828210171561256e5761256e612530565b604052919050565b60006001600160401b0383111561258f5761258f612530565b6125a2601f8401601f1916602001612546565b90508281528383830111156125b657600080fd5b828260208301376000602084830101529392505050565b600082601f8301126125de57600080fd5b6108da83833560208501612576565b6000806000806000806000806000806101408b8d03121561260d57600080fd5b6126168b612507565b995060208b0135985061262b60408c01612507565b975061263960608c01612507565b965061264760808c01612507565b955060a08b0135945061265c60c08c01612525565b935060e08b01356001600160401b038082111561267857600080fd5b6126848e838f016125cd565b94506101008d013591508082111561269b57600080fd5b6126a78e838f016125cd565b93506101208d01359150808211156126be57600080fd5b506126cb8d828e016125cd565b9150509295989b9194979a5092959850565b60005b838110156126f85781810151838201526020016126e0565b50506000910152565b600081518084526127198160208601602086016126dd565b601f01601f19169290920160200192915050565b6020815260006108da6020830184612701565b60006020828403121561275257600080fd5b5035919050565b6000806040838503121561276c57600080fd5b8235612777816124f2565b946020939093013593505050565b60008060008060006080868803121561279d57600080fd5b85356127a8816124f2565b945060208601356127b8816124f2565b93506040860135925060608601356001600160401b03808211156127db57600080fd5b818801915088601f8301126127ef57600080fd5b8135818111156127fe57600080fd5b89602082850101111561281057600080fd5b9699959850939650602001949392505050565b60006001600160401b0382111561283c5761283c612530565b5060051b60200190565b600082601f83011261285757600080fd5b8135602061286c61286783612823565b612546565b82815260059290921b8401810191818101908684111561288b57600080fd5b8286015b848110156128ca5780356001600160401b038111156128ae5760008081fd5b6128bc8986838b01016125cd565b84525091830191830161288f565b509695505050505050565b600080604083850312156128e857600080fd5b82356001600160401b038111156128fe57600080fd5b61290a85828601612846565b925050602083013561291b81612517565b809150509250929050565b60008060006060848603121561293b57600080fd5b8335612946816124f2565b92506020840135612956816124f2565b929592945050506040919091013590565b6000806040838503121561297a57600080fd5b82356001600160401b038082111561299157600080fd5b818501915085601f8301126129a557600080fd5b813560206129b561286783612823565b82815260059290921b840181019181810190898411156129d457600080fd5b948201945b838610156129fb5785356129ec816124f2565b825294820194908201906129d9565b96505086013592505080821115612a1157600080fd5b50612a1e85828601612846565b9150509250929050565b60008060408385031215612a3b57600080fd5b8235612a46816124f2565b915060208301356001600160401b03811115612a6157600080fd5b612a1e858286016125cd565b600060208284031215612a7f57600080fd5b81356108da816124f2565b60008060408385031215612a9d57600080fd5b8235612aa8816124f2565b9150602083013561291b81612517565b60008060008060808587031215612ace57600080fd5b8435612ad9816124f2565b93506020850135612ae9816124f2565b92506040850135915060608501356001600160401b03811115612b0b57600080fd5b8501601f81018713612b1c57600080fd5b612b2b87823560208401612576565b91505092959194509250565b600080600060608486031215612b4c57600080fd5b833563ffffffff81168114612b6057600080fd5b925060208401356001600160401b03811115612b7b57600080fd5b612b87868287016125cd565b9250506040840135612b9881612517565b809150509250925092565b60008060408385031215612bb657600080fd5b8235612bc1816124f2565b9150602083013561291b816124f2565b634e487b7160e01b600052603260045260246000fd5b634e487b7160e01b600052601160045260246000fd5b600060018201612c0f57612c0f612be7565b5060010190565b600060208284031215612c2857600080fd5b81516108da816124f2565b600060208284031215612c4557600080fd5b5051919050565b600063ffffffff808316818103612c6557612c65612be7565b6001019392505050565b600181811c90821680612c8357607f821691505b602082108103612ca357634e487b7160e01b600052602260045260246000fd5b50919050565b601f8211156108c957600081815260208120601f850160051c81016020861015612cd05750805b601f850160051c820191505b81811015612cef57828155600101612cdc565b505050505050565b81516001600160401b03811115612d1057612d10612530565b612d2481612d1e8454612c6f565b84612ca9565b602080601f831160018114612d595760008415612d415750858301515b600019600386901b1c1916600185901b178555612cef565b600085815260208120601f198616915b82811015612d8857888601518255948401946001909101908401612d69565b5085821015612da65787850151600019600388901b60f8161c191681555b5050505050600190811b01905550565b8082018082111561053657610536612be7565b60008351612ddb8184602088016126dd565b835190830190612def8183602088016126dd565b01949350505050565b7f416363657373436f6e74726f6c3a206163636f756e7420000000000000000000815260008351612e308160178501602088016126dd565b7001034b99036b4b9b9b4b733903937b6329607d1b6017918401918201528351612e618160288401602088016126dd565b01602801949350505050565b634e487b7160e01b600052601260045260246000fd5b600082612e9257612e92612e6d565b500490565b8181038181111561053657610536612be7565b600082612eb957612eb9612e6d565b500690565b600060208284031215612ed057600080fd5b81516108da81612517565b6000816000190483118215151615612ef557612ef5612be7565b500290565b6001600160a01b0385811682528416602082015260408101839052608060608201819052600090612f2d90830184612701565b9695505050505050565b600060208284031215612f4957600080fd5b81516108da816124bf565b634e487b7160e01b600052603160045260246000fd5b60008251612f7c8184602087016126dd565b919091019291505056fe4552433732313a207472616e7366657220746f206e6f6e20455243373231526563656976657220696d706c656d656e74657257726170706564455243373231537465776172644c6963656e736546616365743c7bf052874fa81625121783266a03507bd2cd48b16e571c01a04e8dd3fb07a879ec1734da2430052e9d78936f451aad707e5bed12ef4806b06dc3d0c38f0e303c7bf052874fa81625121783266a03507bd2cd48b16e571c01a04e8dd3fb07a679ec1734da2430052e9d78936f451aad707e5bed12ef4806b06dc3d0c38f0e3299574a7094154bb123ae6ae102096f0bf9679b85a5cd1e727aaa0ae5f132e6b17b62b800d8c954aa32a34a9249066e0f8761d6c1614c95cbc05c04ab0583a14ca2646970667358221220f56ad0dc2fe5c8319dc0e3467c0c3a09cb78d9615a3eba54877b7870711bb03264736f6c63430008100033",
  "devdoc": {
    "details": "ERC-721 token license for Steward that wraps existing ERC-721. Only a particular ERC721 transfer is accepted.",
    "kind": "dev",
    "methods": {
      "approve(address,uint256)": {
        "params": {
          "operator": "address to be approved",
          "tokenId": "token to approve"
        }
      },
      "balanceOf(address)": {
        "returns": {
          "_0": "quantity of tokens held"
        }
      },
      "getApproved(uint256)": {
        "params": {
          "tokenId": "token to query"
        },
        "returns": {
          "_0": "address approved to spend token"
        }
      },
      "isApprovedForAll(address,address)": {
        "params": {
          "account": "address to query for approval granted",
          "operator": "address to query for approval received"
        },
        "returns": {
          "_0": "whether operator is approved to spend tokens held by account"
        }
      },
      "ownerOf(uint256)": {
        "params": {
          "tokenId": "token to query"
        },
        "returns": {
          "_0": "token owner"
        }
      },
      "safeTransferFrom(address,address,uint256)": {
        "params": {
          "from": "sender of token",
          "to": "receiver of token",
          "tokenId": "token id"
        }
      },
      "safeTransferFrom(address,address,uint256,bytes)": {
        "params": {
          "data": "data payload",
          "from": "sender of token",
          "to": "receiver of token",
          "tokenId": "token id"
        }
      },
      "setApprovalForAll(address,bool)": {
        "params": {
          "operator": "address to be approved",
          "status": "approval status"
        }
      },
      "supportsInterface(bytes4)": {
        "params": {
          "interfaceId": "interface id"
        },
        "returns": {
          "_0": "bool whether interface is supported"
        }
      },
      "tokenByIndex(uint256)": {
        "params": {
          "index": "position in global token list to query"
        },
        "returns": {
          "_0": "id of retrieved token"
        }
      },
      "tokenOfOwnerByIndex(address,uint256)": {
        "params": {
          "index": "position in owner's token list to query",
          "owner": "token holder to query"
        },
        "returns": {
          "_0": "id of retrieved token"
        }
      },
      "totalSupply()": {
        "returns": {
          "_0": "total supply"
        }
      },
      "transferFrom(address,address,uint256)": {
        "params": {
          "from": "sender of token",
          "to": "receiver of token",
          "tokenId": "token id"
        }
      }
    },
    "title": "WrappedERC721StewardLicenseFacet",
    "version": 1
  },
  "userdoc": {
    "kind": "user",
    "methods": {
      "addTokenToCollection(address,string)": {
        "notice": "Add token to collection"
      },
      "addTokensToCollection(address[],string[])": {
        "notice": "Add tokens to collection with to"
      },
      "addTokensToCollection(string[],bool)": {
        "notice": "Add tokens to collection"
      },
      "addTokensWithBaseURIToCollection(uint32,string,bool)": {
        "notice": "Add tokens to collection with baseURI"
      },
      "approve(address,uint256)": {
        "notice": "grant approval to given account to spend token"
      },
      "balanceOf(address)": {
        "notice": "query the balance of given address"
      },
      "exists(uint256)": {
        "notice": "Check if token exists"
      },
      "getApproved(uint256)": {
        "notice": "get approval status for given token"
      },
      "initializeWrappedStewardLicense(address,uint256,address,address,address,uint256,bool,string,string,string)": {
        "notice": "Initialize license"
      },
      "isApprovedForAll(address,address)": {
        "notice": "query approval status of given operator with respect to given address"
      },
      "maxTokenCount()": {
        "notice": "Get max token count"
      },
      "mintToken(address,uint256)": {
        "notice": "Initial bidder can mint token if it doesn't exist"
      },
      "minter()": {
        "notice": "Get minter"
      },
      "name()": {
        "notice": "inheritdoc IERC721Metadata"
      },
      "ownerOf(uint256)": {
        "notice": "query the owner of given token"
      },
      "safeTransferFrom(address,address,uint256)": {
        "notice": "transfer token between given addresses, checking for ERC721Receiver implementation if applicable"
      },
      "safeTransferFrom(address,address,uint256,bytes)": {
        "notice": "transfer token between given addresses, checking for ERC721Receiver implementation if applicable"
      },
      "setApprovalForAll(address,bool)": {
        "notice": "grant approval to or revoke approval from given account to spend all tokens held by sender"
      },
      "supportsInterface(bytes4)": {
        "notice": "query whether contract has registered support for given interface"
      },
      "symbol()": {
        "notice": "inheritdoc IERC721Metadata"
      },
      "tokenByIndex(uint256)": {
        "notice": "get token at given internal storage index"
      },
      "tokenOfOwnerByIndex(address,uint256)": {
        "notice": "get token of given owner at given internal storage index"
      },
      "tokenURI(uint256)": {
        "notice": "inheritdoc IERC721Metadata"
      },
      "totalSupply()": {
        "notice": "get total token supply"
      },
      "transferFrom(address,address,uint256)": {
        "notice": "transfer token between given addresses, without checking for ERC721Receiver implementation if applicable"
      },
      "triggerTransfer(address,address,uint256)": {
        "notice": "Trigger transfer of license"
      }
    },
    "version": 1
  },
  "storageLayout": {
    "storage": [],
    "types": null
  }
}