{
  "address": "0x4DFb1eEef80bEeC6F2763D6918cdbC9c6d7F3F4D",
  "abi": [
    {
      "inputs": [],
      "name": "AddressUtils__NotContract",
      "type": "error"
    },
    {
      "inputs": [],
      "name": "ERC165Base__InvalidInterfaceId",
      "type": "error"
    },
    {
      "inputs": [],
      "name": "ERC721Base__BalanceQueryZeroAddress",
      "type": "error"
    },
    {
      "inputs": [],
      "name": "ERC721Base__ERC721ReceiverNotImplemented",
      "type": "error"
    },
    {
      "inputs": [],
      "name": "ERC721Base__InvalidOwner",
      "type": "error"
    },
    {
      "inputs": [],
      "name": "ERC721Base__MintToZeroAddress",
      "type": "error"
    },
    {
      "inputs": [],
      "name": "ERC721Base__NonExistentToken",
      "type": "error"
    },
    {
      "inputs": [],
      "name": "ERC721Base__NotOwnerOrApproved",
      "type": "error"
    },
    {
      "inputs": [],
      "name": "ERC721Base__NotTokenOwner",
      "type": "error"
    },
    {
      "inputs": [],
      "name": "ERC721Base__SelfApproval",
      "type": "error"
    },
    {
      "inputs": [],
      "name": "ERC721Base__TokenAlreadyMinted",
      "type": "error"
    },
    {
      "inputs": [],
      "name": "ERC721Base__TransferToZeroAddress",
      "type": "error"
    },
    {
      "inputs": [],
      "name": "ERC721Metadata__NonExistentToken",
      "type": "error"
    },
    {
      "inputs": [],
      "name": "EnumerableMap__IndexOutOfBounds",
      "type": "error"
    },
    {
      "inputs": [],
      "name": "EnumerableMap__NonExistentKey",
      "type": "error"
    },
    {
      "inputs": [],
      "name": "EnumerableSet__IndexOutOfBounds",
      "type": "error"
    },
    {
      "inputs": [],
      "name": "UintUtils__InsufficientHexLength",
      "type": "error"
    },
    {
      "anonymous": false,
      "inputs": [
        {
          "indexed": true,
          "internalType": "address",
          "name": "owner",
          "type": "address"
        },
        {
          "indexed": true,
          "internalType": "address",
          "name": "operator",
          "type": "address"
        },
        {
          "indexed": true,
          "internalType": "uint256",
          "name": "tokenId",
          "type": "uint256"
        }
      ],
      "name": "Approval",
      "type": "event"
    },
    {
      "anonymous": false,
      "inputs": [
        {
          "indexed": true,
          "internalType": "address",
          "name": "owner",
          "type": "address"
        },
        {
          "indexed": true,
          "internalType": "address",
          "name": "operator",
          "type": "address"
        },
        {
          "indexed": false,
          "internalType": "bool",
          "name": "approved",
          "type": "bool"
        }
      ],
      "name": "ApprovalForAll",
      "type": "event"
    },
    {
      "anonymous": false,
      "inputs": [
        {
          "indexed": true,
          "internalType": "bytes32",
          "name": "role",
          "type": "bytes32"
        },
        {
          "indexed": true,
          "internalType": "bytes32",
          "name": "previousAdminRole",
          "type": "bytes32"
        },
        {
          "indexed": true,
          "internalType": "bytes32",
          "name": "newAdminRole",
          "type": "bytes32"
        }
      ],
      "name": "RoleAdminChanged",
      "type": "event"
    },
    {
      "anonymous": false,
      "inputs": [
        {
          "indexed": true,
          "internalType": "bytes32",
          "name": "role",
          "type": "bytes32"
        },
        {
          "indexed": true,
          "internalType": "address",
          "name": "account",
          "type": "address"
        },
        {
          "indexed": true,
          "internalType": "address",
          "name": "sender",
          "type": "address"
        }
      ],
      "name": "RoleGranted",
      "type": "event"
    },
    {
      "anonymous": false,
      "inputs": [
        {
          "indexed": true,
          "internalType": "bytes32",
          "name": "role",
          "type": "bytes32"
        },
        {
          "indexed": true,
          "internalType": "address",
          "name": "account",
          "type": "address"
        },
        {
          "indexed": true,
          "internalType": "address",
          "name": "sender",
          "type": "address"
        }
      ],
      "name": "RoleRevoked",
      "type": "event"
    },
    {
      "anonymous": false,
      "inputs": [
        {
          "indexed": true,
          "internalType": "address",
          "name": "from",
          "type": "address"
        },
        {
          "indexed": true,
          "internalType": "address",
          "name": "to",
          "type": "address"
        },
        {
          "indexed": true,
          "internalType": "uint256",
          "name": "tokenId",
          "type": "uint256"
        }
      ],
      "name": "Transfer",
      "type": "event"
    },
    {
      "inputs": [
        {
          "internalType": "address",
          "name": "to",
          "type": "address"
        },
        {
          "internalType": "string",
          "name": "tokenURI",
          "type": "string"
        }
      ],
      "name": "addTokenToCollection",
      "outputs": [],
      "stateMutability": "nonpayable",
      "type": "function"
    },
    {
      "inputs": [
        {
          "internalType": "string[]",
          "name": "tokenURIs",
          "type": "string[]"
        },
        {
          "internalType": "bool",
          "name": "shouldMint",
          "type": "bool"
        }
      ],
      "name": "addTokensToCollection",
      "outputs": [],
      "stateMutability": "nonpayable",
      "type": "function"
    },
    {
      "inputs": [
        {
          "internalType": "address[]",
          "name": "to",
          "type": "address[]"
        },
        {
          "internalType": "string[]",
          "name": "tokenURIs",
          "type": "string[]"
        }
      ],
      "name": "addTokensToCollection",
      "outputs": [],
      "stateMutability": "nonpayable",
      "type": "function"
    },
    {
      "inputs": [
        {
          "internalType": "uint32",
          "name": "amount",
          "type": "uint32"
        },
        {
          "internalType": "string",
          "name": "baseURI",
          "type": "string"
        },
        {
          "internalType": "bool",
          "name": "shouldMint",
          "type": "bool"
        }
      ],
      "name": "addTokensWithBaseURIToCollection",
      "outputs": [],
      "stateMutability": "nonpayable",
      "type": "function"
    },
    {
      "inputs": [
        {
          "internalType": "address",
          "name": "operator",
          "type": "address"
        },
        {
          "internalType": "uint256",
          "name": "tokenId",
          "type": "uint256"
        }
      ],
      "name": "approve",
      "outputs": [],
      "stateMutability": "payable",
      "type": "function"
    },
    {
      "inputs": [
        {
          "internalType": "address",
          "name": "account",
          "type": "address"
        }
      ],
      "name": "balanceOf",
      "outputs": [
        {
          "internalType": "uint256",
          "name": "",
          "type": "uint256"
        }
      ],
      "stateMutability": "view",
      "type": "function"
    },
    {
      "inputs": [
        {
          "internalType": "uint256",
          "name": "tokenId",
          "type": "uint256"
        }
      ],
      "name": "exists",
      "outputs": [
        {
          "internalType": "bool",
          "name": "",
          "type": "bool"
        }
      ],
      "stateMutability": "view",
      "type": "function"
    },
    {
      "inputs": [
        {
          "internalType": "uint256",
          "name": "tokenId",
          "type": "uint256"
        }
      ],
      "name": "getApproved",
      "outputs": [
        {
          "internalType": "address",
          "name": "",
          "type": "address"
        }
      ],
      "stateMutability": "view",
      "type": "function"
    },
    {
      "inputs": [
        {
          "internalType": "address",
          "name": "tokenAddress",
          "type": "address"
        },
        {
          "internalType": "uint256",
          "name": "tokenId",
          "type": "uint256"
        },
        {
          "internalType": "address",
          "name": "_addToCollectionMinter",
          "type": "address"
        },
        {
          "internalType": "address",
          "name": "_steward",
          "type": "address"
        },
        {
          "internalType": "uint256",
          "name": "_maxTokenCount",
          "type": "uint256"
        },
        {
          "internalType": "bool",
          "name": "shouldMint",
          "type": "bool"
        },
        {
          "internalType": "string",
          "name": "name",
          "type": "string"
        },
        {
          "internalType": "string",
          "name": "symbol",
          "type": "string"
        },
        {
          "internalType": "string",
          "name": "tokenURI",
          "type": "string"
        }
      ],
      "name": "initializeWrappedStewardLicense",
      "outputs": [],
      "stateMutability": "nonpayable",
      "type": "function"
    },
    {
      "inputs": [
        {
          "internalType": "address",
          "name": "account",
          "type": "address"
        },
        {
          "internalType": "address",
          "name": "operator",
          "type": "address"
        }
      ],
      "name": "isApprovedForAll",
      "outputs": [
        {
          "internalType": "bool",
          "name": "",
          "type": "bool"
        }
      ],
      "stateMutability": "view",
      "type": "function"
    },
    {
      "inputs": [],
      "name": "maxTokenCount",
      "outputs": [
        {
          "internalType": "uint256",
          "name": "",
          "type": "uint256"
        }
      ],
      "stateMutability": "view",
      "type": "function"
    },
    {
      "inputs": [
        {
          "internalType": "address",
          "name": "to",
          "type": "address"
        },
        {
          "internalType": "uint256",
          "name": "tokenId",
          "type": "uint256"
        }
      ],
      "name": "mintToken",
      "outputs": [],
      "stateMutability": "nonpayable",
      "type": "function"
    },
    {
      "inputs": [],
      "name": "minter",
      "outputs": [
        {
          "internalType": "address",
          "name": "",
          "type": "address"
        }
      ],
      "stateMutability": "view",
      "type": "function"
    },
    {
      "inputs": [],
      "name": "name",
      "outputs": [
        {
          "internalType": "string",
          "name": "",
          "type": "string"
        }
      ],
      "stateMutability": "view",
      "type": "function"
    },
    {
      "inputs": [
        {
          "internalType": "address",
          "name": "",
          "type": "address"
        },
        {
          "internalType": "address",
          "name": "",
          "type": "address"
        },
        {
          "internalType": "uint256",
          "name": "tokenId",
          "type": "uint256"
        },
        {
          "internalType": "bytes",
          "name": "",
          "type": "bytes"
        }
      ],
      "name": "onERC721Received",
      "outputs": [
        {
          "internalType": "bytes4",
          "name": "",
          "type": "bytes4"
        }
      ],
      "stateMutability": "view",
      "type": "function"
    },
    {
      "inputs": [
        {
          "internalType": "uint256",
          "name": "tokenId",
          "type": "uint256"
        }
      ],
      "name": "ownerOf",
      "outputs": [
        {
          "internalType": "address",
          "name": "",
          "type": "address"
        }
      ],
      "stateMutability": "view",
      "type": "function"
    },
    {
      "inputs": [
        {
          "internalType": "address",
          "name": "from",
          "type": "address"
        },
        {
          "internalType": "address",
          "name": "to",
          "type": "address"
        },
        {
          "internalType": "uint256",
          "name": "tokenId",
          "type": "uint256"
        }
      ],
      "name": "safeTransferFrom",
      "outputs": [],
      "stateMutability": "payable",
      "type": "function"
    },
    {
      "inputs": [
        {
          "internalType": "address",
          "name": "from",
          "type": "address"
        },
        {
          "internalType": "address",
          "name": "to",
          "type": "address"
        },
        {
          "internalType": "uint256",
          "name": "tokenId",
          "type": "uint256"
        },
        {
          "internalType": "bytes",
          "name": "data",
          "type": "bytes"
        }
      ],
      "name": "safeTransferFrom",
      "outputs": [],
      "stateMutability": "payable",
      "type": "function"
    },
    {
      "inputs": [
        {
          "internalType": "address",
          "name": "operator",
          "type": "address"
        },
        {
          "internalType": "bool",
          "name": "status",
          "type": "bool"
        }
      ],
      "name": "setApprovalForAll",
      "outputs": [],
      "stateMutability": "nonpayable",
      "type": "function"
    },
    {
      "inputs": [
        {
          "internalType": "bytes4",
          "name": "interfaceId",
          "type": "bytes4"
        }
      ],
      "name": "supportsInterface",
      "outputs": [
        {
          "internalType": "bool",
          "name": "",
          "type": "bool"
        }
      ],
      "stateMutability": "view",
      "type": "function"
    },
    {
      "inputs": [],
      "name": "symbol",
      "outputs": [
        {
          "internalType": "string",
          "name": "",
          "type": "string"
        }
      ],
      "stateMutability": "view",
      "type": "function"
    },
    {
      "inputs": [
        {
          "internalType": "uint256",
          "name": "index",
          "type": "uint256"
        }
      ],
      "name": "tokenByIndex",
      "outputs": [
        {
          "internalType": "uint256",
          "name": "",
          "type": "uint256"
        }
      ],
      "stateMutability": "view",
      "type": "function"
    },
    {
      "inputs": [
        {
          "internalType": "address",
          "name": "owner",
          "type": "address"
        },
        {
          "internalType": "uint256",
          "name": "index",
          "type": "uint256"
        }
      ],
      "name": "tokenOfOwnerByIndex",
      "outputs": [
        {
          "internalType": "uint256",
          "name": "",
          "type": "uint256"
        }
      ],
      "stateMutability": "view",
      "type": "function"
    },
    {
      "inputs": [
        {
          "internalType": "uint256",
          "name": "tokenId",
          "type": "uint256"
        }
      ],
      "name": "tokenURI",
      "outputs": [
        {
          "internalType": "string",
          "name": "",
          "type": "string"
        }
      ],
      "stateMutability": "view",
      "type": "function"
    },
    {
      "inputs": [],
      "name": "totalSupply",
      "outputs": [
        {
          "internalType": "uint256",
          "name": "",
          "type": "uint256"
        }
      ],
      "stateMutability": "view",
      "type": "function"
    },
    {
      "inputs": [
        {
          "internalType": "address",
          "name": "from",
          "type": "address"
        },
        {
          "internalType": "address",
          "name": "to",
          "type": "address"
        },
        {
          "internalType": "uint256",
          "name": "tokenId",
          "type": "uint256"
        }
      ],
      "name": "transferFrom",
      "outputs": [],
      "stateMutability": "payable",
      "type": "function"
    },
    {
      "inputs": [
        {
          "internalType": "address",
          "name": "from",
          "type": "address"
        },
        {
          "internalType": "address",
          "name": "to",
          "type": "address"
        },
        {
          "internalType": "uint256",
          "name": "tokenId",
          "type": "uint256"
        }
      ],
      "name": "triggerTransfer",
      "outputs": [],
      "stateMutability": "nonpayable",
      "type": "function"
    }
  ],
  "transactionHash": "0xe9b9e79a9bfbf2f43a32bb675af29da4f36bcc62845c001341aa1326469b79c8",
  "args": [],
  "numDeployments": 7,
  "solcInputHash": "6c888aa10e35a22f249b25a5efb27637",
  "bytecode": "0x608060405234801561001057600080fd5b50613056806100206000396000f3fe60806040526004361061019c5760003560e01c80634f6ccce7116100ec578063b3cd1d9c1161008a578063c87b56dd11610064578063c87b56dd14610479578063d111122f14610499578063e31a7c01146104b9578063e985e9c5146104d957600080fd5b8063b3cd1d9c14610431578063b88d4fde14610451578063c4e627c21461046457600080fd5b806370a08231116100c657806370a08231146103bc57806379c65068146103dc57806395d89b41146103fc578063a22cb4651461041157600080fd5b80634f6ccce71461035c5780636352211e1461037c5780636a2e019f1461039c57600080fd5b806318160ddd116101595780632f745c59116101335780632f745c59146102e957806342842e0e146103095780634a7c554f1461031c5780634f558e791461033c57600080fd5b806318160ddd146102935780632107ddfe146102b657806323b872dd146102d657600080fd5b806301ffc9a7146101a157806306fdde03146101d657806307546172146101f8578063081812fc14610225578063095ea7b314610245578063150b7a021461025a575b600080fd5b3480156101ad57600080fd5b506101c16101bc366004612477565b6104f9565b60405190151581526020015b60405180910390f35b3480156101e257600080fd5b506101eb61053c565b6040516101cd91906124e4565b34801561020457600080fd5b5061020d61054b565b6040516001600160a01b0390911681526020016101cd565b34801561023157600080fd5b5061020d6102403660046124f7565b61057e565b610258610253366004612535565b610589565b005b34801561026657600080fd5b5061027a610275366004612561565b610615565b6040516001600160e01b031990911681526020016101cd565b34801561029f57600080fd5b506102a86107c0565b6040519081526020016101cd565b3480156102c257600080fd5b506102586102d1366004612787565b6107ca565b6102586102e43660046127d8565b61085b565b3480156102f557600080fd5b506102a8610304366004612535565b61088d565b6102586103173660046127d8565b6108a0565b34801561032857600080fd5b50610258610337366004612819565b6108bb565b34801561034857600080fd5b506101c16103573660046124f7565b61098f565b34801561036857600080fd5b506102a86103773660046124f7565b61099a565b34801561038857600080fd5b5061020d6103973660046124f7565b6109a5565b3480156103a857600080fd5b506102586103b73660046128da565b6109b0565b3480156103c857600080fd5b506102a86103d736600461291f565b6109d2565b3480156103e857600080fd5b506102586103f7366004612535565b6109dd565b34801561040857600080fd5b506101eb610c15565b34801561041d57600080fd5b5061025861042c36600461293c565b610c1f565b34801561043d57600080fd5b5061025861044c36600461296a565b610cd3565b61025861045f366004612a48565b610db8565b34801561047057600080fd5b506102a8610deb565b34801561048557600080fd5b506101eb6104943660046124f7565b610e03565b3480156104a557600080fd5b506102586104b4366004612ac7565b610e0e565b3480156104c557600080fd5b506102586104d43660046127d8565b610e60565b3480156104e557600080fd5b506101c16104f4366004612b33565b610ef5565b6001600160e01b0319811660009081527ffc606c433378e3a7e0a6a531deac289b66caa1b4aa8554fd4ab2c6f1570f92d8602052604081205460ff165b92915050565b6060610546610f01565b905090565b60006105467f79ec1734da2430052e9d78936f451aad707e5bed12ef4806b06dc3d0c38f0e31546001600160a01b031690565b600061053682610fa0565b6000610594826109a5565b9050806001600160a01b0316836001600160a01b0316036105c85760405163424a22cb60e01b815260040160405180910390fd5b336001600160a01b038216148015906105e857506105e68133610ef5565b155b1561060657604051632f5de44f60e01b815260040160405180910390fd5b6106108383611003565b505050565b6000610630600080516020612f818339815191525460ff1690565b15156001146106925760405162461bcd60e51b81526020600482015260356024820152600080516020612f418339815191526044820152740e881b5d5cdd081899481a5b9a5d1a585b1a5e9959605a1b60648201526084015b60405180910390fd5b7f4f3bc7155d2db681e29af52d1119e27d8b92f937da5bb676ae6155a2e77a3c6d546001600160a01b0316331461072a5760405162461bcd60e51b81526020600482015260426024820152600080516020612f4183398151915260448201527f3a2063616e6e6f7420616363657074207468697320746f6b656e206164647265606482015261737360f01b608482015260a401610689565b7f4f3bc7155d2db681e29af52d1119e27d8b92f937da5bb676ae6155a2e77a3c6e5484146107ae5760405162461bcd60e51b815260206004820152603d6024820152600080516020612f4183398151915260448201527f3a2063616e6e6f7420616363657074207468697320746f6b656e2049440000006064820152608401610689565b50630a85bd0160e11b95945050505050565b6000610546611090565b6000805160206130018339815191526107e2816110a9565b60005b8351811015610855576000831561081b57600080516020612f818339815191525461010090046001600160a01b0316905061081f565b5060005b6108428186848151811061083557610835612b61565b60200260200101516110b6565b508061084d81612b8d565b9150506107e5565b50505050565b610865338261113c565b61088257604051632f5de44f60e01b815260040160405180910390fd5b6106108383836111c2565b600061089983836112f1565b9392505050565b61061083838360405180602001604052806000815250610db8565b6000805160206130018339815191526108d3816110a9565b81518351146109425760405162461bcd60e51b815260206004820152603560248201527f537465776172644c6963656e736546616365743a20746f20616e6420746f6b656044820152740dcaaa492e640d8cadccee8d040dad2e6dac2e8c6d605b1b6064820152608401610689565b60005b82518110156108555761097d84828151811061096357610963612b61565b602002602001015184838151811061083557610835612b61565b8061098781612b8d565b915050610945565b600061053682611320565b60006105368261133a565b60006105368261135b565b6000805160206130018339815191526109c8816110a9565b61061083836110b6565b60006105368261139f565b306001600160a01b0316633882ce8e6040518163ffffffff1660e01b8152600401602060405180830381865afa158015610a1b573d6000803e3d6000fd5b505050506040513d601f19601f82011682018060405250810190610a3f9190612ba6565b6001600160a01b0316336001600160a01b031614610ac55760405162461bcd60e51b815260206004820152603760248201527f537465776172644c6963656e736546616365743a206f6e6c7920696e6974696160448201527f6c206269646465722063616e206d696e7420746f6b656e0000000000000000006064820152608401610689565b306001600160a01b031663be6a2a6d6040518163ffffffff1660e01b8152600401602060405180830381865afa158015610b03573d6000803e3d6000fd5b505050506040513d601f19601f82011682018060405250810190610b279190612bc3565b4210610b9d576040805162461bcd60e51b81526020600482015260248101919091527f537465776172644c6963656e736546616365743a2063616e6e6f74206d696e7460448201527f20616674657220696e697469616c20706572696f642073746172742074696d656064820152608401610689565b610ba681611320565b15610c055760405162461bcd60e51b815260206004820152602960248201527f537465776172644c6963656e736546616365743a20546f6b656e20616c72656160448201526864792065786973747360b81b6064820152608401610689565b610c11600083836113f6565b5050565b6060610546611412565b336001600160a01b03831603610c485760405163424a22cb60e01b815260040160405180910390fd5b3360008181527f3c7bf052874fa81625121783266a03507bd2cd48b16e571c01a04e8dd3fb07aa602090815260408083206001600160a01b03871680855290835292819020805460ff191686151590811790915590519081529192917f17307eab39ab6107e8899845ad3d59bd9653f200f220920489ca2b5937696c31910160405180910390a35050565b600080516020612f818339815191525460ff1615610d3f5760405162461bcd60e51b81526020600482015260356024820152600080516020612f418339815191526044820152740e88185b1c9958591e481a5b9a5d1a585b1a5e9959605a1b6064820152608401610689565b7f4f3bc7155d2db681e29af52d1119e27d8b92f937da5bb676ae6155a2e77a3c6d80546001600160a01b0319166001600160a01b038b161790557f4f3bc7155d2db681e29af52d1119e27d8b92f937da5bb676ae6155a2e77a3c6e889055610dad3388888888888888611431565b505050505050505050565b610dc2338361113c565b610ddf57604051632f5de44f60e01b815260040160405180910390fd5b6108558484848461157c565b6000610546600080516020612fc18339815191525490565b6060610536826115b0565b600080516020613001833981519152610e26816110a9565b60005b8463ffffffff168163ffffffff161015610e5957610e478484611794565b80610e5181612bdc565b915050610e29565b5050505050565b333014610eea5760405162461bcd60e51b815260206004820152604c60248201527f4e6174697665537465776172644c6963656e73653a205472696767657220747260448201527f616e736665722063616e206f6e6c792062652063616c6c65642066726f6d206160648201526b1b9bdd1a195c88199858d95d60a21b608482015260a401610689565b6106108383836113f6565b60006108998383611847565b6060600080516020612fe18339815191528054610f1d90612bff565b80601f0160208091040260200160405190810160405280929190818152602001828054610f4990612bff565b8015610f965780601f10610f6b57610100808354040283529160200191610f96565b820191906000526020600020905b815481529060010190602001808311610f7957829003601f168201915b5050505050905090565b6000610fab82611320565b610fc85760405163c1b843ef60e01b815260040160405180910390fd5b5060009081527f3c7bf052874fa81625121783266a03507bd2cd48b16e571c01a04e8dd3fb07a960205260409020546001600160a01b031690565b60008181527f3c7bf052874fa81625121783266a03507bd2cd48b16e571c01a04e8dd3fb07a96020526040902080546001600160a01b0319166001600160a01b03841690811790915581906110578261135b565b6001600160a01b03167f8c5be1e5ebec7d5bd14f71427d1e84f3dd0314c0f7b2291e5b200ac8c7c3b92560405160405180910390a45050565b6000610546600080516020612fa1833981519152611894565b6110b3813361189e565b50565b600080516020612fc18339815191528054600080516020612f818339815191529160019060006110e68385612c39565b909155505060008181527f99574a7094154bb123ae6ae102096f0bf9679b85a5cd1e727aaa0ae5f132e6b4602052604090206111228482612c9a565b506001600160a01b03841615610855576108558482611900565b600061114782611320565b6111645760405163c1b843ef60e01b815260040160405180910390fd5b600061116f8361135b565b9050806001600160a01b0316846001600160a01b031614806111aa5750836001600160a01b031661119f84610fa0565b6001600160a01b0316145b806111ba57506111ba8185611847565b949350505050565b826001600160a01b03166111d58261135b565b6001600160a01b0316146111fc57604051630f2db4ad60e01b815260040160405180910390fd5b6001600160a01b038216611223576040516340311a0960e01b815260040160405180910390fd5b61122e8383836119e3565b611239600082611003565b6001600160a01b0383166000908152600080516020612f6183398151915260205260409020600080516020612fa1833981519152906112789083611ad8565b506001600160a01b0383166000908152600282016020526040902061129d9083611ae4565b506112a9818385611af0565b5081836001600160a01b0316856001600160a01b03167fddf252ad1be2c89b69c2b068fc378daa952ba7f163c4a11628f55a4df523b3ef60405160405180910390a450505050565b6001600160a01b0382166000908152600080516020612f61833981519152602052604081206108999083611b06565b6000610536600080516020612fa183398151915283611b12565b6000611354600080516020612fa183398151915283611b2a565b5092915050565b600080611376600080516020612fa183398151915284611b46565b90506001600160a01b03811661053657604051637e1a7d8b60e01b815260040160405180910390fd5b60006001600160a01b0382166113c857604051630810ff9760e41b815260040160405180910390fd5b6001600160a01b0382166000908152600080516020612f618339815191526020526040902061053690611894565b6113ff81611320565b1515600003610882576106108282611900565b6060600080516020612fe18339815191526001018054610f1d90612bff565b600080516020612f8183398151915280546001600160a01b03888116610100026001600160a81b03199092169190911760011782557f79ec1734da2430052e9d78936f451aad707e5bed12ef4806b06dc3d0c38f0e318054918b166001600160a01b0319909216919091179055600080516020612fc18339815191528690556000600080516020612fe18339815191529050806114ce8682612c9a565b50600181016114dd8582612c9a565b50600281016114ec8482612c9a565b506114ff6301ffc9a760e01b6001611b52565b6115116380ac58cd60e01b6001611b52565b6115296000805160206130018339815191528a611bc8565b61154160008051602061300183398151915280611c3c565b85156115705760005b8781101561156e5761155c8982611900565b8061156681612b8d565b91505061154a565b505b50505050505050505050565b6115878484846111c2565b61159384848484611ca6565b61085557604051639ff10cdd60e01b815260040160405180910390fd5b600080516020612fc183398151915254606090600080516020612f818339815191529083106115f157604051624705a760e71b815260040160405180910390fd5b60008381527f99574a7094154bb123ae6ae102096f0bf9679b85a5cd1e727aaa0ae5f132e6b4602052604081208054600080516020612fe183398151915292919061163b90612bff565b80601f016020809104026020016040519081016040528092919081815260200182805461166790612bff565b80156116b45780601f10611689576101008083540402835291602001916116b4565b820191906000526020600020905b81548152906001019060200180831161169757829003601f168201915b5050505050905060008260020180546116cc90612bff565b80601f01602080910402602001604051908101604052809291908181526020018280546116f890612bff565b80156117455780601f1061171a57610100808354040283529160200191611745565b820191906000526020600020905b81548152906001019060200180831161172857829003601f168201915b5050505050905060008251111561175f5750949350505050565b8061176987611d77565b60405160200161177a929190612d59565b604051602081830303815290604052945050505050919050565b600080516020612fc18339815191528054600080516020612f818339815191529160019060006117c48385612c39565b909155508490506117d482611d77565b6040516020016117e5929190612d59565b604051602081830303815290604052611809600080516020612fe183398151915290565b600083815260039190910160205260409020906118269082612c9a565b5082156108555781546108559061010090046001600160a01b031682611900565b6001600160a01b0391821660009081527f3c7bf052874fa81625121783266a03507bd2cd48b16e571c01a04e8dd3fb07aa6020908152604080832093909416825291909152205460ff1690565b6000610536825490565b6118a88282611e77565b610c11576118be816001600160a01b0316611eae565b6118c9836020611ec0565b6040516020016118da929190612d88565b60408051601f198184030181529082905262461bcd60e51b8252610689916004016124e4565b6001600160a01b038216611927576040516311f2988d60e11b815260040160405180910390fd5b61193081611320565b1561194e57604051630d86bb7b60e31b815260040160405180910390fd5b61195a600083836119e3565b6001600160a01b0382166000908152600080516020612f6183398151915260205260409020600080516020612fa1833981519152906119999083611ae4565b506119a5818385611af0565b5060405182906001600160a01b038516906000907fddf252ad1be2c89b69c2b068fc378daa952ba7f163c4a11628f55a4df523b3ef908290a4505050565b6001600160a01b03831615611acd5760405163a7c12c1160e01b815260048101829052600090309063a7c12c1190602401602060405180830381865afa158015611a31573d6000803e3d6000fd5b505050506040513d601f19601f82011682018060405250810190611a559190612dfd565b90508015611acb5760405162461bcd60e51b815260206004820152603a60248201527f537465776172644c6963656e736546616365743a2043616e6e6f74207472616e60448201527f7366657220647572696e672061756374696f6e20706572696f640000000000006064820152608401610689565b505b610610838383612012565b6000610899838361201d565b600061089983836120d7565b60006111ba84846001600160a01b03851661211a565b600061089983836121b9565b60008181526001830160205260408120541515610899565b6000808080611b398686612205565b9097909650945050505050565b60006108998383612268565b6001600160e01b03198083169003611b7d5760405163b0a19dd560e01b815260040160405180910390fd5b6001600160e01b03199190911660009081527ffc606c433378e3a7e0a6a531deac289b66caa1b4aa8554fd4ab2c6f1570f92d860205260409020805460ff1916911515919091179055565b60008281527fd3889cc5458b268d0544e5534672df1296288ca3f93cbd39bd6f497a5c62281160205260409020611bff90826122cc565b5060405133906001600160a01b0383169084907f2f8788117e7eff1d82e926ec794901d17c78024a50270940304540a733656f0d90600090a45050565b60008281527fd3889cc5458b268d0544e5534672df1296288ca3f93cbd39bd6f497a5c6228116020526040808220600201805490849055905190918391839186917fbd79b86ffe0ab8e8776151514217cd7cacd52c909f66475c3af44e129f0b00ff9190a4505050565b60006001600160a01b0384163b611cbf575060016111ba565b6000611d4063150b7a0260e01b33888787604051602401611ce39493929190612e1a565b604051602081830303815290604052906001600160e01b0319166020820180516001600160e01b038381831617835250505050604051806060016040528060328152602001612f0f603291396001600160a01b03881691906122e1565b9050600081806020019051810190611d589190612e57565b6001600160e01b031916630a85bd0160e11b1492505050949350505050565b606081600003611d9e5750506040805180820190915260018152600360fc1b602082015290565b8160005b8115611dc85780611db281612b8d565b9150611dc19050600a83612e8a565b9150611da2565b6000816001600160401b03811115611de257611de26125ff565b6040519080825280601f01601f191660200182016040528015611e0c576020820181803683370190505b5090505b84156111ba57611e21600183612e9e565b9150611e2e600a86612eb1565b611e39906030612c39565b60f81b818381518110611e4e57611e4e612b61565b60200101906001600160f81b031916908160001a905350611e70600a86612e8a565b9450611e10565b60008281527fd3889cc5458b268d0544e5534672df1296288ca3f93cbd39bd6f497a5c6228116020526040812061089990836122f0565b60606105366001600160a01b03831660145b60606000611ecf836002612ec5565b611eda906002612c39565b6001600160401b03811115611ef157611ef16125ff565b6040519080825280601f01601f191660200182016040528015611f1b576020820181803683370190505b509050600360fc1b81600081518110611f3657611f36612b61565b60200101906001600160f81b031916908160001a905350600f60fb1b81600181518110611f6557611f65612b61565b60200101906001600160f81b031916908160001a905350600160028402015b6001811115611ff2576f181899199a1a9b1b9c1cb0b131b232b360811b85600f1660108110611fb557611fb5612b61565b1a60f81b828281518110611fcb57611fcb612b61565b60200101906001600160f81b031916908160001a90535060049490941c9360001901611f84565b5083156108995760405163c913478560e01b815260040160405180910390fd5b610610838383612312565b600081815260018301602052604081205480156113545783546000908590600019810190811061204f5761204f612b61565b906000526020600020015490508085600001600184038154811061207557612075612b61565b60009182526020808320909101929092559182526001860190526040902081905583548490806120a7576120a7612edc565b60008281526020808220830160001990810183905590920190925593815260019485019093525050604081205590565b6000818152600183016020526040812054610536575081546001808201845560008481526020808220909301849055845493815293810190915260409092205590565b6000828152600184016020526040812054808203612181575050604080518082018252838152602080820184815286546001818101895560008981528481209551600290930290950191825591519082015586548684528188019092529290912055610899565b8285600001600183038154811061219a5761219a612b61565b9060005260206000209060020201600101819055506000915050610899565b815460009082106121dd5760405163e637bf3b60e01b815260040160405180910390fd5b8260000182815481106121f2576121f2612b61565b9060005260206000200154905092915050565b81546000908190831061222b5760405163022fd82760e31b815260040160405180910390fd5b600084600001848154811061224257612242612b61565b906000526020600020906002020190508060000154816001015492509250509250929050565b600081815260018301602052604081205480820361229957604051633d547ec560e21b815260040160405180910390fd5b8360000160018203815481106122b1576122b1612b61565b90600052602060002090600202016001015491505092915050565b6000610899836001600160a01b0384166120d7565b60606111ba8484600085612356565b6001600160a01b03811660009081526001830160205260408120541515610899565b6001600160a01b0382166106105760008181527f99574a7094154bb123ae6ae102096f0bf9679b85a5cd1e727aaa0ae5f132e6b46020526040812061061091612413565b6060843b61237757604051632270d6bf60e21b815260040160405180910390fd5b600080866001600160a01b031685876040516123939190612ef2565b60006040518083038185875af1925050503d80600081146123d0576040519150601f19603f3d011682016040523d82523d6000602084013e6123d5565b606091505b509150915081156123e95791506111ba9050565b8051156123f95780518082602001fd5b8360405162461bcd60e51b815260040161068991906124e4565b50805461241f90612bff565b6000825580601f1061242f575050565b601f0160209004906000526020600020908101906110b391905b8082111561245d5760008155600101612449565b5090565b6001600160e01b0319811681146110b357600080fd5b60006020828403121561248957600080fd5b813561089981612461565b60005b838110156124af578181015183820152602001612497565b50506000910152565b600081518084526124d0816020860160208601612494565b601f01601f19169290920160200192915050565b60208152600061089960208301846124b8565b60006020828403121561250957600080fd5b5035919050565b6001600160a01b03811681146110b357600080fd5b803561253081612510565b919050565b6000806040838503121561254857600080fd5b823561255381612510565b946020939093013593505050565b60008060008060006080868803121561257957600080fd5b853561258481612510565b9450602086013561259481612510565b93506040860135925060608601356001600160401b03808211156125b757600080fd5b818801915088601f8301126125cb57600080fd5b8135818111156125da57600080fd5b8960208285010111156125ec57600080fd5b9699959850939650602001949392505050565b634e487b7160e01b600052604160045260246000fd5b604051601f8201601f191681016001600160401b038111828210171561263d5761263d6125ff565b604052919050565b60006001600160401b0382111561265e5761265e6125ff565b5060051b60200190565b60006001600160401b03831115612681576126816125ff565b612694601f8401601f1916602001612615565b90508281528383830111156126a857600080fd5b828260208301376000602084830101529392505050565b600082601f8301126126d057600080fd5b61089983833560208501612668565b600082601f8301126126f057600080fd5b8135602061270561270083612645565b612615565b82815260059290921b8401810191818101908684111561272457600080fd5b8286015b848110156127635780356001600160401b038111156127475760008081fd5b6127558986838b01016126bf565b845250918301918301612728565b509695505050505050565b80151581146110b357600080fd5b80356125308161276e565b6000806040838503121561279a57600080fd5b82356001600160401b038111156127b057600080fd5b6127bc858286016126df565b92505060208301356127cd8161276e565b809150509250929050565b6000806000606084860312156127ed57600080fd5b83356127f881612510565b9250602084013561280881612510565b929592945050506040919091013590565b6000806040838503121561282c57600080fd5b82356001600160401b038082111561284357600080fd5b818501915085601f83011261285757600080fd5b8135602061286761270083612645565b82815260059290921b8401810191818101908984111561288657600080fd5b948201945b838610156128ad57853561289e81612510565b8252948201949082019061288b565b965050860135925050808211156128c357600080fd5b506128d0858286016126df565b9150509250929050565b600080604083850312156128ed57600080fd5b82356128f881612510565b915060208301356001600160401b0381111561291357600080fd5b6128d0858286016126bf565b60006020828403121561293157600080fd5b813561089981612510565b6000806040838503121561294f57600080fd5b823561295a81612510565b915060208301356127cd8161276e565b60008060008060008060008060006101208a8c03121561298957600080fd5b6129928a612525565b985060208a013597506129a760408b01612525565b96506129b560608b01612525565b955060808a013594506129ca60a08b0161277c565b935060c08a01356001600160401b03808211156129e657600080fd5b6129f28d838e016126bf565b945060e08c0135915080821115612a0857600080fd5b612a148d838e016126bf565b93506101008c0135915080821115612a2b57600080fd5b50612a388c828d016126bf565b9150509295985092959850929598565b60008060008060808587031215612a5e57600080fd5b8435612a6981612510565b93506020850135612a7981612510565b92506040850135915060608501356001600160401b03811115612a9b57600080fd5b8501601f81018713612aac57600080fd5b612abb87823560208401612668565b91505092959194509250565b600080600060608486031215612adc57600080fd5b833563ffffffff81168114612af057600080fd5b925060208401356001600160401b03811115612b0b57600080fd5b612b17868287016126bf565b9250506040840135612b288161276e565b809150509250925092565b60008060408385031215612b4657600080fd5b8235612b5181612510565b915060208301356127cd81612510565b634e487b7160e01b600052603260045260246000fd5b634e487b7160e01b600052601160045260246000fd5b600060018201612b9f57612b9f612b77565b5060010190565b600060208284031215612bb857600080fd5b815161089981612510565b600060208284031215612bd557600080fd5b5051919050565b600063ffffffff808316818103612bf557612bf5612b77565b6001019392505050565b600181811c90821680612c1357607f821691505b602082108103612c3357634e487b7160e01b600052602260045260246000fd5b50919050565b8082018082111561053657610536612b77565b601f82111561061057600081815260208120601f850160051c81016020861015612c735750805b601f850160051c820191505b81811015612c9257828155600101612c7f565b505050505050565b81516001600160401b03811115612cb357612cb36125ff565b612cc781612cc18454612bff565b84612c4c565b602080601f831160018114612cfc5760008415612ce45750858301515b600019600386901b1c1916600185901b178555612c92565b600085815260208120601f198616915b82811015612d2b57888601518255948401946001909101908401612d0c565b5085821015612d495787850151600019600388901b60f8161c191681555b5050505050600190811b01905550565b60008351612d6b818460208801612494565b835190830190612d7f818360208801612494565b01949350505050565b7f416363657373436f6e74726f6c3a206163636f756e7420000000000000000000815260008351612dc0816017850160208801612494565b7001034b99036b4b9b9b4b733903937b6329607d1b6017918401918201528351612df1816028840160208801612494565b01602801949350505050565b600060208284031215612e0f57600080fd5b81516108998161276e565b6001600160a01b0385811682528416602082015260408101839052608060608201819052600090612e4d908301846124b8565b9695505050505050565b600060208284031215612e6957600080fd5b815161089981612461565b634e487b7160e01b600052601260045260246000fd5b600082612e9957612e99612e74565b500490565b8181038181111561053657610536612b77565b600082612ec057612ec0612e74565b500690565b808202811582820484141761053657610536612b77565b634e487b7160e01b600052603160045260246000fd5b60008251612f04818460208701612494565b919091019291505056fe4552433732313a207472616e7366657220746f206e6f6e20455243373231526563656976657220696d706c656d656e74657257726170706564455243373231537465776172644c6963656e736546616365743c7bf052874fa81625121783266a03507bd2cd48b16e571c01a04e8dd3fb07a879ec1734da2430052e9d78936f451aad707e5bed12ef4806b06dc3d0c38f0e303c7bf052874fa81625121783266a03507bd2cd48b16e571c01a04e8dd3fb07a679ec1734da2430052e9d78936f451aad707e5bed12ef4806b06dc3d0c38f0e3299574a7094154bb123ae6ae102096f0bf9679b85a5cd1e727aaa0ae5f132e6b17b62b800d8c954aa32a34a9249066e0f8761d6c1614c95cbc05c04ab0583a14ca26469706673582212201c95c07399daeb79cb555bf6de3210ebb6d255923876edc6cf52742ed6e5a87a64736f6c63430008110033",
  "devdoc": {
    "details": "ERC-721 token license for Steward that wraps existing ERC-721. Only a particular ERC721 transfer is accepted.",
    "kind": "dev",
    "methods": {
      "approve(address,uint256)": {
        "params": {
          "operator": "address to be approved",
          "tokenId": "token to approve"
        }
      },
      "balanceOf(address)": {
        "returns": {
          "_0": "quantity of tokens held"
        }
      },
      "getApproved(uint256)": {
        "params": {
          "tokenId": "token to query"
        },
        "returns": {
          "_0": "address approved to spend token"
        }
      },
      "isApprovedForAll(address,address)": {
        "params": {
          "account": "address to query for approval granted",
          "operator": "address to query for approval received"
        },
        "returns": {
          "_0": "whether operator is approved to spend tokens held by account"
        }
      },
      "ownerOf(uint256)": {
        "params": {
          "tokenId": "token to query"
        },
        "returns": {
          "_0": "token owner"
        }
      },
      "safeTransferFrom(address,address,uint256)": {
        "params": {
          "from": "sender of token",
          "to": "receiver of token",
          "tokenId": "token id"
        }
      },
      "safeTransferFrom(address,address,uint256,bytes)": {
        "params": {
          "data": "data payload",
          "from": "sender of token",
          "to": "receiver of token",
          "tokenId": "token id"
        }
      },
      "setApprovalForAll(address,bool)": {
        "params": {
          "operator": "address to be approved",
          "status": "approval status"
        }
      },
      "supportsInterface(bytes4)": {
        "params": {
          "interfaceId": "interface id"
        },
        "returns": {
          "_0": "bool whether interface is supported"
        }
      },
      "tokenByIndex(uint256)": {
        "params": {
          "index": "position in global token list to query"
        },
        "returns": {
          "_0": "id of retrieved token"
        }
      },
      "tokenOfOwnerByIndex(address,uint256)": {
        "params": {
          "index": "position in owner's token list to query",
          "owner": "token holder to query"
        },
        "returns": {
          "_0": "id of retrieved token"
        }
      },
      "totalSupply()": {
        "returns": {
          "_0": "total supply"
        }
      },
      "transferFrom(address,address,uint256)": {
        "params": {
          "from": "sender of token",
          "to": "receiver of token",
          "tokenId": "token id"
        }
      }
    },
    "title": "WrappedERC721StewardLicenseFacet",
    "version": 1
  },
  "userdoc": {
    "kind": "user",
    "methods": {
      "addTokenToCollection(address,string)": {
        "notice": "Add token to collection"
      },
      "addTokensToCollection(address[],string[])": {
        "notice": "Add tokens to collection with to"
      },
      "addTokensToCollection(string[],bool)": {
        "notice": "Add tokens to collection"
      },
      "addTokensWithBaseURIToCollection(uint32,string,bool)": {
        "notice": "Add tokens to collection with baseURI"
      },
      "approve(address,uint256)": {
        "notice": "grant approval to given account to spend token"
      },
      "balanceOf(address)": {
        "notice": "query the balance of given address"
      },
      "exists(uint256)": {
        "notice": "Check if token exists"
      },
      "getApproved(uint256)": {
        "notice": "get approval status for given token"
      },
      "initializeWrappedStewardLicense(address,uint256,address,address,uint256,bool,string,string,string)": {
        "notice": "Initialize license"
      },
      "isApprovedForAll(address,address)": {
        "notice": "query approval status of given operator with respect to given address"
      },
      "maxTokenCount()": {
        "notice": "Get max token count"
      },
      "mintToken(address,uint256)": {
        "notice": "Initial bidder can mint token if it doesn't exist"
      },
      "minter()": {
        "notice": "Get minter"
      },
      "name()": {
        "notice": "inheritdoc IERC721Metadata"
      },
      "ownerOf(uint256)": {
        "notice": "query the owner of given token"
      },
      "safeTransferFrom(address,address,uint256)": {
        "notice": "transfer token between given addresses, checking for ERC721Receiver implementation if applicable"
      },
      "safeTransferFrom(address,address,uint256,bytes)": {
        "notice": "transfer token between given addresses, checking for ERC721Receiver implementation if applicable"
      },
      "setApprovalForAll(address,bool)": {
        "notice": "grant approval to or revoke approval from given account to spend all tokens held by sender"
      },
      "supportsInterface(bytes4)": {
        "notice": "query whether contract has registered support for given interface"
      },
      "symbol()": {
        "notice": "inheritdoc IERC721Metadata"
      },
      "tokenByIndex(uint256)": {
        "notice": "get token at given internal storage index"
      },
      "tokenOfOwnerByIndex(address,uint256)": {
        "notice": "get token of given owner at given internal storage index"
      },
      "tokenURI(uint256)": {
        "notice": "inheritdoc IERC721Metadata"
      },
      "totalSupply()": {
        "notice": "get total token supply"
      },
      "transferFrom(address,address,uint256)": {
        "notice": "transfer token between given addresses, without checking for ERC721Receiver implementation if applicable"
      },
      "triggerTransfer(address,address,uint256)": {
        "notice": "Trigger transfer of license"
      }
    },
    "version": 1
  },
  "storageLayout": {
    "storage": [],
    "types": null
  }
}