{
  "address": "0x3e5D445B6C0F095121EBc91D55C386f195Ff1Af4",
  "abi": [
    {
      "inputs": [],
      "name": "AddressUtils__NotContract",
      "type": "error"
    },
    {
      "inputs": [],
      "name": "ERC165Base__InvalidInterfaceId",
      "type": "error"
    },
    {
      "inputs": [],
      "name": "ERC721Base__BalanceQueryZeroAddress",
      "type": "error"
    },
    {
      "inputs": [],
      "name": "ERC721Base__ERC721ReceiverNotImplemented",
      "type": "error"
    },
    {
      "inputs": [],
      "name": "ERC721Base__InvalidOwner",
      "type": "error"
    },
    {
      "inputs": [],
      "name": "ERC721Base__MintToZeroAddress",
      "type": "error"
    },
    {
      "inputs": [],
      "name": "ERC721Base__NonExistentToken",
      "type": "error"
    },
    {
      "inputs": [],
      "name": "ERC721Base__NotOwnerOrApproved",
      "type": "error"
    },
    {
      "inputs": [],
      "name": "ERC721Base__NotTokenOwner",
      "type": "error"
    },
    {
      "inputs": [],
      "name": "ERC721Base__SelfApproval",
      "type": "error"
    },
    {
      "inputs": [],
      "name": "ERC721Base__TokenAlreadyMinted",
      "type": "error"
    },
    {
      "inputs": [],
      "name": "ERC721Base__TransferToZeroAddress",
      "type": "error"
    },
    {
      "inputs": [],
      "name": "ERC721Metadata__NonExistentToken",
      "type": "error"
    },
    {
      "inputs": [],
      "name": "EnumerableMap__IndexOutOfBounds",
      "type": "error"
    },
    {
      "inputs": [],
      "name": "EnumerableMap__NonExistentKey",
      "type": "error"
    },
    {
      "inputs": [],
      "name": "EnumerableSet__IndexOutOfBounds",
      "type": "error"
    },
    {
      "inputs": [],
      "name": "UintUtils__InsufficientHexLength",
      "type": "error"
    },
    {
      "anonymous": false,
      "inputs": [
        {
          "indexed": true,
          "internalType": "address",
          "name": "owner",
          "type": "address"
        },
        {
          "indexed": true,
          "internalType": "address",
          "name": "operator",
          "type": "address"
        },
        {
          "indexed": true,
          "internalType": "uint256",
          "name": "tokenId",
          "type": "uint256"
        }
      ],
      "name": "Approval",
      "type": "event"
    },
    {
      "anonymous": false,
      "inputs": [
        {
          "indexed": true,
          "internalType": "address",
          "name": "owner",
          "type": "address"
        },
        {
          "indexed": true,
          "internalType": "address",
          "name": "operator",
          "type": "address"
        },
        {
          "indexed": false,
          "internalType": "bool",
          "name": "approved",
          "type": "bool"
        }
      ],
      "name": "ApprovalForAll",
      "type": "event"
    },
    {
      "anonymous": false,
      "inputs": [
        {
          "indexed": true,
          "internalType": "bytes32",
          "name": "role",
          "type": "bytes32"
        },
        {
          "indexed": true,
          "internalType": "bytes32",
          "name": "previousAdminRole",
          "type": "bytes32"
        },
        {
          "indexed": true,
          "internalType": "bytes32",
          "name": "newAdminRole",
          "type": "bytes32"
        }
      ],
      "name": "RoleAdminChanged",
      "type": "event"
    },
    {
      "anonymous": false,
      "inputs": [
        {
          "indexed": true,
          "internalType": "bytes32",
          "name": "role",
          "type": "bytes32"
        },
        {
          "indexed": true,
          "internalType": "address",
          "name": "account",
          "type": "address"
        },
        {
          "indexed": true,
          "internalType": "address",
          "name": "sender",
          "type": "address"
        }
      ],
      "name": "RoleGranted",
      "type": "event"
    },
    {
      "anonymous": false,
      "inputs": [
        {
          "indexed": true,
          "internalType": "bytes32",
          "name": "role",
          "type": "bytes32"
        },
        {
          "indexed": true,
          "internalType": "address",
          "name": "account",
          "type": "address"
        },
        {
          "indexed": true,
          "internalType": "address",
          "name": "sender",
          "type": "address"
        }
      ],
      "name": "RoleRevoked",
      "type": "event"
    },
    {
      "anonymous": false,
      "inputs": [
        {
          "indexed": true,
          "internalType": "address",
          "name": "from",
          "type": "address"
        },
        {
          "indexed": true,
          "internalType": "address",
          "name": "to",
          "type": "address"
        },
        {
          "indexed": true,
          "internalType": "uint256",
          "name": "tokenId",
          "type": "uint256"
        }
      ],
      "name": "Transfer",
      "type": "event"
    },
    {
      "inputs": [
        {
          "internalType": "address",
          "name": "to",
          "type": "address"
        },
        {
          "internalType": "string",
          "name": "tokenURI",
          "type": "string"
        },
        {
          "internalType": "uint256",
          "name": "tokenInitialPeriodStartTime",
          "type": "uint256"
        }
      ],
      "name": "addTokenToCollection",
      "outputs": [],
      "stateMutability": "nonpayable",
      "type": "function"
    },
    {
      "inputs": [
        {
          "internalType": "string[]",
          "name": "tokenURIs",
          "type": "string[]"
        },
        {
          "internalType": "uint256[]",
          "name": "tokenInitialPeriodStartTimes",
          "type": "uint256[]"
        },
        {
          "internalType": "bool",
          "name": "shouldMint",
          "type": "bool"
        }
      ],
      "name": "addTokensToCollection",
      "outputs": [],
      "stateMutability": "nonpayable",
      "type": "function"
    },
    {
      "inputs": [
        {
          "internalType": "address[]",
          "name": "to",
          "type": "address[]"
        },
        {
          "internalType": "string[]",
          "name": "tokenURIs",
          "type": "string[]"
        },
        {
          "internalType": "uint256[]",
          "name": "tokenInitialPeriodStartTimes",
          "type": "uint256[]"
        }
      ],
      "name": "addTokensToCollection",
      "outputs": [],
      "stateMutability": "nonpayable",
      "type": "function"
    },
    {
      "inputs": [
        {
          "internalType": "uint32",
          "name": "amount",
          "type": "uint32"
        },
        {
          "internalType": "uint256",
          "name": "initialPeriodStartTime",
          "type": "uint256"
        },
        {
          "internalType": "uint256",
          "name": "initialPeriodStartTimeOffset",
          "type": "uint256"
        },
        {
          "internalType": "string",
          "name": "baseURI",
          "type": "string"
        },
        {
          "internalType": "bool",
          "name": "shouldMint",
          "type": "bool"
        }
      ],
      "name": "addTokensWithBaseURIToCollection",
      "outputs": [],
      "stateMutability": "nonpayable",
      "type": "function"
    },
    {
      "inputs": [
        {
          "internalType": "address",
          "name": "operator",
          "type": "address"
        },
        {
          "internalType": "uint256",
          "name": "tokenId",
          "type": "uint256"
        }
      ],
      "name": "approve",
      "outputs": [],
      "stateMutability": "payable",
      "type": "function"
    },
    {
      "inputs": [
        {
          "internalType": "address",
          "name": "account",
          "type": "address"
        }
      ],
      "name": "balanceOf",
      "outputs": [
        {
          "internalType": "uint256",
          "name": "",
          "type": "uint256"
        }
      ],
      "stateMutability": "view",
      "type": "function"
    },
    {
      "inputs": [
        {
          "internalType": "uint256",
          "name": "tokenId",
          "type": "uint256"
        }
      ],
      "name": "exists",
      "outputs": [
        {
          "internalType": "bool",
          "name": "",
          "type": "bool"
        }
      ],
      "stateMutability": "view",
      "type": "function"
    },
    {
      "inputs": [
        {
          "internalType": "uint256",
          "name": "tokenId",
          "type": "uint256"
        }
      ],
      "name": "getApproved",
      "outputs": [
        {
          "internalType": "address",
          "name": "",
          "type": "address"
        }
      ],
      "stateMutability": "view",
      "type": "function"
    },
    {
      "inputs": [
        {
          "internalType": "address",
          "name": "tokenAddress",
          "type": "address"
        },
        {
          "internalType": "uint256",
          "name": "tokenId",
          "type": "uint256"
        },
        {
          "internalType": "address",
          "name": "minter_",
          "type": "address"
        },
        {
          "internalType": "address",
          "name": "addToCollectionMinter_",
          "type": "address"
        },
        {
          "internalType": "address",
          "name": "steward_",
          "type": "address"
        },
        {
          "internalType": "uint256",
          "name": "maxTokenCount_",
          "type": "uint256"
        },
        {
          "internalType": "bool",
          "name": "shouldMint",
          "type": "bool"
        },
        {
          "internalType": "string",
          "name": "name",
          "type": "string"
        },
        {
          "internalType": "string",
          "name": "symbol",
          "type": "string"
        },
        {
          "internalType": "string",
          "name": "tokenURI",
          "type": "string"
        }
      ],
      "name": "initializeWrappedStewardLicense",
      "outputs": [],
      "stateMutability": "nonpayable",
      "type": "function"
    },
    {
      "inputs": [
        {
          "internalType": "address",
          "name": "account",
          "type": "address"
        },
        {
          "internalType": "address",
          "name": "operator",
          "type": "address"
        }
      ],
      "name": "isApprovedForAll",
      "outputs": [
        {
          "internalType": "bool",
          "name": "",
          "type": "bool"
        }
      ],
      "stateMutability": "view",
      "type": "function"
    },
    {
      "inputs": [],
      "name": "maxTokenCount",
      "outputs": [
        {
          "internalType": "uint256",
          "name": "",
          "type": "uint256"
        }
      ],
      "stateMutability": "view",
      "type": "function"
    },
    {
      "inputs": [
        {
          "internalType": "address",
          "name": "to",
          "type": "address"
        },
        {
          "internalType": "uint256",
          "name": "tokenId",
          "type": "uint256"
        }
      ],
      "name": "mintToken",
      "outputs": [],
      "stateMutability": "nonpayable",
      "type": "function"
    },
    {
      "inputs": [],
      "name": "minter",
      "outputs": [
        {
          "internalType": "address",
          "name": "",
          "type": "address"
        }
      ],
      "stateMutability": "view",
      "type": "function"
    },
    {
      "inputs": [],
      "name": "name",
      "outputs": [
        {
          "internalType": "string",
          "name": "",
          "type": "string"
        }
      ],
      "stateMutability": "view",
      "type": "function"
    },
    {
      "inputs": [
        {
          "internalType": "address",
          "name": "",
          "type": "address"
        },
        {
          "internalType": "address",
          "name": "",
          "type": "address"
        },
        {
          "internalType": "uint256",
          "name": "tokenId",
          "type": "uint256"
        },
        {
          "internalType": "bytes",
          "name": "",
          "type": "bytes"
        }
      ],
      "name": "onERC721Received",
      "outputs": [
        {
          "internalType": "bytes4",
          "name": "",
          "type": "bytes4"
        }
      ],
      "stateMutability": "view",
      "type": "function"
    },
    {
      "inputs": [
        {
          "internalType": "uint256",
          "name": "tokenId",
          "type": "uint256"
        }
      ],
      "name": "ownerOf",
      "outputs": [
        {
          "internalType": "address",
          "name": "",
          "type": "address"
        }
      ],
      "stateMutability": "view",
      "type": "function"
    },
    {
      "inputs": [
        {
          "internalType": "address",
          "name": "from",
          "type": "address"
        },
        {
          "internalType": "address",
          "name": "to",
          "type": "address"
        },
        {
          "internalType": "uint256",
          "name": "tokenId",
          "type": "uint256"
        }
      ],
      "name": "safeTransferFrom",
      "outputs": [],
      "stateMutability": "payable",
      "type": "function"
    },
    {
      "inputs": [
        {
          "internalType": "address",
          "name": "from",
          "type": "address"
        },
        {
          "internalType": "address",
          "name": "to",
          "type": "address"
        },
        {
          "internalType": "uint256",
          "name": "tokenId",
          "type": "uint256"
        },
        {
          "internalType": "bytes",
          "name": "data",
          "type": "bytes"
        }
      ],
      "name": "safeTransferFrom",
      "outputs": [],
      "stateMutability": "payable",
      "type": "function"
    },
    {
      "inputs": [
        {
          "internalType": "address",
          "name": "operator",
          "type": "address"
        },
        {
          "internalType": "bool",
          "name": "status",
          "type": "bool"
        }
      ],
      "name": "setApprovalForAll",
      "outputs": [],
      "stateMutability": "nonpayable",
      "type": "function"
    },
    {
      "inputs": [
        {
          "internalType": "bytes4",
          "name": "interfaceId",
          "type": "bytes4"
        }
      ],
      "name": "supportsInterface",
      "outputs": [
        {
          "internalType": "bool",
          "name": "",
          "type": "bool"
        }
      ],
      "stateMutability": "view",
      "type": "function"
    },
    {
      "inputs": [],
      "name": "symbol",
      "outputs": [
        {
          "internalType": "string",
          "name": "",
          "type": "string"
        }
      ],
      "stateMutability": "view",
      "type": "function"
    },
    {
      "inputs": [
        {
          "internalType": "uint256",
          "name": "index",
          "type": "uint256"
        }
      ],
      "name": "tokenByIndex",
      "outputs": [
        {
          "internalType": "uint256",
          "name": "",
          "type": "uint256"
        }
      ],
      "stateMutability": "view",
      "type": "function"
    },
    {
      "inputs": [
        {
          "internalType": "address",
          "name": "owner",
          "type": "address"
        },
        {
          "internalType": "uint256",
          "name": "index",
          "type": "uint256"
        }
      ],
      "name": "tokenOfOwnerByIndex",
      "outputs": [
        {
          "internalType": "uint256",
          "name": "",
          "type": "uint256"
        }
      ],
      "stateMutability": "view",
      "type": "function"
    },
    {
      "inputs": [
        {
          "internalType": "uint256",
          "name": "tokenId",
          "type": "uint256"
        }
      ],
      "name": "tokenURI",
      "outputs": [
        {
          "internalType": "string",
          "name": "",
          "type": "string"
        }
      ],
      "stateMutability": "view",
      "type": "function"
    },
    {
      "inputs": [],
      "name": "totalSupply",
      "outputs": [
        {
          "internalType": "uint256",
          "name": "",
          "type": "uint256"
        }
      ],
      "stateMutability": "view",
      "type": "function"
    },
    {
      "inputs": [
        {
          "internalType": "address",
          "name": "from",
          "type": "address"
        },
        {
          "internalType": "address",
          "name": "to",
          "type": "address"
        },
        {
          "internalType": "uint256",
          "name": "tokenId",
          "type": "uint256"
        }
      ],
      "name": "transferFrom",
      "outputs": [],
      "stateMutability": "payable",
      "type": "function"
    },
    {
      "inputs": [
        {
          "internalType": "address",
          "name": "from",
          "type": "address"
        },
        {
          "internalType": "address",
          "name": "to",
          "type": "address"
        },
        {
          "internalType": "uint256",
          "name": "tokenId",
          "type": "uint256"
        }
      ],
      "name": "triggerTransfer",
      "outputs": [],
      "stateMutability": "nonpayable",
      "type": "function"
    }
  ],
  "transactionHash": "0x1666be4b181ed6df6e225471c1e9a496b8143cc0afd7ed37dc2952bdf81f6f1c",
  "args": [],
  "numDeployments": 13,
  "solcInputHash": "4d1a131ade7d531f20f9db4f4cb05ba8",
  "bytecode": "0x608060405234801561001057600080fd5b506131e3806100206000396000f3fe60806040526004361061019c5760003560e01c80634f6ccce7116100ec578063a8de31cd1161008a578063c4e627c211610064578063c4e627c214610484578063c87b56dd14610499578063e31a7c01146104b9578063e985e9c5146104d957600080fd5b8063a8de31cd14610431578063b88d4fde14610451578063c3f75fc11461046457600080fd5b806370a08231116100c657806370a08231146103bc57806379c65068146103dc57806395d89b41146103fc578063a22cb4651461041157600080fd5b80634f6ccce71461035c5780635d3c438e1461037c5780636352211e1461039c57600080fd5b8063095ea7b31161015957806323b872dd1161013357806323b872dd146102f65780632f745c591461030957806342842e0e146103295780634f558e791461033c57600080fd5b8063095ea7b314610287578063150b7a021461029a57806318160ddd146102d357600080fd5b806301ffc9a7146101a157806303e8224e146101d657806306fdde03146101f8578063075461721461021a578063081812fc146102475780630849cc6914610267575b600080fd5b3480156101ad57600080fd5b506101c16101bc366004612513565b6104f9565b60405190151581526020015b60405180910390f35b3480156101e257600080fd5b506101f66101f136600461262b565b61053c565b005b34801561020457600080fd5b5061020d610627565b6040516101cd919061276b565b34801561022657600080fd5b5061022f610636565b6040516001600160a01b0390911681526020016101cd565b34801561025357600080fd5b5061022f61026236600461277e565b610669565b34801561027357600080fd5b506101f66102823660046128a4565b610674565b6101f661029536600461291b565b610720565b3480156102a657600080fd5b506102ba6102b5366004612947565b61072e565b6040516001600160e01b031990911681526020016101cd565b3480156102df57600080fd5b506102e86108cf565b6040519081526020016101cd565b6101f66103043660046129e5565b6108d9565b34801561031557600080fd5b506102e861032436600461291b565b6108e9565b6101f66103373660046129e5565b6108fc565b34801561034857600080fd5b506101c161035736600461277e565b610907565b34801561036857600080fd5b506102e861037736600461277e565b610912565b34801561038857600080fd5b506101f6610397366004612a26565b61091d565b3480156103a857600080fd5b5061022f6103b736600461277e565b610946565b3480156103c857600080fd5b506102e86103d7366004612a7e565b610951565b3480156103e857600080fd5b506101f66103f736600461291b565b61095c565b34801561040857600080fd5b5061020d610b90565b34801561041d57600080fd5b506101f661042c366004612a9b565b610b9a565b34801561043d57600080fd5b506101f661044c366004612ad4565b610ba4565b6101f661045f366004612bb9565b610c9a565b34801561047057600080fd5b506101f661047f366004612c38565b610ca6565b34801561049057600080fd5b506102e8610d14565b3480156104a557600080fd5b5061020d6104b436600461277e565b610d2c565b3480156104c557600080fd5b506101f66104d43660046129e5565b610d37565b3480156104e557600080fd5b506101c16104f4366004612cb8565b610dcc565b6001600160e01b0319811660009081527ffc606c433378e3a7e0a6a531deac289b66caa1b4aa8554fd4ab2c6f1570f92d8602052604081205460ff165b92915050565b60008051602061310e8339815191525460ff16156105ad5760405162461bcd60e51b815260206004820152603560248201526000805160206130ce8339815191526044820152740e88185b1c9958591e481a5b9a5d1a585b1a5e9959605a1b60648201526084015b60405180910390fd5b7f4f3bc7155d2db681e29af52d1119e27d8b92f937da5bb676ae6155a2e77a3c6d80546001600160a01b0319166001600160a01b038c161790557f4f3bc7155d2db681e29af52d1119e27d8b92f937da5bb676ae6155a2e77a3c6e89905561061b8888888888888888610dd8565b50505050505050505050565b6060610631610f0a565b905090565b60006106317f79ec1734da2430052e9d78936f451aad707e5bed12ef4806b06dc3d0c38f0e31546001600160a01b031690565b600061053682610fa9565b60008051602061318e83398151915261068c8161100c565b60005b845181101561071957600083156106c55760008051602061310e8339815191525461010090046001600160a01b031690506106c9565b5060005b610706818784815181106106df576106df612ce6565b60200260200101518785815181106106f9576106f9612ce6565b6020026020010151611019565b508061071181612d12565b91505061068f565b5050505050565b61072a82826110cf565b5050565b600061074960008051602061310e8339815191525460ff1690565b6107a15760405162461bcd60e51b815260206004820152603560248201526000805160206130ce8339815191526044820152740e881b5d5cdd081899481a5b9a5d1a585b1a5e9959605a1b60648201526084016105a4565b7f4f3bc7155d2db681e29af52d1119e27d8b92f937da5bb676ae6155a2e77a3c6d546001600160a01b031633146108395760405162461bcd60e51b815260206004820152604260248201526000805160206130ce83398151915260448201527f3a2063616e6e6f7420616363657074207468697320746f6b656e206164647265606482015261737360f01b608482015260a4016105a4565b7f4f3bc7155d2db681e29af52d1119e27d8b92f937da5bb676ae6155a2e77a3c6e5484146108bd5760405162461bcd60e51b815260206004820152603d60248201526000805160206130ce83398151915260448201527f3a2063616e6e6f7420616363657074207468697320746f6b656e20494400000060648201526084016105a4565b50630a85bd0160e11b95945050505050565b60006106316111c7565b6108e48383836111e0565b505050565b60006108f58383611212565b9392505050565b6108e4838383611241565b60006105368261125c565b600061053682611276565b60008051602061318e8339815191526109358161100c565b610940848484611019565b50505050565b600061053682611297565b6000610536826112db565b306001600160a01b0316633882ce8e6040518163ffffffff1660e01b8152600401602060405180830381865afa15801561099a573d6000803e3d6000fd5b505050506040513d601f19601f820116820180604052508101906109be9190612d2b565b6001600160a01b0316336001600160a01b031614610a445760405162461bcd60e51b815260206004820152603760248201527f537465776172644c6963656e736546616365743a206f6e6c7920696e6974696160448201527f6c206269646465722063616e206d696e7420746f6b656e00000000000000000060648201526084016105a4565b306001600160a01b031663be6a2a6d6040518163ffffffff1660e01b8152600401602060405180830381865afa158015610a82573d6000803e3d6000fd5b505050506040513d601f19601f82011682018060405250810190610aa69190612d48565b4210610b1c576040805162461bcd60e51b81526020600482015260248101919091527f537465776172644c6963656e736546616365743a2063616e6e6f74206d696e7460448201527f20616674657220696e697469616c20706572696f642073746172742074696d6560648201526084016105a4565b610b258161125c565b15610b845760405162461bcd60e51b815260206004820152602960248201527f537465776172644c6963656e736546616365743a20546f6b656e20616c72656160448201526864792065786973747360b81b60648201526084016105a4565b61072a60008383611332565b6060610631611349565b61072a8282611368565b60008051602061318e833981519152610bbc8161100c565b82518451148015610bce575081518451145b610c335760405162461bcd60e51b815260206004820152603060248201527f537465776172644c6963656e736546616365743a20696e70757420617272617960448201526f040d8cadccee8d040dad2e6dac2e8c6d60831b60648201526084016105a4565b60005b835181101561071957610c88858281518110610c5457610c54612ce6565b6020026020010151858381518110610c6e57610c6e612ce6565b60200260200101518584815181106106f9576106f9612ce6565b80610c9281612d12565b915050610c36565b6109408484848461141c565b60008051602061318e833981519152610cbe8161100c565b60005b8663ffffffff168163ffffffff161015610d0b57610cf98484610cea63ffffffff851689612d61565b610cf4908a612d80565b61144f565b80610d0381612d93565b915050610cc1565b50505050505050565b600061063160008051602061314e8339815191525490565b606061053682611532565b333014610dc15760405162461bcd60e51b815260206004820152604c60248201527f4e6174697665537465776172644c6963656e73653a205472696767657220747260448201527f616e736665722063616e206f6e6c792062652063616c6c65642066726f6d206160648201526b1b9bdd1a195c88199858d95d60a21b608482015260a4016105a4565b6108e4838383611332565b60006108f58383611716565b60008051602061310e83398151915280546001600160a01b03888116610100026001600160a81b03199092169190911760011782557f79ec1734da2430052e9d78936f451aad707e5bed12ef4806b06dc3d0c38f0e318054918b166001600160a01b031990921691909117905560008051602061314e833981519152869055600060008051602061316e833981519152905080610e758682612e3e565b5060018101610e848582612e3e565b5060028101610e938482612e3e565b50610ea66301ffc9a760e01b6001611763565b610eb86380ac58cd60e01b6001611763565b610ed060008051602061318e8339815191528a6117d9565b851561061b5760005b87811015610efd57610eeb898261184d565b80610ef581612d12565b915050610ed9565b5050505050505050505050565b606060008051602061316e8339815191528054610f2690612db6565b80601f0160208091040260200160405190810160405280929190818152602001828054610f5290612db6565b8015610f9f5780601f10610f7457610100808354040283529160200191610f9f565b820191906000526020600020905b815481529060010190602001808311610f8257829003601f168201915b5050505050905090565b6000610fb48261125c565b610fd15760405163c1b843ef60e01b815260040160405180910390fd5b5060009081527f3c7bf052874fa81625121783266a03507bd2cd48b16e571c01a04e8dd3fb07a960205260409020546001600160a01b031690565b6110168133611930565b50565b60008051602061314e833981519152805460008051602061310e8339815191529160019060006110498385612d80565b909155505060008181527f99574a7094154bb123ae6ae102096f0bf9679b85a5cd1e727aaa0ae5f132e6b4602052604090206110858582612e3e565b5060008181527fc7ed1b841b2d3c7f16d15642e7b013e89732e44006608d59c7547b8e331a7ce9602052604090208390556001600160a01b0385161561071957610719858261184d565b60006110da82611297565b9050806001600160a01b0316836001600160a01b03160361110e5760405163424a22cb60e01b815260040160405180910390fd5b336001600160a01b0382161480159061112e575061112c8133611716565b155b1561114c57604051632f5de44f60e01b815260040160405180910390fd5b60008281527f3c7bf052874fa81625121783266a03507bd2cd48b16e571c01a04e8dd3fb07a9602052604080822080546001600160a01b0319166001600160a01b0387811691821790925591518593918516917f8c5be1e5ebec7d5bd14f71427d1e84f3dd0314c0f7b2291e5b200ac8c7c3b92591a4505050565b600061063160008051602061312e833981519152611992565b6111ea338261199c565b61120757604051632f5de44f60e01b815260040160405180910390fd5b6108e4838383611a22565b6001600160a01b03821660009081526000805160206130ee833981519152602052604081206108f59083611b9f565b6108e48383836040518060200160405280600081525061141c565b600061053660008051602061312e83398151915283611bab565b600061129060008051602061312e83398151915283611bc3565b5092915050565b6000806112b260008051602061312e83398151915284611bdf565b90506001600160a01b03811661053657604051637e1a7d8b60e01b815260040160405180910390fd5b60006001600160a01b03821661130457604051630810ff9760e41b815260040160405180910390fd5b6001600160a01b03821660009081526000805160206130ee8339815191526020526040902061053690611992565b61133b8161125c565b611207576108e4828261184d565b606060008051602061316e8339815191526001018054610f2690612db6565b336001600160a01b038316036113915760405163424a22cb60e01b815260040160405180910390fd5b3360008181527f3c7bf052874fa81625121783266a03507bd2cd48b16e571c01a04e8dd3fb07aa602090815260408083206001600160a01b03871680855290835292819020805460ff191686151590811790915590519081529192917f17307eab39ab6107e8899845ad3d59bd9653f200f220920489ca2b5937696c31910160405180910390a35050565b611426338361199c565b61144357604051632f5de44f60e01b815260040160405180910390fd5b61094084848484611beb565b60008051602061314e833981519152805460008051602061310e83398151915291600190600061147f8385612d80565b9091555085905061148f82611c1f565b6040516020016114a0929190612efd565b6040516020818303038152906040526114c460008051602061316e83398151915290565b600083815260039190910160205260409020906114e19082612e3e565b5060008181527fc7ed1b841b2d3c7f16d15642e7b013e89732e44006608d59c7547b8e331a7ce96020526040902083905583156107195781546107199061010090046001600160a01b03168261184d565b60008051602061314e8339815191525460609060008051602061310e83398151915290831061157357604051624705a760e71b815260040160405180910390fd5b60008381527f99574a7094154bb123ae6ae102096f0bf9679b85a5cd1e727aaa0ae5f132e6b460205260408120805460008051602061316e8339815191529291906115bd90612db6565b80601f01602080910402602001604051908101604052809291908181526020018280546115e990612db6565b80156116365780601f1061160b57610100808354040283529160200191611636565b820191906000526020600020905b81548152906001019060200180831161161957829003601f168201915b50505050509050600082600201805461164e90612db6565b80601f016020809104026020016040519081016040528092919081815260200182805461167a90612db6565b80156116c75780601f1061169c576101008083540402835291602001916116c7565b820191906000526020600020905b8154815290600101906020018083116116aa57829003601f168201915b505050505090506000825111156116e15750949350505050565b806116eb87611c1f565b6040516020016116fc929190612efd565b604051602081830303815290604052945050505050919050565b6001600160a01b0391821660009081527f3c7bf052874fa81625121783266a03507bd2cd48b16e571c01a04e8dd3fb07aa6020908152604080832093909416825291909152205460ff1690565b6001600160e01b0319808316900361178e5760405163b0a19dd560e01b815260040160405180910390fd5b6001600160e01b03199190911660009081527ffc606c433378e3a7e0a6a531deac289b66caa1b4aa8554fd4ab2c6f1570f92d860205260409020805460ff1916911515919091179055565b60008281527fd3889cc5458b268d0544e5534672df1296288ca3f93cbd39bd6f497a5c622811602052604090206118109082611d1f565b5060405133906001600160a01b0383169084907f2f8788117e7eff1d82e926ec794901d17c78024a50270940304540a733656f0d90600090a45050565b6001600160a01b038216611874576040516311f2988d60e11b815260040160405180910390fd5b61187d8161125c565b1561189b57604051630d86bb7b60e31b815260040160405180910390fd5b6118a760008383611d34565b6001600160a01b03821660009081526000805160206130ee8339815191526020526040902060008051602061312e833981519152906118e69083611e29565b506118f2818385611e35565b5060405182906001600160a01b038516906000907fddf252ad1be2c89b69c2b068fc378daa952ba7f163c4a11628f55a4df523b3ef908290a4505050565b61193a8282611e4b565b61072a57611950816001600160a01b0316611e82565b61195b836020611e94565b60405160200161196c929190612f2c565b60408051601f198184030181529082905262461bcd60e51b82526105a49160040161276b565b6000610536825490565b60006119a78261125c565b6119c45760405163c1b843ef60e01b815260040160405180910390fd5b60006119cf83611297565b9050806001600160a01b0316846001600160a01b03161480611a0a5750836001600160a01b03166119ff84610fa9565b6001600160a01b0316145b80611a1a5750611a1a8185611716565b949350505050565b6000611a2d82611297565b9050836001600160a01b0316816001600160a01b031614611a6157604051630f2db4ad60e01b815260040160405180910390fd5b6001600160a01b038316611a88576040516340311a0960e01b815260040160405180910390fd5b611a93848484611d34565b6001600160a01b03841660009081526000805160206130ee8339815191526020526040902060008051602061312e83398151915290611ad29084611fe6565b506001600160a01b03841660009081526002820160205260409020611af79084611e29565b50611b03818486611e35565b50600083815260038201602052604080822080546001600160a01b0319169055518491906001600160a01b038516907f8c5be1e5ebec7d5bd14f71427d1e84f3dd0314c0f7b2291e5b200ac8c7c3b925908390a482846001600160a01b0316866001600160a01b03167fddf252ad1be2c89b69c2b068fc378daa952ba7f163c4a11628f55a4df523b3ef60405160405180910390a45050505050565b60006108f58383611ff2565b600081815260018301602052604081205415156108f5565b6000808080611bd2868661203e565b9097909650945050505050565b60006108f583836120a1565b611bf6848484611a22565b611c0284848484612105565b61094057604051639ff10cdd60e01b815260040160405180910390fd5b606081600003611c465750506040805180820190915260018152600360fc1b602082015290565b8160005b8115611c705780611c5a81612d12565b9150611c699050600a83612fb7565b9150611c4a565b6000816001600160401b03811115611c8a57611c8a61256e565b6040519080825280601f01601f191660200182016040528015611cb4576020820181803683370190505b5090505b8415611a1a57611cc9600183612fcb565b9150611cd6600a86612fde565b611ce1906030612d80565b60f81b818381518110611cf657611cf6612ce6565b60200101906001600160f81b031916908160001a905350611d18600a86612fb7565b9450611cb8565b60006108f5836001600160a01b0384166121d6565b6001600160a01b03831615611e1e5760405163a7c12c1160e01b815260048101829052600090309063a7c12c1190602401602060405180830381865afa158015611d82573d6000803e3d6000fd5b505050506040513d601f19601f82011682018060405250810190611da69190612ff2565b90508015611e1c5760405162461bcd60e51b815260206004820152603a60248201527f537465776172644c6963656e736546616365743a2043616e6e6f74207472616e60448201527f7366657220647572696e672061756374696f6e20706572696f6400000000000060648201526084016105a4565b505b6108e4838383612219565b60006108f583836121d6565b6000611a1a84846001600160a01b038516612224565b60008281527fd3889cc5458b268d0544e5534672df1296288ca3f93cbd39bd6f497a5c622811602052604081206108f590836122c3565b60606105366001600160a01b03831660145b60606000611ea3836002612d61565b611eae906002612d80565b6001600160401b03811115611ec557611ec561256e565b6040519080825280601f01601f191660200182016040528015611eef576020820181803683370190505b509050600360fc1b81600081518110611f0a57611f0a612ce6565b60200101906001600160f81b031916908160001a905350600f60fb1b81600181518110611f3957611f39612ce6565b60200101906001600160f81b031916908160001a905350600160028402015b6001811115611fc6576f181899199a1a9b1b9c1cb0b131b232b360811b85600f1660108110611f8957611f89612ce6565b1a60f81b828281518110611f9f57611f9f612ce6565b60200101906001600160f81b031916908160001a90535060049490941c9360001901611f58565b5083156108f55760405163c913478560e01b815260040160405180910390fd5b60006108f583836122e5565b815460009082106120165760405163e637bf3b60e01b815260040160405180910390fd5b82600001828154811061202b5761202b612ce6565b9060005260206000200154905092915050565b8154600090819083106120645760405163022fd82760e31b815260040160405180910390fd5b600084600001848154811061207b5761207b612ce6565b906000526020600020906002020190508060000154816001015492509250509250929050565b60008181526001830160205260408120548082036120d257604051633d547ec560e21b815260040160405180910390fd5b8360000160018203815481106120ea576120ea612ce6565b90600052602060002090600202016001015491505092915050565b60006001600160a01b0384163b61211e57506001611a1a565b600061219f63150b7a0260e01b33888787604051602401612142949392919061300f565b604051602081830303815290604052906001600160e01b0319166020820180516001600160e01b03838183161783525050505060405180606001604052806032815260200161309c603291396001600160a01b038816919061239f565b90506000818060200190518101906121b7919061304c565b6001600160e01b031916630a85bd0160e11b1492505050949350505050565b6000818152600183016020526040812054610536575081546001808201845560008481526020808220909301849055845493815293810190915260409092205590565b6108e48383836123ae565b600082815260018401602052604081205480820361228b5750506040805180820182528381526020808201848152865460018181018955600089815284812095516002909302909501918255915190820155865486845281880190925292909120556108f5565b828560000160018303815481106122a4576122a4612ce6565b90600052602060002090600202016001018190555060009150506108f5565b6001600160a01b038116600090815260018301602052604081205415156108f5565b600081815260018301602052604081205480156112905783546000908590600019810190811061231757612317612ce6565b906000526020600020015490508085600001600184038154811061233d5761233d612ce6565b600091825260208083209091019290925591825260018601905260409020819055835484908061236f5761236f613069565b60008281526020808220830160001990810183905590920190925593815260019485019093525050604081205590565b6060611a1a84846000856123f2565b6001600160a01b0382166108e45760008181527f99574a7094154bb123ae6ae102096f0bf9679b85a5cd1e727aaa0ae5f132e6b4602052604081206108e4916124af565b6060843b61241357604051632270d6bf60e21b815260040160405180910390fd5b600080866001600160a01b0316858760405161242f919061307f565b60006040518083038185875af1925050503d806000811461246c576040519150601f19603f3d011682016040523d82523d6000602084013e612471565b606091505b50915091508115612485579150611a1a9050565b8051156124955780518082602001fd5b8360405162461bcd60e51b81526004016105a4919061276b565b5080546124bb90612db6565b6000825580601f106124cb575050565b601f01602090049060005260206000209081019061101691905b808211156124f957600081556001016124e5565b5090565b6001600160e01b03198116811461101657600080fd5b60006020828403121561252557600080fd5b81356108f5816124fd565b6001600160a01b038116811461101657600080fd5b803561255081612530565b919050565b801515811461101657600080fd5b803561255081612555565b634e487b7160e01b600052604160045260246000fd5b604051601f8201601f191681016001600160401b03811182821017156125ac576125ac61256e565b604052919050565b60006001600160401b038311156125cd576125cd61256e565b6125e0601f8401601f1916602001612584565b90508281528383830111156125f457600080fd5b828260208301376000602084830101529392505050565b600082601f83011261261c57600080fd5b6108f5838335602085016125b4565b6000806000806000806000806000806101408b8d03121561264b57600080fd5b6126548b612545565b995060208b0135985061266960408c01612545565b975061267760608c01612545565b965061268560808c01612545565b955060a08b0135945061269a60c08c01612563565b935060e08b01356001600160401b03808211156126b657600080fd5b6126c28e838f0161260b565b94506101008d01359150808211156126d957600080fd5b6126e58e838f0161260b565b93506101208d01359150808211156126fc57600080fd5b506127098d828e0161260b565b9150509295989b9194979a5092959850565b60005b8381101561273657818101518382015260200161271e565b50506000910152565b6000815180845261275781602086016020860161271b565b601f01601f19169290920160200192915050565b6020815260006108f5602083018461273f565b60006020828403121561279057600080fd5b5035919050565b60006001600160401b038211156127b0576127b061256e565b5060051b60200190565b600082601f8301126127cb57600080fd5b813560206127e06127db83612797565b612584565b82815260059290921b840181019181810190868411156127ff57600080fd5b8286015b8481101561283e5780356001600160401b038111156128225760008081fd5b6128308986838b010161260b565b845250918301918301612803565b509695505050505050565b600082601f83011261285a57600080fd5b8135602061286a6127db83612797565b82815260059290921b8401810191818101908684111561288957600080fd5b8286015b8481101561283e578035835291830191830161288d565b6000806000606084860312156128b957600080fd5b83356001600160401b03808211156128d057600080fd5b6128dc878388016127ba565b945060208601359150808211156128f257600080fd5b506128ff86828701612849565b925050604084013561291081612555565b809150509250925092565b6000806040838503121561292e57600080fd5b823561293981612530565b946020939093013593505050565b60008060008060006080868803121561295f57600080fd5b853561296a81612530565b9450602086013561297a81612530565b93506040860135925060608601356001600160401b038082111561299d57600080fd5b818801915088601f8301126129b157600080fd5b8135818111156129c057600080fd5b8960208285010111156129d257600080fd5b9699959850939650602001949392505050565b6000806000606084860312156129fa57600080fd5b8335612a0581612530565b92506020840135612a1581612530565b929592945050506040919091013590565b600080600060608486031215612a3b57600080fd5b8335612a4681612530565b925060208401356001600160401b03811115612a6157600080fd5b612a6d8682870161260b565b925050604084013590509250925092565b600060208284031215612a9057600080fd5b81356108f581612530565b60008060408385031215612aae57600080fd5b8235612ab981612530565b91506020830135612ac981612555565b809150509250929050565b600080600060608486031215612ae957600080fd5b83356001600160401b0380821115612b0057600080fd5b818601915086601f830112612b1457600080fd5b81356020612b246127db83612797565b82815260059290921b8401810191818101908a841115612b4357600080fd5b948201945b83861015612b6a578535612b5b81612530565b82529482019490820190612b48565b97505087013592505080821115612b8057600080fd5b612b8c878388016127ba565b93506040860135915080821115612ba257600080fd5b50612baf86828701612849565b9150509250925092565b60008060008060808587031215612bcf57600080fd5b8435612bda81612530565b93506020850135612bea81612530565b92506040850135915060608501356001600160401b03811115612c0c57600080fd5b8501601f81018713612c1d57600080fd5b612c2c878235602084016125b4565b91505092959194509250565b600080600080600060a08688031215612c5057600080fd5b853563ffffffff81168114612c6457600080fd5b9450602086013593506040860135925060608601356001600160401b03811115612c8d57600080fd5b612c998882890161260b565b9250506080860135612caa81612555565b809150509295509295909350565b60008060408385031215612ccb57600080fd5b8235612cd681612530565b91506020830135612ac981612530565b634e487b7160e01b600052603260045260246000fd5b634e487b7160e01b600052601160045260246000fd5b600060018201612d2457612d24612cfc565b5060010190565b600060208284031215612d3d57600080fd5b81516108f581612530565b600060208284031215612d5a57600080fd5b5051919050565b6000816000190483118215151615612d7b57612d7b612cfc565b500290565b8082018082111561053657610536612cfc565b600063ffffffff808316818103612dac57612dac612cfc565b6001019392505050565b600181811c90821680612dca57607f821691505b602082108103612dea57634e487b7160e01b600052602260045260246000fd5b50919050565b601f8211156108e457600081815260208120601f850160051c81016020861015612e175750805b601f850160051c820191505b81811015612e3657828155600101612e23565b505050505050565b81516001600160401b03811115612e5757612e5761256e565b612e6b81612e658454612db6565b84612df0565b602080601f831160018114612ea05760008415612e885750858301515b600019600386901b1c1916600185901b178555612e36565b600085815260208120601f198616915b82811015612ecf57888601518255948401946001909101908401612eb0565b5085821015612eed5787850151600019600388901b60f8161c191681555b5050505050600190811b01905550565b60008351612f0f81846020880161271b565b835190830190612f2381836020880161271b565b01949350505050565b7f416363657373436f6e74726f6c3a206163636f756e7420000000000000000000815260008351612f6481601785016020880161271b565b7001034b99036b4b9b9b4b733903937b6329607d1b6017918401918201528351612f9581602884016020880161271b565b01602801949350505050565b634e487b7160e01b600052601260045260246000fd5b600082612fc657612fc6612fa1565b500490565b8181038181111561053657610536612cfc565b600082612fed57612fed612fa1565b500690565b60006020828403121561300457600080fd5b81516108f581612555565b6001600160a01b03858116825284166020820152604081018390526080606082018190526000906130429083018461273f565b9695505050505050565b60006020828403121561305e57600080fd5b81516108f5816124fd565b634e487b7160e01b600052603160045260246000fd5b6000825161309181846020870161271b565b919091019291505056fe4552433732313a207472616e7366657220746f206e6f6e20455243373231526563656976657220696d706c656d656e74657257726170706564455243373231537465776172644c6963656e736546616365743c7bf052874fa81625121783266a03507bd2cd48b16e571c01a04e8dd3fb07a879ec1734da2430052e9d78936f451aad707e5bed12ef4806b06dc3d0c38f0e303c7bf052874fa81625121783266a03507bd2cd48b16e571c01a04e8dd3fb07a679ec1734da2430052e9d78936f451aad707e5bed12ef4806b06dc3d0c38f0e3299574a7094154bb123ae6ae102096f0bf9679b85a5cd1e727aaa0ae5f132e6b17b62b800d8c954aa32a34a9249066e0f8761d6c1614c95cbc05c04ab0583a14ca26469706673582212208f383a76ac1dba6ec40dda850301b4e0bf44b98215285ce117d5b0060d62f1c264736f6c63430008100033",
  "devdoc": {
    "details": "ERC-721 token license for Steward that wraps existing ERC-721. Only a particular ERC721 transfer is accepted.",
    "kind": "dev",
    "methods": {
      "approve(address,uint256)": {
        "params": {
          "operator": "address to be approved",
          "tokenId": "token to approve"
        }
      },
      "balanceOf(address)": {
        "returns": {
          "_0": "quantity of tokens held"
        }
      },
      "getApproved(uint256)": {
        "params": {
          "tokenId": "token to query"
        },
        "returns": {
          "_0": "address approved to spend token"
        }
      },
      "isApprovedForAll(address,address)": {
        "params": {
          "account": "address to query for approval granted",
          "operator": "address to query for approval received"
        },
        "returns": {
          "_0": "whether operator is approved to spend tokens held by account"
        }
      },
      "ownerOf(uint256)": {
        "params": {
          "tokenId": "token to query"
        },
        "returns": {
          "_0": "token owner"
        }
      },
      "safeTransferFrom(address,address,uint256)": {
        "params": {
          "from": "sender of token",
          "to": "receiver of token",
          "tokenId": "token id"
        }
      },
      "safeTransferFrom(address,address,uint256,bytes)": {
        "params": {
          "data": "data payload",
          "from": "sender of token",
          "to": "receiver of token",
          "tokenId": "token id"
        }
      },
      "setApprovalForAll(address,bool)": {
        "params": {
          "operator": "address to be approved",
          "status": "approval status"
        }
      },
      "supportsInterface(bytes4)": {
        "params": {
          "interfaceId": "interface id"
        },
        "returns": {
          "_0": "bool whether interface is supported"
        }
      },
      "tokenByIndex(uint256)": {
        "params": {
          "index": "position in global token list to query"
        },
        "returns": {
          "_0": "id of retrieved token"
        }
      },
      "tokenOfOwnerByIndex(address,uint256)": {
        "params": {
          "index": "position in owner's token list to query",
          "owner": "token holder to query"
        },
        "returns": {
          "_0": "id of retrieved token"
        }
      },
      "totalSupply()": {
        "returns": {
          "_0": "total supply"
        }
      },
      "transferFrom(address,address,uint256)": {
        "params": {
          "from": "sender of token",
          "to": "receiver of token",
          "tokenId": "token id"
        }
      }
    },
    "title": "WrappedERC721StewardLicenseFacet",
    "version": 1
  },
  "userdoc": {
    "kind": "user",
    "methods": {
      "addTokenToCollection(address,string,uint256)": {
        "notice": "Add token to collection"
      },
      "addTokensToCollection(address[],string[],uint256[])": {
        "notice": "Add tokens to collection with to"
      },
      "addTokensToCollection(string[],uint256[],bool)": {
        "notice": "Add tokens to collection"
      },
      "addTokensWithBaseURIToCollection(uint32,uint256,uint256,string,bool)": {
        "notice": "Add tokens to collection with baseURI"
      },
      "approve(address,uint256)": {
        "notice": "grant approval to given account to spend token"
      },
      "balanceOf(address)": {
        "notice": "query the balance of given address"
      },
      "exists(uint256)": {
        "notice": "Check if token exists"
      },
      "getApproved(uint256)": {
        "notice": "get approval status for given token"
      },
      "initializeWrappedStewardLicense(address,uint256,address,address,address,uint256,bool,string,string,string)": {
        "notice": "Initialize license"
      },
      "isApprovedForAll(address,address)": {
        "notice": "query approval status of given operator with respect to given address"
      },
      "maxTokenCount()": {
        "notice": "Get max token count"
      },
      "mintToken(address,uint256)": {
        "notice": "Initial bidder can mint token if it doesn't exist"
      },
      "minter()": {
        "notice": "Get minter"
      },
      "name()": {
        "notice": "inheritdoc IERC721Metadata"
      },
      "ownerOf(uint256)": {
        "notice": "query the owner of given token"
      },
      "safeTransferFrom(address,address,uint256)": {
        "notice": "transfer token between given addresses, checking for ERC721Receiver implementation if applicable"
      },
      "safeTransferFrom(address,address,uint256,bytes)": {
        "notice": "transfer token between given addresses, checking for ERC721Receiver implementation if applicable"
      },
      "setApprovalForAll(address,bool)": {
        "notice": "grant approval to or revoke approval from given account to spend all tokens held by sender"
      },
      "supportsInterface(bytes4)": {
        "notice": "query whether contract has registered support for given interface"
      },
      "symbol()": {
        "notice": "inheritdoc IERC721Metadata"
      },
      "tokenByIndex(uint256)": {
        "notice": "get token at given internal storage index"
      },
      "tokenOfOwnerByIndex(address,uint256)": {
        "notice": "get token of given owner at given internal storage index"
      },
      "tokenURI(uint256)": {
        "notice": "inheritdoc IERC721Metadata"
      },
      "totalSupply()": {
        "notice": "get total token supply"
      },
      "transferFrom(address,address,uint256)": {
        "notice": "transfer token between given addresses, without checking for ERC721Receiver implementation if applicable"
      },
      "triggerTransfer(address,address,uint256)": {
        "notice": "Trigger transfer of license"
      }
    },
    "version": 1
  },
  "storageLayout": {
    "storage": [],
    "types": null
  }
}