{
  "address": "0xc749Ac2EA598D55D43A2FfEcB1D0753D7a9Ec560",
  "abi": [
    {
      "inputs": [],
      "name": "AddressUtils__NotContract",
      "type": "error"
    },
    {
      "inputs": [],
      "name": "ERC165Base__InvalidInterfaceId",
      "type": "error"
    },
    {
      "inputs": [],
      "name": "ERC721Base__BalanceQueryZeroAddress",
      "type": "error"
    },
    {
      "inputs": [],
      "name": "ERC721Base__ERC721ReceiverNotImplemented",
      "type": "error"
    },
    {
      "inputs": [],
      "name": "ERC721Base__InvalidOwner",
      "type": "error"
    },
    {
      "inputs": [],
      "name": "ERC721Base__MintToZeroAddress",
      "type": "error"
    },
    {
      "inputs": [],
      "name": "ERC721Base__NonExistentToken",
      "type": "error"
    },
    {
      "inputs": [],
      "name": "ERC721Base__NotOwnerOrApproved",
      "type": "error"
    },
    {
      "inputs": [],
      "name": "ERC721Base__NotTokenOwner",
      "type": "error"
    },
    {
      "inputs": [],
      "name": "ERC721Base__SelfApproval",
      "type": "error"
    },
    {
      "inputs": [],
      "name": "ERC721Base__TokenAlreadyMinted",
      "type": "error"
    },
    {
      "inputs": [],
      "name": "ERC721Base__TransferToZeroAddress",
      "type": "error"
    },
    {
      "inputs": [],
      "name": "ERC721Metadata__NonExistentToken",
      "type": "error"
    },
    {
      "inputs": [],
      "name": "EnumerableMap__IndexOutOfBounds",
      "type": "error"
    },
    {
      "inputs": [],
      "name": "EnumerableMap__NonExistentKey",
      "type": "error"
    },
    {
      "inputs": [],
      "name": "EnumerableSet__IndexOutOfBounds",
      "type": "error"
    },
    {
      "inputs": [],
      "name": "UintUtils__InsufficientHexLength",
      "type": "error"
    },
    {
      "anonymous": false,
      "inputs": [
        {
          "indexed": true,
          "internalType": "address",
          "name": "owner",
          "type": "address"
        },
        {
          "indexed": true,
          "internalType": "address",
          "name": "operator",
          "type": "address"
        },
        {
          "indexed": true,
          "internalType": "uint256",
          "name": "tokenId",
          "type": "uint256"
        }
      ],
      "name": "Approval",
      "type": "event"
    },
    {
      "anonymous": false,
      "inputs": [
        {
          "indexed": true,
          "internalType": "address",
          "name": "owner",
          "type": "address"
        },
        {
          "indexed": true,
          "internalType": "address",
          "name": "operator",
          "type": "address"
        },
        {
          "indexed": false,
          "internalType": "bool",
          "name": "approved",
          "type": "bool"
        }
      ],
      "name": "ApprovalForAll",
      "type": "event"
    },
    {
      "anonymous": false,
      "inputs": [
        {
          "indexed": true,
          "internalType": "bytes32",
          "name": "role",
          "type": "bytes32"
        },
        {
          "indexed": true,
          "internalType": "bytes32",
          "name": "previousAdminRole",
          "type": "bytes32"
        },
        {
          "indexed": true,
          "internalType": "bytes32",
          "name": "newAdminRole",
          "type": "bytes32"
        }
      ],
      "name": "RoleAdminChanged",
      "type": "event"
    },
    {
      "anonymous": false,
      "inputs": [
        {
          "indexed": true,
          "internalType": "bytes32",
          "name": "role",
          "type": "bytes32"
        },
        {
          "indexed": true,
          "internalType": "address",
          "name": "account",
          "type": "address"
        },
        {
          "indexed": true,
          "internalType": "address",
          "name": "sender",
          "type": "address"
        }
      ],
      "name": "RoleGranted",
      "type": "event"
    },
    {
      "anonymous": false,
      "inputs": [
        {
          "indexed": true,
          "internalType": "bytes32",
          "name": "role",
          "type": "bytes32"
        },
        {
          "indexed": true,
          "internalType": "address",
          "name": "account",
          "type": "address"
        },
        {
          "indexed": true,
          "internalType": "address",
          "name": "sender",
          "type": "address"
        }
      ],
      "name": "RoleRevoked",
      "type": "event"
    },
    {
      "anonymous": false,
      "inputs": [
        {
          "indexed": true,
          "internalType": "address",
          "name": "from",
          "type": "address"
        },
        {
          "indexed": true,
          "internalType": "address",
          "name": "to",
          "type": "address"
        },
        {
          "indexed": true,
          "internalType": "uint256",
          "name": "tokenId",
          "type": "uint256"
        }
      ],
      "name": "Transfer",
      "type": "event"
    },
    {
      "inputs": [
        {
          "internalType": "address",
          "name": "to",
          "type": "address"
        },
        {
          "internalType": "string",
          "name": "tokenURI",
          "type": "string"
        },
        {
          "internalType": "uint256",
          "name": "tokenInitialPeriodStartTime",
          "type": "uint256"
        }
      ],
      "name": "addTokenToCollection",
      "outputs": [],
      "stateMutability": "nonpayable",
      "type": "function"
    },
    {
      "inputs": [
        {
          "internalType": "string[]",
          "name": "tokenURIs",
          "type": "string[]"
        },
        {
          "internalType": "uint256[]",
          "name": "tokenInitialPeriodStartTimes",
          "type": "uint256[]"
        },
        {
          "internalType": "bool",
          "name": "shouldMint",
          "type": "bool"
        }
      ],
      "name": "addTokensToCollection",
      "outputs": [],
      "stateMutability": "nonpayable",
      "type": "function"
    },
    {
      "inputs": [
        {
          "internalType": "address[]",
          "name": "to",
          "type": "address[]"
        },
        {
          "internalType": "string[]",
          "name": "tokenURIs",
          "type": "string[]"
        },
        {
          "internalType": "uint256[]",
          "name": "tokenInitialPeriodStartTimes",
          "type": "uint256[]"
        }
      ],
      "name": "addTokensToCollection",
      "outputs": [],
      "stateMutability": "nonpayable",
      "type": "function"
    },
    {
      "inputs": [
        {
          "internalType": "uint32",
          "name": "amount",
          "type": "uint32"
        },
        {
          "internalType": "uint256",
          "name": "initialPeriodStartTime",
          "type": "uint256"
        },
        {
          "internalType": "uint256",
          "name": "initialPeriodStartTimeOffset",
          "type": "uint256"
        },
        {
          "internalType": "string",
          "name": "baseURI",
          "type": "string"
        },
        {
          "internalType": "bool",
          "name": "shouldMint",
          "type": "bool"
        }
      ],
      "name": "addTokensWithBaseURIToCollection",
      "outputs": [],
      "stateMutability": "nonpayable",
      "type": "function"
    },
    {
      "inputs": [
        {
          "internalType": "address",
          "name": "operator",
          "type": "address"
        },
        {
          "internalType": "uint256",
          "name": "tokenId",
          "type": "uint256"
        }
      ],
      "name": "approve",
      "outputs": [],
      "stateMutability": "payable",
      "type": "function"
    },
    {
      "inputs": [
        {
          "internalType": "address",
          "name": "account",
          "type": "address"
        }
      ],
      "name": "balanceOf",
      "outputs": [
        {
          "internalType": "uint256",
          "name": "",
          "type": "uint256"
        }
      ],
      "stateMutability": "view",
      "type": "function"
    },
    {
      "inputs": [
        {
          "internalType": "uint256",
          "name": "tokenId",
          "type": "uint256"
        }
      ],
      "name": "exists",
      "outputs": [
        {
          "internalType": "bool",
          "name": "",
          "type": "bool"
        }
      ],
      "stateMutability": "view",
      "type": "function"
    },
    {
      "inputs": [
        {
          "internalType": "uint256",
          "name": "tokenId",
          "type": "uint256"
        }
      ],
      "name": "getApproved",
      "outputs": [
        {
          "internalType": "address",
          "name": "",
          "type": "address"
        }
      ],
      "stateMutability": "view",
      "type": "function"
    },
    {
      "inputs": [
        {
          "internalType": "address",
          "name": "tokenAddress",
          "type": "address"
        },
        {
          "internalType": "uint256",
          "name": "tokenId",
          "type": "uint256"
        },
        {
          "internalType": "address",
          "name": "minter_",
          "type": "address"
        },
        {
          "internalType": "address",
          "name": "addToCollectionMinter_",
          "type": "address"
        },
        {
          "internalType": "address",
          "name": "steward_",
          "type": "address"
        },
        {
          "internalType": "uint256",
          "name": "maxTokenCount_",
          "type": "uint256"
        },
        {
          "internalType": "bool",
          "name": "shouldMint",
          "type": "bool"
        },
        {
          "internalType": "string",
          "name": "name",
          "type": "string"
        },
        {
          "internalType": "string",
          "name": "symbol",
          "type": "string"
        },
        {
          "internalType": "string",
          "name": "tokenURI",
          "type": "string"
        }
      ],
      "name": "initializeWrappedStewardLicense",
      "outputs": [],
      "stateMutability": "nonpayable",
      "type": "function"
    },
    {
      "inputs": [
        {
          "internalType": "address",
          "name": "account",
          "type": "address"
        },
        {
          "internalType": "address",
          "name": "operator",
          "type": "address"
        }
      ],
      "name": "isApprovedForAll",
      "outputs": [
        {
          "internalType": "bool",
          "name": "",
          "type": "bool"
        }
      ],
      "stateMutability": "view",
      "type": "function"
    },
    {
      "inputs": [],
      "name": "maxTokenCount",
      "outputs": [
        {
          "internalType": "uint256",
          "name": "",
          "type": "uint256"
        }
      ],
      "stateMutability": "view",
      "type": "function"
    },
    {
      "inputs": [
        {
          "internalType": "address",
          "name": "to",
          "type": "address"
        },
        {
          "internalType": "uint256",
          "name": "tokenId",
          "type": "uint256"
        }
      ],
      "name": "mintToken",
      "outputs": [],
      "stateMutability": "nonpayable",
      "type": "function"
    },
    {
      "inputs": [],
      "name": "minter",
      "outputs": [
        {
          "internalType": "address",
          "name": "",
          "type": "address"
        }
      ],
      "stateMutability": "view",
      "type": "function"
    },
    {
      "inputs": [],
      "name": "name",
      "outputs": [
        {
          "internalType": "string",
          "name": "",
          "type": "string"
        }
      ],
      "stateMutability": "view",
      "type": "function"
    },
    {
      "inputs": [
        {
          "internalType": "address",
          "name": "",
          "type": "address"
        },
        {
          "internalType": "address",
          "name": "",
          "type": "address"
        },
        {
          "internalType": "uint256[]",
          "name": "ids",
          "type": "uint256[]"
        },
        {
          "internalType": "uint256[]",
          "name": "values",
          "type": "uint256[]"
        },
        {
          "internalType": "bytes",
          "name": "",
          "type": "bytes"
        }
      ],
      "name": "onERC1155BatchReceived",
      "outputs": [
        {
          "internalType": "bytes4",
          "name": "",
          "type": "bytes4"
        }
      ],
      "stateMutability": "view",
      "type": "function"
    },
    {
      "inputs": [
        {
          "internalType": "address",
          "name": "",
          "type": "address"
        },
        {
          "internalType": "address",
          "name": "",
          "type": "address"
        },
        {
          "internalType": "uint256",
          "name": "id",
          "type": "uint256"
        },
        {
          "internalType": "uint256",
          "name": "value",
          "type": "uint256"
        },
        {
          "internalType": "bytes",
          "name": "",
          "type": "bytes"
        }
      ],
      "name": "onERC1155Received",
      "outputs": [
        {
          "internalType": "bytes4",
          "name": "",
          "type": "bytes4"
        }
      ],
      "stateMutability": "view",
      "type": "function"
    },
    {
      "inputs": [
        {
          "internalType": "uint256",
          "name": "tokenId",
          "type": "uint256"
        }
      ],
      "name": "ownerOf",
      "outputs": [
        {
          "internalType": "address",
          "name": "",
          "type": "address"
        }
      ],
      "stateMutability": "view",
      "type": "function"
    },
    {
      "inputs": [
        {
          "internalType": "address",
          "name": "from",
          "type": "address"
        },
        {
          "internalType": "address",
          "name": "to",
          "type": "address"
        },
        {
          "internalType": "uint256",
          "name": "tokenId",
          "type": "uint256"
        }
      ],
      "name": "safeTransferFrom",
      "outputs": [],
      "stateMutability": "payable",
      "type": "function"
    },
    {
      "inputs": [
        {
          "internalType": "address",
          "name": "from",
          "type": "address"
        },
        {
          "internalType": "address",
          "name": "to",
          "type": "address"
        },
        {
          "internalType": "uint256",
          "name": "tokenId",
          "type": "uint256"
        },
        {
          "internalType": "bytes",
          "name": "data",
          "type": "bytes"
        }
      ],
      "name": "safeTransferFrom",
      "outputs": [],
      "stateMutability": "payable",
      "type": "function"
    },
    {
      "inputs": [
        {
          "internalType": "address",
          "name": "operator",
          "type": "address"
        },
        {
          "internalType": "bool",
          "name": "status",
          "type": "bool"
        }
      ],
      "name": "setApprovalForAll",
      "outputs": [],
      "stateMutability": "nonpayable",
      "type": "function"
    },
    {
      "inputs": [
        {
          "internalType": "bytes4",
          "name": "interfaceId",
          "type": "bytes4"
        }
      ],
      "name": "supportsInterface",
      "outputs": [
        {
          "internalType": "bool",
          "name": "",
          "type": "bool"
        }
      ],
      "stateMutability": "view",
      "type": "function"
    },
    {
      "inputs": [],
      "name": "symbol",
      "outputs": [
        {
          "internalType": "string",
          "name": "",
          "type": "string"
        }
      ],
      "stateMutability": "view",
      "type": "function"
    },
    {
      "inputs": [
        {
          "internalType": "uint256",
          "name": "index",
          "type": "uint256"
        }
      ],
      "name": "tokenByIndex",
      "outputs": [
        {
          "internalType": "uint256",
          "name": "",
          "type": "uint256"
        }
      ],
      "stateMutability": "view",
      "type": "function"
    },
    {
      "inputs": [
        {
          "internalType": "address",
          "name": "owner",
          "type": "address"
        },
        {
          "internalType": "uint256",
          "name": "index",
          "type": "uint256"
        }
      ],
      "name": "tokenOfOwnerByIndex",
      "outputs": [
        {
          "internalType": "uint256",
          "name": "",
          "type": "uint256"
        }
      ],
      "stateMutability": "view",
      "type": "function"
    },
    {
      "inputs": [
        {
          "internalType": "uint256",
          "name": "tokenId",
          "type": "uint256"
        }
      ],
      "name": "tokenURI",
      "outputs": [
        {
          "internalType": "string",
          "name": "",
          "type": "string"
        }
      ],
      "stateMutability": "view",
      "type": "function"
    },
    {
      "inputs": [],
      "name": "totalSupply",
      "outputs": [
        {
          "internalType": "uint256",
          "name": "",
          "type": "uint256"
        }
      ],
      "stateMutability": "view",
      "type": "function"
    },
    {
      "inputs": [
        {
          "internalType": "address",
          "name": "from",
          "type": "address"
        },
        {
          "internalType": "address",
          "name": "to",
          "type": "address"
        },
        {
          "internalType": "uint256",
          "name": "tokenId",
          "type": "uint256"
        }
      ],
      "name": "transferFrom",
      "outputs": [],
      "stateMutability": "payable",
      "type": "function"
    },
    {
      "inputs": [
        {
          "internalType": "address",
          "name": "from",
          "type": "address"
        },
        {
          "internalType": "address",
          "name": "to",
          "type": "address"
        },
        {
          "internalType": "uint256",
          "name": "tokenId",
          "type": "uint256"
        }
      ],
      "name": "triggerTransfer",
      "outputs": [],
      "stateMutability": "nonpayable",
      "type": "function"
    }
  ],
  "transactionHash": "0x2ff6ad6bcedd05299a8888032354547b89429610794dce3d412da528185a37da",
  "args": [],
  "numDeployments": 13,
  "solcInputHash": "4d1a131ade7d531f20f9db4f4cb05ba8",
  "bytecode": "0x608060405234801561001057600080fd5b506134f7806100206000396000f3fe6080604052600436106101b75760003560e01c80636352211e116100ec578063bc197c811161008a578063c87b56dd11610064578063c87b56dd146104b4578063e31a7c01146104d4578063e985e9c5146104f4578063f23a6e611461051457600080fd5b8063bc197c8114610446578063c3f75fc11461047f578063c4e627c21461049f57600080fd5b806395d89b41116100c657806395d89b41146103de578063a22cb465146103f3578063a8de31cd14610413578063b88d4fde1461043357600080fd5b80636352211e1461037e57806370a082311461039e57806379c65068146103be57600080fd5b806318160ddd1161015957806342842e0e1161013357806342842e0e1461030b5780634f558e791461031e5780634f6ccce71461033e5780635d3c438e1461035e57600080fd5b806318160ddd146102b557806323b872dd146102d85780632f745c59146102eb57600080fd5b806307546172116101955780630754617214610235578063081812fc146102625780630849cc6914610282578063095ea7b3146102a257600080fd5b806301ffc9a7146101bc57806303e8224e146101f157806306fdde0314610213575b600080fd5b3480156101c857600080fd5b506101dc6101d73660046125d6565b610534565b60405190151581526020015b60405180910390f35b3480156101fd57600080fd5b5061021161020c3660046126ee565b610577565b005b34801561021f57600080fd5b50610228610663565b6040516101e8919061282e565b34801561024157600080fd5b5061024a610672565b6040516001600160a01b0390911681526020016101e8565b34801561026e57600080fd5b5061024a61027d366004612841565b6106a5565b34801561028e57600080fd5b5061021161029d366004612967565b6106b0565b6102116102b03660046129de565b61075c565b3480156102c157600080fd5b506102ca61076a565b6040519081526020016101e8565b6102116102e6366004612a0a565b610774565b3480156102f757600080fd5b506102ca6103063660046129de565b610784565b610211610319366004612a0a565b610797565b34801561032a57600080fd5b506101dc610339366004612841565b6107a2565b34801561034a57600080fd5b506102ca610359366004612841565b6107ad565b34801561036a57600080fd5b50610211610379366004612a4b565b6107b8565b34801561038a57600080fd5b5061024a610399366004612841565b6107e1565b3480156103aa57600080fd5b506102ca6103b9366004612aa3565b6107ec565b3480156103ca57600080fd5b506102116103d93660046129de565b6107f7565b3480156103ea57600080fd5b50610228610a2b565b3480156103ff57600080fd5b5061021161040e366004612ac0565b610a35565b34801561041f57600080fd5b5061021161042e366004612af9565b610a3f565b610211610441366004612bde565b610b35565b34801561045257600080fd5b50610466610461366004612ce2565b610b41565b6040516001600160e01b031990911681526020016101e8565b34801561048b57600080fd5b5061021161049a366004612da0565b610c7a565b3480156104ab57600080fd5b506102ca610ce8565b3480156104c057600080fd5b506102286104cf366004612841565b610d00565b3480156104e057600080fd5b506102116104ef366004612a0a565b610d0b565b34801561050057600080fd5b506101dc61050f366004612e20565b610da0565b34801561052057600080fd5b5061046661052f366004612e4e565b610dac565b6001600160e01b0319811660009081527ffc606c433378e3a7e0a6a531deac289b66caa1b4aa8554fd4ab2c6f1570f92d8602052604081205460ff165b92915050565b6000805160206134028339815191525460ff16156105e95760405162461bcd60e51b815260206004820152603660248201526000805160206134828339815191526044820152751d0e88185b1c9958591e481a5b9a5d1a585b1a5e995960521b60648201526084015b60405180910390fd5b7f4f3bc7155d2db681e29af52d1119e27d8b92f937da5bb676ae6155a2e77a3c6d80546001600160a01b0319166001600160a01b038c161790557f4f3bc7155d2db681e29af52d1119e27d8b92f937da5bb676ae6155a2e77a3c6e8990556106578888888888888888610e99565b50505050505050505050565b606061066d610fcb565b905090565b600061066d7f79ec1734da2430052e9d78936f451aad707e5bed12ef4806b06dc3d0c38f0e31546001600160a01b031690565b60006105718261106a565b6000805160206134a28339815191526106c8816110cd565b60005b84518110156107555760008315610701576000805160206134028339815191525461010090046001600160a01b03169050610705565b5060005b6107428187848151811061071b5761071b612ec9565b602002602001015187858151811061073557610735612ec9565b60200260200101516110da565b508061074d81612ef5565b9150506106cb565b5050505050565b6107668282611190565b5050565b600061066d611288565b61077f8383836112a1565b505050565b600061079083836112d3565b9392505050565b61077f838383611302565b60006105718261131d565b600061057182611337565b6000805160206134a28339815191526107d0816110cd565b6107db8484846110da565b50505050565b600061057182611358565b60006105718261139c565b306001600160a01b0316633882ce8e6040518163ffffffff1660e01b8152600401602060405180830381865afa158015610835573d6000803e3d6000fd5b505050506040513d601f19601f820116820180604052508101906108599190612f0e565b6001600160a01b0316336001600160a01b0316146108df5760405162461bcd60e51b815260206004820152603760248201527f537465776172644c6963656e736546616365743a206f6e6c7920696e6974696160448201527f6c206269646465722063616e206d696e7420746f6b656e00000000000000000060648201526084016105e0565b306001600160a01b031663be6a2a6d6040518163ffffffff1660e01b8152600401602060405180830381865afa15801561091d573d6000803e3d6000fd5b505050506040513d601f19601f820116820180604052508101906109419190612f2b565b42106109b7576040805162461bcd60e51b81526020600482015260248101919091527f537465776172644c6963656e736546616365743a2063616e6e6f74206d696e7460448201527f20616674657220696e697469616c20706572696f642073746172742074696d6560648201526084016105e0565b6109c08161131d565b15610a1f5760405162461bcd60e51b815260206004820152602960248201527f537465776172644c6963656e736546616365743a20546f6b656e20616c72656160448201526864792065786973747360b81b60648201526084016105e0565b610766600083836113f3565b606061066d61140a565b6107668282611429565b6000805160206134a2833981519152610a57816110cd565b82518451148015610a69575081518451145b610ace5760405162461bcd60e51b815260206004820152603060248201527f537465776172644c6963656e736546616365743a20696e70757420617272617960448201526f040d8cadccee8d040dad2e6dac2e8c6d60831b60648201526084016105e0565b60005b835181101561075557610b23858281518110610aef57610aef612ec9565b6020026020010151858381518110610b0957610b09612ec9565b602002602001015185848151811061073557610735612ec9565b80610b2d81612ef5565b915050610ad1565b6107db848484846114dd565b6000600186148015610b535750600184145b8015610b78575084846000818110610b6d57610b6d612ec9565b905060200201356001145b610b945760405162461bcd60e51b81526004016105e090612f44565b6000805160206134028339815191525460ff16610bc35760405162461bcd60e51b81526004016105e090612f8f565b7f4f3bc7155d2db681e29af52d1119e27d8b92f937da5bb676ae6155a2e77a3c6d546001600160a01b03163314610c0c5760405162461bcd60e51b81526004016105e090612fd3565b7f4f3bc7155d2db681e29af52d1119e27d8b92f937da5bb676ae6155a2e77a3c6e5487876000818110610c4157610c41612ec9565b9050602002013514610c655760405162461bcd60e51b81526004016105e09061302a565b5063bc197c8160e01b98975050505050505050565b6000805160206134a2833981519152610c92816110cd565b60005b8663ffffffff168163ffffffff161015610cdf57610ccd8484610cbe63ffffffff851689613075565b610cc8908a613094565b611510565b80610cd7816130a7565b915050610c95565b50505050505050565b600061066d6000805160206134428339815191525490565b6060610571826115f3565b333014610d955760405162461bcd60e51b815260206004820152604c60248201527f4e6174697665537465776172644c6963656e73653a205472696767657220747260448201527f616e736665722063616e206f6e6c792062652063616c6c65642066726f6d206160648201526b1b9bdd1a195c88199858d95d60a21b608482015260a4016105e0565b61077f8383836113f3565b600061079083836117d7565b600083600114610dce5760405162461bcd60e51b81526004016105e090612f44565b6000805160206134028339815191525460ff16610dfd5760405162461bcd60e51b81526004016105e090612f8f565b7f4f3bc7155d2db681e29af52d1119e27d8b92f937da5bb676ae6155a2e77a3c6d546001600160a01b03163314610e465760405162461bcd60e51b81526004016105e090612fd3565b7f4f3bc7155d2db681e29af52d1119e27d8b92f937da5bb676ae6155a2e77a3c6e548514610e865760405162461bcd60e51b81526004016105e09061302a565b5063f23a6e6160e01b9695505050505050565b60008051602061340283398151915280546001600160a01b03888116610100026001600160a81b03199092169190911760011782557f79ec1734da2430052e9d78936f451aad707e5bed12ef4806b06dc3d0c38f0e318054918b166001600160a01b03199092169190911790556000805160206134428339815191528690556000600080516020613462833981519152905080610f368682613152565b5060018101610f458582613152565b5060028101610f548482613152565b50610f676301ffc9a760e01b6001611824565b610f796380ac58cd60e01b6001611824565b610f916000805160206134a28339815191528a61189a565b85156106575760005b87811015610fbe57610fac898261190e565b80610fb681612ef5565b915050610f9a565b5050505050505050505050565b60606000805160206134628339815191528054610fe7906130ca565b80601f0160208091040260200160405190810160405280929190818152602001828054611013906130ca565b80156110605780601f1061103557610100808354040283529160200191611060565b820191906000526020600020905b81548152906001019060200180831161104357829003601f168201915b5050505050905090565b60006110758261131d565b6110925760405163c1b843ef60e01b815260040160405180910390fd5b5060009081527f3c7bf052874fa81625121783266a03507bd2cd48b16e571c01a04e8dd3fb07a960205260409020546001600160a01b031690565b6110d781336119f1565b50565b600080516020613442833981519152805460008051602061340283398151915291600190600061110a8385613094565b909155505060008181527f99574a7094154bb123ae6ae102096f0bf9679b85a5cd1e727aaa0ae5f132e6b4602052604090206111468582613152565b5060008181527fc7ed1b841b2d3c7f16d15642e7b013e89732e44006608d59c7547b8e331a7ce9602052604090208390556001600160a01b0385161561075557610755858261190e565b600061119b82611358565b9050806001600160a01b0316836001600160a01b0316036111cf5760405163424a22cb60e01b815260040160405180910390fd5b336001600160a01b038216148015906111ef57506111ed81336117d7565b155b1561120d57604051632f5de44f60e01b815260040160405180910390fd5b60008281527f3c7bf052874fa81625121783266a03507bd2cd48b16e571c01a04e8dd3fb07a9602052604080822080546001600160a01b0319166001600160a01b0387811691821790925591518593918516917f8c5be1e5ebec7d5bd14f71427d1e84f3dd0314c0f7b2291e5b200ac8c7c3b92591a4505050565b600061066d600080516020613422833981519152611a53565b6112ab3382611a5d565b6112c857604051632f5de44f60e01b815260040160405180910390fd5b61077f838383611ae3565b6001600160a01b03821660009081526000805160206133e2833981519152602052604081206107909083611c60565b61077f838383604051806020016040528060008152506114dd565b600061057160008051602061342283398151915283611c6c565b600061135160008051602061342283398151915283611c84565b5092915050565b60008061137360008051602061342283398151915284611ca2565b90506001600160a01b03811661057157604051637e1a7d8b60e01b815260040160405180910390fd5b60006001600160a01b0382166113c557604051630810ff9760e41b815260040160405180910390fd5b6001600160a01b03821660009081526000805160206133e28339815191526020526040902061057190611a53565b6113fc8161131d565b6112c85761077f828261190e565b60606000805160206134628339815191526001018054610fe7906130ca565b336001600160a01b038316036114525760405163424a22cb60e01b815260040160405180910390fd5b3360008181527f3c7bf052874fa81625121783266a03507bd2cd48b16e571c01a04e8dd3fb07aa602090815260408083206001600160a01b03871680855290835292819020805460ff191686151590811790915590519081529192917f17307eab39ab6107e8899845ad3d59bd9653f200f220920489ca2b5937696c31910160405180910390a35050565b6114e73383611a5d565b61150457604051632f5de44f60e01b815260040160405180910390fd5b6107db84848484611cae565b60008051602061344283398151915280546000805160206134028339815191529160019060006115408385613094565b9091555085905061155082611ce2565b604051602001611561929190613211565b60405160208183030381529060405261158560008051602061346283398151915290565b600083815260039190910160205260409020906115a29082613152565b5060008181527fc7ed1b841b2d3c7f16d15642e7b013e89732e44006608d59c7547b8e331a7ce96020526040902083905583156107555781546107559061010090046001600160a01b03168261190e565b6000805160206134428339815191525460609060008051602061340283398151915290831061163457604051624705a760e71b815260040160405180910390fd5b60008381527f99574a7094154bb123ae6ae102096f0bf9679b85a5cd1e727aaa0ae5f132e6b460205260408120805460008051602061346283398151915292919061167e906130ca565b80601f01602080910402602001604051908101604052809291908181526020018280546116aa906130ca565b80156116f75780601f106116cc576101008083540402835291602001916116f7565b820191906000526020600020905b8154815290600101906020018083116116da57829003601f168201915b50505050509050600082600201805461170f906130ca565b80601f016020809104026020016040519081016040528092919081815260200182805461173b906130ca565b80156117885780601f1061175d57610100808354040283529160200191611788565b820191906000526020600020905b81548152906001019060200180831161176b57829003601f168201915b505050505090506000825111156117a25750949350505050565b806117ac87611ce2565b6040516020016117bd929190613211565b604051602081830303815290604052945050505050919050565b6001600160a01b0391821660009081527f3c7bf052874fa81625121783266a03507bd2cd48b16e571c01a04e8dd3fb07aa6020908152604080832093909416825291909152205460ff1690565b6001600160e01b0319808316900361184f5760405163b0a19dd560e01b815260040160405180910390fd5b6001600160e01b03199190911660009081527ffc606c433378e3a7e0a6a531deac289b66caa1b4aa8554fd4ab2c6f1570f92d860205260409020805460ff1916911515919091179055565b60008281527fd3889cc5458b268d0544e5534672df1296288ca3f93cbd39bd6f497a5c622811602052604090206118d19082611de2565b5060405133906001600160a01b0383169084907f2f8788117e7eff1d82e926ec794901d17c78024a50270940304540a733656f0d90600090a45050565b6001600160a01b038216611935576040516311f2988d60e11b815260040160405180910390fd5b61193e8161131d565b1561195c57604051630d86bb7b60e31b815260040160405180910390fd5b61196860008383611df7565b6001600160a01b03821660009081526000805160206133e283398151915260205260409020600080516020613422833981519152906119a79083611eec565b506119b3818385611ef8565b5060405182906001600160a01b038516906000907fddf252ad1be2c89b69c2b068fc378daa952ba7f163c4a11628f55a4df523b3ef908290a4505050565b6119fb8282611f0e565b61076657611a11816001600160a01b0316611f45565b611a1c836020611f57565b604051602001611a2d929190613240565b60408051601f198184030181529082905262461bcd60e51b82526105e09160040161282e565b6000610571825490565b6000611a688261131d565b611a855760405163c1b843ef60e01b815260040160405180910390fd5b6000611a9083611358565b9050806001600160a01b0316846001600160a01b03161480611acb5750836001600160a01b0316611ac08461106a565b6001600160a01b0316145b80611adb5750611adb81856117d7565b949350505050565b6000611aee82611358565b9050836001600160a01b0316816001600160a01b031614611b2257604051630f2db4ad60e01b815260040160405180910390fd5b6001600160a01b038316611b49576040516340311a0960e01b815260040160405180910390fd5b611b54848484611df7565b6001600160a01b03841660009081526000805160206133e28339815191526020526040902060008051602061342283398151915290611b9390846120a9565b506001600160a01b03841660009081526002820160205260409020611bb89084611eec565b50611bc4818486611ef8565b50600083815260038201602052604080822080546001600160a01b0319169055518491906001600160a01b038516907f8c5be1e5ebec7d5bd14f71427d1e84f3dd0314c0f7b2291e5b200ac8c7c3b925908390a482846001600160a01b0316866001600160a01b03167fddf252ad1be2c89b69c2b068fc378daa952ba7f163c4a11628f55a4df523b3ef60405160405180910390a45050505050565b600061079083836120b5565b60008181526001830160205260408120541515610790565b6000808080611c938686612101565b909450925050505b9250929050565b60006107908383612164565b611cb9848484611ae3565b611cc5848484846121c8565b6107db57604051639ff10cdd60e01b815260040160405180910390fd5b606081600003611d095750506040805180820190915260018152600360fc1b602082015290565b8160005b8115611d335780611d1d81612ef5565b9150611d2c9050600a836132cb565b9150611d0d565b6000816001600160401b03811115611d4d57611d4d612631565b6040519080825280601f01601f191660200182016040528015611d77576020820181803683370190505b5090505b8415611adb57611d8c6001836132df565b9150611d99600a866132f2565b611da4906030613094565b60f81b818381518110611db957611db9612ec9565b60200101906001600160f81b031916908160001a905350611ddb600a866132cb565b9450611d7b565b6000610790836001600160a01b038416612299565b6001600160a01b03831615611ee15760405163a7c12c1160e01b815260048101829052600090309063a7c12c1190602401602060405180830381865afa158015611e45573d6000803e3d6000fd5b505050506040513d601f19601f82011682018060405250810190611e699190613306565b90508015611edf5760405162461bcd60e51b815260206004820152603a60248201527f537465776172644c6963656e736546616365743a2043616e6e6f74207472616e60448201527f7366657220647572696e672061756374696f6e20706572696f6400000000000060648201526084016105e0565b505b61077f8383836122dc565b60006107908383612299565b6000611adb84846001600160a01b0385166122e7565b60008281527fd3889cc5458b268d0544e5534672df1296288ca3f93cbd39bd6f497a5c622811602052604081206107909083612386565b60606105716001600160a01b03831660145b60606000611f66836002613075565b611f71906002613094565b6001600160401b03811115611f8857611f88612631565b6040519080825280601f01601f191660200182016040528015611fb2576020820181803683370190505b509050600360fc1b81600081518110611fcd57611fcd612ec9565b60200101906001600160f81b031916908160001a905350600f60fb1b81600181518110611ffc57611ffc612ec9565b60200101906001600160f81b031916908160001a905350600160028402015b6001811115612089576f181899199a1a9b1b9c1cb0b131b232b360811b85600f166010811061204c5761204c612ec9565b1a60f81b82828151811061206257612062612ec9565b60200101906001600160f81b031916908160001a90535060049490941c936000190161201b565b5083156107905760405163c913478560e01b815260040160405180910390fd5b600061079083836123a8565b815460009082106120d95760405163e637bf3b60e01b815260040160405180910390fd5b8260000182815481106120ee576120ee612ec9565b9060005260206000200154905092915050565b8154600090819083106121275760405163022fd82760e31b815260040160405180910390fd5b600084600001848154811061213e5761213e612ec9565b906000526020600020906002020190508060000154816001015492509250509250929050565b600081815260018301602052604081205480820361219557604051633d547ec560e21b815260040160405180910390fd5b8360000160018203815481106121ad576121ad612ec9565b90600052602060002090600202016001015491505092915050565b60006001600160a01b0384163b6121e157506001611adb565b600061226263150b7a0260e01b338887876040516024016122059493929190613323565b604051602081830303815290604052906001600160e01b0319166020820180516001600160e01b0383818316178352505050506040518060600160405280603281526020016133b0603291396001600160a01b0388169190612462565b905060008180602001905181019061227a9190613360565b6001600160e01b031916630a85bd0160e11b1492505050949350505050565b6000818152600183016020526040812054610571575081546001808201845560008481526020808220909301849055845493815293810190915260409092205590565b61077f838383612471565b600082815260018401602052604081205480820361234e575050604080518082018252838152602080820184815286546001818101895560008981528481209551600290930290950191825591519082015586548684528188019092529290912055610790565b8285600001600183038154811061236757612367612ec9565b9060005260206000209060020201600101819055506000915050610790565b6001600160a01b03811660009081526001830160205260408120541515610790565b60008181526001830160205260408120548015611351578354600090859060001981019081106123da576123da612ec9565b906000526020600020015490508085600001600184038154811061240057612400612ec9565b60009182526020808320909101929092559182526001860190526040902081905583548490806124325761243261337d565b60008281526020808220830160001990810183905590920190925593815260019485019093525050604081205590565b6060611adb84846000856124b5565b6001600160a01b03821661077f5760008181527f99574a7094154bb123ae6ae102096f0bf9679b85a5cd1e727aaa0ae5f132e6b46020526040812061077f91612572565b6060843b6124d657604051632270d6bf60e21b815260040160405180910390fd5b600080866001600160a01b031685876040516124f29190613393565b60006040518083038185875af1925050503d806000811461252f576040519150601f19603f3d011682016040523d82523d6000602084013e612534565b606091505b50915091508115612548579150611adb9050565b8051156125585780518082602001fd5b8360405162461bcd60e51b81526004016105e0919061282e565b50805461257e906130ca565b6000825580601f1061258e575050565b601f0160209004906000526020600020908101906110d791905b808211156125bc57600081556001016125a8565b5090565b6001600160e01b0319811681146110d757600080fd5b6000602082840312156125e857600080fd5b8135610790816125c0565b6001600160a01b03811681146110d757600080fd5b8035612613816125f3565b919050565b80151581146110d757600080fd5b803561261381612618565b634e487b7160e01b600052604160045260246000fd5b604051601f8201601f191681016001600160401b038111828210171561266f5761266f612631565b604052919050565b60006001600160401b0383111561269057612690612631565b6126a3601f8401601f1916602001612647565b90508281528383830111156126b757600080fd5b828260208301376000602084830101529392505050565b600082601f8301126126df57600080fd5b61079083833560208501612677565b6000806000806000806000806000806101408b8d03121561270e57600080fd5b6127178b612608565b995060208b0135985061272c60408c01612608565b975061273a60608c01612608565b965061274860808c01612608565b955060a08b0135945061275d60c08c01612626565b935060e08b01356001600160401b038082111561277957600080fd5b6127858e838f016126ce565b94506101008d013591508082111561279c57600080fd5b6127a88e838f016126ce565b93506101208d01359150808211156127bf57600080fd5b506127cc8d828e016126ce565b9150509295989b9194979a5092959850565b60005b838110156127f95781810151838201526020016127e1565b50506000910152565b6000815180845261281a8160208601602086016127de565b601f01601f19169290920160200192915050565b6020815260006107906020830184612802565b60006020828403121561285357600080fd5b5035919050565b60006001600160401b0382111561287357612873612631565b5060051b60200190565b600082601f83011261288e57600080fd5b813560206128a361289e8361285a565b612647565b82815260059290921b840181019181810190868411156128c257600080fd5b8286015b848110156129015780356001600160401b038111156128e55760008081fd5b6128f38986838b01016126ce565b8452509183019183016128c6565b509695505050505050565b600082601f83011261291d57600080fd5b8135602061292d61289e8361285a565b82815260059290921b8401810191818101908684111561294c57600080fd5b8286015b848110156129015780358352918301918301612950565b60008060006060848603121561297c57600080fd5b83356001600160401b038082111561299357600080fd5b61299f8783880161287d565b945060208601359150808211156129b557600080fd5b506129c28682870161290c565b92505060408401356129d381612618565b809150509250925092565b600080604083850312156129f157600080fd5b82356129fc816125f3565b946020939093013593505050565b600080600060608486031215612a1f57600080fd5b8335612a2a816125f3565b92506020840135612a3a816125f3565b929592945050506040919091013590565b600080600060608486031215612a6057600080fd5b8335612a6b816125f3565b925060208401356001600160401b03811115612a8657600080fd5b612a92868287016126ce565b925050604084013590509250925092565b600060208284031215612ab557600080fd5b8135610790816125f3565b60008060408385031215612ad357600080fd5b8235612ade816125f3565b91506020830135612aee81612618565b809150509250929050565b600080600060608486031215612b0e57600080fd5b83356001600160401b0380821115612b2557600080fd5b818601915086601f830112612b3957600080fd5b81356020612b4961289e8361285a565b82815260059290921b8401810191818101908a841115612b6857600080fd5b948201945b83861015612b8f578535612b80816125f3565b82529482019490820190612b6d565b97505087013592505080821115612ba557600080fd5b612bb18783880161287d565b93506040860135915080821115612bc757600080fd5b50612bd48682870161290c565b9150509250925092565b60008060008060808587031215612bf457600080fd5b8435612bff816125f3565b93506020850135612c0f816125f3565b92506040850135915060608501356001600160401b03811115612c3157600080fd5b8501601f81018713612c4257600080fd5b612c5187823560208401612677565b91505092959194509250565b60008083601f840112612c6f57600080fd5b5081356001600160401b03811115612c8657600080fd5b6020830191508360208260051b8501011115611c9b57600080fd5b60008083601f840112612cb357600080fd5b5081356001600160401b03811115612cca57600080fd5b602083019150836020828501011115611c9b57600080fd5b60008060008060008060008060a0898b031215612cfe57600080fd5b8835612d09816125f3565b97506020890135612d19816125f3565b965060408901356001600160401b0380821115612d3557600080fd5b612d418c838d01612c5d565b909850965060608b0135915080821115612d5a57600080fd5b612d668c838d01612c5d565b909650945060808b0135915080821115612d7f57600080fd5b50612d8c8b828c01612ca1565b999c989b5096995094979396929594505050565b600080600080600060a08688031215612db857600080fd5b853563ffffffff81168114612dcc57600080fd5b9450602086013593506040860135925060608601356001600160401b03811115612df557600080fd5b612e01888289016126ce565b9250506080860135612e1281612618565b809150509295509295909350565b60008060408385031215612e3357600080fd5b8235612e3e816125f3565b91506020830135612aee816125f3565b60008060008060008060a08789031215612e6757600080fd5b8635612e72816125f3565b95506020870135612e82816125f3565b9450604087013593506060870135925060808701356001600160401b03811115612eab57600080fd5b612eb789828a01612ca1565b979a9699509497509295939492505050565b634e487b7160e01b600052603260045260246000fd5b634e487b7160e01b600052601160045260246000fd5b600060018201612f0757612f07612edf565b5060010190565b600060208284031215612f2057600080fd5b8151610790816125f3565b600060208284031215612f3d57600080fd5b5051919050565b6020808252603d9082015260008051602061348283398151915260408201527f743a2063616e206f6e6c792072656365697665206f6e6520746f6b656e000000606082015260800190565b60208082526036908201526000805160206134828339815191526040820152751d0e881b5d5cdd081899481a5b9a5d1a585b1a5e995960521b606082015260800190565b602080825260439082015260008051602061348283398151915260408201527f743a2063616e6e6f7420616363657074207468697320746f6b656e206164647260608201526265737360e81b608082015260a00190565b6020808252603e9082015260008051602061348283398151915260408201527f743a2063616e6e6f7420616363657074207468697320746f6b656e2049440000606082015260800190565b600081600019048311821515161561308f5761308f612edf565b500290565b8082018082111561057157610571612edf565b600063ffffffff8083168181036130c0576130c0612edf565b6001019392505050565b600181811c908216806130de57607f821691505b6020821081036130fe57634e487b7160e01b600052602260045260246000fd5b50919050565b601f82111561077f57600081815260208120601f850160051c8101602086101561312b5750805b601f850160051c820191505b8181101561314a57828155600101613137565b505050505050565b81516001600160401b0381111561316b5761316b612631565b61317f8161317984546130ca565b84613104565b602080601f8311600181146131b4576000841561319c5750858301515b600019600386901b1c1916600185901b17855561314a565b600085815260208120601f198616915b828110156131e3578886015182559484019460019091019084016131c4565b50858210156132015787850151600019600388901b60f8161c191681555b5050505050600190811b01905550565b600083516132238184602088016127de565b8351908301906132378183602088016127de565b01949350505050565b7f416363657373436f6e74726f6c3a206163636f756e74200000000000000000008152600083516132788160178501602088016127de565b7001034b99036b4b9b9b4b733903937b6329607d1b60179184019182015283516132a98160288401602088016127de565b01602801949350505050565b634e487b7160e01b600052601260045260246000fd5b6000826132da576132da6132b5565b500490565b8181038181111561057157610571612edf565b600082613301576133016132b5565b500690565b60006020828403121561331857600080fd5b815161079081612618565b6001600160a01b038581168252841660208201526040810183905260806060820181905260009061335690830184612802565b9695505050505050565b60006020828403121561337257600080fd5b8151610790816125c0565b634e487b7160e01b600052603160045260246000fd5b600082516133a58184602087016127de565b919091019291505056fe4552433732313a207472616e7366657220746f206e6f6e20455243373231526563656976657220696d706c656d656e7465723c7bf052874fa81625121783266a03507bd2cd48b16e571c01a04e8dd3fb07a879ec1734da2430052e9d78936f451aad707e5bed12ef4806b06dc3d0c38f0e303c7bf052874fa81625121783266a03507bd2cd48b16e571c01a04e8dd3fb07a679ec1734da2430052e9d78936f451aad707e5bed12ef4806b06dc3d0c38f0e3299574a7094154bb123ae6ae102096f0bf9679b85a5cd1e727aaa0ae5f132e6b15772617070656445524331313535537465776172644c6963656e7365466163657b62b800d8c954aa32a34a9249066e0f8761d6c1614c95cbc05c04ab0583a14ca2646970667358221220aaf6d89a51a4f4d1e070b35b1d848a432f53fbae0ce435c0e3b8d9efb513c81464736f6c63430008100033",
  "devdoc": {
    "details": "ERC-721 token license for Steward that wraps existing ERC-1155. Transfers are disabled during an auction.",
    "kind": "dev",
    "methods": {
      "approve(address,uint256)": {
        "params": {
          "operator": "address to be approved",
          "tokenId": "token to approve"
        }
      },
      "balanceOf(address)": {
        "returns": {
          "_0": "quantity of tokens held"
        }
      },
      "getApproved(uint256)": {
        "params": {
          "tokenId": "token to query"
        },
        "returns": {
          "_0": "address approved to spend token"
        }
      },
      "isApprovedForAll(address,address)": {
        "params": {
          "account": "address to query for approval granted",
          "operator": "address to query for approval received"
        },
        "returns": {
          "_0": "whether operator is approved to spend tokens held by account"
        }
      },
      "ownerOf(uint256)": {
        "params": {
          "tokenId": "token to query"
        },
        "returns": {
          "_0": "token owner"
        }
      },
      "safeTransferFrom(address,address,uint256)": {
        "params": {
          "from": "sender of token",
          "to": "receiver of token",
          "tokenId": "token id"
        }
      },
      "safeTransferFrom(address,address,uint256,bytes)": {
        "params": {
          "data": "data payload",
          "from": "sender of token",
          "to": "receiver of token",
          "tokenId": "token id"
        }
      },
      "setApprovalForAll(address,bool)": {
        "params": {
          "operator": "address to be approved",
          "status": "approval status"
        }
      },
      "supportsInterface(bytes4)": {
        "params": {
          "interfaceId": "interface id"
        },
        "returns": {
          "_0": "bool whether interface is supported"
        }
      },
      "tokenByIndex(uint256)": {
        "params": {
          "index": "position in global token list to query"
        },
        "returns": {
          "_0": "id of retrieved token"
        }
      },
      "tokenOfOwnerByIndex(address,uint256)": {
        "params": {
          "index": "position in owner's token list to query",
          "owner": "token holder to query"
        },
        "returns": {
          "_0": "id of retrieved token"
        }
      },
      "totalSupply()": {
        "returns": {
          "_0": "total supply"
        }
      },
      "transferFrom(address,address,uint256)": {
        "params": {
          "from": "sender of token",
          "to": "receiver of token",
          "tokenId": "token id"
        }
      }
    },
    "title": "WrappedERC1155StewardLicenseFacet",
    "version": 1
  },
  "userdoc": {
    "kind": "user",
    "methods": {
      "addTokenToCollection(address,string,uint256)": {
        "notice": "Add token to collection"
      },
      "addTokensToCollection(address[],string[],uint256[])": {
        "notice": "Add tokens to collection with to"
      },
      "addTokensToCollection(string[],uint256[],bool)": {
        "notice": "Add tokens to collection"
      },
      "addTokensWithBaseURIToCollection(uint32,uint256,uint256,string,bool)": {
        "notice": "Add tokens to collection with baseURI"
      },
      "approve(address,uint256)": {
        "notice": "grant approval to given account to spend token"
      },
      "balanceOf(address)": {
        "notice": "query the balance of given address"
      },
      "exists(uint256)": {
        "notice": "Check if token exists"
      },
      "getApproved(uint256)": {
        "notice": "get approval status for given token"
      },
      "initializeWrappedStewardLicense(address,uint256,address,address,address,uint256,bool,string,string,string)": {
        "notice": "Initialize license"
      },
      "isApprovedForAll(address,address)": {
        "notice": "query approval status of given operator with respect to given address"
      },
      "maxTokenCount()": {
        "notice": "Get max token count"
      },
      "mintToken(address,uint256)": {
        "notice": "Initial bidder can mint token if it doesn't exist"
      },
      "minter()": {
        "notice": "Get minter"
      },
      "name()": {
        "notice": "inheritdoc IERC721Metadata"
      },
      "ownerOf(uint256)": {
        "notice": "query the owner of given token"
      },
      "safeTransferFrom(address,address,uint256)": {
        "notice": "transfer token between given addresses, checking for ERC721Receiver implementation if applicable"
      },
      "safeTransferFrom(address,address,uint256,bytes)": {
        "notice": "transfer token between given addresses, checking for ERC721Receiver implementation if applicable"
      },
      "setApprovalForAll(address,bool)": {
        "notice": "grant approval to or revoke approval from given account to spend all tokens held by sender"
      },
      "supportsInterface(bytes4)": {
        "notice": "query whether contract has registered support for given interface"
      },
      "symbol()": {
        "notice": "inheritdoc IERC721Metadata"
      },
      "tokenByIndex(uint256)": {
        "notice": "get token at given internal storage index"
      },
      "tokenOfOwnerByIndex(address,uint256)": {
        "notice": "get token of given owner at given internal storage index"
      },
      "tokenURI(uint256)": {
        "notice": "inheritdoc IERC721Metadata"
      },
      "totalSupply()": {
        "notice": "get total token supply"
      },
      "transferFrom(address,address,uint256)": {
        "notice": "transfer token between given addresses, without checking for ERC721Receiver implementation if applicable"
      },
      "triggerTransfer(address,address,uint256)": {
        "notice": "Trigger transfer of license"
      }
    },
    "version": 1
  },
  "storageLayout": {
    "storage": [],
    "types": null
  }
}