{
  "address": "0xD865a309A3B3f646C21426DF127EBa272410D8b9",
  "abi": [
    {
      "inputs": [],
      "name": "AddressUtils__NotContract",
      "type": "error"
    },
    {
      "inputs": [],
      "name": "ERC165Base__InvalidInterfaceId",
      "type": "error"
    },
    {
      "inputs": [],
      "name": "ERC721Base__BalanceQueryZeroAddress",
      "type": "error"
    },
    {
      "inputs": [],
      "name": "ERC721Base__ERC721ReceiverNotImplemented",
      "type": "error"
    },
    {
      "inputs": [],
      "name": "ERC721Base__InvalidOwner",
      "type": "error"
    },
    {
      "inputs": [],
      "name": "ERC721Base__MintToZeroAddress",
      "type": "error"
    },
    {
      "inputs": [],
      "name": "ERC721Base__NonExistentToken",
      "type": "error"
    },
    {
      "inputs": [],
      "name": "ERC721Base__NotOwnerOrApproved",
      "type": "error"
    },
    {
      "inputs": [],
      "name": "ERC721Base__NotTokenOwner",
      "type": "error"
    },
    {
      "inputs": [],
      "name": "ERC721Base__SelfApproval",
      "type": "error"
    },
    {
      "inputs": [],
      "name": "ERC721Base__TokenAlreadyMinted",
      "type": "error"
    },
    {
      "inputs": [],
      "name": "ERC721Base__TransferToZeroAddress",
      "type": "error"
    },
    {
      "inputs": [],
      "name": "ERC721Metadata__NonExistentToken",
      "type": "error"
    },
    {
      "inputs": [],
      "name": "EnumerableMap__IndexOutOfBounds",
      "type": "error"
    },
    {
      "inputs": [],
      "name": "EnumerableMap__NonExistentKey",
      "type": "error"
    },
    {
      "inputs": [],
      "name": "EnumerableSet__IndexOutOfBounds",
      "type": "error"
    },
    {
      "anonymous": false,
      "inputs": [
        {
          "indexed": true,
          "internalType": "address",
          "name": "owner",
          "type": "address"
        },
        {
          "indexed": true,
          "internalType": "address",
          "name": "operator",
          "type": "address"
        },
        {
          "indexed": true,
          "internalType": "uint256",
          "name": "tokenId",
          "type": "uint256"
        }
      ],
      "name": "Approval",
      "type": "event"
    },
    {
      "anonymous": false,
      "inputs": [
        {
          "indexed": true,
          "internalType": "address",
          "name": "owner",
          "type": "address"
        },
        {
          "indexed": true,
          "internalType": "address",
          "name": "operator",
          "type": "address"
        },
        {
          "indexed": false,
          "internalType": "bool",
          "name": "approved",
          "type": "bool"
        }
      ],
      "name": "ApprovalForAll",
      "type": "event"
    },
    {
      "anonymous": false,
      "inputs": [
        {
          "indexed": true,
          "internalType": "address",
          "name": "from",
          "type": "address"
        },
        {
          "indexed": true,
          "internalType": "address",
          "name": "to",
          "type": "address"
        },
        {
          "indexed": true,
          "internalType": "uint256",
          "name": "tokenId",
          "type": "uint256"
        }
      ],
      "name": "Transfer",
      "type": "event"
    },
    {
      "inputs": [
        {
          "internalType": "address",
          "name": "operator",
          "type": "address"
        },
        {
          "internalType": "uint256",
          "name": "tokenId",
          "type": "uint256"
        }
      ],
      "name": "approve",
      "outputs": [],
      "stateMutability": "payable",
      "type": "function"
    },
    {
      "inputs": [
        {
          "internalType": "address",
          "name": "account",
          "type": "address"
        }
      ],
      "name": "balanceOf",
      "outputs": [
        {
          "internalType": "uint256",
          "name": "",
          "type": "uint256"
        }
      ],
      "stateMutability": "view",
      "type": "function"
    },
    {
      "inputs": [
        {
          "internalType": "uint256",
          "name": "tokenId",
          "type": "uint256"
        }
      ],
      "name": "getApproved",
      "outputs": [
        {
          "internalType": "address",
          "name": "",
          "type": "address"
        }
      ],
      "stateMutability": "view",
      "type": "function"
    },
    {
      "inputs": [
        {
          "internalType": "address",
          "name": "tokenAddress",
          "type": "address"
        },
        {
          "internalType": "uint256",
          "name": "tokenId",
          "type": "uint256"
        },
        {
          "internalType": "address",
          "name": "_steward",
          "type": "address"
        },
        {
          "internalType": "string",
          "name": "name",
          "type": "string"
        },
        {
          "internalType": "string",
          "name": "symbol",
          "type": "string"
        },
        {
          "internalType": "string",
          "name": "tokenURI",
          "type": "string"
        }
      ],
      "name": "initializeWrappedStewardLicense",
      "outputs": [],
      "stateMutability": "nonpayable",
      "type": "function"
    },
    {
      "inputs": [
        {
          "internalType": "address",
          "name": "account",
          "type": "address"
        },
        {
          "internalType": "address",
          "name": "operator",
          "type": "address"
        }
      ],
      "name": "isApprovedForAll",
      "outputs": [
        {
          "internalType": "bool",
          "name": "",
          "type": "bool"
        }
      ],
      "stateMutability": "view",
      "type": "function"
    },
    {
      "inputs": [],
      "name": "name",
      "outputs": [
        {
          "internalType": "string",
          "name": "",
          "type": "string"
        }
      ],
      "stateMutability": "view",
      "type": "function"
    },
    {
      "inputs": [
        {
          "internalType": "address",
          "name": "",
          "type": "address"
        },
        {
          "internalType": "address",
          "name": "",
          "type": "address"
        },
        {
          "internalType": "uint256[]",
          "name": "ids",
          "type": "uint256[]"
        },
        {
          "internalType": "uint256[]",
          "name": "values",
          "type": "uint256[]"
        },
        {
          "internalType": "bytes",
          "name": "",
          "type": "bytes"
        }
      ],
      "name": "onERC1155BatchReceived",
      "outputs": [
        {
          "internalType": "bytes4",
          "name": "",
          "type": "bytes4"
        }
      ],
      "stateMutability": "view",
      "type": "function"
    },
    {
      "inputs": [
        {
          "internalType": "address",
          "name": "",
          "type": "address"
        },
        {
          "internalType": "address",
          "name": "",
          "type": "address"
        },
        {
          "internalType": "uint256",
          "name": "id",
          "type": "uint256"
        },
        {
          "internalType": "uint256",
          "name": "value",
          "type": "uint256"
        },
        {
          "internalType": "bytes",
          "name": "",
          "type": "bytes"
        }
      ],
      "name": "onERC1155Received",
      "outputs": [
        {
          "internalType": "bytes4",
          "name": "",
          "type": "bytes4"
        }
      ],
      "stateMutability": "view",
      "type": "function"
    },
    {
      "inputs": [
        {
          "internalType": "uint256",
          "name": "tokenId",
          "type": "uint256"
        }
      ],
      "name": "ownerOf",
      "outputs": [
        {
          "internalType": "address",
          "name": "",
          "type": "address"
        }
      ],
      "stateMutability": "view",
      "type": "function"
    },
    {
      "inputs": [
        {
          "internalType": "address",
          "name": "from",
          "type": "address"
        },
        {
          "internalType": "address",
          "name": "to",
          "type": "address"
        },
        {
          "internalType": "uint256",
          "name": "tokenId",
          "type": "uint256"
        }
      ],
      "name": "safeTransferFrom",
      "outputs": [],
      "stateMutability": "payable",
      "type": "function"
    },
    {
      "inputs": [
        {
          "internalType": "address",
          "name": "from",
          "type": "address"
        },
        {
          "internalType": "address",
          "name": "to",
          "type": "address"
        },
        {
          "internalType": "uint256",
          "name": "tokenId",
          "type": "uint256"
        },
        {
          "internalType": "bytes",
          "name": "data",
          "type": "bytes"
        }
      ],
      "name": "safeTransferFrom",
      "outputs": [],
      "stateMutability": "payable",
      "type": "function"
    },
    {
      "inputs": [
        {
          "internalType": "address",
          "name": "operator",
          "type": "address"
        },
        {
          "internalType": "bool",
          "name": "status",
          "type": "bool"
        }
      ],
      "name": "setApprovalForAll",
      "outputs": [],
      "stateMutability": "nonpayable",
      "type": "function"
    },
    {
      "inputs": [
        {
          "internalType": "bytes4",
          "name": "interfaceId",
          "type": "bytes4"
        }
      ],
      "name": "supportsInterface",
      "outputs": [
        {
          "internalType": "bool",
          "name": "",
          "type": "bool"
        }
      ],
      "stateMutability": "view",
      "type": "function"
    },
    {
      "inputs": [],
      "name": "symbol",
      "outputs": [
        {
          "internalType": "string",
          "name": "",
          "type": "string"
        }
      ],
      "stateMutability": "view",
      "type": "function"
    },
    {
      "inputs": [
        {
          "internalType": "uint256",
          "name": "index",
          "type": "uint256"
        }
      ],
      "name": "tokenByIndex",
      "outputs": [
        {
          "internalType": "uint256",
          "name": "",
          "type": "uint256"
        }
      ],
      "stateMutability": "view",
      "type": "function"
    },
    {
      "inputs": [
        {
          "internalType": "address",
          "name": "owner",
          "type": "address"
        },
        {
          "internalType": "uint256",
          "name": "index",
          "type": "uint256"
        }
      ],
      "name": "tokenOfOwnerByIndex",
      "outputs": [
        {
          "internalType": "uint256",
          "name": "",
          "type": "uint256"
        }
      ],
      "stateMutability": "view",
      "type": "function"
    },
    {
      "inputs": [
        {
          "internalType": "uint256",
          "name": "tokenId",
          "type": "uint256"
        }
      ],
      "name": "tokenURI",
      "outputs": [
        {
          "internalType": "string",
          "name": "",
          "type": "string"
        }
      ],
      "stateMutability": "view",
      "type": "function"
    },
    {
      "inputs": [],
      "name": "totalSupply",
      "outputs": [
        {
          "internalType": "uint256",
          "name": "",
          "type": "uint256"
        }
      ],
      "stateMutability": "view",
      "type": "function"
    },
    {
      "inputs": [
        {
          "internalType": "address",
          "name": "from",
          "type": "address"
        },
        {
          "internalType": "address",
          "name": "to",
          "type": "address"
        },
        {
          "internalType": "uint256",
          "name": "tokenId",
          "type": "uint256"
        }
      ],
      "name": "transferFrom",
      "outputs": [],
      "stateMutability": "payable",
      "type": "function"
    },
    {
      "inputs": [
        {
          "internalType": "address",
          "name": "from",
          "type": "address"
        },
        {
          "internalType": "address",
          "name": "to",
          "type": "address"
        },
        {
          "internalType": "uint256",
          "name": "tokenId",
          "type": "uint256"
        }
      ],
      "name": "triggerTransfer",
      "outputs": [],
      "stateMutability": "nonpayable",
      "type": "function"
    }
  ],
  "transactionHash": "0xf96bd8b5257029b5027b29e0df707ad3abd7d027e9089137c72e1b9834ef5ae0",
  "args": [],
  "numDeployments": 1,
  "solcInputHash": "02d2f8229a72693ac4948d5d0530585f",
  "bytecode": "0x608060405234801561001057600080fd5b5061245c806100206000396000f3fe60806040526004361061011f5760003560e01c80636352211e116100a0578063bc197c8111610064578063bc197c81146102f9578063c87b56dd14610332578063e31a7c0114610352578063e985e9c514610372578063f23a6e611461039257600080fd5b80636352211e1461027157806370a082311461029157806395d89b41146102b1578063a22cb465146102c6578063b88d4fde146102e657600080fd5b806323b872dd116100e757806323b872dd146101eb5780632f745c59146101fe57806342842e0e1461021e57806348b5537b146102315780634f6ccce71461025157600080fd5b806301ffc9a71461012457806306fdde0314610159578063081812fc1461017b578063095ea7b3146101b357806318160ddd146101c8575b600080fd5b34801561013057600080fd5b5061014461013f366004611a20565b6103b2565b60405190151581526020015b60405180910390f35b34801561016557600080fd5b5061016e6103f5565b6040516101509190611a8d565b34801561018757600080fd5b5061019b610196366004611aa0565b610404565b6040516001600160a01b039091168152602001610150565b6101c66101c1366004611ad5565b61040f565b005b3480156101d457600080fd5b506101dd61049b565b604051908152602001610150565b6101c66101f9366004611aff565b6104a5565b34801561020a57600080fd5b506101dd610219366004611ad5565b6104d7565b6101c661022c366004611aff565b6104ea565b34801561023d57600080fd5b506101c661024c366004611be7565b610505565b34801561025d57600080fd5b506101dd61026c366004611aa0565b6105e9565b34801561027d57600080fd5b5061019b61028c366004611aa0565b6105f4565b34801561029d57600080fd5b506101dd6102ac366004611c99565b6105ff565b3480156102bd57600080fd5b5061016e61060a565b3480156102d257600080fd5b506101c66102e1366004611cc2565b610614565b6101c66102f4366004611cf9565b6106c8565b34801561030557600080fd5b50610319610314366004611dfc565b610701565b6040516001600160e01b03199091168152602001610150565b34801561033e57600080fd5b5061016e61034d366004611aa0565b61083f565b34801561035e57600080fd5b506101c661036d366004611aff565b61084a565b34801561037e57600080fd5b5061014461038d366004611eb7565b6108d4565b34801561039e57600080fd5b506103196103ad366004611eea565b6108e0565b6001600160e01b0319811660009081527ffc606c433378e3a7e0a6a531deac289b66caa1b4aa8554fd4ab2c6f1570f92d8602052604081205460ff165b92915050565b60606103ff6109d2565b905090565b60006103ef82610a71565b600061041a826105f4565b9050806001600160a01b0316836001600160a01b03160361044e5760405163424a22cb60e01b815260040160405180910390fd5b336001600160a01b0382161480159061046e575061046c81336108d4565b155b1561048c57604051632f5de44f60e01b815260040160405180910390fd5b6104968383610ad4565b505050565b60006103ff610b61565b6104af3382610b7a565b6104cc57604051632f5de44f60e01b815260040160405180910390fd5b610496838383610c00565b60006104e38383610d2f565b9392505050565b610496838383604051806020016040528060008152506106c8565b6000805160206123a78339815191525460ff16156105775760405162461bcd60e51b815260206004820152603660248201526000805160206124078339815191526044820152751d0e88185b1c9958591e481a5b9a5d1a585b1a5e995960521b60648201526084015b60405180910390fd5b7f4f3bc7155d2db681e29af52d1119e27d8b92f937da5bb676ae6155a2e77a3c6d80546001600160a01b0319166001600160a01b0388161790557f4f3bc7155d2db681e29af52d1119e27d8b92f937da5bb676ae6155a2e77a3c6e8590556105e184848484610d5e565b505050505050565b60006103ef82610dec565b60006103ef82610e0d565b60006103ef82610e51565b60606103ff610ea8565b336001600160a01b0383160361063d5760405163424a22cb60e01b815260040160405180910390fd5b3360008181527f3c7bf052874fa81625121783266a03507bd2cd48b16e571c01a04e8dd3fb07aa602090815260408083206001600160a01b03871680855290835292819020805460ff191686151590811790915590519081529192917f17307eab39ab6107e8899845ad3d59bd9653f200f220920489ca2b5937696c31910160405180910390a35050565b6106d23383610b7a565b6106ef57604051632f5de44f60e01b815260040160405180910390fd5b6106fb84848484610ec7565b50505050565b60006001861480156107135750600184145b801561073857508484600081811061072d5761072d611f62565b905060200201356001145b6107545760405162461bcd60e51b815260040161056e90611f78565b6000805160206123a78339815191525460ff1615156001146107885760405162461bcd60e51b815260040161056e90611fc3565b7f4f3bc7155d2db681e29af52d1119e27d8b92f937da5bb676ae6155a2e77a3c6d546001600160a01b031633146107d15760405162461bcd60e51b815260040161056e90612007565b7f4f3bc7155d2db681e29af52d1119e27d8b92f937da5bb676ae6155a2e77a3c6e548787600081811061080657610806611f62565b905060200201351461082a5760405162461bcd60e51b815260040161056e9061205e565b5063bc197c8160e01b98975050505050505050565b60606103ef82610efb565b3330146104cc5760405162461bcd60e51b815260206004820152604c60248201527f4e6174697665537465776172644c6963656e73653a205472696767657220747260448201527f616e736665722063616e206f6e6c792062652063616c6c65642066726f6d206160648201526b1b9bdd1a195c88199858d95d60a21b608482015260a40161056e565b60006104e383836110dc565b6000836001146109025760405162461bcd60e51b815260040161056e90611f78565b6000805160206123a78339815191525460ff1615156001146109365760405162461bcd60e51b815260040161056e90611fc3565b7f4f3bc7155d2db681e29af52d1119e27d8b92f937da5bb676ae6155a2e77a3c6d546001600160a01b0316331461097f5760405162461bcd60e51b815260040161056e90612007565b7f4f3bc7155d2db681e29af52d1119e27d8b92f937da5bb676ae6155a2e77a3c6e5485146109bf5760405162461bcd60e51b815260040161056e9061205e565b5063f23a6e6160e01b9695505050505050565b60606000805160206123e783398151915280546109ee906120a9565b80601f0160208091040260200160405190810160405280929190818152602001828054610a1a906120a9565b8015610a675780601f10610a3c57610100808354040283529160200191610a67565b820191906000526020600020905b815481529060010190602001808311610a4a57829003601f168201915b5050505050905090565b6000610a7c82611129565b610a995760405163c1b843ef60e01b815260040160405180910390fd5b5060009081527f3c7bf052874fa81625121783266a03507bd2cd48b16e571c01a04e8dd3fb07a960205260409020546001600160a01b031690565b60008181527f3c7bf052874fa81625121783266a03507bd2cd48b16e571c01a04e8dd3fb07a96020526040902080546001600160a01b0319166001600160a01b0384169081179091558190610b2882610e0d565b6001600160a01b03167f8c5be1e5ebec7d5bd14f71427d1e84f3dd0314c0f7b2291e5b200ac8c7c3b92560405160405180910390a45050565b60006103ff6000805160206123c7833981519152611143565b6000610b8582611129565b610ba25760405163c1b843ef60e01b815260040160405180910390fd5b6000610bad83610e0d565b9050806001600160a01b0316846001600160a01b03161480610be85750836001600160a01b0316610bdd84610a71565b6001600160a01b0316145b80610bf85750610bf881856110dc565b949350505050565b826001600160a01b0316610c1382610e0d565b6001600160a01b031614610c3a57604051630f2db4ad60e01b815260040160405180910390fd5b6001600160a01b038216610c61576040516340311a0960e01b815260040160405180910390fd5b610c6c83838361114d565b610c77600082610ad4565b6001600160a01b0383166000908152600080516020612387833981519152602052604090206000805160206123c783398151915290610cb69083611243565b506001600160a01b03831660009081526002820160205260409020610cdb908361124f565b50610ce781838561125b565b5081836001600160a01b0316856001600160a01b03167fddf252ad1be2c89b69c2b068fc378daa952ba7f163c4a11628f55a4df523b3ef60405160405180910390a450505050565b6001600160a01b0382166000908152600080516020612387833981519152602052604081206104e39083611271565b6000805160206123a7833981519152805460ff191660011781556000805160206123e783398151915280610d928682612129565b5060018101610da18582612129565b5060008080526003820160205260409020610dbc8482612129565b50610dcf6301ffc9a760e01b600161127d565b610de16380ac58cd60e01b600161127d565b6105e18660006112f3565b6000610e066000805160206123c7833981519152836113d6565b5092915050565b600080610e286000805160206123c7833981519152846113f4565b90506001600160a01b0381166103ef57604051637e1a7d8b60e01b815260040160405180910390fd5b60006001600160a01b038216610e7a57604051630810ff9760e41b815260040160405180910390fd5b6001600160a01b0382166000908152600080516020612387833981519152602052604090206103ef90611143565b60606000805160206123e783398151915260010180546109ee906120a9565b610ed2848484610c00565b610ede84848484611400565b6106fb57604051639ff10cdd60e01b815260040160405180910390fd5b6060610f0682611129565b610f2257604051624705a760e71b815260040160405180910390fd5b60008281527f99574a7094154bb123ae6ae102096f0bf9679b85a5cd1e727aaa0ae5f132e6b46020526040812080546000805160206123e7833981519152929190610f6c906120a9565b80601f0160208091040260200160405190810160405280929190818152602001828054610f98906120a9565b8015610fe55780601f10610fba57610100808354040283529160200191610fe5565b820191906000526020600020905b815481529060010190602001808311610fc857829003601f168201915b505050505090506000826002018054610ffd906120a9565b80601f0160208091040260200160405190810160405280929190818152602001828054611029906120a9565b80156110765780601f1061104b57610100808354040283529160200191611076565b820191906000526020600020905b81548152906001019060200180831161105957829003601f168201915b50505050509050805160000361108e57509392505050565b8151156110c15780826040516020016110a89291906121e9565b6040516020818303038152906040529350505050919050565b806110cb866114d1565b6040516020016110a89291906121e9565b6001600160a01b0391821660009081527f3c7bf052874fa81625121783266a03507bd2cd48b16e571c01a04e8dd3fb07aa6020908152604080832093909416825291909152205460ff1690565b60006103ef6000805160206123c7833981519152836115d2565b60006103ef825490565b6001600160a01b03831615611238576000306001600160a01b031663ec214d336040518163ffffffff1660e01b8152600401602060405180830381865afa15801561119c573d6000803e3d6000fd5b505050506040513d601f19601f820116820180604052508101906111c09190612218565b905080156112365760405162461bcd60e51b815260206004820152603a60248201527f537465776172644c6963656e736546616365743a2043616e6e6f74207472616e60448201527f7366657220647572696e672061756374696f6e20706572696f64000000000000606482015260840161056e565b505b6104968383836115ea565b60006104e383836115f5565b60006104e383836116af565b6000610bf884846001600160a01b0385166116f2565b60006104e38383611791565b6001600160e01b031980831690036112a85760405163b0a19dd560e01b815260040160405180910390fd5b6001600160e01b03199190911660009081527ffc606c433378e3a7e0a6a531deac289b66caa1b4aa8554fd4ab2c6f1570f92d860205260409020805460ff1916911515919091179055565b6001600160a01b03821661131a576040516311f2988d60e11b815260040160405180910390fd5b61132381611129565b1561134157604051630d86bb7b60e31b815260040160405180910390fd5b61134d6000838361114d565b6001600160a01b0382166000908152600080516020612387833981519152602052604090206000805160206123c78339815191529061138c908361124f565b5061139881838561125b565b5060405182906001600160a01b038516906000907fddf252ad1be2c89b69c2b068fc378daa952ba7f163c4a11628f55a4df523b3ef908290a4505050565b60008080806113e586866117dd565b909450925050505b9250929050565b60006104e38383611840565b60006001600160a01b0384163b61141957506001610bf8565b600061149a63150b7a0260e01b3388878760405160240161143d9493929190612235565b604051602081830303815290604052906001600160e01b0319166020820180516001600160e01b038381831617835250505050604051806060016040528060328152602001612355603291396001600160a01b03881691906118a4565b90506000818060200190518101906114b29190612272565b6001600160e01b031916630a85bd0160e11b1492505050949350505050565b6060816000036114f85750506040805180820190915260018152600360fc1b602082015290565b8160005b8115611522578061150c816122a5565b915061151b9050600a836122d4565b91506114fc565b60008167ffffffffffffffff81111561153d5761153d611b3b565b6040519080825280601f01601f191660200182016040528015611567576020820181803683370190505b5090505b8415610bf85761157c6001836122e8565b9150611589600a866122fb565b61159490603061230f565b60f81b8183815181106115a9576115a9611f62565b60200101906001600160f81b031916908160001a9053506115cb600a866122d4565b945061156b565b600081815260018301602052604081205415156104e3565b6104968383836118b3565b60008181526001830160205260408120548015610e065783546000908590600019810190811061162757611627611f62565b906000526020600020015490508085600001600184038154811061164d5761164d611f62565b600091825260208083209091019290925591825260018601905260409020819055835484908061167f5761167f612322565b60008281526020808220830160001990810183905590920190925593815260019485019093525050604081205590565b60008181526001830160205260408120546103ef575081546001808201845560008481526020808220909301849055845493815293810190915260409092205590565b60008281526001840160205260408120548082036117595750506040805180820182528381526020808201848152865460018181018955600089815284812095516002909302909501918255915190820155865486845281880190925292909120556104e3565b8285600001600183038154811061177257611772611f62565b90600052602060002090600202016001018190555060009150506104e3565b815460009082106117b55760405163e637bf3b60e01b815260040160405180910390fd5b8260000182815481106117ca576117ca611f62565b9060005260206000200154905092915050565b8154600090819083106118035760405163022fd82760e31b815260040160405180910390fd5b600084600001848154811061181a5761181a611f62565b906000526020600020906002020190508060000154816001015492509250509250929050565b600081815260018301602052604081205480820361187157604051633d547ec560e21b815260040160405180910390fd5b83600001600182038154811061188957611889611f62565b90600052602060002090600202016001015491505092915050565b6060610bf884846000856118f7565b6001600160a01b0382166104965760008181527f99574a7094154bb123ae6ae102096f0bf9679b85a5cd1e727aaa0ae5f132e6b460205260408120610496916119b4565b6060843b61191857604051632270d6bf60e21b815260040160405180910390fd5b600080866001600160a01b031685876040516119349190612338565b60006040518083038185875af1925050503d8060008114611971576040519150601f19603f3d011682016040523d82523d6000602084013e611976565b606091505b5091509150811561198a579150610bf89050565b80511561199a5780518082602001fd5b8360405162461bcd60e51b815260040161056e9190611a8d565b5080546119c0906120a9565b6000825580601f106119d0575050565b601f0160209004906000526020600020908101906119ee91906119f1565b50565b5b80821115611a0657600081556001016119f2565b5090565b6001600160e01b0319811681146119ee57600080fd5b600060208284031215611a3257600080fd5b81356104e381611a0a565b60005b83811015611a58578181015183820152602001611a40565b50506000910152565b60008151808452611a79816020860160208601611a3d565b601f01601f19169290920160200192915050565b6020815260006104e36020830184611a61565b600060208284031215611ab257600080fd5b5035919050565b80356001600160a01b0381168114611ad057600080fd5b919050565b60008060408385031215611ae857600080fd5b611af183611ab9565b946020939093013593505050565b600080600060608486031215611b1457600080fd5b611b1d84611ab9565b9250611b2b60208501611ab9565b9150604084013590509250925092565b634e487b7160e01b600052604160045260246000fd5b600067ffffffffffffffff80841115611b6c57611b6c611b3b565b604051601f8501601f19908116603f01168101908282118183101715611b9457611b94611b3b565b81604052809350858152868686011115611bad57600080fd5b858560208301376000602087830101525050509392505050565b600082601f830112611bd857600080fd5b6104e383833560208501611b51565b60008060008060008060c08789031215611c0057600080fd5b611c0987611ab9565b955060208701359450611c1e60408801611ab9565b9350606087013567ffffffffffffffff80821115611c3b57600080fd5b611c478a838b01611bc7565b94506080890135915080821115611c5d57600080fd5b611c698a838b01611bc7565b935060a0890135915080821115611c7f57600080fd5b50611c8c89828a01611bc7565b9150509295509295509295565b600060208284031215611cab57600080fd5b6104e382611ab9565b80151581146119ee57600080fd5b60008060408385031215611cd557600080fd5b611cde83611ab9565b91506020830135611cee81611cb4565b809150509250929050565b60008060008060808587031215611d0f57600080fd5b611d1885611ab9565b9350611d2660208601611ab9565b925060408501359150606085013567ffffffffffffffff811115611d4957600080fd5b8501601f81018713611d5a57600080fd5b611d6987823560208401611b51565b91505092959194509250565b60008083601f840112611d8757600080fd5b50813567ffffffffffffffff811115611d9f57600080fd5b6020830191508360208260051b85010111156113ed57600080fd5b60008083601f840112611dcc57600080fd5b50813567ffffffffffffffff811115611de457600080fd5b6020830191508360208285010111156113ed57600080fd5b60008060008060008060008060a0898b031215611e1857600080fd5b611e2189611ab9565b9750611e2f60208a01611ab9565b9650604089013567ffffffffffffffff80821115611e4c57600080fd5b611e588c838d01611d75565b909850965060608b0135915080821115611e7157600080fd5b611e7d8c838d01611d75565b909650945060808b0135915080821115611e9657600080fd5b50611ea38b828c01611dba565b999c989b5096995094979396929594505050565b60008060408385031215611eca57600080fd5b611ed383611ab9565b9150611ee160208401611ab9565b90509250929050565b60008060008060008060a08789031215611f0357600080fd5b611f0c87611ab9565b9550611f1a60208801611ab9565b94506040870135935060608701359250608087013567ffffffffffffffff811115611f4457600080fd5b611f5089828a01611dba565b979a9699509497509295939492505050565b634e487b7160e01b600052603260045260246000fd5b6020808252603d9082015260008051602061240783398151915260408201527f743a2063616e206f6e6c792072656365697665206f6e6520746f6b656e000000606082015260800190565b60208082526036908201526000805160206124078339815191526040820152751d0e881b5d5cdd081899481a5b9a5d1a585b1a5e995960521b606082015260800190565b602080825260439082015260008051602061240783398151915260408201527f743a2063616e6e6f7420616363657074207468697320746f6b656e206164647260608201526265737360e81b608082015260a00190565b6020808252603e9082015260008051602061240783398151915260408201527f743a2063616e6e6f7420616363657074207468697320746f6b656e2049440000606082015260800190565b600181811c908216806120bd57607f821691505b6020821081036120dd57634e487b7160e01b600052602260045260246000fd5b50919050565b601f82111561049657600081815260208120601f850160051c8101602086101561210a5750805b601f850160051c820191505b818110156105e157828155600101612116565b815167ffffffffffffffff81111561214357612143611b3b565b6121578161215184546120a9565b846120e3565b602080601f83116001811461218c57600084156121745750858301515b600019600386901b1c1916600185901b1785556105e1565b600085815260208120601f198616915b828110156121bb5788860151825594840194600190910190840161219c565b50858210156121d95787850151600019600388901b60f8161c191681555b5050505050600190811b01905550565b600083516121fb818460208801611a3d565b83519083019061220f818360208801611a3d565b01949350505050565b60006020828403121561222a57600080fd5b81516104e381611cb4565b6001600160a01b038581168252841660208201526040810183905260806060820181905260009061226890830184611a61565b9695505050505050565b60006020828403121561228457600080fd5b81516104e381611a0a565b634e487b7160e01b600052601160045260246000fd5b6000600182016122b7576122b761228f565b5060010190565b634e487b7160e01b600052601260045260246000fd5b6000826122e3576122e36122be565b500490565b818103818111156103ef576103ef61228f565b60008261230a5761230a6122be565b500690565b808201808211156103ef576103ef61228f565b634e487b7160e01b600052603160045260246000fd5b6000825161234a818460208701611a3d565b919091019291505056fe4552433732313a207472616e7366657220746f206e6f6e20455243373231526563656976657220696d706c656d656e7465723c7bf052874fa81625121783266a03507bd2cd48b16e571c01a04e8dd3fb07a879ec1734da2430052e9d78936f451aad707e5bed12ef4806b06dc3d0c38f0e303c7bf052874fa81625121783266a03507bd2cd48b16e571c01a04e8dd3fb07a699574a7094154bb123ae6ae102096f0bf9679b85a5cd1e727aaa0ae5f132e6b15772617070656445524331313535537465776172644c6963656e736546616365a2646970667358221220bae593664c0bc4ee24476dee399755c82badca02a1e85de8683f08acd35f06e264736f6c63430008110033",
  "devdoc": {
    "details": "ERC-721 token license for Steward that wraps existing ERC-1155. Transfers are disabled during an auction.",
    "kind": "dev",
    "methods": {
      "approve(address,uint256)": {
        "params": {
          "operator": "address to be approved",
          "tokenId": "token to approve"
        }
      },
      "balanceOf(address)": {
        "returns": {
          "_0": "quantity of tokens held"
        }
      },
      "getApproved(uint256)": {
        "params": {
          "tokenId": "token to query"
        },
        "returns": {
          "_0": "address approved to spend token"
        }
      },
      "isApprovedForAll(address,address)": {
        "params": {
          "account": "address to query for approval granted",
          "operator": "address to query for approval received"
        },
        "returns": {
          "_0": "whether operator is approved to spend tokens held by account"
        }
      },
      "ownerOf(uint256)": {
        "params": {
          "tokenId": "token to query"
        },
        "returns": {
          "_0": "token owner"
        }
      },
      "safeTransferFrom(address,address,uint256)": {
        "params": {
          "from": "sender of token",
          "to": "receiver of token",
          "tokenId": "token id"
        }
      },
      "safeTransferFrom(address,address,uint256,bytes)": {
        "params": {
          "data": "data payload",
          "from": "sender of token",
          "to": "receiver of token",
          "tokenId": "token id"
        }
      },
      "setApprovalForAll(address,bool)": {
        "params": {
          "operator": "address to be approved",
          "status": "approval status"
        }
      },
      "supportsInterface(bytes4)": {
        "params": {
          "interfaceId": "interface id"
        },
        "returns": {
          "_0": "bool whether interface is supported"
        }
      },
      "tokenByIndex(uint256)": {
        "params": {
          "index": "position in global token list to query"
        },
        "returns": {
          "_0": "id of retrieved token"
        }
      },
      "tokenOfOwnerByIndex(address,uint256)": {
        "params": {
          "index": "position in owner's token list to query",
          "owner": "token holder to query"
        },
        "returns": {
          "_0": "id of retrieved token"
        }
      },
      "totalSupply()": {
        "returns": {
          "_0": "total supply"
        }
      },
      "transferFrom(address,address,uint256)": {
        "params": {
          "from": "sender of token",
          "to": "receiver of token",
          "tokenId": "token id"
        }
      }
    },
    "title": "WrappedERC1155StewardLicenseFacet",
    "version": 1
  },
  "userdoc": {
    "kind": "user",
    "methods": {
      "approve(address,uint256)": {
        "notice": "grant approval to given account to spend token"
      },
      "balanceOf(address)": {
        "notice": "query the balance of given address"
      },
      "getApproved(uint256)": {
        "notice": "get approval status for given token"
      },
      "initializeWrappedStewardLicense(address,uint256,address,string,string,string)": {
        "notice": "Initialize license"
      },
      "isApprovedForAll(address,address)": {
        "notice": "query approval status of given operator with respect to given address"
      },
      "name()": {
        "notice": "inheritdoc IERC721Metadata"
      },
      "ownerOf(uint256)": {
        "notice": "query the owner of given token"
      },
      "safeTransferFrom(address,address,uint256)": {
        "notice": "transfer token between given addresses, checking for ERC721Receiver implementation if applicable"
      },
      "safeTransferFrom(address,address,uint256,bytes)": {
        "notice": "transfer token between given addresses, checking for ERC721Receiver implementation if applicable"
      },
      "setApprovalForAll(address,bool)": {
        "notice": "grant approval to or revoke approval from given account to spend all tokens held by sender"
      },
      "supportsInterface(bytes4)": {
        "notice": "query whether contract has registered support for given interface"
      },
      "symbol()": {
        "notice": "inheritdoc IERC721Metadata"
      },
      "tokenByIndex(uint256)": {
        "notice": "get token at given internal storage index"
      },
      "tokenOfOwnerByIndex(address,uint256)": {
        "notice": "get token of given owner at given internal storage index"
      },
      "tokenURI(uint256)": {
        "notice": "inheritdoc IERC721Metadata"
      },
      "totalSupply()": {
        "notice": "get total token supply"
      },
      "transferFrom(address,address,uint256)": {
        "notice": "transfer token between given addresses, without checking for ERC721Receiver implementation if applicable"
      },
      "triggerTransfer(address,address,uint256)": {
        "notice": "Trigger transfer of license"
      }
    },
    "version": 1
  },
  "storageLayout": {
    "storage": [],
    "types": null
  }
}