{
  "address": "0xAa23A59F83de01dD06D7E125cd2acB911147A06F",
  "abi": [
    {
      "inputs": [],
      "name": "AddressUtils__NotContract",
      "type": "error"
    },
    {
      "inputs": [],
      "name": "ERC165Base__InvalidInterfaceId",
      "type": "error"
    },
    {
      "inputs": [],
      "name": "ERC721Base__BalanceQueryZeroAddress",
      "type": "error"
    },
    {
      "inputs": [],
      "name": "ERC721Base__ERC721ReceiverNotImplemented",
      "type": "error"
    },
    {
      "inputs": [],
      "name": "ERC721Base__InvalidOwner",
      "type": "error"
    },
    {
      "inputs": [],
      "name": "ERC721Base__MintToZeroAddress",
      "type": "error"
    },
    {
      "inputs": [],
      "name": "ERC721Base__NonExistentToken",
      "type": "error"
    },
    {
      "inputs": [],
      "name": "ERC721Base__NotOwnerOrApproved",
      "type": "error"
    },
    {
      "inputs": [],
      "name": "ERC721Base__NotTokenOwner",
      "type": "error"
    },
    {
      "inputs": [],
      "name": "ERC721Base__SelfApproval",
      "type": "error"
    },
    {
      "inputs": [],
      "name": "ERC721Base__TokenAlreadyMinted",
      "type": "error"
    },
    {
      "inputs": [],
      "name": "ERC721Base__TransferToZeroAddress",
      "type": "error"
    },
    {
      "inputs": [],
      "name": "ERC721Metadata__NonExistentToken",
      "type": "error"
    },
    {
      "inputs": [],
      "name": "EnumerableMap__IndexOutOfBounds",
      "type": "error"
    },
    {
      "inputs": [],
      "name": "EnumerableMap__NonExistentKey",
      "type": "error"
    },
    {
      "inputs": [],
      "name": "EnumerableSet__IndexOutOfBounds",
      "type": "error"
    },
    {
      "anonymous": false,
      "inputs": [
        {
          "indexed": true,
          "internalType": "address",
          "name": "owner",
          "type": "address"
        },
        {
          "indexed": true,
          "internalType": "address",
          "name": "operator",
          "type": "address"
        },
        {
          "indexed": true,
          "internalType": "uint256",
          "name": "tokenId",
          "type": "uint256"
        }
      ],
      "name": "Approval",
      "type": "event"
    },
    {
      "anonymous": false,
      "inputs": [
        {
          "indexed": true,
          "internalType": "address",
          "name": "owner",
          "type": "address"
        },
        {
          "indexed": true,
          "internalType": "address",
          "name": "operator",
          "type": "address"
        },
        {
          "indexed": false,
          "internalType": "bool",
          "name": "approved",
          "type": "bool"
        }
      ],
      "name": "ApprovalForAll",
      "type": "event"
    },
    {
      "anonymous": false,
      "inputs": [
        {
          "indexed": true,
          "internalType": "address",
          "name": "from",
          "type": "address"
        },
        {
          "indexed": true,
          "internalType": "address",
          "name": "to",
          "type": "address"
        },
        {
          "indexed": true,
          "internalType": "uint256",
          "name": "tokenId",
          "type": "uint256"
        }
      ],
      "name": "Transfer",
      "type": "event"
    },
    {
      "inputs": [
        {
          "internalType": "address",
          "name": "operator",
          "type": "address"
        },
        {
          "internalType": "uint256",
          "name": "tokenId",
          "type": "uint256"
        }
      ],
      "name": "approve",
      "outputs": [],
      "stateMutability": "payable",
      "type": "function"
    },
    {
      "inputs": [
        {
          "internalType": "address",
          "name": "account",
          "type": "address"
        }
      ],
      "name": "balanceOf",
      "outputs": [
        {
          "internalType": "uint256",
          "name": "",
          "type": "uint256"
        }
      ],
      "stateMutability": "view",
      "type": "function"
    },
    {
      "inputs": [
        {
          "internalType": "uint256",
          "name": "tokenId",
          "type": "uint256"
        }
      ],
      "name": "getApproved",
      "outputs": [
        {
          "internalType": "address",
          "name": "",
          "type": "address"
        }
      ],
      "stateMutability": "view",
      "type": "function"
    },
    {
      "inputs": [
        {
          "internalType": "address",
          "name": "tokenAddress",
          "type": "address"
        },
        {
          "internalType": "uint256",
          "name": "tokenId",
          "type": "uint256"
        },
        {
          "internalType": "address",
          "name": "_steward",
          "type": "address"
        },
        {
          "internalType": "string",
          "name": "name",
          "type": "string"
        },
        {
          "internalType": "string",
          "name": "symbol",
          "type": "string"
        },
        {
          "internalType": "string",
          "name": "tokenURI",
          "type": "string"
        }
      ],
      "name": "initializeWrappedStewardLicense",
      "outputs": [],
      "stateMutability": "nonpayable",
      "type": "function"
    },
    {
      "inputs": [
        {
          "internalType": "address",
          "name": "account",
          "type": "address"
        },
        {
          "internalType": "address",
          "name": "operator",
          "type": "address"
        }
      ],
      "name": "isApprovedForAll",
      "outputs": [
        {
          "internalType": "bool",
          "name": "",
          "type": "bool"
        }
      ],
      "stateMutability": "view",
      "type": "function"
    },
    {
      "inputs": [],
      "name": "name",
      "outputs": [
        {
          "internalType": "string",
          "name": "",
          "type": "string"
        }
      ],
      "stateMutability": "view",
      "type": "function"
    },
    {
      "inputs": [
        {
          "internalType": "address",
          "name": "",
          "type": "address"
        },
        {
          "internalType": "address",
          "name": "",
          "type": "address"
        },
        {
          "internalType": "uint256",
          "name": "tokenId",
          "type": "uint256"
        },
        {
          "internalType": "bytes",
          "name": "",
          "type": "bytes"
        }
      ],
      "name": "onERC721Received",
      "outputs": [
        {
          "internalType": "bytes4",
          "name": "",
          "type": "bytes4"
        }
      ],
      "stateMutability": "view",
      "type": "function"
    },
    {
      "inputs": [
        {
          "internalType": "uint256",
          "name": "tokenId",
          "type": "uint256"
        }
      ],
      "name": "ownerOf",
      "outputs": [
        {
          "internalType": "address",
          "name": "",
          "type": "address"
        }
      ],
      "stateMutability": "view",
      "type": "function"
    },
    {
      "inputs": [
        {
          "internalType": "address",
          "name": "from",
          "type": "address"
        },
        {
          "internalType": "address",
          "name": "to",
          "type": "address"
        },
        {
          "internalType": "uint256",
          "name": "tokenId",
          "type": "uint256"
        }
      ],
      "name": "safeTransferFrom",
      "outputs": [],
      "stateMutability": "payable",
      "type": "function"
    },
    {
      "inputs": [
        {
          "internalType": "address",
          "name": "from",
          "type": "address"
        },
        {
          "internalType": "address",
          "name": "to",
          "type": "address"
        },
        {
          "internalType": "uint256",
          "name": "tokenId",
          "type": "uint256"
        },
        {
          "internalType": "bytes",
          "name": "data",
          "type": "bytes"
        }
      ],
      "name": "safeTransferFrom",
      "outputs": [],
      "stateMutability": "payable",
      "type": "function"
    },
    {
      "inputs": [
        {
          "internalType": "address",
          "name": "operator",
          "type": "address"
        },
        {
          "internalType": "bool",
          "name": "status",
          "type": "bool"
        }
      ],
      "name": "setApprovalForAll",
      "outputs": [],
      "stateMutability": "nonpayable",
      "type": "function"
    },
    {
      "inputs": [
        {
          "internalType": "bytes4",
          "name": "interfaceId",
          "type": "bytes4"
        }
      ],
      "name": "supportsInterface",
      "outputs": [
        {
          "internalType": "bool",
          "name": "",
          "type": "bool"
        }
      ],
      "stateMutability": "view",
      "type": "function"
    },
    {
      "inputs": [],
      "name": "symbol",
      "outputs": [
        {
          "internalType": "string",
          "name": "",
          "type": "string"
        }
      ],
      "stateMutability": "view",
      "type": "function"
    },
    {
      "inputs": [
        {
          "internalType": "uint256",
          "name": "index",
          "type": "uint256"
        }
      ],
      "name": "tokenByIndex",
      "outputs": [
        {
          "internalType": "uint256",
          "name": "",
          "type": "uint256"
        }
      ],
      "stateMutability": "view",
      "type": "function"
    },
    {
      "inputs": [
        {
          "internalType": "address",
          "name": "owner",
          "type": "address"
        },
        {
          "internalType": "uint256",
          "name": "index",
          "type": "uint256"
        }
      ],
      "name": "tokenOfOwnerByIndex",
      "outputs": [
        {
          "internalType": "uint256",
          "name": "",
          "type": "uint256"
        }
      ],
      "stateMutability": "view",
      "type": "function"
    },
    {
      "inputs": [
        {
          "internalType": "uint256",
          "name": "tokenId",
          "type": "uint256"
        }
      ],
      "name": "tokenURI",
      "outputs": [
        {
          "internalType": "string",
          "name": "",
          "type": "string"
        }
      ],
      "stateMutability": "view",
      "type": "function"
    },
    {
      "inputs": [],
      "name": "totalSupply",
      "outputs": [
        {
          "internalType": "uint256",
          "name": "",
          "type": "uint256"
        }
      ],
      "stateMutability": "view",
      "type": "function"
    },
    {
      "inputs": [
        {
          "internalType": "address",
          "name": "from",
          "type": "address"
        },
        {
          "internalType": "address",
          "name": "to",
          "type": "address"
        },
        {
          "internalType": "uint256",
          "name": "tokenId",
          "type": "uint256"
        }
      ],
      "name": "transferFrom",
      "outputs": [],
      "stateMutability": "payable",
      "type": "function"
    },
    {
      "inputs": [
        {
          "internalType": "address",
          "name": "from",
          "type": "address"
        },
        {
          "internalType": "address",
          "name": "to",
          "type": "address"
        },
        {
          "internalType": "uint256",
          "name": "tokenId",
          "type": "uint256"
        }
      ],
      "name": "triggerTransfer",
      "outputs": [],
      "stateMutability": "nonpayable",
      "type": "function"
    }
  ],
  "transactionHash": "0x32c5f68d1bd98c7eede6341a3fabfd13e8389167974aac2dd906cb9284a07d61",
  "args": [],
  "numDeployments": 1,
  "solcInputHash": "02d2f8229a72693ac4948d5d0530585f",
  "bytecode": "0x608060405234801561001057600080fd5b5061216a806100206000396000f3fe6080604052600436106101145760003560e01c806348b5537b116100a0578063a22cb46511610064578063a22cb465146102f4578063b88d4fde14610314578063c87b56dd14610327578063e31a7c0114610347578063e985e9c51461036757600080fd5b806348b5537b1461025f5780634f6ccce71461027f5780636352211e1461029f57806370a08231146102bf57806395d89b41146102df57600080fd5b8063150b7a02116100e7578063150b7a02146101bd57806318160ddd146101f657806323b872dd146102195780632f745c591461022c57806342842e0e1461024c57600080fd5b806301ffc9a71461011957806306fdde031461014e578063081812fc14610170578063095ea7b3146101a8575b600080fd5b34801561012557600080fd5b5061013961013436600461199e565b610387565b60405190151581526020015b60405180910390f35b34801561015a57600080fd5b506101636103ca565b6040516101459190611a0b565b34801561017c57600080fd5b5061019061018b366004611a1e565b6103d9565b6040516001600160a01b039091168152602001610145565b6101bb6101b6366004611a53565b6103e4565b005b3480156101c957600080fd5b506101dd6101d8366004611a7d565b610470565b6040516001600160e01b03199091168152602001610145565b34801561020257600080fd5b5061020b61062d565b604051908152602001610145565b6101bb610227366004611b18565b610637565b34801561023857600080fd5b5061020b610247366004611a53565b610669565b6101bb61025a366004611b18565b61067c565b34801561026b57600080fd5b506101bb61027a366004611c00565b610697565b34801561028b57600080fd5b5061020b61029a366004611a1e565b610787565b3480156102ab57600080fd5b506101906102ba366004611a1e565b610792565b3480156102cb57600080fd5b5061020b6102da366004611cb2565b61079d565b3480156102eb57600080fd5b506101636107a8565b34801561030057600080fd5b506101bb61030f366004611cdb565b6107b2565b6101bb610322366004611d12565b610866565b34801561033357600080fd5b50610163610342366004611a1e565b61089f565b34801561035357600080fd5b506101bb610362366004611b18565b6108aa565b34801561037357600080fd5b50610139610382366004611d8e565b610934565b6001600160e01b0319811660009081527ffc606c433378e3a7e0a6a531deac289b66caa1b4aa8554fd4ab2c6f1570f92d8602052604081205460ff165b92915050565b60606103d4610940565b905090565b60006103c4826109df565b60006103ef82610792565b9050806001600160a01b0316836001600160a01b0316036104235760405163424a22cb60e01b815260040160405180910390fd5b336001600160a01b0382161480159061044357506104418133610934565b155b1561046157604051632f5de44f60e01b815260040160405180910390fd5b61046b8383610a42565b505050565b600061049d7f79ec1734da2430052e9d78936f451aad707e5bed12ef4806b06dc3d0c38f0e305460ff1690565b15156001146104ff5760405162461bcd60e51b815260206004820152603560248201526000805160206120b58339815191526044820152740e881b5d5cdd081899481a5b9a5d1a585b1a5e9959605a1b60648201526084015b60405180910390fd5b7f4f3bc7155d2db681e29af52d1119e27d8b92f937da5bb676ae6155a2e77a3c6d546001600160a01b031633146105975760405162461bcd60e51b815260206004820152604260248201526000805160206120b583398151915260448201527f3a2063616e6e6f7420616363657074207468697320746f6b656e206164647265606482015261737360f01b608482015260a4016104f6565b7f4f3bc7155d2db681e29af52d1119e27d8b92f937da5bb676ae6155a2e77a3c6e54841461061b5760405162461bcd60e51b815260206004820152603d60248201526000805160206120b583398151915260448201527f3a2063616e6e6f7420616363657074207468697320746f6b656e20494400000060648201526084016104f6565b50630a85bd0160e11b95945050505050565b60006103d4610acf565b6106413382610ae8565b61065e57604051632f5de44f60e01b815260040160405180910390fd5b61046b838383610b6e565b60006106758383610c9d565b9392505050565b61046b83838360405180602001604052806000815250610866565b7f79ec1734da2430052e9d78936f451aad707e5bed12ef4806b06dc3d0c38f0e305460ff16156107155760405162461bcd60e51b815260206004820152603560248201526000805160206120b58339815191526044820152740e88185b1c9958591e481a5b9a5d1a585b1a5e9959605a1b60648201526084016104f6565b7f4f3bc7155d2db681e29af52d1119e27d8b92f937da5bb676ae6155a2e77a3c6d80546001600160a01b0319166001600160a01b0388161790557f4f3bc7155d2db681e29af52d1119e27d8b92f937da5bb676ae6155a2e77a3c6e85905561077f84848484610ccc565b505050505050565b60006103c482610d6c565b60006103c482610d8d565b60006103c482610dd1565b60606103d4610e28565b336001600160a01b038316036107db5760405163424a22cb60e01b815260040160405180910390fd5b3360008181527f3c7bf052874fa81625121783266a03507bd2cd48b16e571c01a04e8dd3fb07aa602090815260408083206001600160a01b03871680855290835292819020805460ff191686151590811790915590519081529192917f17307eab39ab6107e8899845ad3d59bd9653f200f220920489ca2b5937696c31910160405180910390a35050565b6108703383610ae8565b61088d57604051632f5de44f60e01b815260040160405180910390fd5b61089984848484610e47565b50505050565b60606103c482610e7b565b33301461065e5760405162461bcd60e51b815260206004820152604c60248201527f4e6174697665537465776172644c6963656e73653a205472696767657220747260448201527f616e736665722063616e206f6e6c792062652063616c6c65642066726f6d206160648201526b1b9bdd1a195c88199858d95d60a21b608482015260a4016104f6565b6000610675838361105c565b6060600080516020612115833981519152805461095c90611dc1565b80601f016020809104026020016040519081016040528092919081815260200182805461098890611dc1565b80156109d55780601f106109aa576101008083540402835291602001916109d5565b820191906000526020600020905b8154815290600101906020018083116109b857829003601f168201915b5050505050905090565b60006109ea826110a9565b610a075760405163c1b843ef60e01b815260040160405180910390fd5b5060009081527f3c7bf052874fa81625121783266a03507bd2cd48b16e571c01a04e8dd3fb07a960205260409020546001600160a01b031690565b60008181527f3c7bf052874fa81625121783266a03507bd2cd48b16e571c01a04e8dd3fb07a96020526040902080546001600160a01b0319166001600160a01b0384169081179091558190610a9682610d8d565b6001600160a01b03167f8c5be1e5ebec7d5bd14f71427d1e84f3dd0314c0f7b2291e5b200ac8c7c3b92560405160405180910390a45050565b60006103d46000805160206120f58339815191526110c3565b6000610af3826110a9565b610b105760405163c1b843ef60e01b815260040160405180910390fd5b6000610b1b83610d8d565b9050806001600160a01b0316846001600160a01b03161480610b565750836001600160a01b0316610b4b846109df565b6001600160a01b0316145b80610b665750610b66818561105c565b949350505050565b826001600160a01b0316610b8182610d8d565b6001600160a01b031614610ba857604051630f2db4ad60e01b815260040160405180910390fd5b6001600160a01b038216610bcf576040516340311a0960e01b815260040160405180910390fd5b610bda8383836110cd565b610be5600082610a42565b6001600160a01b03831660009081526000805160206120d5833981519152602052604090206000805160206120f583398151915290610c2490836111c3565b506001600160a01b03831660009081526002820160205260409020610c4990836111cf565b50610c558183856111db565b5081836001600160a01b0316856001600160a01b03167fddf252ad1be2c89b69c2b068fc378daa952ba7f163c4a11628f55a4df523b3ef60405160405180910390a450505050565b6001600160a01b03821660009081526000805160206120d58339815191526020526040812061067590836111f1565b7f79ec1734da2430052e9d78936f451aad707e5bed12ef4806b06dc3d0c38f0e30805460ff1916600117815560008051602061211583398151915280610d128682611e41565b5060018101610d218582611e41565b5060008080526003820160205260409020610d3c8482611e41565b50610d4f6301ffc9a760e01b60016111fd565b610d616380ac58cd60e01b60016111fd565b61077f866000611273565b6000610d866000805160206120f583398151915283611356565b5092915050565b600080610da86000805160206120f583398151915284611372565b90506001600160a01b0381166103c457604051637e1a7d8b60e01b815260040160405180910390fd5b60006001600160a01b038216610dfa57604051630810ff9760e41b815260040160405180910390fd5b6001600160a01b03821660009081526000805160206120d5833981519152602052604090206103c4906110c3565b6060600080516020612115833981519152600101805461095c90611dc1565b610e52848484610b6e565b610e5e8484848461137e565b61089957604051639ff10cdd60e01b815260040160405180910390fd5b6060610e86826110a9565b610ea257604051624705a760e71b815260040160405180910390fd5b60008281527f99574a7094154bb123ae6ae102096f0bf9679b85a5cd1e727aaa0ae5f132e6b4602052604081208054600080516020612115833981519152929190610eec90611dc1565b80601f0160208091040260200160405190810160405280929190818152602001828054610f1890611dc1565b8015610f655780601f10610f3a57610100808354040283529160200191610f65565b820191906000526020600020905b815481529060010190602001808311610f4857829003601f168201915b505050505090506000826002018054610f7d90611dc1565b80601f0160208091040260200160405190810160405280929190818152602001828054610fa990611dc1565b8015610ff65780601f10610fcb57610100808354040283529160200191610ff6565b820191906000526020600020905b815481529060010190602001808311610fd957829003601f168201915b50505050509050805160000361100e57509392505050565b815115611041578082604051602001611028929190611f01565b6040516020818303038152906040529350505050919050565b8061104b8661144f565b604051602001611028929190611f01565b6001600160a01b0391821660009081527f3c7bf052874fa81625121783266a03507bd2cd48b16e571c01a04e8dd3fb07aa6020908152604080832093909416825291909152205460ff1690565b60006103c46000805160206120f583398151915283611550565b60006103c4825490565b6001600160a01b038316156111b8576000306001600160a01b031663ec214d336040518163ffffffff1660e01b8152600401602060405180830381865afa15801561111c573d6000803e3d6000fd5b505050506040513d601f19601f820116820180604052508101906111409190611f30565b905080156111b65760405162461bcd60e51b815260206004820152603a60248201527f537465776172644c6963656e736546616365743a2043616e6e6f74207472616e60448201527f7366657220647572696e672061756374696f6e20706572696f6400000000000060648201526084016104f6565b505b61046b838383611568565b60006106758383611573565b6000610675838361162d565b6000610b6684846001600160a01b038516611670565b6000610675838361170f565b6001600160e01b031980831690036112285760405163b0a19dd560e01b815260040160405180910390fd5b6001600160e01b03199190911660009081527ffc606c433378e3a7e0a6a531deac289b66caa1b4aa8554fd4ab2c6f1570f92d860205260409020805460ff1916911515919091179055565b6001600160a01b03821661129a576040516311f2988d60e11b815260040160405180910390fd5b6112a3816110a9565b156112c157604051630d86bb7b60e31b815260040160405180910390fd5b6112cd600083836110cd565b6001600160a01b03821660009081526000805160206120d5833981519152602052604090206000805160206120f58339815191529061130c90836111cf565b506113188183856111db565b5060405182906001600160a01b038516906000907fddf252ad1be2c89b69c2b068fc378daa952ba7f163c4a11628f55a4df523b3ef908290a4505050565b6000808080611365868661175b565b9097909650945050505050565b600061067583836117be565b60006001600160a01b0384163b61139757506001610b66565b600061141863150b7a0260e01b338887876040516024016113bb9493929190611f4d565b604051602081830303815290604052906001600160e01b0319166020820180516001600160e01b038381831617835250505050604051806060016040528060328152602001612083603291396001600160a01b0388169190611822565b90506000818060200190518101906114309190611f8a565b6001600160e01b031916630a85bd0160e11b1492505050949350505050565b6060816000036114765750506040805180820190915260018152600360fc1b602082015290565b8160005b81156114a0578061148a81611fbd565b91506114999050600a83611fec565b915061147a565b60008167ffffffffffffffff8111156114bb576114bb611b54565b6040519080825280601f01601f1916602001820160405280156114e5576020820181803683370190505b5090505b8415610b66576114fa600183612000565b9150611507600a86612013565b611512906030612027565b60f81b8183815181106115275761152761203a565b60200101906001600160f81b031916908160001a905350611549600a86611fec565b94506114e9565b60008181526001830160205260408120541515610675565b61046b838383611831565b60008181526001830160205260408120548015610d86578354600090859060001981019081106115a5576115a561203a565b90600052602060002001549050808560000160018403815481106115cb576115cb61203a565b60009182526020808320909101929092559182526001860190526040902081905583548490806115fd576115fd612050565b60008281526020808220830160001990810183905590920190925593815260019485019093525050604081205590565b60008181526001830160205260408120546103c4575081546001808201845560008481526020808220909301849055845493815293810190915260409092205590565b60008281526001840160205260408120548082036116d7575050604080518082018252838152602080820184815286546001818101895560008981528481209551600290930290950191825591519082015586548684528188019092529290912055610675565b828560000160018303815481106116f0576116f061203a565b9060005260206000209060020201600101819055506000915050610675565b815460009082106117335760405163e637bf3b60e01b815260040160405180910390fd5b8260000182815481106117485761174861203a565b9060005260206000200154905092915050565b8154600090819083106117815760405163022fd82760e31b815260040160405180910390fd5b60008460000184815481106117985761179861203a565b906000526020600020906002020190508060000154816001015492509250509250929050565b60008181526001830160205260408120548082036117ef57604051633d547ec560e21b815260040160405180910390fd5b8360000160018203815481106118075761180761203a565b90600052602060002090600202016001015491505092915050565b6060610b668484600085611875565b6001600160a01b03821661046b5760008181527f99574a7094154bb123ae6ae102096f0bf9679b85a5cd1e727aaa0ae5f132e6b46020526040812061046b91611932565b6060843b61189657604051632270d6bf60e21b815260040160405180910390fd5b600080866001600160a01b031685876040516118b29190612066565b60006040518083038185875af1925050503d80600081146118ef576040519150601f19603f3d011682016040523d82523d6000602084013e6118f4565b606091505b50915091508115611908579150610b669050565b8051156119185780518082602001fd5b8360405162461bcd60e51b81526004016104f69190611a0b565b50805461193e90611dc1565b6000825580601f1061194e575050565b601f01602090049060005260206000209081019061196c919061196f565b50565b5b808211156119845760008155600101611970565b5090565b6001600160e01b03198116811461196c57600080fd5b6000602082840312156119b057600080fd5b813561067581611988565b60005b838110156119d65781810151838201526020016119be565b50506000910152565b600081518084526119f78160208601602086016119bb565b601f01601f19169290920160200192915050565b60208152600061067560208301846119df565b600060208284031215611a3057600080fd5b5035919050565b80356001600160a01b0381168114611a4e57600080fd5b919050565b60008060408385031215611a6657600080fd5b611a6f83611a37565b946020939093013593505050565b600080600080600060808688031215611a9557600080fd5b611a9e86611a37565b9450611aac60208701611a37565b935060408601359250606086013567ffffffffffffffff80821115611ad057600080fd5b818801915088601f830112611ae457600080fd5b813581811115611af357600080fd5b896020828501011115611b0557600080fd5b9699959850939650602001949392505050565b600080600060608486031215611b2d57600080fd5b611b3684611a37565b9250611b4460208501611a37565b9150604084013590509250925092565b634e487b7160e01b600052604160045260246000fd5b600067ffffffffffffffff80841115611b8557611b85611b54565b604051601f8501601f19908116603f01168101908282118183101715611bad57611bad611b54565b81604052809350858152868686011115611bc657600080fd5b858560208301376000602087830101525050509392505050565b600082601f830112611bf157600080fd5b61067583833560208501611b6a565b60008060008060008060c08789031215611c1957600080fd5b611c2287611a37565b955060208701359450611c3760408801611a37565b9350606087013567ffffffffffffffff80821115611c5457600080fd5b611c608a838b01611be0565b94506080890135915080821115611c7657600080fd5b611c828a838b01611be0565b935060a0890135915080821115611c9857600080fd5b50611ca589828a01611be0565b9150509295509295509295565b600060208284031215611cc457600080fd5b61067582611a37565b801515811461196c57600080fd5b60008060408385031215611cee57600080fd5b611cf783611a37565b91506020830135611d0781611ccd565b809150509250929050565b60008060008060808587031215611d2857600080fd5b611d3185611a37565b9350611d3f60208601611a37565b925060408501359150606085013567ffffffffffffffff811115611d6257600080fd5b8501601f81018713611d7357600080fd5b611d8287823560208401611b6a565b91505092959194509250565b60008060408385031215611da157600080fd5b611daa83611a37565b9150611db860208401611a37565b90509250929050565b600181811c90821680611dd557607f821691505b602082108103611df557634e487b7160e01b600052602260045260246000fd5b50919050565b601f82111561046b57600081815260208120601f850160051c81016020861015611e225750805b601f850160051c820191505b8181101561077f57828155600101611e2e565b815167ffffffffffffffff811115611e5b57611e5b611b54565b611e6f81611e698454611dc1565b84611dfb565b602080601f831160018114611ea45760008415611e8c5750858301515b600019600386901b1c1916600185901b17855561077f565b600085815260208120601f198616915b82811015611ed357888601518255948401946001909101908401611eb4565b5085821015611ef15787850151600019600388901b60f8161c191681555b5050505050600190811b01905550565b60008351611f138184602088016119bb565b835190830190611f278183602088016119bb565b01949350505050565b600060208284031215611f4257600080fd5b815161067581611ccd565b6001600160a01b0385811682528416602082015260408101839052608060608201819052600090611f80908301846119df565b9695505050505050565b600060208284031215611f9c57600080fd5b815161067581611988565b634e487b7160e01b600052601160045260246000fd5b600060018201611fcf57611fcf611fa7565b5060010190565b634e487b7160e01b600052601260045260246000fd5b600082611ffb57611ffb611fd6565b500490565b818103818111156103c4576103c4611fa7565b60008261202257612022611fd6565b500690565b808201808211156103c4576103c4611fa7565b634e487b7160e01b600052603260045260246000fd5b634e487b7160e01b600052603160045260246000fd5b600082516120788184602087016119bb565b919091019291505056fe4552433732313a207472616e7366657220746f206e6f6e20455243373231526563656976657220696d706c656d656e74657257726170706564455243373231537465776172644c6963656e736546616365743c7bf052874fa81625121783266a03507bd2cd48b16e571c01a04e8dd3fb07a83c7bf052874fa81625121783266a03507bd2cd48b16e571c01a04e8dd3fb07a699574a7094154bb123ae6ae102096f0bf9679b85a5cd1e727aaa0ae5f132e6b1a26469706673582212200f9639773606d492eca9cded4ae9f077723da370ba3071a8d35279b24f43640f64736f6c63430008110033",
  "devdoc": {
    "details": "ERC-721 token license for Steward that wraps existing ERC-721. Only a particular ERC721 transfer is accepted.",
    "kind": "dev",
    "methods": {
      "approve(address,uint256)": {
        "params": {
          "operator": "address to be approved",
          "tokenId": "token to approve"
        }
      },
      "balanceOf(address)": {
        "returns": {
          "_0": "quantity of tokens held"
        }
      },
      "getApproved(uint256)": {
        "params": {
          "tokenId": "token to query"
        },
        "returns": {
          "_0": "address approved to spend token"
        }
      },
      "isApprovedForAll(address,address)": {
        "params": {
          "account": "address to query for approval granted",
          "operator": "address to query for approval received"
        },
        "returns": {
          "_0": "whether operator is approved to spend tokens held by account"
        }
      },
      "ownerOf(uint256)": {
        "params": {
          "tokenId": "token to query"
        },
        "returns": {
          "_0": "token owner"
        }
      },
      "safeTransferFrom(address,address,uint256)": {
        "params": {
          "from": "sender of token",
          "to": "receiver of token",
          "tokenId": "token id"
        }
      },
      "safeTransferFrom(address,address,uint256,bytes)": {
        "params": {
          "data": "data payload",
          "from": "sender of token",
          "to": "receiver of token",
          "tokenId": "token id"
        }
      },
      "setApprovalForAll(address,bool)": {
        "params": {
          "operator": "address to be approved",
          "status": "approval status"
        }
      },
      "supportsInterface(bytes4)": {
        "params": {
          "interfaceId": "interface id"
        },
        "returns": {
          "_0": "bool whether interface is supported"
        }
      },
      "tokenByIndex(uint256)": {
        "params": {
          "index": "position in global token list to query"
        },
        "returns": {
          "_0": "id of retrieved token"
        }
      },
      "tokenOfOwnerByIndex(address,uint256)": {
        "params": {
          "index": "position in owner's token list to query",
          "owner": "token holder to query"
        },
        "returns": {
          "_0": "id of retrieved token"
        }
      },
      "totalSupply()": {
        "returns": {
          "_0": "total supply"
        }
      },
      "transferFrom(address,address,uint256)": {
        "params": {
          "from": "sender of token",
          "to": "receiver of token",
          "tokenId": "token id"
        }
      }
    },
    "title": "WrappedERC721StewardLicenseFacet",
    "version": 1
  },
  "userdoc": {
    "kind": "user",
    "methods": {
      "approve(address,uint256)": {
        "notice": "grant approval to given account to spend token"
      },
      "balanceOf(address)": {
        "notice": "query the balance of given address"
      },
      "getApproved(uint256)": {
        "notice": "get approval status for given token"
      },
      "initializeWrappedStewardLicense(address,uint256,address,string,string,string)": {
        "notice": "Initialize license"
      },
      "isApprovedForAll(address,address)": {
        "notice": "query approval status of given operator with respect to given address"
      },
      "name()": {
        "notice": "inheritdoc IERC721Metadata"
      },
      "ownerOf(uint256)": {
        "notice": "query the owner of given token"
      },
      "safeTransferFrom(address,address,uint256)": {
        "notice": "transfer token between given addresses, checking for ERC721Receiver implementation if applicable"
      },
      "safeTransferFrom(address,address,uint256,bytes)": {
        "notice": "transfer token between given addresses, checking for ERC721Receiver implementation if applicable"
      },
      "setApprovalForAll(address,bool)": {
        "notice": "grant approval to or revoke approval from given account to spend all tokens held by sender"
      },
      "supportsInterface(bytes4)": {
        "notice": "query whether contract has registered support for given interface"
      },
      "symbol()": {
        "notice": "inheritdoc IERC721Metadata"
      },
      "tokenByIndex(uint256)": {
        "notice": "get token at given internal storage index"
      },
      "tokenOfOwnerByIndex(address,uint256)": {
        "notice": "get token of given owner at given internal storage index"
      },
      "tokenURI(uint256)": {
        "notice": "inheritdoc IERC721Metadata"
      },
      "totalSupply()": {
        "notice": "get total token supply"
      },
      "transferFrom(address,address,uint256)": {
        "notice": "transfer token between given addresses, without checking for ERC721Receiver implementation if applicable"
      },
      "triggerTransfer(address,address,uint256)": {
        "notice": "Trigger transfer of license"
      }
    },
    "version": 1
  },
  "storageLayout": {
    "storage": [],
    "types": null
  }
}