{
  "address": "0x103d07c490ea1B466FdcE499fb1318116989643B",
  "abi": [
    {
      "inputs": [],
      "name": "AddressUtils__NotContract",
      "type": "error"
    },
    {
      "inputs": [],
      "name": "ERC165Base__InvalidInterfaceId",
      "type": "error"
    },
    {
      "inputs": [],
      "name": "ERC721Base__BalanceQueryZeroAddress",
      "type": "error"
    },
    {
      "inputs": [],
      "name": "ERC721Base__ERC721ReceiverNotImplemented",
      "type": "error"
    },
    {
      "inputs": [],
      "name": "ERC721Base__InvalidOwner",
      "type": "error"
    },
    {
      "inputs": [],
      "name": "ERC721Base__MintToZeroAddress",
      "type": "error"
    },
    {
      "inputs": [],
      "name": "ERC721Base__NonExistentToken",
      "type": "error"
    },
    {
      "inputs": [],
      "name": "ERC721Base__NotOwnerOrApproved",
      "type": "error"
    },
    {
      "inputs": [],
      "name": "ERC721Base__NotTokenOwner",
      "type": "error"
    },
    {
      "inputs": [],
      "name": "ERC721Base__SelfApproval",
      "type": "error"
    },
    {
      "inputs": [],
      "name": "ERC721Base__TokenAlreadyMinted",
      "type": "error"
    },
    {
      "inputs": [],
      "name": "ERC721Base__TransferToZeroAddress",
      "type": "error"
    },
    {
      "inputs": [],
      "name": "ERC721Metadata__NonExistentToken",
      "type": "error"
    },
    {
      "inputs": [],
      "name": "EnumerableMap__IndexOutOfBounds",
      "type": "error"
    },
    {
      "inputs": [],
      "name": "EnumerableMap__NonExistentKey",
      "type": "error"
    },
    {
      "inputs": [],
      "name": "EnumerableSet__IndexOutOfBounds",
      "type": "error"
    },
    {
      "inputs": [],
      "name": "UintUtils__InsufficientHexLength",
      "type": "error"
    },
    {
      "anonymous": false,
      "inputs": [
        {
          "indexed": true,
          "internalType": "address",
          "name": "owner",
          "type": "address"
        },
        {
          "indexed": true,
          "internalType": "address",
          "name": "operator",
          "type": "address"
        },
        {
          "indexed": true,
          "internalType": "uint256",
          "name": "tokenId",
          "type": "uint256"
        }
      ],
      "name": "Approval",
      "type": "event"
    },
    {
      "anonymous": false,
      "inputs": [
        {
          "indexed": true,
          "internalType": "address",
          "name": "owner",
          "type": "address"
        },
        {
          "indexed": true,
          "internalType": "address",
          "name": "operator",
          "type": "address"
        },
        {
          "indexed": false,
          "internalType": "bool",
          "name": "approved",
          "type": "bool"
        }
      ],
      "name": "ApprovalForAll",
      "type": "event"
    },
    {
      "anonymous": false,
      "inputs": [
        {
          "indexed": true,
          "internalType": "bytes32",
          "name": "role",
          "type": "bytes32"
        },
        {
          "indexed": true,
          "internalType": "bytes32",
          "name": "previousAdminRole",
          "type": "bytes32"
        },
        {
          "indexed": true,
          "internalType": "bytes32",
          "name": "newAdminRole",
          "type": "bytes32"
        }
      ],
      "name": "RoleAdminChanged",
      "type": "event"
    },
    {
      "anonymous": false,
      "inputs": [
        {
          "indexed": true,
          "internalType": "bytes32",
          "name": "role",
          "type": "bytes32"
        },
        {
          "indexed": true,
          "internalType": "address",
          "name": "account",
          "type": "address"
        },
        {
          "indexed": true,
          "internalType": "address",
          "name": "sender",
          "type": "address"
        }
      ],
      "name": "RoleGranted",
      "type": "event"
    },
    {
      "anonymous": false,
      "inputs": [
        {
          "indexed": true,
          "internalType": "bytes32",
          "name": "role",
          "type": "bytes32"
        },
        {
          "indexed": true,
          "internalType": "address",
          "name": "account",
          "type": "address"
        },
        {
          "indexed": true,
          "internalType": "address",
          "name": "sender",
          "type": "address"
        }
      ],
      "name": "RoleRevoked",
      "type": "event"
    },
    {
      "anonymous": false,
      "inputs": [
        {
          "indexed": true,
          "internalType": "address",
          "name": "from",
          "type": "address"
        },
        {
          "indexed": true,
          "internalType": "address",
          "name": "to",
          "type": "address"
        },
        {
          "indexed": true,
          "internalType": "uint256",
          "name": "tokenId",
          "type": "uint256"
        }
      ],
      "name": "Transfer",
      "type": "event"
    },
    {
      "inputs": [
        {
          "internalType": "address",
          "name": "to",
          "type": "address"
        },
        {
          "internalType": "string",
          "name": "tokenURI",
          "type": "string"
        },
        {
          "internalType": "uint256",
          "name": "tokenInitialPeriodStartTime",
          "type": "uint256"
        }
      ],
      "name": "addTokenToCollection",
      "outputs": [],
      "stateMutability": "nonpayable",
      "type": "function"
    },
    {
      "inputs": [
        {
          "internalType": "string[]",
          "name": "tokenURIs",
          "type": "string[]"
        },
        {
          "internalType": "uint256[]",
          "name": "tokenInitialPeriodStartTimes",
          "type": "uint256[]"
        },
        {
          "internalType": "bool",
          "name": "shouldMint",
          "type": "bool"
        }
      ],
      "name": "addTokensToCollection",
      "outputs": [],
      "stateMutability": "nonpayable",
      "type": "function"
    },
    {
      "inputs": [
        {
          "internalType": "address[]",
          "name": "to",
          "type": "address[]"
        },
        {
          "internalType": "string[]",
          "name": "tokenURIs",
          "type": "string[]"
        },
        {
          "internalType": "uint256[]",
          "name": "tokenInitialPeriodStartTimes",
          "type": "uint256[]"
        }
      ],
      "name": "addTokensToCollection",
      "outputs": [],
      "stateMutability": "nonpayable",
      "type": "function"
    },
    {
      "inputs": [
        {
          "internalType": "uint32",
          "name": "amount",
          "type": "uint32"
        },
        {
          "internalType": "uint256",
          "name": "initialPeriodStartTime",
          "type": "uint256"
        },
        {
          "internalType": "uint256",
          "name": "initialPeriodStartTimeOffset",
          "type": "uint256"
        },
        {
          "internalType": "string",
          "name": "baseURI",
          "type": "string"
        },
        {
          "internalType": "bool",
          "name": "shouldMint",
          "type": "bool"
        }
      ],
      "name": "addTokensWithBaseURIToCollection",
      "outputs": [],
      "stateMutability": "nonpayable",
      "type": "function"
    },
    {
      "inputs": [
        {
          "internalType": "address",
          "name": "operator",
          "type": "address"
        },
        {
          "internalType": "uint256",
          "name": "tokenId",
          "type": "uint256"
        }
      ],
      "name": "approve",
      "outputs": [],
      "stateMutability": "payable",
      "type": "function"
    },
    {
      "inputs": [
        {
          "internalType": "address",
          "name": "account",
          "type": "address"
        }
      ],
      "name": "balanceOf",
      "outputs": [
        {
          "internalType": "uint256",
          "name": "",
          "type": "uint256"
        }
      ],
      "stateMutability": "view",
      "type": "function"
    },
    {
      "inputs": [
        {
          "internalType": "uint256",
          "name": "tokenId",
          "type": "uint256"
        }
      ],
      "name": "exists",
      "outputs": [
        {
          "internalType": "bool",
          "name": "",
          "type": "bool"
        }
      ],
      "stateMutability": "view",
      "type": "function"
    },
    {
      "inputs": [
        {
          "internalType": "uint256",
          "name": "tokenId",
          "type": "uint256"
        }
      ],
      "name": "getApproved",
      "outputs": [
        {
          "internalType": "address",
          "name": "",
          "type": "address"
        }
      ],
      "stateMutability": "view",
      "type": "function"
    },
    {
      "inputs": [
        {
          "internalType": "address",
          "name": "minter_",
          "type": "address"
        },
        {
          "internalType": "address",
          "name": "addToCollectionMinter_",
          "type": "address"
        },
        {
          "internalType": "address",
          "name": "steward_",
          "type": "address"
        },
        {
          "internalType": "uint256",
          "name": "maxTokenCount_",
          "type": "uint256"
        },
        {
          "internalType": "bool",
          "name": "shouldMint",
          "type": "bool"
        },
        {
          "internalType": "string",
          "name": "name",
          "type": "string"
        },
        {
          "internalType": "string",
          "name": "symbol",
          "type": "string"
        },
        {
          "internalType": "string",
          "name": "baseURI",
          "type": "string"
        }
      ],
      "name": "initializeStewardLicense",
      "outputs": [],
      "stateMutability": "nonpayable",
      "type": "function"
    },
    {
      "inputs": [
        {
          "internalType": "address",
          "name": "account",
          "type": "address"
        },
        {
          "internalType": "address",
          "name": "operator",
          "type": "address"
        }
      ],
      "name": "isApprovedForAll",
      "outputs": [
        {
          "internalType": "bool",
          "name": "",
          "type": "bool"
        }
      ],
      "stateMutability": "view",
      "type": "function"
    },
    {
      "inputs": [],
      "name": "maxTokenCount",
      "outputs": [
        {
          "internalType": "uint256",
          "name": "",
          "type": "uint256"
        }
      ],
      "stateMutability": "view",
      "type": "function"
    },
    {
      "inputs": [
        {
          "internalType": "address",
          "name": "to",
          "type": "address"
        },
        {
          "internalType": "uint256",
          "name": "tokenId",
          "type": "uint256"
        }
      ],
      "name": "mintToken",
      "outputs": [],
      "stateMutability": "nonpayable",
      "type": "function"
    },
    {
      "inputs": [],
      "name": "minter",
      "outputs": [
        {
          "internalType": "address",
          "name": "",
          "type": "address"
        }
      ],
      "stateMutability": "view",
      "type": "function"
    },
    {
      "inputs": [],
      "name": "name",
      "outputs": [
        {
          "internalType": "string",
          "name": "",
          "type": "string"
        }
      ],
      "stateMutability": "view",
      "type": "function"
    },
    {
      "inputs": [
        {
          "internalType": "uint256",
          "name": "tokenId",
          "type": "uint256"
        }
      ],
      "name": "ownerOf",
      "outputs": [
        {
          "internalType": "address",
          "name": "",
          "type": "address"
        }
      ],
      "stateMutability": "view",
      "type": "function"
    },
    {
      "inputs": [
        {
          "internalType": "address",
          "name": "from",
          "type": "address"
        },
        {
          "internalType": "address",
          "name": "to",
          "type": "address"
        },
        {
          "internalType": "uint256",
          "name": "tokenId",
          "type": "uint256"
        }
      ],
      "name": "safeTransferFrom",
      "outputs": [],
      "stateMutability": "payable",
      "type": "function"
    },
    {
      "inputs": [
        {
          "internalType": "address",
          "name": "from",
          "type": "address"
        },
        {
          "internalType": "address",
          "name": "to",
          "type": "address"
        },
        {
          "internalType": "uint256",
          "name": "tokenId",
          "type": "uint256"
        },
        {
          "internalType": "bytes",
          "name": "data",
          "type": "bytes"
        }
      ],
      "name": "safeTransferFrom",
      "outputs": [],
      "stateMutability": "payable",
      "type": "function"
    },
    {
      "inputs": [
        {
          "internalType": "address",
          "name": "operator",
          "type": "address"
        },
        {
          "internalType": "bool",
          "name": "status",
          "type": "bool"
        }
      ],
      "name": "setApprovalForAll",
      "outputs": [],
      "stateMutability": "nonpayable",
      "type": "function"
    },
    {
      "inputs": [
        {
          "internalType": "bytes4",
          "name": "interfaceId",
          "type": "bytes4"
        }
      ],
      "name": "supportsInterface",
      "outputs": [
        {
          "internalType": "bool",
          "name": "",
          "type": "bool"
        }
      ],
      "stateMutability": "view",
      "type": "function"
    },
    {
      "inputs": [],
      "name": "symbol",
      "outputs": [
        {
          "internalType": "string",
          "name": "",
          "type": "string"
        }
      ],
      "stateMutability": "view",
      "type": "function"
    },
    {
      "inputs": [
        {
          "internalType": "uint256",
          "name": "index",
          "type": "uint256"
        }
      ],
      "name": "tokenByIndex",
      "outputs": [
        {
          "internalType": "uint256",
          "name": "",
          "type": "uint256"
        }
      ],
      "stateMutability": "view",
      "type": "function"
    },
    {
      "inputs": [
        {
          "internalType": "address",
          "name": "owner",
          "type": "address"
        },
        {
          "internalType": "uint256",
          "name": "index",
          "type": "uint256"
        }
      ],
      "name": "tokenOfOwnerByIndex",
      "outputs": [
        {
          "internalType": "uint256",
          "name": "",
          "type": "uint256"
        }
      ],
      "stateMutability": "view",
      "type": "function"
    },
    {
      "inputs": [
        {
          "internalType": "uint256",
          "name": "tokenId",
          "type": "uint256"
        }
      ],
      "name": "tokenURI",
      "outputs": [
        {
          "internalType": "string",
          "name": "",
          "type": "string"
        }
      ],
      "stateMutability": "view",
      "type": "function"
    },
    {
      "inputs": [],
      "name": "totalSupply",
      "outputs": [
        {
          "internalType": "uint256",
          "name": "",
          "type": "uint256"
        }
      ],
      "stateMutability": "view",
      "type": "function"
    },
    {
      "inputs": [
        {
          "internalType": "address",
          "name": "from",
          "type": "address"
        },
        {
          "internalType": "address",
          "name": "to",
          "type": "address"
        },
        {
          "internalType": "uint256",
          "name": "tokenId",
          "type": "uint256"
        }
      ],
      "name": "transferFrom",
      "outputs": [],
      "stateMutability": "payable",
      "type": "function"
    },
    {
      "inputs": [
        {
          "internalType": "address",
          "name": "from",
          "type": "address"
        },
        {
          "internalType": "address",
          "name": "to",
          "type": "address"
        },
        {
          "internalType": "uint256",
          "name": "tokenId",
          "type": "uint256"
        }
      ],
      "name": "triggerTransfer",
      "outputs": [],
      "stateMutability": "nonpayable",
      "type": "function"
    }
  ],
  "transactionHash": "0x1232f842822a28c1ded3097026ce6ed9d5aade28a1116c5745583a32e821229d",
  "args": [],
  "numDeployments": 2,
  "solcInputHash": "628c05008e1b5e62f06b0d0b01c96784",
  "bytecode": "0x608060405234801561001057600080fd5b50612fc1806100206000396000f3fe6080604052600436106101815760003560e01c80635d3c438e116100d1578063a8de31cd1161008a578063c4e627c211610064578063c4e627c214610430578063c87b56dd14610445578063e31a7c0114610465578063e985e9c51461048557600080fd5b8063a8de31cd146103dd578063b88d4fde146103fd578063c3f75fc11461041057600080fd5b80635d3c438e146103285780636352211e1461034857806370a082311461036857806379c650681461038857806395d89b41146103a8578063a22cb465146103bd57600080fd5b806318160ddd1161013e57806342842e0e1161011857806342842e0e146102b557806347e1cc25146102c85780634f558e79146102e85780634f6ccce71461030857600080fd5b806318160ddd1461025f57806323b872dd146102825780632f745c591461029557600080fd5b806301ffc9a71461018657806306fdde03146101bb57806307546172146101dd578063081812fc1461020a5780630849cc691461022a578063095ea7b31461024c575b600080fd5b34801561019257600080fd5b506101a66101a1366004612350565b6104a5565b60405190151581526020015b60405180910390f35b3480156101c757600080fd5b506101d06104e8565b6040516101b291906123bd565b3480156101e957600080fd5b506101f26104f7565b6040516001600160a01b0390911681526020016101b2565b34801561021657600080fd5b506101f26102253660046123d0565b61052a565b34801561023657600080fd5b5061024a6102453660046125d1565b610535565b005b61024a61025a366004612668565b6105e1565b34801561026b57600080fd5b506102746105ef565b6040519081526020016101b2565b61024a610290366004612694565b6105f9565b3480156102a157600080fd5b506102746102b0366004612668565b610609565b61024a6102c3366004612694565b61061c565b3480156102d457600080fd5b5061024a6102e33660046126d5565b610627565b3480156102f457600080fd5b506101a66103033660046123d0565b6106b7565b34801561031457600080fd5b506102746103233660046123d0565b6106c2565b34801561033457600080fd5b5061024a6103433660046127a9565b6106cd565b34801561035457600080fd5b506101f26103633660046123d0565b6106f6565b34801561037457600080fd5b50610274610383366004612801565b610701565b34801561039457600080fd5b5061024a6103a3366004612668565b61070c565b3480156103b457600080fd5b506101d0610940565b3480156103c957600080fd5b5061024a6103d836600461281e565b61094a565b3480156103e957600080fd5b5061024a6103f8366004612857565b610954565b61024a61040b36600461293c565b610a4a565b34801561041c57600080fd5b5061024a61042b3660046129bb565b610a56565b34801561043c57600080fd5b50610274610ac4565b34801561045157600080fd5b506101d06104603660046123d0565b610adc565b34801561047157600080fd5b5061024a610480366004612694565b610ae7565b34801561049157600080fd5b506101a66104a0366004612a3b565b610b7c565b6001600160e01b0319811660009081527ffc606c433378e3a7e0a6a531deac289b66caa1b4aa8554fd4ab2c6f1570f92d8602052604081205460ff165b92915050565b60606104f2610b88565b905090565b60006104f27f79ec1734da2430052e9d78936f451aad707e5bed12ef4806b06dc3d0c38f0e31546001600160a01b031690565b60006104e282610c27565b600080516020612f6c83398151915261054d81610c8a565b60005b84518110156105da576000831561058657600080516020612eec8339815191525461010090046001600160a01b0316905061058a565b5060005b6105c7818784815181106105a0576105a0612a69565b60200260200101518785815181106105ba576105ba612a69565b6020026020010151610c97565b50806105d281612a95565b915050610550565b5050505050565b6105eb8282610d97565b5050565b60006104f2610e8f565b610604838383610ea8565b505050565b60006106158383610eda565b9392505050565b610604838383610f09565b600080516020612eec8339815191525460ff161561069d5760405162461bcd60e51b815260206004820152602860248201527f537465776172644c6963656e736546616365743a20616c726561647920696e696044820152671d1a585b1a5e995960c21b60648201526084015b60405180910390fd5b6106ad8888888888888888610f24565b5050505050505050565b60006104e282611057565b60006104e282611071565b600080516020612f6c8339815191526106e581610c8a565b6106f0848484610c97565b50505050565b60006104e282611092565b60006104e2826110d6565b306001600160a01b0316633882ce8e6040518163ffffffff1660e01b8152600401602060405180830381865afa15801561074a573d6000803e3d6000fd5b505050506040513d601f19601f8201168201806040525081019061076e9190612aae565b6001600160a01b0316336001600160a01b0316146107f45760405162461bcd60e51b815260206004820152603760248201527f537465776172644c6963656e736546616365743a206f6e6c7920696e6974696160448201527f6c206269646465722063616e206d696e7420746f6b656e0000000000000000006064820152608401610694565b306001600160a01b031663be6a2a6d6040518163ffffffff1660e01b8152600401602060405180830381865afa158015610832573d6000803e3d6000fd5b505050506040513d601f19601f820116820180604052508101906108569190612acb565b42106108cc576040805162461bcd60e51b81526020600482015260248101919091527f537465776172644c6963656e736546616365743a2063616e6e6f74206d696e7460448201527f20616674657220696e697469616c20706572696f642073746172742074696d656064820152608401610694565b6108d581611057565b156109345760405162461bcd60e51b815260206004820152602960248201527f537465776172644c6963656e736546616365743a20546f6b656e20616c72656160448201526864792065786973747360b81b6064820152608401610694565b6105eb6000838361112d565b60606104f2611144565b6105eb8282611163565b600080516020612f6c83398151915261096c81610c8a565b8251845114801561097e575081518451145b6109e35760405162461bcd60e51b815260206004820152603060248201527f537465776172644c6963656e736546616365743a20696e70757420617272617960448201526f040d8cadccee8d040dad2e6dac2e8c6d60831b6064820152608401610694565b60005b83518110156105da57610a38858281518110610a0457610a04612a69565b6020026020010151858381518110610a1e57610a1e612a69565b60200260200101518584815181106105ba576105ba612a69565b80610a4281612a95565b9150506109e6565b6106f084848484611217565b600080516020612f6c833981519152610a6e81610c8a565b60005b8663ffffffff168163ffffffff161015610abb57610aa98484610a9a63ffffffff851689612ae4565b610aa4908a612b03565b61124a565b80610ab381612b16565b915050610a71565b50505050505050565b60006104f2600080516020612f2c8339815191525490565b60606104e28261136f565b333014610b715760405162461bcd60e51b815260206004820152604c60248201527f4e6174697665537465776172644c6963656e73653a205472696767657220747260448201527f616e736665722063616e206f6e6c792062652063616c6c65642066726f6d206160648201526b1b9bdd1a195c88199858d95d60a21b608482015260a401610694565b61060483838361112d565b60006106158383611553565b6060600080516020612f4c8339815191528054610ba490612b39565b80601f0160208091040260200160405190810160405280929190818152602001828054610bd090612b39565b8015610c1d5780601f10610bf257610100808354040283529160200191610c1d565b820191906000526020600020905b815481529060010190602001808311610c0057829003601f168201915b5050505050905090565b6000610c3282611057565b610c4f5760405163c1b843ef60e01b815260040160405180910390fd5b5060009081527f3c7bf052874fa81625121783266a03507bd2cd48b16e571c01a04e8dd3fb07a960205260409020546001600160a01b031690565b610c9481336115a0565b50565b600080516020612f2c8339815191528054600080516020612eec833981519152916001906000610cc78385612b03565b909155505060008181527f99574a7094154bb123ae6ae102096f0bf9679b85a5cd1e727aaa0ae5f132e6b460205260409020610d038582612bb9565b507fc7ed1b841b2d3c7f16d15642e7b013e89732e44006608d59c7547b8e331a7ce35480841015610d465760405162461bcd60e51b815260040161069490612c78565b60008281527fc7ed1b841b2d3c7f16d15642e7b013e89732e44006608d59c7547b8e331a7ce9602052604090208490556001600160a01b03861615610d8f57610d8f8683611602565b505050505050565b6000610da282611092565b9050806001600160a01b0316836001600160a01b031603610dd65760405163424a22cb60e01b815260040160405180910390fd5b336001600160a01b03821614801590610df65750610df48133611553565b155b15610e1457604051632f5de44f60e01b815260040160405180910390fd5b60008281527f3c7bf052874fa81625121783266a03507bd2cd48b16e571c01a04e8dd3fb07a9602052604080822080546001600160a01b0319166001600160a01b0387811691821790925591518593918516917f8c5be1e5ebec7d5bd14f71427d1e84f3dd0314c0f7b2291e5b200ac8c7c3b92591a4505050565b60006104f2600080516020612f0c8339815191526116e5565b610eb233826116ef565b610ecf57604051632f5de44f60e01b815260040160405180910390fd5b610604838383611775565b6001600160a01b0382166000908152600080516020612ecc8339815191526020526040812061061590836118f2565b61060483838360405180602001604052806000815250611217565b600080516020612eec83398151915280546001600160a01b03888116610100026001600160a81b03199092169190911760011782557f79ec1734da2430052e9d78936f451aad707e5bed12ef4806b06dc3d0c38f0e318054918b166001600160a01b0319909216919091179055600080516020612f2c8339815191528690556000600080516020612f4c833981519152905080610fc18682612bb9565b5060018101610fd08582612bb9565b5060028101610fdf8482612bb9565b50610ff26301ffc9a760e01b60016118fe565b6110046380ac58cd60e01b60016118fe565b61101c600080516020612f6c8339815191528a611974565b851561104b5760005b87811015611049576110378982611602565b8061104181612a95565b915050611025565b505b50505050505050505050565b60006104e2600080516020612f0c833981519152836119e8565b600061108b600080516020612f0c83398151915283611a00565b5092915050565b6000806110ad600080516020612f0c83398151915284611a1c565b90506001600160a01b0381166104e257604051637e1a7d8b60e01b815260040160405180910390fd5b60006001600160a01b0382166110ff57604051630810ff9760e41b815260040160405180910390fd5b6001600160a01b0382166000908152600080516020612ecc833981519152602052604090206104e2906116e5565b61113681611057565b610ecf576106048282611602565b6060600080516020612f4c8339815191526001018054610ba490612b39565b336001600160a01b0383160361118c5760405163424a22cb60e01b815260040160405180910390fd5b3360008181527f3c7bf052874fa81625121783266a03507bd2cd48b16e571c01a04e8dd3fb07aa602090815260408083206001600160a01b03871680855290835292819020805460ff191686151590811790915590519081529192917f17307eab39ab6107e8899845ad3d59bd9653f200f220920489ca2b5937696c31910160405180910390a35050565b61122133836116ef565b61123e57604051632f5de44f60e01b815260040160405180910390fd5b6106f084848484611a28565b600080516020612f2c8339815191528054600080516020612eec83398151915291600190600061127a8385612b03565b9091555085905061128a82611a5c565b60405160200161129b929190612cfb565b6040516020818303038152906040526112bf600080516020612f4c83398151915290565b600083815260039190910160205260409020906112dc9082612bb9565b507fc7ed1b841b2d3c7f16d15642e7b013e89732e44006608d59c7547b8e331a7ce3548084101561131f5760405162461bcd60e51b815260040161069490612c78565b60008281527fc7ed1b841b2d3c7f16d15642e7b013e89732e44006608d59c7547b8e331a7ce9602052604090208490558415610d8f578254610d8f9061010090046001600160a01b031683611602565b600080516020612f2c83398151915254606090600080516020612eec8339815191529083106113b057604051624705a760e71b815260040160405180910390fd5b60008381527f99574a7094154bb123ae6ae102096f0bf9679b85a5cd1e727aaa0ae5f132e6b4602052604081208054600080516020612f4c8339815191529291906113fa90612b39565b80601f016020809104026020016040519081016040528092919081815260200182805461142690612b39565b80156114735780601f1061144857610100808354040283529160200191611473565b820191906000526020600020905b81548152906001019060200180831161145657829003601f168201915b50505050509050600082600201805461148b90612b39565b80601f01602080910402602001604051908101604052809291908181526020018280546114b790612b39565b80156115045780601f106114d957610100808354040283529160200191611504565b820191906000526020600020905b8154815290600101906020018083116114e757829003601f168201915b5050505050905060008251111561151e5750949350505050565b8061152887611a5c565b604051602001611539929190612cfb565b604051602081830303815290604052945050505050919050565b6001600160a01b0391821660009081527f3c7bf052874fa81625121783266a03507bd2cd48b16e571c01a04e8dd3fb07aa6020908152604080832093909416825291909152205460ff1690565b6115aa8282611b5c565b6105eb576115c0816001600160a01b0316611b93565b6115cb836020611ba5565b6040516020016115dc929190612d2a565b60408051601f198184030181529082905262461bcd60e51b8252610694916004016123bd565b6001600160a01b038216611629576040516311f2988d60e11b815260040160405180910390fd5b61163281611057565b1561165057604051630d86bb7b60e31b815260040160405180910390fd5b61165c60008383611cf7565b6001600160a01b0382166000908152600080516020612ecc83398151915260205260409020600080516020612f0c8339815191529061169b9083611dec565b506116a7818385611df8565b5060405182906001600160a01b038516906000907fddf252ad1be2c89b69c2b068fc378daa952ba7f163c4a11628f55a4df523b3ef908290a4505050565b60006104e2825490565b60006116fa82611057565b6117175760405163c1b843ef60e01b815260040160405180910390fd5b600061172283611092565b9050806001600160a01b0316846001600160a01b0316148061175d5750836001600160a01b031661175284610c27565b6001600160a01b0316145b8061176d575061176d8185611553565b949350505050565b600061178082611092565b9050836001600160a01b0316816001600160a01b0316146117b457604051630f2db4ad60e01b815260040160405180910390fd5b6001600160a01b0383166117db576040516340311a0960e01b815260040160405180910390fd5b6117e6848484611cf7565b6001600160a01b0384166000908152600080516020612ecc83398151915260205260409020600080516020612f0c833981519152906118259084611e0e565b506001600160a01b0384166000908152600282016020526040902061184a9084611dec565b50611856818486611df8565b50600083815260038201602052604080822080546001600160a01b0319169055518491906001600160a01b038516907f8c5be1e5ebec7d5bd14f71427d1e84f3dd0314c0f7b2291e5b200ac8c7c3b925908390a482846001600160a01b0316866001600160a01b03167fddf252ad1be2c89b69c2b068fc378daa952ba7f163c4a11628f55a4df523b3ef60405160405180910390a45050505050565b60006106158383611e1a565b6001600160e01b031980831690036119295760405163b0a19dd560e01b815260040160405180910390fd5b6001600160e01b03199190911660009081527ffc606c433378e3a7e0a6a531deac289b66caa1b4aa8554fd4ab2c6f1570f92d860205260409020805460ff1916911515919091179055565b60008281527fd3889cc5458b268d0544e5534672df1296288ca3f93cbd39bd6f497a5c622811602052604090206119ab9082611e66565b5060405133906001600160a01b0383169084907f2f8788117e7eff1d82e926ec794901d17c78024a50270940304540a733656f0d90600090a45050565b60008181526001830160205260408120541515610615565b6000808080611a0f8686611e7b565b9097909650945050505050565b60006106158383611ede565b611a33848484611775565b611a3f84848484611f42565b6106f057604051639ff10cdd60e01b815260040160405180910390fd5b606081600003611a835750506040805180820190915260018152600360fc1b602082015290565b8160005b8115611aad5780611a9781612a95565b9150611aa69050600a83612db5565b9150611a87565b6000816001600160401b03811115611ac757611ac76123e9565b6040519080825280601f01601f191660200182016040528015611af1576020820181803683370190505b5090505b841561176d57611b06600183612dc9565b9150611b13600a86612ddc565b611b1e906030612b03565b60f81b818381518110611b3357611b33612a69565b60200101906001600160f81b031916908160001a905350611b55600a86612db5565b9450611af5565b60008281527fd3889cc5458b268d0544e5534672df1296288ca3f93cbd39bd6f497a5c622811602052604081206106159083612013565b60606104e26001600160a01b03831660145b60606000611bb4836002612ae4565b611bbf906002612b03565b6001600160401b03811115611bd657611bd66123e9565b6040519080825280601f01601f191660200182016040528015611c00576020820181803683370190505b509050600360fc1b81600081518110611c1b57611c1b612a69565b60200101906001600160f81b031916908160001a905350600f60fb1b81600181518110611c4a57611c4a612a69565b60200101906001600160f81b031916908160001a905350600160028402015b6001811115611cd7576f181899199a1a9b1b9c1cb0b131b232b360811b85600f1660108110611c9a57611c9a612a69565b1a60f81b828281518110611cb057611cb0612a69565b60200101906001600160f81b031916908160001a90535060049490941c9360001901611c69565b5083156106155760405163c913478560e01b815260040160405180910390fd5b6001600160a01b03831615611de15760405163a7c12c1160e01b815260048101829052600090309063a7c12c1190602401602060405180830381865afa158015611d45573d6000803e3d6000fd5b505050506040513d601f19601f82011682018060405250810190611d699190612df0565b90508015611ddf5760405162461bcd60e51b815260206004820152603a60248201527f537465776172644c6963656e736546616365743a2043616e6e6f74207472616e60448201527f7366657220647572696e672061756374696f6e20706572696f640000000000006064820152608401610694565b505b610604838383612035565b60006106158383612040565b600061176d84846001600160a01b038516612083565b60006106158383612122565b81546000908210611e3e5760405163e637bf3b60e01b815260040160405180910390fd5b826000018281548110611e5357611e53612a69565b9060005260206000200154905092915050565b6000610615836001600160a01b038416612040565b815460009081908310611ea15760405163022fd82760e31b815260040160405180910390fd5b6000846000018481548110611eb857611eb8612a69565b906000526020600020906002020190508060000154816001015492509250509250929050565b6000818152600183016020526040812054808203611f0f57604051633d547ec560e21b815260040160405180910390fd5b836000016001820381548110611f2757611f27612a69565b90600052602060002090600202016001015491505092915050565b60006001600160a01b0384163b611f5b5750600161176d565b6000611fdc63150b7a0260e01b33888787604051602401611f7f9493929190612e0d565b604051602081830303815290604052906001600160e01b0319166020820180516001600160e01b038381831617835250505050604051806060016040528060328152602001612e9a603291396001600160a01b03881691906121dc565b9050600081806020019051810190611ff49190612e4a565b6001600160e01b031916630a85bd0160e11b1492505050949350505050565b6001600160a01b03811660009081526001830160205260408120541515610615565b6106048383836121eb565b60008181526001830160205260408120546104e2575081546001808201845560008481526020808220909301849055845493815293810190915260409092205590565b60008281526001840160205260408120548082036120ea575050604080518082018252838152602080820184815286546001818101895560008981528481209551600290930290950191825591519082015586548684528188019092529290912055610615565b8285600001600183038154811061210357612103612a69565b9060005260206000209060020201600101819055506000915050610615565b6000818152600183016020526040812054801561108b5783546000908590600019810190811061215457612154612a69565b906000526020600020015490508085600001600184038154811061217a5761217a612a69565b60009182526020808320909101929092559182526001860190526040902081905583548490806121ac576121ac612e67565b60008281526020808220830160001990810183905590920190925593815260019485019093525050604081205590565b606061176d848460008561222f565b6001600160a01b0382166106045760008181527f99574a7094154bb123ae6ae102096f0bf9679b85a5cd1e727aaa0ae5f132e6b460205260408120610604916122ec565b6060843b61225057604051632270d6bf60e21b815260040160405180910390fd5b600080866001600160a01b0316858760405161226c9190612e7d565b60006040518083038185875af1925050503d80600081146122a9576040519150601f19603f3d011682016040523d82523d6000602084013e6122ae565b606091505b509150915081156122c257915061176d9050565b8051156122d25780518082602001fd5b8360405162461bcd60e51b815260040161069491906123bd565b5080546122f890612b39565b6000825580601f10612308575050565b601f016020900490600052602060002090810190610c9491905b808211156123365760008155600101612322565b5090565b6001600160e01b031981168114610c9457600080fd5b60006020828403121561236257600080fd5b81356106158161233a565b60005b83811015612388578181015183820152602001612370565b50506000910152565b600081518084526123a981602086016020860161236d565b601f01601f19169290920160200192915050565b6020815260006106156020830184612391565b6000602082840312156123e257600080fd5b5035919050565b634e487b7160e01b600052604160045260246000fd5b604051601f8201601f191681016001600160401b0381118282101715612427576124276123e9565b604052919050565b60006001600160401b03821115612448576124486123e9565b5060051b60200190565b60006001600160401b0383111561246b5761246b6123e9565b61247e601f8401601f19166020016123ff565b905082815283838301111561249257600080fd5b828260208301376000602084830101529392505050565b600082601f8301126124ba57600080fd5b61061583833560208501612452565b600082601f8301126124da57600080fd5b813560206124ef6124ea8361242f565b6123ff565b82815260059290921b8401810191818101908684111561250e57600080fd5b8286015b8481101561254d5780356001600160401b038111156125315760008081fd5b61253f8986838b01016124a9565b845250918301918301612512565b509695505050505050565b600082601f83011261256957600080fd5b813560206125796124ea8361242f565b82815260059290921b8401810191818101908684111561259857600080fd5b8286015b8481101561254d578035835291830191830161259c565b8015158114610c9457600080fd5b80356125cc816125b3565b919050565b6000806000606084860312156125e657600080fd5b83356001600160401b03808211156125fd57600080fd5b612609878388016124c9565b9450602086013591508082111561261f57600080fd5b5061262c86828701612558565b925050604084013561263d816125b3565b809150509250925092565b6001600160a01b0381168114610c9457600080fd5b80356125cc81612648565b6000806040838503121561267b57600080fd5b823561268681612648565b946020939093013593505050565b6000806000606084860312156126a957600080fd5b83356126b481612648565b925060208401356126c481612648565b929592945050506040919091013590565b600080600080600080600080610100898b0312156126f257600080fd5b6126fb8961265d565b975061270960208a0161265d565b965061271760408a0161265d565b95506060890135945061272c60808a016125c1565b935060a08901356001600160401b038082111561274857600080fd5b6127548c838d016124a9565b945060c08b013591508082111561276a57600080fd5b6127768c838d016124a9565b935060e08b013591508082111561278c57600080fd5b506127998b828c016124a9565b9150509295985092959890939650565b6000806000606084860312156127be57600080fd5b83356127c981612648565b925060208401356001600160401b038111156127e457600080fd5b6127f0868287016124a9565b925050604084013590509250925092565b60006020828403121561281357600080fd5b813561061581612648565b6000806040838503121561283157600080fd5b823561283c81612648565b9150602083013561284c816125b3565b809150509250929050565b60008060006060848603121561286c57600080fd5b83356001600160401b038082111561288357600080fd5b818601915086601f83011261289757600080fd5b813560206128a76124ea8361242f565b82815260059290921b8401810191818101908a8411156128c657600080fd5b948201945b838610156128ed5785356128de81612648565b825294820194908201906128cb565b9750508701359250508082111561290357600080fd5b61290f878388016124c9565b9350604086013591508082111561292557600080fd5b5061293286828701612558565b9150509250925092565b6000806000806080858703121561295257600080fd5b843561295d81612648565b9350602085013561296d81612648565b92506040850135915060608501356001600160401b0381111561298f57600080fd5b8501601f810187136129a057600080fd5b6129af87823560208401612452565b91505092959194509250565b600080600080600060a086880312156129d357600080fd5b853563ffffffff811681146129e757600080fd5b9450602086013593506040860135925060608601356001600160401b03811115612a1057600080fd5b612a1c888289016124a9565b9250506080860135612a2d816125b3565b809150509295509295909350565b60008060408385031215612a4e57600080fd5b8235612a5981612648565b9150602083013561284c81612648565b634e487b7160e01b600052603260045260246000fd5b634e487b7160e01b600052601160045260246000fd5b600060018201612aa757612aa7612a7f565b5060010190565b600060208284031215612ac057600080fd5b815161061581612648565b600060208284031215612add57600080fd5b5051919050565b6000816000190483118215151615612afe57612afe612a7f565b500290565b808201808211156104e2576104e2612a7f565b600063ffffffff808316818103612b2f57612b2f612a7f565b6001019392505050565b600181811c90821680612b4d57607f821691505b602082108103612b6d57634e487b7160e01b600052602260045260246000fd5b50919050565b601f82111561060457600081815260208120601f850160051c81016020861015612b9a5750805b601f850160051c820191505b81811015610d8f57828155600101612ba6565b81516001600160401b03811115612bd257612bd26123e9565b612be681612be08454612b39565b84612b73565b602080601f831160018114612c1b5760008415612c035750858301515b600019600386901b1c1916600185901b178555610d8f565b600085815260208120601f198616915b82811015612c4a57888601518255948401946001909101908401612c2b565b5085821015612c685787850151600019600388901b60f8161c191681555b5050505050600190811b01905550565b60208082526059908201527f537465776172644c6963656e736546616365743a204e657720706572696f642060408201527f74696d65206d7573742062652067726561746572207468616e206f722065717560608201527f616c20746f2063757272656e7420706572696f642074696d6500000000000000608082015260a00190565b60008351612d0d81846020880161236d565b835190830190612d2181836020880161236d565b01949350505050565b7f416363657373436f6e74726f6c3a206163636f756e7420000000000000000000815260008351612d6281601785016020880161236d565b7001034b99036b4b9b9b4b733903937b6329607d1b6017918401918201528351612d9381602884016020880161236d565b01602801949350505050565b634e487b7160e01b600052601260045260246000fd5b600082612dc457612dc4612d9f565b500490565b818103818111156104e2576104e2612a7f565b600082612deb57612deb612d9f565b500690565b600060208284031215612e0257600080fd5b8151610615816125b3565b6001600160a01b0385811682528416602082015260408101839052608060608201819052600090612e4090830184612391565b9695505050505050565b600060208284031215612e5c57600080fd5b81516106158161233a565b634e487b7160e01b600052603160045260246000fd5b60008251612e8f81846020870161236d565b919091019291505056fe4552433732313a207472616e7366657220746f206e6f6e20455243373231526563656976657220696d706c656d656e7465723c7bf052874fa81625121783266a03507bd2cd48b16e571c01a04e8dd3fb07a879ec1734da2430052e9d78936f451aad707e5bed12ef4806b06dc3d0c38f0e303c7bf052874fa81625121783266a03507bd2cd48b16e571c01a04e8dd3fb07a679ec1734da2430052e9d78936f451aad707e5bed12ef4806b06dc3d0c38f0e3299574a7094154bb123ae6ae102096f0bf9679b85a5cd1e727aaa0ae5f132e6b17b62b800d8c954aa32a34a9249066e0f8761d6c1614c95cbc05c04ab0583a14ca2646970667358221220453853a00e5cca06e198dde89c281ce16f459444199c158e9b6cd6f3f547b5d664736f6c63430008100033",
  "devdoc": {
    "details": "ERC-1155 token license for Steward. Transfers are disabled during an auction",
    "kind": "dev",
    "methods": {
      "approve(address,uint256)": {
        "params": {
          "operator": "address to be approved",
          "tokenId": "token to approve"
        }
      },
      "balanceOf(address)": {
        "returns": {
          "_0": "quantity of tokens held"
        }
      },
      "getApproved(uint256)": {
        "params": {
          "tokenId": "token to query"
        },
        "returns": {
          "_0": "address approved to spend token"
        }
      },
      "isApprovedForAll(address,address)": {
        "params": {
          "account": "address to query for approval granted",
          "operator": "address to query for approval received"
        },
        "returns": {
          "_0": "whether operator is approved to spend tokens held by account"
        }
      },
      "ownerOf(uint256)": {
        "params": {
          "tokenId": "token to query"
        },
        "returns": {
          "_0": "token owner"
        }
      },
      "safeTransferFrom(address,address,uint256)": {
        "params": {
          "from": "sender of token",
          "to": "receiver of token",
          "tokenId": "token id"
        }
      },
      "safeTransferFrom(address,address,uint256,bytes)": {
        "params": {
          "data": "data payload",
          "from": "sender of token",
          "to": "receiver of token",
          "tokenId": "token id"
        }
      },
      "setApprovalForAll(address,bool)": {
        "params": {
          "operator": "address to be approved",
          "status": "approval status"
        }
      },
      "supportsInterface(bytes4)": {
        "params": {
          "interfaceId": "interface id"
        },
        "returns": {
          "_0": "bool whether interface is supported"
        }
      },
      "tokenByIndex(uint256)": {
        "params": {
          "index": "position in global token list to query"
        },
        "returns": {
          "_0": "id of retrieved token"
        }
      },
      "tokenOfOwnerByIndex(address,uint256)": {
        "params": {
          "index": "position in owner's token list to query",
          "owner": "token holder to query"
        },
        "returns": {
          "_0": "id of retrieved token"
        }
      },
      "totalSupply()": {
        "returns": {
          "_0": "total supply"
        }
      },
      "transferFrom(address,address,uint256)": {
        "params": {
          "from": "sender of token",
          "to": "receiver of token",
          "tokenId": "token id"
        }
      }
    },
    "title": "NativeStewardLicenseFacet",
    "version": 1
  },
  "userdoc": {
    "kind": "user",
    "methods": {
      "addTokenToCollection(address,string,uint256)": {
        "notice": "Add token to collection"
      },
      "addTokensToCollection(address[],string[],uint256[])": {
        "notice": "Add tokens to collection with to"
      },
      "addTokensToCollection(string[],uint256[],bool)": {
        "notice": "Add tokens to collection"
      },
      "addTokensWithBaseURIToCollection(uint32,uint256,uint256,string,bool)": {
        "notice": "Add tokens to collection with baseURI"
      },
      "approve(address,uint256)": {
        "notice": "grant approval to given account to spend token"
      },
      "balanceOf(address)": {
        "notice": "query the balance of given address"
      },
      "exists(uint256)": {
        "notice": "Check if token exists"
      },
      "getApproved(uint256)": {
        "notice": "get approval status for given token"
      },
      "initializeStewardLicense(address,address,address,uint256,bool,string,string,string)": {
        "notice": "Initialize license"
      },
      "isApprovedForAll(address,address)": {
        "notice": "query approval status of given operator with respect to given address"
      },
      "maxTokenCount()": {
        "notice": "Get max token count"
      },
      "mintToken(address,uint256)": {
        "notice": "Initial bidder can mint token if it doesn't exist"
      },
      "minter()": {
        "notice": "Get minter"
      },
      "name()": {
        "notice": "inheritdoc IERC721Metadata"
      },
      "ownerOf(uint256)": {
        "notice": "query the owner of given token"
      },
      "safeTransferFrom(address,address,uint256)": {
        "notice": "transfer token between given addresses, checking for ERC721Receiver implementation if applicable"
      },
      "safeTransferFrom(address,address,uint256,bytes)": {
        "notice": "transfer token between given addresses, checking for ERC721Receiver implementation if applicable"
      },
      "setApprovalForAll(address,bool)": {
        "notice": "grant approval to or revoke approval from given account to spend all tokens held by sender"
      },
      "supportsInterface(bytes4)": {
        "notice": "query whether contract has registered support for given interface"
      },
      "symbol()": {
        "notice": "inheritdoc IERC721Metadata"
      },
      "tokenByIndex(uint256)": {
        "notice": "get token at given internal storage index"
      },
      "tokenOfOwnerByIndex(address,uint256)": {
        "notice": "get token of given owner at given internal storage index"
      },
      "tokenURI(uint256)": {
        "notice": "inheritdoc IERC721Metadata"
      },
      "totalSupply()": {
        "notice": "get total token supply"
      },
      "transferFrom(address,address,uint256)": {
        "notice": "transfer token between given addresses, without checking for ERC721Receiver implementation if applicable"
      },
      "triggerTransfer(address,address,uint256)": {
        "notice": "Trigger transfer of license"
      }
    },
    "version": 1
  },
  "storageLayout": {
    "storage": [],
    "types": null
  }
}