{
  "address": "0xeaf22CcBCA3b065F152C2CCeEFFC3C38b3CC106b",
  "abi": [
    {
      "inputs": [],
      "name": "AddressUtils__NotContract",
      "type": "error"
    },
    {
      "inputs": [],
      "name": "ERC165Base__InvalidInterfaceId",
      "type": "error"
    },
    {
      "inputs": [],
      "name": "ERC721Base__BalanceQueryZeroAddress",
      "type": "error"
    },
    {
      "inputs": [],
      "name": "ERC721Base__ERC721ReceiverNotImplemented",
      "type": "error"
    },
    {
      "inputs": [],
      "name": "ERC721Base__InvalidOwner",
      "type": "error"
    },
    {
      "inputs": [],
      "name": "ERC721Base__MintToZeroAddress",
      "type": "error"
    },
    {
      "inputs": [],
      "name": "ERC721Base__NonExistentToken",
      "type": "error"
    },
    {
      "inputs": [],
      "name": "ERC721Base__NotOwnerOrApproved",
      "type": "error"
    },
    {
      "inputs": [],
      "name": "ERC721Base__NotTokenOwner",
      "type": "error"
    },
    {
      "inputs": [],
      "name": "ERC721Base__SelfApproval",
      "type": "error"
    },
    {
      "inputs": [],
      "name": "ERC721Base__TokenAlreadyMinted",
      "type": "error"
    },
    {
      "inputs": [],
      "name": "ERC721Base__TransferToZeroAddress",
      "type": "error"
    },
    {
      "inputs": [],
      "name": "ERC721Metadata__NonExistentToken",
      "type": "error"
    },
    {
      "inputs": [],
      "name": "EnumerableMap__IndexOutOfBounds",
      "type": "error"
    },
    {
      "inputs": [],
      "name": "EnumerableMap__NonExistentKey",
      "type": "error"
    },
    {
      "inputs": [],
      "name": "EnumerableSet__IndexOutOfBounds",
      "type": "error"
    },
    {
      "inputs": [],
      "name": "UintUtils__InsufficientHexLength",
      "type": "error"
    },
    {
      "anonymous": false,
      "inputs": [
        {
          "indexed": true,
          "internalType": "address",
          "name": "owner",
          "type": "address"
        },
        {
          "indexed": true,
          "internalType": "address",
          "name": "operator",
          "type": "address"
        },
        {
          "indexed": true,
          "internalType": "uint256",
          "name": "tokenId",
          "type": "uint256"
        }
      ],
      "name": "Approval",
      "type": "event"
    },
    {
      "anonymous": false,
      "inputs": [
        {
          "indexed": true,
          "internalType": "address",
          "name": "owner",
          "type": "address"
        },
        {
          "indexed": true,
          "internalType": "address",
          "name": "operator",
          "type": "address"
        },
        {
          "indexed": false,
          "internalType": "bool",
          "name": "approved",
          "type": "bool"
        }
      ],
      "name": "ApprovalForAll",
      "type": "event"
    },
    {
      "anonymous": false,
      "inputs": [
        {
          "indexed": true,
          "internalType": "bytes32",
          "name": "role",
          "type": "bytes32"
        },
        {
          "indexed": true,
          "internalType": "bytes32",
          "name": "previousAdminRole",
          "type": "bytes32"
        },
        {
          "indexed": true,
          "internalType": "bytes32",
          "name": "newAdminRole",
          "type": "bytes32"
        }
      ],
      "name": "RoleAdminChanged",
      "type": "event"
    },
    {
      "anonymous": false,
      "inputs": [
        {
          "indexed": true,
          "internalType": "bytes32",
          "name": "role",
          "type": "bytes32"
        },
        {
          "indexed": true,
          "internalType": "address",
          "name": "account",
          "type": "address"
        },
        {
          "indexed": true,
          "internalType": "address",
          "name": "sender",
          "type": "address"
        }
      ],
      "name": "RoleGranted",
      "type": "event"
    },
    {
      "anonymous": false,
      "inputs": [
        {
          "indexed": true,
          "internalType": "bytes32",
          "name": "role",
          "type": "bytes32"
        },
        {
          "indexed": true,
          "internalType": "address",
          "name": "account",
          "type": "address"
        },
        {
          "indexed": true,
          "internalType": "address",
          "name": "sender",
          "type": "address"
        }
      ],
      "name": "RoleRevoked",
      "type": "event"
    },
    {
      "anonymous": false,
      "inputs": [
        {
          "indexed": true,
          "internalType": "address",
          "name": "from",
          "type": "address"
        },
        {
          "indexed": true,
          "internalType": "address",
          "name": "to",
          "type": "address"
        },
        {
          "indexed": true,
          "internalType": "uint256",
          "name": "tokenId",
          "type": "uint256"
        }
      ],
      "name": "Transfer",
      "type": "event"
    },
    {
      "inputs": [
        {
          "internalType": "address",
          "name": "to",
          "type": "address"
        },
        {
          "internalType": "string",
          "name": "tokenURI",
          "type": "string"
        },
        {
          "internalType": "uint256",
          "name": "tokenInitialPeriodStartTime",
          "type": "uint256"
        }
      ],
      "name": "addTokenToCollection",
      "outputs": [],
      "stateMutability": "nonpayable",
      "type": "function"
    },
    {
      "inputs": [
        {
          "internalType": "string[]",
          "name": "tokenURIs",
          "type": "string[]"
        },
        {
          "internalType": "uint256[]",
          "name": "tokenInitialPeriodStartTimes",
          "type": "uint256[]"
        },
        {
          "internalType": "bool",
          "name": "shouldMint",
          "type": "bool"
        }
      ],
      "name": "addTokensToCollection",
      "outputs": [],
      "stateMutability": "nonpayable",
      "type": "function"
    },
    {
      "inputs": [
        {
          "internalType": "address[]",
          "name": "to",
          "type": "address[]"
        },
        {
          "internalType": "string[]",
          "name": "tokenURIs",
          "type": "string[]"
        },
        {
          "internalType": "uint256[]",
          "name": "tokenInitialPeriodStartTimes",
          "type": "uint256[]"
        }
      ],
      "name": "addTokensToCollection",
      "outputs": [],
      "stateMutability": "nonpayable",
      "type": "function"
    },
    {
      "inputs": [
        {
          "internalType": "uint32",
          "name": "amount",
          "type": "uint32"
        },
        {
          "internalType": "uint256",
          "name": "initialPeriodStartTime",
          "type": "uint256"
        },
        {
          "internalType": "uint256",
          "name": "initialPeriodStartTimeOffset",
          "type": "uint256"
        },
        {
          "internalType": "string",
          "name": "baseURI",
          "type": "string"
        },
        {
          "internalType": "bool",
          "name": "shouldMint",
          "type": "bool"
        }
      ],
      "name": "addTokensWithBaseURIToCollection",
      "outputs": [],
      "stateMutability": "nonpayable",
      "type": "function"
    },
    {
      "inputs": [
        {
          "internalType": "address",
          "name": "operator",
          "type": "address"
        },
        {
          "internalType": "uint256",
          "name": "tokenId",
          "type": "uint256"
        }
      ],
      "name": "approve",
      "outputs": [],
      "stateMutability": "payable",
      "type": "function"
    },
    {
      "inputs": [
        {
          "internalType": "address",
          "name": "account",
          "type": "address"
        }
      ],
      "name": "balanceOf",
      "outputs": [
        {
          "internalType": "uint256",
          "name": "",
          "type": "uint256"
        }
      ],
      "stateMutability": "view",
      "type": "function"
    },
    {
      "inputs": [
        {
          "internalType": "uint256",
          "name": "tokenId",
          "type": "uint256"
        }
      ],
      "name": "exists",
      "outputs": [
        {
          "internalType": "bool",
          "name": "",
          "type": "bool"
        }
      ],
      "stateMutability": "view",
      "type": "function"
    },
    {
      "inputs": [
        {
          "internalType": "uint256",
          "name": "tokenId",
          "type": "uint256"
        }
      ],
      "name": "getApproved",
      "outputs": [
        {
          "internalType": "address",
          "name": "",
          "type": "address"
        }
      ],
      "stateMutability": "view",
      "type": "function"
    },
    {
      "inputs": [
        {
          "internalType": "address",
          "name": "tokenAddress",
          "type": "address"
        },
        {
          "internalType": "uint256",
          "name": "tokenId",
          "type": "uint256"
        },
        {
          "internalType": "address",
          "name": "minter_",
          "type": "address"
        },
        {
          "internalType": "address",
          "name": "addToCollectionMinter_",
          "type": "address"
        },
        {
          "internalType": "address",
          "name": "steward_",
          "type": "address"
        },
        {
          "internalType": "uint256",
          "name": "maxTokenCount_",
          "type": "uint256"
        },
        {
          "internalType": "bool",
          "name": "shouldMint",
          "type": "bool"
        },
        {
          "internalType": "string",
          "name": "name",
          "type": "string"
        },
        {
          "internalType": "string",
          "name": "symbol",
          "type": "string"
        },
        {
          "internalType": "string",
          "name": "tokenURI",
          "type": "string"
        }
      ],
      "name": "initializeWrappedStewardLicense",
      "outputs": [],
      "stateMutability": "nonpayable",
      "type": "function"
    },
    {
      "inputs": [
        {
          "internalType": "address",
          "name": "account",
          "type": "address"
        },
        {
          "internalType": "address",
          "name": "operator",
          "type": "address"
        }
      ],
      "name": "isApprovedForAll",
      "outputs": [
        {
          "internalType": "bool",
          "name": "",
          "type": "bool"
        }
      ],
      "stateMutability": "view",
      "type": "function"
    },
    {
      "inputs": [],
      "name": "maxTokenCount",
      "outputs": [
        {
          "internalType": "uint256",
          "name": "",
          "type": "uint256"
        }
      ],
      "stateMutability": "view",
      "type": "function"
    },
    {
      "inputs": [
        {
          "internalType": "address",
          "name": "to",
          "type": "address"
        },
        {
          "internalType": "uint256",
          "name": "tokenId",
          "type": "uint256"
        }
      ],
      "name": "mintToken",
      "outputs": [],
      "stateMutability": "nonpayable",
      "type": "function"
    },
    {
      "inputs": [],
      "name": "minter",
      "outputs": [
        {
          "internalType": "address",
          "name": "",
          "type": "address"
        }
      ],
      "stateMutability": "view",
      "type": "function"
    },
    {
      "inputs": [],
      "name": "name",
      "outputs": [
        {
          "internalType": "string",
          "name": "",
          "type": "string"
        }
      ],
      "stateMutability": "view",
      "type": "function"
    },
    {
      "inputs": [
        {
          "internalType": "address",
          "name": "",
          "type": "address"
        },
        {
          "internalType": "address",
          "name": "",
          "type": "address"
        },
        {
          "internalType": "uint256[]",
          "name": "ids",
          "type": "uint256[]"
        },
        {
          "internalType": "uint256[]",
          "name": "values",
          "type": "uint256[]"
        },
        {
          "internalType": "bytes",
          "name": "",
          "type": "bytes"
        }
      ],
      "name": "onERC1155BatchReceived",
      "outputs": [
        {
          "internalType": "bytes4",
          "name": "",
          "type": "bytes4"
        }
      ],
      "stateMutability": "view",
      "type": "function"
    },
    {
      "inputs": [
        {
          "internalType": "address",
          "name": "",
          "type": "address"
        },
        {
          "internalType": "address",
          "name": "",
          "type": "address"
        },
        {
          "internalType": "uint256",
          "name": "id",
          "type": "uint256"
        },
        {
          "internalType": "uint256",
          "name": "value",
          "type": "uint256"
        },
        {
          "internalType": "bytes",
          "name": "",
          "type": "bytes"
        }
      ],
      "name": "onERC1155Received",
      "outputs": [
        {
          "internalType": "bytes4",
          "name": "",
          "type": "bytes4"
        }
      ],
      "stateMutability": "view",
      "type": "function"
    },
    {
      "inputs": [
        {
          "internalType": "uint256",
          "name": "tokenId",
          "type": "uint256"
        }
      ],
      "name": "ownerOf",
      "outputs": [
        {
          "internalType": "address",
          "name": "",
          "type": "address"
        }
      ],
      "stateMutability": "view",
      "type": "function"
    },
    {
      "inputs": [
        {
          "internalType": "address",
          "name": "from",
          "type": "address"
        },
        {
          "internalType": "address",
          "name": "to",
          "type": "address"
        },
        {
          "internalType": "uint256",
          "name": "tokenId",
          "type": "uint256"
        }
      ],
      "name": "safeTransferFrom",
      "outputs": [],
      "stateMutability": "payable",
      "type": "function"
    },
    {
      "inputs": [
        {
          "internalType": "address",
          "name": "from",
          "type": "address"
        },
        {
          "internalType": "address",
          "name": "to",
          "type": "address"
        },
        {
          "internalType": "uint256",
          "name": "tokenId",
          "type": "uint256"
        },
        {
          "internalType": "bytes",
          "name": "data",
          "type": "bytes"
        }
      ],
      "name": "safeTransferFrom",
      "outputs": [],
      "stateMutability": "payable",
      "type": "function"
    },
    {
      "inputs": [
        {
          "internalType": "address",
          "name": "operator",
          "type": "address"
        },
        {
          "internalType": "bool",
          "name": "status",
          "type": "bool"
        }
      ],
      "name": "setApprovalForAll",
      "outputs": [],
      "stateMutability": "nonpayable",
      "type": "function"
    },
    {
      "inputs": [
        {
          "internalType": "bytes4",
          "name": "interfaceId",
          "type": "bytes4"
        }
      ],
      "name": "supportsInterface",
      "outputs": [
        {
          "internalType": "bool",
          "name": "",
          "type": "bool"
        }
      ],
      "stateMutability": "view",
      "type": "function"
    },
    {
      "inputs": [],
      "name": "symbol",
      "outputs": [
        {
          "internalType": "string",
          "name": "",
          "type": "string"
        }
      ],
      "stateMutability": "view",
      "type": "function"
    },
    {
      "inputs": [
        {
          "internalType": "uint256",
          "name": "index",
          "type": "uint256"
        }
      ],
      "name": "tokenByIndex",
      "outputs": [
        {
          "internalType": "uint256",
          "name": "",
          "type": "uint256"
        }
      ],
      "stateMutability": "view",
      "type": "function"
    },
    {
      "inputs": [
        {
          "internalType": "address",
          "name": "owner",
          "type": "address"
        },
        {
          "internalType": "uint256",
          "name": "index",
          "type": "uint256"
        }
      ],
      "name": "tokenOfOwnerByIndex",
      "outputs": [
        {
          "internalType": "uint256",
          "name": "",
          "type": "uint256"
        }
      ],
      "stateMutability": "view",
      "type": "function"
    },
    {
      "inputs": [
        {
          "internalType": "uint256",
          "name": "tokenId",
          "type": "uint256"
        }
      ],
      "name": "tokenURI",
      "outputs": [
        {
          "internalType": "string",
          "name": "",
          "type": "string"
        }
      ],
      "stateMutability": "view",
      "type": "function"
    },
    {
      "inputs": [],
      "name": "totalSupply",
      "outputs": [
        {
          "internalType": "uint256",
          "name": "",
          "type": "uint256"
        }
      ],
      "stateMutability": "view",
      "type": "function"
    },
    {
      "inputs": [
        {
          "internalType": "address",
          "name": "from",
          "type": "address"
        },
        {
          "internalType": "address",
          "name": "to",
          "type": "address"
        },
        {
          "internalType": "uint256",
          "name": "tokenId",
          "type": "uint256"
        }
      ],
      "name": "transferFrom",
      "outputs": [],
      "stateMutability": "payable",
      "type": "function"
    },
    {
      "inputs": [
        {
          "internalType": "address",
          "name": "from",
          "type": "address"
        },
        {
          "internalType": "address",
          "name": "to",
          "type": "address"
        },
        {
          "internalType": "uint256",
          "name": "tokenId",
          "type": "uint256"
        }
      ],
      "name": "triggerTransfer",
      "outputs": [],
      "stateMutability": "nonpayable",
      "type": "function"
    }
  ],
  "transactionHash": "0x14f6bae2e0831e6bbfb74cecd6da6ac86506281d8e6e2a5884afe8c4e0897160",
  "args": [],
  "numDeployments": 2,
  "solcInputHash": "628c05008e1b5e62f06b0d0b01c96784",
  "bytecode": "0x608060405234801561001057600080fd5b506135fe806100206000396000f3fe6080604052600436106101b75760003560e01c80636352211e116100ec578063bc197c811161008a578063c87b56dd11610064578063c87b56dd146104b4578063e31a7c01146104d4578063e985e9c5146104f4578063f23a6e611461051457600080fd5b8063bc197c8114610446578063c3f75fc11461047f578063c4e627c21461049f57600080fd5b806395d89b41116100c657806395d89b41146103de578063a22cb465146103f3578063a8de31cd14610413578063b88d4fde1461043357600080fd5b80636352211e1461037e57806370a082311461039e57806379c65068146103be57600080fd5b806318160ddd1161015957806342842e0e1161013357806342842e0e1461030b5780634f558e791461031e5780634f6ccce71461033e5780635d3c438e1461035e57600080fd5b806318160ddd146102b557806323b872dd146102d85780632f745c59146102eb57600080fd5b806307546172116101955780630754617214610235578063081812fc146102625780630849cc6914610282578063095ea7b3146102a257600080fd5b806301ffc9a7146101bc57806303e8224e146101f157806306fdde0314610213575b600080fd5b3480156101c857600080fd5b506101dc6101d7366004612662565b610534565b60405190151581526020015b60405180910390f35b3480156101fd57600080fd5b5061021161020c36600461277a565b610577565b005b34801561021f57600080fd5b50610228610663565b6040516101e891906128ba565b34801561024157600080fd5b5061024a610672565b6040516001600160a01b0390911681526020016101e8565b34801561026e57600080fd5b5061024a61027d3660046128cd565b6106a5565b34801561028e57600080fd5b5061021161029d3660046129f3565b6106b0565b6102116102b0366004612a6a565b61075c565b3480156102c157600080fd5b506102ca61076a565b6040519081526020016101e8565b6102116102e6366004612a96565b610774565b3480156102f757600080fd5b506102ca610306366004612a6a565b610784565b610211610319366004612a96565b610797565b34801561032a57600080fd5b506101dc6103393660046128cd565b6107a2565b34801561034a57600080fd5b506102ca6103593660046128cd565b6107ad565b34801561036a57600080fd5b50610211610379366004612ad7565b6107b8565b34801561038a57600080fd5b5061024a6103993660046128cd565b6107e1565b3480156103aa57600080fd5b506102ca6103b9366004612b2f565b6107ec565b3480156103ca57600080fd5b506102116103d9366004612a6a565b6107f7565b3480156103ea57600080fd5b50610228610a2b565b3480156103ff57600080fd5b5061021161040e366004612b4c565b610a35565b34801561041f57600080fd5b5061021161042e366004612b85565b610a3f565b610211610441366004612c6a565b610b35565b34801561045257600080fd5b50610466610461366004612d6e565b610b41565b6040516001600160e01b031990911681526020016101e8565b34801561048b57600080fd5b5061021161049a366004612e2c565b610c7a565b3480156104ab57600080fd5b506102ca610ce8565b3480156104c057600080fd5b506102286104cf3660046128cd565b610d00565b3480156104e057600080fd5b506102116104ef366004612a96565b610d0b565b34801561050057600080fd5b506101dc61050f366004612eac565b610da0565b34801561052057600080fd5b5061046661052f366004612eda565b610dac565b6001600160e01b0319811660009081527ffc606c433378e3a7e0a6a531deac289b66caa1b4aa8554fd4ab2c6f1570f92d8602052604081205460ff165b92915050565b6000805160206135098339815191525460ff16156105e95760405162461bcd60e51b815260206004820152603660248201526000805160206135898339815191526044820152751d0e88185b1c9958591e481a5b9a5d1a585b1a5e995960521b60648201526084015b60405180910390fd5b7f4f3bc7155d2db681e29af52d1119e27d8b92f937da5bb676ae6155a2e77a3c6d80546001600160a01b0319166001600160a01b038c161790557f4f3bc7155d2db681e29af52d1119e27d8b92f937da5bb676ae6155a2e77a3c6e8990556106578888888888888888610e99565b50505050505050505050565b606061066d610fcb565b905090565b600061066d7f79ec1734da2430052e9d78936f451aad707e5bed12ef4806b06dc3d0c38f0e31546001600160a01b031690565b60006105718261106a565b6000805160206135a98339815191526106c8816110cd565b60005b84518110156107555760008315610701576000805160206135098339815191525461010090046001600160a01b03169050610705565b5060005b6107428187848151811061071b5761071b612f55565b602002602001015187858151811061073557610735612f55565b60200260200101516110da565b508061074d81612f81565b9150506106cb565b5050505050565b61076682826111da565b5050565b600061066d6112d2565b61077f8383836112eb565b505050565b6000610790838361131d565b9392505050565b61077f83838361134c565b600061057182611367565b600061057182611381565b6000805160206135a98339815191526107d0816110cd565b6107db8484846110da565b50505050565b6000610571826113a2565b6000610571826113e6565b306001600160a01b0316633882ce8e6040518163ffffffff1660e01b8152600401602060405180830381865afa158015610835573d6000803e3d6000fd5b505050506040513d601f19601f820116820180604052508101906108599190612f9a565b6001600160a01b0316336001600160a01b0316146108df5760405162461bcd60e51b815260206004820152603760248201527f537465776172644c6963656e736546616365743a206f6e6c7920696e6974696160448201527f6c206269646465722063616e206d696e7420746f6b656e00000000000000000060648201526084016105e0565b306001600160a01b031663be6a2a6d6040518163ffffffff1660e01b8152600401602060405180830381865afa15801561091d573d6000803e3d6000fd5b505050506040513d601f19601f820116820180604052508101906109419190612fb7565b42106109b7576040805162461bcd60e51b81526020600482015260248101919091527f537465776172644c6963656e736546616365743a2063616e6e6f74206d696e7460448201527f20616674657220696e697469616c20706572696f642073746172742074696d6560648201526084016105e0565b6109c081611367565b15610a1f5760405162461bcd60e51b815260206004820152602960248201527f537465776172644c6963656e736546616365743a20546f6b656e20616c72656160448201526864792065786973747360b81b60648201526084016105e0565b6107666000838361143d565b606061066d611454565b6107668282611473565b6000805160206135a9833981519152610a57816110cd565b82518451148015610a69575081518451145b610ace5760405162461bcd60e51b815260206004820152603060248201527f537465776172644c6963656e736546616365743a20696e70757420617272617960448201526f040d8cadccee8d040dad2e6dac2e8c6d60831b60648201526084016105e0565b60005b835181101561075557610b23858281518110610aef57610aef612f55565b6020026020010151858381518110610b0957610b09612f55565b602002602001015185848151811061073557610735612f55565b80610b2d81612f81565b915050610ad1565b6107db84848484611527565b6000600186148015610b535750600184145b8015610b78575084846000818110610b6d57610b6d612f55565b905060200201356001145b610b945760405162461bcd60e51b81526004016105e090612fd0565b6000805160206135098339815191525460ff16610bc35760405162461bcd60e51b81526004016105e09061301b565b7f4f3bc7155d2db681e29af52d1119e27d8b92f937da5bb676ae6155a2e77a3c6d546001600160a01b03163314610c0c5760405162461bcd60e51b81526004016105e09061305f565b7f4f3bc7155d2db681e29af52d1119e27d8b92f937da5bb676ae6155a2e77a3c6e5487876000818110610c4157610c41612f55565b9050602002013514610c655760405162461bcd60e51b81526004016105e0906130b6565b5063bc197c8160e01b98975050505050505050565b6000805160206135a9833981519152610c92816110cd565b60005b8663ffffffff168163ffffffff161015610cdf57610ccd8484610cbe63ffffffff851689613101565b610cc8908a613120565b61155a565b80610cd781613133565b915050610c95565b50505050505050565b600061066d6000805160206135498339815191525490565b60606105718261167f565b333014610d955760405162461bcd60e51b815260206004820152604c60248201527f4e6174697665537465776172644c6963656e73653a205472696767657220747260448201527f616e736665722063616e206f6e6c792062652063616c6c65642066726f6d206160648201526b1b9bdd1a195c88199858d95d60a21b608482015260a4016105e0565b61077f83838361143d565b60006107908383611863565b600083600114610dce5760405162461bcd60e51b81526004016105e090612fd0565b6000805160206135098339815191525460ff16610dfd5760405162461bcd60e51b81526004016105e09061301b565b7f4f3bc7155d2db681e29af52d1119e27d8b92f937da5bb676ae6155a2e77a3c6d546001600160a01b03163314610e465760405162461bcd60e51b81526004016105e09061305f565b7f4f3bc7155d2db681e29af52d1119e27d8b92f937da5bb676ae6155a2e77a3c6e548514610e865760405162461bcd60e51b81526004016105e0906130b6565b5063f23a6e6160e01b9695505050505050565b60008051602061350983398151915280546001600160a01b03888116610100026001600160a81b03199092169190911760011782557f79ec1734da2430052e9d78936f451aad707e5bed12ef4806b06dc3d0c38f0e318054918b166001600160a01b03199092169190911790556000805160206135498339815191528690556000600080516020613569833981519152905080610f3686826131d6565b5060018101610f4585826131d6565b5060028101610f5484826131d6565b50610f676301ffc9a760e01b60016118b0565b610f796380ac58cd60e01b60016118b0565b610f916000805160206135a98339815191528a611926565b85156106575760005b87811015610fbe57610fac898261199a565b80610fb681612f81565b915050610f9a565b5050505050505050505050565b60606000805160206135698339815191528054610fe790613156565b80601f016020809104026020016040519081016040528092919081815260200182805461101390613156565b80156110605780601f1061103557610100808354040283529160200191611060565b820191906000526020600020905b81548152906001019060200180831161104357829003601f168201915b5050505050905090565b600061107582611367565b6110925760405163c1b843ef60e01b815260040160405180910390fd5b5060009081527f3c7bf052874fa81625121783266a03507bd2cd48b16e571c01a04e8dd3fb07a960205260409020546001600160a01b031690565b6110d78133611a7d565b50565b600080516020613549833981519152805460008051602061350983398151915291600190600061110a8385613120565b909155505060008181527f99574a7094154bb123ae6ae102096f0bf9679b85a5cd1e727aaa0ae5f132e6b46020526040902061114685826131d6565b507fc7ed1b841b2d3c7f16d15642e7b013e89732e44006608d59c7547b8e331a7ce354808410156111895760405162461bcd60e51b81526004016105e090613295565b60008281527fc7ed1b841b2d3c7f16d15642e7b013e89732e44006608d59c7547b8e331a7ce9602052604090208490556001600160a01b038616156111d2576111d2868361199a565b505050505050565b60006111e5826113a2565b9050806001600160a01b0316836001600160a01b0316036112195760405163424a22cb60e01b815260040160405180910390fd5b336001600160a01b0382161480159061123957506112378133611863565b155b1561125757604051632f5de44f60e01b815260040160405180910390fd5b60008281527f3c7bf052874fa81625121783266a03507bd2cd48b16e571c01a04e8dd3fb07a9602052604080822080546001600160a01b0319166001600160a01b0387811691821790925591518593918516917f8c5be1e5ebec7d5bd14f71427d1e84f3dd0314c0f7b2291e5b200ac8c7c3b92591a4505050565b600061066d600080516020613529833981519152611adf565b6112f53382611ae9565b61131257604051632f5de44f60e01b815260040160405180910390fd5b61077f838383611b6f565b6001600160a01b03821660009081526000805160206134e9833981519152602052604081206107909083611cec565b61077f83838360405180602001604052806000815250611527565b600061057160008051602061352983398151915283611cf8565b600061139b60008051602061352983398151915283611d10565b5092915050565b6000806113bd60008051602061352983398151915284611d2e565b90506001600160a01b03811661057157604051637e1a7d8b60e01b815260040160405180910390fd5b60006001600160a01b03821661140f57604051630810ff9760e41b815260040160405180910390fd5b6001600160a01b03821660009081526000805160206134e98339815191526020526040902061057190611adf565b61144681611367565b6113125761077f828261199a565b60606000805160206135698339815191526001018054610fe790613156565b336001600160a01b0383160361149c5760405163424a22cb60e01b815260040160405180910390fd5b3360008181527f3c7bf052874fa81625121783266a03507bd2cd48b16e571c01a04e8dd3fb07aa602090815260408083206001600160a01b03871680855290835292819020805460ff191686151590811790915590519081529192917f17307eab39ab6107e8899845ad3d59bd9653f200f220920489ca2b5937696c31910160405180910390a35050565b6115313383611ae9565b61154e57604051632f5de44f60e01b815260040160405180910390fd5b6107db84848484611d3a565b600080516020613549833981519152805460008051602061350983398151915291600190600061158a8385613120565b9091555085905061159a82611d6e565b6040516020016115ab929190613318565b6040516020818303038152906040526115cf60008051602061356983398151915290565b600083815260039190910160205260409020906115ec90826131d6565b507fc7ed1b841b2d3c7f16d15642e7b013e89732e44006608d59c7547b8e331a7ce3548084101561162f5760405162461bcd60e51b81526004016105e090613295565b60008281527fc7ed1b841b2d3c7f16d15642e7b013e89732e44006608d59c7547b8e331a7ce96020526040902084905584156111d25782546111d29061010090046001600160a01b03168361199a565b600080516020613549833981519152546060906000805160206135098339815191529083106116c057604051624705a760e71b815260040160405180910390fd5b60008381527f99574a7094154bb123ae6ae102096f0bf9679b85a5cd1e727aaa0ae5f132e6b460205260408120805460008051602061356983398151915292919061170a90613156565b80601f016020809104026020016040519081016040528092919081815260200182805461173690613156565b80156117835780601f1061175857610100808354040283529160200191611783565b820191906000526020600020905b81548152906001019060200180831161176657829003601f168201915b50505050509050600082600201805461179b90613156565b80601f01602080910402602001604051908101604052809291908181526020018280546117c790613156565b80156118145780601f106117e957610100808354040283529160200191611814565b820191906000526020600020905b8154815290600101906020018083116117f757829003601f168201915b5050505050905060008251111561182e5750949350505050565b8061183887611d6e565b604051602001611849929190613318565b604051602081830303815290604052945050505050919050565b6001600160a01b0391821660009081527f3c7bf052874fa81625121783266a03507bd2cd48b16e571c01a04e8dd3fb07aa6020908152604080832093909416825291909152205460ff1690565b6001600160e01b031980831690036118db5760405163b0a19dd560e01b815260040160405180910390fd5b6001600160e01b03199190911660009081527ffc606c433378e3a7e0a6a531deac289b66caa1b4aa8554fd4ab2c6f1570f92d860205260409020805460ff1916911515919091179055565b60008281527fd3889cc5458b268d0544e5534672df1296288ca3f93cbd39bd6f497a5c6228116020526040902061195d9082611e6e565b5060405133906001600160a01b0383169084907f2f8788117e7eff1d82e926ec794901d17c78024a50270940304540a733656f0d90600090a45050565b6001600160a01b0382166119c1576040516311f2988d60e11b815260040160405180910390fd5b6119ca81611367565b156119e857604051630d86bb7b60e31b815260040160405180910390fd5b6119f460008383611e83565b6001600160a01b03821660009081526000805160206134e98339815191526020526040902060008051602061352983398151915290611a339083611f78565b50611a3f818385611f84565b5060405182906001600160a01b038516906000907fddf252ad1be2c89b69c2b068fc378daa952ba7f163c4a11628f55a4df523b3ef908290a4505050565b611a878282611f9a565b61076657611a9d816001600160a01b0316611fd1565b611aa8836020611fe3565b604051602001611ab9929190613347565b60408051601f198184030181529082905262461bcd60e51b82526105e0916004016128ba565b6000610571825490565b6000611af482611367565b611b115760405163c1b843ef60e01b815260040160405180910390fd5b6000611b1c836113a2565b9050806001600160a01b0316846001600160a01b03161480611b575750836001600160a01b0316611b4c8461106a565b6001600160a01b0316145b80611b675750611b678185611863565b949350505050565b6000611b7a826113a2565b9050836001600160a01b0316816001600160a01b031614611bae57604051630f2db4ad60e01b815260040160405180910390fd5b6001600160a01b038316611bd5576040516340311a0960e01b815260040160405180910390fd5b611be0848484611e83565b6001600160a01b03841660009081526000805160206134e98339815191526020526040902060008051602061352983398151915290611c1f9084612135565b506001600160a01b03841660009081526002820160205260409020611c449084611f78565b50611c50818486611f84565b50600083815260038201602052604080822080546001600160a01b0319169055518491906001600160a01b038516907f8c5be1e5ebec7d5bd14f71427d1e84f3dd0314c0f7b2291e5b200ac8c7c3b925908390a482846001600160a01b0316866001600160a01b03167fddf252ad1be2c89b69c2b068fc378daa952ba7f163c4a11628f55a4df523b3ef60405160405180910390a45050505050565b60006107908383612141565b60008181526001830160205260408120541515610790565b6000808080611d1f868661218d565b909450925050505b9250929050565b600061079083836121f0565b611d45848484611b6f565b611d5184848484612254565b6107db57604051639ff10cdd60e01b815260040160405180910390fd5b606081600003611d955750506040805180820190915260018152600360fc1b602082015290565b8160005b8115611dbf5780611da981612f81565b9150611db89050600a836133d2565b9150611d99565b6000816001600160401b03811115611dd957611dd96126bd565b6040519080825280601f01601f191660200182016040528015611e03576020820181803683370190505b5090505b8415611b6757611e186001836133e6565b9150611e25600a866133f9565b611e30906030613120565b60f81b818381518110611e4557611e45612f55565b60200101906001600160f81b031916908160001a905350611e67600a866133d2565b9450611e07565b6000610790836001600160a01b038416612325565b6001600160a01b03831615611f6d5760405163a7c12c1160e01b815260048101829052600090309063a7c12c1190602401602060405180830381865afa158015611ed1573d6000803e3d6000fd5b505050506040513d601f19601f82011682018060405250810190611ef5919061340d565b90508015611f6b5760405162461bcd60e51b815260206004820152603a60248201527f537465776172644c6963656e736546616365743a2043616e6e6f74207472616e60448201527f7366657220647572696e672061756374696f6e20706572696f6400000000000060648201526084016105e0565b505b61077f838383612368565b60006107908383612325565b6000611b6784846001600160a01b038516612373565b60008281527fd3889cc5458b268d0544e5534672df1296288ca3f93cbd39bd6f497a5c622811602052604081206107909083612412565b60606105716001600160a01b03831660145b60606000611ff2836002613101565b611ffd906002613120565b6001600160401b03811115612014576120146126bd565b6040519080825280601f01601f19166020018201604052801561203e576020820181803683370190505b509050600360fc1b8160008151811061205957612059612f55565b60200101906001600160f81b031916908160001a905350600f60fb1b8160018151811061208857612088612f55565b60200101906001600160f81b031916908160001a905350600160028402015b6001811115612115576f181899199a1a9b1b9c1cb0b131b232b360811b85600f16601081106120d8576120d8612f55565b1a60f81b8282815181106120ee576120ee612f55565b60200101906001600160f81b031916908160001a90535060049490941c93600019016120a7565b5083156107905760405163c913478560e01b815260040160405180910390fd5b60006107908383612434565b815460009082106121655760405163e637bf3b60e01b815260040160405180910390fd5b82600001828154811061217a5761217a612f55565b9060005260206000200154905092915050565b8154600090819083106121b35760405163022fd82760e31b815260040160405180910390fd5b60008460000184815481106121ca576121ca612f55565b906000526020600020906002020190508060000154816001015492509250509250929050565b600081815260018301602052604081205480820361222157604051633d547ec560e21b815260040160405180910390fd5b83600001600182038154811061223957612239612f55565b90600052602060002090600202016001015491505092915050565b60006001600160a01b0384163b61226d57506001611b67565b60006122ee63150b7a0260e01b33888787604051602401612291949392919061342a565b604051602081830303815290604052906001600160e01b0319166020820180516001600160e01b0383818316178352505050506040518060600160405280603281526020016134b7603291396001600160a01b03881691906124ee565b90506000818060200190518101906123069190613467565b6001600160e01b031916630a85bd0160e11b1492505050949350505050565b6000818152600183016020526040812054610571575081546001808201845560008481526020808220909301849055845493815293810190915260409092205590565b61077f8383836124fd565b60008281526001840160205260408120548082036123da575050604080518082018252838152602080820184815286546001818101895560008981528481209551600290930290950191825591519082015586548684528188019092529290912055610790565b828560000160018303815481106123f3576123f3612f55565b9060005260206000209060020201600101819055506000915050610790565b6001600160a01b03811660009081526001830160205260408120541515610790565b6000818152600183016020526040812054801561139b5783546000908590600019810190811061246657612466612f55565b906000526020600020015490508085600001600184038154811061248c5761248c612f55565b60009182526020808320909101929092559182526001860190526040902081905583548490806124be576124be613484565b60008281526020808220830160001990810183905590920190925593815260019485019093525050604081205590565b6060611b678484600085612541565b6001600160a01b03821661077f5760008181527f99574a7094154bb123ae6ae102096f0bf9679b85a5cd1e727aaa0ae5f132e6b46020526040812061077f916125fe565b6060843b61256257604051632270d6bf60e21b815260040160405180910390fd5b600080866001600160a01b0316858760405161257e919061349a565b60006040518083038185875af1925050503d80600081146125bb576040519150601f19603f3d011682016040523d82523d6000602084013e6125c0565b606091505b509150915081156125d4579150611b679050565b8051156125e45780518082602001fd5b8360405162461bcd60e51b81526004016105e091906128ba565b50805461260a90613156565b6000825580601f1061261a575050565b601f0160209004906000526020600020908101906110d791905b808211156126485760008155600101612634565b5090565b6001600160e01b0319811681146110d757600080fd5b60006020828403121561267457600080fd5b81356107908161264c565b6001600160a01b03811681146110d757600080fd5b803561269f8161267f565b919050565b80151581146110d757600080fd5b803561269f816126a4565b634e487b7160e01b600052604160045260246000fd5b604051601f8201601f191681016001600160401b03811182821017156126fb576126fb6126bd565b604052919050565b60006001600160401b0383111561271c5761271c6126bd565b61272f601f8401601f19166020016126d3565b905082815283838301111561274357600080fd5b828260208301376000602084830101529392505050565b600082601f83011261276b57600080fd5b61079083833560208501612703565b6000806000806000806000806000806101408b8d03121561279a57600080fd5b6127a38b612694565b995060208b013598506127b860408c01612694565b97506127c660608c01612694565b96506127d460808c01612694565b955060a08b013594506127e960c08c016126b2565b935060e08b01356001600160401b038082111561280557600080fd5b6128118e838f0161275a565b94506101008d013591508082111561282857600080fd5b6128348e838f0161275a565b93506101208d013591508082111561284b57600080fd5b506128588d828e0161275a565b9150509295989b9194979a5092959850565b60005b8381101561288557818101518382015260200161286d565b50506000910152565b600081518084526128a681602086016020860161286a565b601f01601f19169290920160200192915050565b602081526000610790602083018461288e565b6000602082840312156128df57600080fd5b5035919050565b60006001600160401b038211156128ff576128ff6126bd565b5060051b60200190565b600082601f83011261291a57600080fd5b8135602061292f61292a836128e6565b6126d3565b82815260059290921b8401810191818101908684111561294e57600080fd5b8286015b8481101561298d5780356001600160401b038111156129715760008081fd5b61297f8986838b010161275a565b845250918301918301612952565b509695505050505050565b600082601f8301126129a957600080fd5b813560206129b961292a836128e6565b82815260059290921b840181019181810190868411156129d857600080fd5b8286015b8481101561298d57803583529183019183016129dc565b600080600060608486031215612a0857600080fd5b83356001600160401b0380821115612a1f57600080fd5b612a2b87838801612909565b94506020860135915080821115612a4157600080fd5b50612a4e86828701612998565b9250506040840135612a5f816126a4565b809150509250925092565b60008060408385031215612a7d57600080fd5b8235612a888161267f565b946020939093013593505050565b600080600060608486031215612aab57600080fd5b8335612ab68161267f565b92506020840135612ac68161267f565b929592945050506040919091013590565b600080600060608486031215612aec57600080fd5b8335612af78161267f565b925060208401356001600160401b03811115612b1257600080fd5b612b1e8682870161275a565b925050604084013590509250925092565b600060208284031215612b4157600080fd5b81356107908161267f565b60008060408385031215612b5f57600080fd5b8235612b6a8161267f565b91506020830135612b7a816126a4565b809150509250929050565b600080600060608486031215612b9a57600080fd5b83356001600160401b0380821115612bb157600080fd5b818601915086601f830112612bc557600080fd5b81356020612bd561292a836128e6565b82815260059290921b8401810191818101908a841115612bf457600080fd5b948201945b83861015612c1b578535612c0c8161267f565b82529482019490820190612bf9565b97505087013592505080821115612c3157600080fd5b612c3d87838801612909565b93506040860135915080821115612c5357600080fd5b50612c6086828701612998565b9150509250925092565b60008060008060808587031215612c8057600080fd5b8435612c8b8161267f565b93506020850135612c9b8161267f565b92506040850135915060608501356001600160401b03811115612cbd57600080fd5b8501601f81018713612cce57600080fd5b612cdd87823560208401612703565b91505092959194509250565b60008083601f840112612cfb57600080fd5b5081356001600160401b03811115612d1257600080fd5b6020830191508360208260051b8501011115611d2757600080fd5b60008083601f840112612d3f57600080fd5b5081356001600160401b03811115612d5657600080fd5b602083019150836020828501011115611d2757600080fd5b60008060008060008060008060a0898b031215612d8a57600080fd5b8835612d958161267f565b97506020890135612da58161267f565b965060408901356001600160401b0380821115612dc157600080fd5b612dcd8c838d01612ce9565b909850965060608b0135915080821115612de657600080fd5b612df28c838d01612ce9565b909650945060808b0135915080821115612e0b57600080fd5b50612e188b828c01612d2d565b999c989b5096995094979396929594505050565b600080600080600060a08688031215612e4457600080fd5b853563ffffffff81168114612e5857600080fd5b9450602086013593506040860135925060608601356001600160401b03811115612e8157600080fd5b612e8d8882890161275a565b9250506080860135612e9e816126a4565b809150509295509295909350565b60008060408385031215612ebf57600080fd5b8235612eca8161267f565b91506020830135612b7a8161267f565b60008060008060008060a08789031215612ef357600080fd5b8635612efe8161267f565b95506020870135612f0e8161267f565b9450604087013593506060870135925060808701356001600160401b03811115612f3757600080fd5b612f4389828a01612d2d565b979a9699509497509295939492505050565b634e487b7160e01b600052603260045260246000fd5b634e487b7160e01b600052601160045260246000fd5b600060018201612f9357612f93612f6b565b5060010190565b600060208284031215612fac57600080fd5b81516107908161267f565b600060208284031215612fc957600080fd5b5051919050565b6020808252603d9082015260008051602061358983398151915260408201527f743a2063616e206f6e6c792072656365697665206f6e6520746f6b656e000000606082015260800190565b60208082526036908201526000805160206135898339815191526040820152751d0e881b5d5cdd081899481a5b9a5d1a585b1a5e995960521b606082015260800190565b602080825260439082015260008051602061358983398151915260408201527f743a2063616e6e6f7420616363657074207468697320746f6b656e206164647260608201526265737360e81b608082015260a00190565b6020808252603e9082015260008051602061358983398151915260408201527f743a2063616e6e6f7420616363657074207468697320746f6b656e2049440000606082015260800190565b600081600019048311821515161561311b5761311b612f6b565b500290565b8082018082111561057157610571612f6b565b600063ffffffff80831681810361314c5761314c612f6b565b6001019392505050565b600181811c9082168061316a57607f821691505b60208210810361318a57634e487b7160e01b600052602260045260246000fd5b50919050565b601f82111561077f57600081815260208120601f850160051c810160208610156131b75750805b601f850160051c820191505b818110156111d2578281556001016131c3565b81516001600160401b038111156131ef576131ef6126bd565b613203816131fd8454613156565b84613190565b602080601f83116001811461323857600084156132205750858301515b600019600386901b1c1916600185901b1785556111d2565b600085815260208120601f198616915b8281101561326757888601518255948401946001909101908401613248565b50858210156132855787850151600019600388901b60f8161c191681555b5050505050600190811b01905550565b60208082526059908201527f537465776172644c6963656e736546616365743a204e657720706572696f642060408201527f74696d65206d7573742062652067726561746572207468616e206f722065717560608201527f616c20746f2063757272656e7420706572696f642074696d6500000000000000608082015260a00190565b6000835161332a81846020880161286a565b83519083019061333e81836020880161286a565b01949350505050565b7f416363657373436f6e74726f6c3a206163636f756e742000000000000000000081526000835161337f81601785016020880161286a565b7001034b99036b4b9b9b4b733903937b6329607d1b60179184019182015283516133b081602884016020880161286a565b01602801949350505050565b634e487b7160e01b600052601260045260246000fd5b6000826133e1576133e16133bc565b500490565b8181038181111561057157610571612f6b565b600082613408576134086133bc565b500690565b60006020828403121561341f57600080fd5b8151610790816126a4565b6001600160a01b038581168252841660208201526040810183905260806060820181905260009061345d9083018461288e565b9695505050505050565b60006020828403121561347957600080fd5b81516107908161264c565b634e487b7160e01b600052603160045260246000fd5b600082516134ac81846020870161286a565b919091019291505056fe4552433732313a207472616e7366657220746f206e6f6e20455243373231526563656976657220696d706c656d656e7465723c7bf052874fa81625121783266a03507bd2cd48b16e571c01a04e8dd3fb07a879ec1734da2430052e9d78936f451aad707e5bed12ef4806b06dc3d0c38f0e303c7bf052874fa81625121783266a03507bd2cd48b16e571c01a04e8dd3fb07a679ec1734da2430052e9d78936f451aad707e5bed12ef4806b06dc3d0c38f0e3299574a7094154bb123ae6ae102096f0bf9679b85a5cd1e727aaa0ae5f132e6b15772617070656445524331313535537465776172644c6963656e7365466163657b62b800d8c954aa32a34a9249066e0f8761d6c1614c95cbc05c04ab0583a14ca2646970667358221220ee28a1caa090840f226d6b84b4e4947c933431dffe42ad7dbd88607a524e3a2764736f6c63430008100033",
  "devdoc": {
    "details": "ERC-721 token license for Steward that wraps existing ERC-1155. Transfers are disabled during an auction.",
    "kind": "dev",
    "methods": {
      "approve(address,uint256)": {
        "params": {
          "operator": "address to be approved",
          "tokenId": "token to approve"
        }
      },
      "balanceOf(address)": {
        "returns": {
          "_0": "quantity of tokens held"
        }
      },
      "getApproved(uint256)": {
        "params": {
          "tokenId": "token to query"
        },
        "returns": {
          "_0": "address approved to spend token"
        }
      },
      "isApprovedForAll(address,address)": {
        "params": {
          "account": "address to query for approval granted",
          "operator": "address to query for approval received"
        },
        "returns": {
          "_0": "whether operator is approved to spend tokens held by account"
        }
      },
      "ownerOf(uint256)": {
        "params": {
          "tokenId": "token to query"
        },
        "returns": {
          "_0": "token owner"
        }
      },
      "safeTransferFrom(address,address,uint256)": {
        "params": {
          "from": "sender of token",
          "to": "receiver of token",
          "tokenId": "token id"
        }
      },
      "safeTransferFrom(address,address,uint256,bytes)": {
        "params": {
          "data": "data payload",
          "from": "sender of token",
          "to": "receiver of token",
          "tokenId": "token id"
        }
      },
      "setApprovalForAll(address,bool)": {
        "params": {
          "operator": "address to be approved",
          "status": "approval status"
        }
      },
      "supportsInterface(bytes4)": {
        "params": {
          "interfaceId": "interface id"
        },
        "returns": {
          "_0": "bool whether interface is supported"
        }
      },
      "tokenByIndex(uint256)": {
        "params": {
          "index": "position in global token list to query"
        },
        "returns": {
          "_0": "id of retrieved token"
        }
      },
      "tokenOfOwnerByIndex(address,uint256)": {
        "params": {
          "index": "position in owner's token list to query",
          "owner": "token holder to query"
        },
        "returns": {
          "_0": "id of retrieved token"
        }
      },
      "totalSupply()": {
        "returns": {
          "_0": "total supply"
        }
      },
      "transferFrom(address,address,uint256)": {
        "params": {
          "from": "sender of token",
          "to": "receiver of token",
          "tokenId": "token id"
        }
      }
    },
    "title": "WrappedERC1155StewardLicenseFacet",
    "version": 1
  },
  "userdoc": {
    "kind": "user",
    "methods": {
      "addTokenToCollection(address,string,uint256)": {
        "notice": "Add token to collection"
      },
      "addTokensToCollection(address[],string[],uint256[])": {
        "notice": "Add tokens to collection with to"
      },
      "addTokensToCollection(string[],uint256[],bool)": {
        "notice": "Add tokens to collection"
      },
      "addTokensWithBaseURIToCollection(uint32,uint256,uint256,string,bool)": {
        "notice": "Add tokens to collection with baseURI"
      },
      "approve(address,uint256)": {
        "notice": "grant approval to given account to spend token"
      },
      "balanceOf(address)": {
        "notice": "query the balance of given address"
      },
      "exists(uint256)": {
        "notice": "Check if token exists"
      },
      "getApproved(uint256)": {
        "notice": "get approval status for given token"
      },
      "initializeWrappedStewardLicense(address,uint256,address,address,address,uint256,bool,string,string,string)": {
        "notice": "Initialize license"
      },
      "isApprovedForAll(address,address)": {
        "notice": "query approval status of given operator with respect to given address"
      },
      "maxTokenCount()": {
        "notice": "Get max token count"
      },
      "mintToken(address,uint256)": {
        "notice": "Initial bidder can mint token if it doesn't exist"
      },
      "minter()": {
        "notice": "Get minter"
      },
      "name()": {
        "notice": "inheritdoc IERC721Metadata"
      },
      "ownerOf(uint256)": {
        "notice": "query the owner of given token"
      },
      "safeTransferFrom(address,address,uint256)": {
        "notice": "transfer token between given addresses, checking for ERC721Receiver implementation if applicable"
      },
      "safeTransferFrom(address,address,uint256,bytes)": {
        "notice": "transfer token between given addresses, checking for ERC721Receiver implementation if applicable"
      },
      "setApprovalForAll(address,bool)": {
        "notice": "grant approval to or revoke approval from given account to spend all tokens held by sender"
      },
      "supportsInterface(bytes4)": {
        "notice": "query whether contract has registered support for given interface"
      },
      "symbol()": {
        "notice": "inheritdoc IERC721Metadata"
      },
      "tokenByIndex(uint256)": {
        "notice": "get token at given internal storage index"
      },
      "tokenOfOwnerByIndex(address,uint256)": {
        "notice": "get token of given owner at given internal storage index"
      },
      "tokenURI(uint256)": {
        "notice": "inheritdoc IERC721Metadata"
      },
      "totalSupply()": {
        "notice": "get total token supply"
      },
      "transferFrom(address,address,uint256)": {
        "notice": "transfer token between given addresses, without checking for ERC721Receiver implementation if applicable"
      },
      "triggerTransfer(address,address,uint256)": {
        "notice": "Trigger transfer of license"
      }
    },
    "version": 1
  },
  "storageLayout": {
    "storage": [],
    "types": null
  }
}