{
  "address": "0x798Dd59407B50BCaDa5F53df7F2792533E787877",
  "abi": [
    {
      "inputs": [],
      "name": "ERC165Base__InvalidInterfaceId",
      "type": "error"
    },
    {
      "inputs": [],
      "name": "UintUtils__InsufficientHexLength",
      "type": "error"
    },
    {
      "anonymous": false,
      "inputs": [
        {
          "indexed": true,
          "internalType": "bool",
          "name": "_allowAny",
          "type": "bool"
        }
      ],
      "name": "AllowAnyUpdated",
      "type": "event"
    },
    {
      "anonymous": false,
      "inputs": [
        {
          "indexed": true,
          "internalType": "address",
          "name": "_address",
          "type": "address"
        }
      ],
      "name": "Allowlisted",
      "type": "event"
    },
    {
      "anonymous": false,
      "inputs": [
        {
          "indexed": true,
          "internalType": "bytes32",
          "name": "role",
          "type": "bytes32"
        },
        {
          "indexed": true,
          "internalType": "bytes32",
          "name": "previousAdminRole",
          "type": "bytes32"
        },
        {
          "indexed": true,
          "internalType": "bytes32",
          "name": "newAdminRole",
          "type": "bytes32"
        }
      ],
      "name": "RoleAdminChanged",
      "type": "event"
    },
    {
      "anonymous": false,
      "inputs": [
        {
          "indexed": true,
          "internalType": "bytes32",
          "name": "role",
          "type": "bytes32"
        },
        {
          "indexed": true,
          "internalType": "address",
          "name": "account",
          "type": "address"
        },
        {
          "indexed": true,
          "internalType": "address",
          "name": "sender",
          "type": "address"
        }
      ],
      "name": "RoleGranted",
      "type": "event"
    },
    {
      "anonymous": false,
      "inputs": [
        {
          "indexed": true,
          "internalType": "bytes32",
          "name": "role",
          "type": "bytes32"
        },
        {
          "indexed": true,
          "internalType": "address",
          "name": "account",
          "type": "address"
        },
        {
          "indexed": true,
          "internalType": "address",
          "name": "sender",
          "type": "address"
        }
      ],
      "name": "RoleRevoked",
      "type": "event"
    },
    {
      "anonymous": false,
      "inputs": [
        {
          "indexed": true,
          "internalType": "address",
          "name": "_address",
          "type": "address"
        }
      ],
      "name": "Unallowlisted",
      "type": "event"
    },
    {
      "inputs": [
        {
          "internalType": "address",
          "name": "_address",
          "type": "address"
        }
      ],
      "name": "addToAllowlist",
      "outputs": [],
      "stateMutability": "nonpayable",
      "type": "function"
    },
    {
      "inputs": [
        {
          "internalType": "address",
          "name": "_owner",
          "type": "address"
        },
        {
          "internalType": "bool",
          "name": "allowAny",
          "type": "bool"
        },
        {
          "internalType": "address[]",
          "name": "_addresses",
          "type": "address[]"
        }
      ],
      "name": "initializeAllowlist",
      "outputs": [],
      "stateMutability": "nonpayable",
      "type": "function"
    },
    {
      "inputs": [
        {
          "internalType": "bool",
          "name": "allowAny",
          "type": "bool"
        },
        {
          "internalType": "address[]",
          "name": "_addresses",
          "type": "address[]"
        }
      ],
      "name": "initializeAllowlist",
      "outputs": [],
      "stateMutability": "nonpayable",
      "type": "function"
    },
    {
      "inputs": [
        {
          "internalType": "address",
          "name": "_address",
          "type": "address"
        }
      ],
      "name": "isAllowed",
      "outputs": [
        {
          "internalType": "bool",
          "name": "",
          "type": "bool"
        }
      ],
      "stateMutability": "view",
      "type": "function"
    },
    {
      "inputs": [
        {
          "internalType": "address",
          "name": "_address",
          "type": "address"
        }
      ],
      "name": "removeFromAllowlist",
      "outputs": [],
      "stateMutability": "nonpayable",
      "type": "function"
    },
    {
      "inputs": [
        {
          "internalType": "bool",
          "name": "_allowAny",
          "type": "bool"
        }
      ],
      "name": "setAllowAny",
      "outputs": [],
      "stateMutability": "nonpayable",
      "type": "function"
    }
  ],
  "transactionHash": "0x9d473f26430608d2fc73e91266f55d7306df4d811a3f7b3d648f3622e9d956bf",
  "args": [],
  "numDeployments": 2,
  "solcInputHash": "4af5e4fd5a2a3b80cb4af54040e461f5",
  "bytecode": "0x608060405234801561001057600080fd5b50610c3c806100206000396000f3fe608060405234801561001057600080fd5b50600436106100625760003560e01c806329953efa146100675780635da93d7e1461007c5780639371ff2d1461008f578063a1ecb276146100a2578063babcc539146100b5578063f8e86ece146100dc575b600080fd5b61007a610075366004610881565b6100ef565b005b61007a61008a3660046108b3565b610114565b61007a61009d366004610986565b610135565b61007a6100b03660046109e4565b6101b9565b6100c86100c33660046108b3565b610205565b604051901515815260200160405180910390f35b61007a6100ea3660046108b3565b610216565b600080516020610bc783398151915261010781610237565b61011082610244565b5050565b600080516020610bc783398151915261012c81610237565b61011082610296565b600080516020610be78339815191525460ff161561016e5760405162461bcd60e51b815260040161016590610a32565b60405180910390fd5b61018063babcc53960e01b6001610308565b61019263466a36a560e11b6001610308565b6101aa600080516020610bc78339815191528461037e565b6101b482826103f2565b505050565b600080516020610be78339815191525460ff16156101e95760405162461bcd60e51b815260040161016590610a32565b6101fb63babcc53960e01b6001610308565b61011082826103f2565b600061021082610469565b92915050565b600080516020610bc783398151915261022e81610237565b610110826104a8565b610241813361051a565b50565b600080516020610be7833981519152805461ff0019166101008315159081029190911782556040517f20a26f70c17ef9c9bac355de2d5319262bc14d5476e4e9a379fa663ef172486e90600090a25050565b600080516020610be78339815191526102cf7f9fca1883cea1af9526093bc3a6f14a88fc5b5aaf6b6820bb26ccaa4c275327c58361057c565b506040516001600160a01b038316907fe5058b95b8b6a8d48a6d241621ef523fab84db6043988a2f925baebedaa7883890600090a25050565b6001600160e01b031980831690036103335760405163b0a19dd560e01b815260040160405180910390fd5b6001600160e01b03199190911660009081527ffc606c433378e3a7e0a6a531deac289b66caa1b4aa8554fd4ab2c6f1570f92d860205260409020805460ff1916911515919091179055565b60008281527fd3889cc5458b268d0544e5534672df1296288ca3f93cbd39bd6f497a5c622811602052604090206103b59082610591565b5060405133906001600160a01b0383169084907f2f8788117e7eff1d82e926ec794901d17c78024a50270940304540a733656f0d90600090a45050565b600080516020610be7833981519152805460ff1916600117815561041583610244565b60005b82518110156104635761045083828151811061043657610436610a75565b60200260200101518360010161059190919063ffffffff16565b508061045b81610aa1565b915050610418565b50505050565b600080516020610be7833981519152805460009190610100900460ff16156104945750600192915050565b6104a160018201846105a6565b9392505050565b600080516020610be78339815191526104e17f9fca1883cea1af9526093bc3a6f14a88fc5b5aaf6b6820bb26ccaa4c275327c583610591565b506040516001600160a01b038316907f7eb3c7851085a7c7e2aa1a622201d2fcd72a7edf43e9321c62367687b30bb76f90600090a25050565b61052482826105c8565b6101105761053a816001600160a01b03166105ff565b610545836020610611565b604051602001610556929190610ade565b60408051601f198184030181529082905262461bcd60e51b825261016591600401610b53565b60006104a1836001600160a01b038416610764565b60006104a1836001600160a01b038416610829565b6001600160a01b038116600090815260018301602052604081205415156104a1565b60008281527fd3889cc5458b268d0544e5534672df1296288ca3f93cbd39bd6f497a5c622811602052604081206104a190836105a6565b60606102106001600160a01b03831660145b60606000610620836002610b86565b61062b906002610b9d565b67ffffffffffffffff811115610643576106436108ce565b6040519080825280601f01601f19166020018201604052801561066d576020820181803683370190505b509050600360fc1b8160008151811061068857610688610a75565b60200101906001600160f81b031916908160001a905350600f60fb1b816001815181106106b7576106b7610a75565b60200101906001600160f81b031916908160001a905350600160028402015b6001811115610744576f181899199a1a9b1b9c1cb0b131b232b360811b85600f166010811061070757610707610a75565b1a60f81b82828151811061071d5761071d610a75565b60200101906001600160f81b031916908160001a90535060049490941c93600019016106d6565b5083156104a15760405163c913478560e01b815260040160405180910390fd5b600081815260018301602052604081205480156108225783546000908590600019810190811061079657610796610a75565b90600052602060002001549050808560000160018403815481106107bc576107bc610a75565b60009182526020808320909101929092559182526001860190526040902081905583548490806107ee576107ee610bb0565b6001900381819060005260206000200160009055905583600101600084815260200190815260200160002060009055600191505b5092915050565b6000818152600183016020526040812054610210575081546001808201845560008481526020808220909301849055845493815293810190915260409092205590565b8035801515811461087c57600080fd5b919050565b60006020828403121561089357600080fd5b6104a18261086c565b80356001600160a01b038116811461087c57600080fd5b6000602082840312156108c557600080fd5b6104a18261089c565b634e487b7160e01b600052604160045260246000fd5b600082601f8301126108f557600080fd5b8135602067ffffffffffffffff80831115610912576109126108ce565b8260051b604051601f19603f83011681018181108482111715610937576109376108ce565b60405293845285810183019383810192508785111561095557600080fd5b83870191505b8482101561097b5761096c8261089c565b8352918301919083019061095b565b979650505050505050565b60008060006060848603121561099b57600080fd5b6109a48461089c565b92506109b26020850161086c565b9150604084013567ffffffffffffffff8111156109ce57600080fd5b6109da868287016108e4565b9150509250925092565b600080604083850312156109f757600080fd5b610a008361086c565b9150602083013567ffffffffffffffff811115610a1c57600080fd5b610a28858286016108e4565b9150509250929050565b60208082526023908201527f416c6c6f776c69737446616365743a20616c726561647920696e697469616c696040820152621e995960ea1b606082015260800190565b634e487b7160e01b600052603260045260246000fd5b634e487b7160e01b600052601160045260246000fd5b600060018201610ab357610ab3610a8b565b5060010190565b60005b83811015610ad5578181015183820152602001610abd565b50506000910152565b7f416363657373436f6e74726f6c3a206163636f756e7420000000000000000000815260008351610b16816017850160208801610aba565b7001034b99036b4b9b9b4b733903937b6329607d1b6017918401918201528351610b47816028840160208801610aba565b01602801949350505050565b6020815260008251806020840152610b72816040850160208701610aba565b601f01601f19169190910160400192915050565b808202811582820484141761021057610210610a8b565b8082018082111561021057610210610a8b565b634e487b7160e01b600052603160045260246000fdfe18442e22641370002622a608e197db432d3d4c113dab8ef4bf55fdc4eeed18699fca1883cea1af9526093bc3a6f14a88fc5b5aaf6b6820bb26ccaa4c275327c4a2646970667358221220216cbdfe2fd08d32ded395527cc26aef3a81f0584d797e2413a428d7d60da8b064736f6c63430008110033",
  "devdoc": {
    "details": "Allows owner to set an allowlist of addresses",
    "kind": "dev",
    "methods": {},
    "title": "AllowlistFacet",
    "version": 1
  },
  "userdoc": {
    "kind": "user",
    "methods": {
      "addToAllowlist(address)": {
        "notice": "Add to allowlist"
      },
      "initializeAllowlist(address,bool,address[])": {
        "notice": "Initialize allowlist with owner"
      },
      "initializeAllowlist(bool,address[])": {
        "notice": "Initialize allowlist"
      },
      "isAllowed(address)": {
        "notice": "Check if address is allowed"
      },
      "removeFromAllowlist(address)": {
        "notice": "Remove from allowlist"
      },
      "setAllowAny(bool)": {
        "notice": "Set allow any"
      }
    },
    "version": 1
  },
  "storageLayout": {
    "storage": [],
    "types": null
  }
}