{
  "address": "0xD545fbA3f43EcA447CC7FBF41D4A8F0f575F2491",
  "abi": [
    {
      "inputs": [],
      "name": "ERC165Base__InvalidInterfaceId",
      "type": "error"
    },
    {
      "inputs": [],
      "name": "UintUtils__InsufficientHexLength",
      "type": "error"
    },
    {
      "anonymous": false,
      "inputs": [
        {
          "indexed": true,
          "internalType": "bool",
          "name": "_allowAny",
          "type": "bool"
        }
      ],
      "name": "AllowAnyUpdated",
      "type": "event"
    },
    {
      "anonymous": false,
      "inputs": [
        {
          "indexed": true,
          "internalType": "address",
          "name": "_address",
          "type": "address"
        }
      ],
      "name": "Allowlisted",
      "type": "event"
    },
    {
      "anonymous": false,
      "inputs": [
        {
          "indexed": true,
          "internalType": "bytes32",
          "name": "role",
          "type": "bytes32"
        },
        {
          "indexed": true,
          "internalType": "bytes32",
          "name": "previousAdminRole",
          "type": "bytes32"
        },
        {
          "indexed": true,
          "internalType": "bytes32",
          "name": "newAdminRole",
          "type": "bytes32"
        }
      ],
      "name": "RoleAdminChanged",
      "type": "event"
    },
    {
      "anonymous": false,
      "inputs": [
        {
          "indexed": true,
          "internalType": "bytes32",
          "name": "role",
          "type": "bytes32"
        },
        {
          "indexed": true,
          "internalType": "address",
          "name": "account",
          "type": "address"
        },
        {
          "indexed": true,
          "internalType": "address",
          "name": "sender",
          "type": "address"
        }
      ],
      "name": "RoleGranted",
      "type": "event"
    },
    {
      "anonymous": false,
      "inputs": [
        {
          "indexed": true,
          "internalType": "bytes32",
          "name": "role",
          "type": "bytes32"
        },
        {
          "indexed": true,
          "internalType": "address",
          "name": "account",
          "type": "address"
        },
        {
          "indexed": true,
          "internalType": "address",
          "name": "sender",
          "type": "address"
        }
      ],
      "name": "RoleRevoked",
      "type": "event"
    },
    {
      "anonymous": false,
      "inputs": [
        {
          "indexed": true,
          "internalType": "address",
          "name": "_address",
          "type": "address"
        }
      ],
      "name": "Unallowlisted",
      "type": "event"
    },
    {
      "inputs": [
        {
          "internalType": "address",
          "name": "_address",
          "type": "address"
        }
      ],
      "name": "addToAllowlist",
      "outputs": [],
      "stateMutability": "nonpayable",
      "type": "function"
    },
    {
      "inputs": [
        {
          "internalType": "address",
          "name": "_owner",
          "type": "address"
        },
        {
          "internalType": "bool",
          "name": "allowAny",
          "type": "bool"
        },
        {
          "internalType": "address[]",
          "name": "_addresses",
          "type": "address[]"
        }
      ],
      "name": "initializeAllowlist",
      "outputs": [],
      "stateMutability": "nonpayable",
      "type": "function"
    },
    {
      "inputs": [
        {
          "internalType": "bool",
          "name": "allowAny",
          "type": "bool"
        },
        {
          "internalType": "address[]",
          "name": "_addresses",
          "type": "address[]"
        }
      ],
      "name": "initializeAllowlist",
      "outputs": [],
      "stateMutability": "nonpayable",
      "type": "function"
    },
    {
      "inputs": [
        {
          "internalType": "address",
          "name": "_address",
          "type": "address"
        }
      ],
      "name": "isAllowed",
      "outputs": [
        {
          "internalType": "bool",
          "name": "",
          "type": "bool"
        }
      ],
      "stateMutability": "view",
      "type": "function"
    },
    {
      "inputs": [
        {
          "internalType": "address",
          "name": "_address",
          "type": "address"
        }
      ],
      "name": "removeFromAllowlist",
      "outputs": [],
      "stateMutability": "nonpayable",
      "type": "function"
    },
    {
      "inputs": [
        {
          "internalType": "bool",
          "name": "_allowAny",
          "type": "bool"
        }
      ],
      "name": "setAllowAny",
      "outputs": [],
      "stateMutability": "nonpayable",
      "type": "function"
    },
    {
      "inputs": [
        {
          "internalType": "bytes4",
          "name": "interfaceId",
          "type": "bytes4"
        }
      ],
      "name": "supportsInterface",
      "outputs": [
        {
          "internalType": "bool",
          "name": "",
          "type": "bool"
        }
      ],
      "stateMutability": "view",
      "type": "function"
    }
  ],
  "transactionHash": "0xe27e03790dec438b99bc1e2ce564e9c22936b4ee79a85908a4432e69cc56fe57",
  "args": [],
  "numDeployments": 1,
  "solcInputHash": "789160661a9bb39270968ba00bb416c2",
  "bytecode": "0x608060405234801561001057600080fd5b50610cd1806100206000396000f3fe608060405234801561001057600080fd5b506004361061007d5760003560e01c80639371ff2d1161005b5780639371ff2d146100d1578063a1ecb276146100e4578063babcc539146100f7578063f8e86ece1461010a57600080fd5b806301ffc9a71461008257806329953efa146100a95780635da93d7e146100be575b600080fd5b6100956100903660046108d7565b61011d565b604051901515815260200160405180910390f35b6100bc6100b7366004610916565b610160565b005b6100bc6100cc366004610948565b610185565b6100bc6100df366004610a1b565b6101a6565b6100bc6100f2366004610a79565b61022a565b610095610105366004610948565b610276565b6100bc610118366004610948565b610281565b6001600160e01b0319811660009081527ffc606c433378e3a7e0a6a531deac289b66caa1b4aa8554fd4ab2c6f1570f92d8602052604081205460ff165b92915050565b600080516020610c5c833981519152610178816102a2565b610181826102af565b5050565b600080516020610c5c83398151915261019d816102a2565b61018182610301565b600080516020610c7c8339815191525460ff16156101df5760405162461bcd60e51b81526004016101d690610ac7565b60405180910390fd5b6101f163babcc53960e01b6001610373565b61020363466a36a560e11b6001610373565b61021b600080516020610c5c833981519152846103e9565b610225828261045d565b505050565b600080516020610c7c8339815191525460ff161561025a5760405162461bcd60e51b81526004016101d690610ac7565b61026c63babcc53960e01b6001610373565b610181828261045d565b600061015a826104d4565b600080516020610c5c833981519152610299816102a2565b61018182610513565b6102ac8133610585565b50565b600080516020610c7c833981519152805461ff0019166101008315159081029190911782556040517f20a26f70c17ef9c9bac355de2d5319262bc14d5476e4e9a379fa663ef172486e90600090a25050565b600080516020610c7c83398151915261033a7f9fca1883cea1af9526093bc3a6f14a88fc5b5aaf6b6820bb26ccaa4c275327c5836105e7565b506040516001600160a01b038316907fe5058b95b8b6a8d48a6d241621ef523fab84db6043988a2f925baebedaa7883890600090a25050565b6001600160e01b0319808316900361039e5760405163b0a19dd560e01b815260040160405180910390fd5b6001600160e01b03199190911660009081527ffc606c433378e3a7e0a6a531deac289b66caa1b4aa8554fd4ab2c6f1570f92d860205260409020805460ff1916911515919091179055565b60008281527fd3889cc5458b268d0544e5534672df1296288ca3f93cbd39bd6f497a5c6228116020526040902061042090826105fc565b5060405133906001600160a01b0383169084907f2f8788117e7eff1d82e926ec794901d17c78024a50270940304540a733656f0d90600090a45050565b600080516020610c7c833981519152805460ff19166001178155610480836102af565b60005b82518110156104ce576104bb8382815181106104a1576104a1610b0a565b6020026020010151836001016105fc90919063ffffffff16565b50806104c681610b36565b915050610483565b50505050565b600080516020610c7c833981519152805460009190610100900460ff16156104ff5750600192915050565b61050c6001820184610611565b9392505050565b600080516020610c7c83398151915261054c7f9fca1883cea1af9526093bc3a6f14a88fc5b5aaf6b6820bb26ccaa4c275327c5836105fc565b506040516001600160a01b038316907f7eb3c7851085a7c7e2aa1a622201d2fcd72a7edf43e9321c62367687b30bb76f90600090a25050565b61058f8282610633565b610181576105a5816001600160a01b031661066a565b6105b083602061067c565b6040516020016105c1929190610b73565b60408051601f198184030181529082905262461bcd60e51b82526101d691600401610be8565b600061050c836001600160a01b0384166107cf565b600061050c836001600160a01b038416610894565b6001600160a01b0381166000908152600183016020526040812054151561050c565b60008281527fd3889cc5458b268d0544e5534672df1296288ca3f93cbd39bd6f497a5c6228116020526040812061050c9083610611565b606061015a6001600160a01b03831660145b6060600061068b836002610c1b565b610696906002610c32565b67ffffffffffffffff8111156106ae576106ae610963565b6040519080825280601f01601f1916602001820160405280156106d8576020820181803683370190505b509050600360fc1b816000815181106106f3576106f3610b0a565b60200101906001600160f81b031916908160001a905350600f60fb1b8160018151811061072257610722610b0a565b60200101906001600160f81b031916908160001a905350600160028402015b60018111156107af576f181899199a1a9b1b9c1cb0b131b232b360811b85600f166010811061077257610772610b0a565b1a60f81b82828151811061078857610788610b0a565b60200101906001600160f81b031916908160001a90535060049490941c9360001901610741565b50831561050c5760405163c913478560e01b815260040160405180910390fd5b6000818152600183016020526040812054801561088d5783546000908590600019810190811061080157610801610b0a565b906000526020600020015490508085600001600184038154811061082757610827610b0a565b600091825260208083209091019290925591825260018601905260409020819055835484908061085957610859610c45565b6001900381819060005260206000200160009055905583600101600084815260200190815260200160002060009055600191505b5092915050565b600081815260018301602052604081205461015a575081546001808201845560008481526020808220909301849055845493815293810190915260409092205590565b6000602082840312156108e957600080fd5b81356001600160e01b03198116811461050c57600080fd5b8035801515811461091157600080fd5b919050565b60006020828403121561092857600080fd5b61050c82610901565b80356001600160a01b038116811461091157600080fd5b60006020828403121561095a57600080fd5b61050c82610931565b634e487b7160e01b600052604160045260246000fd5b600082601f83011261098a57600080fd5b8135602067ffffffffffffffff808311156109a7576109a7610963565b8260051b604051601f19603f830116810181811084821117156109cc576109cc610963565b6040529384528581018301938381019250878511156109ea57600080fd5b83870191505b84821015610a1057610a0182610931565b835291830191908301906109f0565b979650505050505050565b600080600060608486031215610a3057600080fd5b610a3984610931565b9250610a4760208501610901565b9150604084013567ffffffffffffffff811115610a6357600080fd5b610a6f86828701610979565b9150509250925092565b60008060408385031215610a8c57600080fd5b610a9583610901565b9150602083013567ffffffffffffffff811115610ab157600080fd5b610abd85828601610979565b9150509250929050565b60208082526023908201527f416c6c6f776c69737446616365743a20616c726561647920696e697469616c696040820152621e995960ea1b606082015260800190565b634e487b7160e01b600052603260045260246000fd5b634e487b7160e01b600052601160045260246000fd5b600060018201610b4857610b48610b20565b5060010190565b60005b83811015610b6a578181015183820152602001610b52565b50506000910152565b7f416363657373436f6e74726f6c3a206163636f756e7420000000000000000000815260008351610bab816017850160208801610b4f565b7001034b99036b4b9b9b4b733903937b6329607d1b6017918401918201528351610bdc816028840160208801610b4f565b01602801949350505050565b6020815260008251806020840152610c07816040850160208701610b4f565b601f01601f19169190910160400192915050565b808202811582820484141761015a5761015a610b20565b8082018082111561015a5761015a610b20565b634e487b7160e01b600052603160045260246000fdfe18442e22641370002622a608e197db432d3d4c113dab8ef4bf55fdc4eeed18699fca1883cea1af9526093bc3a6f14a88fc5b5aaf6b6820bb26ccaa4c275327c4a26469706673582212203c49669a75b5eb868ca8cdc008f6611cb2e04a668e018bda4e4f39bc2a7a248c64736f6c63430008110033",
  "devdoc": {
    "details": "Allows owner to set an allowlist of addresses",
    "kind": "dev",
    "methods": {
      "supportsInterface(bytes4)": {
        "params": {
          "interfaceId": "interface id"
        },
        "returns": {
          "_0": "bool whether interface is supported"
        }
      }
    },
    "title": "AllowlistFacet",
    "version": 1
  },
  "userdoc": {
    "kind": "user",
    "methods": {
      "addToAllowlist(address)": {
        "notice": "Add to allowlist"
      },
      "initializeAllowlist(address,bool,address[])": {
        "notice": "Initialize allowlist with owner"
      },
      "initializeAllowlist(bool,address[])": {
        "notice": "Initialize allowlist"
      },
      "isAllowed(address)": {
        "notice": "Check if address is allowed"
      },
      "removeFromAllowlist(address)": {
        "notice": "Remove from allowlist"
      },
      "setAllowAny(bool)": {
        "notice": "Set allow any"
      },
      "supportsInterface(bytes4)": {
        "notice": "query whether contract has registered support for given interface"
      }
    },
    "version": 1
  },
  "storageLayout": {
    "storage": [],
    "types": null
  }
}