{
  "address": "0x957044295Ed60dC9432B3A4a83f7233A44d09095",
  "abi": [
    {
      "inputs": [],
      "name": "ERC165Base__InvalidInterfaceId",
      "type": "error"
    },
    {
      "inputs": [],
      "name": "UintUtils__InsufficientHexLength",
      "type": "error"
    },
    {
      "anonymous": false,
      "inputs": [
        {
          "indexed": false,
          "internalType": "uint256",
          "name": "initialPeriodStartTime",
          "type": "uint256"
        }
      ],
      "name": "InitialPeriodStartTimeSet",
      "type": "event"
    },
    {
      "anonymous": false,
      "inputs": [
        {
          "indexed": true,
          "internalType": "bytes32",
          "name": "role",
          "type": "bytes32"
        },
        {
          "indexed": true,
          "internalType": "bytes32",
          "name": "previousAdminRole",
          "type": "bytes32"
        },
        {
          "indexed": true,
          "internalType": "bytes32",
          "name": "newAdminRole",
          "type": "bytes32"
        }
      ],
      "name": "RoleAdminChanged",
      "type": "event"
    },
    {
      "anonymous": false,
      "inputs": [
        {
          "indexed": true,
          "internalType": "bytes32",
          "name": "role",
          "type": "bytes32"
        },
        {
          "indexed": true,
          "internalType": "address",
          "name": "account",
          "type": "address"
        },
        {
          "indexed": true,
          "internalType": "address",
          "name": "sender",
          "type": "address"
        }
      ],
      "name": "RoleGranted",
      "type": "event"
    },
    {
      "anonymous": false,
      "inputs": [
        {
          "indexed": true,
          "internalType": "bytes32",
          "name": "role",
          "type": "bytes32"
        },
        {
          "indexed": true,
          "internalType": "address",
          "name": "account",
          "type": "address"
        },
        {
          "indexed": true,
          "internalType": "address",
          "name": "sender",
          "type": "address"
        }
      ],
      "name": "RoleRevoked",
      "type": "event"
    },
    {
      "inputs": [],
      "name": "auctionEndTime",
      "outputs": [
        {
          "internalType": "uint256",
          "name": "",
          "type": "uint256"
        }
      ],
      "stateMutability": "view",
      "type": "function"
    },
    {
      "inputs": [],
      "name": "auctionLengthSeconds",
      "outputs": [
        {
          "internalType": "uint256",
          "name": "",
          "type": "uint256"
        }
      ],
      "stateMutability": "view",
      "type": "function"
    },
    {
      "inputs": [],
      "name": "auctionStartTime",
      "outputs": [
        {
          "internalType": "uint256",
          "name": "",
          "type": "uint256"
        }
      ],
      "stateMutability": "view",
      "type": "function"
    },
    {
      "inputs": [],
      "name": "bidExtensionSeconds",
      "outputs": [
        {
          "internalType": "uint256",
          "name": "",
          "type": "uint256"
        }
      ],
      "stateMutability": "view",
      "type": "function"
    },
    {
      "inputs": [],
      "name": "bidExtensionWindowLengthSeconds",
      "outputs": [
        {
          "internalType": "uint256",
          "name": "",
          "type": "uint256"
        }
      ],
      "stateMutability": "view",
      "type": "function"
    },
    {
      "inputs": [
        {
          "internalType": "address",
          "name": "bidder",
          "type": "address"
        }
      ],
      "name": "bidOf",
      "outputs": [
        {
          "components": [
            {
              "internalType": "uint256",
              "name": "round",
              "type": "uint256"
            },
            {
              "internalType": "address",
              "name": "bidder",
              "type": "address"
            },
            {
              "internalType": "uint256",
              "name": "bidAmount",
              "type": "uint256"
            },
            {
              "internalType": "uint256",
              "name": "feeAmount",
              "type": "uint256"
            },
            {
              "internalType": "uint256",
              "name": "collateralAmount",
              "type": "uint256"
            }
          ],
          "internalType": "struct IEnglishPeriodicAuctionInternal.Bid",
          "name": "",
          "type": "tuple"
        }
      ],
      "stateMutability": "view",
      "type": "function"
    },
    {
      "inputs": [
        {
          "internalType": "uint256",
          "name": "bidAmount",
          "type": "uint256"
        }
      ],
      "name": "calculateFeeFromBid",
      "outputs": [
        {
          "internalType": "uint256",
          "name": "",
          "type": "uint256"
        }
      ],
      "stateMutability": "view",
      "type": "function"
    },
    {
      "inputs": [],
      "name": "closeAuction",
      "outputs": [],
      "stateMutability": "nonpayable",
      "type": "function"
    },
    {
      "inputs": [],
      "name": "currentBid",
      "outputs": [
        {
          "components": [
            {
              "internalType": "uint256",
              "name": "round",
              "type": "uint256"
            },
            {
              "internalType": "address",
              "name": "bidder",
              "type": "address"
            },
            {
              "internalType": "uint256",
              "name": "bidAmount",
              "type": "uint256"
            },
            {
              "internalType": "uint256",
              "name": "feeAmount",
              "type": "uint256"
            },
            {
              "internalType": "uint256",
              "name": "collateralAmount",
              "type": "uint256"
            }
          ],
          "internalType": "struct IEnglishPeriodicAuctionInternal.Bid",
          "name": "",
          "type": "tuple"
        }
      ],
      "stateMutability": "view",
      "type": "function"
    },
    {
      "inputs": [],
      "name": "highestBid",
      "outputs": [
        {
          "components": [
            {
              "internalType": "uint256",
              "name": "round",
              "type": "uint256"
            },
            {
              "internalType": "address",
              "name": "bidder",
              "type": "address"
            },
            {
              "internalType": "uint256",
              "name": "bidAmount",
              "type": "uint256"
            },
            {
              "internalType": "uint256",
              "name": "feeAmount",
              "type": "uint256"
            },
            {
              "internalType": "uint256",
              "name": "collateralAmount",
              "type": "uint256"
            }
          ],
          "internalType": "struct IEnglishPeriodicAuctionInternal.Bid",
          "name": "",
          "type": "tuple"
        }
      ],
      "stateMutability": "view",
      "type": "function"
    },
    {
      "inputs": [],
      "name": "initialPeriodStartTime",
      "outputs": [
        {
          "internalType": "uint256",
          "name": "",
          "type": "uint256"
        }
      ],
      "stateMutability": "view",
      "type": "function"
    },
    {
      "inputs": [
        {
          "internalType": "address",
          "name": "_repossessor",
          "type": "address"
        },
        {
          "internalType": "address",
          "name": "initialBidder",
          "type": "address"
        },
        {
          "internalType": "uint256",
          "name": "_initialPeriodStartTime",
          "type": "uint256"
        },
        {
          "internalType": "uint256",
          "name": "startingBid",
          "type": "uint256"
        },
        {
          "internalType": "uint256",
          "name": "_auctionLengthSeconds",
          "type": "uint256"
        },
        {
          "internalType": "uint256",
          "name": "_minBidIncrement",
          "type": "uint256"
        },
        {
          "internalType": "uint256",
          "name": "_bidExtensionWindowLengthSeconds",
          "type": "uint256"
        },
        {
          "internalType": "uint256",
          "name": "_bidExtensionSeconds",
          "type": "uint256"
        }
      ],
      "name": "initializeAuction",
      "outputs": [],
      "stateMutability": "nonpayable",
      "type": "function"
    },
    {
      "inputs": [
        {
          "internalType": "address",
          "name": "_owner",
          "type": "address"
        },
        {
          "internalType": "address",
          "name": "_repossessor",
          "type": "address"
        },
        {
          "internalType": "address",
          "name": "initialBidder",
          "type": "address"
        },
        {
          "internalType": "uint256",
          "name": "_initialPeriodStartTime",
          "type": "uint256"
        },
        {
          "internalType": "uint256",
          "name": "startingBid",
          "type": "uint256"
        },
        {
          "internalType": "uint256",
          "name": "_auctionLengthSeconds",
          "type": "uint256"
        },
        {
          "internalType": "uint256",
          "name": "_minBidIncrement",
          "type": "uint256"
        },
        {
          "internalType": "uint256",
          "name": "_bidExtensionWindowLengthSeconds",
          "type": "uint256"
        },
        {
          "internalType": "uint256",
          "name": "_bidExtensionSeconds",
          "type": "uint256"
        }
      ],
      "name": "initializeAuction",
      "outputs": [],
      "stateMutability": "nonpayable",
      "type": "function"
    },
    {
      "inputs": [],
      "name": "isAuctionPeriod",
      "outputs": [
        {
          "internalType": "bool",
          "name": "",
          "type": "bool"
        }
      ],
      "stateMutability": "view",
      "type": "function"
    },
    {
      "inputs": [],
      "name": "isReadyForTransfer",
      "outputs": [
        {
          "internalType": "bool",
          "name": "",
          "type": "bool"
        }
      ],
      "stateMutability": "view",
      "type": "function"
    },
    {
      "inputs": [],
      "name": "minBidIncrement",
      "outputs": [
        {
          "internalType": "uint256",
          "name": "",
          "type": "uint256"
        }
      ],
      "stateMutability": "view",
      "type": "function"
    },
    {
      "inputs": [
        {
          "internalType": "uint256",
          "name": "bidAmount",
          "type": "uint256"
        }
      ],
      "name": "placeBid",
      "outputs": [],
      "stateMutability": "payable",
      "type": "function"
    },
    {
      "inputs": [],
      "name": "repossessor",
      "outputs": [
        {
          "internalType": "address",
          "name": "",
          "type": "address"
        }
      ],
      "stateMutability": "view",
      "type": "function"
    },
    {
      "inputs": [
        {
          "internalType": "uint256",
          "name": "_auctionLengthSeconds",
          "type": "uint256"
        }
      ],
      "name": "setAuctionLengthSeconds",
      "outputs": [],
      "stateMutability": "nonpayable",
      "type": "function"
    },
    {
      "inputs": [
        {
          "internalType": "uint256",
          "name": "_bidExtensionSeconds",
          "type": "uint256"
        }
      ],
      "name": "setBidExtensionSeconds",
      "outputs": [],
      "stateMutability": "nonpayable",
      "type": "function"
    },
    {
      "inputs": [
        {
          "internalType": "uint256",
          "name": "_bidExtensionWindowLengthSeconds",
          "type": "uint256"
        }
      ],
      "name": "setBidExtensionWindowLengthSeconds",
      "outputs": [],
      "stateMutability": "nonpayable",
      "type": "function"
    },
    {
      "inputs": [
        {
          "internalType": "uint256",
          "name": "_minBidIncrement",
          "type": "uint256"
        }
      ],
      "name": "setMinBidIncrement",
      "outputs": [],
      "stateMutability": "nonpayable",
      "type": "function"
    },
    {
      "inputs": [
        {
          "internalType": "address",
          "name": "_repossessor",
          "type": "address"
        }
      ],
      "name": "setRepossessor",
      "outputs": [],
      "stateMutability": "nonpayable",
      "type": "function"
    },
    {
      "inputs": [],
      "name": "withdrawBid",
      "outputs": [],
      "stateMutability": "nonpayable",
      "type": "function"
    }
  ],
  "transactionHash": "0x81dd32549d04b3be88feb589c364fa24e819af9d43f1e287088ec51ae1c49aad",
  "args": [],
  "numDeployments": 3,
  "solcInputHash": "4af5e4fd5a2a3b80cb4af54040e461f5",
  "bytecode": "0x608060405234801561001057600080fd5b50611e3a806100206000396000f3fe60806040526004361061014b5760003560e01c80638dc30b70116100b6578063d57bde791161006f578063d57bde7914610398578063dba85ccb146103ad578063def18101146103cd578063eb54f9ec146103e2578063ec214d33146103f7578063ec6174fe1461040c57600080fd5b80638dc30b70146102c05780639979ef4514610326578063b8d2c48714610339578063be6a2a6d14610359578063bff821981461036e578063c3bab6461461038357600080fd5b806355cc19ea1161010857806355cc19ea146101fe57806355ee09d714610213578063609e46fb1461023357806361a7a2261461025357806371c65bde14610273578063868c5466146102a057600080fd5b8063084a29f61461015057806324db41901461017a578063335b115e1461019c57806337271cc7146101bf578063378252f2146101d45780634b449cba146101e9575b600080fd5b34801561015c57600080fd5b5061016561042c565b60405190151581526020015b60405180910390f35b34801561018657600080fd5b5061019a610195366004611aad565b61043b565b005b3480156101a857600080fd5b506101b1610460565b604051908152602001610171565b3480156101cb57600080fd5b5061019a61046a565b3480156101e057600080fd5b5061019a610475565b3480156101f557600080fd5b506101b16104ea565b34801561020a57600080fd5b506101b16104f4565b34801561021f57600080fd5b5061019a61022e366004611aca565b6104fe565b34801561023f57600080fd5b5061019a61024e366004611aca565b61051f565b34801561025f57600080fd5b5061019a61026e366004611aca565b610540565b34801561027f57600080fd5b50610288610561565b6040516001600160a01b039091168152602001610171565b3480156102ac57600080fd5b506101b16102bb366004611aca565b61056b565b3480156102cc57600080fd5b506102e06102db366004611aad565b61057c565b6040516101719190815181526020808301516001600160a01b03169082015260408083015190820152606080830151908201526080918201519181019190915260a00190565b61019a610334366004611aca565b6105d5565b34801561034557600080fd5b5061019a610354366004611ae3565b6107a9565b34801561036557600080fd5b506101b16107fa565b34801561037a57600080fd5b506101b1610804565b34801561038f57600080fd5b506101b161080e565b3480156103a457600080fd5b506102e0610818565b3480156103b957600080fd5b5061019a6103c8366004611aca565b61086f565b3480156103d957600080fd5b506102e0610890565b3480156103ee57600080fd5b506101b16108a0565b34801561040357600080fd5b506101656108aa565b34801561041857600080fd5b5061019a610427366004611b4e565b6108b4565b6000610436610930565b905090565b600080516020611de583398151915261045381610942565b61045c8261094c565b5050565b600061043661097d565b61047333610990565b565b61047d610930565b6104e25760405162461bcd60e51b815260206004820152602b60248201527f456e676c697368506572696f64696341756374696f6e3a2061756374696f6e2060448201526a34b9903737ba1037bb32b960a91b60648201526084015b60405180910390fd5b610473610c6d565b6000610436610f00565b6000610436610f2a565b600080516020611de583398151915261051681610942565b61045c82610f3d565b600080516020611de583398151915261053781610942565b61045c82610f4d565b600080516020611de583398151915261055881610942565b61045c82610f5d565b6000610436610f6d565b600061057682610f8b565b92915050565b610584611a60565b61058d826110e6565b6040805160a0810182528254815260018301546001600160a01b0316602082015260028301549181019190915260038201546060820152600490910154608082015292915050565b6105dd611111565b61064f5760405162461bcd60e51b815260206004820152603c60248201527f456e676c697368506572696f64696341756374696f6e3a2063616e206f6e6c7960448201527f20706c6163652062696420696e2061756374696f6e20706572696f640000000060648201526084016104d9565b610657610930565b156106ca5760405162461bcd60e51b815260206004820152603d60248201527f456e676c697368506572696f64696341756374696f6e3a2061756374696f6e2060448201527f6973206f76657220616e64206177616974696e67207472616e7366657200000060648201526084016104d9565b60405163babcc53960e01b8152336004820152309063babcc53990602401602060405180830381865afa158015610705573d6000803e3d6000fd5b505050506040513d601f19601f820116820180604052508101906107299190611bcf565b61079b5760405162461bcd60e51b815260206004820152603a60248201527f456e676c697368506572696f64696341756374696f6e3a2073656e646572206960448201527f73206e6f7420616c6c6f77656420746f20706c6163652062696400000000000060648201526084016104d9565b6107a633823461111b565b50565b6107b161145e565b156107ce5760405162461bcd60e51b81526004016104d990611bf1565b6107e063ec214d3360e01b6001611471565b6107f088888888888888886114e7565b5050505050505050565b60006104366115d7565b60006104366115ea565b60006104366115fd565b610820611a60565b610828611610565b6040805160a0810182528254815260018301546001600160a01b03166020820152600283015491810191909152600382015460608201526004909101546080820152919050565b600080516020611de583398151915261088781610942565b61045c82611622565b610898611a60565b610828611632565b6000610436611644565b6000610436611111565b6108bc61145e565b156108d95760405162461bcd60e51b81526004016104d990611bf1565b6108eb63ec214d3360e01b6001611471565b6108fd63aba4f05160e01b6001611471565b610915600080516020611de58339815191528a6116e8565b61092588888888888888886114e7565b505050505050505050565b600061093a610f00565b421015905090565b6107a6813361175c565b806109556117be565b80546001600160a01b039290921661010002610100600160a81b031990921691909117905550565b60006109876117be565b60030154905090565b600061099a6117be565b6040516331a9108f60e11b81526000600482018190529192503090636352211e90602401602060405180830381865afa1580156109db573d6000803e3d6000fd5b505050506040513d601f19601f820116820180604052508101906109ff9190611c41565b9050806001600160a01b0316836001600160a01b031603610a885760405162461bcd60e51b815260206004820152603d60248201527f456e676c697368506572696f64696341756374696f6e3a2043616e6e6f74207760448201527f69746864726177206269642069662063757272656e742062696464657200000060648201526084016104d9565b60108201546001600160a01b0390811690841603610b0e5760405162461bcd60e51b815260206004820152603d60248201527f456e676c697368506572696f64696341756374696f6e3a2043616e6e6f74207760448201527f697468647261772062696420696620686967686573742062696464657200000060648201526084016104d9565b6001600160a01b038316600090815260098301602052604090206004810154610b935760405162461bcd60e51b815260206004820152603160248201527f456e676c697368506572696f64696341756374696f6e3a204e6f20636f6c6c61604482015270746572616c20746f20776974686472617760781b60648201526084016104d9565b600481018054600091829055600283018290556040519091906001600160a01b0387169083908381818185875af1925050503d8060008114610bf1576040519150601f19603f3d011682016040523d82523d6000602084013e610bf6565b606091505b5050905080610c655760405162461bcd60e51b815260206004820152603560248201527f456e676c697368506572696f64696341756374696f6e3a204661696c656420746044820152741bc81dda5d1a191c985dc818dbdb1b185d195c985b605a1b60648201526084016104d9565b505050505050565b6000610c776117be565b6040516331a9108f60e11b81526000600482018190529192503090636352211e90602401602060405180830381865afa158015610cb8573d6000803e3d6000fd5b505050506040513d601f19601f82011682018060405250810190610cdc9190611c41565b4260068401556007830154600f84015491925014610d88578154610100908190046001600160a01b039081166000908152600985016020526040812060078601548082556002820183815560048301848155600384019485558854600190940180549790940486166001600160a01b0319978816178455600f89019290925591546010880180549190951695169490941790925590546011850155546012840155546013830155610dac565b600c8201546001600160a01b03821660009081526009840160205260409020600401555b600f820154600a8301556010820154600b830180546001600160a01b0319166001600160a01b0390921691821790556011830154600c8401556012830154600d84015560009081526009830160205260408120600401819055600e830155600282015460088301556007820154610e24906001611c74565b6007830155601082015460405163e31a7c0160e01b81526001600160a01b038084166004830152909116602482015260006044820152309063e31a7c0190606401600060405180830381600087803b158015610e7f57600080fd5b505af1158015610e93573d6000803e3d6000fd5b5050505060128201541561045c57306001600160a01b031663e4fc6b6d83600f01600301546040518263ffffffff1660e01b81526004016000604051808303818588803b158015610ee357600080fd5b505af1158015610ef7573d6000803e3d6000fd5b50505050505050565b600080610f0b6117be565b90508060080154610f1a611644565b610f249190611c74565b91505090565b6000610f346117be565b60040154905090565b80610f466117be565b6003015550565b80610f566117be565b6005015550565b80610f666117be565b6002015550565b6000610f776117be565b5461010090046001600160a01b0316919050565b600080306001600160a01b03166279c6e96040518163ffffffff1660e01b8152600401602060405180830381865afa158015610fcb573d6000803e3d6000fd5b505050506040513d601f19601f82011682018060405250810190610fef9190611c87565b90506000306001600160a01b031663935cc61d6040518163ffffffff1660e01b8152600401602060405180830381865afa158015611031573d6000803e3d6000fd5b505050506040513d601f19601f820116820180604052508101906110559190611c87565b90506000306001600160a01b031663fd8e6f286040518163ffffffff1660e01b8152600401602060405180830381865afa158015611097573d6000803e3d6000fd5b505050506040513d601f19601f820116820180604052508101906110bb9190611c87565b905080826110c98588611ca0565b6110d39190611cb7565b6110dd9190611ca0565b95945050505050565b60006110f06117be565b6001600160a01b039092166000908152600992909201602052506040902090565b600061093a611644565b60006111256117be565b6001600160a01b038516600090815260098201602052604090206003820154601183015492935090916111589190611c74565b8410156111e55760405162461bcd60e51b815260206004820152604f60248201527f456e676c697368506572696f64696341756374696f6e3a2042696420616d6f7560448201527f6e74206d7573742062652067726561746572207468616e20686967686573742060648201526e1bdd5d1cdd185b991a5b99c8189a59608a1b608482015260a4016104d9565b6000826007015482600001540361120d578382600401546112069190611c74565b9050611210565b50825b6040516331a9108f60e11b81526000600482018190529081903090636352211e90602401602060405180830381865afa158015611251573d6000803e3d6000fd5b505050506040513d601f19601f820116820180604052508101906112759190611c41565b9050806001600160a01b0316886001600160a01b0316036112985782915061132f565b600c850154831161131d5760405162461bcd60e51b815260206004820152604360248201527f456e676c697368506572696f64696341756374696f6e3a20436f6c6c6174657260448201527f616c206d7573742062652067726561746572207468616e2063757272656e7420606482015262189a5960ea1b608482015260a4016104d9565b600c85015461132c9084611cd9565b91505b61133987836117e2565b61139a5760405162461bcd60e51b815260206004820152602c60248201527f456e676c697368506572696f64696341756374696f6e3a20496e636f7272656360448201526b1d08189a5908185b5bdd5b9d60a21b60648201526084016104d9565b6001840180546001600160a01b03808b166001600160a01b0319928316178355600287018a815560078901548089556003890187815560048a01898155600f8c0192909255945460108b01805490951693169290921790925590546011880155905460128701555460138601556000611411610f00565b90504281101580156114325750611426610f2a565b6114304283611cd9565b105b156109255761143f6115ea565b866008015461144e9190611c74565b6008870155505050505050505050565b60006114686117be565b5460ff16919050565b6001600160e01b0319808316900361149c5760405163b0a19dd560e01b815260040160405180910390fd5b6001600160e01b03199190911660009081527ffc606c433378e3a7e0a6a531deac289b66caa1b4aa8554fd4ab2c6f1570f92d860205260409020805460ff1916911515919091179055565b60006114f16117be565b805460ff1916600117815590506115078961094c565b611510876117f8565b61151985610f5d565b61152284610f3d565b61152b83611622565b61153482610f4d565b60088101949094555050600160078301819055600a8301819055600b830180546001600160a01b039788166001600160a01b031991821681178355600c86019687556000600e8701818155600d8801828155928252600988016020526040909120858155935494840180548416958b1695909517909455955460028301559454600382015590546004919091015550601001805494909316931692909217905550565b60006115e16117be565b60010154905090565b60006115f46117be565b60050154905090565b60006116076117be565b60020154905090565b600061161a6117be565b600f01905090565b8061162b6117be565b6004015550565b600061163c6117be565b600a01905090565b60008061164f6117be565b90506000306001600160a01b031663fd8e6f286040518163ffffffff1660e01b8152600401602060405180830381865afa158015611691573d6000803e3d6000fd5b505050506040513d601f19601f820116820180604052508101906116b59190611c87565b90508160010154826006015411156116de578082600601546116d79190611c74565b9250505090565b5060010154919050565b60008281527fd3889cc5458b268d0544e5534672df1296288ca3f93cbd39bd6f497a5c6228116020526040902061171f9082611843565b5060405133906001600160a01b0383169084907f2f8788117e7eff1d82e926ec794901d17c78024a50270940304540a733656f0d90600090a45050565b611766828261185f565b61045c5761177c816001600160a01b03166118b8565b6117878360206118ca565b604051602001611798929190611d10565b60408051601f198184030181529082905262461bcd60e51b82526104d991600401611d85565b7fc7ed1b841b2d3c7f16d15642e7b013e89732e44006608d59c7547b8e331a7ce090565b6000806117ee84610f8b565b9092149392505050565b60006118026117be565b600181018390556040518381529091507f8250dc18fdc49ec02556ec27015b234378c1e068c9bd5840abe8590280b5489b9060200160405180910390a15050565b6000611858836001600160a01b038416611a1d565b9392505050565b6000611858827fd3889cc5458b268d0544e5534672df1296288ca3f93cbd39bd6f497a5c622811600086815260209190915260409020906001600160a01b03811660009081526001830160205260408120541515611858565b60606105766001600160a01b03831660145b606060006118d9836002611ca0565b6118e4906002611c74565b67ffffffffffffffff8111156118fc576118fc611db8565b6040519080825280601f01601f191660200182016040528015611926576020820181803683370190505b509050600360fc1b8160008151811061194157611941611dce565b60200101906001600160f81b031916908160001a905350600f60fb1b8160018151811061197057611970611dce565b60200101906001600160f81b031916908160001a905350600160028402015b60018111156119fd576f181899199a1a9b1b9c1cb0b131b232b360811b85600f16601081106119c0576119c0611dce565b1a60f81b8282815181106119d6576119d6611dce565b60200101906001600160f81b031916908160001a90535060049490941c936000190161198f565b5083156118585760405163c913478560e01b815260040160405180910390fd5b6000818152600183016020526040812054610576575081546001808201845560008481526020808220909301849055845493815293810190915260409092205590565b6040518060a001604052806000815260200160006001600160a01b031681526020016000815260200160008152602001600081525090565b6001600160a01b03811681146107a657600080fd5b600060208284031215611abf57600080fd5b813561185881611a98565b600060208284031215611adc57600080fd5b5035919050565b600080600080600080600080610100898b031215611b0057600080fd5b8835611b0b81611a98565b97506020890135611b1b81611a98565b979a9799505050506040860135956060810135956080820135955060a0820135945060c0820135935060e0909101359150565b60008060008060008060008060006101208a8c031215611b6d57600080fd5b8935611b7881611a98565b985060208a0135611b8881611a98565b975060408a0135611b9881611a98565b989b979a5097986060810135985060808101359760a0820135975060c0820135965060e08201359550610100909101359350915050565b600060208284031215611be157600080fd5b8151801515811461185857600080fd5b60208082526030908201527f456e676c697368506572696f64696341756374696f6e46616365743a20616c7260408201526f1958591e481a5b9a5d1a585b1a5e995960821b606082015260800190565b600060208284031215611c5357600080fd5b815161185881611a98565b634e487b7160e01b600052601160045260246000fd5b8082018082111561057657610576611c5e565b600060208284031215611c9957600080fd5b5051919050565b808202811582820484141761057657610576611c5e565b600082611cd457634e487b7160e01b600052601260045260246000fd5b500490565b8181038181111561057657610576611c5e565b60005b83811015611d07578181015183820152602001611cef565b50506000910152565b7f416363657373436f6e74726f6c3a206163636f756e7420000000000000000000815260008351611d48816017850160208801611cec565b7001034b99036b4b9b9b4b733903937b6329607d1b6017918401918201528351611d79816028840160208801611cec565b01602801949350505050565b6020815260008251806020840152611da4816040850160208701611cec565b601f01601f19169190910160400192915050565b634e487b7160e01b600052604160045260246000fd5b634e487b7160e01b600052603260045260246000fdfe27d47e2aa570d0f5aa1d72abbe4d60032a12e3514b8c2bc8a49a9968779054c2a264697066735822122060d6c48939a57196cfd9af3b6587c9d386248681fa258a7e3a3268da1faec05664736f6c63430008110033",
  "devdoc": {
    "kind": "dev",
    "methods": {},
    "title": "EnglishPeriodicAuctionFacet",
    "version": 1
  },
  "userdoc": {
    "kind": "user",
    "methods": {
      "auctionEndTime()": {
        "notice": "Get auction end time"
      },
      "auctionLengthSeconds()": {
        "notice": "Get auction length"
      },
      "auctionStartTime()": {
        "notice": "Get auction start time"
      },
      "bidExtensionSeconds()": {
        "notice": "Get bid extension seconds"
      },
      "bidExtensionWindowLengthSeconds()": {
        "notice": "Get bid extension window length"
      },
      "bidOf(address)": {
        "notice": "Get bid for address"
      },
      "calculateFeeFromBid(uint256)": {
        "notice": "Calculate fee from bid"
      },
      "closeAuction()": {
        "notice": "Close auction and trigger a transfer to the highest bidder"
      },
      "currentBid()": {
        "notice": "Get current bid"
      },
      "highestBid()": {
        "notice": "Get highest outstanding bid"
      },
      "initialPeriodStartTime()": {
        "notice": "Get initial period start time"
      },
      "initializeAuction(address,address,address,uint256,uint256,uint256,uint256,uint256,uint256)": {
        "notice": "Initialize auction parameters with owner"
      },
      "initializeAuction(address,address,uint256,uint256,uint256,uint256,uint256,uint256)": {
        "notice": "Initialize auction parameters"
      },
      "isAuctionPeriod()": {
        "notice": "Get is auction period"
      },
      "isReadyForTransfer()": {
        "notice": "Is token ready for transfer"
      },
      "minBidIncrement()": {
        "notice": "Get minimum bid increment"
      },
      "placeBid(uint256)": {
        "notice": "Place a bid"
      },
      "repossessor()": {
        "notice": "Get repossessor"
      },
      "setAuctionLengthSeconds(uint256)": {
        "notice": "Set auction length"
      },
      "setBidExtensionSeconds(uint256)": {
        "notice": "Set bid extension seconds"
      },
      "setBidExtensionWindowLengthSeconds(uint256)": {
        "notice": "Set bid extension window length"
      },
      "setMinBidIncrement(uint256)": {
        "notice": "Set minimum bid increment"
      },
      "setRepossessor(address)": {
        "notice": "Set repossessor"
      },
      "withdrawBid()": {
        "notice": "Withdraw bid collateral"
      }
    },
    "version": 1
  },
  "storageLayout": {
    "storage": [],
    "types": null
  }
}