{
  "address": "0xebe5138a89B27A95199B54130bC18234bcD0A1c1",
  "abi": [
    {
      "inputs": [],
      "name": "ERC165Base__InvalidInterfaceId",
      "type": "error"
    },
    {
      "inputs": [],
      "name": "UintUtils__InsufficientHexLength",
      "type": "error"
    },
    {
      "anonymous": false,
      "inputs": [
        {
          "indexed": true,
          "internalType": "bytes32",
          "name": "role",
          "type": "bytes32"
        },
        {
          "indexed": true,
          "internalType": "bytes32",
          "name": "previousAdminRole",
          "type": "bytes32"
        },
        {
          "indexed": true,
          "internalType": "bytes32",
          "name": "newAdminRole",
          "type": "bytes32"
        }
      ],
      "name": "RoleAdminChanged",
      "type": "event"
    },
    {
      "anonymous": false,
      "inputs": [
        {
          "indexed": true,
          "internalType": "bytes32",
          "name": "role",
          "type": "bytes32"
        },
        {
          "indexed": true,
          "internalType": "address",
          "name": "account",
          "type": "address"
        },
        {
          "indexed": true,
          "internalType": "address",
          "name": "sender",
          "type": "address"
        }
      ],
      "name": "RoleGranted",
      "type": "event"
    },
    {
      "anonymous": false,
      "inputs": [
        {
          "indexed": true,
          "internalType": "bytes32",
          "name": "role",
          "type": "bytes32"
        },
        {
          "indexed": true,
          "internalType": "address",
          "name": "account",
          "type": "address"
        },
        {
          "indexed": true,
          "internalType": "address",
          "name": "sender",
          "type": "address"
        }
      ],
      "name": "RoleRevoked",
      "type": "event"
    },
    {
      "inputs": [],
      "name": "auctionEndTime",
      "outputs": [
        {
          "internalType": "uint256",
          "name": "",
          "type": "uint256"
        }
      ],
      "stateMutability": "view",
      "type": "function"
    },
    {
      "inputs": [],
      "name": "auctionLengthSeconds",
      "outputs": [
        {
          "internalType": "uint256",
          "name": "",
          "type": "uint256"
        }
      ],
      "stateMutability": "view",
      "type": "function"
    },
    {
      "inputs": [],
      "name": "auctionStartTime",
      "outputs": [
        {
          "internalType": "uint256",
          "name": "",
          "type": "uint256"
        }
      ],
      "stateMutability": "view",
      "type": "function"
    },
    {
      "inputs": [],
      "name": "bidExtensionSeconds",
      "outputs": [
        {
          "internalType": "uint256",
          "name": "",
          "type": "uint256"
        }
      ],
      "stateMutability": "view",
      "type": "function"
    },
    {
      "inputs": [],
      "name": "bidExtensionWindowLengthSeconds",
      "outputs": [
        {
          "internalType": "uint256",
          "name": "",
          "type": "uint256"
        }
      ],
      "stateMutability": "view",
      "type": "function"
    },
    {
      "inputs": [
        {
          "internalType": "address",
          "name": "bidder",
          "type": "address"
        }
      ],
      "name": "bidOf",
      "outputs": [
        {
          "components": [
            {
              "internalType": "uint256",
              "name": "round",
              "type": "uint256"
            },
            {
              "internalType": "address",
              "name": "bidder",
              "type": "address"
            },
            {
              "internalType": "uint256",
              "name": "bidAmount",
              "type": "uint256"
            },
            {
              "internalType": "uint256",
              "name": "feeAmount",
              "type": "uint256"
            },
            {
              "internalType": "uint256",
              "name": "collateralAmount",
              "type": "uint256"
            }
          ],
          "internalType": "struct IEnglishPeriodicAuctionInternal.Bid",
          "name": "",
          "type": "tuple"
        }
      ],
      "stateMutability": "view",
      "type": "function"
    },
    {
      "inputs": [
        {
          "internalType": "uint256",
          "name": "bidAmount",
          "type": "uint256"
        }
      ],
      "name": "calculateFeeFromBid",
      "outputs": [
        {
          "internalType": "uint256",
          "name": "",
          "type": "uint256"
        }
      ],
      "stateMutability": "view",
      "type": "function"
    },
    {
      "inputs": [],
      "name": "closeAuction",
      "outputs": [],
      "stateMutability": "nonpayable",
      "type": "function"
    },
    {
      "inputs": [],
      "name": "currentBid",
      "outputs": [
        {
          "components": [
            {
              "internalType": "uint256",
              "name": "round",
              "type": "uint256"
            },
            {
              "internalType": "address",
              "name": "bidder",
              "type": "address"
            },
            {
              "internalType": "uint256",
              "name": "bidAmount",
              "type": "uint256"
            },
            {
              "internalType": "uint256",
              "name": "feeAmount",
              "type": "uint256"
            },
            {
              "internalType": "uint256",
              "name": "collateralAmount",
              "type": "uint256"
            }
          ],
          "internalType": "struct IEnglishPeriodicAuctionInternal.Bid",
          "name": "",
          "type": "tuple"
        }
      ],
      "stateMutability": "view",
      "type": "function"
    },
    {
      "inputs": [],
      "name": "highestBid",
      "outputs": [
        {
          "components": [
            {
              "internalType": "uint256",
              "name": "round",
              "type": "uint256"
            },
            {
              "internalType": "address",
              "name": "bidder",
              "type": "address"
            },
            {
              "internalType": "uint256",
              "name": "bidAmount",
              "type": "uint256"
            },
            {
              "internalType": "uint256",
              "name": "feeAmount",
              "type": "uint256"
            },
            {
              "internalType": "uint256",
              "name": "collateralAmount",
              "type": "uint256"
            }
          ],
          "internalType": "struct IEnglishPeriodicAuctionInternal.Bid",
          "name": "",
          "type": "tuple"
        }
      ],
      "stateMutability": "view",
      "type": "function"
    },
    {
      "inputs": [
        {
          "internalType": "address",
          "name": "_owner",
          "type": "address"
        },
        {
          "internalType": "address",
          "name": "_repossessor",
          "type": "address"
        },
        {
          "internalType": "address",
          "name": "initialBidder",
          "type": "address"
        },
        {
          "internalType": "uint256",
          "name": "startingBid",
          "type": "uint256"
        },
        {
          "internalType": "uint256",
          "name": "_auctionLengthSeconds",
          "type": "uint256"
        },
        {
          "internalType": "uint256",
          "name": "_minBidIncrement",
          "type": "uint256"
        },
        {
          "internalType": "uint256",
          "name": "_bidExtensionWindowLengthSeconds",
          "type": "uint256"
        },
        {
          "internalType": "uint256",
          "name": "_bidExtensionSeconds",
          "type": "uint256"
        }
      ],
      "name": "initializeAuction",
      "outputs": [],
      "stateMutability": "nonpayable",
      "type": "function"
    },
    {
      "inputs": [
        {
          "internalType": "address",
          "name": "_repossessor",
          "type": "address"
        },
        {
          "internalType": "address",
          "name": "initialBidder",
          "type": "address"
        },
        {
          "internalType": "uint256",
          "name": "startingBid",
          "type": "uint256"
        },
        {
          "internalType": "uint256",
          "name": "_auctionLengthSeconds",
          "type": "uint256"
        },
        {
          "internalType": "uint256",
          "name": "_minBidIncrement",
          "type": "uint256"
        },
        {
          "internalType": "uint256",
          "name": "_bidExtensionWindowLengthSeconds",
          "type": "uint256"
        },
        {
          "internalType": "uint256",
          "name": "_bidExtensionSeconds",
          "type": "uint256"
        }
      ],
      "name": "initializeAuction",
      "outputs": [],
      "stateMutability": "nonpayable",
      "type": "function"
    },
    {
      "inputs": [],
      "name": "isAuctionPeriod",
      "outputs": [
        {
          "internalType": "bool",
          "name": "",
          "type": "bool"
        }
      ],
      "stateMutability": "view",
      "type": "function"
    },
    {
      "inputs": [],
      "name": "isReadyForTransfer",
      "outputs": [
        {
          "internalType": "bool",
          "name": "",
          "type": "bool"
        }
      ],
      "stateMutability": "view",
      "type": "function"
    },
    {
      "inputs": [],
      "name": "minBidIncrement",
      "outputs": [
        {
          "internalType": "uint256",
          "name": "",
          "type": "uint256"
        }
      ],
      "stateMutability": "view",
      "type": "function"
    },
    {
      "inputs": [
        {
          "internalType": "uint256",
          "name": "bidAmount",
          "type": "uint256"
        }
      ],
      "name": "placeBid",
      "outputs": [],
      "stateMutability": "payable",
      "type": "function"
    },
    {
      "inputs": [],
      "name": "repossessor",
      "outputs": [
        {
          "internalType": "address",
          "name": "",
          "type": "address"
        }
      ],
      "stateMutability": "view",
      "type": "function"
    },
    {
      "inputs": [
        {
          "internalType": "uint256",
          "name": "_auctionLengthSeconds",
          "type": "uint256"
        }
      ],
      "name": "setAuctionLengthSeconds",
      "outputs": [],
      "stateMutability": "nonpayable",
      "type": "function"
    },
    {
      "inputs": [
        {
          "internalType": "uint256",
          "name": "_bidExtensionSeconds",
          "type": "uint256"
        }
      ],
      "name": "setBidExtensionSeconds",
      "outputs": [],
      "stateMutability": "nonpayable",
      "type": "function"
    },
    {
      "inputs": [
        {
          "internalType": "uint256",
          "name": "_bidExtensionWindowLengthSeconds",
          "type": "uint256"
        }
      ],
      "name": "setBidExtensionWindowLengthSeconds",
      "outputs": [],
      "stateMutability": "nonpayable",
      "type": "function"
    },
    {
      "inputs": [
        {
          "internalType": "uint256",
          "name": "_minBidIncrement",
          "type": "uint256"
        }
      ],
      "name": "setMinBidIncrement",
      "outputs": [],
      "stateMutability": "nonpayable",
      "type": "function"
    },
    {
      "inputs": [
        {
          "internalType": "address",
          "name": "_repossessor",
          "type": "address"
        }
      ],
      "name": "setRepossessor",
      "outputs": [],
      "stateMutability": "nonpayable",
      "type": "function"
    },
    {
      "inputs": [
        {
          "internalType": "bytes4",
          "name": "interfaceId",
          "type": "bytes4"
        }
      ],
      "name": "supportsInterface",
      "outputs": [
        {
          "internalType": "bool",
          "name": "",
          "type": "bool"
        }
      ],
      "stateMutability": "view",
      "type": "function"
    },
    {
      "inputs": [],
      "name": "withdrawBid",
      "outputs": [],
      "stateMutability": "nonpayable",
      "type": "function"
    }
  ],
  "transactionHash": "0x7b0e6778a32b1f548eae96c8f17a4acf8db37baad44365fe1df8001646a04e4c",
  "args": [],
  "numDeployments": 1,
  "solcInputHash": "789160661a9bb39270968ba00bb416c2",
  "bytecode": "0x608060405234801561001057600080fd5b50611e7c806100206000396000f3fe60806040526004361061014b5760003560e01c8063868c5466116100b6578063d07ac3f31161006f578063d07ac3f3146103a3578063d57bde79146103c3578063dba85ccb146103d8578063def18101146103f8578063eb54f9ec1461040d578063ec214d331461042257600080fd5b8063868c5466146102c05780638dc30b70146102e05780639979ef45146103465780639c85ec1d14610359578063bff8219814610379578063c3bab6461461038e57600080fd5b80634b449cba116101085780634b449cba1461020957806355cc19ea1461021e57806355ee09d714610233578063609e46fb1461025357806361a7a2261461027357806371c65bde1461029357600080fd5b806301ffc9a714610150578063084a29f61461018557806324db41901461019a578063335b115e146101bc57806337271cc7146101df578063378252f2146101f4575b600080fd5b34801561015c57600080fd5b5061017061016b366004611ac3565b610437565b60405190151581526020015b60405180910390f35b34801561019157600080fd5b5061017061047a565b3480156101a657600080fd5b506101ba6101b5366004611b02565b610489565b005b3480156101c857600080fd5b506101d16104ae565b60405190815260200161017c565b3480156101eb57600080fd5b506101ba6104b8565b34801561020057600080fd5b506101ba6104c3565b34801561021557600080fd5b506101d1610538565b34801561022a57600080fd5b506101d1610542565b34801561023f57600080fd5b506101ba61024e366004611b1f565b61054c565b34801561025f57600080fd5b506101ba61026e366004611b1f565b61056d565b34801561027f57600080fd5b506101ba61028e366004611b1f565b61058e565b34801561029f57600080fd5b506102a86105af565b6040516001600160a01b03909116815260200161017c565b3480156102cc57600080fd5b506101d16102db366004611b1f565b6105b9565b3480156102ec57600080fd5b506103006102fb366004611b02565b6105c4565b60405161017c9190815181526020808301516001600160a01b03169082015260408083015190820152606080830151908201526080918201519181019190915260a00190565b6101ba610354366004611b1f565b61061d565b34801561036557600080fd5b506101ba610374366004611b38565b6107f1565b34801561038557600080fd5b506101d161086b565b34801561039a57600080fd5b506101d1610875565b3480156103af57600080fd5b506101ba6103be366004611baf565b61087f565b3480156103cf57600080fd5b506103006108ce565b3480156103e457600080fd5b506101ba6103f3366004611b1f565b610925565b34801561040457600080fd5b50610300610946565b34801561041957600080fd5b506101d1610956565b34801561042e57600080fd5b50610170610960565b6001600160e01b0319811660009081527ffc606c433378e3a7e0a6a531deac289b66caa1b4aa8554fd4ab2c6f1570f92d8602052604081205460ff165b92915050565b600061048461096a565b905090565b600080516020611e278339815191526104a18161097c565b6104aa82610986565b5050565b60006104846109b7565b6104c1336109ca565b565b6104cb61096a565b6105305760405162461bcd60e51b815260206004820152602b60248201527f456e676c697368506572696f64696341756374696f6e3a2061756374696f6e2060448201526a34b9903737ba1037bb32b960a91b60648201526084015b60405180910390fd5b6104c1610ca7565b6000610484610f30565b6000610484610f5a565b600080516020611e278339815191526105648161097c565b6104aa82610f6d565b600080516020611e278339815191526105858161097c565b6104aa82610f7d565b600080516020611e278339815191526105a68161097c565b6104aa82610f8d565b6000610484610f9d565b600061047482610fbb565b6105cc611a8b565b6105d582611116565b6040805160a0810182528254815260018301546001600160a01b0316602082015260028301549181019190915260038201546060820152600490910154608082015292915050565b610625611141565b6106975760405162461bcd60e51b815260206004820152603c60248201527f456e676c697368506572696f64696341756374696f6e3a2063616e206f6e6c7960448201527f20706c6163652062696420696e2061756374696f6e20706572696f64000000006064820152608401610527565b61069f61096a565b156107125760405162461bcd60e51b815260206004820152603d60248201527f456e676c697368506572696f64696341756374696f6e3a2061756374696f6e2060448201527f6973206f76657220616e64206177616974696e67207472616e736665720000006064820152608401610527565b60405163babcc53960e01b8152336004820152309063babcc53990602401602060405180830381865afa15801561074d573d6000803e3d6000fd5b505050506040513d601f19601f820116820180604052508101906107719190611c11565b6107e35760405162461bcd60e51b815260206004820152603a60248201527f456e676c697368506572696f64696341756374696f6e3a2073656e646572206960448201527f73206e6f7420616c6c6f77656420746f20706c616365206269640000000000006064820152608401610527565b6107ee33823461114b565b50565b6107f961148f565b156108165760405162461bcd60e51b815260040161052790611c33565b61082863ec214d3360e01b60016114a2565b61083a63aba4f05160e01b60016114a2565b610852600080516020611e2783398151915289611518565b6108618787878787878761158c565b5050505050505050565b6000610484611672565b6000610484611685565b61088761148f565b156108a45760405162461bcd60e51b815260040161052790611c33565b6108b663ec214d3360e01b60016114a2565b6108c58787878787878761158c565b50505050505050565b6108d6611a8b565b6108de611698565b6040805160a0810182528254815260018301546001600160a01b03166020820152600283015491810191909152600382015460608201526004909101546080820152919050565b600080516020611e2783398151915261093d8161097c565b6104aa826116aa565b61094e611a8b565b6108de6116ba565b60006104846116cc565b6000610484611141565b6000610974610f30565b421015905090565b6107ee81336117d2565b8061098f611834565b80546001600160a01b039290921661010002610100600160a81b031990921691909117905550565b60006109c1611834565b60020154905090565b60006109d4611834565b6040516331a9108f60e11b81526000600482018190529192503090636352211e90602401602060405180830381865afa158015610a15573d6000803e3d6000fd5b505050506040513d601f19601f82011682018060405250810190610a399190611c83565b9050806001600160a01b0316836001600160a01b031603610ac25760405162461bcd60e51b815260206004820152603d60248201527f456e676c697368506572696f64696341756374696f6e3a2043616e6e6f74207760448201527f69746864726177206269642069662063757272656e74206269646465720000006064820152608401610527565b600f8201546001600160a01b0390811690841603610b485760405162461bcd60e51b815260206004820152603d60248201527f456e676c697368506572696f64696341756374696f6e3a2043616e6e6f74207760448201527f69746864726177206269642069662068696768657374206269646465720000006064820152608401610527565b6001600160a01b038316600090815260088301602052604090206004810154610bcd5760405162461bcd60e51b815260206004820152603160248201527f456e676c697368506572696f64696341756374696f6e3a204e6f20636f6c6c61604482015270746572616c20746f20776974686472617760781b6064820152608401610527565b600481018054600091829055600283018290556040519091906001600160a01b0387169083908381818185875af1925050503d8060008114610c2b576040519150601f19603f3d011682016040523d82523d6000602084013e610c30565b606091505b5050905080610c9f5760405162461bcd60e51b815260206004820152603560248201527f456e676c697368506572696f64696341756374696f6e3a204661696c656420746044820152741bc81dda5d1a191c985dc818dbdb1b185d195c985b605a1b6064820152608401610527565b505050505050565b6000610cb1611834565b6040516331a9108f60e11b81526000600482018190529192503090636352211e90602401602060405180830381865afa158015610cf2573d6000803e3d6000fd5b505050506040513d601f19601f82011682018060405250810190610d169190611c83565b4260058401556006830154600e84015491925014610dc2578154610100908190046001600160a01b039081166000908152600885016020526040812060068601548082556002820183815560048301848155600384019485558854600190940180549790940486166001600160a01b0319978816178455600e8901929092559154600f880180549190951695169490941790925590546010850155546011840155546012830155610de6565b600b8201546001600160a01b03821660009081526008840160205260409020600401555b600e8201546009830155600f820154600a830180546001600160a01b0319166001600160a01b0390921691821790556010830154600b8401556011830154600c84015560009081526008830160205260408120600401819055600d83015560018083015460078401556006830154610e5d91611cb6565b6006830155600f82015460405163e31a7c0160e01b81526001600160a01b038084166004830152909116602482015260006044820152309063e31a7c0190606401600060405180830381600087803b158015610eb857600080fd5b505af1158015610ecc573d6000803e3d6000fd5b505050506011820154156104aa57306001600160a01b031663e4fc6b6d83600e01600301546040518263ffffffff1660e01b81526004016000604051808303818588803b158015610f1c57600080fd5b505af11580156108c5573d6000803e3d6000fd5b600080610f3b611834565b90508060070154610f4a6116cc565b610f549190611cb6565b91505090565b6000610f64611834565b60030154905090565b80610f76611834565b6002015550565b80610f86611834565b6004015550565b80610f96611834565b6001015550565b6000610fa7611834565b5461010090046001600160a01b0316919050565b600080306001600160a01b03166279c6e96040518163ffffffff1660e01b8152600401602060405180830381865afa158015610ffb573d6000803e3d6000fd5b505050506040513d601f19601f8201168201806040525081019061101f9190611cc9565b90506000306001600160a01b031663935cc61d6040518163ffffffff1660e01b8152600401602060405180830381865afa158015611061573d6000803e3d6000fd5b505050506040513d601f19601f820116820180604052508101906110859190611cc9565b90506000306001600160a01b031663fd8e6f286040518163ffffffff1660e01b8152600401602060405180830381865afa1580156110c7573d6000803e3d6000fd5b505050506040513d601f19601f820116820180604052508101906110eb9190611cc9565b905080826110f98588611ce2565b6111039190611cf9565b61110d9190611ce2565b95945050505050565b6000611120611834565b6001600160a01b039092166000908152600892909201602052506040902090565b60006109746116cc565b6000611155611834565b6001600160a01b038516600090815260088201602052604090206002820154601083015492935090916111889190611cb6565b8410156112155760405162461bcd60e51b815260206004820152604f60248201527f456e676c697368506572696f64696341756374696f6e3a2042696420616d6f7560448201527f6e74206d7573742062652067726561746572207468616e20686967686573742060648201526e1bdd5d1cdd185b991a5b99c8189a59608a1b608482015260a401610527565b6000826006015482600001540361123d578382600401546112369190611cb6565b9050611240565b50825b6040516331a9108f60e11b81526000600482018190529081903090636352211e90602401602060405180830381865afa158015611281573d6000803e3d6000fd5b505050506040513d601f19601f820116820180604052508101906112a59190611c83565b9050806001600160a01b0316886001600160a01b0316036112c85782915061135f565b600b850154831161134d5760405162461bcd60e51b815260206004820152604360248201527f456e676c697368506572696f64696341756374696f6e3a20436f6c6c6174657260448201527f616c206d7573742062652067726561746572207468616e2063757272656e7420606482015262189a5960ea1b608482015260a401610527565b600b85015461135c9084611d1b565b91505b6113698783611858565b6113ca5760405162461bcd60e51b815260206004820152602c60248201527f456e676c697368506572696f64696341756374696f6e3a20496e636f7272656360448201526b1d08189a5908185b5bdd5b9d60a21b6064820152608401610527565b6001840180546001600160a01b03808b166001600160a01b0319928316178355600287018a815560068901548089556003890187815560048a01898155600e8c01929092559454600f8b01805490951693169290921790925590546010880155905460118701555460128601556000611441610f30565b90504281101580156114625750611456610f5a565b6114604283611d1b565b105b156114845761146f611672565b866007015461147e9190611cb6565b60078701555b505050505050505050565b6000611499611834565b5460ff16919050565b6001600160e01b031980831690036114cd5760405163b0a19dd560e01b815260040160405180910390fd5b6001600160e01b03199190911660009081527ffc606c433378e3a7e0a6a531deac289b66caa1b4aa8554fd4ab2c6f1570f92d860205260409020805460ff1916911515919091179055565b60008281527fd3889cc5458b268d0544e5534672df1296288ca3f93cbd39bd6f497a5c6228116020526040902061154f908261186e565b5060405133906001600160a01b0383169084907f2f8788117e7eff1d82e926ec794901d17c78024a50270940304540a733656f0d90600090a45050565b6000611596611834565b805460ff1916600117815590506115ac88610986565b6115b585610f8d565b6115be84610f6d565b6115c7836116aa565b6115d082610f7d565b6007810194909455505060016006830181905560098301819055600a830180546001600160a01b039687166001600160a01b031991821681178355600b86019687556000600d8701818155600c8801828155928252600888016020526040909120858155935494840180548416958a1695909517909455955460028301559454600382015590546004919091015550600f018054939092169216919091179055565b600061167c611834565b60040154905090565b600061168f611834565b60010154905090565b60006116a2611834565b600e01905090565b806116b3611834565b6003015550565b60006116c4611834565b600901905090565b6000806116d7611834565b90506000306001600160a01b031663be6a2a6d6040518163ffffffff1660e01b8152600401602060405180830381865afa158015611719573d6000803e3d6000fd5b505050506040513d601f19601f8201168201806040525081019061173d9190611cc9565b90506000306001600160a01b031663fd8e6f286040518163ffffffff1660e01b8152600401602060405180830381865afa15801561177f573d6000803e3d6000fd5b505050506040513d601f19601f820116820180604052508101906117a39190611cc9565b905081836005015411156117c8578083600501546117c19190611cb6565b93506117cc565b8193505b50505090565b6117dc828261188a565b6104aa576117f2816001600160a01b03166118e3565b6117fd8360206118f5565b60405160200161180e929190611d52565b60408051601f198184030181529082905262461bcd60e51b825261052791600401611dc7565b7fc7ed1b841b2d3c7f16d15642e7b013e89732e44006608d59c7547b8e331a7ce090565b60008061186484610fbb565b9092149392505050565b6000611883836001600160a01b038416611a48565b9392505050565b6000611883827fd3889cc5458b268d0544e5534672df1296288ca3f93cbd39bd6f497a5c622811600086815260209190915260409020906001600160a01b03811660009081526001830160205260408120541515611883565b60606104746001600160a01b03831660145b60606000611904836002611ce2565b61190f906002611cb6565b67ffffffffffffffff81111561192757611927611dfa565b6040519080825280601f01601f191660200182016040528015611951576020820181803683370190505b509050600360fc1b8160008151811061196c5761196c611e10565b60200101906001600160f81b031916908160001a905350600f60fb1b8160018151811061199b5761199b611e10565b60200101906001600160f81b031916908160001a905350600160028402015b6001811115611a28576f181899199a1a9b1b9c1cb0b131b232b360811b85600f16601081106119eb576119eb611e10565b1a60f81b828281518110611a0157611a01611e10565b60200101906001600160f81b031916908160001a90535060049490941c93600019016119ba565b5083156118835760405163c913478560e01b815260040160405180910390fd5b6000818152600183016020526040812054610474575081546001808201845560008481526020808220909301849055845493815293810190915260409092205590565b6040518060a001604052806000815260200160006001600160a01b031681526020016000815260200160008152602001600081525090565b600060208284031215611ad557600080fd5b81356001600160e01b03198116811461188357600080fd5b6001600160a01b03811681146107ee57600080fd5b600060208284031215611b1457600080fd5b813561188381611aed565b600060208284031215611b3157600080fd5b5035919050565b600080600080600080600080610100898b031215611b5557600080fd5b8835611b6081611aed565b97506020890135611b7081611aed565b96506040890135611b8081611aed565b979a96995096976060810135975060808101359660a0820135965060c0820135955060e0909101359350915050565b600080600080600080600060e0888a031215611bca57600080fd5b8735611bd581611aed565b96506020880135611be581611aed565b96999698505050506040850135946060810135946080820135945060a0820135935060c0909101359150565b600060208284031215611c2357600080fd5b8151801515811461188357600080fd5b60208082526030908201527f456e676c697368506572696f64696341756374696f6e46616365743a20616c7260408201526f1958591e481a5b9a5d1a585b1a5e995960821b606082015260800190565b600060208284031215611c9557600080fd5b815161188381611aed565b634e487b7160e01b600052601160045260246000fd5b8082018082111561047457610474611ca0565b600060208284031215611cdb57600080fd5b5051919050565b808202811582820484141761047457610474611ca0565b600082611d1657634e487b7160e01b600052601260045260246000fd5b500490565b8181038181111561047457610474611ca0565b60005b83811015611d49578181015183820152602001611d31565b50506000910152565b7f416363657373436f6e74726f6c3a206163636f756e7420000000000000000000815260008351611d8a816017850160208801611d2e565b7001034b99036b4b9b9b4b733903937b6329607d1b6017918401918201528351611dbb816028840160208801611d2e565b01602801949350505050565b6020815260008251806020840152611de6816040850160208701611d2e565b601f01601f19169190910160400192915050565b634e487b7160e01b600052604160045260246000fd5b634e487b7160e01b600052603260045260246000fdfe27d47e2aa570d0f5aa1d72abbe4d60032a12e3514b8c2bc8a49a9968779054c2a2646970667358221220d263460daaabae3a622a6893c8337914792938ed4830b81b212d3972f6b22a6a64736f6c63430008110033",
  "devdoc": {
    "kind": "dev",
    "methods": {
      "supportsInterface(bytes4)": {
        "params": {
          "interfaceId": "interface id"
        },
        "returns": {
          "_0": "bool whether interface is supported"
        }
      }
    },
    "title": "EnglishPeriodicAuctionFacet",
    "version": 1
  },
  "userdoc": {
    "kind": "user",
    "methods": {
      "auctionEndTime()": {
        "notice": "Get auction end time"
      },
      "auctionLengthSeconds()": {
        "notice": "Get auction length"
      },
      "auctionStartTime()": {
        "notice": "Get auction start time"
      },
      "bidExtensionSeconds()": {
        "notice": "Get bid extension seconds"
      },
      "bidExtensionWindowLengthSeconds()": {
        "notice": "Get bid extension window length"
      },
      "bidOf(address)": {
        "notice": "Get bid for address"
      },
      "calculateFeeFromBid(uint256)": {
        "notice": "Calculate fee from bid"
      },
      "closeAuction()": {
        "notice": "Close auction and trigger a transfer to the highest bidder"
      },
      "currentBid()": {
        "notice": "Get current bid"
      },
      "highestBid()": {
        "notice": "Get highest outstanding bid"
      },
      "initializeAuction(address,address,address,uint256,uint256,uint256,uint256,uint256)": {
        "notice": "Initialize auction parameters with owner"
      },
      "initializeAuction(address,address,uint256,uint256,uint256,uint256,uint256)": {
        "notice": "Initialize auction parameters"
      },
      "isAuctionPeriod()": {
        "notice": "Get is auction period"
      },
      "isReadyForTransfer()": {
        "notice": "Is token ready for transfer"
      },
      "minBidIncrement()": {
        "notice": "Get minimum bid increment"
      },
      "placeBid(uint256)": {
        "notice": "Place a bid"
      },
      "repossessor()": {
        "notice": "Get repossessor"
      },
      "setAuctionLengthSeconds(uint256)": {
        "notice": "Set auction length"
      },
      "setBidExtensionSeconds(uint256)": {
        "notice": "Set bid extension seconds"
      },
      "setBidExtensionWindowLengthSeconds(uint256)": {
        "notice": "Set bid extension window length"
      },
      "setMinBidIncrement(uint256)": {
        "notice": "Set minimum bid increment"
      },
      "setRepossessor(address)": {
        "notice": "Set repossessor"
      },
      "supportsInterface(bytes4)": {
        "notice": "query whether contract has registered support for given interface"
      },
      "withdrawBid()": {
        "notice": "Withdraw bid collateral"
      }
    },
    "version": 1
  },
  "storageLayout": {
    "storage": [],
    "types": null
  }
}