{
  "address": "0x204efcebec7f95f89019f64521ee1413b22e5efe",
  "abi": [
    {
      "inputs": [],
      "name": "ERC165Base__InvalidInterfaceId",
      "type": "error"
    },
    {
      "inputs": [],
      "name": "UintUtils__InsufficientHexLength",
      "type": "error"
    },
    {
      "anonymous": false,
      "inputs": [
        {
          "indexed": false,
          "internalType": "uint256",
          "name": "initialPeriodStartTime",
          "type": "uint256"
        }
      ],
      "name": "InitialPeriodStartTimeSet",
      "type": "event"
    },
    {
      "anonymous": false,
      "inputs": [
        {
          "indexed": true,
          "internalType": "bytes32",
          "name": "role",
          "type": "bytes32"
        },
        {
          "indexed": true,
          "internalType": "bytes32",
          "name": "previousAdminRole",
          "type": "bytes32"
        },
        {
          "indexed": true,
          "internalType": "bytes32",
          "name": "newAdminRole",
          "type": "bytes32"
        }
      ],
      "name": "RoleAdminChanged",
      "type": "event"
    },
    {
      "anonymous": false,
      "inputs": [
        {
          "indexed": true,
          "internalType": "bytes32",
          "name": "role",
          "type": "bytes32"
        },
        {
          "indexed": true,
          "internalType": "address",
          "name": "account",
          "type": "address"
        },
        {
          "indexed": true,
          "internalType": "address",
          "name": "sender",
          "type": "address"
        }
      ],
      "name": "RoleGranted",
      "type": "event"
    },
    {
      "anonymous": false,
      "inputs": [
        {
          "indexed": true,
          "internalType": "bytes32",
          "name": "role",
          "type": "bytes32"
        },
        {
          "indexed": true,
          "internalType": "address",
          "name": "account",
          "type": "address"
        },
        {
          "indexed": true,
          "internalType": "address",
          "name": "sender",
          "type": "address"
        }
      ],
      "name": "RoleRevoked",
      "type": "event"
    },
    {
      "inputs": [],
      "name": "auctionEndTime",
      "outputs": [
        {
          "internalType": "uint256",
          "name": "",
          "type": "uint256"
        }
      ],
      "stateMutability": "view",
      "type": "function"
    },
    {
      "inputs": [],
      "name": "auctionLengthSeconds",
      "outputs": [
        {
          "internalType": "uint256",
          "name": "",
          "type": "uint256"
        }
      ],
      "stateMutability": "view",
      "type": "function"
    },
    {
      "inputs": [],
      "name": "auctionStartTime",
      "outputs": [
        {
          "internalType": "uint256",
          "name": "",
          "type": "uint256"
        }
      ],
      "stateMutability": "view",
      "type": "function"
    },
    {
      "inputs": [],
      "name": "bidExtensionSeconds",
      "outputs": [
        {
          "internalType": "uint256",
          "name": "",
          "type": "uint256"
        }
      ],
      "stateMutability": "view",
      "type": "function"
    },
    {
      "inputs": [],
      "name": "bidExtensionWindowLengthSeconds",
      "outputs": [
        {
          "internalType": "uint256",
          "name": "",
          "type": "uint256"
        }
      ],
      "stateMutability": "view",
      "type": "function"
    },
    {
      "inputs": [
        {
          "internalType": "address",
          "name": "bidder",
          "type": "address"
        }
      ],
      "name": "bidOf",
      "outputs": [
        {
          "components": [
            {
              "internalType": "uint256",
              "name": "round",
              "type": "uint256"
            },
            {
              "internalType": "address",
              "name": "bidder",
              "type": "address"
            },
            {
              "internalType": "uint256",
              "name": "bidAmount",
              "type": "uint256"
            },
            {
              "internalType": "uint256",
              "name": "feeAmount",
              "type": "uint256"
            },
            {
              "internalType": "uint256",
              "name": "collateralAmount",
              "type": "uint256"
            }
          ],
          "internalType": "struct IEnglishPeriodicAuctionInternal.Bid",
          "name": "",
          "type": "tuple"
        }
      ],
      "stateMutability": "view",
      "type": "function"
    },
    {
      "inputs": [
        {
          "internalType": "uint256",
          "name": "bidAmount",
          "type": "uint256"
        }
      ],
      "name": "calculateFeeFromBid",
      "outputs": [
        {
          "internalType": "uint256",
          "name": "",
          "type": "uint256"
        }
      ],
      "stateMutability": "view",
      "type": "function"
    },
    {
      "inputs": [],
      "name": "closeAuction",
      "outputs": [],
      "stateMutability": "nonpayable",
      "type": "function"
    },
    {
      "inputs": [],
      "name": "currentBid",
      "outputs": [
        {
          "components": [
            {
              "internalType": "uint256",
              "name": "round",
              "type": "uint256"
            },
            {
              "internalType": "address",
              "name": "bidder",
              "type": "address"
            },
            {
              "internalType": "uint256",
              "name": "bidAmount",
              "type": "uint256"
            },
            {
              "internalType": "uint256",
              "name": "feeAmount",
              "type": "uint256"
            },
            {
              "internalType": "uint256",
              "name": "collateralAmount",
              "type": "uint256"
            }
          ],
          "internalType": "struct IEnglishPeriodicAuctionInternal.Bid",
          "name": "",
          "type": "tuple"
        }
      ],
      "stateMutability": "view",
      "type": "function"
    },
    {
      "inputs": [],
      "name": "highestBid",
      "outputs": [
        {
          "components": [
            {
              "internalType": "uint256",
              "name": "round",
              "type": "uint256"
            },
            {
              "internalType": "address",
              "name": "bidder",
              "type": "address"
            },
            {
              "internalType": "uint256",
              "name": "bidAmount",
              "type": "uint256"
            },
            {
              "internalType": "uint256",
              "name": "feeAmount",
              "type": "uint256"
            },
            {
              "internalType": "uint256",
              "name": "collateralAmount",
              "type": "uint256"
            }
          ],
          "internalType": "struct IEnglishPeriodicAuctionInternal.Bid",
          "name": "",
          "type": "tuple"
        }
      ],
      "stateMutability": "view",
      "type": "function"
    },
    {
      "inputs": [],
      "name": "initialPeriodStartTime",
      "outputs": [
        {
          "internalType": "uint256",
          "name": "",
          "type": "uint256"
        }
      ],
      "stateMutability": "view",
      "type": "function"
    },
    {
      "inputs": [
        {
          "internalType": "address",
          "name": "_repossessor",
          "type": "address"
        },
        {
          "internalType": "address",
          "name": "initialBidder",
          "type": "address"
        },
        {
          "internalType": "uint256",
          "name": "_initialPeriodStartTime",
          "type": "uint256"
        },
        {
          "internalType": "uint256",
          "name": "startingBid",
          "type": "uint256"
        },
        {
          "internalType": "uint256",
          "name": "_auctionLengthSeconds",
          "type": "uint256"
        },
        {
          "internalType": "uint256",
          "name": "_minBidIncrement",
          "type": "uint256"
        },
        {
          "internalType": "uint256",
          "name": "_bidExtensionWindowLengthSeconds",
          "type": "uint256"
        },
        {
          "internalType": "uint256",
          "name": "_bidExtensionSeconds",
          "type": "uint256"
        }
      ],
      "name": "initializeAuction",
      "outputs": [],
      "stateMutability": "nonpayable",
      "type": "function"
    },
    {
      "inputs": [
        {
          "internalType": "address",
          "name": "_owner",
          "type": "address"
        },
        {
          "internalType": "address",
          "name": "_repossessor",
          "type": "address"
        },
        {
          "internalType": "address",
          "name": "initialBidder",
          "type": "address"
        },
        {
          "internalType": "uint256",
          "name": "_initialPeriodStartTime",
          "type": "uint256"
        },
        {
          "internalType": "uint256",
          "name": "startingBid",
          "type": "uint256"
        },
        {
          "internalType": "uint256",
          "name": "_auctionLengthSeconds",
          "type": "uint256"
        },
        {
          "internalType": "uint256",
          "name": "_minBidIncrement",
          "type": "uint256"
        },
        {
          "internalType": "uint256",
          "name": "_bidExtensionWindowLengthSeconds",
          "type": "uint256"
        },
        {
          "internalType": "uint256",
          "name": "_bidExtensionSeconds",
          "type": "uint256"
        }
      ],
      "name": "initializeAuction",
      "outputs": [],
      "stateMutability": "nonpayable",
      "type": "function"
    },
    {
      "inputs": [],
      "name": "isAuctionPeriod",
      "outputs": [
        {
          "internalType": "bool",
          "name": "",
          "type": "bool"
        }
      ],
      "stateMutability": "view",
      "type": "function"
    },
    {
      "inputs": [],
      "name": "isReadyForTransfer",
      "outputs": [
        {
          "internalType": "bool",
          "name": "",
          "type": "bool"
        }
      ],
      "stateMutability": "view",
      "type": "function"
    },
    {
      "inputs": [],
      "name": "minBidIncrement",
      "outputs": [
        {
          "internalType": "uint256",
          "name": "",
          "type": "uint256"
        }
      ],
      "stateMutability": "view",
      "type": "function"
    },
    {
      "inputs": [
        {
          "internalType": "uint256",
          "name": "bidAmount",
          "type": "uint256"
        }
      ],
      "name": "placeBid",
      "outputs": [],
      "stateMutability": "payable",
      "type": "function"
    },
    {
      "inputs": [],
      "name": "repossessor",
      "outputs": [
        {
          "internalType": "address",
          "name": "",
          "type": "address"
        }
      ],
      "stateMutability": "view",
      "type": "function"
    },
    {
      "inputs": [
        {
          "internalType": "uint256",
          "name": "_auctionLengthSeconds",
          "type": "uint256"
        }
      ],
      "name": "setAuctionLengthSeconds",
      "outputs": [],
      "stateMutability": "nonpayable",
      "type": "function"
    },
    {
      "inputs": [
        {
          "internalType": "uint256",
          "name": "_bidExtensionSeconds",
          "type": "uint256"
        }
      ],
      "name": "setBidExtensionSeconds",
      "outputs": [],
      "stateMutability": "nonpayable",
      "type": "function"
    },
    {
      "inputs": [
        {
          "internalType": "uint256",
          "name": "_bidExtensionWindowLengthSeconds",
          "type": "uint256"
        }
      ],
      "name": "setBidExtensionWindowLengthSeconds",
      "outputs": [],
      "stateMutability": "nonpayable",
      "type": "function"
    },
    {
      "inputs": [
        {
          "internalType": "uint256",
          "name": "_minBidIncrement",
          "type": "uint256"
        }
      ],
      "name": "setMinBidIncrement",
      "outputs": [],
      "stateMutability": "nonpayable",
      "type": "function"
    },
    {
      "inputs": [
        {
          "internalType": "address",
          "name": "_repossessor",
          "type": "address"
        }
      ],
      "name": "setRepossessor",
      "outputs": [],
      "stateMutability": "nonpayable",
      "type": "function"
    },
    {
      "inputs": [
        {
          "internalType": "bytes4",
          "name": "interfaceId",
          "type": "bytes4"
        }
      ],
      "name": "supportsInterface",
      "outputs": [
        {
          "internalType": "bool",
          "name": "",
          "type": "bool"
        }
      ],
      "stateMutability": "view",
      "type": "function"
    },
    {
      "inputs": [],
      "name": "withdrawBid",
      "outputs": [],
      "stateMutability": "nonpayable",
      "type": "function"
    }
  ],
  "transactionHash": "0x1fda383087ceffd6fd1f5fe29f118eca4e2dc2b3dc1c248bd38c6eb317ce82e8",
  "args": [],
  "numDeployments": 2,
  "solcInputHash": "a8b5d8a015e94cc47e75d180dd140140",
  "bytecode": "0x608060405234801561001057600080fd5b50611edc806100206000396000f3fe6080604052600436106101665760003560e01c8063868c5466116100d1578063c3bab6461161008a578063def1810111610064578063def1810114610408578063eb54f9ec1461041d578063ec214d3314610432578063ec6174fe1461044757600080fd5b8063c3bab646146103be578063d57bde79146103d3578063dba85ccb146103e857600080fd5b8063868c5466146102db5780638dc30b70146102fb5780639979ef4514610361578063b8d2c48714610374578063be6a2a6d14610394578063bff82198146103a957600080fd5b80634b449cba116101235780634b449cba1461022457806355cc19ea1461023957806355ee09d71461024e578063609e46fb1461026e57806361a7a2261461028e57806371c65bde146102ae57600080fd5b806301ffc9a71461016b578063084a29f6146101a057806324db4190146101b5578063335b115e146101d757806337271cc7146101fa578063378252f21461020f575b600080fd5b34801561017757600080fd5b5061018b610186366004611b10565b610467565b60405190151581526020015b60405180910390f35b3480156101ac57600080fd5b5061018b6104aa565b3480156101c157600080fd5b506101d56101d0366004611b4f565b6104b9565b005b3480156101e357600080fd5b506101ec6104de565b604051908152602001610197565b34801561020657600080fd5b506101d56104e8565b34801561021b57600080fd5b506101d56104f3565b34801561023057600080fd5b506101ec610568565b34801561024557600080fd5b506101ec610572565b34801561025a57600080fd5b506101d5610269366004611b6c565b61057c565b34801561027a57600080fd5b506101d5610289366004611b6c565b61059d565b34801561029a57600080fd5b506101d56102a9366004611b6c565b6105be565b3480156102ba57600080fd5b506102c36105df565b6040516001600160a01b039091168152602001610197565b3480156102e757600080fd5b506101ec6102f6366004611b6c565b6105e9565b34801561030757600080fd5b5061031b610316366004611b4f565b6105f4565b6040516101979190815181526020808301516001600160a01b03169082015260408083015190820152606080830151908201526080918201519181019190915260a00190565b6101d561036f366004611b6c565b61064d565b34801561038057600080fd5b506101d561038f366004611b85565b610821565b3480156103a057600080fd5b506101ec610872565b3480156103b557600080fd5b506101ec61087c565b3480156103ca57600080fd5b506101ec610886565b3480156103df57600080fd5b5061031b610890565b3480156103f457600080fd5b506101d5610403366004611b6c565b6108e7565b34801561041457600080fd5b5061031b610908565b34801561042957600080fd5b506101ec610918565b34801561043e57600080fd5b5061018b610922565b34801561045357600080fd5b506101d5610462366004611bf0565b61092c565b6001600160e01b0319811660009081527ffc606c433378e3a7e0a6a531deac289b66caa1b4aa8554fd4ab2c6f1570f92d8602052604081205460ff165b92915050565b60006104b46109a8565b905090565b600080516020611e878339815191526104d1816109ba565b6104da826109c4565b5050565b60006104b46109f5565b6104f133610a08565b565b6104fb6109a8565b6105605760405162461bcd60e51b815260206004820152602b60248201527f456e676c697368506572696f64696341756374696f6e3a2061756374696f6e2060448201526a34b9903737ba1037bb32b960a91b60648201526084015b60405180910390fd5b6104f1610ce5565b60006104b4610f78565b60006104b4610fa2565b600080516020611e87833981519152610594816109ba565b6104da82610fb5565b600080516020611e878339815191526105b5816109ba565b6104da82610fc5565b600080516020611e878339815191526105d6816109ba565b6104da82610fd5565b60006104b4610fe5565b60006104a482611003565b6105fc611ad8565b6106058261115e565b6040805160a0810182528254815260018301546001600160a01b0316602082015260028301549181019190915260038201546060820152600490910154608082015292915050565b610655611189565b6106c75760405162461bcd60e51b815260206004820152603c60248201527f456e676c697368506572696f64696341756374696f6e3a2063616e206f6e6c7960448201527f20706c6163652062696420696e2061756374696f6e20706572696f64000000006064820152608401610557565b6106cf6109a8565b156107425760405162461bcd60e51b815260206004820152603d60248201527f456e676c697368506572696f64696341756374696f6e3a2061756374696f6e2060448201527f6973206f76657220616e64206177616974696e67207472616e736665720000006064820152608401610557565b60405163babcc53960e01b8152336004820152309063babcc53990602401602060405180830381865afa15801561077d573d6000803e3d6000fd5b505050506040513d601f19601f820116820180604052508101906107a19190611c71565b6108135760405162461bcd60e51b815260206004820152603a60248201527f456e676c697368506572696f64696341756374696f6e3a2073656e646572206960448201527f73206e6f7420616c6c6f77656420746f20706c616365206269640000000000006064820152608401610557565b61081e338234611193565b50565b6108296114d6565b156108465760405162461bcd60e51b815260040161055790611c93565b61085863ec214d3360e01b60016114e9565b610868888888888888888861155f565b5050505050505050565b60006104b461164f565b60006104b4611662565b60006104b4611675565b610898611ad8565b6108a0611688565b6040805160a0810182528254815260018301546001600160a01b03166020820152600283015491810191909152600382015460608201526004909101546080820152919050565b600080516020611e878339815191526108ff816109ba565b6104da8261169a565b610910611ad8565b6108a06116aa565b60006104b46116bc565b60006104b4611189565b6109346114d6565b156109515760405162461bcd60e51b815260040161055790611c93565b61096363ec214d3360e01b60016114e9565b61097563aba4f05160e01b60016114e9565b61098d600080516020611e878339815191528a611760565b61099d888888888888888861155f565b505050505050505050565b60006109b2610f78565b421015905090565b61081e81336117d4565b806109cd611836565b80546001600160a01b039290921661010002610100600160a81b031990921691909117905550565b60006109ff611836565b60030154905090565b6000610a12611836565b6040516331a9108f60e11b81526000600482018190529192503090636352211e90602401602060405180830381865afa158015610a53573d6000803e3d6000fd5b505050506040513d601f19601f82011682018060405250810190610a779190611ce3565b9050806001600160a01b0316836001600160a01b031603610b005760405162461bcd60e51b815260206004820152603d60248201527f456e676c697368506572696f64696341756374696f6e3a2043616e6e6f74207760448201527f69746864726177206269642069662063757272656e74206269646465720000006064820152608401610557565b60108201546001600160a01b0390811690841603610b865760405162461bcd60e51b815260206004820152603d60248201527f456e676c697368506572696f64696341756374696f6e3a2043616e6e6f74207760448201527f69746864726177206269642069662068696768657374206269646465720000006064820152608401610557565b6001600160a01b038316600090815260098301602052604090206004810154610c0b5760405162461bcd60e51b815260206004820152603160248201527f456e676c697368506572696f64696341756374696f6e3a204e6f20636f6c6c61604482015270746572616c20746f20776974686472617760781b6064820152608401610557565b600481018054600091829055600283018290556040519091906001600160a01b0387169083908381818185875af1925050503d8060008114610c69576040519150601f19603f3d011682016040523d82523d6000602084013e610c6e565b606091505b5050905080610cdd5760405162461bcd60e51b815260206004820152603560248201527f456e676c697368506572696f64696341756374696f6e3a204661696c656420746044820152741bc81dda5d1a191c985dc818dbdb1b185d195c985b605a1b6064820152608401610557565b505050505050565b6000610cef611836565b6040516331a9108f60e11b81526000600482018190529192503090636352211e90602401602060405180830381865afa158015610d30573d6000803e3d6000fd5b505050506040513d601f19601f82011682018060405250810190610d549190611ce3565b4260068401556007830154600f84015491925014610e00578154610100908190046001600160a01b039081166000908152600985016020526040812060078601548082556002820183815560048301848155600384019485558854600190940180549790940486166001600160a01b0319978816178455600f89019290925591546010880180549190951695169490941790925590546011850155546012840155546013830155610e24565b600c8201546001600160a01b03821660009081526009840160205260409020600401555b600f820154600a8301556010820154600b830180546001600160a01b0319166001600160a01b0390921691821790556011830154600c8401556012830154600d84015560009081526009830160205260408120600401819055600e830155600282015460088301556007820154610e9c906001611d16565b6007830155601082015460405163e31a7c0160e01b81526001600160a01b038084166004830152909116602482015260006044820152309063e31a7c0190606401600060405180830381600087803b158015610ef757600080fd5b505af1158015610f0b573d6000803e3d6000fd5b505050506012820154156104da57306001600160a01b031663e4fc6b6d83600f01600301546040518263ffffffff1660e01b81526004016000604051808303818588803b158015610f5b57600080fd5b505af1158015610f6f573d6000803e3d6000fd5b50505050505050565b600080610f83611836565b90508060080154610f926116bc565b610f9c9190611d16565b91505090565b6000610fac611836565b60040154905090565b80610fbe611836565b6003015550565b80610fce611836565b6005015550565b80610fde611836565b6002015550565b6000610fef611836565b5461010090046001600160a01b0316919050565b600080306001600160a01b03166279c6e96040518163ffffffff1660e01b8152600401602060405180830381865afa158015611043573d6000803e3d6000fd5b505050506040513d601f19601f820116820180604052508101906110679190611d29565b90506000306001600160a01b031663935cc61d6040518163ffffffff1660e01b8152600401602060405180830381865afa1580156110a9573d6000803e3d6000fd5b505050506040513d601f19601f820116820180604052508101906110cd9190611d29565b90506000306001600160a01b031663fd8e6f286040518163ffffffff1660e01b8152600401602060405180830381865afa15801561110f573d6000803e3d6000fd5b505050506040513d601f19601f820116820180604052508101906111339190611d29565b905080826111418588611d42565b61114b9190611d59565b6111559190611d42565b95945050505050565b6000611168611836565b6001600160a01b039092166000908152600992909201602052506040902090565b60006109b26116bc565b600061119d611836565b6001600160a01b038516600090815260098201602052604090206003820154601183015492935090916111d09190611d16565b84101561125d5760405162461bcd60e51b815260206004820152604f60248201527f456e676c697368506572696f64696341756374696f6e3a2042696420616d6f7560448201527f6e74206d7573742062652067726561746572207468616e20686967686573742060648201526e1bdd5d1cdd185b991a5b99c8189a59608a1b608482015260a401610557565b600082600701548260000154036112855783826004015461127e9190611d16565b9050611288565b50825b6040516331a9108f60e11b81526000600482018190529081903090636352211e90602401602060405180830381865afa1580156112c9573d6000803e3d6000fd5b505050506040513d601f19601f820116820180604052508101906112ed9190611ce3565b9050806001600160a01b0316886001600160a01b031603611310578291506113a7565b600c85015483116113955760405162461bcd60e51b815260206004820152604360248201527f456e676c697368506572696f64696341756374696f6e3a20436f6c6c6174657260448201527f616c206d7573742062652067726561746572207468616e2063757272656e7420606482015262189a5960ea1b608482015260a401610557565b600c8501546113a49084611d7b565b91505b6113b1878361185a565b6114125760405162461bcd60e51b815260206004820152602c60248201527f456e676c697368506572696f64696341756374696f6e3a20496e636f7272656360448201526b1d08189a5908185b5bdd5b9d60a21b6064820152608401610557565b6001840180546001600160a01b03808b166001600160a01b0319928316178355600287018a815560078901548089556003890187815560048a01898155600f8c0192909255945460108b01805490951693169290921790925590546011880155905460128701555460138601556000611489610f78565b90504281101580156114aa575061149e610fa2565b6114a84283611d7b565b105b1561099d576114b7611662565b86600801546114c69190611d16565b6008870155505050505050505050565b60006114e0611836565b5460ff16919050565b6001600160e01b031980831690036115145760405163b0a19dd560e01b815260040160405180910390fd5b6001600160e01b03199190911660009081527ffc606c433378e3a7e0a6a531deac289b66caa1b4aa8554fd4ab2c6f1570f92d860205260409020805460ff1916911515919091179055565b6000611569611836565b805460ff19166001178155905061157f896109c4565b61158887611870565b61159185610fd5565b61159a84610fb5565b6115a38361169a565b6115ac82610fc5565b60088101949094555050600160078301819055600a8301819055600b830180546001600160a01b039788166001600160a01b031991821681178355600c86019687556000600e8701818155600d8801828155928252600988016020526040909120858155935494840180548416958b1695909517909455955460028301559454600382015590546004919091015550601001805494909316931692909217905550565b6000611659611836565b60010154905090565b600061166c611836565b60050154905090565b600061167f611836565b60020154905090565b6000611692611836565b600f01905090565b806116a3611836565b6004015550565b60006116b4611836565b600a01905090565b6000806116c7611836565b90506000306001600160a01b031663fd8e6f286040518163ffffffff1660e01b8152600401602060405180830381865afa158015611709573d6000803e3d6000fd5b505050506040513d601f19601f8201168201806040525081019061172d9190611d29565b90508160010154826006015411156117565780826006015461174f9190611d16565b9250505090565b5060010154919050565b60008281527fd3889cc5458b268d0544e5534672df1296288ca3f93cbd39bd6f497a5c6228116020526040902061179790826118bb565b5060405133906001600160a01b0383169084907f2f8788117e7eff1d82e926ec794901d17c78024a50270940304540a733656f0d90600090a45050565b6117de82826118d7565b6104da576117f4816001600160a01b0316611930565b6117ff836020611942565b604051602001611810929190611db2565b60408051601f198184030181529082905262461bcd60e51b825261055791600401611e27565b7fc7ed1b841b2d3c7f16d15642e7b013e89732e44006608d59c7547b8e331a7ce090565b60008061186684611003565b9092149392505050565b600061187a611836565b600181018390556040518381529091507f8250dc18fdc49ec02556ec27015b234378c1e068c9bd5840abe8590280b5489b9060200160405180910390a15050565b60006118d0836001600160a01b038416611a95565b9392505050565b60006118d0827fd3889cc5458b268d0544e5534672df1296288ca3f93cbd39bd6f497a5c622811600086815260209190915260409020906001600160a01b038116600090815260018301602052604081205415156118d0565b60606104a46001600160a01b03831660145b60606000611951836002611d42565b61195c906002611d16565b67ffffffffffffffff81111561197457611974611e5a565b6040519080825280601f01601f19166020018201604052801561199e576020820181803683370190505b509050600360fc1b816000815181106119b9576119b9611e70565b60200101906001600160f81b031916908160001a905350600f60fb1b816001815181106119e8576119e8611e70565b60200101906001600160f81b031916908160001a905350600160028402015b6001811115611a75576f181899199a1a9b1b9c1cb0b131b232b360811b85600f1660108110611a3857611a38611e70565b1a60f81b828281518110611a4e57611a4e611e70565b60200101906001600160f81b031916908160001a90535060049490941c9360001901611a07565b5083156118d05760405163c913478560e01b815260040160405180910390fd5b60008181526001830160205260408120546104a4575081546001808201845560008481526020808220909301849055845493815293810190915260409092205590565b6040518060a001604052806000815260200160006001600160a01b031681526020016000815260200160008152602001600081525090565b600060208284031215611b2257600080fd5b81356001600160e01b0319811681146118d057600080fd5b6001600160a01b038116811461081e57600080fd5b600060208284031215611b6157600080fd5b81356118d081611b3a565b600060208284031215611b7e57600080fd5b5035919050565b600080600080600080600080610100898b031215611ba257600080fd5b8835611bad81611b3a565b97506020890135611bbd81611b3a565b979a9799505050506040860135956060810135956080820135955060a0820135945060c0820135935060e0909101359150565b60008060008060008060008060006101208a8c031215611c0f57600080fd5b8935611c1a81611b3a565b985060208a0135611c2a81611b3a565b975060408a0135611c3a81611b3a565b989b979a5097986060810135985060808101359760a0820135975060c0820135965060e08201359550610100909101359350915050565b600060208284031215611c8357600080fd5b815180151581146118d057600080fd5b60208082526030908201527f456e676c697368506572696f64696341756374696f6e46616365743a20616c7260408201526f1958591e481a5b9a5d1a585b1a5e995960821b606082015260800190565b600060208284031215611cf557600080fd5b81516118d081611b3a565b634e487b7160e01b600052601160045260246000fd5b808201808211156104a4576104a4611d00565b600060208284031215611d3b57600080fd5b5051919050565b80820281158282048414176104a4576104a4611d00565b600082611d7657634e487b7160e01b600052601260045260246000fd5b500490565b818103818111156104a4576104a4611d00565b60005b83811015611da9578181015183820152602001611d91565b50506000910152565b7f416363657373436f6e74726f6c3a206163636f756e7420000000000000000000815260008351611dea816017850160208801611d8e565b7001034b99036b4b9b9b4b733903937b6329607d1b6017918401918201528351611e1b816028840160208801611d8e565b01602801949350505050565b6020815260008251806020840152611e46816040850160208701611d8e565b601f01601f19169190910160400192915050565b634e487b7160e01b600052604160045260246000fd5b634e487b7160e01b600052603260045260246000fdfe27d47e2aa570d0f5aa1d72abbe4d60032a12e3514b8c2bc8a49a9968779054c2a2646970667358221220325106ccde37f1b174847e8efae253faecc02254e364fe37129ad8bcdd98328d64736f6c63430008110033",
  "devdoc": {
    "kind": "dev",
    "methods": {
      "supportsInterface(bytes4)": {
        "params": {
          "interfaceId": "interface id"
        },
        "returns": {
          "_0": "bool whether interface is supported"
        }
      }
    },
    "title": "EnglishPeriodicAuctionFacet",
    "version": 1
  },
  "userdoc": {
    "kind": "user",
    "methods": {
      "auctionEndTime()": {
        "notice": "Get auction end time"
      },
      "auctionLengthSeconds()": {
        "notice": "Get auction length"
      },
      "auctionStartTime()": {
        "notice": "Get auction start time"
      },
      "bidExtensionSeconds()": {
        "notice": "Get bid extension seconds"
      },
      "bidExtensionWindowLengthSeconds()": {
        "notice": "Get bid extension window length"
      },
      "bidOf(address)": {
        "notice": "Get bid for address"
      },
      "calculateFeeFromBid(uint256)": {
        "notice": "Calculate fee from bid"
      },
      "closeAuction()": {
        "notice": "Close auction and trigger a transfer to the highest bidder"
      },
      "currentBid()": {
        "notice": "Get current bid"
      },
      "highestBid()": {
        "notice": "Get highest outstanding bid"
      },
      "initialPeriodStartTime()": {
        "notice": "Get initial period start time"
      },
      "initializeAuction(address,address,address,uint256,uint256,uint256,uint256,uint256,uint256)": {
        "notice": "Initialize auction parameters with owner"
      },
      "initializeAuction(address,address,uint256,uint256,uint256,uint256,uint256,uint256)": {
        "notice": "Initialize auction parameters"
      },
      "isAuctionPeriod()": {
        "notice": "Get is auction period"
      },
      "isReadyForTransfer()": {
        "notice": "Is token ready for transfer"
      },
      "minBidIncrement()": {
        "notice": "Get minimum bid increment"
      },
      "placeBid(uint256)": {
        "notice": "Place a bid"
      },
      "repossessor()": {
        "notice": "Get repossessor"
      },
      "setAuctionLengthSeconds(uint256)": {
        "notice": "Set auction length"
      },
      "setBidExtensionSeconds(uint256)": {
        "notice": "Set bid extension seconds"
      },
      "setBidExtensionWindowLengthSeconds(uint256)": {
        "notice": "Set bid extension window length"
      },
      "setMinBidIncrement(uint256)": {
        "notice": "Set minimum bid increment"
      },
      "setRepossessor(address)": {
        "notice": "Set repossessor"
      },
      "supportsInterface(bytes4)": {
        "notice": "query whether contract has registered support for given interface"
      },
      "withdrawBid()": {
        "notice": "Withdraw bid collateral"
      }
    },
    "version": 1
  },
  "storageLayout": {
    "storage": [],
    "types": null
  }
}