{
  "address": "0xbF67C77323ab9198ed3c5631Eb95086fb1F9585E",
  "abi": [
    {
      "inputs": [],
      "name": "AddressUtils__NotContract",
      "type": "error"
    },
    {
      "inputs": [],
      "name": "ERC165Base__InvalidInterfaceId",
      "type": "error"
    },
    {
      "inputs": [],
      "name": "ERC721Base__BalanceQueryZeroAddress",
      "type": "error"
    },
    {
      "inputs": [],
      "name": "ERC721Base__ERC721ReceiverNotImplemented",
      "type": "error"
    },
    {
      "inputs": [],
      "name": "ERC721Base__InvalidOwner",
      "type": "error"
    },
    {
      "inputs": [],
      "name": "ERC721Base__MintToZeroAddress",
      "type": "error"
    },
    {
      "inputs": [],
      "name": "ERC721Base__NonExistentToken",
      "type": "error"
    },
    {
      "inputs": [],
      "name": "ERC721Base__NotOwnerOrApproved",
      "type": "error"
    },
    {
      "inputs": [],
      "name": "ERC721Base__NotTokenOwner",
      "type": "error"
    },
    {
      "inputs": [],
      "name": "ERC721Base__SelfApproval",
      "type": "error"
    },
    {
      "inputs": [],
      "name": "ERC721Base__TokenAlreadyMinted",
      "type": "error"
    },
    {
      "inputs": [],
      "name": "ERC721Base__TransferToZeroAddress",
      "type": "error"
    },
    {
      "inputs": [],
      "name": "ERC721Metadata__NonExistentToken",
      "type": "error"
    },
    {
      "inputs": [],
      "name": "EnumerableMap__IndexOutOfBounds",
      "type": "error"
    },
    {
      "inputs": [],
      "name": "EnumerableMap__NonExistentKey",
      "type": "error"
    },
    {
      "inputs": [],
      "name": "EnumerableSet__IndexOutOfBounds",
      "type": "error"
    },
    {
      "anonymous": false,
      "inputs": [
        {
          "indexed": true,
          "internalType": "address",
          "name": "owner",
          "type": "address"
        },
        {
          "indexed": true,
          "internalType": "address",
          "name": "operator",
          "type": "address"
        },
        {
          "indexed": true,
          "internalType": "uint256",
          "name": "tokenId",
          "type": "uint256"
        }
      ],
      "name": "Approval",
      "type": "event"
    },
    {
      "anonymous": false,
      "inputs": [
        {
          "indexed": true,
          "internalType": "address",
          "name": "owner",
          "type": "address"
        },
        {
          "indexed": true,
          "internalType": "address",
          "name": "operator",
          "type": "address"
        },
        {
          "indexed": false,
          "internalType": "bool",
          "name": "approved",
          "type": "bool"
        }
      ],
      "name": "ApprovalForAll",
      "type": "event"
    },
    {
      "anonymous": false,
      "inputs": [
        {
          "indexed": true,
          "internalType": "address",
          "name": "from",
          "type": "address"
        },
        {
          "indexed": true,
          "internalType": "address",
          "name": "to",
          "type": "address"
        },
        {
          "indexed": true,
          "internalType": "uint256",
          "name": "tokenId",
          "type": "uint256"
        }
      ],
      "name": "Transfer",
      "type": "event"
    },
    {
      "inputs": [
        {
          "internalType": "address",
          "name": "operator",
          "type": "address"
        },
        {
          "internalType": "uint256",
          "name": "tokenId",
          "type": "uint256"
        }
      ],
      "name": "approve",
      "outputs": [],
      "stateMutability": "payable",
      "type": "function"
    },
    {
      "inputs": [
        {
          "internalType": "address",
          "name": "account",
          "type": "address"
        }
      ],
      "name": "balanceOf",
      "outputs": [
        {
          "internalType": "uint256",
          "name": "",
          "type": "uint256"
        }
      ],
      "stateMutability": "view",
      "type": "function"
    },
    {
      "inputs": [
        {
          "internalType": "uint256",
          "name": "tokenId",
          "type": "uint256"
        }
      ],
      "name": "getApproved",
      "outputs": [
        {
          "internalType": "address",
          "name": "",
          "type": "address"
        }
      ],
      "stateMutability": "view",
      "type": "function"
    },
    {
      "inputs": [
        {
          "internalType": "address",
          "name": "_steward",
          "type": "address"
        },
        {
          "internalType": "string",
          "name": "name",
          "type": "string"
        },
        {
          "internalType": "string",
          "name": "symbol",
          "type": "string"
        },
        {
          "internalType": "string",
          "name": "tokenURI",
          "type": "string"
        }
      ],
      "name": "initializeStewardLicense",
      "outputs": [],
      "stateMutability": "nonpayable",
      "type": "function"
    },
    {
      "inputs": [
        {
          "internalType": "address",
          "name": "account",
          "type": "address"
        },
        {
          "internalType": "address",
          "name": "operator",
          "type": "address"
        }
      ],
      "name": "isApprovedForAll",
      "outputs": [
        {
          "internalType": "bool",
          "name": "",
          "type": "bool"
        }
      ],
      "stateMutability": "view",
      "type": "function"
    },
    {
      "inputs": [],
      "name": "name",
      "outputs": [
        {
          "internalType": "string",
          "name": "",
          "type": "string"
        }
      ],
      "stateMutability": "view",
      "type": "function"
    },
    {
      "inputs": [
        {
          "internalType": "uint256",
          "name": "tokenId",
          "type": "uint256"
        }
      ],
      "name": "ownerOf",
      "outputs": [
        {
          "internalType": "address",
          "name": "",
          "type": "address"
        }
      ],
      "stateMutability": "view",
      "type": "function"
    },
    {
      "inputs": [
        {
          "internalType": "address",
          "name": "from",
          "type": "address"
        },
        {
          "internalType": "address",
          "name": "to",
          "type": "address"
        },
        {
          "internalType": "uint256",
          "name": "tokenId",
          "type": "uint256"
        }
      ],
      "name": "safeTransferFrom",
      "outputs": [],
      "stateMutability": "payable",
      "type": "function"
    },
    {
      "inputs": [
        {
          "internalType": "address",
          "name": "from",
          "type": "address"
        },
        {
          "internalType": "address",
          "name": "to",
          "type": "address"
        },
        {
          "internalType": "uint256",
          "name": "tokenId",
          "type": "uint256"
        },
        {
          "internalType": "bytes",
          "name": "data",
          "type": "bytes"
        }
      ],
      "name": "safeTransferFrom",
      "outputs": [],
      "stateMutability": "payable",
      "type": "function"
    },
    {
      "inputs": [
        {
          "internalType": "address",
          "name": "operator",
          "type": "address"
        },
        {
          "internalType": "bool",
          "name": "status",
          "type": "bool"
        }
      ],
      "name": "setApprovalForAll",
      "outputs": [],
      "stateMutability": "nonpayable",
      "type": "function"
    },
    {
      "inputs": [
        {
          "internalType": "bytes4",
          "name": "interfaceId",
          "type": "bytes4"
        }
      ],
      "name": "supportsInterface",
      "outputs": [
        {
          "internalType": "bool",
          "name": "",
          "type": "bool"
        }
      ],
      "stateMutability": "view",
      "type": "function"
    },
    {
      "inputs": [],
      "name": "symbol",
      "outputs": [
        {
          "internalType": "string",
          "name": "",
          "type": "string"
        }
      ],
      "stateMutability": "view",
      "type": "function"
    },
    {
      "inputs": [
        {
          "internalType": "uint256",
          "name": "index",
          "type": "uint256"
        }
      ],
      "name": "tokenByIndex",
      "outputs": [
        {
          "internalType": "uint256",
          "name": "",
          "type": "uint256"
        }
      ],
      "stateMutability": "view",
      "type": "function"
    },
    {
      "inputs": [
        {
          "internalType": "address",
          "name": "owner",
          "type": "address"
        },
        {
          "internalType": "uint256",
          "name": "index",
          "type": "uint256"
        }
      ],
      "name": "tokenOfOwnerByIndex",
      "outputs": [
        {
          "internalType": "uint256",
          "name": "",
          "type": "uint256"
        }
      ],
      "stateMutability": "view",
      "type": "function"
    },
    {
      "inputs": [
        {
          "internalType": "uint256",
          "name": "tokenId",
          "type": "uint256"
        }
      ],
      "name": "tokenURI",
      "outputs": [
        {
          "internalType": "string",
          "name": "",
          "type": "string"
        }
      ],
      "stateMutability": "view",
      "type": "function"
    },
    {
      "inputs": [],
      "name": "totalSupply",
      "outputs": [
        {
          "internalType": "uint256",
          "name": "",
          "type": "uint256"
        }
      ],
      "stateMutability": "view",
      "type": "function"
    },
    {
      "inputs": [
        {
          "internalType": "address",
          "name": "from",
          "type": "address"
        },
        {
          "internalType": "address",
          "name": "to",
          "type": "address"
        },
        {
          "internalType": "uint256",
          "name": "tokenId",
          "type": "uint256"
        }
      ],
      "name": "transferFrom",
      "outputs": [],
      "stateMutability": "payable",
      "type": "function"
    },
    {
      "inputs": [
        {
          "internalType": "address",
          "name": "from",
          "type": "address"
        },
        {
          "internalType": "address",
          "name": "to",
          "type": "address"
        },
        {
          "internalType": "uint256",
          "name": "tokenId",
          "type": "uint256"
        }
      ],
      "name": "triggerTransfer",
      "outputs": [],
      "stateMutability": "nonpayable",
      "type": "function"
    }
  ],
  "transactionHash": "0x04023d5863335574d9ecfbfda9dd1cf486093fa31dde4149dd2ba91bf86cf221",
  "args": [],
  "numDeployments": 2,
  "solcInputHash": "a8b5d8a015e94cc47e75d180dd140140",
  "bytecode": "0x608060405234801561001057600080fd5b50611e35806100206000396000f3fe6080604052600436106101095760003560e01c80636352211e11610095578063b5b446f411610064578063b5b446f4146102b0578063b88d4fde146102d0578063c87b56dd146102e3578063e31a7c0114610303578063e985e9c51461032357600080fd5b80636352211e1461023b57806370a082311461025b57806395d89b411461027b578063a22cb4651461029057600080fd5b806318160ddd116100dc57806318160ddd146101b257806323b872dd146101d55780632f745c59146101e857806342842e0e146102085780634f6ccce71461021b57600080fd5b806301ffc9a71461010e57806306fdde0314610143578063081812fc14610165578063095ea7b31461019d575b600080fd5b34801561011a57600080fd5b5061012e610129366004611749565b610343565b60405190151581526020015b60405180910390f35b34801561014f57600080fd5b50610158610386565b60405161013a91906117b6565b34801561017157600080fd5b506101856101803660046117c9565b610395565b6040516001600160a01b03909116815260200161013a565b6101b06101ab3660046117fe565b6103a0565b005b3480156101be57600080fd5b506101c761042c565b60405190815260200161013a565b6101b06101e3366004611828565b610436565b3480156101f457600080fd5b506101c76102033660046117fe565b610468565b6101b0610216366004611828565b61047b565b34801561022757600080fd5b506101c76102363660046117c9565b610496565b34801561024757600080fd5b506101856102563660046117c9565b6104a1565b34801561026757600080fd5b506101c7610276366004611864565b6104ac565b34801561028757600080fd5b506101586104b7565b34801561029c57600080fd5b506101b06102ab36600461188d565b6104c1565b3480156102bc57600080fd5b506101b06102cb366004611970565b610575565b6101b06102de366004611a09565b61060f565b3480156102ef57600080fd5b506101586102fe3660046117c9565b610642565b34801561030f57600080fd5b506101b061031e366004611828565b61064d565b34801561032f57600080fd5b5061012e61033e366004611a79565b6106d7565b6001600160e01b0319811660009081527ffc606c433378e3a7e0a6a531deac289b66caa1b4aa8554fd4ab2c6f1570f92d8602052604081205460ff165b92915050565b60606103906106e3565b905090565b600061038082610782565b60006103ab826104a1565b9050806001600160a01b0316836001600160a01b0316036103df5760405163424a22cb60e01b815260040160405180910390fd5b336001600160a01b038216148015906103ff57506103fd81336106d7565b155b1561041d57604051632f5de44f60e01b815260040160405180910390fd5b61042783836107e5565b505050565b6000610390610872565b610440338261088b565b61045d57604051632f5de44f60e01b815260040160405180910390fd5b610427838383610911565b60006104748383610a40565b9392505050565b6104278383836040518060200160405280600081525061060f565b600061038082610a6f565b600061038082610a90565b600061038082610ad4565b6060610390610b2b565b336001600160a01b038316036104ea5760405163424a22cb60e01b815260040160405180910390fd5b3360008181527f3c7bf052874fa81625121783266a03507bd2cd48b16e571c01a04e8dd3fb07aa602090815260408083206001600160a01b03871680855290835292819020805460ff191686151590811790915590519081529192917f17307eab39ab6107e8899845ad3d59bd9653f200f220920489ca2b5937696c31910160405180910390a35050565b7f79ec1734da2430052e9d78936f451aad707e5bed12ef4806b06dc3d0c38f0e305460ff16156105fd5760405162461bcd60e51b815260206004820152602860248201527f537465776172644c6963656e736546616365743a20616c726561647920696e696044820152671d1a585b1a5e995960c21b60648201526084015b60405180910390fd5b61060984848484610b4a565b50505050565b610619338361088b565b61063657604051632f5de44f60e01b815260040160405180910390fd5b61060984848484610bf2565b606061038082610c26565b33301461045d5760405162461bcd60e51b815260206004820152604c60248201527f4e6174697665537465776172644c6963656e73653a205472696767657220747260448201527f616e736665722063616e206f6e6c792062652063616c6c65642066726f6d206160648201526b1b9bdd1a195c88199858d95d60a21b608482015260a4016105f4565b60006104748383610e07565b6060600080516020611de083398151915280546106ff90611aac565b80601f016020809104026020016040519081016040528092919081815260200182805461072b90611aac565b80156107785780601f1061074d57610100808354040283529160200191610778565b820191906000526020600020905b81548152906001019060200180831161075b57829003601f168201915b5050505050905090565b600061078d82610e54565b6107aa5760405163c1b843ef60e01b815260040160405180910390fd5b5060009081527f3c7bf052874fa81625121783266a03507bd2cd48b16e571c01a04e8dd3fb07a960205260409020546001600160a01b031690565b60008181527f3c7bf052874fa81625121783266a03507bd2cd48b16e571c01a04e8dd3fb07a96020526040902080546001600160a01b0319166001600160a01b038416908117909155819061083982610a90565b6001600160a01b03167f8c5be1e5ebec7d5bd14f71427d1e84f3dd0314c0f7b2291e5b200ac8c7c3b92560405160405180910390a45050565b6000610390600080516020611dc0833981519152610e6e565b600061089682610e54565b6108b35760405163c1b843ef60e01b815260040160405180910390fd5b60006108be83610a90565b9050806001600160a01b0316846001600160a01b031614806108f95750836001600160a01b03166108ee84610782565b6001600160a01b0316145b8061090957506109098185610e07565b949350505050565b826001600160a01b031661092482610a90565b6001600160a01b03161461094b57604051630f2db4ad60e01b815260040160405180910390fd5b6001600160a01b038216610972576040516340311a0960e01b815260040160405180910390fd5b61097d838383610e78565b6109886000826107e5565b6001600160a01b0383166000908152600080516020611da083398151915260205260409020600080516020611dc0833981519152906109c79083610f6e565b506001600160a01b038316600090815260028201602052604090206109ec9083610f7a565b506109f8818385610f86565b5081836001600160a01b0316856001600160a01b03167fddf252ad1be2c89b69c2b068fc378daa952ba7f163c4a11628f55a4df523b3ef60405160405180910390a450505050565b6001600160a01b0382166000908152600080516020611da0833981519152602052604081206104749083610f9c565b6000610a89600080516020611dc083398151915283610fa8565b5092915050565b600080610aab600080516020611dc083398151915284610fc4565b90506001600160a01b03811661038057604051637e1a7d8b60e01b815260040160405180910390fd5b60006001600160a01b038216610afd57604051630810ff9760e41b815260040160405180910390fd5b6001600160a01b0382166000908152600080516020611da08339815191526020526040902061038090610e6e565b6060600080516020611de083398151915260010180546106ff90611aac565b7f79ec1734da2430052e9d78936f451aad707e5bed12ef4806b06dc3d0c38f0e30805460ff19166001178155600080516020611de083398151915280610b908682611b2c565b5060018101610b9f8582611b2c565b5060008080526003820160205260409020610bba8482611b2c565b50610bcd6301ffc9a760e01b6001610fd0565b610bdf6380ac58cd60e01b6001610fd0565b610bea866000611046565b505050505050565b610bfd848484610911565b610c0984848484611129565b61060957604051639ff10cdd60e01b815260040160405180910390fd5b6060610c3182610e54565b610c4d57604051624705a760e71b815260040160405180910390fd5b60008281527f99574a7094154bb123ae6ae102096f0bf9679b85a5cd1e727aaa0ae5f132e6b4602052604081208054600080516020611de0833981519152929190610c9790611aac565b80601f0160208091040260200160405190810160405280929190818152602001828054610cc390611aac565b8015610d105780601f10610ce557610100808354040283529160200191610d10565b820191906000526020600020905b815481529060010190602001808311610cf357829003601f168201915b505050505090506000826002018054610d2890611aac565b80601f0160208091040260200160405190810160405280929190818152602001828054610d5490611aac565b8015610da15780601f10610d7657610100808354040283529160200191610da1565b820191906000526020600020905b815481529060010190602001808311610d8457829003601f168201915b505050505090508051600003610db957509392505050565b815115610dec578082604051602001610dd3929190611bec565b6040516020818303038152906040529350505050919050565b80610df6866111fa565b604051602001610dd3929190611bec565b6001600160a01b0391821660009081527f3c7bf052874fa81625121783266a03507bd2cd48b16e571c01a04e8dd3fb07aa6020908152604080832093909416825291909152205460ff1690565b6000610380600080516020611dc0833981519152836112fb565b6000610380825490565b6001600160a01b03831615610f63576000306001600160a01b031663ec214d336040518163ffffffff1660e01b8152600401602060405180830381865afa158015610ec7573d6000803e3d6000fd5b505050506040513d601f19601f82011682018060405250810190610eeb9190611c1b565b90508015610f615760405162461bcd60e51b815260206004820152603a60248201527f537465776172644c6963656e736546616365743a2043616e6e6f74207472616e60448201527f7366657220647572696e672061756374696f6e20706572696f6400000000000060648201526084016105f4565b505b610427838383611313565b6000610474838361131e565b600061047483836113d8565b600061090984846001600160a01b03851661141b565b600061047483836114ba565b6000808080610fb78686611506565b9097909650945050505050565b60006104748383611569565b6001600160e01b03198083169003610ffb5760405163b0a19dd560e01b815260040160405180910390fd5b6001600160e01b03199190911660009081527ffc606c433378e3a7e0a6a531deac289b66caa1b4aa8554fd4ab2c6f1570f92d860205260409020805460ff1916911515919091179055565b6001600160a01b03821661106d576040516311f2988d60e11b815260040160405180910390fd5b61107681610e54565b1561109457604051630d86bb7b60e31b815260040160405180910390fd5b6110a060008383610e78565b6001600160a01b0382166000908152600080516020611da083398151915260205260409020600080516020611dc0833981519152906110df9083610f7a565b506110eb818385610f86565b5060405182906001600160a01b038516906000907fddf252ad1be2c89b69c2b068fc378daa952ba7f163c4a11628f55a4df523b3ef908290a4505050565b60006001600160a01b0384163b61114257506001610909565b60006111c363150b7a0260e01b338887876040516024016111669493929190611c38565b604051602081830303815290604052906001600160e01b0319166020820180516001600160e01b038381831617835250505050604051806060016040528060328152602001611d6e603291396001600160a01b03881691906115cd565b90506000818060200190518101906111db9190611c75565b6001600160e01b031916630a85bd0160e11b1492505050949350505050565b6060816000036112215750506040805180820190915260018152600360fc1b602082015290565b8160005b811561124b578061123581611ca8565b91506112449050600a83611cd7565b9150611225565b60008167ffffffffffffffff811115611266576112666118c4565b6040519080825280601f01601f191660200182016040528015611290576020820181803683370190505b5090505b8415610909576112a5600183611ceb565b91506112b2600a86611cfe565b6112bd906030611d12565b60f81b8183815181106112d2576112d2611d25565b60200101906001600160f81b031916908160001a9053506112f4600a86611cd7565b9450611294565b60008181526001830160205260408120541515610474565b6104278383836115dc565b60008181526001830160205260408120548015610a895783546000908590600019810190811061135057611350611d25565b906000526020600020015490508085600001600184038154811061137657611376611d25565b60009182526020808320909101929092559182526001860190526040902081905583548490806113a8576113a8611d3b565b60008281526020808220830160001990810183905590920190925593815260019485019093525050604081205590565b6000818152600183016020526040812054610380575081546001808201845560008481526020808220909301849055845493815293810190915260409092205590565b6000828152600184016020526040812054808203611482575050604080518082018252838152602080820184815286546001818101895560008981528481209551600290930290950191825591519082015586548684528188019092529290912055610474565b8285600001600183038154811061149b5761149b611d25565b9060005260206000209060020201600101819055506000915050610474565b815460009082106114de5760405163e637bf3b60e01b815260040160405180910390fd5b8260000182815481106114f3576114f3611d25565b9060005260206000200154905092915050565b81546000908190831061152c5760405163022fd82760e31b815260040160405180910390fd5b600084600001848154811061154357611543611d25565b906000526020600020906002020190508060000154816001015492509250509250929050565b600081815260018301602052604081205480820361159a57604051633d547ec560e21b815260040160405180910390fd5b8360000160018203815481106115b2576115b2611d25565b90600052602060002090600202016001015491505092915050565b60606109098484600085611620565b6001600160a01b0382166104275760008181527f99574a7094154bb123ae6ae102096f0bf9679b85a5cd1e727aaa0ae5f132e6b460205260408120610427916116dd565b6060843b61164157604051632270d6bf60e21b815260040160405180910390fd5b600080866001600160a01b0316858760405161165d9190611d51565b60006040518083038185875af1925050503d806000811461169a576040519150601f19603f3d011682016040523d82523d6000602084013e61169f565b606091505b509150915081156116b35791506109099050565b8051156116c35780518082602001fd5b8360405162461bcd60e51b81526004016105f491906117b6565b5080546116e990611aac565b6000825580601f106116f9575050565b601f016020900490600052602060002090810190611717919061171a565b50565b5b8082111561172f576000815560010161171b565b5090565b6001600160e01b03198116811461171757600080fd5b60006020828403121561175b57600080fd5b813561047481611733565b60005b83811015611781578181015183820152602001611769565b50506000910152565b600081518084526117a2816020860160208601611766565b601f01601f19169290920160200192915050565b602081526000610474602083018461178a565b6000602082840312156117db57600080fd5b5035919050565b80356001600160a01b03811681146117f957600080fd5b919050565b6000806040838503121561181157600080fd5b61181a836117e2565b946020939093013593505050565b60008060006060848603121561183d57600080fd5b611846846117e2565b9250611854602085016117e2565b9150604084013590509250925092565b60006020828403121561187657600080fd5b610474826117e2565b801515811461171757600080fd5b600080604083850312156118a057600080fd5b6118a9836117e2565b915060208301356118b98161187f565b809150509250929050565b634e487b7160e01b600052604160045260246000fd5b600067ffffffffffffffff808411156118f5576118f56118c4565b604051601f8501601f19908116603f0116810190828211818310171561191d5761191d6118c4565b8160405280935085815286868601111561193657600080fd5b858560208301376000602087830101525050509392505050565b600082601f83011261196157600080fd5b610474838335602085016118da565b6000806000806080858703121561198657600080fd5b61198f856117e2565b9350602085013567ffffffffffffffff808211156119ac57600080fd5b6119b888838901611950565b945060408701359150808211156119ce57600080fd5b6119da88838901611950565b935060608701359150808211156119f057600080fd5b506119fd87828801611950565b91505092959194509250565b60008060008060808587031215611a1f57600080fd5b611a28856117e2565b9350611a36602086016117e2565b925060408501359150606085013567ffffffffffffffff811115611a5957600080fd5b8501601f81018713611a6a57600080fd5b6119fd878235602084016118da565b60008060408385031215611a8c57600080fd5b611a95836117e2565b9150611aa3602084016117e2565b90509250929050565b600181811c90821680611ac057607f821691505b602082108103611ae057634e487b7160e01b600052602260045260246000fd5b50919050565b601f82111561042757600081815260208120601f850160051c81016020861015611b0d5750805b601f850160051c820191505b81811015610bea57828155600101611b19565b815167ffffffffffffffff811115611b4657611b466118c4565b611b5a81611b548454611aac565b84611ae6565b602080601f831160018114611b8f5760008415611b775750858301515b600019600386901b1c1916600185901b178555610bea565b600085815260208120601f198616915b82811015611bbe57888601518255948401946001909101908401611b9f565b5085821015611bdc5787850151600019600388901b60f8161c191681555b5050505050600190811b01905550565b60008351611bfe818460208801611766565b835190830190611c12818360208801611766565b01949350505050565b600060208284031215611c2d57600080fd5b81516104748161187f565b6001600160a01b0385811682528416602082015260408101839052608060608201819052600090611c6b9083018461178a565b9695505050505050565b600060208284031215611c8757600080fd5b815161047481611733565b634e487b7160e01b600052601160045260246000fd5b600060018201611cba57611cba611c92565b5060010190565b634e487b7160e01b600052601260045260246000fd5b600082611ce657611ce6611cc1565b500490565b8181038181111561038057610380611c92565b600082611d0d57611d0d611cc1565b500690565b8082018082111561038057610380611c92565b634e487b7160e01b600052603260045260246000fd5b634e487b7160e01b600052603160045260246000fd5b60008251611d63818460208701611766565b919091019291505056fe4552433732313a207472616e7366657220746f206e6f6e20455243373231526563656976657220696d706c656d656e7465723c7bf052874fa81625121783266a03507bd2cd48b16e571c01a04e8dd3fb07a83c7bf052874fa81625121783266a03507bd2cd48b16e571c01a04e8dd3fb07a699574a7094154bb123ae6ae102096f0bf9679b85a5cd1e727aaa0ae5f132e6b1a264697066735822122020442bd477cbe05266b75e187a3376ed0008924a9538746ac5eef5a2dc524a0064736f6c63430008110033",
  "devdoc": {
    "details": "ERC-721 token license for Steward. Transfers are disabled during an auction",
    "kind": "dev",
    "methods": {
      "approve(address,uint256)": {
        "params": {
          "operator": "address to be approved",
          "tokenId": "token to approve"
        }
      },
      "balanceOf(address)": {
        "returns": {
          "_0": "quantity of tokens held"
        }
      },
      "getApproved(uint256)": {
        "params": {
          "tokenId": "token to query"
        },
        "returns": {
          "_0": "address approved to spend token"
        }
      },
      "isApprovedForAll(address,address)": {
        "params": {
          "account": "address to query for approval granted",
          "operator": "address to query for approval received"
        },
        "returns": {
          "_0": "whether operator is approved to spend tokens held by account"
        }
      },
      "ownerOf(uint256)": {
        "params": {
          "tokenId": "token to query"
        },
        "returns": {
          "_0": "token owner"
        }
      },
      "safeTransferFrom(address,address,uint256)": {
        "params": {
          "from": "sender of token",
          "to": "receiver of token",
          "tokenId": "token id"
        }
      },
      "safeTransferFrom(address,address,uint256,bytes)": {
        "params": {
          "data": "data payload",
          "from": "sender of token",
          "to": "receiver of token",
          "tokenId": "token id"
        }
      },
      "setApprovalForAll(address,bool)": {
        "params": {
          "operator": "address to be approved",
          "status": "approval status"
        }
      },
      "supportsInterface(bytes4)": {
        "params": {
          "interfaceId": "interface id"
        },
        "returns": {
          "_0": "bool whether interface is supported"
        }
      },
      "tokenByIndex(uint256)": {
        "params": {
          "index": "position in global token list to query"
        },
        "returns": {
          "_0": "id of retrieved token"
        }
      },
      "tokenOfOwnerByIndex(address,uint256)": {
        "params": {
          "index": "position in owner's token list to query",
          "owner": "token holder to query"
        },
        "returns": {
          "_0": "id of retrieved token"
        }
      },
      "totalSupply()": {
        "returns": {
          "_0": "total supply"
        }
      },
      "transferFrom(address,address,uint256)": {
        "params": {
          "from": "sender of token",
          "to": "receiver of token",
          "tokenId": "token id"
        }
      }
    },
    "title": "NativeStewardLicenseFacet",
    "version": 1
  },
  "userdoc": {
    "kind": "user",
    "methods": {
      "approve(address,uint256)": {
        "notice": "grant approval to given account to spend token"
      },
      "balanceOf(address)": {
        "notice": "query the balance of given address"
      },
      "getApproved(uint256)": {
        "notice": "get approval status for given token"
      },
      "initializeStewardLicense(address,string,string,string)": {
        "notice": "Initialize license"
      },
      "isApprovedForAll(address,address)": {
        "notice": "query approval status of given operator with respect to given address"
      },
      "name()": {
        "notice": "inheritdoc IERC721Metadata"
      },
      "ownerOf(uint256)": {
        "notice": "query the owner of given token"
      },
      "safeTransferFrom(address,address,uint256)": {
        "notice": "transfer token between given addresses, checking for ERC721Receiver implementation if applicable"
      },
      "safeTransferFrom(address,address,uint256,bytes)": {
        "notice": "transfer token between given addresses, checking for ERC721Receiver implementation if applicable"
      },
      "setApprovalForAll(address,bool)": {
        "notice": "grant approval to or revoke approval from given account to spend all tokens held by sender"
      },
      "supportsInterface(bytes4)": {
        "notice": "query whether contract has registered support for given interface"
      },
      "symbol()": {
        "notice": "inheritdoc IERC721Metadata"
      },
      "tokenByIndex(uint256)": {
        "notice": "get token at given internal storage index"
      },
      "tokenOfOwnerByIndex(address,uint256)": {
        "notice": "get token of given owner at given internal storage index"
      },
      "tokenURI(uint256)": {
        "notice": "inheritdoc IERC721Metadata"
      },
      "totalSupply()": {
        "notice": "get total token supply"
      },
      "transferFrom(address,address,uint256)": {
        "notice": "transfer token between given addresses, without checking for ERC721Receiver implementation if applicable"
      },
      "triggerTransfer(address,address,uint256)": {
        "notice": "Trigger transfer of license"
      }
    },
    "version": 1
  },
  "storageLayout": {
    "storage": [],
    "types": null
  }
}