{
  "address": "0xF4088860C03763B9b0B6e5C80D07530dE225D66f",
  "abi": [
    {
      "inputs": [],
      "name": "ERC165Base__InvalidInterfaceId",
      "type": "error"
    },
    {
      "inputs": [],
      "name": "UintUtils__InsufficientHexLength",
      "type": "error"
    },
    {
      "anonymous": false,
      "inputs": [
        {
          "indexed": false,
          "internalType": "uint256",
          "name": "licensePeriod",
          "type": "uint256"
        }
      ],
      "name": "LicensePeriodSet",
      "type": "event"
    },
    {
      "anonymous": false,
      "inputs": [
        {
          "indexed": false,
          "internalType": "uint256",
          "name": "perSecondFeeDenominator",
          "type": "uint256"
        }
      ],
      "name": "PerSecondFeeDenominatorSet",
      "type": "event"
    },
    {
      "anonymous": false,
      "inputs": [
        {
          "indexed": false,
          "internalType": "uint256",
          "name": "perSecondFeeNumerator",
          "type": "uint256"
        }
      ],
      "name": "PerSecondFeeNumeratorSet",
      "type": "event"
    },
    {
      "anonymous": false,
      "inputs": [
        {
          "indexed": true,
          "internalType": "bytes32",
          "name": "role",
          "type": "bytes32"
        },
        {
          "indexed": true,
          "internalType": "bytes32",
          "name": "previousAdminRole",
          "type": "bytes32"
        },
        {
          "indexed": true,
          "internalType": "bytes32",
          "name": "newAdminRole",
          "type": "bytes32"
        }
      ],
      "name": "RoleAdminChanged",
      "type": "event"
    },
    {
      "anonymous": false,
      "inputs": [
        {
          "indexed": true,
          "internalType": "bytes32",
          "name": "role",
          "type": "bytes32"
        },
        {
          "indexed": true,
          "internalType": "address",
          "name": "account",
          "type": "address"
        },
        {
          "indexed": true,
          "internalType": "address",
          "name": "sender",
          "type": "address"
        }
      ],
      "name": "RoleGranted",
      "type": "event"
    },
    {
      "anonymous": false,
      "inputs": [
        {
          "indexed": true,
          "internalType": "bytes32",
          "name": "role",
          "type": "bytes32"
        },
        {
          "indexed": true,
          "internalType": "address",
          "name": "account",
          "type": "address"
        },
        {
          "indexed": true,
          "internalType": "address",
          "name": "sender",
          "type": "address"
        }
      ],
      "name": "RoleRevoked",
      "type": "event"
    },
    {
      "inputs": [
        {
          "internalType": "address",
          "name": "_owner",
          "type": "address"
        },
        {
          "internalType": "uint256",
          "name": "_licensePeriod",
          "type": "uint256"
        },
        {
          "internalType": "uint256",
          "name": "_perSecondFeeNumerator",
          "type": "uint256"
        },
        {
          "internalType": "uint256",
          "name": "_perSecondFeeDenominator",
          "type": "uint256"
        }
      ],
      "name": "initializePCOParams",
      "outputs": [],
      "stateMutability": "nonpayable",
      "type": "function"
    },
    {
      "inputs": [
        {
          "internalType": "uint256",
          "name": "_licensePeriod",
          "type": "uint256"
        },
        {
          "internalType": "uint256",
          "name": "_perSecondFeeNumerator",
          "type": "uint256"
        },
        {
          "internalType": "uint256",
          "name": "_perSecondFeeDenominator",
          "type": "uint256"
        }
      ],
      "name": "initializePCOParams",
      "outputs": [],
      "stateMutability": "nonpayable",
      "type": "function"
    },
    {
      "inputs": [],
      "name": "licensePeriod",
      "outputs": [
        {
          "internalType": "uint256",
          "name": "",
          "type": "uint256"
        }
      ],
      "stateMutability": "view",
      "type": "function"
    },
    {
      "inputs": [],
      "name": "perSecondFeeDenominator",
      "outputs": [
        {
          "internalType": "uint256",
          "name": "",
          "type": "uint256"
        }
      ],
      "stateMutability": "view",
      "type": "function"
    },
    {
      "inputs": [],
      "name": "perSecondFeeNumerator",
      "outputs": [
        {
          "internalType": "uint256",
          "name": "",
          "type": "uint256"
        }
      ],
      "stateMutability": "view",
      "type": "function"
    },
    {
      "inputs": [
        {
          "internalType": "uint256",
          "name": "_licensePeriod",
          "type": "uint256"
        }
      ],
      "name": "setLicensePeriod",
      "outputs": [],
      "stateMutability": "nonpayable",
      "type": "function"
    },
    {
      "inputs": [
        {
          "internalType": "uint256",
          "name": "_perSecondFeeDenominator",
          "type": "uint256"
        }
      ],
      "name": "setPerSecondFeeDenominator",
      "outputs": [],
      "stateMutability": "nonpayable",
      "type": "function"
    },
    {
      "inputs": [
        {
          "internalType": "uint256",
          "name": "_perSecondFeeNumerator",
          "type": "uint256"
        }
      ],
      "name": "setPerSecondFeeNumerator",
      "outputs": [],
      "stateMutability": "nonpayable",
      "type": "function"
    },
    {
      "inputs": [
        {
          "internalType": "bytes4",
          "name": "interfaceId",
          "type": "bytes4"
        }
      ],
      "name": "supportsInterface",
      "outputs": [
        {
          "internalType": "bool",
          "name": "",
          "type": "bool"
        }
      ],
      "stateMutability": "view",
      "type": "function"
    }
  ],
  "transactionHash": "0x07e116f3b66703b5ad1a41fd9dc07835d7f7c041a405ea7463cc104dc295b325",
  "args": [],
  "numDeployments": 2,
  "solcInputHash": "a8b5d8a015e94cc47e75d180dd140140",
  "bytecode": "0x608060405234801561001057600080fd5b50610ad9806100206000396000f3fe608060405234801561001057600080fd5b50600436106100925760003560e01c80634d73f0b4116100665780634d73f0b4146100fd578063935cc61d14610110578063a3cecf8314610118578063d8462a081461012b578063fd8e6f281461013e57600080fd5b806279c6e91461009757806301ffc9a7146100b257806343ff3a91146100d55780634a4f9cc5146100ea575b600080fd5b61009f610146565b6040519081526020015b60405180910390f35b6100c56100c036600461082a565b610175565b60405190151581526020016100a9565b6100e86100e3366004610854565b6101b8565b005b6100e86100f836600461089b565b61023e565b6100e861010b3660046108c7565b610290565b61009f6102b5565b6100e86101263660046108c7565b6102df565b6100e86101393660046108c7565b610300565b61009f610321565b60006101707f47e38df96560ed74ceeb040528c687d6746edaa830d5a94a1d86a43df37c56105490565b905090565b6001600160e01b0319811660009081527ffc606c433378e3a7e0a6a531deac289b66caa1b4aa8554fd4ab2c6f1570f92d8602052604081205460ff165b92915050565b600080516020610a848339815191525460ff16156101f15760405162461bcd60e51b81526004016101e8906108e0565b60405180910390fd5b610203631baadbf760e21b600161034b565b6102156336fb153f60e01b600161034b565b61022d600080516020610a64833981519152856103c1565b610238838383610435565b50505050565b600080516020610a848339815191525460ff161561026e5760405162461bcd60e51b81526004016101e8906108e0565b610280631baadbf760e21b600161034b565b61028b838383610435565b505050565b600080516020610a648339815191526102a88161046a565b6102b182610477565b5050565b60006101707f47e38df96560ed74ceeb040528c687d6746edaa830d5a94a1d86a43df37c56115490565b600080516020610a648339815191526102f78161046a565b6102b1826104e3565b600080516020610a648339815191526103188161046a565b6102b182610547565b60006101707f47e38df96560ed74ceeb040528c687d6746edaa830d5a94a1d86a43df37c560f5490565b6001600160e01b031980831690036103765760405163b0a19dd560e01b815260040160405180910390fd5b6001600160e01b03199190911660009081527ffc606c433378e3a7e0a6a531deac289b66caa1b4aa8554fd4ab2c6f1570f92d860205260409020805460ff1916911515919091179055565b60008281527fd3889cc5458b268d0544e5534672df1296288ca3f93cbd39bd6f497a5c622811602052604090206103f890826105ab565b5060405133906001600160a01b0383169084907f2f8788117e7eff1d82e926ec794901d17c78024a50270940304540a733656f0d90600090a45050565b600080516020610a84833981519152805460ff1916600117815561045884610547565b610461836104e3565b61023882610477565b61047481336105c7565b50565b7f47e38df96560ed74ceeb040528c687d6746edaa830d5a94a1d86a43df37c5611819055604051818152600080516020610a84833981519152907f01b9ea3f7a1d4688b5da9708b485d7f3529bee8de42fe639995183fd40b7954f906020015b60405180910390a15050565b7f47e38df96560ed74ceeb040528c687d6746edaa830d5a94a1d86a43df37c5610819055604051818152600080516020610a84833981519152907f2fa607ba94fd16b8311e40fe6ec708f16b7c467d5502d052fa1407acbc620048906020016104d7565b7f47e38df96560ed74ceeb040528c687d6746edaa830d5a94a1d86a43df37c560f819055604051818152600080516020610a84833981519152907f0ce2592931633fe4bc7c7c6895d95c6fb449347b2efcd517494867fc97cde97a906020016104d7565b60006105c0836001600160a01b038416610629565b9392505050565b6105d1828261066c565b6102b1576105e7816001600160a01b03166106a3565b6105f28360206106b5565b60405160200161060392919061094f565b60408051601f198184030181529082905262461bcd60e51b82526101e8916004016109c4565b60008181526001830160205260408120546101b2575081546001808201845560008481526020808220909301849055845493815293810190915260409092205590565b60008281527fd3889cc5458b268d0544e5534672df1296288ca3f93cbd39bd6f497a5c622811602052604081206105c09083610808565b60606101b26001600160a01b03831660145b606060006106c4836002610a0d565b6106cf906002610a24565b67ffffffffffffffff8111156106e7576106e7610a37565b6040519080825280601f01601f191660200182016040528015610711576020820181803683370190505b509050600360fc1b8160008151811061072c5761072c610a4d565b60200101906001600160f81b031916908160001a905350600f60fb1b8160018151811061075b5761075b610a4d565b60200101906001600160f81b031916908160001a905350600160028402015b60018111156107e8576f181899199a1a9b1b9c1cb0b131b232b360811b85600f16601081106107ab576107ab610a4d565b1a60f81b8282815181106107c1576107c1610a4d565b60200101906001600160f81b031916908160001a90535060049490941c936000190161077a565b5083156105c05760405163c913478560e01b815260040160405180910390fd5b6001600160a01b038116600090815260018301602052604081205415156105c0565b60006020828403121561083c57600080fd5b81356001600160e01b0319811681146105c057600080fd5b6000806000806080858703121561086a57600080fd5b84356001600160a01b038116811461088157600080fd5b966020860135965060408601359560600135945092505050565b6000806000606084860312156108b057600080fd5b505081359360208301359350604090920135919050565b6000602082840312156108d957600080fd5b5035919050565b6020808252602b908201527f506572696f64696350434f506172616d7346616365743a20616c72656164792060408201526a1a5b9a5d1a585b1a5e995960aa1b606082015260800190565b60005b8381101561094657818101518382015260200161092e565b50506000910152565b7f416363657373436f6e74726f6c3a206163636f756e742000000000000000000081526000835161098781601785016020880161092b565b7001034b99036b4b9b9b4b733903937b6329607d1b60179184019182015283516109b881602884016020880161092b565b01602801949350505050565b60208152600082518060208401526109e381604085016020870161092b565b601f01601f19169190910160400192915050565b634e487b7160e01b600052601160045260246000fd5b80820281158282048414176101b2576101b26109f7565b808201808211156101b2576101b26109f7565b634e487b7160e01b600052604160045260246000fd5b634e487b7160e01b600052603260045260246000fdfe88fc2152b07410bc90f2d48e8a618d99441277e94c993622cc9da79b67bc6f4d47e38df96560ed74ceeb040528c687d6746edaa830d5a94a1d86a43df37c560ea264697066735822122093a9a80ff072ea2a3e23d8f2a81ffabbc36b285dbcec20f82a97efbf5b3521b864736f6c63430008110033",
  "devdoc": {
    "details": "Params store for periodic PCO",
    "kind": "dev",
    "methods": {
      "supportsInterface(bytes4)": {
        "params": {
          "interfaceId": "interface id"
        },
        "returns": {
          "_0": "bool whether interface is supported"
        }
      }
    },
    "title": "PeriodicPCOParamsFacet",
    "version": 1
  },
  "userdoc": {
    "kind": "user",
    "methods": {
      "initializePCOParams(address,uint256,uint256,uint256)": {
        "notice": "Initialize params with owner"
      },
      "initializePCOParams(uint256,uint256,uint256)": {
        "notice": "Initialize params"
      },
      "licensePeriod()": {
        "notice": "Get license period"
      },
      "perSecondFeeDenominator()": {
        "notice": "Get fee denominator"
      },
      "perSecondFeeNumerator()": {
        "notice": "Get fee numerator"
      },
      "setLicensePeriod(uint256)": {
        "notice": "Set license period"
      },
      "setPerSecondFeeDenominator(uint256)": {
        "notice": "Set fee denominator"
      },
      "setPerSecondFeeNumerator(uint256)": {
        "notice": "Set fee numerator"
      },
      "supportsInterface(bytes4)": {
        "notice": "query whether contract has registered support for given interface"
      }
    },
    "version": 1
  },
  "storageLayout": {
    "storage": [],
    "types": null
  }
}