{
  "address": "0xaDD2eFb7f87Db4003c50d4aE60Bcc82b255F9222",
  "abi": [
    {
      "inputs": [],
      "name": "ERC165Base__InvalidInterfaceId",
      "type": "error"
    },
    {
      "inputs": [],
      "name": "UintUtils__InsufficientHexLength",
      "type": "error"
    },
    {
      "anonymous": false,
      "inputs": [
        {
          "indexed": false,
          "internalType": "uint256",
          "name": "initialPeriodStartTime",
          "type": "uint256"
        }
      ],
      "name": "InitialPeriodStartTimeSet",
      "type": "event"
    },
    {
      "anonymous": false,
      "inputs": [
        {
          "indexed": false,
          "internalType": "uint256",
          "name": "licensePeriod",
          "type": "uint256"
        }
      ],
      "name": "LicensePeriodSet",
      "type": "event"
    },
    {
      "anonymous": false,
      "inputs": [
        {
          "indexed": false,
          "internalType": "uint256",
          "name": "perSecondFeeDenominator",
          "type": "uint256"
        }
      ],
      "name": "PerSecondFeeDenominatorSet",
      "type": "event"
    },
    {
      "anonymous": false,
      "inputs": [
        {
          "indexed": false,
          "internalType": "uint256",
          "name": "perSecondFeeNumerator",
          "type": "uint256"
        }
      ],
      "name": "PerSecondFeeNumeratorSet",
      "type": "event"
    },
    {
      "anonymous": false,
      "inputs": [
        {
          "indexed": true,
          "internalType": "bytes32",
          "name": "role",
          "type": "bytes32"
        },
        {
          "indexed": true,
          "internalType": "bytes32",
          "name": "previousAdminRole",
          "type": "bytes32"
        },
        {
          "indexed": true,
          "internalType": "bytes32",
          "name": "newAdminRole",
          "type": "bytes32"
        }
      ],
      "name": "RoleAdminChanged",
      "type": "event"
    },
    {
      "anonymous": false,
      "inputs": [
        {
          "indexed": true,
          "internalType": "bytes32",
          "name": "role",
          "type": "bytes32"
        },
        {
          "indexed": true,
          "internalType": "address",
          "name": "account",
          "type": "address"
        },
        {
          "indexed": true,
          "internalType": "address",
          "name": "sender",
          "type": "address"
        }
      ],
      "name": "RoleGranted",
      "type": "event"
    },
    {
      "anonymous": false,
      "inputs": [
        {
          "indexed": true,
          "internalType": "bytes32",
          "name": "role",
          "type": "bytes32"
        },
        {
          "indexed": true,
          "internalType": "address",
          "name": "account",
          "type": "address"
        },
        {
          "indexed": true,
          "internalType": "address",
          "name": "sender",
          "type": "address"
        }
      ],
      "name": "RoleRevoked",
      "type": "event"
    },
    {
      "inputs": [],
      "name": "initialPeriodStartTime",
      "outputs": [
        {
          "internalType": "uint256",
          "name": "",
          "type": "uint256"
        }
      ],
      "stateMutability": "view",
      "type": "function"
    },
    {
      "inputs": [
        {
          "internalType": "uint256",
          "name": "_licensePeriod",
          "type": "uint256"
        },
        {
          "internalType": "uint256",
          "name": "_initialPeriodStartTime",
          "type": "uint256"
        },
        {
          "internalType": "uint256",
          "name": "_perSecondFeeNumerator",
          "type": "uint256"
        },
        {
          "internalType": "uint256",
          "name": "_perSecondFeeDenominator",
          "type": "uint256"
        }
      ],
      "name": "initializePCOParams",
      "outputs": [],
      "stateMutability": "nonpayable",
      "type": "function"
    },
    {
      "inputs": [
        {
          "internalType": "address",
          "name": "_owner",
          "type": "address"
        },
        {
          "internalType": "uint256",
          "name": "_licensePeriod",
          "type": "uint256"
        },
        {
          "internalType": "uint256",
          "name": "_initialPeriodStartTime",
          "type": "uint256"
        },
        {
          "internalType": "uint256",
          "name": "_perSecondFeeNumerator",
          "type": "uint256"
        },
        {
          "internalType": "uint256",
          "name": "_perSecondFeeDenominator",
          "type": "uint256"
        }
      ],
      "name": "initializePCOParams",
      "outputs": [],
      "stateMutability": "nonpayable",
      "type": "function"
    },
    {
      "inputs": [],
      "name": "licensePeriod",
      "outputs": [
        {
          "internalType": "uint256",
          "name": "",
          "type": "uint256"
        }
      ],
      "stateMutability": "view",
      "type": "function"
    },
    {
      "inputs": [],
      "name": "perSecondFeeDenominator",
      "outputs": [
        {
          "internalType": "uint256",
          "name": "",
          "type": "uint256"
        }
      ],
      "stateMutability": "view",
      "type": "function"
    },
    {
      "inputs": [],
      "name": "perSecondFeeNumerator",
      "outputs": [
        {
          "internalType": "uint256",
          "name": "",
          "type": "uint256"
        }
      ],
      "stateMutability": "view",
      "type": "function"
    },
    {
      "inputs": [
        {
          "internalType": "uint256",
          "name": "_licensePeriod",
          "type": "uint256"
        }
      ],
      "name": "setLicensePeriod",
      "outputs": [],
      "stateMutability": "nonpayable",
      "type": "function"
    },
    {
      "inputs": [
        {
          "internalType": "uint256",
          "name": "_perSecondFeeDenominator",
          "type": "uint256"
        }
      ],
      "name": "setPerSecondFeeDenominator",
      "outputs": [],
      "stateMutability": "nonpayable",
      "type": "function"
    },
    {
      "inputs": [
        {
          "internalType": "uint256",
          "name": "_perSecondFeeNumerator",
          "type": "uint256"
        }
      ],
      "name": "setPerSecondFeeNumerator",
      "outputs": [],
      "stateMutability": "nonpayable",
      "type": "function"
    },
    {
      "inputs": [
        {
          "internalType": "bytes4",
          "name": "interfaceId",
          "type": "bytes4"
        }
      ],
      "name": "supportsInterface",
      "outputs": [
        {
          "internalType": "bool",
          "name": "",
          "type": "bool"
        }
      ],
      "stateMutability": "view",
      "type": "function"
    }
  ],
  "transactionHash": "0xc5958bc395ab49c5f3d27a92fa16e7d586368a36dced460b3c91e4552d016918",
  "args": [],
  "numDeployments": 1,
  "solcInputHash": "789160661a9bb39270968ba00bb416c2",
  "bytecode": "0x608060405234801561001057600080fd5b50610b96806100206000396000f3fe608060405234801561001057600080fd5b506004361061009d5760003560e01c8063935cc61d11610066578063935cc61d1461011b578063a3cecf8314610123578063be6a2a6d14610136578063d8462a081461013e578063fd8e6f281461015157600080fd5b806279c6e9146100a257806301ffc9a7146100bd5780632ec133a4146100e05780634d73f0b4146100f5578063792f078414610108575b600080fd5b6100aa610159565b6040519081526020015b60405180910390f35b6100d06100cb3660046108d8565b610188565b60405190151581526020016100b4565b6100f36100ee366004610902565b6101cb565b005b6100f3610103366004610934565b610228565b6100f361011636600461094d565b61024d565b6100aa6102cc565b6100f3610131366004610934565b6102f6565b6100aa610317565b6100f361014c366004610934565b610341565b6100aa610362565b60006101837f47e38df96560ed74ceeb040528c687d6746edaa830d5a94a1d86a43df37c56115490565b905090565b6001600160e01b0319811660009081527ffc606c433378e3a7e0a6a531deac289b66caa1b4aa8554fd4ab2c6f1570f92d8602052604081205460ff165b92915050565b600080516020610b418339815191525460ff16156102045760405162461bcd60e51b81526004016101fb9061099d565b60405180910390fd5b61021663d0c145b160e01b600161038c565b61022284848484610402565b50505050565b600080516020610b2183398151915261024081610440565b6102498261044d565b5050565b600080516020610b418339815191525460ff161561027d5760405162461bcd60e51b81526004016101fb9061099d565b61028f63d0c145b160e01b600161038c565b6102a16336fb153f60e01b600161038c565b6102b9600080516020610b21833981519152866104b9565b6102c584848484610402565b5050505050565b60006101837f47e38df96560ed74ceeb040528c687d6746edaa830d5a94a1d86a43df37c56125490565b600080516020610b2183398151915261030e81610440565b6102498261052d565b60006101837f47e38df96560ed74ceeb040528c687d6746edaa830d5a94a1d86a43df37c56105490565b600080516020610b2183398151915261035981610440565b61024982610591565b60006101837f47e38df96560ed74ceeb040528c687d6746edaa830d5a94a1d86a43df37c560f5490565b6001600160e01b031980831690036103b75760405163b0a19dd560e01b815260040160405180910390fd5b6001600160e01b03199190911660009081527ffc606c433378e3a7e0a6a531deac289b66caa1b4aa8554fd4ab2c6f1570f92d860205260409020805460ff1916911515919091179055565b600080516020610b41833981519152805460ff1916600117815561042585610591565b61042e846105f5565b6104378361052d565b6102c58261044d565b61044a8133610659565b50565b7f47e38df96560ed74ceeb040528c687d6746edaa830d5a94a1d86a43df37c5612819055604051818152600080516020610b41833981519152907f01b9ea3f7a1d4688b5da9708b485d7f3529bee8de42fe639995183fd40b7954f906020015b60405180910390a15050565b60008281527fd3889cc5458b268d0544e5534672df1296288ca3f93cbd39bd6f497a5c622811602052604090206104f090826106bb565b5060405133906001600160a01b0383169084907f2f8788117e7eff1d82e926ec794901d17c78024a50270940304540a733656f0d90600090a45050565b7f47e38df96560ed74ceeb040528c687d6746edaa830d5a94a1d86a43df37c5611819055604051818152600080516020610b41833981519152907f2fa607ba94fd16b8311e40fe6ec708f16b7c467d5502d052fa1407acbc620048906020016104ad565b7f47e38df96560ed74ceeb040528c687d6746edaa830d5a94a1d86a43df37c560f819055604051818152600080516020610b41833981519152907f0ce2592931633fe4bc7c7c6895d95c6fb449347b2efcd517494867fc97cde97a906020016104ad565b7f47e38df96560ed74ceeb040528c687d6746edaa830d5a94a1d86a43df37c5610819055604051818152600080516020610b41833981519152907f8250dc18fdc49ec02556ec27015b234378c1e068c9bd5840abe8590280b5489b906020016104ad565b61066382826106d7565b61024957610679816001600160a01b0316610730565b610684836020610742565b604051602001610695929190610a0c565b60408051601f198184030181529082905262461bcd60e51b82526101fb91600401610a81565b60006106d0836001600160a01b038416610895565b9392505050565b60006106d0827fd3889cc5458b268d0544e5534672df1296288ca3f93cbd39bd6f497a5c622811600086815260209190915260409020906001600160a01b038116600090815260018301602052604081205415156106d0565b60606101c56001600160a01b03831660145b60606000610751836002610aca565b61075c906002610ae1565b67ffffffffffffffff81111561077457610774610af4565b6040519080825280601f01601f19166020018201604052801561079e576020820181803683370190505b509050600360fc1b816000815181106107b9576107b9610b0a565b60200101906001600160f81b031916908160001a905350600f60fb1b816001815181106107e8576107e8610b0a565b60200101906001600160f81b031916908160001a905350600160028402015b6001811115610875576f181899199a1a9b1b9c1cb0b131b232b360811b85600f166010811061083857610838610b0a565b1a60f81b82828151811061084e5761084e610b0a565b60200101906001600160f81b031916908160001a90535060049490941c9360001901610807565b5083156106d05760405163c913478560e01b815260040160405180910390fd5b60008181526001830160205260408120546101c5575081546001808201845560008481526020808220909301849055845493815293810190915260409092205590565b6000602082840312156108ea57600080fd5b81356001600160e01b0319811681146106d057600080fd5b6000806000806080858703121561091857600080fd5b5050823594602084013594506040840135936060013592509050565b60006020828403121561094657600080fd5b5035919050565b600080600080600060a0868803121561096557600080fd5b85356001600160a01b038116811461097c57600080fd5b97602087013597506040870135966060810135965060800135945092505050565b6020808252602b908201527f506572696f64696350434f506172616d7346616365743a20616c72656164792060408201526a1a5b9a5d1a585b1a5e995960aa1b606082015260800190565b60005b83811015610a035781810151838201526020016109eb565b50506000910152565b7f416363657373436f6e74726f6c3a206163636f756e7420000000000000000000815260008351610a448160178501602088016109e8565b7001034b99036b4b9b9b4b733903937b6329607d1b6017918401918201528351610a758160288401602088016109e8565b01602801949350505050565b6020815260008251806020840152610aa08160408501602087016109e8565b601f01601f19169190910160400192915050565b634e487b7160e01b600052601160045260246000fd5b80820281158282048414176101c5576101c5610ab4565b808201808211156101c5576101c5610ab4565b634e487b7160e01b600052604160045260246000fd5b634e487b7160e01b600052603260045260246000fdfe88fc2152b07410bc90f2d48e8a618d99441277e94c993622cc9da79b67bc6f4d47e38df96560ed74ceeb040528c687d6746edaa830d5a94a1d86a43df37c560ea2646970667358221220f0aec15bb2db4d8be29c8d9ddb804281c70d3a5a8c3c1ba2ebcf9761e49456eb64736f6c63430008110033",
  "devdoc": {
    "details": "Params store for periodic PCO",
    "kind": "dev",
    "methods": {
      "supportsInterface(bytes4)": {
        "params": {
          "interfaceId": "interface id"
        },
        "returns": {
          "_0": "bool whether interface is supported"
        }
      }
    },
    "title": "PeriodicPCOParamsFacet",
    "version": 1
  },
  "userdoc": {
    "kind": "user",
    "methods": {
      "initialPeriodStartTime()": {
        "notice": "Get initial period start time"
      },
      "initializePCOParams(address,uint256,uint256,uint256,uint256)": {
        "notice": "Initialize params with owner"
      },
      "initializePCOParams(uint256,uint256,uint256,uint256)": {
        "notice": "Initialize params"
      },
      "licensePeriod()": {
        "notice": "Get license period"
      },
      "perSecondFeeDenominator()": {
        "notice": "Get fee denominator"
      },
      "perSecondFeeNumerator()": {
        "notice": "Get fee numerator"
      },
      "setLicensePeriod(uint256)": {
        "notice": "Set license period"
      },
      "setPerSecondFeeDenominator(uint256)": {
        "notice": "Set fee denominator"
      },
      "setPerSecondFeeNumerator(uint256)": {
        "notice": "Set fee numerator"
      },
      "supportsInterface(bytes4)": {
        "notice": "query whether contract has registered support for given interface"
      }
    },
    "version": 1
  },
  "storageLayout": {
    "storage": [],
    "types": null
  }
}