{
  "address": "0xbd48DFf5a94C16987e6BED5F9c70C3664DAA92FC",
  "abi": [
    {
      "inputs": [],
      "name": "ERC165Base__InvalidInterfaceId",
      "type": "error"
    },
    {
      "inputs": [],
      "name": "UintUtils__InsufficientHexLength",
      "type": "error"
    },
    {
      "anonymous": false,
      "inputs": [
        {
          "indexed": false,
          "internalType": "uint256",
          "name": "licensePeriod",
          "type": "uint256"
        }
      ],
      "name": "LicensePeriodSet",
      "type": "event"
    },
    {
      "anonymous": false,
      "inputs": [
        {
          "indexed": false,
          "internalType": "uint256",
          "name": "perSecondFeeDenominator",
          "type": "uint256"
        }
      ],
      "name": "PerSecondFeeDenominatorSet",
      "type": "event"
    },
    {
      "anonymous": false,
      "inputs": [
        {
          "indexed": false,
          "internalType": "uint256",
          "name": "perSecondFeeNumerator",
          "type": "uint256"
        }
      ],
      "name": "PerSecondFeeNumeratorSet",
      "type": "event"
    },
    {
      "anonymous": false,
      "inputs": [
        {
          "indexed": true,
          "internalType": "bytes32",
          "name": "role",
          "type": "bytes32"
        },
        {
          "indexed": true,
          "internalType": "bytes32",
          "name": "previousAdminRole",
          "type": "bytes32"
        },
        {
          "indexed": true,
          "internalType": "bytes32",
          "name": "newAdminRole",
          "type": "bytes32"
        }
      ],
      "name": "RoleAdminChanged",
      "type": "event"
    },
    {
      "anonymous": false,
      "inputs": [
        {
          "indexed": true,
          "internalType": "bytes32",
          "name": "role",
          "type": "bytes32"
        },
        {
          "indexed": true,
          "internalType": "address",
          "name": "account",
          "type": "address"
        },
        {
          "indexed": true,
          "internalType": "address",
          "name": "sender",
          "type": "address"
        }
      ],
      "name": "RoleGranted",
      "type": "event"
    },
    {
      "anonymous": false,
      "inputs": [
        {
          "indexed": true,
          "internalType": "bytes32",
          "name": "role",
          "type": "bytes32"
        },
        {
          "indexed": true,
          "internalType": "address",
          "name": "account",
          "type": "address"
        },
        {
          "indexed": true,
          "internalType": "address",
          "name": "sender",
          "type": "address"
        }
      ],
      "name": "RoleRevoked",
      "type": "event"
    },
    {
      "inputs": [
        {
          "internalType": "address",
          "name": "_owner",
          "type": "address"
        },
        {
          "internalType": "uint256",
          "name": "_licensePeriod",
          "type": "uint256"
        },
        {
          "internalType": "uint256",
          "name": "_perSecondFeeNumerator",
          "type": "uint256"
        },
        {
          "internalType": "uint256",
          "name": "_perSecondFeeDenominator",
          "type": "uint256"
        }
      ],
      "name": "initializePCOParams",
      "outputs": [],
      "stateMutability": "nonpayable",
      "type": "function"
    },
    {
      "inputs": [
        {
          "internalType": "uint256",
          "name": "_licensePeriod",
          "type": "uint256"
        },
        {
          "internalType": "uint256",
          "name": "_perSecondFeeNumerator",
          "type": "uint256"
        },
        {
          "internalType": "uint256",
          "name": "_perSecondFeeDenominator",
          "type": "uint256"
        }
      ],
      "name": "initializePCOParams",
      "outputs": [],
      "stateMutability": "nonpayable",
      "type": "function"
    },
    {
      "inputs": [],
      "name": "licensePeriod",
      "outputs": [
        {
          "internalType": "uint256",
          "name": "",
          "type": "uint256"
        }
      ],
      "stateMutability": "view",
      "type": "function"
    },
    {
      "inputs": [],
      "name": "perSecondFeeDenominator",
      "outputs": [
        {
          "internalType": "uint256",
          "name": "",
          "type": "uint256"
        }
      ],
      "stateMutability": "view",
      "type": "function"
    },
    {
      "inputs": [],
      "name": "perSecondFeeNumerator",
      "outputs": [
        {
          "internalType": "uint256",
          "name": "",
          "type": "uint256"
        }
      ],
      "stateMutability": "view",
      "type": "function"
    },
    {
      "inputs": [
        {
          "internalType": "uint256",
          "name": "_licensePeriod",
          "type": "uint256"
        }
      ],
      "name": "setLicensePeriod",
      "outputs": [],
      "stateMutability": "nonpayable",
      "type": "function"
    },
    {
      "inputs": [
        {
          "internalType": "uint256",
          "name": "_perSecondFeeDenominator",
          "type": "uint256"
        }
      ],
      "name": "setPerSecondFeeDenominator",
      "outputs": [],
      "stateMutability": "nonpayable",
      "type": "function"
    },
    {
      "inputs": [
        {
          "internalType": "uint256",
          "name": "_perSecondFeeNumerator",
          "type": "uint256"
        }
      ],
      "name": "setPerSecondFeeNumerator",
      "outputs": [],
      "stateMutability": "nonpayable",
      "type": "function"
    }
  ],
  "transactionHash": "0xf70682ddc042decbf14e381ec378ad3d8024b7762aaa27d4ecdfb22f232334f6",
  "args": [],
  "numDeployments": 3,
  "solcInputHash": "4af5e4fd5a2a3b80cb4af54040e461f5",
  "bytecode": "0x608060405234801561001057600080fd5b50610a3f806100206000396000f3fe608060405234801561001057600080fd5b50600436106100875760003560e01c8063935cc61d1161005b578063935cc61d146100e1578063a3cecf83146100e9578063d8462a08146100fc578063fd8e6f281461010f57600080fd5b806279c6e91461008c57806343ff3a91146100a65780634a4f9cc5146100bb5780634d73f0b4146100ce575b600080fd5b610094610117565b60405190815260200160405180910390f35b6100b96100b43660046107ba565b610146565b005b6100b96100c9366004610801565b6101cc565b6100b96100dc36600461082d565b61021e565b610094610243565b6100b96100f736600461082d565b61026d565b6100b961010a36600461082d565b61028e565b6100946102af565b60006101417f47e38df96560ed74ceeb040528c687d6746edaa830d5a94a1d86a43df37c56105490565b905090565b6000805160206109ea8339815191525460ff161561017f5760405162461bcd60e51b815260040161017690610846565b60405180910390fd5b610191631baadbf760e21b60016102d9565b6101a36336fb153f60e01b60016102d9565b6101bb6000805160206109ca8339815191528561034f565b6101c68383836103c3565b50505050565b6000805160206109ea8339815191525460ff16156101fc5760405162461bcd60e51b815260040161017690610846565b61020e631baadbf760e21b60016102d9565b6102198383836103c3565b505050565b6000805160206109ca833981519152610236816103f8565b61023f82610405565b5050565b60006101417f47e38df96560ed74ceeb040528c687d6746edaa830d5a94a1d86a43df37c56115490565b6000805160206109ca833981519152610285816103f8565b61023f82610471565b6000805160206109ca8339815191526102a6816103f8565b61023f826104d5565b60006101417f47e38df96560ed74ceeb040528c687d6746edaa830d5a94a1d86a43df37c560f5490565b6001600160e01b031980831690036103045760405163b0a19dd560e01b815260040160405180910390fd5b6001600160e01b03199190911660009081527ffc606c433378e3a7e0a6a531deac289b66caa1b4aa8554fd4ab2c6f1570f92d860205260409020805460ff1916911515919091179055565b60008281527fd3889cc5458b268d0544e5534672df1296288ca3f93cbd39bd6f497a5c622811602052604090206103869082610539565b5060405133906001600160a01b0383169084907f2f8788117e7eff1d82e926ec794901d17c78024a50270940304540a733656f0d90600090a45050565b6000805160206109ea833981519152805460ff191660011781556103e6846104d5565b6103ef83610471565b6101c682610405565b6104028133610557565b50565b7f47e38df96560ed74ceeb040528c687d6746edaa830d5a94a1d86a43df37c56118190556040518181526000805160206109ea833981519152907f01b9ea3f7a1d4688b5da9708b485d7f3529bee8de42fe639995183fd40b7954f906020015b60405180910390a15050565b7f47e38df96560ed74ceeb040528c687d6746edaa830d5a94a1d86a43df37c56108190556040518181526000805160206109ea833981519152907f2fa607ba94fd16b8311e40fe6ec708f16b7c467d5502d052fa1407acbc62004890602001610465565b7f47e38df96560ed74ceeb040528c687d6746edaa830d5a94a1d86a43df37c560f8190556040518181526000805160206109ea833981519152907f0ce2592931633fe4bc7c7c6895d95c6fb449347b2efcd517494867fc97cde97a90602001610465565b600061054e836001600160a01b0384166105b9565b90505b92915050565b61056182826105fc565b61023f57610577816001600160a01b0316610633565b610582836020610645565b6040516020016105939291906108b5565b60408051601f198184030181529082905262461bcd60e51b82526101769160040161092a565b6000818152600183016020526040812054610551575081546001808201845560008481526020808220909301849055845493815293810190915260409092205590565b60008281527fd3889cc5458b268d0544e5534672df1296288ca3f93cbd39bd6f497a5c6228116020526040812061054e9083610798565b60606105516001600160a01b03831660145b60606000610654836002610973565b61065f90600261098a565b67ffffffffffffffff8111156106775761067761099d565b6040519080825280601f01601f1916602001820160405280156106a1576020820181803683370190505b509050600360fc1b816000815181106106bc576106bc6109b3565b60200101906001600160f81b031916908160001a905350600f60fb1b816001815181106106eb576106eb6109b3565b60200101906001600160f81b031916908160001a905350600160028402015b6001811115610778576f181899199a1a9b1b9c1cb0b131b232b360811b85600f166010811061073b5761073b6109b3565b1a60f81b828281518110610751576107516109b3565b60200101906001600160f81b031916908160001a90535060049490941c936000190161070a565b50831561054e5760405163c913478560e01b815260040160405180910390fd5b6001600160a01b0381166000908152600183016020526040812054151561054e565b600080600080608085870312156107d057600080fd5b84356001600160a01b03811681146107e757600080fd5b966020860135965060408601359560600135945092505050565b60008060006060848603121561081657600080fd5b505081359360208301359350604090920135919050565b60006020828403121561083f57600080fd5b5035919050565b6020808252602b908201527f506572696f64696350434f506172616d7346616365743a20616c72656164792060408201526a1a5b9a5d1a585b1a5e995960aa1b606082015260800190565b60005b838110156108ac578181015183820152602001610894565b50506000910152565b7f416363657373436f6e74726f6c3a206163636f756e74200000000000000000008152600083516108ed816017850160208801610891565b7001034b99036b4b9b9b4b733903937b6329607d1b601791840191820152835161091e816028840160208801610891565b01602801949350505050565b6020815260008251806020840152610949816040850160208701610891565b601f01601f19169190910160400192915050565b634e487b7160e01b600052601160045260246000fd5b80820281158282048414176105515761055161095d565b808201808211156105515761055161095d565b634e487b7160e01b600052604160045260246000fd5b634e487b7160e01b600052603260045260246000fdfe88fc2152b07410bc90f2d48e8a618d99441277e94c993622cc9da79b67bc6f4d47e38df96560ed74ceeb040528c687d6746edaa830d5a94a1d86a43df37c560ea264697066735822122097cc9d116f7ef2152179c2ea23d8cc88657bed113fa7e67dfd0308c261acc85064736f6c63430008110033",
  "devdoc": {
    "details": "Params store for periodic PCO",
    "kind": "dev",
    "methods": {},
    "title": "PeriodicPCOParamsFacet",
    "version": 1
  },
  "userdoc": {
    "kind": "user",
    "methods": {
      "initializePCOParams(address,uint256,uint256,uint256)": {
        "notice": "Initialize params with owner"
      },
      "initializePCOParams(uint256,uint256,uint256)": {
        "notice": "Initialize params"
      },
      "licensePeriod()": {
        "notice": "Get license period"
      },
      "perSecondFeeDenominator()": {
        "notice": "Get fee denominator"
      },
      "perSecondFeeNumerator()": {
        "notice": "Get fee numerator"
      },
      "setLicensePeriod(uint256)": {
        "notice": "Set license period"
      },
      "setPerSecondFeeDenominator(uint256)": {
        "notice": "Set fee denominator"
      },
      "setPerSecondFeeNumerator(uint256)": {
        "notice": "Set fee numerator"
      }
    },
    "version": 1
  },
  "storageLayout": {
    "storage": [],
    "types": null
  }
}