{
  "address": "0x28DDbC0b2896f5407b238A36764676218ac3775E",
  "abi": [
    {
      "inputs": [],
      "name": "AddressUtils__NotContract",
      "type": "error"
    },
    {
      "inputs": [],
      "name": "ERC165Base__InvalidInterfaceId",
      "type": "error"
    },
    {
      "inputs": [],
      "name": "ERC721Base__BalanceQueryZeroAddress",
      "type": "error"
    },
    {
      "inputs": [],
      "name": "ERC721Base__ERC721ReceiverNotImplemented",
      "type": "error"
    },
    {
      "inputs": [],
      "name": "ERC721Base__InvalidOwner",
      "type": "error"
    },
    {
      "inputs": [],
      "name": "ERC721Base__MintToZeroAddress",
      "type": "error"
    },
    {
      "inputs": [],
      "name": "ERC721Base__NonExistentToken",
      "type": "error"
    },
    {
      "inputs": [],
      "name": "ERC721Base__NotOwnerOrApproved",
      "type": "error"
    },
    {
      "inputs": [],
      "name": "ERC721Base__NotTokenOwner",
      "type": "error"
    },
    {
      "inputs": [],
      "name": "ERC721Base__SelfApproval",
      "type": "error"
    },
    {
      "inputs": [],
      "name": "ERC721Base__TokenAlreadyMinted",
      "type": "error"
    },
    {
      "inputs": [],
      "name": "ERC721Base__TransferToZeroAddress",
      "type": "error"
    },
    {
      "inputs": [],
      "name": "ERC721Metadata__NonExistentToken",
      "type": "error"
    },
    {
      "inputs": [],
      "name": "EnumerableMap__IndexOutOfBounds",
      "type": "error"
    },
    {
      "inputs": [],
      "name": "EnumerableMap__NonExistentKey",
      "type": "error"
    },
    {
      "inputs": [],
      "name": "EnumerableSet__IndexOutOfBounds",
      "type": "error"
    },
    {
      "anonymous": false,
      "inputs": [
        {
          "indexed": true,
          "internalType": "address",
          "name": "owner",
          "type": "address"
        },
        {
          "indexed": true,
          "internalType": "address",
          "name": "operator",
          "type": "address"
        },
        {
          "indexed": true,
          "internalType": "uint256",
          "name": "tokenId",
          "type": "uint256"
        }
      ],
      "name": "Approval",
      "type": "event"
    },
    {
      "anonymous": false,
      "inputs": [
        {
          "indexed": true,
          "internalType": "address",
          "name": "owner",
          "type": "address"
        },
        {
          "indexed": true,
          "internalType": "address",
          "name": "operator",
          "type": "address"
        },
        {
          "indexed": false,
          "internalType": "bool",
          "name": "approved",
          "type": "bool"
        }
      ],
      "name": "ApprovalForAll",
      "type": "event"
    },
    {
      "anonymous": false,
      "inputs": [
        {
          "indexed": true,
          "internalType": "address",
          "name": "from",
          "type": "address"
        },
        {
          "indexed": true,
          "internalType": "address",
          "name": "to",
          "type": "address"
        },
        {
          "indexed": true,
          "internalType": "uint256",
          "name": "tokenId",
          "type": "uint256"
        }
      ],
      "name": "Transfer",
      "type": "event"
    },
    {
      "inputs": [
        {
          "internalType": "address",
          "name": "operator",
          "type": "address"
        },
        {
          "internalType": "uint256",
          "name": "tokenId",
          "type": "uint256"
        }
      ],
      "name": "approve",
      "outputs": [],
      "stateMutability": "payable",
      "type": "function"
    },
    {
      "inputs": [
        {
          "internalType": "address",
          "name": "account",
          "type": "address"
        }
      ],
      "name": "balanceOf",
      "outputs": [
        {
          "internalType": "uint256",
          "name": "",
          "type": "uint256"
        }
      ],
      "stateMutability": "view",
      "type": "function"
    },
    {
      "inputs": [
        {
          "internalType": "uint256",
          "name": "tokenId",
          "type": "uint256"
        }
      ],
      "name": "getApproved",
      "outputs": [
        {
          "internalType": "address",
          "name": "",
          "type": "address"
        }
      ],
      "stateMutability": "view",
      "type": "function"
    },
    {
      "inputs": [
        {
          "internalType": "address",
          "name": "account",
          "type": "address"
        },
        {
          "internalType": "address",
          "name": "operator",
          "type": "address"
        }
      ],
      "name": "isApprovedForAll",
      "outputs": [
        {
          "internalType": "bool",
          "name": "",
          "type": "bool"
        }
      ],
      "stateMutability": "view",
      "type": "function"
    },
    {
      "inputs": [],
      "name": "name",
      "outputs": [
        {
          "internalType": "string",
          "name": "",
          "type": "string"
        }
      ],
      "stateMutability": "view",
      "type": "function"
    },
    {
      "inputs": [
        {
          "internalType": "address",
          "name": "",
          "type": "address"
        },
        {
          "internalType": "address",
          "name": "",
          "type": "address"
        },
        {
          "internalType": "uint256[]",
          "name": "ids",
          "type": "uint256[]"
        },
        {
          "internalType": "uint256[]",
          "name": "values",
          "type": "uint256[]"
        },
        {
          "internalType": "bytes",
          "name": "data",
          "type": "bytes"
        }
      ],
      "name": "onERC1155BatchReceived",
      "outputs": [
        {
          "internalType": "bytes4",
          "name": "",
          "type": "bytes4"
        }
      ],
      "stateMutability": "nonpayable",
      "type": "function"
    },
    {
      "inputs": [
        {
          "internalType": "address",
          "name": "",
          "type": "address"
        },
        {
          "internalType": "address",
          "name": "",
          "type": "address"
        },
        {
          "internalType": "uint256",
          "name": "id",
          "type": "uint256"
        },
        {
          "internalType": "uint256",
          "name": "value",
          "type": "uint256"
        },
        {
          "internalType": "bytes",
          "name": "data",
          "type": "bytes"
        }
      ],
      "name": "onERC1155Received",
      "outputs": [
        {
          "internalType": "bytes4",
          "name": "",
          "type": "bytes4"
        }
      ],
      "stateMutability": "nonpayable",
      "type": "function"
    },
    {
      "inputs": [
        {
          "internalType": "uint256",
          "name": "tokenId",
          "type": "uint256"
        }
      ],
      "name": "ownerOf",
      "outputs": [
        {
          "internalType": "address",
          "name": "",
          "type": "address"
        }
      ],
      "stateMutability": "view",
      "type": "function"
    },
    {
      "inputs": [
        {
          "internalType": "address",
          "name": "from",
          "type": "address"
        },
        {
          "internalType": "address",
          "name": "to",
          "type": "address"
        },
        {
          "internalType": "uint256",
          "name": "tokenId",
          "type": "uint256"
        }
      ],
      "name": "safeTransferFrom",
      "outputs": [],
      "stateMutability": "payable",
      "type": "function"
    },
    {
      "inputs": [
        {
          "internalType": "address",
          "name": "from",
          "type": "address"
        },
        {
          "internalType": "address",
          "name": "to",
          "type": "address"
        },
        {
          "internalType": "uint256",
          "name": "tokenId",
          "type": "uint256"
        },
        {
          "internalType": "bytes",
          "name": "data",
          "type": "bytes"
        }
      ],
      "name": "safeTransferFrom",
      "outputs": [],
      "stateMutability": "payable",
      "type": "function"
    },
    {
      "inputs": [
        {
          "internalType": "address",
          "name": "operator",
          "type": "address"
        },
        {
          "internalType": "bool",
          "name": "status",
          "type": "bool"
        }
      ],
      "name": "setApprovalForAll",
      "outputs": [],
      "stateMutability": "nonpayable",
      "type": "function"
    },
    {
      "inputs": [
        {
          "internalType": "bytes4",
          "name": "interfaceId",
          "type": "bytes4"
        }
      ],
      "name": "supportsInterface",
      "outputs": [
        {
          "internalType": "bool",
          "name": "",
          "type": "bool"
        }
      ],
      "stateMutability": "view",
      "type": "function"
    },
    {
      "inputs": [],
      "name": "symbol",
      "outputs": [
        {
          "internalType": "string",
          "name": "",
          "type": "string"
        }
      ],
      "stateMutability": "view",
      "type": "function"
    },
    {
      "inputs": [
        {
          "internalType": "uint256",
          "name": "index",
          "type": "uint256"
        }
      ],
      "name": "tokenByIndex",
      "outputs": [
        {
          "internalType": "uint256",
          "name": "",
          "type": "uint256"
        }
      ],
      "stateMutability": "view",
      "type": "function"
    },
    {
      "inputs": [
        {
          "internalType": "address",
          "name": "owner",
          "type": "address"
        },
        {
          "internalType": "uint256",
          "name": "index",
          "type": "uint256"
        }
      ],
      "name": "tokenOfOwnerByIndex",
      "outputs": [
        {
          "internalType": "uint256",
          "name": "",
          "type": "uint256"
        }
      ],
      "stateMutability": "view",
      "type": "function"
    },
    {
      "inputs": [
        {
          "internalType": "uint256",
          "name": "tokenId",
          "type": "uint256"
        }
      ],
      "name": "tokenURI",
      "outputs": [
        {
          "internalType": "string",
          "name": "",
          "type": "string"
        }
      ],
      "stateMutability": "view",
      "type": "function"
    },
    {
      "inputs": [],
      "name": "totalSupply",
      "outputs": [
        {
          "internalType": "uint256",
          "name": "",
          "type": "uint256"
        }
      ],
      "stateMutability": "view",
      "type": "function"
    },
    {
      "inputs": [
        {
          "internalType": "address",
          "name": "from",
          "type": "address"
        },
        {
          "internalType": "address",
          "name": "to",
          "type": "address"
        },
        {
          "internalType": "uint256",
          "name": "tokenId",
          "type": "uint256"
        }
      ],
      "name": "transferFrom",
      "outputs": [],
      "stateMutability": "payable",
      "type": "function"
    },
    {
      "inputs": [
        {
          "internalType": "address",
          "name": "from",
          "type": "address"
        },
        {
          "internalType": "address",
          "name": "to",
          "type": "address"
        },
        {
          "internalType": "uint256",
          "name": "tokenId",
          "type": "uint256"
        }
      ],
      "name": "triggerTransfer",
      "outputs": [],
      "stateMutability": "nonpayable",
      "type": "function"
    }
  ],
  "transactionHash": "0x22cb17c487b8c31e125b623d9267021c81ba8d2457eb7c26c38a234789119457",
  "args": [],
  "numDeployments": 2,
  "solcInputHash": "a8b5d8a015e94cc47e75d180dd140140",
  "bytecode": "0x608060405234801561001057600080fd5b50612309806100206000396000f3fe6080604052600436106101145760003560e01c80636352211e116100a0578063bc197c8111610064578063bc197c81146102ce578063c87b56dd14610307578063e31a7c0114610327578063e985e9c514610347578063f23a6e611461036757600080fd5b80636352211e1461024657806370a082311461026657806395d89b4114610286578063a22cb4651461029b578063b88d4fde146102bb57600080fd5b806318160ddd116100e757806318160ddd146101bd57806323b872dd146101e05780632f745c59146101f357806342842e0e146102135780634f6ccce71461022657600080fd5b806301ffc9a71461011957806306fdde031461014e578063081812fc14610170578063095ea7b3146101a8575b600080fd5b34801561012557600080fd5b50610139610134366004611924565b610387565b60405190151581526020015b60405180910390f35b34801561015a57600080fd5b506101636103ca565b6040516101459190611991565b34801561017c57600080fd5b5061019061018b3660046119a4565b6103d9565b6040516001600160a01b039091168152602001610145565b6101bb6101b63660046119d2565b6103e4565b005b3480156101c957600080fd5b506101d2610470565b604051908152602001610145565b6101bb6101ee3660046119fe565b61047a565b3480156101ff57600080fd5b506101d261020e3660046119d2565b6104ac565b6101bb6102213660046119fe565b6104bf565b34801561023257600080fd5b506101d26102413660046119a4565b6104da565b34801561025257600080fd5b506101906102613660046119a4565b6104e5565b34801561027257600080fd5b506101d2610281366004611a3f565b6104f0565b34801561029257600080fd5b506101636104fb565b3480156102a757600080fd5b506101bb6102b6366004611a6a565b610505565b6101bb6102c9366004611b50565b6105b9565b3480156102da57600080fd5b506102ee6102e9366004611c57565b6105f2565b6040516001600160e01b03199091168152602001610145565b34801561031357600080fd5b506101636103223660046119a4565b610751565b34801561033357600080fd5b506101bb6103423660046119fe565b61075c565b34801561035357600080fd5b50610139610362366004611d16565b6107e6565b34801561037357600080fd5b506102ee610382366004611d44565b6107f2565b6001600160e01b0319811660009081527ffc606c433378e3a7e0a6a531deac289b66caa1b4aa8554fd4ab2c6f1570f92d8602052604081205460ff165b92915050565b60606103d46108bc565b905090565b60006103c48261095b565b60006103ef826104e5565b9050806001600160a01b0316836001600160a01b0316036104235760405163424a22cb60e01b815260040160405180910390fd5b336001600160a01b03821614801590610443575061044181336107e6565b155b1561046157604051632f5de44f60e01b815260040160405180910390fd5b61046b83836109be565b505050565b60006103d4610a4b565b6104843382610a64565b6104a157604051632f5de44f60e01b815260040160405180910390fd5b61046b838383610aea565b60006104b88383610c19565b9392505050565b61046b838383604051806020016040528060008152506105b9565b60006103c482610c48565b60006103c482610c69565b60006103c482610cad565b60606103d4610d04565b336001600160a01b0383160361052e5760405163424a22cb60e01b815260040160405180910390fd5b3360008181527f3c7bf052874fa81625121783266a03507bd2cd48b16e571c01a04e8dd3fb07aa602090815260408083206001600160a01b03871680855290835292819020805460ff191686151590811790915590519081529192917f17307eab39ab6107e8899845ad3d59bd9653f200f220920489ca2b5937696c31910160405180910390a35050565b6105c33383610a64565b6105e057604051632f5de44f60e01b815260040160405180910390fd5b6105ec84848484610d23565b50505050565b600061061f7f79ec1734da2430052e9d78936f451aad707e5bed12ef4806b06dc3d0c38f0e305460ff1690565b156106455760405162461bcd60e51b815260040161063c90611dc0565b60405180910390fd5b6001861480156106555750600184145b801561067a57508484600081811061066f5761066f611e16565b905060200201356001145b6106965760405162461bcd60e51b815260040161063c90611e2c565b600080806106a685870187611ea9565b9194509250905061073983838333630e89341c8f8f6000816106ca576106ca611e16565b905060200201356040518263ffffffff1660e01b81526004016106ef91815260200190565b600060405180830381865afa15801561070c573d6000803e3d6000fd5b505050506040513d6000823e601f3d908101601f191682016040526107349190810190611f1f565b610d57565b5063bc197c8160e01b9b9a5050505050505050505050565b60606103c482610dff565b3330146104a15760405162461bcd60e51b815260206004820152604c60248201527f4e6174697665537465776172644c6963656e73653a205472696767657220747260448201527f616e736665722063616e206f6e6c792062652063616c6c65642066726f6d206160648201526b1b9bdd1a195c88199858d95d60a21b608482015260a40161063c565b60006104b88383610fe0565b600061081f7f79ec1734da2430052e9d78936f451aad707e5bed12ef4806b06dc3d0c38f0e305460ff1690565b1561083c5760405162461bcd60e51b815260040161063c90611dc0565b8360011461085c5760405162461bcd60e51b815260040161063c90611e2c565b6000808061086c85870187611ea9565b9250925092506108a6838383336001600160a01b0316630e89341c8d6040518263ffffffff1660e01b81526004016106ef91815260200190565b5063f23a6e6160e01b9998505050505050505050565b60606000805160206122b483398151915280546108d890611f96565b80601f016020809104026020016040519081016040528092919081815260200182805461090490611f96565b80156109515780601f1061092657610100808354040283529160200191610951565b820191906000526020600020905b81548152906001019060200180831161093457829003601f168201915b5050505050905090565b60006109668261102d565b6109835760405163c1b843ef60e01b815260040160405180910390fd5b5060009081527f3c7bf052874fa81625121783266a03507bd2cd48b16e571c01a04e8dd3fb07a960205260409020546001600160a01b031690565b60008181527f3c7bf052874fa81625121783266a03507bd2cd48b16e571c01a04e8dd3fb07a96020526040902080546001600160a01b0319166001600160a01b0384169081179091558190610a1282610c69565b6001600160a01b03167f8c5be1e5ebec7d5bd14f71427d1e84f3dd0314c0f7b2291e5b200ac8c7c3b92560405160405180910390a45050565b60006103d4600080516020612294833981519152611047565b6000610a6f8261102d565b610a8c5760405163c1b843ef60e01b815260040160405180910390fd5b6000610a9783610c69565b9050806001600160a01b0316846001600160a01b03161480610ad25750836001600160a01b0316610ac78461095b565b6001600160a01b0316145b80610ae25750610ae28185610fe0565b949350505050565b826001600160a01b0316610afd82610c69565b6001600160a01b031614610b2457604051630f2db4ad60e01b815260040160405180910390fd5b6001600160a01b038216610b4b576040516340311a0960e01b815260040160405180910390fd5b610b56838383611051565b610b616000826109be565b6001600160a01b03831660009081526000805160206122748339815191526020526040902060008051602061229483398151915290610ba09083611147565b506001600160a01b03831660009081526002820160205260409020610bc59083611153565b50610bd181838561115f565b5081836001600160a01b0316856001600160a01b03167fddf252ad1be2c89b69c2b068fc378daa952ba7f163c4a11628f55a4df523b3ef60405160405180910390a450505050565b6001600160a01b0382166000908152600080516020612274833981519152602052604081206104b89083611175565b6000610c6260008051602061229483398151915283611181565b5092915050565b600080610c846000805160206122948339815191528461119f565b90506001600160a01b0381166103c457604051637e1a7d8b60e01b815260040160405180910390fd5b60006001600160a01b038216610cd657604051630810ff9760e41b815260040160405180910390fd5b6001600160a01b0382166000908152600080516020612274833981519152602052604090206103c490611047565b60606000805160206122b483398151915260010180546108d890611f96565b610d2e848484610aea565b610d3a848484846111ab565b6105ec57604051639ff10cdd60e01b815260040160405180910390fd5b7f79ec1734da2430052e9d78936f451aad707e5bed12ef4806b06dc3d0c38f0e30805460ff191660011781556000805160206122b483398151915280610d9d8682612016565b5060018101610dac8582612016565b5060008080526003820160205260409020610dc78482612016565b50610dda6301ffc9a760e01b600161127c565b610dec6380ac58cd60e01b600161127c565b610df78660006112f2565b505050505050565b6060610e0a8261102d565b610e2657604051624705a760e71b815260040160405180910390fd5b60008281527f99574a7094154bb123ae6ae102096f0bf9679b85a5cd1e727aaa0ae5f132e6b46020526040812080546000805160206122b4833981519152929190610e7090611f96565b80601f0160208091040260200160405190810160405280929190818152602001828054610e9c90611f96565b8015610ee95780601f10610ebe57610100808354040283529160200191610ee9565b820191906000526020600020905b815481529060010190602001808311610ecc57829003601f168201915b505050505090506000826002018054610f0190611f96565b80601f0160208091040260200160405190810160405280929190818152602001828054610f2d90611f96565b8015610f7a5780601f10610f4f57610100808354040283529160200191610f7a565b820191906000526020600020905b815481529060010190602001808311610f5d57829003601f168201915b505050505090508051600003610f9257509392505050565b815115610fc5578082604051602001610fac9291906120d6565b6040516020818303038152906040529350505050919050565b80610fcf866113d5565b604051602001610fac9291906120d6565b6001600160a01b0391821660009081527f3c7bf052874fa81625121783266a03507bd2cd48b16e571c01a04e8dd3fb07aa6020908152604080832093909416825291909152205460ff1690565b60006103c4600080516020612294833981519152836114d6565b60006103c4825490565b6001600160a01b0383161561113c576000306001600160a01b031663ec214d336040518163ffffffff1660e01b8152600401602060405180830381865afa1580156110a0573d6000803e3d6000fd5b505050506040513d601f19601f820116820180604052508101906110c49190612105565b9050801561113a5760405162461bcd60e51b815260206004820152603a60248201527f537465776172644c6963656e736546616365743a2043616e6e6f74207472616e60448201527f7366657220647572696e672061756374696f6e20706572696f64000000000000606482015260840161063c565b505b61046b8383836114ee565b60006104b883836114f9565b60006104b883836115b3565b6000610ae284846001600160a01b0385166115f6565b60006104b88383611695565b600080808061119086866116e1565b909450925050505b9250929050565b60006104b88383611744565b60006001600160a01b0384163b6111c457506001610ae2565b600061124563150b7a0260e01b338887876040516024016111e89493929190612122565b604051602081830303815290604052906001600160e01b0319166020820180516001600160e01b038381831617835250505050604051806060016040528060328152602001612242603291396001600160a01b03881691906117a8565b905060008180602001905181019061125d919061215f565b6001600160e01b031916630a85bd0160e11b1492505050949350505050565b6001600160e01b031980831690036112a75760405163b0a19dd560e01b815260040160405180910390fd5b6001600160e01b03199190911660009081527ffc606c433378e3a7e0a6a531deac289b66caa1b4aa8554fd4ab2c6f1570f92d860205260409020805460ff1916911515919091179055565b6001600160a01b038216611319576040516311f2988d60e11b815260040160405180910390fd5b6113228161102d565b1561134057604051630d86bb7b60e31b815260040160405180910390fd5b61134c60008383611051565b6001600160a01b0382166000908152600080516020612274833981519152602052604090206000805160206122948339815191529061138b9083611153565b5061139781838561115f565b5060405182906001600160a01b038516906000907fddf252ad1be2c89b69c2b068fc378daa952ba7f163c4a11628f55a4df523b3ef908290a4505050565b6060816000036113fc5750506040805180820190915260018152600360fc1b602082015290565b8160005b8115611426578061141081612192565b915061141f9050600a836121c1565b9150611400565b60008167ffffffffffffffff81111561144157611441611aa3565b6040519080825280601f01601f19166020018201604052801561146b576020820181803683370190505b5090505b8415610ae2576114806001836121d5565b915061148d600a866121e8565b6114989060306121fc565b60f81b8183815181106114ad576114ad611e16565b60200101906001600160f81b031916908160001a9053506114cf600a866121c1565b945061146f565b600081815260018301602052604081205415156104b8565b61046b8383836117b7565b60008181526001830160205260408120548015610c625783546000908590600019810190811061152b5761152b611e16565b906000526020600020015490508085600001600184038154811061155157611551611e16565b60009182526020808320909101929092559182526001860190526040902081905583548490806115835761158361220f565b60008281526020808220830160001990810183905590920190925593815260019485019093525050604081205590565b60008181526001830160205260408120546103c4575081546001808201845560008481526020808220909301849055845493815293810190915260409092205590565b600082815260018401602052604081205480820361165d5750506040805180820182528381526020808201848152865460018181018955600089815284812095516002909302909501918255915190820155865486845281880190925292909120556104b8565b8285600001600183038154811061167657611676611e16565b90600052602060002090600202016001018190555060009150506104b8565b815460009082106116b95760405163e637bf3b60e01b815260040160405180910390fd5b8260000182815481106116ce576116ce611e16565b9060005260206000200154905092915050565b8154600090819083106117075760405163022fd82760e31b815260040160405180910390fd5b600084600001848154811061171e5761171e611e16565b906000526020600020906002020190508060000154816001015492509250509250929050565b600081815260018301602052604081205480820361177557604051633d547ec560e21b815260040160405180910390fd5b83600001600182038154811061178d5761178d611e16565b90600052602060002090600202016001015491505092915050565b6060610ae284846000856117fb565b6001600160a01b03821661046b5760008181527f99574a7094154bb123ae6ae102096f0bf9679b85a5cd1e727aaa0ae5f132e6b46020526040812061046b916118b8565b6060843b61181c57604051632270d6bf60e21b815260040160405180910390fd5b600080866001600160a01b031685876040516118389190612225565b60006040518083038185875af1925050503d8060008114611875576040519150601f19603f3d011682016040523d82523d6000602084013e61187a565b606091505b5091509150811561188e579150610ae29050565b80511561189e5780518082602001fd5b8360405162461bcd60e51b815260040161063c9190611991565b5080546118c490611f96565b6000825580601f106118d4575050565b601f0160209004906000526020600020908101906118f291906118f5565b50565b5b8082111561190a57600081556001016118f6565b5090565b6001600160e01b0319811681146118f257600080fd5b60006020828403121561193657600080fd5b81356104b88161190e565b60005b8381101561195c578181015183820152602001611944565b50506000910152565b6000815180845261197d816020860160208601611941565b601f01601f19169290920160200192915050565b6020815260006104b86020830184611965565b6000602082840312156119b657600080fd5b5035919050565b6001600160a01b03811681146118f257600080fd5b600080604083850312156119e557600080fd5b82356119f0816119bd565b946020939093013593505050565b600080600060608486031215611a1357600080fd5b8335611a1e816119bd565b92506020840135611a2e816119bd565b929592945050506040919091013590565b600060208284031215611a5157600080fd5b81356104b8816119bd565b80151581146118f257600080fd5b60008060408385031215611a7d57600080fd5b8235611a88816119bd565b91506020830135611a9881611a5c565b809150509250929050565b634e487b7160e01b600052604160045260246000fd5b604051601f8201601f1916810167ffffffffffffffff81118282101715611ae257611ae2611aa3565b604052919050565b600067ffffffffffffffff821115611b0457611b04611aa3565b50601f01601f191660200190565b6000611b25611b2084611aea565b611ab9565b9050828152838383011115611b3957600080fd5b828260208301376000602084830101529392505050565b60008060008060808587031215611b6657600080fd5b8435611b71816119bd565b93506020850135611b81816119bd565b925060408501359150606085013567ffffffffffffffff811115611ba457600080fd5b8501601f81018713611bb557600080fd5b611bc487823560208401611b12565b91505092959194509250565b60008083601f840112611be257600080fd5b50813567ffffffffffffffff811115611bfa57600080fd5b6020830191508360208260051b850101111561119857600080fd5b60008083601f840112611c2757600080fd5b50813567ffffffffffffffff811115611c3f57600080fd5b60208301915083602082850101111561119857600080fd5b60008060008060008060008060a0898b031215611c7357600080fd5b8835611c7e816119bd565b97506020890135611c8e816119bd565b9650604089013567ffffffffffffffff80821115611cab57600080fd5b611cb78c838d01611bd0565b909850965060608b0135915080821115611cd057600080fd5b611cdc8c838d01611bd0565b909650945060808b0135915080821115611cf557600080fd5b50611d028b828c01611c15565b999c989b5096995094979396929594505050565b60008060408385031215611d2957600080fd5b8235611d34816119bd565b91506020830135611a98816119bd565b60008060008060008060a08789031215611d5d57600080fd5b8635611d68816119bd565b95506020870135611d78816119bd565b94506040870135935060608701359250608087013567ffffffffffffffff811115611da257600080fd5b611dae89828a01611c15565b979a9699509497509295939492505050565b60208082526036908201527f5772617070656445524331313535537465776172644c6963656e7365466163656040820152751d0e88185b1c9958591e481a5b9a5d1a585b1a5e995960521b606082015260800190565b634e487b7160e01b600052603260045260246000fd5b6020808252603d908201527f5772617070656445524331313535537465776172644c6963656e73654661636560408201527f743a2063616e206f6e6c792072656365697665206f6e6520746f6b656e000000606082015260800190565b600082601f830112611e9a57600080fd5b6104b883833560208501611b12565b600080600060608486031215611ebe57600080fd5b8335611ec9816119bd565b9250602084013567ffffffffffffffff80821115611ee657600080fd5b611ef287838801611e89565b93506040860135915080821115611f0857600080fd5b50611f1586828701611e89565b9150509250925092565b600060208284031215611f3157600080fd5b815167ffffffffffffffff811115611f4857600080fd5b8201601f81018413611f5957600080fd5b8051611f67611b2082611aea565b818152856020838501011115611f7c57600080fd5b611f8d826020830160208601611941565b95945050505050565b600181811c90821680611faa57607f821691505b602082108103611fca57634e487b7160e01b600052602260045260246000fd5b50919050565b601f82111561046b57600081815260208120601f850160051c81016020861015611ff75750805b601f850160051c820191505b81811015610df757828155600101612003565b815167ffffffffffffffff81111561203057612030611aa3565b6120448161203e8454611f96565b84611fd0565b602080601f83116001811461207957600084156120615750858301515b600019600386901b1c1916600185901b178555610df7565b600085815260208120601f198616915b828110156120a857888601518255948401946001909101908401612089565b50858210156120c65787850151600019600388901b60f8161c191681555b5050505050600190811b01905550565b600083516120e8818460208801611941565b8351908301906120fc818360208801611941565b01949350505050565b60006020828403121561211757600080fd5b81516104b881611a5c565b6001600160a01b038581168252841660208201526040810183905260806060820181905260009061215590830184611965565b9695505050505050565b60006020828403121561217157600080fd5b81516104b88161190e565b634e487b7160e01b600052601160045260246000fd5b6000600182016121a4576121a461217c565b5060010190565b634e487b7160e01b600052601260045260246000fd5b6000826121d0576121d06121ab565b500490565b818103818111156103c4576103c461217c565b6000826121f7576121f76121ab565b500690565b808201808211156103c4576103c461217c565b634e487b7160e01b600052603160045260246000fd5b60008251612237818460208701611941565b919091019291505056fe4552433732313a207472616e7366657220746f206e6f6e20455243373231526563656976657220696d706c656d656e7465723c7bf052874fa81625121783266a03507bd2cd48b16e571c01a04e8dd3fb07a83c7bf052874fa81625121783266a03507bd2cd48b16e571c01a04e8dd3fb07a699574a7094154bb123ae6ae102096f0bf9679b85a5cd1e727aaa0ae5f132e6b1a264697066735822122013322448d591efe634c1af1caa5d195f66af28be1fe154e2c5ae49252679ba4464736f6c63430008110033",
  "devdoc": {
    "details": "ERC-721 token license for Steward that wraps existing ERC-1155. Transfers are disabled during an auction.",
    "kind": "dev",
    "methods": {
      "approve(address,uint256)": {
        "params": {
          "operator": "address to be approved",
          "tokenId": "token to approve"
        }
      },
      "balanceOf(address)": {
        "returns": {
          "_0": "quantity of tokens held"
        }
      },
      "getApproved(uint256)": {
        "params": {
          "tokenId": "token to query"
        },
        "returns": {
          "_0": "address approved to spend token"
        }
      },
      "isApprovedForAll(address,address)": {
        "params": {
          "account": "address to query for approval granted",
          "operator": "address to query for approval received"
        },
        "returns": {
          "_0": "whether operator is approved to spend tokens held by account"
        }
      },
      "ownerOf(uint256)": {
        "params": {
          "tokenId": "token to query"
        },
        "returns": {
          "_0": "token owner"
        }
      },
      "safeTransferFrom(address,address,uint256)": {
        "params": {
          "from": "sender of token",
          "to": "receiver of token",
          "tokenId": "token id"
        }
      },
      "safeTransferFrom(address,address,uint256,bytes)": {
        "params": {
          "data": "data payload",
          "from": "sender of token",
          "to": "receiver of token",
          "tokenId": "token id"
        }
      },
      "setApprovalForAll(address,bool)": {
        "params": {
          "operator": "address to be approved",
          "status": "approval status"
        }
      },
      "supportsInterface(bytes4)": {
        "params": {
          "interfaceId": "interface id"
        },
        "returns": {
          "_0": "bool whether interface is supported"
        }
      },
      "tokenByIndex(uint256)": {
        "params": {
          "index": "position in global token list to query"
        },
        "returns": {
          "_0": "id of retrieved token"
        }
      },
      "tokenOfOwnerByIndex(address,uint256)": {
        "params": {
          "index": "position in owner's token list to query",
          "owner": "token holder to query"
        },
        "returns": {
          "_0": "id of retrieved token"
        }
      },
      "totalSupply()": {
        "returns": {
          "_0": "total supply"
        }
      },
      "transferFrom(address,address,uint256)": {
        "params": {
          "from": "sender of token",
          "to": "receiver of token",
          "tokenId": "token id"
        }
      }
    },
    "title": "WrappedERC1155StewardLicenseFacet",
    "version": 1
  },
  "userdoc": {
    "kind": "user",
    "methods": {
      "approve(address,uint256)": {
        "notice": "grant approval to given account to spend token"
      },
      "balanceOf(address)": {
        "notice": "query the balance of given address"
      },
      "getApproved(uint256)": {
        "notice": "get approval status for given token"
      },
      "isApprovedForAll(address,address)": {
        "notice": "query approval status of given operator with respect to given address"
      },
      "name()": {
        "notice": "inheritdoc IERC721Metadata"
      },
      "ownerOf(uint256)": {
        "notice": "query the owner of given token"
      },
      "safeTransferFrom(address,address,uint256)": {
        "notice": "transfer token between given addresses, checking for ERC721Receiver implementation if applicable"
      },
      "safeTransferFrom(address,address,uint256,bytes)": {
        "notice": "transfer token between given addresses, checking for ERC721Receiver implementation if applicable"
      },
      "setApprovalForAll(address,bool)": {
        "notice": "grant approval to or revoke approval from given account to spend all tokens held by sender"
      },
      "supportsInterface(bytes4)": {
        "notice": "query whether contract has registered support for given interface"
      },
      "symbol()": {
        "notice": "inheritdoc IERC721Metadata"
      },
      "tokenByIndex(uint256)": {
        "notice": "get token at given internal storage index"
      },
      "tokenOfOwnerByIndex(address,uint256)": {
        "notice": "get token of given owner at given internal storage index"
      },
      "tokenURI(uint256)": {
        "notice": "inheritdoc IERC721Metadata"
      },
      "totalSupply()": {
        "notice": "get total token supply"
      },
      "transferFrom(address,address,uint256)": {
        "notice": "transfer token between given addresses, without checking for ERC721Receiver implementation if applicable"
      },
      "triggerTransfer(address,address,uint256)": {
        "notice": "Trigger transfer of license"
      }
    },
    "version": 1
  },
  "storageLayout": {
    "storage": [],
    "types": null
  }
}