{
  "address": "0x96e55975fE494B2fa35e45D864f22224cb8DEA37",
  "abi": [
    {
      "inputs": [],
      "name": "AddressUtils__NotContract",
      "type": "error"
    },
    {
      "inputs": [],
      "name": "ERC165Base__InvalidInterfaceId",
      "type": "error"
    },
    {
      "inputs": [],
      "name": "ERC721Base__BalanceQueryZeroAddress",
      "type": "error"
    },
    {
      "inputs": [],
      "name": "ERC721Base__ERC721ReceiverNotImplemented",
      "type": "error"
    },
    {
      "inputs": [],
      "name": "ERC721Base__InvalidOwner",
      "type": "error"
    },
    {
      "inputs": [],
      "name": "ERC721Base__MintToZeroAddress",
      "type": "error"
    },
    {
      "inputs": [],
      "name": "ERC721Base__NonExistentToken",
      "type": "error"
    },
    {
      "inputs": [],
      "name": "ERC721Base__NotOwnerOrApproved",
      "type": "error"
    },
    {
      "inputs": [],
      "name": "ERC721Base__NotTokenOwner",
      "type": "error"
    },
    {
      "inputs": [],
      "name": "ERC721Base__SelfApproval",
      "type": "error"
    },
    {
      "inputs": [],
      "name": "ERC721Base__TokenAlreadyMinted",
      "type": "error"
    },
    {
      "inputs": [],
      "name": "ERC721Base__TransferToZeroAddress",
      "type": "error"
    },
    {
      "inputs": [],
      "name": "ERC721Metadata__NonExistentToken",
      "type": "error"
    },
    {
      "inputs": [],
      "name": "EnumerableMap__IndexOutOfBounds",
      "type": "error"
    },
    {
      "inputs": [],
      "name": "EnumerableMap__NonExistentKey",
      "type": "error"
    },
    {
      "inputs": [],
      "name": "EnumerableSet__IndexOutOfBounds",
      "type": "error"
    },
    {
      "anonymous": false,
      "inputs": [
        {
          "indexed": true,
          "internalType": "address",
          "name": "owner",
          "type": "address"
        },
        {
          "indexed": true,
          "internalType": "address",
          "name": "operator",
          "type": "address"
        },
        {
          "indexed": true,
          "internalType": "uint256",
          "name": "tokenId",
          "type": "uint256"
        }
      ],
      "name": "Approval",
      "type": "event"
    },
    {
      "anonymous": false,
      "inputs": [
        {
          "indexed": true,
          "internalType": "address",
          "name": "owner",
          "type": "address"
        },
        {
          "indexed": true,
          "internalType": "address",
          "name": "operator",
          "type": "address"
        },
        {
          "indexed": false,
          "internalType": "bool",
          "name": "approved",
          "type": "bool"
        }
      ],
      "name": "ApprovalForAll",
      "type": "event"
    },
    {
      "anonymous": false,
      "inputs": [
        {
          "indexed": true,
          "internalType": "address",
          "name": "from",
          "type": "address"
        },
        {
          "indexed": true,
          "internalType": "address",
          "name": "to",
          "type": "address"
        },
        {
          "indexed": true,
          "internalType": "uint256",
          "name": "tokenId",
          "type": "uint256"
        }
      ],
      "name": "Transfer",
      "type": "event"
    },
    {
      "inputs": [
        {
          "internalType": "address",
          "name": "operator",
          "type": "address"
        },
        {
          "internalType": "uint256",
          "name": "tokenId",
          "type": "uint256"
        }
      ],
      "name": "approve",
      "outputs": [],
      "stateMutability": "payable",
      "type": "function"
    },
    {
      "inputs": [
        {
          "internalType": "address",
          "name": "account",
          "type": "address"
        }
      ],
      "name": "balanceOf",
      "outputs": [
        {
          "internalType": "uint256",
          "name": "",
          "type": "uint256"
        }
      ],
      "stateMutability": "view",
      "type": "function"
    },
    {
      "inputs": [
        {
          "internalType": "uint256",
          "name": "tokenId",
          "type": "uint256"
        }
      ],
      "name": "getApproved",
      "outputs": [
        {
          "internalType": "address",
          "name": "",
          "type": "address"
        }
      ],
      "stateMutability": "view",
      "type": "function"
    },
    {
      "inputs": [
        {
          "internalType": "address",
          "name": "account",
          "type": "address"
        },
        {
          "internalType": "address",
          "name": "operator",
          "type": "address"
        }
      ],
      "name": "isApprovedForAll",
      "outputs": [
        {
          "internalType": "bool",
          "name": "",
          "type": "bool"
        }
      ],
      "stateMutability": "view",
      "type": "function"
    },
    {
      "inputs": [],
      "name": "name",
      "outputs": [
        {
          "internalType": "string",
          "name": "",
          "type": "string"
        }
      ],
      "stateMutability": "view",
      "type": "function"
    },
    {
      "inputs": [
        {
          "internalType": "address",
          "name": "",
          "type": "address"
        },
        {
          "internalType": "address",
          "name": "",
          "type": "address"
        },
        {
          "internalType": "uint256",
          "name": "tokenId",
          "type": "uint256"
        },
        {
          "internalType": "bytes",
          "name": "data",
          "type": "bytes"
        }
      ],
      "name": "onERC721Received",
      "outputs": [
        {
          "internalType": "bytes4",
          "name": "",
          "type": "bytes4"
        }
      ],
      "stateMutability": "nonpayable",
      "type": "function"
    },
    {
      "inputs": [
        {
          "internalType": "uint256",
          "name": "tokenId",
          "type": "uint256"
        }
      ],
      "name": "ownerOf",
      "outputs": [
        {
          "internalType": "address",
          "name": "",
          "type": "address"
        }
      ],
      "stateMutability": "view",
      "type": "function"
    },
    {
      "inputs": [
        {
          "internalType": "address",
          "name": "from",
          "type": "address"
        },
        {
          "internalType": "address",
          "name": "to",
          "type": "address"
        },
        {
          "internalType": "uint256",
          "name": "tokenId",
          "type": "uint256"
        }
      ],
      "name": "safeTransferFrom",
      "outputs": [],
      "stateMutability": "payable",
      "type": "function"
    },
    {
      "inputs": [
        {
          "internalType": "address",
          "name": "from",
          "type": "address"
        },
        {
          "internalType": "address",
          "name": "to",
          "type": "address"
        },
        {
          "internalType": "uint256",
          "name": "tokenId",
          "type": "uint256"
        },
        {
          "internalType": "bytes",
          "name": "data",
          "type": "bytes"
        }
      ],
      "name": "safeTransferFrom",
      "outputs": [],
      "stateMutability": "payable",
      "type": "function"
    },
    {
      "inputs": [
        {
          "internalType": "address",
          "name": "operator",
          "type": "address"
        },
        {
          "internalType": "bool",
          "name": "status",
          "type": "bool"
        }
      ],
      "name": "setApprovalForAll",
      "outputs": [],
      "stateMutability": "nonpayable",
      "type": "function"
    },
    {
      "inputs": [
        {
          "internalType": "bytes4",
          "name": "interfaceId",
          "type": "bytes4"
        }
      ],
      "name": "supportsInterface",
      "outputs": [
        {
          "internalType": "bool",
          "name": "",
          "type": "bool"
        }
      ],
      "stateMutability": "view",
      "type": "function"
    },
    {
      "inputs": [],
      "name": "symbol",
      "outputs": [
        {
          "internalType": "string",
          "name": "",
          "type": "string"
        }
      ],
      "stateMutability": "view",
      "type": "function"
    },
    {
      "inputs": [
        {
          "internalType": "uint256",
          "name": "index",
          "type": "uint256"
        }
      ],
      "name": "tokenByIndex",
      "outputs": [
        {
          "internalType": "uint256",
          "name": "",
          "type": "uint256"
        }
      ],
      "stateMutability": "view",
      "type": "function"
    },
    {
      "inputs": [
        {
          "internalType": "address",
          "name": "owner",
          "type": "address"
        },
        {
          "internalType": "uint256",
          "name": "index",
          "type": "uint256"
        }
      ],
      "name": "tokenOfOwnerByIndex",
      "outputs": [
        {
          "internalType": "uint256",
          "name": "",
          "type": "uint256"
        }
      ],
      "stateMutability": "view",
      "type": "function"
    },
    {
      "inputs": [
        {
          "internalType": "uint256",
          "name": "tokenId",
          "type": "uint256"
        }
      ],
      "name": "tokenURI",
      "outputs": [
        {
          "internalType": "string",
          "name": "",
          "type": "string"
        }
      ],
      "stateMutability": "view",
      "type": "function"
    },
    {
      "inputs": [],
      "name": "totalSupply",
      "outputs": [
        {
          "internalType": "uint256",
          "name": "",
          "type": "uint256"
        }
      ],
      "stateMutability": "view",
      "type": "function"
    },
    {
      "inputs": [
        {
          "internalType": "address",
          "name": "from",
          "type": "address"
        },
        {
          "internalType": "address",
          "name": "to",
          "type": "address"
        },
        {
          "internalType": "uint256",
          "name": "tokenId",
          "type": "uint256"
        }
      ],
      "name": "transferFrom",
      "outputs": [],
      "stateMutability": "payable",
      "type": "function"
    },
    {
      "inputs": [
        {
          "internalType": "address",
          "name": "from",
          "type": "address"
        },
        {
          "internalType": "address",
          "name": "to",
          "type": "address"
        },
        {
          "internalType": "uint256",
          "name": "tokenId",
          "type": "uint256"
        }
      ],
      "name": "triggerTransfer",
      "outputs": [],
      "stateMutability": "nonpayable",
      "type": "function"
    }
  ],
  "transactionHash": "0xa9eb1702cd740d4460654b1f6d68df07b5dda69bb84537bfe59f8f5e00e61149",
  "args": [],
  "numDeployments": 2,
  "solcInputHash": "a8b5d8a015e94cc47e75d180dd140140",
  "bytecode": "0x608060405234801561001057600080fd5b50612031806100206000396000f3fe6080604052600436106101095760003560e01c80634f6ccce711610095578063a22cb46511610064578063a22cb465146102c9578063b88d4fde146102e9578063c87b56dd146102fc578063e31a7c011461031c578063e985e9c51461033c57600080fd5b80634f6ccce7146102545780636352211e1461027457806370a082311461029457806395d89b41146102b457600080fd5b8063150b7a02116100dc578063150b7a02146101b257806318160ddd146101eb57806323b872dd1461020e5780632f745c591461022157806342842e0e1461024157600080fd5b806301ffc9a71461010e57806306fdde0314610143578063081812fc14610165578063095ea7b31461019d575b600080fd5b34801561011a57600080fd5b5061012e6101293660046118c7565b61035c565b60405190151581526020015b60405180910390f35b34801561014f57600080fd5b5061015861039f565b60405161013a9190611934565b34801561017157600080fd5b50610185610180366004611947565b6103ae565b6040516001600160a01b03909116815260200161013a565b6101b06101ab366004611975565b6103b9565b005b3480156101be57600080fd5b506101d26101cd3660046119a1565b610445565b6040516001600160e01b0319909116815260200161013a565b3480156101f757600080fd5b5061020061063e565b60405190815260200161013a565b6101b061021c366004611a40565b610648565b34801561022d57600080fd5b5061020061023c366004611975565b61067a565b6101b061024f366004611a40565b61068d565b34801561026057600080fd5b5061020061026f366004611947565b6106a8565b34801561028057600080fd5b5061018561028f366004611947565b6106b3565b3480156102a057600080fd5b506102006102af366004611a81565b6106be565b3480156102c057600080fd5b506101586106c9565b3480156102d557600080fd5b506101b06102e4366004611aac565b6106d3565b6101b06102f7366004611b54565b610787565b34801561030857600080fd5b50610158610317366004611947565b6107c0565b34801561032857600080fd5b506101b0610337366004611a40565b6107cb565b34801561034857600080fd5b5061012e610357366004611c03565b610855565b6001600160e01b0319811660009081527ffc606c433378e3a7e0a6a531deac289b66caa1b4aa8554fd4ab2c6f1570f92d8602052604081205460ff165b92915050565b60606103a9610861565b905090565b600061039982610900565b60006103c4826106b3565b9050806001600160a01b0316836001600160a01b0316036103f85760405163424a22cb60e01b815260040160405180910390fd5b336001600160a01b0382161480159061041857506104168133610855565b155b1561043657604051632f5de44f60e01b815260040160405180910390fd5b6104408383610963565b505050565b60006104727f79ec1734da2430052e9d78936f451aad707e5bed12ef4806b06dc3d0c38f0e305460ff1690565b156104e25760405162461bcd60e51b815260206004820152603560248201527f57726170706564455243373231537465776172644c6963656e736546616365746044820152740e88185b1c9958591e481a5b9a5d1a585b1a5e9959605a1b60648201526084015b60405180910390fd5b60006104f083850185611a81565b905061062b81336001600160a01b03166306fdde036040518163ffffffff1660e01b8152600401600060405180830381865afa158015610534573d6000803e3d6000fd5b505050506040513d6000823e601f3d908101601f1916820160405261055c9190810190611c31565b336001600160a01b03166395d89b416040518163ffffffff1660e01b8152600401600060405180830381865afa15801561059a573d6000803e3d6000fd5b505050506040513d6000823e601f3d908101601f191682016040526105c29190810190611c31565b60405163c87b56dd60e01b8152600481018a9052339063c87b56dd90602401600060405180830381865afa1580156105fe573d6000803e3d6000fd5b505050506040513d6000823e601f3d908101601f191682016040526106269190810190611c31565b6109f0565b50630a85bd0160e11b9695505050505050565b60006103a9610a98565b6106523382610ab1565b61066f57604051632f5de44f60e01b815260040160405180910390fd5b610440838383610b37565b60006106868383610c66565b9392505050565b61044083838360405180602001604052806000815250610787565b600061039982610c95565b600061039982610cb6565b600061039982610cfa565b60606103a9610d51565b336001600160a01b038316036106fc5760405163424a22cb60e01b815260040160405180910390fd5b3360008181527f3c7bf052874fa81625121783266a03507bd2cd48b16e571c01a04e8dd3fb07aa602090815260408083206001600160a01b03871680855290835292819020805460ff191686151590811790915590519081529192917f17307eab39ab6107e8899845ad3d59bd9653f200f220920489ca2b5937696c31910160405180910390a35050565b6107913383610ab1565b6107ae57604051632f5de44f60e01b815260040160405180910390fd5b6107ba84848484610d70565b50505050565b606061039982610da4565b33301461066f5760405162461bcd60e51b815260206004820152604c60248201527f4e6174697665537465776172644c6963656e73653a205472696767657220747260448201527f616e736665722063616e206f6e6c792062652063616c6c65642066726f6d206160648201526b1b9bdd1a195c88199858d95d60a21b608482015260a4016104d9565b60006106868383610f85565b6060600080516020611fdc833981519152805461087d90611ca8565b80601f01602080910402602001604051908101604052809291908181526020018280546108a990611ca8565b80156108f65780601f106108cb576101008083540402835291602001916108f6565b820191906000526020600020905b8154815290600101906020018083116108d957829003601f168201915b5050505050905090565b600061090b82610fd2565b6109285760405163c1b843ef60e01b815260040160405180910390fd5b5060009081527f3c7bf052874fa81625121783266a03507bd2cd48b16e571c01a04e8dd3fb07a960205260409020546001600160a01b031690565b60008181527f3c7bf052874fa81625121783266a03507bd2cd48b16e571c01a04e8dd3fb07a96020526040902080546001600160a01b0319166001600160a01b03841690811790915581906109b782610cb6565b6001600160a01b03167f8c5be1e5ebec7d5bd14f71427d1e84f3dd0314c0f7b2291e5b200ac8c7c3b92560405160405180910390a45050565b7f79ec1734da2430052e9d78936f451aad707e5bed12ef4806b06dc3d0c38f0e30805460ff19166001178155600080516020611fdc83398151915280610a368682611d28565b5060018101610a458582611d28565b5060008080526003820160205260409020610a608482611d28565b50610a736301ffc9a760e01b6001610fec565b610a856380ac58cd60e01b6001610fec565b610a90866000611062565b505050505050565b60006103a9600080516020611fbc833981519152611145565b6000610abc82610fd2565b610ad95760405163c1b843ef60e01b815260040160405180910390fd5b6000610ae483610cb6565b9050806001600160a01b0316846001600160a01b03161480610b1f5750836001600160a01b0316610b1484610900565b6001600160a01b0316145b80610b2f5750610b2f8185610f85565b949350505050565b826001600160a01b0316610b4a82610cb6565b6001600160a01b031614610b7157604051630f2db4ad60e01b815260040160405180910390fd5b6001600160a01b038216610b98576040516340311a0960e01b815260040160405180910390fd5b610ba383838361114f565b610bae600082610963565b6001600160a01b0383166000908152600080516020611f9c83398151915260205260409020600080516020611fbc83398151915290610bed9083611245565b506001600160a01b03831660009081526002820160205260409020610c129083611251565b50610c1e81838561125d565b5081836001600160a01b0316856001600160a01b03167fddf252ad1be2c89b69c2b068fc378daa952ba7f163c4a11628f55a4df523b3ef60405160405180910390a450505050565b6001600160a01b0382166000908152600080516020611f9c833981519152602052604081206106869083611273565b6000610caf600080516020611fbc8339815191528361127f565b5092915050565b600080610cd1600080516020611fbc8339815191528461129b565b90506001600160a01b03811661039957604051637e1a7d8b60e01b815260040160405180910390fd5b60006001600160a01b038216610d2357604051630810ff9760e41b815260040160405180910390fd5b6001600160a01b0382166000908152600080516020611f9c8339815191526020526040902061039990611145565b6060600080516020611fdc833981519152600101805461087d90611ca8565b610d7b848484610b37565b610d87848484846112a7565b6107ba57604051639ff10cdd60e01b815260040160405180910390fd5b6060610daf82610fd2565b610dcb57604051624705a760e71b815260040160405180910390fd5b60008281527f99574a7094154bb123ae6ae102096f0bf9679b85a5cd1e727aaa0ae5f132e6b4602052604081208054600080516020611fdc833981519152929190610e1590611ca8565b80601f0160208091040260200160405190810160405280929190818152602001828054610e4190611ca8565b8015610e8e5780601f10610e6357610100808354040283529160200191610e8e565b820191906000526020600020905b815481529060010190602001808311610e7157829003601f168201915b505050505090506000826002018054610ea690611ca8565b80601f0160208091040260200160405190810160405280929190818152602001828054610ed290611ca8565b8015610f1f5780601f10610ef457610100808354040283529160200191610f1f565b820191906000526020600020905b815481529060010190602001808311610f0257829003601f168201915b505050505090508051600003610f3757509392505050565b815115610f6a578082604051602001610f51929190611de8565b6040516020818303038152906040529350505050919050565b80610f7486611378565b604051602001610f51929190611de8565b6001600160a01b0391821660009081527f3c7bf052874fa81625121783266a03507bd2cd48b16e571c01a04e8dd3fb07aa6020908152604080832093909416825291909152205460ff1690565b6000610399600080516020611fbc83398151915283611479565b6001600160e01b031980831690036110175760405163b0a19dd560e01b815260040160405180910390fd5b6001600160e01b03199190911660009081527ffc606c433378e3a7e0a6a531deac289b66caa1b4aa8554fd4ab2c6f1570f92d860205260409020805460ff1916911515919091179055565b6001600160a01b038216611089576040516311f2988d60e11b815260040160405180910390fd5b61109281610fd2565b156110b057604051630d86bb7b60e31b815260040160405180910390fd5b6110bc6000838361114f565b6001600160a01b0382166000908152600080516020611f9c83398151915260205260409020600080516020611fbc833981519152906110fb9083611251565b5061110781838561125d565b5060405182906001600160a01b038516906000907fddf252ad1be2c89b69c2b068fc378daa952ba7f163c4a11628f55a4df523b3ef908290a4505050565b6000610399825490565b6001600160a01b0383161561123a576000306001600160a01b031663ec214d336040518163ffffffff1660e01b8152600401602060405180830381865afa15801561119e573d6000803e3d6000fd5b505050506040513d601f19601f820116820180604052508101906111c29190611e17565b905080156112385760405162461bcd60e51b815260206004820152603a60248201527f537465776172644c6963656e736546616365743a2043616e6e6f74207472616e60448201527f7366657220647572696e672061756374696f6e20706572696f6400000000000060648201526084016104d9565b505b610440838383611491565b6000610686838361149c565b60006106868383611556565b6000610b2f84846001600160a01b038516611599565b60006106868383611638565b600080808061128e8686611684565b9097909650945050505050565b600061068683836116e7565b60006001600160a01b0384163b6112c057506001610b2f565b600061134163150b7a0260e01b338887876040516024016112e49493929190611e34565b604051602081830303815290604052906001600160e01b0319166020820180516001600160e01b038381831617835250505050604051806060016040528060328152602001611f6a603291396001600160a01b038816919061174b565b90506000818060200190518101906113599190611e71565b6001600160e01b031916630a85bd0160e11b1492505050949350505050565b60608160000361139f5750506040805180820190915260018152600360fc1b602082015290565b8160005b81156113c957806113b381611ea4565b91506113c29050600a83611ed3565b91506113a3565b60008167ffffffffffffffff8111156113e4576113e4611ae5565b6040519080825280601f01601f19166020018201604052801561140e576020820181803683370190505b5090505b8415610b2f57611423600183611ee7565b9150611430600a86611efa565b61143b906030611f0e565b60f81b81838151811061145057611450611f21565b60200101906001600160f81b031916908160001a905350611472600a86611ed3565b9450611412565b60008181526001830160205260408120541515610686565b61044083838361175a565b60008181526001830160205260408120548015610caf578354600090859060001981019081106114ce576114ce611f21565b90600052602060002001549050808560000160018403815481106114f4576114f4611f21565b600091825260208083209091019290925591825260018601905260409020819055835484908061152657611526611f37565b60008281526020808220830160001990810183905590920190925593815260019485019093525050604081205590565b6000818152600183016020526040812054610399575081546001808201845560008481526020808220909301849055845493815293810190915260409092205590565b6000828152600184016020526040812054808203611600575050604080518082018252838152602080820184815286546001818101895560008981528481209551600290930290950191825591519082015586548684528188019092529290912055610686565b8285600001600183038154811061161957611619611f21565b9060005260206000209060020201600101819055506000915050610686565b8154600090821061165c5760405163e637bf3b60e01b815260040160405180910390fd5b82600001828154811061167157611671611f21565b9060005260206000200154905092915050565b8154600090819083106116aa5760405163022fd82760e31b815260040160405180910390fd5b60008460000184815481106116c1576116c1611f21565b906000526020600020906002020190508060000154816001015492509250509250929050565b600081815260018301602052604081205480820361171857604051633d547ec560e21b815260040160405180910390fd5b83600001600182038154811061173057611730611f21565b90600052602060002090600202016001015491505092915050565b6060610b2f848460008561179e565b6001600160a01b0382166104405760008181527f99574a7094154bb123ae6ae102096f0bf9679b85a5cd1e727aaa0ae5f132e6b4602052604081206104409161185b565b6060843b6117bf57604051632270d6bf60e21b815260040160405180910390fd5b600080866001600160a01b031685876040516117db9190611f4d565b60006040518083038185875af1925050503d8060008114611818576040519150601f19603f3d011682016040523d82523d6000602084013e61181d565b606091505b50915091508115611831579150610b2f9050565b8051156118415780518082602001fd5b8360405162461bcd60e51b81526004016104d99190611934565b50805461186790611ca8565b6000825580601f10611877575050565b601f0160209004906000526020600020908101906118959190611898565b50565b5b808211156118ad5760008155600101611899565b5090565b6001600160e01b03198116811461189557600080fd5b6000602082840312156118d957600080fd5b8135610686816118b1565b60005b838110156118ff5781810151838201526020016118e7565b50506000910152565b600081518084526119208160208601602086016118e4565b601f01601f19169290920160200192915050565b6020815260006106866020830184611908565b60006020828403121561195957600080fd5b5035919050565b6001600160a01b038116811461189557600080fd5b6000806040838503121561198857600080fd5b823561199381611960565b946020939093013593505050565b6000806000806000608086880312156119b957600080fd5b85356119c481611960565b945060208601356119d481611960565b935060408601359250606086013567ffffffffffffffff808211156119f857600080fd5b818801915088601f830112611a0c57600080fd5b813581811115611a1b57600080fd5b896020828501011115611a2d57600080fd5b9699959850939650602001949392505050565b600080600060608486031215611a5557600080fd5b8335611a6081611960565b92506020840135611a7081611960565b929592945050506040919091013590565b600060208284031215611a9357600080fd5b813561068681611960565b801515811461189557600080fd5b60008060408385031215611abf57600080fd5b8235611aca81611960565b91506020830135611ada81611a9e565b809150509250929050565b634e487b7160e01b600052604160045260246000fd5b604051601f8201601f1916810167ffffffffffffffff81118282101715611b2457611b24611ae5565b604052919050565b600067ffffffffffffffff821115611b4657611b46611ae5565b50601f01601f191660200190565b60008060008060808587031215611b6a57600080fd5b8435611b7581611960565b93506020850135611b8581611960565b925060408501359150606085013567ffffffffffffffff811115611ba857600080fd5b8501601f81018713611bb957600080fd5b8035611bcc611bc782611b2c565b611afb565b818152886020838501011115611be157600080fd5b8160208401602083013760006020838301015280935050505092959194509250565b60008060408385031215611c1657600080fd5b8235611c2181611960565b91506020830135611ada81611960565b600060208284031215611c4357600080fd5b815167ffffffffffffffff811115611c5a57600080fd5b8201601f81018413611c6b57600080fd5b8051611c79611bc782611b2c565b818152856020838501011115611c8e57600080fd5b611c9f8260208301602086016118e4565b95945050505050565b600181811c90821680611cbc57607f821691505b602082108103611cdc57634e487b7160e01b600052602260045260246000fd5b50919050565b601f82111561044057600081815260208120601f850160051c81016020861015611d095750805b601f850160051c820191505b81811015610a9057828155600101611d15565b815167ffffffffffffffff811115611d4257611d42611ae5565b611d5681611d508454611ca8565b84611ce2565b602080601f831160018114611d8b5760008415611d735750858301515b600019600386901b1c1916600185901b178555610a90565b600085815260208120601f198616915b82811015611dba57888601518255948401946001909101908401611d9b565b5085821015611dd85787850151600019600388901b60f8161c191681555b5050505050600190811b01905550565b60008351611dfa8184602088016118e4565b835190830190611e0e8183602088016118e4565b01949350505050565b600060208284031215611e2957600080fd5b815161068681611a9e565b6001600160a01b0385811682528416602082015260408101839052608060608201819052600090611e6790830184611908565b9695505050505050565b600060208284031215611e8357600080fd5b8151610686816118b1565b634e487b7160e01b600052601160045260246000fd5b600060018201611eb657611eb6611e8e565b5060010190565b634e487b7160e01b600052601260045260246000fd5b600082611ee257611ee2611ebd565b500490565b8181038181111561039957610399611e8e565b600082611f0957611f09611ebd565b500690565b8082018082111561039957610399611e8e565b634e487b7160e01b600052603260045260246000fd5b634e487b7160e01b600052603160045260246000fd5b60008251611f5f8184602087016118e4565b919091019291505056fe4552433732313a207472616e7366657220746f206e6f6e20455243373231526563656976657220696d706c656d656e7465723c7bf052874fa81625121783266a03507bd2cd48b16e571c01a04e8dd3fb07a83c7bf052874fa81625121783266a03507bd2cd48b16e571c01a04e8dd3fb07a699574a7094154bb123ae6ae102096f0bf9679b85a5cd1e727aaa0ae5f132e6b1a26469706673582212205cd5aeb8f4ab82524d9c2650db22a3e0639d869f7e912fa4ef01c652bcf62a9864736f6c63430008110033",
  "devdoc": {
    "details": "ERC-721 token license for Steward that wraps existing ERC-721. Transfers are disabled during an auction.",
    "kind": "dev",
    "methods": {
      "approve(address,uint256)": {
        "params": {
          "operator": "address to be approved",
          "tokenId": "token to approve"
        }
      },
      "balanceOf(address)": {
        "returns": {
          "_0": "quantity of tokens held"
        }
      },
      "getApproved(uint256)": {
        "params": {
          "tokenId": "token to query"
        },
        "returns": {
          "_0": "address approved to spend token"
        }
      },
      "isApprovedForAll(address,address)": {
        "params": {
          "account": "address to query for approval granted",
          "operator": "address to query for approval received"
        },
        "returns": {
          "_0": "whether operator is approved to spend tokens held by account"
        }
      },
      "ownerOf(uint256)": {
        "params": {
          "tokenId": "token to query"
        },
        "returns": {
          "_0": "token owner"
        }
      },
      "safeTransferFrom(address,address,uint256)": {
        "params": {
          "from": "sender of token",
          "to": "receiver of token",
          "tokenId": "token id"
        }
      },
      "safeTransferFrom(address,address,uint256,bytes)": {
        "params": {
          "data": "data payload",
          "from": "sender of token",
          "to": "receiver of token",
          "tokenId": "token id"
        }
      },
      "setApprovalForAll(address,bool)": {
        "params": {
          "operator": "address to be approved",
          "status": "approval status"
        }
      },
      "supportsInterface(bytes4)": {
        "params": {
          "interfaceId": "interface id"
        },
        "returns": {
          "_0": "bool whether interface is supported"
        }
      },
      "tokenByIndex(uint256)": {
        "params": {
          "index": "position in global token list to query"
        },
        "returns": {
          "_0": "id of retrieved token"
        }
      },
      "tokenOfOwnerByIndex(address,uint256)": {
        "params": {
          "index": "position in owner's token list to query",
          "owner": "token holder to query"
        },
        "returns": {
          "_0": "id of retrieved token"
        }
      },
      "totalSupply()": {
        "returns": {
          "_0": "total supply"
        }
      },
      "transferFrom(address,address,uint256)": {
        "params": {
          "from": "sender of token",
          "to": "receiver of token",
          "tokenId": "token id"
        }
      }
    },
    "title": "WrappedERC721StewardLicenseFacet",
    "version": 1
  },
  "userdoc": {
    "kind": "user",
    "methods": {
      "approve(address,uint256)": {
        "notice": "grant approval to given account to spend token"
      },
      "balanceOf(address)": {
        "notice": "query the balance of given address"
      },
      "getApproved(uint256)": {
        "notice": "get approval status for given token"
      },
      "isApprovedForAll(address,address)": {
        "notice": "query approval status of given operator with respect to given address"
      },
      "name()": {
        "notice": "inheritdoc IERC721Metadata"
      },
      "ownerOf(uint256)": {
        "notice": "query the owner of given token"
      },
      "safeTransferFrom(address,address,uint256)": {
        "notice": "transfer token between given addresses, checking for ERC721Receiver implementation if applicable"
      },
      "safeTransferFrom(address,address,uint256,bytes)": {
        "notice": "transfer token between given addresses, checking for ERC721Receiver implementation if applicable"
      },
      "setApprovalForAll(address,bool)": {
        "notice": "grant approval to or revoke approval from given account to spend all tokens held by sender"
      },
      "supportsInterface(bytes4)": {
        "notice": "query whether contract has registered support for given interface"
      },
      "symbol()": {
        "notice": "inheritdoc IERC721Metadata"
      },
      "tokenByIndex(uint256)": {
        "notice": "get token at given internal storage index"
      },
      "tokenOfOwnerByIndex(address,uint256)": {
        "notice": "get token of given owner at given internal storage index"
      },
      "tokenURI(uint256)": {
        "notice": "inheritdoc IERC721Metadata"
      },
      "totalSupply()": {
        "notice": "get total token supply"
      },
      "transferFrom(address,address,uint256)": {
        "notice": "transfer token between given addresses, without checking for ERC721Receiver implementation if applicable"
      },
      "triggerTransfer(address,address,uint256)": {
        "notice": "Trigger transfer of license"
      }
    },
    "version": 1
  },
  "storageLayout": {
    "storage": [],
    "types": null
  }
}